{
	"backend/contracts/CarbonCreditToken.sol": {
		"CarbonCreditToken": {
			"abi": [
				{
					"inputs": [
						{
							"internalType": "address",
							"name": "registryAddress",
							"type": "address"
						}
					],
					"stateMutability": "nonpayable",
					"type": "constructor"
				},
				{
					"anonymous": false,
					"inputs": [
						{
							"indexed": true,
							"internalType": "address",
							"name": "from",
							"type": "address"
						},
						{
							"indexed": false,
							"internalType": "uint256",
							"name": "amount",
							"type": "uint256"
						}
					],
					"name": "AdminBurn",
					"type": "event"
				},
				{
					"anonymous": false,
					"inputs": [
						{
							"indexed": true,
							"internalType": "address",
							"name": "to",
							"type": "address"
						},
						{
							"indexed": false,
							"internalType": "uint256",
							"name": "amount",
							"type": "uint256"
						}
					],
					"name": "AdminMint",
					"type": "event"
				},
				{
					"anonymous": false,
					"inputs": [
						{
							"indexed": true,
							"internalType": "address",
							"name": "owner",
							"type": "address"
						},
						{
							"indexed": true,
							"internalType": "address",
							"name": "spender",
							"type": "address"
						},
						{
							"indexed": false,
							"internalType": "uint256",
							"name": "value",
							"type": "uint256"
						}
					],
					"name": "Approval",
					"type": "event"
				},
				{
					"anonymous": false,
					"inputs": [
						{
							"indexed": true,
							"internalType": "address",
							"name": "company",
							"type": "address"
						},
						{
							"indexed": false,
							"internalType": "bytes32",
							"name": "batchId",
							"type": "bytes32"
						},
						{
							"indexed": false,
							"internalType": "uint256",
							"name": "owedTokens",
							"type": "uint256"
						},
						{
							"indexed": false,
							"internalType": "uint256",
							"name": "dueTime",
							"type": "uint256"
						}
					],
					"name": "BatchOwed",
					"type": "event"
				},
				{
					"anonymous": false,
					"inputs": [
						{
							"indexed": true,
							"internalType": "address",
							"name": "company",
							"type": "address"
						},
						{
							"indexed": false,
							"internalType": "bytes32",
							"name": "batchHash",
							"type": "bytes32"
						},
						{
							"indexed": false,
							"internalType": "bytes32",
							"name": "batchId",
							"type": "bytes32"
						},
						{
							"indexed": false,
							"internalType": "uint256",
							"name": "startTime",
							"type": "uint256"
						},
						{
							"indexed": false,
							"internalType": "uint256",
							"name": "endTime",
							"type": "uint256"
						},
						{
							"indexed": false,
							"internalType": "uint256",
							"name": "emissionKg",
							"type": "uint256"
						},
						{
							"indexed": false,
							"internalType": "uint256",
							"name": "capKg",
							"type": "uint256"
						},
						{
							"indexed": false,
							"internalType": "uint256",
							"name": "mintedTokens",
							"type": "uint256"
						},
						{
							"indexed": false,
							"internalType": "uint256",
							"name": "burnedTokens",
							"type": "uint256"
						},
						{
							"indexed": false,
							"internalType": "int256",
							"name": "tokenChange",
							"type": "int256"
						}
					],
					"name": "BatchRecorded",
					"type": "event"
				},
				{
					"anonymous": false,
					"inputs": [
						{
							"indexed": true,
							"internalType": "address",
							"name": "company",
							"type": "address"
						},
						{
							"indexed": false,
							"internalType": "uint256",
							"name": "tokens",
							"type": "uint256"
						}
					],
					"name": "CreditsIssued",
					"type": "event"
				},
				{
					"anonymous": false,
					"inputs": [
						{
							"indexed": false,
							"internalType": "uint256",
							"name": "gracePeriodSec",
							"type": "uint256"
						}
					],
					"name": "GracePeriodUpdated",
					"type": "event"
				},
				{
					"anonymous": false,
					"inputs": [
						{
							"indexed": true,
							"internalType": "address",
							"name": "company",
							"type": "address"
						},
						{
							"indexed": false,
							"internalType": "uint256",
							"name": "addedTokens",
							"type": "uint256"
						},
						{
							"indexed": false,
							"internalType": "uint256",
							"name": "newOwed",
							"type": "uint256"
						},
						{
							"indexed": false,
							"internalType": "uint256",
							"name": "nextDueTime",
							"type": "uint256"
						}
					],
					"name": "OwedPenaltyApplied",
					"type": "event"
				},
				{
					"anonymous": false,
					"inputs": [
						{
							"indexed": true,
							"internalType": "address",
							"name": "company",
							"type": "address"
						},
						{
							"indexed": false,
							"internalType": "uint256",
							"name": "owedTokens",
							"type": "uint256"
						},
						{
							"indexed": false,
							"internalType": "uint256",
							"name": "dueTime",
							"type": "uint256"
						}
					],
					"name": "OwedRecorded",
					"type": "event"
				},
				{
					"anonymous": false,
					"inputs": [
						{
							"indexed": true,
							"internalType": "address",
							"name": "company",
							"type": "address"
						},
						{
							"indexed": false,
							"internalType": "uint256",
							"name": "settledTokens",
							"type": "uint256"
						},
						{
							"indexed": false,
							"internalType": "uint256",
							"name": "remainingOwed",
							"type": "uint256"
						}
					],
					"name": "OwedSettled",
					"type": "event"
				},
				{
					"anonymous": false,
					"inputs": [
						{
							"indexed": true,
							"internalType": "address",
							"name": "previousOwner",
							"type": "address"
						},
						{
							"indexed": true,
							"internalType": "address",
							"name": "newOwner",
							"type": "address"
						}
					],
					"name": "OwnershipTransferred",
					"type": "event"
				},
				{
					"anonymous": false,
					"inputs": [
						{
							"indexed": false,
							"internalType": "uint256",
							"name": "penaltyAmount",
							"type": "uint256"
						}
					],
					"name": "PenaltyAmountUpdated",
					"type": "event"
				},
				{
					"anonymous": false,
					"inputs": [
						{
							"indexed": true,
							"internalType": "address",
							"name": "company",
							"type": "address"
						},
						{
							"indexed": false,
							"internalType": "uint256",
							"name": "tokens",
							"type": "uint256"
						}
					],
					"name": "PenaltyApplied",
					"type": "event"
				},
				{
					"anonymous": false,
					"inputs": [
						{
							"indexed": true,
							"internalType": "address",
							"name": "from",
							"type": "address"
						},
						{
							"indexed": true,
							"internalType": "address",
							"name": "to",
							"type": "address"
						},
						{
							"indexed": false,
							"internalType": "uint256",
							"name": "value",
							"type": "uint256"
						}
					],
					"name": "Transfer",
					"type": "event"
				},
				{
					"inputs": [
						{
							"internalType": "address",
							"name": "from",
							"type": "address"
						},
						{
							"internalType": "uint256",
							"name": "amount",
							"type": "uint256"
						}
					],
					"name": "adminBurn",
					"outputs": [],
					"stateMutability": "nonpayable",
					"type": "function"
				},
				{
					"inputs": [
						{
							"internalType": "address",
							"name": "to",
							"type": "address"
						},
						{
							"internalType": "uint256",
							"name": "amount",
							"type": "uint256"
						}
					],
					"name": "adminMint",
					"outputs": [],
					"stateMutability": "nonpayable",
					"type": "function"
				},
				{
					"inputs": [
						{
							"internalType": "address",
							"name": "",
							"type": "address"
						},
						{
							"internalType": "address",
							"name": "",
							"type": "address"
						}
					],
					"name": "allowance",
					"outputs": [
						{
							"internalType": "uint256",
							"name": "",
							"type": "uint256"
						}
					],
					"stateMutability": "view",
					"type": "function"
				},
				{
					"inputs": [
						{
							"internalType": "address",
							"name": "spender",
							"type": "address"
						},
						{
							"internalType": "uint256",
							"name": "amount",
							"type": "uint256"
						}
					],
					"name": "approve",
					"outputs": [
						{
							"internalType": "bool",
							"name": "",
							"type": "bool"
						}
					],
					"stateMutability": "nonpayable",
					"type": "function"
				},
				{
					"inputs": [
						{
							"internalType": "address",
							"name": "",
							"type": "address"
						}
					],
					"name": "balanceOf",
					"outputs": [
						{
							"internalType": "uint256",
							"name": "",
							"type": "uint256"
						}
					],
					"stateMutability": "view",
					"type": "function"
				},
				{
					"inputs": [],
					"name": "decimals",
					"outputs": [
						{
							"internalType": "uint8",
							"name": "",
							"type": "uint8"
						}
					],
					"stateMutability": "view",
					"type": "function"
				},
				{
					"inputs": [
						{
							"internalType": "address",
							"name": "",
							"type": "address"
						},
						{
							"internalType": "uint256",
							"name": "",
							"type": "uint256"
						}
					],
					"name": "emissionHistory",
					"outputs": [
						{
							"internalType": "uint256",
							"name": "startTime",
							"type": "uint256"
						},
						{
							"internalType": "uint256",
							"name": "endTime",
							"type": "uint256"
						},
						{
							"internalType": "uint256",
							"name": "emissionKg",
							"type": "uint256"
						},
						{
							"internalType": "uint256",
							"name": "capKg",
							"type": "uint256"
						},
						{
							"internalType": "bytes32",
							"name": "dataHash",
							"type": "bytes32"
						},
						{
							"internalType": "int256",
							"name": "tokenChange",
							"type": "int256"
						},
						{
							"internalType": "uint256",
							"name": "mintedTokens",
							"type": "uint256"
						},
						{
							"internalType": "uint256",
							"name": "burnedTokens",
							"type": "uint256"
						},
						{
							"internalType": "bytes32",
							"name": "batchId",
							"type": "bytes32"
						}
					],
					"stateMutability": "view",
					"type": "function"
				},
				{
					"inputs": [
						{
							"internalType": "address",
							"name": "company",
							"type": "address"
						}
					],
					"name": "emissionHistoryLength",
					"outputs": [
						{
							"internalType": "uint256",
							"name": "",
							"type": "uint256"
						}
					],
					"stateMutability": "view",
					"type": "function"
				},
				{
					"inputs": [
						{
							"internalType": "address",
							"name": "company",
							"type": "address"
						},
						{
							"internalType": "uint256",
							"name": "index",
							"type": "uint256"
						}
					],
					"name": "getEmissionBatch",
					"outputs": [
						{
							"components": [
								{
									"internalType": "uint256",
									"name": "startTime",
									"type": "uint256"
								},
								{
									"internalType": "uint256",
									"name": "endTime",
									"type": "uint256"
								},
								{
									"internalType": "uint256",
									"name": "emissionKg",
									"type": "uint256"
								},
								{
									"internalType": "uint256",
									"name": "capKg",
									"type": "uint256"
								},
								{
									"internalType": "bytes32",
									"name": "dataHash",
									"type": "bytes32"
								},
								{
									"internalType": "int256",
									"name": "tokenChange",
									"type": "int256"
								},
								{
									"internalType": "uint256",
									"name": "mintedTokens",
									"type": "uint256"
								},
								{
									"internalType": "uint256",
									"name": "burnedTokens",
									"type": "uint256"
								},
								{
									"internalType": "bytes32",
									"name": "batchId",
									"type": "bytes32"
								}
							],
							"internalType": "struct CarbonCreditToken.EmissionBatch",
							"name": "",
							"type": "tuple"
						}
					],
					"stateMutability": "view",
					"type": "function"
				},
				{
					"inputs": [],
					"name": "gracePeriodSec",
					"outputs": [
						{
							"internalType": "uint256",
							"name": "",
							"type": "uint256"
						}
					],
					"stateMutability": "view",
					"type": "function"
				},
				{
					"inputs": [],
					"name": "name",
					"outputs": [
						{
							"internalType": "string",
							"name": "",
							"type": "string"
						}
					],
					"stateMutability": "view",
					"type": "function"
				},
				{
					"inputs": [
						{
							"internalType": "address",
							"name": "",
							"type": "address"
						}
					],
					"name": "owedBalance",
					"outputs": [
						{
							"internalType": "uint256",
							"name": "",
							"type": "uint256"
						}
					],
					"stateMutability": "view",
					"type": "function"
				},
				{
					"inputs": [
						{
							"internalType": "address",
							"name": "",
							"type": "address"
						}
					],
					"name": "owedDueTime",
					"outputs": [
						{
							"internalType": "uint256",
							"name": "",
							"type": "uint256"
						}
					],
					"stateMutability": "view",
					"type": "function"
				},
				{
					"inputs": [],
					"name": "owner",
					"outputs": [
						{
							"internalType": "address",
							"name": "",
							"type": "address"
						}
					],
					"stateMutability": "view",
					"type": "function"
				},
				{
					"inputs": [],
					"name": "penaltyAmount",
					"outputs": [
						{
							"internalType": "uint256",
							"name": "",
							"type": "uint256"
						}
					],
					"stateMutability": "view",
					"type": "function"
				},
				{
					"inputs": [
						{
							"internalType": "bytes32",
							"name": "",
							"type": "bytes32"
						}
					],
					"name": "processedBatches",
					"outputs": [
						{
							"internalType": "bool",
							"name": "",
							"type": "bool"
						}
					],
					"stateMutability": "view",
					"type": "function"
				},
				{
					"inputs": [],
					"name": "registry",
					"outputs": [
						{
							"internalType": "contract ICompanyRegistry",
							"name": "",
							"type": "address"
						}
					],
					"stateMutability": "view",
					"type": "function"
				},
				{
					"inputs": [
						{
							"internalType": "uint256",
							"name": "seconds_",
							"type": "uint256"
						}
					],
					"name": "setGracePeriod",
					"outputs": [],
					"stateMutability": "nonpayable",
					"type": "function"
				},
				{
					"inputs": [
						{
							"internalType": "uint256",
							"name": "amount",
							"type": "uint256"
						}
					],
					"name": "setPenaltyAmount",
					"outputs": [],
					"stateMutability": "nonpayable",
					"type": "function"
				},
				{
					"inputs": [
						{
							"internalType": "uint256",
							"name": "amount",
							"type": "uint256"
						}
					],
					"name": "settleOwed",
					"outputs": [],
					"stateMutability": "nonpayable",
					"type": "function"
				},
				{
					"inputs": [
						{
							"internalType": "address",
							"name": "company",
							"type": "address"
						},
						{
							"internalType": "uint256",
							"name": "emissionKg",
							"type": "uint256"
						},
						{
							"internalType": "uint256",
							"name": "batchStartTime",
							"type": "uint256"
						},
						{
							"internalType": "uint256",
							"name": "batchEndTime",
							"type": "uint256"
						},
						{
							"internalType": "bytes32",
							"name": "batchHash",
							"type": "bytes32"
						},
						{
							"internalType": "bytes32",
							"name": "batchId",
							"type": "bytes32"
						}
					],
					"name": "submitBatch",
					"outputs": [],
					"stateMutability": "nonpayable",
					"type": "function"
				},
				{
					"inputs": [],
					"name": "symbol",
					"outputs": [
						{
							"internalType": "string",
							"name": "",
							"type": "string"
						}
					],
					"stateMutability": "view",
					"type": "function"
				},
				{
					"inputs": [],
					"name": "totalSupply",
					"outputs": [
						{
							"internalType": "uint256",
							"name": "",
							"type": "uint256"
						}
					],
					"stateMutability": "view",
					"type": "function"
				},
				{
					"inputs": [
						{
							"internalType": "address",
							"name": "to",
							"type": "address"
						},
						{
							"internalType": "uint256",
							"name": "amount",
							"type": "uint256"
						}
					],
					"name": "transfer",
					"outputs": [
						{
							"internalType": "bool",
							"name": "",
							"type": "bool"
						}
					],
					"stateMutability": "nonpayable",
					"type": "function"
				},
				{
					"inputs": [
						{
							"internalType": "address",
							"name": "from",
							"type": "address"
						},
						{
							"internalType": "address",
							"name": "to",
							"type": "address"
						},
						{
							"internalType": "uint256",
							"name": "amount",
							"type": "uint256"
						}
					],
					"name": "transferFrom",
					"outputs": [
						{
							"internalType": "bool",
							"name": "",
							"type": "bool"
						}
					],
					"stateMutability": "nonpayable",
					"type": "function"
				},
				{
					"inputs": [
						{
							"internalType": "address",
							"name": "newOwner",
							"type": "address"
						}
					],
					"name": "transferOwnership",
					"outputs": [],
					"stateMutability": "nonpayable",
					"type": "function"
				}
			],
			"devdoc": {
				"kind": "dev",
				"methods": {
					"submitBatch(address,uint256,uint256,uint256,bytes32,bytes32)": {
						"params": {
							"batchEndTime": "end timestamp (seconds)",
							"batchHash": "SHA-256 hash of the 10-minute dataset",
							"batchId": "unique id to prevent duplicates",
							"batchStartTime": "start timestamp (seconds)",
							"company": "company wallet",
							"emissionKg": "emission in kilograms for the 10-minute batch"
						}
					}
				},
				"stateVariables": {
					"emissionHistory": {
						"details": "history per company"
					},
					"processedBatches": {
						"details": "prevent duplicate batches"
					}
				},
				"title": "Carbon Credit Token (CCT) with on-chain emission verification",
				"version": 1
			},
			"evm": {
				"assembly": "    /* \"backend/contracts/CarbonCreditToken.sol\":408:12514  contract CarbonCreditToken {... */\n  mstore(0x40, 0xa0)\n    /* \"backend/contracts/CarbonCreditToken.sol\":511:551  string public name = \"CarbonCreditToken\" */\n  mload(0x40)\n  dup1\n  0x40\n  add\n  0x40\n  mstore\n  dup1\n  0x11\n  dup2\n  mstore\n  0x20\n  add\n  0x436172626f6e437265646974546f6b656e000000000000000000000000000000\n  dup2\n  mstore\n  pop\n  0x00\n  swap1\n  dup2\n  tag_1\n  swap2\n  swap1\n  tag_2\n  jump\t// in\ntag_1:\n  pop\n    /* \"backend/contracts/CarbonCreditToken.sol\":557:585  string public symbol = \"CCT\" */\n  mload(0x40)\n  dup1\n  0x40\n  add\n  0x40\n  mstore\n  dup1\n  0x03\n  dup2\n  mstore\n  0x20\n  add\n  0x4343540000000000000000000000000000000000000000000000000000000000\n  dup2\n  mstore\n  pop\n  0x01\n  swap1\n  dup2\n  tag_3\n  swap2\n  swap1\n  tag_2\n  jump\t// in\ntag_3:\n  pop\n    /* \"backend/contracts/CarbonCreditToken.sol\":2187:2197  15 minutes */\n  0x0384\n    /* \"backend/contracts/CarbonCreditToken.sol\":2155:2197  uint256 public gracePeriodSec = 15 minutes */\n  0x0a\n  sstore\n    /* \"backend/contracts/CarbonCreditToken.sol\":2234:2235  3 */\n  0x03\n    /* \"backend/contracts/CarbonCreditToken.sol\":2203:2235  uint256 public penaltyAmount = 3 */\n  0x0b\n  sstore\n    /* \"backend/contracts/CarbonCreditToken.sol\":3394:3648  constructor(address registryAddress) {... */\n  callvalue\n  dup1\n  iszero\n  tag_4\n  jumpi\n  revert(0x00, 0x00)\ntag_4:\n  pop\n  mload(0x40)\n  sub(codesize, bytecodeSize)\n  dup1\n  bytecodeSize\n  dup4\n  codecopy\n  dup2\n  dup2\n  add\n  0x40\n  mstore\n  dup2\n  add\n  swap1\n  tag_5\n  swap2\n  swap1\n  tag_6\n  jump\t// in\ntag_5:\n    /* \"backend/contracts/CarbonCreditToken.sol\":3476:3477  0 */\n  0x00\n    /* \"backend/contracts/CarbonCreditToken.sol\":3449:3478  registryAddress != address(0) */\n  0xffffffffffffffffffffffffffffffffffffffff\n  and\n    /* \"backend/contracts/CarbonCreditToken.sol\":3449:3464  registryAddress */\n  dup2\n    /* \"backend/contracts/CarbonCreditToken.sol\":3449:3478  registryAddress != address(0) */\n  0xffffffffffffffffffffffffffffffffffffffff\n  and\n  sub\n    /* \"backend/contracts/CarbonCreditToken.sol\":3441:3500  require(registryAddress != address(0), \"registry required\") */\n  tag_9\n  jumpi\n  mload(0x40)\n  0x08c379a000000000000000000000000000000000000000000000000000000000\n  dup2\n  mstore\n  0x04\n  add\n  tag_10\n  swap1\n  tag_11\n  jump\t// in\ntag_10:\n  mload(0x40)\n  dup1\n  swap2\n  sub\n  swap1\n  revert\ntag_9:\n    /* \"backend/contracts/CarbonCreditToken.sol\":3538:3553  registryAddress */\n  dup1\n    /* \"backend/contracts/CarbonCreditToken.sol\":3510:3554  registry = ICompanyRegistry(registryAddress) */\n  0xffffffffffffffffffffffffffffffffffffffff\n  and\n  0x80\n  dup2\n  0xffffffffffffffffffffffffffffffffffffffff\n  and\n  dup2\n  mstore\n  pop\n  pop\n    /* \"backend/contracts/CarbonCreditToken.sol\":3572:3582  msg.sender */\n  caller\n    /* \"backend/contracts/CarbonCreditToken.sol\":3564:3569  owner */\n  0x05\n  0x00\n    /* \"backend/contracts/CarbonCreditToken.sol\":3564:3582  owner = msg.sender */\n  0x0100\n  exp\n  dup2\n  sload\n  dup2\n  0xffffffffffffffffffffffffffffffffffffffff\n  mul\n  not\n  and\n  swap1\n  dup4\n  0xffffffffffffffffffffffffffffffffffffffff\n  and\n  mul\n  or\n  swap1\n  sstore\n  pop\n    /* \"backend/contracts/CarbonCreditToken.sol\":3630:3640  msg.sender */\n  caller\n    /* \"backend/contracts/CarbonCreditToken.sol\":3597:3641  OwnershipTransferred(address(0), msg.sender) */\n  0xffffffffffffffffffffffffffffffffffffffff\n  and\n    /* \"backend/contracts/CarbonCreditToken.sol\":3626:3627  0 */\n  0x00\n    /* \"backend/contracts/CarbonCreditToken.sol\":3597:3641  OwnershipTransferred(address(0), msg.sender) */\n  0xffffffffffffffffffffffffffffffffffffffff\n  and\n  0x8be0079c531659141344cd1fd0a4f28419497f9722a3daafe3b4186f6b6457e0\n  mload(0x40)\n  mload(0x40)\n  dup1\n  swap2\n  sub\n  swap1\n  log3\n    /* \"backend/contracts/CarbonCreditToken.sol\":3394:3648  constructor(address registryAddress) {... */\n  pop\n    /* \"backend/contracts/CarbonCreditToken.sol\":408:12514  contract CarbonCreditToken {... */\n  jump(tag_12)\n    /* \"#utility.yul\":7:106   */\ntag_13:\n    /* \"#utility.yul\":59:65   */\n  0x00\n    /* \"#utility.yul\":93:98   */\n  dup2\n    /* \"#utility.yul\":87:99   */\n  mload\n    /* \"#utility.yul\":77:99   */\n  swap1\n  pop\n    /* \"#utility.yul\":7:106   */\n  swap2\n  swap1\n  pop\n  jump\t// out\n    /* \"#utility.yul\":112:292   */\ntag_14:\n    /* \"#utility.yul\":160:237   */\n  0x4e487b7100000000000000000000000000000000000000000000000000000000\n    /* \"#utility.yul\":157:158   */\n  0x00\n    /* \"#utility.yul\":150:238   */\n  mstore\n    /* \"#utility.yul\":257:261   */\n  0x41\n    /* \"#utility.yul\":254:255   */\n  0x04\n    /* \"#utility.yul\":247:262   */\n  mstore\n    /* \"#utility.yul\":281:285   */\n  0x24\n    /* \"#utility.yul\":278:279   */\n  0x00\n    /* \"#utility.yul\":271:286   */\n  revert\n    /* \"#utility.yul\":298:478   */\ntag_15:\n    /* \"#utility.yul\":346:423   */\n  0x4e487b7100000000000000000000000000000000000000000000000000000000\n    /* \"#utility.yul\":343:344   */\n  0x00\n    /* \"#utility.yul\":336:424   */\n  mstore\n    /* \"#utility.yul\":443:447   */\n  0x22\n    /* \"#utility.yul\":440:441   */\n  0x04\n    /* \"#utility.yul\":433:448   */\n  mstore\n    /* \"#utility.yul\":467:471   */\n  0x24\n    /* \"#utility.yul\":464:465   */\n  0x00\n    /* \"#utility.yul\":457:472   */\n  revert\n    /* \"#utility.yul\":484:804   */\ntag_16:\n    /* \"#utility.yul\":528:534   */\n  0x00\n    /* \"#utility.yul\":565:566   */\n  0x02\n    /* \"#utility.yul\":559:563   */\n  dup3\n    /* \"#utility.yul\":555:567   */\n  div\n    /* \"#utility.yul\":545:567   */\n  swap1\n  pop\n    /* \"#utility.yul\":612:613   */\n  0x01\n    /* \"#utility.yul\":606:610   */\n  dup3\n    /* \"#utility.yul\":602:614   */\n  and\n    /* \"#utility.yul\":633:651   */\n  dup1\n    /* \"#utility.yul\":623:704   */\n  tag_48\n  jumpi\n    /* \"#utility.yul\":689:693   */\n  0x7f\n    /* \"#utility.yul\":681:687   */\n  dup3\n    /* \"#utility.yul\":677:694   */\n  and\n    /* \"#utility.yul\":667:694   */\n  swap2\n  pop\n    /* \"#utility.yul\":623:704   */\ntag_48:\n    /* \"#utility.yul\":751:753   */\n  0x20\n    /* \"#utility.yul\":743:749   */\n  dup3\n    /* \"#utility.yul\":740:754   */\n  lt\n    /* \"#utility.yul\":720:738   */\n  dup2\n    /* \"#utility.yul\":717:755   */\n  sub\n    /* \"#utility.yul\":714:798   */\n  tag_49\n  jumpi\n    /* \"#utility.yul\":770:788   */\n  tag_50\n  tag_15\n  jump\t// in\ntag_50:\n    /* \"#utility.yul\":714:798   */\ntag_49:\n    /* \"#utility.yul\":535:804   */\n  pop\n    /* \"#utility.yul\":484:804   */\n  swap2\n  swap1\n  pop\n  jump\t// out\n    /* \"#utility.yul\":810:951   */\ntag_17:\n    /* \"#utility.yul\":859:863   */\n  0x00\n    /* \"#utility.yul\":882:885   */\n  dup2\n    /* \"#utility.yul\":874:885   */\n  swap1\n  pop\n    /* \"#utility.yul\":905:908   */\n  dup2\n    /* \"#utility.yul\":902:903   */\n  0x00\n    /* \"#utility.yul\":895:909   */\n  mstore\n    /* \"#utility.yul\":939:943   */\n  0x20\n    /* \"#utility.yul\":936:937   */\n  0x00\n    /* \"#utility.yul\":926:944   */\n  keccak256\n    /* \"#utility.yul\":918:944   */\n  swap1\n  pop\n    /* \"#utility.yul\":810:951   */\n  swap2\n  swap1\n  pop\n  jump\t// out\n    /* \"#utility.yul\":957:1050   */\ntag_18:\n    /* \"#utility.yul\":994:1000   */\n  0x00\n    /* \"#utility.yul\":1041:1043   */\n  0x20\n    /* \"#utility.yul\":1036:1038   */\n  0x1f\n    /* \"#utility.yul\":1029:1034   */\n  dup4\n    /* \"#utility.yul\":1025:1039   */\n  add\n    /* \"#utility.yul\":1021:1044   */\n  div\n    /* \"#utility.yul\":1011:1044   */\n  swap1\n  pop\n    /* \"#utility.yul\":957:1050   */\n  swap2\n  swap1\n  pop\n  jump\t// out\n    /* \"#utility.yul\":1056:1163   */\ntag_19:\n    /* \"#utility.yul\":1100:1108   */\n  0x00\n    /* \"#utility.yul\":1150:1155   */\n  dup3\n    /* \"#utility.yul\":1144:1148   */\n  dup3\n    /* \"#utility.yul\":1140:1156   */\n  shl\n    /* \"#utility.yul\":1119:1156   */\n  swap1\n  pop\n    /* \"#utility.yul\":1056:1163   */\n  swap3\n  swap2\n  pop\n  pop\n  jump\t// out\n    /* \"#utility.yul\":1169:1562   */\ntag_20:\n    /* \"#utility.yul\":1238:1244   */\n  0x00\n    /* \"#utility.yul\":1288:1289   */\n  0x08\n    /* \"#utility.yul\":1276:1286   */\n  dup4\n    /* \"#utility.yul\":1272:1290   */\n  mul\n    /* \"#utility.yul\":1311:1408   */\n  tag_55\n    /* \"#utility.yul\":1341:1407   */\n  0xffffffffffffffffffffffffffffffffffffffffffffffffffffffffffffffff\n    /* \"#utility.yul\":1330:1339   */\n  dup3\n    /* \"#utility.yul\":1311:1408   */\n  tag_19\n  jump\t// in\ntag_55:\n    /* \"#utility.yul\":1429:1468   */\n  tag_56\n    /* \"#utility.yul\":1459:1467   */\n  dup7\n    /* \"#utility.yul\":1448:1457   */\n  dup4\n    /* \"#utility.yul\":1429:1468   */\n  tag_19\n  jump\t// in\ntag_56:\n    /* \"#utility.yul\":1417:1468   */\n  swap6\n  pop\n    /* \"#utility.yul\":1501:1505   */\n  dup1\n    /* \"#utility.yul\":1497:1506   */\n  not\n    /* \"#utility.yul\":1490:1495   */\n  dup5\n    /* \"#utility.yul\":1486:1507   */\n  and\n    /* \"#utility.yul\":1477:1507   */\n  swap4\n  pop\n    /* \"#utility.yul\":1550:1554   */\n  dup1\n    /* \"#utility.yul\":1540:1548   */\n  dup7\n    /* \"#utility.yul\":1536:1555   */\n  and\n    /* \"#utility.yul\":1529:1534   */\n  dup5\n    /* \"#utility.yul\":1526:1556   */\n  or\n    /* \"#utility.yul\":1516:1556   */\n  swap3\n  pop\n    /* \"#utility.yul\":1245:1562   */\n  pop\n  pop\n    /* \"#utility.yul\":1169:1562   */\n  swap4\n  swap3\n  pop\n  pop\n  pop\n  jump\t// out\n    /* \"#utility.yul\":1568:1645   */\ntag_21:\n    /* \"#utility.yul\":1605:1612   */\n  0x00\n    /* \"#utility.yul\":1634:1639   */\n  dup2\n    /* \"#utility.yul\":1623:1639   */\n  swap1\n  pop\n    /* \"#utility.yul\":1568:1645   */\n  swap2\n  swap1\n  pop\n  jump\t// out\n    /* \"#utility.yul\":1651:1711   */\ntag_22:\n    /* \"#utility.yul\":1679:1682   */\n  0x00\n    /* \"#utility.yul\":1700:1705   */\n  dup2\n    /* \"#utility.yul\":1693:1705   */\n  swap1\n  pop\n    /* \"#utility.yul\":1651:1711   */\n  swap2\n  swap1\n  pop\n  jump\t// out\n    /* \"#utility.yul\":1717:1859   */\ntag_23:\n    /* \"#utility.yul\":1767:1776   */\n  0x00\n    /* \"#utility.yul\":1800:1853   */\n  tag_60\n    /* \"#utility.yul\":1818:1852   */\n  tag_61\n    /* \"#utility.yul\":1827:1851   */\n  tag_62\n    /* \"#utility.yul\":1845:1850   */\n  dup5\n    /* \"#utility.yul\":1827:1851   */\n  tag_21\n  jump\t// in\ntag_62:\n    /* \"#utility.yul\":1818:1852   */\n  tag_22\n  jump\t// in\ntag_61:\n    /* \"#utility.yul\":1800:1853   */\n  tag_21\n  jump\t// in\ntag_60:\n    /* \"#utility.yul\":1787:1853   */\n  swap1\n  pop\n    /* \"#utility.yul\":1717:1859   */\n  swap2\n  swap1\n  pop\n  jump\t// out\n    /* \"#utility.yul\":1865:1940   */\ntag_24:\n    /* \"#utility.yul\":1908:1911   */\n  0x00\n    /* \"#utility.yul\":1929:1934   */\n  dup2\n    /* \"#utility.yul\":1922:1934   */\n  swap1\n  pop\n    /* \"#utility.yul\":1865:1940   */\n  swap2\n  swap1\n  pop\n  jump\t// out\n    /* \"#utility.yul\":1946:2215   */\ntag_25:\n    /* \"#utility.yul\":2056:2095   */\n  tag_65\n    /* \"#utility.yul\":2087:2094   */\n  dup4\n    /* \"#utility.yul\":2056:2095   */\n  tag_23\n  jump\t// in\ntag_65:\n    /* \"#utility.yul\":2117:2208   */\n  tag_66\n    /* \"#utility.yul\":2166:2207   */\n  tag_67\n    /* \"#utility.yul\":2190:2206   */\n  dup3\n    /* \"#utility.yul\":2166:2207   */\n  tag_24\n  jump\t// in\ntag_67:\n    /* \"#utility.yul\":2158:2164   */\n  dup5\n    /* \"#utility.yul\":2151:2155   */\n  dup5\n    /* \"#utility.yul\":2145:2156   */\n  sload\n    /* \"#utility.yul\":2117:2208   */\n  tag_20\n  jump\t// in\ntag_66:\n    /* \"#utility.yul\":2111:2115   */\n  dup3\n    /* \"#utility.yul\":2104:2209   */\n  sstore\n    /* \"#utility.yul\":2022:2215   */\n  pop\n    /* \"#utility.yul\":1946:2215   */\n  pop\n  pop\n  pop\n  jump\t// out\n    /* \"#utility.yul\":2221:2294   */\ntag_26:\n    /* \"#utility.yul\":2266:2269   */\n  0x00\n    /* \"#utility.yul\":2287:2288   */\n  0x00\n    /* \"#utility.yul\":2280:2288   */\n  swap1\n  pop\n    /* \"#utility.yul\":2221:2294   */\n  swap1\n  jump\t// out\n    /* \"#utility.yul\":2300:2489   */\ntag_27:\n    /* \"#utility.yul\":2377:2409   */\n  tag_70\n  tag_26\n  jump\t// in\ntag_70:\n    /* \"#utility.yul\":2418:2483   */\n  tag_71\n    /* \"#utility.yul\":2476:2482   */\n  dup2\n    /* \"#utility.yul\":2468:2474   */\n  dup5\n    /* \"#utility.yul\":2462:2466   */\n  dup5\n    /* \"#utility.yul\":2418:2483   */\n  tag_25\n  jump\t// in\ntag_71:\n    /* \"#utility.yul\":2353:2489   */\n  pop\n    /* \"#utility.yul\":2300:2489   */\n  pop\n  pop\n  jump\t// out\n    /* \"#utility.yul\":2495:2681   */\ntag_28:\n    /* \"#utility.yul\":2555:2675   */\ntag_73:\n    /* \"#utility.yul\":2572:2575   */\n  dup2\n    /* \"#utility.yul\":2565:2570   */\n  dup2\n    /* \"#utility.yul\":2562:2576   */\n  lt\n    /* \"#utility.yul\":2555:2675   */\n  iszero\n  tag_75\n  jumpi\n    /* \"#utility.yul\":2626:2665   */\n  tag_76\n    /* \"#utility.yul\":2663:2664   */\n  0x00\n    /* \"#utility.yul\":2656:2661   */\n  dup3\n    /* \"#utility.yul\":2626:2665   */\n  tag_27\n  jump\t// in\ntag_76:\n    /* \"#utility.yul\":2599:2600   */\n  0x01\n    /* \"#utility.yul\":2592:2597   */\n  dup2\n    /* \"#utility.yul\":2588:2601   */\n  add\n    /* \"#utility.yul\":2579:2601   */\n  swap1\n  pop\n    /* \"#utility.yul\":2555:2675   */\n  jump(tag_73)\ntag_75:\n    /* \"#utility.yul\":2495:2681   */\n  pop\n  pop\n  jump\t// out\n    /* \"#utility.yul\":2687:3230   */\ntag_29:\n    /* \"#utility.yul\":2788:2790   */\n  0x1f\n    /* \"#utility.yul\":2783:2786   */\n  dup3\n    /* \"#utility.yul\":2780:2791   */\n  gt\n    /* \"#utility.yul\":2777:3223   */\n  iszero\n  tag_78\n  jumpi\n    /* \"#utility.yul\":2822:2860   */\n  tag_79\n    /* \"#utility.yul\":2854:2859   */\n  dup2\n    /* \"#utility.yul\":2822:2860   */\n  tag_17\n  jump\t// in\ntag_79:\n    /* \"#utility.yul\":2906:2935   */\n  tag_80\n    /* \"#utility.yul\":2924:2934   */\n  dup5\n    /* \"#utility.yul\":2906:2935   */\n  tag_18\n  jump\t// in\ntag_80:\n    /* \"#utility.yul\":2896:2904   */\n  dup2\n    /* \"#utility.yul\":2892:2936   */\n  add\n    /* \"#utility.yul\":3089:3091   */\n  0x20\n    /* \"#utility.yul\":3077:3087   */\n  dup6\n    /* \"#utility.yul\":3074:3092   */\n  lt\n    /* \"#utility.yul\":3071:3120   */\n  iszero\n  tag_81\n  jumpi\n    /* \"#utility.yul\":3110:3118   */\n  dup2\n    /* \"#utility.yul\":3095:3118   */\n  swap1\n  pop\n    /* \"#utility.yul\":3071:3120   */\ntag_81:\n    /* \"#utility.yul\":3133:3213   */\n  tag_82\n    /* \"#utility.yul\":3189:3211   */\n  tag_83\n    /* \"#utility.yul\":3207:3210   */\n  dup6\n    /* \"#utility.yul\":3189:3211   */\n  tag_18\n  jump\t// in\ntag_83:\n    /* \"#utility.yul\":3179:3187   */\n  dup4\n    /* \"#utility.yul\":3175:3212   */\n  add\n    /* \"#utility.yul\":3162:3173   */\n  dup3\n    /* \"#utility.yul\":3133:3213   */\n  tag_28\n  jump\t// in\ntag_82:\n    /* \"#utility.yul\":2792:3223   */\n  pop\n  pop\n    /* \"#utility.yul\":2777:3223   */\ntag_78:\n    /* \"#utility.yul\":2687:3230   */\n  pop\n  pop\n  pop\n  jump\t// out\n    /* \"#utility.yul\":3236:3353   */\ntag_30:\n    /* \"#utility.yul\":3290:3298   */\n  0x00\n    /* \"#utility.yul\":3340:3345   */\n  dup3\n    /* \"#utility.yul\":3334:3338   */\n  dup3\n    /* \"#utility.yul\":3330:3346   */\n  shr\n    /* \"#utility.yul\":3309:3346   */\n  swap1\n  pop\n    /* \"#utility.yul\":3236:3353   */\n  swap3\n  swap2\n  pop\n  pop\n  jump\t// out\n    /* \"#utility.yul\":3359:3528   */\ntag_31:\n    /* \"#utility.yul\":3403:3409   */\n  0x00\n    /* \"#utility.yul\":3436:3487   */\n  tag_86\n    /* \"#utility.yul\":3484:3485   */\n  0x00\n    /* \"#utility.yul\":3480:3486   */\n  not\n    /* \"#utility.yul\":3472:3477   */\n  dup5\n    /* \"#utility.yul\":3469:3470   */\n  0x08\n    /* \"#utility.yul\":3465:3478   */\n  mul\n    /* \"#utility.yul\":3436:3487   */\n  tag_30\n  jump\t// in\ntag_86:\n    /* \"#utility.yul\":3432:3488   */\n  not\n    /* \"#utility.yul\":3517:3521   */\n  dup1\n    /* \"#utility.yul\":3511:3515   */\n  dup4\n    /* \"#utility.yul\":3507:3522   */\n  and\n    /* \"#utility.yul\":3497:3522   */\n  swap2\n  pop\n    /* \"#utility.yul\":3410:3528   */\n  pop\n    /* \"#utility.yul\":3359:3528   */\n  swap3\n  swap2\n  pop\n  pop\n  jump\t// out\n    /* \"#utility.yul\":3533:3828   */\ntag_32:\n    /* \"#utility.yul\":3609:3613   */\n  0x00\n    /* \"#utility.yul\":3755:3784   */\n  tag_88\n    /* \"#utility.yul\":3780:3783   */\n  dup4\n    /* \"#utility.yul\":3774:3778   */\n  dup4\n    /* \"#utility.yul\":3755:3784   */\n  tag_31\n  jump\t// in\ntag_88:\n    /* \"#utility.yul\":3747:3784   */\n  swap2\n  pop\n    /* \"#utility.yul\":3817:3820   */\n  dup3\n    /* \"#utility.yul\":3814:3815   */\n  0x02\n    /* \"#utility.yul\":3810:3821   */\n  mul\n    /* \"#utility.yul\":3804:3808   */\n  dup3\n    /* \"#utility.yul\":3801:3822   */\n  or\n    /* \"#utility.yul\":3793:3822   */\n  swap1\n  pop\n    /* \"#utility.yul\":3533:3828   */\n  swap3\n  swap2\n  pop\n  pop\n  jump\t// out\n    /* \"#utility.yul\":3833:5228   */\ntag_2:\n    /* \"#utility.yul\":3950:3987   */\n  tag_90\n    /* \"#utility.yul\":3983:3986   */\n  dup3\n    /* \"#utility.yul\":3950:3987   */\n  tag_13\n  jump\t// in\ntag_90:\n    /* \"#utility.yul\":4052:4070   */\n  0xffffffffffffffff\n    /* \"#utility.yul\":4044:4050   */\n  dup2\n    /* \"#utility.yul\":4041:4071   */\n  gt\n    /* \"#utility.yul\":4038:4094   */\n  iszero\n  tag_91\n  jumpi\n    /* \"#utility.yul\":4074:4092   */\n  tag_92\n  tag_14\n  jump\t// in\ntag_92:\n    /* \"#utility.yul\":4038:4094   */\ntag_91:\n    /* \"#utility.yul\":4118:4156   */\n  tag_93\n    /* \"#utility.yul\":4150:4154   */\n  dup3\n    /* \"#utility.yul\":4144:4155   */\n  sload\n    /* \"#utility.yul\":4118:4156   */\n  tag_16\n  jump\t// in\ntag_93:\n    /* \"#utility.yul\":4203:4270   */\n  tag_94\n    /* \"#utility.yul\":4263:4269   */\n  dup3\n    /* \"#utility.yul\":4255:4261   */\n  dup3\n    /* \"#utility.yul\":4249:4253   */\n  dup6\n    /* \"#utility.yul\":4203:4270   */\n  tag_29\n  jump\t// in\ntag_94:\n    /* \"#utility.yul\":4297:4298   */\n  0x00\n    /* \"#utility.yul\":4321:4325   */\n  0x20\n    /* \"#utility.yul\":4308:4325   */\n  swap1\n  pop\n    /* \"#utility.yul\":4353:4355   */\n  0x1f\n    /* \"#utility.yul\":4345:4351   */\n  dup4\n    /* \"#utility.yul\":4342:4356   */\n  gt\n    /* \"#utility.yul\":4370:4371   */\n  0x01\n    /* \"#utility.yul\":4365:4983   */\n  dup2\n  eq\n  tag_96\n  jumpi\n    /* \"#utility.yul\":5027:5028   */\n  0x00\n    /* \"#utility.yul\":5044:5050   */\n  dup5\n    /* \"#utility.yul\":5041:5118   */\n  iszero\n  tag_97\n  jumpi\n    /* \"#utility.yul\":5093:5102   */\n  dup3\n    /* \"#utility.yul\":5088:5091   */\n  dup8\n    /* \"#utility.yul\":5084:5103   */\n  add\n    /* \"#utility.yul\":5078:5104   */\n  mload\n    /* \"#utility.yul\":5069:5104   */\n  swap1\n  pop\n    /* \"#utility.yul\":5041:5118   */\ntag_97:\n    /* \"#utility.yul\":5144:5211   */\n  tag_98\n    /* \"#utility.yul\":5204:5210   */\n  dup6\n    /* \"#utility.yul\":5197:5202   */\n  dup3\n    /* \"#utility.yul\":5144:5211   */\n  tag_32\n  jump\t// in\ntag_98:\n    /* \"#utility.yul\":5138:5142   */\n  dup7\n    /* \"#utility.yul\":5131:5212   */\n  sstore\n    /* \"#utility.yul\":5000:5222   */\n  pop\n    /* \"#utility.yul\":4335:5222   */\n  jump(tag_95)\n    /* \"#utility.yul\":4365:4983   */\ntag_96:\n    /* \"#utility.yul\":4417:4421   */\n  0x1f\n    /* \"#utility.yul\":4413:4422   */\n  not\n    /* \"#utility.yul\":4405:4411   */\n  dup5\n    /* \"#utility.yul\":4401:4423   */\n  and\n    /* \"#utility.yul\":4451:4488   */\n  tag_99\n    /* \"#utility.yul\":4483:4487   */\n  dup7\n    /* \"#utility.yul\":4451:4488   */\n  tag_17\n  jump\t// in\ntag_99:\n    /* \"#utility.yul\":4510:4511   */\n  0x00\n    /* \"#utility.yul\":4524:4732   */\ntag_100:\n    /* \"#utility.yul\":4538:4545   */\n  dup3\n    /* \"#utility.yul\":4535:4536   */\n  dup2\n    /* \"#utility.yul\":4532:4546   */\n  lt\n    /* \"#utility.yul\":4524:4732   */\n  iszero\n  tag_102\n  jumpi\n    /* \"#utility.yul\":4617:4626   */\n  dup5\n    /* \"#utility.yul\":4612:4615   */\n  dup10\n    /* \"#utility.yul\":4608:4627   */\n  add\n    /* \"#utility.yul\":4602:4628   */\n  mload\n    /* \"#utility.yul\":4594:4600   */\n  dup3\n    /* \"#utility.yul\":4587:4629   */\n  sstore\n    /* \"#utility.yul\":4668:4669   */\n  0x01\n    /* \"#utility.yul\":4660:4666   */\n  dup3\n    /* \"#utility.yul\":4656:4670   */\n  add\n    /* \"#utility.yul\":4646:4670   */\n  swap2\n  pop\n    /* \"#utility.yul\":4715:4717   */\n  0x20\n    /* \"#utility.yul\":4704:4713   */\n  dup6\n    /* \"#utility.yul\":4700:4718   */\n  add\n    /* \"#utility.yul\":4687:4718   */\n  swap5\n  pop\n    /* \"#utility.yul\":4561:4565   */\n  0x20\n    /* \"#utility.yul\":4558:4559   */\n  dup2\n    /* \"#utility.yul\":4554:4566   */\n  add\n    /* \"#utility.yul\":4549:4566   */\n  swap1\n  pop\n    /* \"#utility.yul\":4524:4732   */\n  jump(tag_100)\ntag_102:\n    /* \"#utility.yul\":4760:4766   */\n  dup7\n    /* \"#utility.yul\":4751:4758   */\n  dup4\n    /* \"#utility.yul\":4748:4767   */\n  lt\n    /* \"#utility.yul\":4745:4924   */\n  iszero\n  tag_103\n  jumpi\n    /* \"#utility.yul\":4818:4827   */\n  dup5\n    /* \"#utility.yul\":4813:4816   */\n  dup10\n    /* \"#utility.yul\":4809:4828   */\n  add\n    /* \"#utility.yul\":4803:4829   */\n  mload\n    /* \"#utility.yul\":4861:4909   */\n  tag_104\n    /* \"#utility.yul\":4903:4907   */\n  0x1f\n    /* \"#utility.yul\":4895:4901   */\n  dup10\n    /* \"#utility.yul\":4891:4908   */\n  and\n    /* \"#utility.yul\":4880:4889   */\n  dup3\n    /* \"#utility.yul\":4861:4909   */\n  tag_31\n  jump\t// in\ntag_104:\n    /* \"#utility.yul\":4853:4859   */\n  dup4\n    /* \"#utility.yul\":4846:4910   */\n  sstore\n    /* \"#utility.yul\":4768:4924   */\n  pop\n    /* \"#utility.yul\":4745:4924   */\ntag_103:\n    /* \"#utility.yul\":4970:4971   */\n  0x01\n    /* \"#utility.yul\":4966:4967   */\n  0x02\n    /* \"#utility.yul\":4958:4964   */\n  dup9\n    /* \"#utility.yul\":4954:4968   */\n  mul\n    /* \"#utility.yul\":4950:4972   */\n  add\n    /* \"#utility.yul\":4944:4948   */\n  dup9\n    /* \"#utility.yul\":4937:4973   */\n  sstore\n    /* \"#utility.yul\":4372:4983   */\n  pop\n  pop\n  pop\n    /* \"#utility.yul\":4335:5222   */\ntag_95:\n  pop\n    /* \"#utility.yul\":3925:5228   */\n  pop\n  pop\n  pop\n    /* \"#utility.yul\":3833:5228   */\n  pop\n  pop\n  jump\t// out\n    /* \"#utility.yul\":5315:5432   */\ntag_34:\n    /* \"#utility.yul\":5424:5425   */\n  0x00\n    /* \"#utility.yul\":5421:5422   */\n  0x00\n    /* \"#utility.yul\":5414:5426   */\n  revert\n    /* \"#utility.yul\":5561:5687   */\ntag_36:\n    /* \"#utility.yul\":5598:5605   */\n  0x00\n    /* \"#utility.yul\":5638:5680   */\n  0xffffffffffffffffffffffffffffffffffffffff\n    /* \"#utility.yul\":5631:5636   */\n  dup3\n    /* \"#utility.yul\":5627:5681   */\n  and\n    /* \"#utility.yul\":5616:5681   */\n  swap1\n  pop\n    /* \"#utility.yul\":5561:5687   */\n  swap2\n  swap1\n  pop\n  jump\t// out\n    /* \"#utility.yul\":5693:5789   */\ntag_37:\n    /* \"#utility.yul\":5730:5737   */\n  0x00\n    /* \"#utility.yul\":5759:5783   */\n  tag_110\n    /* \"#utility.yul\":5777:5782   */\n  dup3\n    /* \"#utility.yul\":5759:5783   */\n  tag_36\n  jump\t// in\ntag_110:\n    /* \"#utility.yul\":5748:5783   */\n  swap1\n  pop\n    /* \"#utility.yul\":5693:5789   */\n  swap2\n  swap1\n  pop\n  jump\t// out\n    /* \"#utility.yul\":5795:5917   */\ntag_38:\n    /* \"#utility.yul\":5868:5892   */\n  tag_112\n    /* \"#utility.yul\":5886:5891   */\n  dup2\n    /* \"#utility.yul\":5868:5892   */\n  tag_37\n  jump\t// in\ntag_112:\n    /* \"#utility.yul\":5861:5866   */\n  dup2\n    /* \"#utility.yul\":5858:5893   */\n  eq\n    /* \"#utility.yul\":5848:5911   */\n  tag_113\n  jumpi\n    /* \"#utility.yul\":5907:5908   */\n  0x00\n    /* \"#utility.yul\":5904:5905   */\n  0x00\n    /* \"#utility.yul\":5897:5909   */\n  revert\n    /* \"#utility.yul\":5848:5911   */\ntag_113:\n    /* \"#utility.yul\":5795:5917   */\n  pop\n  jump\t// out\n    /* \"#utility.yul\":5923:6066   */\ntag_39:\n    /* \"#utility.yul\":5980:5985   */\n  0x00\n    /* \"#utility.yul\":6011:6017   */\n  dup2\n    /* \"#utility.yul\":6005:6018   */\n  mload\n    /* \"#utility.yul\":5996:6018   */\n  swap1\n  pop\n    /* \"#utility.yul\":6027:6060   */\n  tag_115\n    /* \"#utility.yul\":6054:6059   */\n  dup2\n    /* \"#utility.yul\":6027:6060   */\n  tag_38\n  jump\t// in\ntag_115:\n    /* \"#utility.yul\":5923:6066   */\n  swap3\n  swap2\n  pop\n  pop\n  jump\t// out\n    /* \"#utility.yul\":6072:6423   */\ntag_6:\n    /* \"#utility.yul\":6142:6148   */\n  0x00\n    /* \"#utility.yul\":6191:6193   */\n  0x20\n    /* \"#utility.yul\":6179:6188   */\n  dup3\n    /* \"#utility.yul\":6170:6177   */\n  dup5\n    /* \"#utility.yul\":6166:6189   */\n  sub\n    /* \"#utility.yul\":6162:6194   */\n  slt\n    /* \"#utility.yul\":6159:6278   */\n  iszero\n  tag_117\n  jumpi\n    /* \"#utility.yul\":6197:6276   */\n  tag_118\n  tag_34\n  jump\t// in\ntag_118:\n    /* \"#utility.yul\":6159:6278   */\ntag_117:\n    /* \"#utility.yul\":6317:6318   */\n  0x00\n    /* \"#utility.yul\":6342:6406   */\n  tag_119\n    /* \"#utility.yul\":6398:6405   */\n  dup5\n    /* \"#utility.yul\":6389:6395   */\n  dup3\n    /* \"#utility.yul\":6378:6387   */\n  dup6\n    /* \"#utility.yul\":6374:6396   */\n  add\n    /* \"#utility.yul\":6342:6406   */\n  tag_39\n  jump\t// in\ntag_119:\n    /* \"#utility.yul\":6332:6406   */\n  swap2\n  pop\n    /* \"#utility.yul\":6288:6416   */\n  pop\n    /* \"#utility.yul\":6072:6423   */\n  swap3\n  swap2\n  pop\n  pop\n  jump\t// out\n    /* \"#utility.yul\":6429:6598   */\ntag_40:\n    /* \"#utility.yul\":6513:6524   */\n  0x00\n    /* \"#utility.yul\":6547:6553   */\n  dup3\n    /* \"#utility.yul\":6542:6545   */\n  dup3\n    /* \"#utility.yul\":6535:6554   */\n  mstore\n    /* \"#utility.yul\":6587:6591   */\n  0x20\n    /* \"#utility.yul\":6582:6585   */\n  dup3\n    /* \"#utility.yul\":6578:6592   */\n  add\n    /* \"#utility.yul\":6563:6592   */\n  swap1\n  pop\n    /* \"#utility.yul\":6429:6598   */\n  swap3\n  swap2\n  pop\n  pop\n  jump\t// out\n    /* \"#utility.yul\":6604:6771   */\ntag_41:\n    /* \"#utility.yul\":6744:6763   */\n  0x7265676973747279207265717569726564000000000000000000000000000000\n    /* \"#utility.yul\":6740:6741   */\n  0x00\n    /* \"#utility.yul\":6732:6738   */\n  dup3\n    /* \"#utility.yul\":6728:6742   */\n  add\n    /* \"#utility.yul\":6721:6764   */\n  mstore\n    /* \"#utility.yul\":6604:6771   */\n  pop\n  jump\t// out\n    /* \"#utility.yul\":6777:7143   */\ntag_42:\n    /* \"#utility.yul\":6919:6922   */\n  0x00\n    /* \"#utility.yul\":6940:7007   */\n  tag_123\n    /* \"#utility.yul\":7004:7006   */\n  0x11\n    /* \"#utility.yul\":6999:7002   */\n  dup4\n    /* \"#utility.yul\":6940:7007   */\n  tag_40\n  jump\t// in\ntag_123:\n    /* \"#utility.yul\":6933:7007   */\n  swap2\n  pop\n    /* \"#utility.yul\":7016:7109   */\n  tag_124\n    /* \"#utility.yul\":7105:7108   */\n  dup3\n    /* \"#utility.yul\":7016:7109   */\n  tag_41\n  jump\t// in\ntag_124:\n    /* \"#utility.yul\":7134:7136   */\n  0x20\n    /* \"#utility.yul\":7129:7132   */\n  dup3\n    /* \"#utility.yul\":7125:7137   */\n  add\n    /* \"#utility.yul\":7118:7137   */\n  swap1\n  pop\n    /* \"#utility.yul\":6777:7143   */\n  swap2\n  swap1\n  pop\n  jump\t// out\n    /* \"#utility.yul\":7149:7568   */\ntag_11:\n    /* \"#utility.yul\":7315:7319   */\n  0x00\n    /* \"#utility.yul\":7353:7355   */\n  0x20\n    /* \"#utility.yul\":7342:7351   */\n  dup3\n    /* \"#utility.yul\":7338:7356   */\n  add\n    /* \"#utility.yul\":7330:7356   */\n  swap1\n  pop\n    /* \"#utility.yul\":7402:7411   */\n  dup2\n    /* \"#utility.yul\":7396:7400   */\n  dup2\n    /* \"#utility.yul\":7392:7412   */\n  sub\n    /* \"#utility.yul\":7388:7389   */\n  0x00\n    /* \"#utility.yul\":7377:7386   */\n  dup4\n    /* \"#utility.yul\":7373:7390   */\n  add\n    /* \"#utility.yul\":7366:7413   */\n  mstore\n    /* \"#utility.yul\":7430:7561   */\n  tag_126\n    /* \"#utility.yul\":7556:7560   */\n  dup2\n    /* \"#utility.yul\":7430:7561   */\n  tag_42\n  jump\t// in\ntag_126:\n    /* \"#utility.yul\":7422:7561   */\n  swap1\n  pop\n    /* \"#utility.yul\":7149:7568   */\n  swap2\n  swap1\n  pop\n  jump\t// out\n    /* \"backend/contracts/CarbonCreditToken.sol\":408:12514  contract CarbonCreditToken {... */\ntag_12:\n  mload(0x80)\n  codecopy(0x00, dataOffset(sub_0), dataSize(sub_0))\n  0x00\n  assignImmutable(\"0xcdbc23227c72e0a3f4683bdbccfcbed38047ca1a70d48b78c210dc5393029019\")\n  return(0x00, dataSize(sub_0))\nstop\n\nsub_0: assembly {\n        /* \"backend/contracts/CarbonCreditToken.sol\":408:12514  contract CarbonCreditToken {... */\n      mstore(0x40, 0x80)\n      callvalue\n      dup1\n      iszero\n      tag_1\n      jumpi\n      revert(0x00, 0x00)\n    tag_1:\n      pop\n      jumpi(tag_2, lt(calldatasize, 0x04))\n      shr(0xe0, calldataload(0x00))\n      dup1\n      0x812da1e2\n      gt\n      tag_29\n      jumpi\n      dup1\n      0xdd62ed3e\n      gt\n      tag_30\n      jumpi\n      dup1\n      0xeb6f0c93\n      gt\n      tag_31\n      jumpi\n      dup1\n      0xeb6f0c93\n      eq\n      tag_25\n      jumpi\n      dup1\n      0xf218f48c\n      eq\n      tag_26\n      jumpi\n      dup1\n      0xf2f65960\n      eq\n      tag_27\n      jumpi\n      dup1\n      0xf2fde38b\n      eq\n      tag_28\n      jumpi\n      jump(tag_2)\n    tag_31:\n      dup1\n      0xdd62ed3e\n      eq\n      tag_22\n      jumpi\n      dup1\n      0xe58306f9\n      eq\n      tag_23\n      jumpi\n      dup1\n      0xe8accb5b\n      eq\n      tag_24\n      jumpi\n      jump(tag_2)\n    tag_30:\n      dup1\n      0x812da1e2\n      eq\n      tag_16\n      jumpi\n      dup1\n      0x88fcda39\n      eq\n      tag_17\n      jumpi\n      dup1\n      0x8da5cb5b\n      eq\n      tag_18\n      jumpi\n      dup1\n      0x95d89b41\n      eq\n      tag_19\n      jumpi\n      dup1\n      0x9a6669c0\n      eq\n      tag_20\n      jumpi\n      dup1\n      0xa9059cbb\n      eq\n      tag_21\n      jumpi\n      jump(tag_2)\n    tag_29:\n      dup1\n      0x23b872dd\n      gt\n      tag_32\n      jumpi\n      dup1\n      0x677a68e1\n      gt\n      tag_33\n      jumpi\n      dup1\n      0x677a68e1\n      eq\n      tag_12\n      jumpi\n      dup1\n      0x6e588a37\n      eq\n      tag_13\n      jumpi\n      dup1\n      0x70a08231\n      eq\n      tag_14\n      jumpi\n      dup1\n      0x7b103999\n      eq\n      tag_15\n      jumpi\n      jump(tag_2)\n    tag_33:\n      dup1\n      0x23b872dd\n      eq\n      tag_9\n      jumpi\n      dup1\n      0x313ce567\n      eq\n      tag_10\n      jumpi\n      dup1\n      0x49b3b32d\n      eq\n      tag_11\n      jumpi\n      jump(tag_2)\n    tag_32:\n      dup1\n      0x06dd0419\n      eq\n      tag_3\n      jumpi\n      dup1\n      0x06fdde03\n      eq\n      tag_4\n      jumpi\n      dup1\n      0x095ea7b3\n      eq\n      tag_5\n      jumpi\n      dup1\n      0x1344f9b4\n      eq\n      tag_6\n      jumpi\n      dup1\n      0x1485041c\n      eq\n      tag_7\n      jumpi\n      dup1\n      0x18160ddd\n      eq\n      tag_8\n      jumpi\n    tag_2:\n      revert(0x00, 0x00)\n        /* \"backend/contracts/CarbonCreditToken.sol\":4679:4912  function adminBurn(address from, uint256 amount) external onlyOwner {... */\n    tag_3:\n      tag_34\n      0x04\n      dup1\n      calldatasize\n      sub\n      dup2\n      add\n      swap1\n      tag_35\n      swap2\n      swap1\n      tag_36\n      jump\t// in\n    tag_35:\n      tag_37\n      jump\t// in\n    tag_34:\n      stop\n        /* \"backend/contracts/CarbonCreditToken.sol\":511:551  string public name = \"CarbonCreditToken\" */\n    tag_4:\n      tag_38\n      tag_39\n      jump\t// in\n    tag_38:\n      mload(0x40)\n      tag_40\n      swap2\n      swap1\n      tag_41\n      jump\t// in\n    tag_40:\n      mload(0x40)\n      dup1\n      swap2\n      sub\n      swap1\n      return\n        /* \"backend/contracts/CarbonCreditToken.sol\":5475:5678  function approve(address spender, uint256 amount) external returns (bool) {... */\n    tag_5:\n      tag_42\n      0x04\n      dup1\n      calldatasize\n      sub\n      dup2\n      add\n      swap1\n      tag_43\n      swap2\n      swap1\n      tag_36\n      jump\t// in\n    tag_43:\n      tag_44\n      jump\t// in\n    tag_42:\n      mload(0x40)\n      tag_45\n      swap2\n      swap1\n      tag_46\n      jump\t// in\n    tag_45:\n      mload(0x40)\n      dup1\n      swap2\n      sub\n      swap1\n      return\n        /* \"backend/contracts/CarbonCreditToken.sol\":1738:1796  mapping(address => EmissionBatch[]) public emissionHistory */\n    tag_6:\n      tag_47\n      0x04\n      dup1\n      calldatasize\n      sub\n      dup2\n      add\n      swap1\n      tag_48\n      swap2\n      swap1\n      tag_36\n      jump\t// in\n    tag_48:\n      tag_49\n      jump\t// in\n    tag_47:\n      mload(0x40)\n      tag_50\n      swap10\n      swap9\n      swap8\n      swap7\n      swap6\n      swap5\n      swap4\n      swap3\n      swap2\n      swap1\n      tag_51\n      jump\t// in\n    tag_50:\n      mload(0x40)\n      dup1\n      swap2\n      sub\n      swap1\n      return\n        /* \"backend/contracts/CarbonCreditToken.sol\":2155:2197  uint256 public gracePeriodSec = 15 minutes */\n    tag_7:\n      tag_52\n      tag_53\n      jump\t// in\n    tag_52:\n      mload(0x40)\n      tag_54\n      swap2\n      swap1\n      tag_55\n      jump\t// in\n    tag_54:\n      mload(0x40)\n      dup1\n      swap2\n      sub\n      swap1\n      return\n        /* \"backend/contracts/CarbonCreditToken.sol\":632:658  uint256 public totalSupply */\n    tag_8:\n      tag_56\n      tag_57\n      jump\t// in\n    tag_56:\n      mload(0x40)\n      tag_58\n      swap2\n      swap1\n      tag_55\n      jump\t// in\n    tag_58:\n      mload(0x40)\n      dup1\n      swap2\n      sub\n      swap1\n      return\n        /* \"backend/contracts/CarbonCreditToken.sol\":5684:6063  function transferFrom(address from, address to, uint256 amount) external returns (bool) {... */\n    tag_9:\n      tag_59\n      0x04\n      dup1\n      calldatasize\n      sub\n      dup2\n      add\n      swap1\n      tag_60\n      swap2\n      swap1\n      tag_61\n      jump\t// in\n    tag_60:\n      tag_62\n      jump\t// in\n    tag_59:\n      mload(0x40)\n      tag_63\n      swap2\n      swap1\n      tag_46\n      jump\t// in\n    tag_63:\n      mload(0x40)\n      dup1\n      swap2\n      sub\n      swap1\n      return\n        /* \"backend/contracts/CarbonCreditToken.sol\":591:625  uint8 public constant decimals = 0 */\n    tag_10:\n      tag_64\n      tag_65\n      jump\t// in\n    tag_64:\n      mload(0x40)\n      tag_66\n      swap2\n      swap1\n      tag_67\n      jump\t// in\n    tag_66:\n      mload(0x40)\n      dup1\n      swap2\n      sub\n      swap1\n      return\n        /* \"backend/contracts/CarbonCreditToken.sol\":11461:12098  function settleOwed(uint256 amount) external {... */\n    tag_11:\n      tag_68\n      0x04\n      dup1\n      calldatasize\n      sub\n      dup2\n      add\n      swap1\n      tag_69\n      swap2\n      swap1\n      tag_70\n      jump\t// in\n    tag_69:\n      tag_71\n      jump\t// in\n    tag_68:\n      stop\n        /* \"backend/contracts/CarbonCreditToken.sol\":1966:2012  mapping(address => uint256) public owedBalance */\n    tag_12:\n      tag_72\n      0x04\n      dup1\n      calldatasize\n      sub\n      dup2\n      add\n      swap1\n      tag_73\n      swap2\n      swap1\n      tag_74\n      jump\t// in\n    tag_73:\n      tag_75\n      jump\t// in\n    tag_72:\n      mload(0x40)\n      tag_76\n      swap2\n      swap1\n      tag_55\n      jump\t// in\n    tag_76:\n      mload(0x40)\n      dup1\n      swap2\n      sub\n      swap1\n      return\n        /* \"backend/contracts/CarbonCreditToken.sol\":4094:4281  function setPenaltyAmount(uint256 amount) external onlyOwner {... */\n    tag_13:\n      tag_77\n      0x04\n      dup1\n      calldatasize\n      sub\n      dup2\n      add\n      swap1\n      tag_78\n      swap2\n      swap1\n      tag_70\n      jump\t// in\n    tag_78:\n      tag_79\n      jump\t// in\n    tag_77:\n      stop\n        /* \"backend/contracts/CarbonCreditToken.sol\":664:708  mapping(address => uint256) public balanceOf */\n    tag_14:\n      tag_80\n      0x04\n      dup1\n      calldatasize\n      sub\n      dup2\n      add\n      swap1\n      tag_81\n      swap2\n      swap1\n      tag_74\n      jump\t// in\n    tag_81:\n      tag_82\n      jump\t// in\n    tag_80:\n      mload(0x40)\n      tag_83\n      swap2\n      swap1\n      tag_55\n      jump\t// in\n    tag_83:\n      mload(0x40)\n      dup1\n      swap2\n      sub\n      swap1\n      return\n        /* \"backend/contracts/CarbonCreditToken.sol\":1216:1258  ICompanyRegistry public immutable registry */\n    tag_15:\n      tag_84\n      tag_85\n      jump\t// in\n    tag_84:\n      mload(0x40)\n      tag_86\n      swap2\n      swap1\n      tag_87\n      jump\t// in\n    tag_86:\n      mload(0x40)\n      dup1\n      swap2\n      sub\n      swap1\n      return\n        /* \"backend/contracts/CarbonCreditToken.sol\":7003:8876  function submitBatch(... */\n    tag_16:\n      tag_88\n      0x04\n      dup1\n      calldatasize\n      sub\n      dup2\n      add\n      swap1\n      tag_89\n      swap2\n      swap1\n      tag_90\n      jump\t// in\n    tag_89:\n      tag_91\n      jump\t// in\n    tag_88:\n      stop\n        /* \"backend/contracts/CarbonCreditToken.sol\":1304:1352  mapping(bytes32 => bool) public processedBatches */\n    tag_17:\n      tag_92\n      0x04\n      dup1\n      calldatasize\n      sub\n      dup2\n      add\n      swap1\n      tag_93\n      swap2\n      swap1\n      tag_94\n      jump\t// in\n    tag_93:\n      tag_95\n      jump\t// in\n    tag_92:\n      mload(0x40)\n      tag_96\n      swap2\n      swap1\n      tag_46\n      jump\t// in\n    tag_96:\n      mload(0x40)\n      dup1\n      swap2\n      sub\n      swap1\n      return\n        /* \"backend/contracts/CarbonCreditToken.sol\":971:991  address public owner */\n    tag_18:\n      tag_97\n      tag_98\n      jump\t// in\n    tag_97:\n      mload(0x40)\n      tag_99\n      swap2\n      swap1\n      tag_100\n      jump\t// in\n    tag_99:\n      mload(0x40)\n      dup1\n      swap2\n      sub\n      swap1\n      return\n        /* \"backend/contracts/CarbonCreditToken.sol\":557:585  string public symbol = \"CCT\" */\n    tag_19:\n      tag_101\n      tag_102\n      jump\t// in\n    tag_101:\n      mload(0x40)\n      tag_103\n      swap2\n      swap1\n      tag_41\n      jump\t// in\n    tag_103:\n      mload(0x40)\n      dup1\n      swap2\n      sub\n      swap1\n      return\n        /* \"backend/contracts/CarbonCreditToken.sol\":2056:2102  mapping(address => uint256) public owedDueTime */\n    tag_20:\n      tag_104\n      0x04\n      dup1\n      calldatasize\n      sub\n      dup2\n      add\n      swap1\n      tag_105\n      swap2\n      swap1\n      tag_74\n      jump\t// in\n    tag_105:\n      tag_106\n      jump\t// in\n    tag_104:\n      mload(0x40)\n      tag_107\n      swap2\n      swap1\n      tag_55\n      jump\t// in\n    tag_107:\n      mload(0x40)\n      dup1\n      swap2\n      sub\n      swap1\n      return\n        /* \"backend/contracts/CarbonCreditToken.sol\":5328:5469  function transfer(address to, uint256 amount) external returns (bool) {... */\n    tag_21:\n      tag_108\n      0x04\n      dup1\n      calldatasize\n      sub\n      dup2\n      add\n      swap1\n      tag_109\n      swap2\n      swap1\n      tag_36\n      jump\t// in\n    tag_109:\n      tag_110\n      jump\t// in\n    tag_108:\n      mload(0x40)\n      tag_111\n      swap2\n      swap1\n      tag_46\n      jump\t// in\n    tag_111:\n      mload(0x40)\n      dup1\n      swap2\n      sub\n      swap1\n      return\n        /* \"backend/contracts/CarbonCreditToken.sol\":714:778  mapping(address => mapping(address => uint256)) public allowance */\n    tag_22:\n      tag_112\n      0x04\n      dup1\n      calldatasize\n      sub\n      dup2\n      add\n      swap1\n      tag_113\n      swap2\n      swap1\n      tag_114\n      jump\t// in\n    tag_113:\n      tag_115\n      jump\t// in\n    tag_112:\n      mload(0x40)\n      tag_116\n      swap2\n      swap1\n      tag_55\n      jump\t// in\n    tag_116:\n      mload(0x40)\n      dup1\n      swap2\n      sub\n      swap1\n      return\n        /* \"backend/contracts/CarbonCreditToken.sol\":4366:4589  function adminMint(address to, uint256 amount) external onlyOwner {... */\n    tag_23:\n      tag_117\n      0x04\n      dup1\n      calldatasize\n      sub\n      dup2\n      add\n      swap1\n      tag_118\n      swap2\n      swap1\n      tag_36\n      jump\t// in\n    tag_118:\n      tag_119\n      jump\t// in\n    tag_117:\n      stop\n        /* \"backend/contracts/CarbonCreditToken.sol\":12132:12267  function emissionHistoryLength(address company) external view returns (uint256) {... */\n    tag_24:\n      tag_120\n      0x04\n      dup1\n      calldatasize\n      sub\n      dup2\n      add\n      swap1\n      tag_121\n      swap2\n      swap1\n      tag_74\n      jump\t// in\n    tag_121:\n      tag_122\n      jump\t// in\n    tag_120:\n      mload(0x40)\n      tag_123\n      swap2\n      swap1\n      tag_55\n      jump\t// in\n    tag_123:\n      mload(0x40)\n      dup1\n      swap2\n      sub\n      swap1\n      return\n        /* \"backend/contracts/CarbonCreditToken.sol\":12273:12512  function getEmissionBatch(address company, uint256 index) external view returns (EmissionBatch memory) {... */\n    tag_25:\n      tag_124\n      0x04\n      dup1\n      calldatasize\n      sub\n      dup2\n      add\n      swap1\n      tag_125\n      swap2\n      swap1\n      tag_36\n      jump\t// in\n    tag_125:\n      tag_126\n      jump\t// in\n    tag_124:\n      mload(0x40)\n      tag_127\n      swap2\n      swap1\n      tag_128\n      jump\t// in\n    tag_127:\n      mload(0x40)\n      dup1\n      swap2\n      sub\n      swap1\n      return\n        /* \"backend/contracts/CarbonCreditToken.sol\":2203:2235  uint256 public penaltyAmount = 3 */\n    tag_26:\n      tag_129\n      tag_130\n      jump\t// in\n    tag_129:\n      mload(0x40)\n      tag_131\n      swap2\n      swap1\n      tag_55\n      jump\t// in\n    tag_131:\n      mload(0x40)\n      dup1\n      swap2\n      sub\n      swap1\n      return\n        /* \"backend/contracts/CarbonCreditToken.sol\":3898:4088  function setGracePeriod(uint256 seconds_) external onlyOwner {... */\n    tag_27:\n      tag_132\n      0x04\n      dup1\n      calldatasize\n      sub\n      dup2\n      add\n      swap1\n      tag_133\n      swap2\n      swap1\n      tag_70\n      jump\t// in\n    tag_133:\n      tag_134\n      jump\t// in\n    tag_132:\n      stop\n        /* \"backend/contracts/CarbonCreditToken.sol\":3688:3892  function transferOwnership(address newOwner) external onlyOwner {... */\n    tag_28:\n      tag_135\n      0x04\n      dup1\n      calldatasize\n      sub\n      dup2\n      add\n      swap1\n      tag_136\n      swap2\n      swap1\n      tag_74\n      jump\t// in\n    tag_136:\n      tag_137\n      jump\t// in\n    tag_135:\n      stop\n        /* \"backend/contracts/CarbonCreditToken.sol\":4679:4912  function adminBurn(address from, uint256 amount) external onlyOwner {... */\n    tag_37:\n        /* \"backend/contracts/CarbonCreditToken.sol\":1140:1145  owner */\n      0x05\n      0x00\n      swap1\n      sload\n      swap1\n      0x0100\n      exp\n      swap1\n      div\n      0xffffffffffffffffffffffffffffffffffffffff\n      and\n        /* \"backend/contracts/CarbonCreditToken.sol\":1126:1145  msg.sender == owner */\n      0xffffffffffffffffffffffffffffffffffffffff\n      and\n        /* \"backend/contracts/CarbonCreditToken.sol\":1126:1136  msg.sender */\n      caller\n        /* \"backend/contracts/CarbonCreditToken.sol\":1126:1145  msg.sender == owner */\n      0xffffffffffffffffffffffffffffffffffffffff\n      and\n      eq\n        /* \"backend/contracts/CarbonCreditToken.sol\":1118:1159  require(msg.sender == owner, \"Not owner\") */\n      tag_139\n      jumpi\n      mload(0x40)\n      0x08c379a000000000000000000000000000000000000000000000000000000000\n      dup2\n      mstore\n      0x04\n      add\n      tag_140\n      swap1\n      tag_141\n      jump\t// in\n    tag_140:\n      mload(0x40)\n      dup1\n      swap2\n      sub\n      swap1\n      revert\n    tag_139:\n        /* \"backend/contracts/CarbonCreditToken.sol\":4781:4782  0 */\n      0x00\n        /* \"backend/contracts/CarbonCreditToken.sol\":4765:4783  from != address(0) */\n      0xffffffffffffffffffffffffffffffffffffffff\n      and\n        /* \"backend/contracts/CarbonCreditToken.sol\":4765:4769  from */\n      dup3\n        /* \"backend/contracts/CarbonCreditToken.sol\":4765:4783  from != address(0) */\n      0xffffffffffffffffffffffffffffffffffffffff\n      and\n      sub\n        /* \"backend/contracts/CarbonCreditToken.sol\":4757:4797  require(from != address(0), \"Zero from\") */\n      tag_143\n      jumpi\n      mload(0x40)\n      0x08c379a000000000000000000000000000000000000000000000000000000000\n      dup2\n      mstore\n      0x04\n      add\n      tag_144\n      swap1\n      tag_145\n      jump\t// in\n    tag_144:\n      mload(0x40)\n      dup1\n      swap2\n      sub\n      swap1\n      revert\n    tag_143:\n        /* \"backend/contracts/CarbonCreditToken.sol\":4824:4825  0 */\n      0x00\n        /* \"backend/contracts/CarbonCreditToken.sol\":4815:4821  amount */\n      dup2\n        /* \"backend/contracts/CarbonCreditToken.sol\":4815:4825  amount > 0 */\n      gt\n        /* \"backend/contracts/CarbonCreditToken.sol\":4807:4838  require(amount > 0, \"amount=0\") */\n      tag_146\n      jumpi\n      mload(0x40)\n      0x08c379a000000000000000000000000000000000000000000000000000000000\n      dup2\n      mstore\n      0x04\n      add\n      tag_147\n      swap1\n      tag_148\n      jump\t// in\n    tag_147:\n      mload(0x40)\n      dup1\n      swap2\n      sub\n      swap1\n      revert\n    tag_146:\n        /* \"backend/contracts/CarbonCreditToken.sol\":4848:4867  _burn(from, amount) */\n      tag_149\n        /* \"backend/contracts/CarbonCreditToken.sol\":4854:4858  from */\n      dup3\n        /* \"backend/contracts/CarbonCreditToken.sol\":4860:4866  amount */\n      dup3\n        /* \"backend/contracts/CarbonCreditToken.sol\":4848:4853  _burn */\n      tag_150\n        /* \"backend/contracts/CarbonCreditToken.sol\":4848:4867  _burn(from, amount) */\n      jump\t// in\n    tag_149:\n        /* \"backend/contracts/CarbonCreditToken.sol\":4892:4896  from */\n      dup2\n        /* \"backend/contracts/CarbonCreditToken.sol\":4882:4905  AdminBurn(from, amount) */\n      0xffffffffffffffffffffffffffffffffffffffff\n      and\n      0x5cc4484a78e496ea6abafbd7c5808368871033d43d3c7abd18af42799d9f0f64\n        /* \"backend/contracts/CarbonCreditToken.sol\":4898:4904  amount */\n      dup3\n        /* \"backend/contracts/CarbonCreditToken.sol\":4882:4905  AdminBurn(from, amount) */\n      mload(0x40)\n      tag_151\n      swap2\n      swap1\n      tag_55\n      jump\t// in\n    tag_151:\n      mload(0x40)\n      dup1\n      swap2\n      sub\n      swap1\n      log2\n        /* \"backend/contracts/CarbonCreditToken.sol\":4679:4912  function adminBurn(address from, uint256 amount) external onlyOwner {... */\n      pop\n      pop\n      jump\t// out\n        /* \"backend/contracts/CarbonCreditToken.sol\":511:551  string public name = \"CarbonCreditToken\" */\n    tag_39:\n      0x00\n      dup1\n      sload\n      tag_152\n      swap1\n      tag_153\n      jump\t// in\n    tag_152:\n      dup1\n      0x1f\n      add\n      0x20\n      dup1\n      swap2\n      div\n      mul\n      0x20\n      add\n      mload(0x40)\n      swap1\n      dup2\n      add\n      0x40\n      mstore\n      dup1\n      swap3\n      swap2\n      swap1\n      dup2\n      dup2\n      mstore\n      0x20\n      add\n      dup3\n      dup1\n      sload\n      tag_154\n      swap1\n      tag_153\n      jump\t// in\n    tag_154:\n      dup1\n      iszero\n      tag_155\n      jumpi\n      dup1\n      0x1f\n      lt\n      tag_156\n      jumpi\n      0x0100\n      dup1\n      dup4\n      sload\n      div\n      mul\n      dup4\n      mstore\n      swap2\n      0x20\n      add\n      swap2\n      jump(tag_155)\n    tag_156:\n      dup3\n      add\n      swap2\n      swap1\n      0x00\n      mstore\n      keccak256(0x00, 0x20)\n      swap1\n    tag_157:\n      dup2\n      sload\n      dup2\n      mstore\n      swap1\n      0x01\n      add\n      swap1\n      0x20\n      add\n      dup1\n      dup4\n      gt\n      tag_157\n      jumpi\n      dup3\n      swap1\n      sub\n      0x1f\n      and\n      dup3\n      add\n      swap2\n    tag_155:\n      pop\n      pop\n      pop\n      pop\n      pop\n      dup2\n      jump\t// out\n        /* \"backend/contracts/CarbonCreditToken.sol\":5475:5678  function approve(address spender, uint256 amount) external returns (bool) {... */\n    tag_44:\n        /* \"backend/contracts/CarbonCreditToken.sol\":5543:5547  bool */\n      0x00\n        /* \"backend/contracts/CarbonCreditToken.sol\":5592:5598  amount */\n      dup2\n        /* \"backend/contracts/CarbonCreditToken.sol\":5559:5568  allowance */\n      0x04\n        /* \"backend/contracts/CarbonCreditToken.sol\":5559:5580  allowance[msg.sender] */\n      0x00\n        /* \"backend/contracts/CarbonCreditToken.sol\":5569:5579  msg.sender */\n      caller\n        /* \"backend/contracts/CarbonCreditToken.sol\":5559:5580  allowance[msg.sender] */\n      0xffffffffffffffffffffffffffffffffffffffff\n      and\n      0xffffffffffffffffffffffffffffffffffffffff\n      and\n      dup2\n      mstore\n      0x20\n      add\n      swap1\n      dup2\n      mstore\n      0x20\n      add\n      0x00\n      keccak256\n        /* \"backend/contracts/CarbonCreditToken.sol\":5559:5589  allowance[msg.sender][spender] */\n      0x00\n        /* \"backend/contracts/CarbonCreditToken.sol\":5581:5588  spender */\n      dup6\n        /* \"backend/contracts/CarbonCreditToken.sol\":5559:5589  allowance[msg.sender][spender] */\n      0xffffffffffffffffffffffffffffffffffffffff\n      and\n      0xffffffffffffffffffffffffffffffffffffffff\n      and\n      dup2\n      mstore\n      0x20\n      add\n      swap1\n      dup2\n      mstore\n      0x20\n      add\n      0x00\n      keccak256\n        /* \"backend/contracts/CarbonCreditToken.sol\":5559:5598  allowance[msg.sender][spender] = amount */\n      dup2\n      swap1\n      sstore\n      pop\n        /* \"backend/contracts/CarbonCreditToken.sol\":5634:5641  spender */\n      dup3\n        /* \"backend/contracts/CarbonCreditToken.sol\":5613:5650  Approval(msg.sender, spender, amount) */\n      0xffffffffffffffffffffffffffffffffffffffff\n      and\n        /* \"backend/contracts/CarbonCreditToken.sol\":5622:5632  msg.sender */\n      caller\n        /* \"backend/contracts/CarbonCreditToken.sol\":5613:5650  Approval(msg.sender, spender, amount) */\n      0xffffffffffffffffffffffffffffffffffffffff\n      and\n      0x8c5be1e5ebec7d5bd14f71427d1e84f3dd0314c0f7b2291e5b200ac8c7c3b925\n        /* \"backend/contracts/CarbonCreditToken.sol\":5643:5649  amount */\n      dup5\n        /* \"backend/contracts/CarbonCreditToken.sol\":5613:5650  Approval(msg.sender, spender, amount) */\n      mload(0x40)\n      tag_159\n      swap2\n      swap1\n      tag_55\n      jump\t// in\n    tag_159:\n      mload(0x40)\n      dup1\n      swap2\n      sub\n      swap1\n      log3\n        /* \"backend/contracts/CarbonCreditToken.sol\":5667:5671  true */\n      0x01\n        /* \"backend/contracts/CarbonCreditToken.sol\":5660:5671  return true */\n      swap1\n      pop\n        /* \"backend/contracts/CarbonCreditToken.sol\":5475:5678  function approve(address spender, uint256 amount) external returns (bool) {... */\n      swap3\n      swap2\n      pop\n      pop\n      jump\t// out\n        /* \"backend/contracts/CarbonCreditToken.sol\":1738:1796  mapping(address => EmissionBatch[]) public emissionHistory */\n    tag_49:\n      mstore(0x20, 0x07)\n      dup2\n      0x00\n      mstore\n      keccak256(0x00, 0x40)\n      dup2\n      dup2\n      sload\n      dup2\n      lt\n      tag_160\n      jumpi\n      0x00\n      dup1\n      revert\n    tag_160:\n      swap1\n      0x00\n      mstore\n      keccak256(0x00, 0x20)\n      swap1\n      0x09\n      mul\n      add\n      0x00\n      swap2\n      pop\n      swap2\n      pop\n      pop\n      dup1\n      0x00\n      add\n      sload\n      swap1\n      dup1\n      0x01\n      add\n      sload\n      swap1\n      dup1\n      0x02\n      add\n      sload\n      swap1\n      dup1\n      0x03\n      add\n      sload\n      swap1\n      dup1\n      0x04\n      add\n      sload\n      swap1\n      dup1\n      0x05\n      add\n      sload\n      swap1\n      dup1\n      0x06\n      add\n      sload\n      swap1\n      dup1\n      0x07\n      add\n      sload\n      swap1\n      dup1\n      0x08\n      add\n      sload\n      swap1\n      pop\n      dup10\n      jump\t// out\n        /* \"backend/contracts/CarbonCreditToken.sol\":2155:2197  uint256 public gracePeriodSec = 15 minutes */\n    tag_53:\n      sload(0x0a)\n      dup2\n      jump\t// out\n        /* \"backend/contracts/CarbonCreditToken.sol\":632:658  uint256 public totalSupply */\n    tag_57:\n      sload(0x02)\n      dup2\n      jump\t// out\n        /* \"backend/contracts/CarbonCreditToken.sol\":5684:6063  function transferFrom(address from, address to, uint256 amount) external returns (bool) {... */\n    tag_62:\n        /* \"backend/contracts/CarbonCreditToken.sol\":5766:5770  bool */\n      0x00\n        /* \"backend/contracts/CarbonCreditToken.sol\":5782:5797  uint256 allowed */\n      0x00\n        /* \"backend/contracts/CarbonCreditToken.sol\":5800:5809  allowance */\n      0x04\n        /* \"backend/contracts/CarbonCreditToken.sol\":5800:5815  allowance[from] */\n      0x00\n        /* \"backend/contracts/CarbonCreditToken.sol\":5810:5814  from */\n      dup7\n        /* \"backend/contracts/CarbonCreditToken.sol\":5800:5815  allowance[from] */\n      0xffffffffffffffffffffffffffffffffffffffff\n      and\n      0xffffffffffffffffffffffffffffffffffffffff\n      and\n      dup2\n      mstore\n      0x20\n      add\n      swap1\n      dup2\n      mstore\n      0x20\n      add\n      0x00\n      keccak256\n        /* \"backend/contracts/CarbonCreditToken.sol\":5800:5827  allowance[from][msg.sender] */\n      0x00\n        /* \"backend/contracts/CarbonCreditToken.sol\":5816:5826  msg.sender */\n      caller\n        /* \"backend/contracts/CarbonCreditToken.sol\":5800:5827  allowance[from][msg.sender] */\n      0xffffffffffffffffffffffffffffffffffffffff\n      and\n      0xffffffffffffffffffffffffffffffffffffffff\n      and\n      dup2\n      mstore\n      0x20\n      add\n      swap1\n      dup2\n      mstore\n      0x20\n      add\n      0x00\n      keccak256\n      sload\n        /* \"backend/contracts/CarbonCreditToken.sol\":5782:5827  uint256 allowed = allowance[from][msg.sender] */\n      swap1\n      pop\n        /* \"backend/contracts/CarbonCreditToken.sol\":5856:5862  amount */\n      dup3\n        /* \"backend/contracts/CarbonCreditToken.sol\":5845:5852  allowed */\n      dup2\n        /* \"backend/contracts/CarbonCreditToken.sol\":5845:5862  allowed >= amount */\n      lt\n      iszero\n        /* \"backend/contracts/CarbonCreditToken.sol\":5837:5884  require(allowed >= amount, \"Allowance too low\") */\n      tag_163\n      jumpi\n      mload(0x40)\n      0x08c379a000000000000000000000000000000000000000000000000000000000\n      dup2\n      mstore\n      0x04\n      add\n      tag_164\n      swap1\n      tag_165\n      jump\t// in\n    tag_164:\n      mload(0x40)\n      dup1\n      swap2\n      sub\n      swap1\n      revert\n    tag_163:\n        /* \"backend/contracts/CarbonCreditToken.sol\":5909:5926  type(uint256).max */\n      0xffffffffffffffffffffffffffffffffffffffffffffffffffffffffffffffff\n        /* \"backend/contracts/CarbonCreditToken.sol\":5898:5905  allowed */\n      dup2\n        /* \"backend/contracts/CarbonCreditToken.sol\":5898:5926  allowed != type(uint256).max */\n      eq\n        /* \"backend/contracts/CarbonCreditToken.sol\":5894:5999  if (allowed != type(uint256).max) {... */\n      tag_166\n      jumpi\n        /* \"backend/contracts/CarbonCreditToken.sol\":5982:5988  amount */\n      dup3\n        /* \"backend/contracts/CarbonCreditToken.sol\":5972:5979  allowed */\n      dup2\n        /* \"backend/contracts/CarbonCreditToken.sol\":5972:5988  allowed - amount */\n      tag_167\n      swap2\n      swap1\n      tag_168\n      jump\t// in\n    tag_167:\n        /* \"backend/contracts/CarbonCreditToken.sol\":5942:5951  allowance */\n      0x04\n        /* \"backend/contracts/CarbonCreditToken.sol\":5942:5957  allowance[from] */\n      0x00\n        /* \"backend/contracts/CarbonCreditToken.sol\":5952:5956  from */\n      dup8\n        /* \"backend/contracts/CarbonCreditToken.sol\":5942:5957  allowance[from] */\n      0xffffffffffffffffffffffffffffffffffffffff\n      and\n      0xffffffffffffffffffffffffffffffffffffffff\n      and\n      dup2\n      mstore\n      0x20\n      add\n      swap1\n      dup2\n      mstore\n      0x20\n      add\n      0x00\n      keccak256\n        /* \"backend/contracts/CarbonCreditToken.sol\":5942:5969  allowance[from][msg.sender] */\n      0x00\n        /* \"backend/contracts/CarbonCreditToken.sol\":5958:5968  msg.sender */\n      caller\n        /* \"backend/contracts/CarbonCreditToken.sol\":5942:5969  allowance[from][msg.sender] */\n      0xffffffffffffffffffffffffffffffffffffffff\n      and\n      0xffffffffffffffffffffffffffffffffffffffff\n      and\n      dup2\n      mstore\n      0x20\n      add\n      swap1\n      dup2\n      mstore\n      0x20\n      add\n      0x00\n      keccak256\n        /* \"backend/contracts/CarbonCreditToken.sol\":5942:5988  allowance[from][msg.sender] = allowed - amount */\n      dup2\n      swap1\n      sstore\n      pop\n        /* \"backend/contracts/CarbonCreditToken.sol\":5894:5999  if (allowed != type(uint256).max) {... */\n    tag_166:\n        /* \"backend/contracts/CarbonCreditToken.sol\":6008:6035  _transfer(from, to, amount) */\n      tag_169\n        /* \"backend/contracts/CarbonCreditToken.sol\":6018:6022  from */\n      dup6\n        /* \"backend/contracts/CarbonCreditToken.sol\":6024:6026  to */\n      dup6\n        /* \"backend/contracts/CarbonCreditToken.sol\":6028:6034  amount */\n      dup6\n        /* \"backend/contracts/CarbonCreditToken.sol\":6008:6017  _transfer */\n      tag_170\n        /* \"backend/contracts/CarbonCreditToken.sol\":6008:6035  _transfer(from, to, amount) */\n      jump\t// in\n    tag_169:\n        /* \"backend/contracts/CarbonCreditToken.sol\":6052:6056  true */\n      0x01\n        /* \"backend/contracts/CarbonCreditToken.sol\":6045:6056  return true */\n      swap2\n      pop\n      pop\n        /* \"backend/contracts/CarbonCreditToken.sol\":5684:6063  function transferFrom(address from, address to, uint256 amount) external returns (bool) {... */\n      swap4\n      swap3\n      pop\n      pop\n      pop\n      jump\t// out\n        /* \"backend/contracts/CarbonCreditToken.sol\":591:625  uint8 public constant decimals = 0 */\n    tag_65:\n        /* \"backend/contracts/CarbonCreditToken.sol\":624:625  0 */\n      0x00\n        /* \"backend/contracts/CarbonCreditToken.sol\":591:625  uint8 public constant decimals = 0 */\n      dup2\n      jump\t// out\n        /* \"backend/contracts/CarbonCreditToken.sol\":11461:12098  function settleOwed(uint256 amount) external {... */\n    tag_71:\n        /* \"backend/contracts/CarbonCreditToken.sol\":11516:11531  address company */\n      0x00\n        /* \"backend/contracts/CarbonCreditToken.sol\":11534:11544  msg.sender */\n      caller\n        /* \"backend/contracts/CarbonCreditToken.sol\":11516:11544  address company = msg.sender */\n      swap1\n      pop\n        /* \"backend/contracts/CarbonCreditToken.sol\":11554:11566  uint256 owed */\n      0x00\n        /* \"backend/contracts/CarbonCreditToken.sol\":11569:11580  owedBalance */\n      0x08\n        /* \"backend/contracts/CarbonCreditToken.sol\":11569:11589  owedBalance[company] */\n      0x00\n        /* \"backend/contracts/CarbonCreditToken.sol\":11581:11588  company */\n      dup4\n        /* \"backend/contracts/CarbonCreditToken.sol\":11569:11589  owedBalance[company] */\n      0xffffffffffffffffffffffffffffffffffffffff\n      and\n      0xffffffffffffffffffffffffffffffffffffffff\n      and\n      dup2\n      mstore\n      0x20\n      add\n      swap1\n      dup2\n      mstore\n      0x20\n      add\n      0x00\n      keccak256\n      sload\n        /* \"backend/contracts/CarbonCreditToken.sol\":11554:11589  uint256 owed = owedBalance[company] */\n      swap1\n      pop\n        /* \"backend/contracts/CarbonCreditToken.sol\":11614:11615  0 */\n      0x00\n        /* \"backend/contracts/CarbonCreditToken.sol\":11607:11611  owed */\n      dup2\n        /* \"backend/contracts/CarbonCreditToken.sol\":11607:11615  owed > 0 */\n      gt\n        /* \"backend/contracts/CarbonCreditToken.sol\":11599:11627  require(owed > 0, \"no owed\") */\n      tag_172\n      jumpi\n      mload(0x40)\n      0x08c379a000000000000000000000000000000000000000000000000000000000\n      dup2\n      mstore\n      0x04\n      add\n      tag_173\n      swap1\n      tag_174\n      jump\t// in\n    tag_173:\n      mload(0x40)\n      dup1\n      swap2\n      sub\n      swap1\n      revert\n    tag_172:\n        /* \"backend/contracts/CarbonCreditToken.sol\":11637:11648  uint256 bal */\n      0x00\n        /* \"backend/contracts/CarbonCreditToken.sol\":11651:11660  balanceOf */\n      0x03\n        /* \"backend/contracts/CarbonCreditToken.sol\":11651:11669  balanceOf[company] */\n      0x00\n        /* \"backend/contracts/CarbonCreditToken.sol\":11661:11668  company */\n      dup5\n        /* \"backend/contracts/CarbonCreditToken.sol\":11651:11669  balanceOf[company] */\n      0xffffffffffffffffffffffffffffffffffffffff\n      and\n      0xffffffffffffffffffffffffffffffffffffffff\n      and\n      dup2\n      mstore\n      0x20\n      add\n      swap1\n      dup2\n      mstore\n      0x20\n      add\n      0x00\n      keccak256\n      sload\n        /* \"backend/contracts/CarbonCreditToken.sol\":11637:11669  uint256 bal = balanceOf[company] */\n      swap1\n      pop\n        /* \"backend/contracts/CarbonCreditToken.sol\":11679:11693  uint256 toBurn */\n      0x00\n        /* \"backend/contracts/CarbonCreditToken.sol\":11705:11708  bal */\n      dup2\n        /* \"backend/contracts/CarbonCreditToken.sol\":11696:11702  amount */\n      dup6\n        /* \"backend/contracts/CarbonCreditToken.sol\":11696:11708  amount > bal */\n      gt\n        /* \"backend/contracts/CarbonCreditToken.sol\":11696:11723  amount > bal ? bal : amount */\n      tag_175\n      jumpi\n        /* \"backend/contracts/CarbonCreditToken.sol\":11717:11723  amount */\n      dup5\n        /* \"backend/contracts/CarbonCreditToken.sol\":11696:11723  amount > bal ? bal : amount */\n      jump(tag_176)\n    tag_175:\n        /* \"backend/contracts/CarbonCreditToken.sol\":11711:11714  bal */\n      dup2\n        /* \"backend/contracts/CarbonCreditToken.sol\":11696:11723  amount > bal ? bal : amount */\n    tag_176:\n        /* \"backend/contracts/CarbonCreditToken.sol\":11679:11723  uint256 toBurn = amount > bal ? bal : amount */\n      swap1\n      pop\n        /* \"backend/contracts/CarbonCreditToken.sol\":11750:11751  0 */\n      0x00\n        /* \"backend/contracts/CarbonCreditToken.sol\":11741:11747  toBurn */\n      dup2\n        /* \"backend/contracts/CarbonCreditToken.sol\":11741:11751  toBurn > 0 */\n      gt\n        /* \"backend/contracts/CarbonCreditToken.sol\":11733:11766  require(toBurn > 0, \"no balance\") */\n      tag_177\n      jumpi\n      mload(0x40)\n      0x08c379a000000000000000000000000000000000000000000000000000000000\n      dup2\n      mstore\n      0x04\n      add\n      tag_178\n      swap1\n      tag_179\n      jump\t// in\n    tag_178:\n      mload(0x40)\n      dup1\n      swap2\n      sub\n      swap1\n      revert\n    tag_177:\n        /* \"backend/contracts/CarbonCreditToken.sol\":11776:11798  _burn(company, toBurn) */\n      tag_180\n        /* \"backend/contracts/CarbonCreditToken.sol\":11782:11789  company */\n      dup5\n        /* \"backend/contracts/CarbonCreditToken.sol\":11791:11797  toBurn */\n      dup3\n        /* \"backend/contracts/CarbonCreditToken.sol\":11776:11781  _burn */\n      tag_150\n        /* \"backend/contracts/CarbonCreditToken.sol\":11776:11798  _burn(company, toBurn) */\n      jump\t// in\n    tag_180:\n        /* \"backend/contracts/CarbonCreditToken.sol\":11822:11826  owed */\n      dup3\n        /* \"backend/contracts/CarbonCreditToken.sol\":11812:11818  toBurn */\n      dup2\n        /* \"backend/contracts/CarbonCreditToken.sol\":11812:11826  toBurn >= owed */\n      lt\n        /* \"backend/contracts/CarbonCreditToken.sol\":11808:12092  if (toBurn >= owed) {... */\n      tag_181\n      jumpi\n        /* \"backend/contracts/CarbonCreditToken.sol\":11865:11866  0 */\n      0x00\n        /* \"backend/contracts/CarbonCreditToken.sol\":11842:11853  owedBalance */\n      0x08\n        /* \"backend/contracts/CarbonCreditToken.sol\":11842:11862  owedBalance[company] */\n      0x00\n        /* \"backend/contracts/CarbonCreditToken.sol\":11854:11861  company */\n      dup7\n        /* \"backend/contracts/CarbonCreditToken.sol\":11842:11862  owedBalance[company] */\n      0xffffffffffffffffffffffffffffffffffffffff\n      and\n      0xffffffffffffffffffffffffffffffffffffffff\n      and\n      dup2\n      mstore\n      0x20\n      add\n      swap1\n      dup2\n      mstore\n      0x20\n      add\n      0x00\n      keccak256\n        /* \"backend/contracts/CarbonCreditToken.sol\":11842:11866  owedBalance[company] = 0 */\n      dup2\n      swap1\n      sstore\n      pop\n        /* \"backend/contracts/CarbonCreditToken.sol\":11903:11904  0 */\n      0x00\n        /* \"backend/contracts/CarbonCreditToken.sol\":11880:11891  owedDueTime */\n      0x09\n        /* \"backend/contracts/CarbonCreditToken.sol\":11880:11900  owedDueTime[company] */\n      0x00\n        /* \"backend/contracts/CarbonCreditToken.sol\":11892:11899  company */\n      dup7\n        /* \"backend/contracts/CarbonCreditToken.sol\":11880:11900  owedDueTime[company] */\n      0xffffffffffffffffffffffffffffffffffffffff\n      and\n      0xffffffffffffffffffffffffffffffffffffffff\n      and\n      dup2\n      mstore\n      0x20\n      add\n      swap1\n      dup2\n      mstore\n      0x20\n      add\n      0x00\n      keccak256\n        /* \"backend/contracts/CarbonCreditToken.sol\":11880:11904  owedDueTime[company] = 0 */\n      dup2\n      swap1\n      sstore\n      pop\n        /* \"backend/contracts/CarbonCreditToken.sol\":11935:11942  company */\n      dup4\n        /* \"backend/contracts/CarbonCreditToken.sol\":11923:11952  OwedSettled(company, owed, 0) */\n      0xffffffffffffffffffffffffffffffffffffffff\n      and\n      0x1657f3f9db7a57a2cbf7c5c76516840b2a7cf3f20bc67edb2cd02f10c56d0a2a\n        /* \"backend/contracts/CarbonCreditToken.sol\":11944:11948  owed */\n      dup5\n        /* \"backend/contracts/CarbonCreditToken.sol\":11950:11951  0 */\n      0x00\n        /* \"backend/contracts/CarbonCreditToken.sol\":11923:11952  OwedSettled(company, owed, 0) */\n      mload(0x40)\n      tag_182\n      swap3\n      swap2\n      swap1\n      tag_183\n      jump\t// in\n    tag_182:\n      mload(0x40)\n      dup1\n      swap2\n      sub\n      swap1\n      log2\n        /* \"backend/contracts/CarbonCreditToken.sol\":11808:12092  if (toBurn >= owed) {... */\n      jump(tag_184)\n    tag_181:\n        /* \"backend/contracts/CarbonCreditToken.sol\":12013:12019  toBurn */\n      dup1\n        /* \"backend/contracts/CarbonCreditToken.sol\":12006:12010  owed */\n      dup4\n        /* \"backend/contracts/CarbonCreditToken.sol\":12006:12019  owed - toBurn */\n      tag_185\n      swap2\n      swap1\n      tag_168\n      jump\t// in\n    tag_185:\n        /* \"backend/contracts/CarbonCreditToken.sol\":11983:11994  owedBalance */\n      0x08\n        /* \"backend/contracts/CarbonCreditToken.sol\":11983:12003  owedBalance[company] */\n      0x00\n        /* \"backend/contracts/CarbonCreditToken.sol\":11995:12002  company */\n      dup7\n        /* \"backend/contracts/CarbonCreditToken.sol\":11983:12003  owedBalance[company] */\n      0xffffffffffffffffffffffffffffffffffffffff\n      and\n      0xffffffffffffffffffffffffffffffffffffffff\n      and\n      dup2\n      mstore\n      0x20\n      add\n      swap1\n      dup2\n      mstore\n      0x20\n      add\n      0x00\n      keccak256\n        /* \"backend/contracts/CarbonCreditToken.sol\":11983:12019  owedBalance[company] = owed - toBurn */\n      dup2\n      swap1\n      sstore\n      pop\n        /* \"backend/contracts/CarbonCreditToken.sol\":12050:12057  company */\n      dup4\n        /* \"backend/contracts/CarbonCreditToken.sol\":12038:12081  OwedSettled(company, toBurn, owed - toBurn) */\n      0xffffffffffffffffffffffffffffffffffffffff\n      and\n      0x1657f3f9db7a57a2cbf7c5c76516840b2a7cf3f20bc67edb2cd02f10c56d0a2a\n        /* \"backend/contracts/CarbonCreditToken.sol\":12059:12065  toBurn */\n      dup3\n        /* \"backend/contracts/CarbonCreditToken.sol\":12074:12080  toBurn */\n      dup4\n        /* \"backend/contracts/CarbonCreditToken.sol\":12067:12071  owed */\n      dup7\n        /* \"backend/contracts/CarbonCreditToken.sol\":12067:12080  owed - toBurn */\n      tag_186\n      swap2\n      swap1\n      tag_168\n      jump\t// in\n    tag_186:\n        /* \"backend/contracts/CarbonCreditToken.sol\":12038:12081  OwedSettled(company, toBurn, owed - toBurn) */\n      mload(0x40)\n      tag_187\n      swap3\n      swap2\n      swap1\n      tag_188\n      jump\t// in\n    tag_187:\n      mload(0x40)\n      dup1\n      swap2\n      sub\n      swap1\n      log2\n        /* \"backend/contracts/CarbonCreditToken.sol\":11808:12092  if (toBurn >= owed) {... */\n    tag_184:\n        /* \"backend/contracts/CarbonCreditToken.sol\":11506:12098  {... */\n      pop\n      pop\n      pop\n      pop\n        /* \"backend/contracts/CarbonCreditToken.sol\":11461:12098  function settleOwed(uint256 amount) external {... */\n      pop\n      jump\t// out\n        /* \"backend/contracts/CarbonCreditToken.sol\":1966:2012  mapping(address => uint256) public owedBalance */\n    tag_75:\n      mstore(0x20, 0x08)\n      dup1\n      0x00\n      mstore\n      keccak256(0x00, 0x40)\n      0x00\n      swap2\n      pop\n      swap1\n      pop\n      sload\n      dup2\n      jump\t// out\n        /* \"backend/contracts/CarbonCreditToken.sol\":4094:4281  function setPenaltyAmount(uint256 amount) external onlyOwner {... */\n    tag_79:\n        /* \"backend/contracts/CarbonCreditToken.sol\":1140:1145  owner */\n      0x05\n      0x00\n      swap1\n      sload\n      swap1\n      0x0100\n      exp\n      swap1\n      div\n      0xffffffffffffffffffffffffffffffffffffffff\n      and\n        /* \"backend/contracts/CarbonCreditToken.sol\":1126:1145  msg.sender == owner */\n      0xffffffffffffffffffffffffffffffffffffffff\n      and\n        /* \"backend/contracts/CarbonCreditToken.sol\":1126:1136  msg.sender */\n      caller\n        /* \"backend/contracts/CarbonCreditToken.sol\":1126:1145  msg.sender == owner */\n      0xffffffffffffffffffffffffffffffffffffffff\n      and\n      eq\n        /* \"backend/contracts/CarbonCreditToken.sol\":1118:1159  require(msg.sender == owner, \"Not owner\") */\n      tag_190\n      jumpi\n      mload(0x40)\n      0x08c379a000000000000000000000000000000000000000000000000000000000\n      dup2\n      mstore\n      0x04\n      add\n      tag_191\n      swap1\n      tag_141\n      jump\t// in\n    tag_191:\n      mload(0x40)\n      dup1\n      swap2\n      sub\n      swap1\n      revert\n    tag_190:\n        /* \"backend/contracts/CarbonCreditToken.sol\":4182:4183  0 */\n      0x00\n        /* \"backend/contracts/CarbonCreditToken.sol\":4173:4179  amount */\n      dup2\n        /* \"backend/contracts/CarbonCreditToken.sol\":4173:4183  amount > 0 */\n      gt\n        /* \"backend/contracts/CarbonCreditToken.sol\":4165:4199  require(amount > 0, \"penalty > 0\") */\n      tag_193\n      jumpi\n      mload(0x40)\n      0x08c379a000000000000000000000000000000000000000000000000000000000\n      dup2\n      mstore\n      0x04\n      add\n      tag_194\n      swap1\n      tag_195\n      jump\t// in\n    tag_194:\n      mload(0x40)\n      dup1\n      swap2\n      sub\n      swap1\n      revert\n    tag_193:\n        /* \"backend/contracts/CarbonCreditToken.sol\":4225:4231  amount */\n      dup1\n        /* \"backend/contracts/CarbonCreditToken.sol\":4209:4222  penaltyAmount */\n      0x0b\n        /* \"backend/contracts/CarbonCreditToken.sol\":4209:4231  penaltyAmount = amount */\n      dup2\n      swap1\n      sstore\n      pop\n        /* \"backend/contracts/CarbonCreditToken.sol\":4246:4274  PenaltyAmountUpdated(amount) */\n      0x9bbd3ee0c0d856b1198cd3966f4f15316ce0e09486f06fb84780b6f85a5ecbe6\n        /* \"backend/contracts/CarbonCreditToken.sol\":4267:4273  amount */\n      dup2\n        /* \"backend/contracts/CarbonCreditToken.sol\":4246:4274  PenaltyAmountUpdated(amount) */\n      mload(0x40)\n      tag_196\n      swap2\n      swap1\n      tag_55\n      jump\t// in\n    tag_196:\n      mload(0x40)\n      dup1\n      swap2\n      sub\n      swap1\n      log1\n        /* \"backend/contracts/CarbonCreditToken.sol\":4094:4281  function setPenaltyAmount(uint256 amount) external onlyOwner {... */\n      pop\n      jump\t// out\n        /* \"backend/contracts/CarbonCreditToken.sol\":664:708  mapping(address => uint256) public balanceOf */\n    tag_82:\n      mstore(0x20, 0x03)\n      dup1\n      0x00\n      mstore\n      keccak256(0x00, 0x40)\n      0x00\n      swap2\n      pop\n      swap1\n      pop\n      sload\n      dup2\n      jump\t// out\n        /* \"backend/contracts/CarbonCreditToken.sol\":1216:1258  ICompanyRegistry public immutable registry */\n    tag_85:\n      immutable(\"0xcdbc23227c72e0a3f4683bdbccfcbed38047ca1a70d48b78c210dc5393029019\")\n      dup2\n      jump\t// out\n        /* \"backend/contracts/CarbonCreditToken.sol\":7003:8876  function submitBatch(... */\n    tag_91:\n        /* \"backend/contracts/CarbonCreditToken.sol\":1140:1145  owner */\n      0x05\n      0x00\n      swap1\n      sload\n      swap1\n      0x0100\n      exp\n      swap1\n      div\n      0xffffffffffffffffffffffffffffffffffffffff\n      and\n        /* \"backend/contracts/CarbonCreditToken.sol\":1126:1145  msg.sender == owner */\n      0xffffffffffffffffffffffffffffffffffffffff\n      and\n        /* \"backend/contracts/CarbonCreditToken.sol\":1126:1136  msg.sender */\n      caller\n        /* \"backend/contracts/CarbonCreditToken.sol\":1126:1145  msg.sender == owner */\n      0xffffffffffffffffffffffffffffffffffffffff\n      and\n      eq\n        /* \"backend/contracts/CarbonCreditToken.sol\":1118:1159  require(msg.sender == owner, \"Not owner\") */\n      tag_198\n      jumpi\n      mload(0x40)\n      0x08c379a000000000000000000000000000000000000000000000000000000000\n      dup2\n      mstore\n      0x04\n      add\n      tag_199\n      swap1\n      tag_141\n      jump\t// in\n    tag_199:\n      mload(0x40)\n      dup1\n      swap2\n      sub\n      swap1\n      revert\n    tag_198:\n        /* \"backend/contracts/CarbonCreditToken.sol\":7235:7251  processedBatches */\n      0x06\n        /* \"backend/contracts/CarbonCreditToken.sol\":7235:7260  processedBatches[batchId] */\n      0x00\n        /* \"backend/contracts/CarbonCreditToken.sol\":7252:7259  batchId */\n      dup3\n        /* \"backend/contracts/CarbonCreditToken.sol\":7235:7260  processedBatches[batchId] */\n      dup2\n      mstore\n      0x20\n      add\n      swap1\n      dup2\n      mstore\n      0x20\n      add\n      0x00\n      keccak256\n      0x00\n      swap1\n      sload\n      swap1\n      0x0100\n      exp\n      swap1\n      div\n      0xff\n      and\n        /* \"backend/contracts/CarbonCreditToken.sol\":7234:7260  !processedBatches[batchId] */\n      iszero\n        /* \"backend/contracts/CarbonCreditToken.sol\":7226:7288  require(!processedBatches[batchId], \"Batch already processed\") */\n      tag_201\n      jumpi\n      mload(0x40)\n      0x08c379a000000000000000000000000000000000000000000000000000000000\n      dup2\n      mstore\n      0x04\n      add\n      tag_202\n      swap1\n      tag_203\n      jump\t// in\n    tag_202:\n      mload(0x40)\n      dup1\n      swap2\n      sub\n      swap1\n      revert\n    tag_201:\n        /* \"backend/contracts/CarbonCreditToken.sol\":7326:7330  true */\n      0x01\n        /* \"backend/contracts/CarbonCreditToken.sol\":7298:7314  processedBatches */\n      0x06\n        /* \"backend/contracts/CarbonCreditToken.sol\":7298:7323  processedBatches[batchId] */\n      0x00\n        /* \"backend/contracts/CarbonCreditToken.sol\":7315:7322  batchId */\n      dup4\n        /* \"backend/contracts/CarbonCreditToken.sol\":7298:7323  processedBatches[batchId] */\n      dup2\n      mstore\n      0x20\n      add\n      swap1\n      dup2\n      mstore\n      0x20\n      add\n      0x00\n      keccak256\n      0x00\n        /* \"backend/contracts/CarbonCreditToken.sol\":7298:7330  processedBatches[batchId] = true */\n      0x0100\n      exp\n      dup2\n      sload\n      dup2\n      0xff\n      mul\n      not\n      and\n      swap1\n      dup4\n      iszero\n      iszero\n      mul\n      or\n      swap1\n      sstore\n      pop\n        /* \"backend/contracts/CarbonCreditToken.sol\":7341:7363  _applyPenalty(company) */\n      tag_204\n        /* \"backend/contracts/CarbonCreditToken.sol\":7355:7362  company */\n      dup7\n        /* \"backend/contracts/CarbonCreditToken.sol\":7341:7354  _applyPenalty */\n      tag_205\n        /* \"backend/contracts/CarbonCreditToken.sol\":7341:7363  _applyPenalty(company) */\n      jump\t// in\n    tag_204:\n        /* \"backend/contracts/CarbonCreditToken.sol\":7374:7387  uint256 capKg */\n      0x00\n        /* \"backend/contracts/CarbonCreditToken.sol\":7390:7398  registry */\n      immutable(\"0xcdbc23227c72e0a3f4683bdbccfcbed38047ca1a70d48b78c210dc5393029019\")\n        /* \"backend/contracts/CarbonCreditToken.sol\":7390:7415  registry.getCapKgByWallet */\n      0xffffffffffffffffffffffffffffffffffffffff\n      and\n      0x0c3dea29\n        /* \"backend/contracts/CarbonCreditToken.sol\":7416:7423  company */\n      dup9\n        /* \"backend/contracts/CarbonCreditToken.sol\":7390:7424  registry.getCapKgByWallet(company) */\n      mload(0x40)\n      dup3\n      0xffffffff\n      and\n      0xe0\n      shl\n      dup2\n      mstore\n      0x04\n      add\n      tag_206\n      swap2\n      swap1\n      tag_100\n      jump\t// in\n    tag_206:\n      0x20\n      mload(0x40)\n      dup1\n      dup4\n      sub\n      dup2\n      dup7\n      gas\n      staticcall\n      iszero\n      dup1\n      iszero\n      tag_208\n      jumpi\n      returndatacopy(0x00, 0x00, returndatasize)\n      revert(0x00, returndatasize)\n    tag_208:\n      pop\n      pop\n      pop\n      pop\n      mload(0x40)\n      returndatasize\n      not(0x1f)\n      0x1f\n      dup3\n      add\n      and\n      dup3\n      add\n      dup1\n      0x40\n      mstore\n      pop\n      dup2\n      add\n      swap1\n      tag_209\n      swap2\n      swap1\n      tag_210\n      jump\t// in\n    tag_209:\n        /* \"backend/contracts/CarbonCreditToken.sol\":7374:7424  uint256 capKg = registry.getCapKgByWallet(company) */\n      swap1\n      pop\n        /* \"backend/contracts/CarbonCreditToken.sol\":7450:7451  0 */\n      0x00\n        /* \"backend/contracts/CarbonCreditToken.sol\":7442:7447  capKg */\n      dup2\n        /* \"backend/contracts/CarbonCreditToken.sol\":7442:7451  capKg > 0 */\n      gt\n        /* \"backend/contracts/CarbonCreditToken.sol\":7434:7467  require(capKg > 0, \"cap missing\") */\n      tag_211\n      jumpi\n      mload(0x40)\n      0x08c379a000000000000000000000000000000000000000000000000000000000\n      dup2\n      mstore\n      0x04\n      add\n      tag_212\n      swap1\n      tag_213\n      jump\t// in\n    tag_212:\n      mload(0x40)\n      dup1\n      swap2\n      sub\n      swap1\n      revert\n    tag_211:\n        /* \"backend/contracts/CarbonCreditToken.sol\":7477:7495  TempBatch memory t */\n      tag_214\n      tag_215\n      jump\t// in\n    tag_214:\n        /* \"backend/contracts/CarbonCreditToken.sol\":7523:7528  capKg */\n      dup2\n        /* \"backend/contracts/CarbonCreditToken.sol\":7510:7520  emissionKg */\n      dup8\n        /* \"backend/contracts/CarbonCreditToken.sol\":7510:7528  emissionKg < capKg */\n      lt\n        /* \"backend/contracts/CarbonCreditToken.sol\":7506:8009  if (emissionKg < capKg) {... */\n      iszero\n      tag_216\n      jumpi\n        /* \"backend/contracts/CarbonCreditToken.sol\":7544:7558  uint256 diffKg */\n      0x00\n        /* \"backend/contracts/CarbonCreditToken.sol\":7569:7579  emissionKg */\n      dup8\n        /* \"backend/contracts/CarbonCreditToken.sol\":7561:7566  capKg */\n      dup4\n        /* \"backend/contracts/CarbonCreditToken.sol\":7561:7579  capKg - emissionKg */\n      tag_217\n      swap2\n      swap1\n      tag_168\n      jump\t// in\n    tag_217:\n        /* \"backend/contracts/CarbonCreditToken.sol\":7544:7579  uint256 diffKg = capKg - emissionKg */\n      swap1\n      pop\n        /* \"backend/contracts/CarbonCreditToken.sol\":7593:7611  uint256 mintTokens */\n      0x00\n        /* \"backend/contracts/CarbonCreditToken.sol\":7623:7627  1000 */\n      0x03e8\n        /* \"backend/contracts/CarbonCreditToken.sol\":7614:7620  diffKg */\n      dup3\n        /* \"backend/contracts/CarbonCreditToken.sol\":7614:7627  diffKg / 1000 */\n      tag_218\n      swap2\n      swap1\n      tag_219\n      jump\t// in\n    tag_218:\n        /* \"backend/contracts/CarbonCreditToken.sol\":7593:7627  uint256 mintTokens = diffKg / 1000 */\n      swap1\n      pop\n        /* \"backend/contracts/CarbonCreditToken.sol\":7679:7680  0 */\n      0x00\n        /* \"backend/contracts/CarbonCreditToken.sol\":7666:7676  mintTokens */\n      dup2\n        /* \"backend/contracts/CarbonCreditToken.sol\":7666:7680  mintTokens > 0 */\n      gt\n        /* \"backend/contracts/CarbonCreditToken.sol\":7662:7753  if (mintTokens > 0) {... */\n      iszero\n      tag_220\n      jumpi\n        /* \"backend/contracts/CarbonCreditToken.sol\":7700:7738  _mintAndSettle(company, mintTokens, t) */\n      tag_221\n        /* \"backend/contracts/CarbonCreditToken.sol\":7715:7722  company */\n      dup11\n        /* \"backend/contracts/CarbonCreditToken.sol\":7724:7734  mintTokens */\n      dup3\n        /* \"backend/contracts/CarbonCreditToken.sol\":7736:7737  t */\n      dup6\n        /* \"backend/contracts/CarbonCreditToken.sol\":7700:7714  _mintAndSettle */\n      tag_222\n        /* \"backend/contracts/CarbonCreditToken.sol\":7700:7738  _mintAndSettle(company, mintTokens, t) */\n      jump\t// in\n    tag_221:\n        /* \"backend/contracts/CarbonCreditToken.sol\":7662:7753  if (mintTokens > 0) {... */\n    tag_220:\n        /* \"backend/contracts/CarbonCreditToken.sol\":7530:7763  {... */\n      pop\n      pop\n        /* \"backend/contracts/CarbonCreditToken.sol\":7506:8009  if (emissionKg < capKg) {... */\n      jump(tag_223)\n    tag_216:\n        /* \"backend/contracts/CarbonCreditToken.sol\":7786:7791  capKg */\n      dup2\n        /* \"backend/contracts/CarbonCreditToken.sol\":7773:7783  emissionKg */\n      dup8\n        /* \"backend/contracts/CarbonCreditToken.sol\":7773:7791  emissionKg > capKg */\n      gt\n        /* \"backend/contracts/CarbonCreditToken.sol\":7769:8009  if (emissionKg > capKg) {... */\n      iszero\n      tag_224\n      jumpi\n        /* \"backend/contracts/CarbonCreditToken.sol\":7807:7823  uint256 exceedKg */\n      0x00\n        /* \"backend/contracts/CarbonCreditToken.sol\":7839:7844  capKg */\n      dup3\n        /* \"backend/contracts/CarbonCreditToken.sol\":7826:7836  emissionKg */\n      dup9\n        /* \"backend/contracts/CarbonCreditToken.sol\":7826:7844  emissionKg - capKg */\n      tag_225\n      swap2\n      swap1\n      tag_168\n      jump\t// in\n    tag_225:\n        /* \"backend/contracts/CarbonCreditToken.sol\":7807:7844  uint256 exceedKg = emissionKg - capKg */\n      swap1\n      pop\n        /* \"backend/contracts/CarbonCreditToken.sol\":7858:7876  uint256 burnTokens */\n      0x00\n        /* \"backend/contracts/CarbonCreditToken.sol\":7890:7894  1000 */\n      0x03e8\n        /* \"backend/contracts/CarbonCreditToken.sol\":7879:7887  exceedKg */\n      dup3\n        /* \"backend/contracts/CarbonCreditToken.sol\":7879:7894  exceedKg / 1000 */\n      tag_226\n      swap2\n      swap1\n      tag_219\n      jump\t// in\n    tag_226:\n        /* \"backend/contracts/CarbonCreditToken.sol\":7858:7894  uint256 burnTokens = exceedKg / 1000 */\n      swap1\n      pop\n        /* \"backend/contracts/CarbonCreditToken.sol\":7925:7926  0 */\n      0x00\n        /* \"backend/contracts/CarbonCreditToken.sol\":7912:7922  burnTokens */\n      dup2\n        /* \"backend/contracts/CarbonCreditToken.sol\":7912:7926  burnTokens > 0 */\n      gt\n        /* \"backend/contracts/CarbonCreditToken.sol\":7908:7999  if (burnTokens > 0) {... */\n      iszero\n      tag_227\n      jumpi\n        /* \"backend/contracts/CarbonCreditToken.sol\":7946:7984  _burnAndAccrue(company, burnTokens, t) */\n      tag_228\n        /* \"backend/contracts/CarbonCreditToken.sol\":7961:7968  company */\n      dup11\n        /* \"backend/contracts/CarbonCreditToken.sol\":7970:7980  burnTokens */\n      dup3\n        /* \"backend/contracts/CarbonCreditToken.sol\":7982:7983  t */\n      dup6\n        /* \"backend/contracts/CarbonCreditToken.sol\":7946:7960  _burnAndAccrue */\n      tag_229\n        /* \"backend/contracts/CarbonCreditToken.sol\":7946:7984  _burnAndAccrue(company, burnTokens, t) */\n      jump\t// in\n    tag_228:\n        /* \"backend/contracts/CarbonCreditToken.sol\":7908:7999  if (burnTokens > 0) {... */\n    tag_227:\n        /* \"backend/contracts/CarbonCreditToken.sol\":7793:8009  {... */\n      pop\n      pop\n        /* \"backend/contracts/CarbonCreditToken.sol\":7769:8009  if (emissionKg > capKg) {... */\n    tag_224:\n        /* \"backend/contracts/CarbonCreditToken.sol\":7506:8009  if (emissionKg < capKg) {... */\n    tag_223:\n        /* \"backend/contracts/CarbonCreditToken.sol\":8043:8058  emissionHistory */\n      0x07\n        /* \"backend/contracts/CarbonCreditToken.sol\":8043:8067  emissionHistory[company] */\n      0x00\n        /* \"backend/contracts/CarbonCreditToken.sol\":8059:8066  company */\n      dup10\n        /* \"backend/contracts/CarbonCreditToken.sol\":8043:8067  emissionHistory[company] */\n      0xffffffffffffffffffffffffffffffffffffffff\n      and\n      0xffffffffffffffffffffffffffffffffffffffff\n      and\n      dup2\n      mstore\n      0x20\n      add\n      swap1\n      dup2\n      mstore\n      0x20\n      add\n      0x00\n      keccak256\n        /* \"backend/contracts/CarbonCreditToken.sol\":8086:8462  EmissionBatch({... */\n      mload(0x40)\n      dup1\n      0x0120\n      add\n      0x40\n      mstore\n      dup1\n        /* \"backend/contracts/CarbonCreditToken.sol\":8129:8143  batchStartTime */\n      dup9\n        /* \"backend/contracts/CarbonCreditToken.sol\":8086:8462  EmissionBatch({... */\n      dup2\n      mstore\n      0x20\n      add\n        /* \"backend/contracts/CarbonCreditToken.sol\":8170:8182  batchEndTime */\n      dup8\n        /* \"backend/contracts/CarbonCreditToken.sol\":8086:8462  EmissionBatch({... */\n      dup2\n      mstore\n      0x20\n      add\n        /* \"backend/contracts/CarbonCreditToken.sol\":8212:8222  emissionKg */\n      dup10\n        /* \"backend/contracts/CarbonCreditToken.sol\":8086:8462  EmissionBatch({... */\n      dup2\n      mstore\n      0x20\n      add\n        /* \"backend/contracts/CarbonCreditToken.sol\":8247:8252  capKg */\n      dup5\n        /* \"backend/contracts/CarbonCreditToken.sol\":8086:8462  EmissionBatch({... */\n      dup2\n      mstore\n      0x20\n      add\n        /* \"backend/contracts/CarbonCreditToken.sol\":8280:8289  batchHash */\n      dup7\n        /* \"backend/contracts/CarbonCreditToken.sol\":8086:8462  EmissionBatch({... */\n      dup2\n      mstore\n      0x20\n      add\n        /* \"backend/contracts/CarbonCreditToken.sol\":8320:8321  t */\n      dup4\n        /* \"backend/contracts/CarbonCreditToken.sol\":8320:8333  t.tokenChange */\n      0x00\n      add\n      mload\n        /* \"backend/contracts/CarbonCreditToken.sol\":8086:8462  EmissionBatch({... */\n      dup2\n      mstore\n      0x20\n      add\n        /* \"backend/contracts/CarbonCreditToken.sol\":8365:8366  t */\n      dup4\n        /* \"backend/contracts/CarbonCreditToken.sol\":8365:8373  t.minted */\n      0x20\n      add\n      mload\n        /* \"backend/contracts/CarbonCreditToken.sol\":8086:8462  EmissionBatch({... */\n      dup2\n      mstore\n      0x20\n      add\n        /* \"backend/contracts/CarbonCreditToken.sol\":8405:8406  t */\n      dup4\n        /* \"backend/contracts/CarbonCreditToken.sol\":8405:8413  t.burned */\n      0x40\n      add\n      mload\n        /* \"backend/contracts/CarbonCreditToken.sol\":8086:8462  EmissionBatch({... */\n      dup2\n      mstore\n      0x20\n      add\n        /* \"backend/contracts/CarbonCreditToken.sol\":8440:8447  batchId */\n      dup6\n        /* \"backend/contracts/CarbonCreditToken.sol\":8086:8462  EmissionBatch({... */\n      dup2\n      mstore\n      pop\n        /* \"backend/contracts/CarbonCreditToken.sol\":8043:8472  emissionHistory[company].push(... */\n      swap1\n      dup1\n      0x01\n      dup2\n      sload\n      add\n      dup1\n      dup3\n      sstore\n      dup1\n      swap2\n      pop\n      pop\n      0x01\n      swap1\n      sub\n      swap1\n      0x00\n      mstore\n      keccak256(0x00, 0x20)\n      swap1\n      0x09\n      mul\n      add\n      0x00\n      swap1\n      swap2\n      swap1\n      swap2\n      swap1\n      swap2\n      pop\n      0x00\n      dup3\n      add\n      mload\n      dup2\n      0x00\n      add\n      sstore\n      0x20\n      dup3\n      add\n      mload\n      dup2\n      0x01\n      add\n      sstore\n      0x40\n      dup3\n      add\n      mload\n      dup2\n      0x02\n      add\n      sstore\n      0x60\n      dup3\n      add\n      mload\n      dup2\n      0x03\n      add\n      sstore\n      0x80\n      dup3\n      add\n      mload\n      dup2\n      0x04\n      add\n      sstore\n      0xa0\n      dup3\n      add\n      mload\n      dup2\n      0x05\n      add\n      sstore\n      0xc0\n      dup3\n      add\n      mload\n      dup2\n      0x06\n      add\n      sstore\n      0xe0\n      dup3\n      add\n      mload\n      dup2\n      0x07\n      add\n      sstore\n      0x0100\n      dup3\n      add\n      mload\n      dup2\n      0x08\n      add\n      sstore\n      pop\n      pop\n        /* \"backend/contracts/CarbonCreditToken.sol\":8515:8522  company */\n      dup8\n        /* \"backend/contracts/CarbonCreditToken.sol\":8488:8744  BatchRecorded(... */\n      0xffffffffffffffffffffffffffffffffffffffff\n      and\n      0xccc62654ecd4111e8b4bedba3b24e6ea465563d9ac5b90500e2ba4c7a927479e\n        /* \"backend/contracts/CarbonCreditToken.sol\":8536:8545  batchHash */\n      dup6\n        /* \"backend/contracts/CarbonCreditToken.sol\":8559:8566  batchId */\n      dup6\n        /* \"backend/contracts/CarbonCreditToken.sol\":8580:8594  batchStartTime */\n      dup10\n        /* \"backend/contracts/CarbonCreditToken.sol\":8608:8620  batchEndTime */\n      dup10\n        /* \"backend/contracts/CarbonCreditToken.sol\":8634:8644  emissionKg */\n      dup13\n        /* \"backend/contracts/CarbonCreditToken.sol\":8658:8663  capKg */\n      dup9\n        /* \"backend/contracts/CarbonCreditToken.sol\":8677:8678  t */\n      dup9\n        /* \"backend/contracts/CarbonCreditToken.sol\":8677:8685  t.minted */\n      0x20\n      add\n      mload\n        /* \"backend/contracts/CarbonCreditToken.sol\":8699:8700  t */\n      dup10\n        /* \"backend/contracts/CarbonCreditToken.sol\":8699:8707  t.burned */\n      0x40\n      add\n      mload\n        /* \"backend/contracts/CarbonCreditToken.sol\":8721:8722  t */\n      dup11\n        /* \"backend/contracts/CarbonCreditToken.sol\":8721:8734  t.tokenChange */\n      0x00\n      add\n      mload\n        /* \"backend/contracts/CarbonCreditToken.sol\":8488:8744  BatchRecorded(... */\n      mload(0x40)\n      tag_231\n      swap10\n      swap9\n      swap8\n      swap7\n      swap6\n      swap5\n      swap4\n      swap3\n      swap2\n      swap1\n      tag_232\n      jump\t// in\n    tag_231:\n      mload(0x40)\n      dup1\n      swap2\n      sub\n      swap1\n      log2\n        /* \"backend/contracts/CarbonCreditToken.sol\":8774:8775  0 */\n      0x00\n        /* \"backend/contracts/CarbonCreditToken.sol\":8759:8760  t */\n      dup2\n        /* \"backend/contracts/CarbonCreditToken.sol\":8759:8771  t.owedTokens */\n      0x60\n      add\n      mload\n        /* \"backend/contracts/CarbonCreditToken.sol\":8759:8775  t.owedTokens > 0 */\n      gt\n        /* \"backend/contracts/CarbonCreditToken.sol\":8755:8870  if (t.owedTokens > 0) {... */\n      iszero\n      tag_233\n      jumpi\n        /* \"backend/contracts/CarbonCreditToken.sol\":8806:8813  company */\n      dup8\n        /* \"backend/contracts/CarbonCreditToken.sol\":8796:8859  BatchOwed(company, batchId, t.owedTokens, owedDueTime[company]) */\n      0xffffffffffffffffffffffffffffffffffffffff\n      and\n      0xc9da27416a8aae22f0acc7d91833546eb5085a44ed6c817ac307403ca7547771\n        /* \"backend/contracts/CarbonCreditToken.sol\":8815:8822  batchId */\n      dup5\n        /* \"backend/contracts/CarbonCreditToken.sol\":8824:8825  t */\n      dup4\n        /* \"backend/contracts/CarbonCreditToken.sol\":8824:8836  t.owedTokens */\n      0x60\n      add\n      mload\n        /* \"backend/contracts/CarbonCreditToken.sol\":8838:8849  owedDueTime */\n      0x09\n        /* \"backend/contracts/CarbonCreditToken.sol\":8838:8858  owedDueTime[company] */\n      0x00\n        /* \"backend/contracts/CarbonCreditToken.sol\":8850:8857  company */\n      dup14\n        /* \"backend/contracts/CarbonCreditToken.sol\":8838:8858  owedDueTime[company] */\n      0xffffffffffffffffffffffffffffffffffffffff\n      and\n      0xffffffffffffffffffffffffffffffffffffffff\n      and\n      dup2\n      mstore\n      0x20\n      add\n      swap1\n      dup2\n      mstore\n      0x20\n      add\n      0x00\n      keccak256\n      sload\n        /* \"backend/contracts/CarbonCreditToken.sol\":8796:8859  BatchOwed(company, batchId, t.owedTokens, owedDueTime[company]) */\n      mload(0x40)\n      tag_234\n      swap4\n      swap3\n      swap2\n      swap1\n      tag_235\n      jump\t// in\n    tag_234:\n      mload(0x40)\n      dup1\n      swap2\n      sub\n      swap1\n      log2\n        /* \"backend/contracts/CarbonCreditToken.sol\":8755:8870  if (t.owedTokens > 0) {... */\n    tag_233:\n        /* \"backend/contracts/CarbonCreditToken.sol\":7216:8876  {... */\n      pop\n      pop\n        /* \"backend/contracts/CarbonCreditToken.sol\":7003:8876  function submitBatch(... */\n      pop\n      pop\n      pop\n      pop\n      pop\n      pop\n      jump\t// out\n        /* \"backend/contracts/CarbonCreditToken.sol\":1304:1352  mapping(bytes32 => bool) public processedBatches */\n    tag_95:\n      mstore(0x20, 0x06)\n      dup1\n      0x00\n      mstore\n      keccak256(0x00, 0x40)\n      0x00\n      swap2\n      pop\n      sload\n      swap1\n      0x0100\n      exp\n      swap1\n      div\n      0xff\n      and\n      dup2\n      jump\t// out\n        /* \"backend/contracts/CarbonCreditToken.sol\":971:991  address public owner */\n    tag_98:\n      0x05\n      0x00\n      swap1\n      sload\n      swap1\n      0x0100\n      exp\n      swap1\n      div\n      0xffffffffffffffffffffffffffffffffffffffff\n      and\n      dup2\n      jump\t// out\n        /* \"backend/contracts/CarbonCreditToken.sol\":557:585  string public symbol = \"CCT\" */\n    tag_102:\n      0x01\n      dup1\n      sload\n      tag_236\n      swap1\n      tag_153\n      jump\t// in\n    tag_236:\n      dup1\n      0x1f\n      add\n      0x20\n      dup1\n      swap2\n      div\n      mul\n      0x20\n      add\n      mload(0x40)\n      swap1\n      dup2\n      add\n      0x40\n      mstore\n      dup1\n      swap3\n      swap2\n      swap1\n      dup2\n      dup2\n      mstore\n      0x20\n      add\n      dup3\n      dup1\n      sload\n      tag_237\n      swap1\n      tag_153\n      jump\t// in\n    tag_237:\n      dup1\n      iszero\n      tag_238\n      jumpi\n      dup1\n      0x1f\n      lt\n      tag_239\n      jumpi\n      0x0100\n      dup1\n      dup4\n      sload\n      div\n      mul\n      dup4\n      mstore\n      swap2\n      0x20\n      add\n      swap2\n      jump(tag_238)\n    tag_239:\n      dup3\n      add\n      swap2\n      swap1\n      0x00\n      mstore\n      keccak256(0x00, 0x20)\n      swap1\n    tag_240:\n      dup2\n      sload\n      dup2\n      mstore\n      swap1\n      0x01\n      add\n      swap1\n      0x20\n      add\n      dup1\n      dup4\n      gt\n      tag_240\n      jumpi\n      dup3\n      swap1\n      sub\n      0x1f\n      and\n      dup3\n      add\n      swap2\n    tag_238:\n      pop\n      pop\n      pop\n      pop\n      pop\n      dup2\n      jump\t// out\n        /* \"backend/contracts/CarbonCreditToken.sol\":2056:2102  mapping(address => uint256) public owedDueTime */\n    tag_106:\n      mstore(0x20, 0x09)\n      dup1\n      0x00\n      mstore\n      keccak256(0x00, 0x40)\n      0x00\n      swap2\n      pop\n      swap1\n      pop\n      sload\n      dup2\n      jump\t// out\n        /* \"backend/contracts/CarbonCreditToken.sol\":5328:5469  function transfer(address to, uint256 amount) external returns (bool) {... */\n    tag_110:\n        /* \"backend/contracts/CarbonCreditToken.sol\":5392:5396  bool */\n      0x00\n        /* \"backend/contracts/CarbonCreditToken.sol\":5408:5441  _transfer(msg.sender, to, amount) */\n      tag_242\n        /* \"backend/contracts/CarbonCreditToken.sol\":5418:5428  msg.sender */\n      caller\n        /* \"backend/contracts/CarbonCreditToken.sol\":5430:5432  to */\n      dup5\n        /* \"backend/contracts/CarbonCreditToken.sol\":5434:5440  amount */\n      dup5\n        /* \"backend/contracts/CarbonCreditToken.sol\":5408:5417  _transfer */\n      tag_170\n        /* \"backend/contracts/CarbonCreditToken.sol\":5408:5441  _transfer(msg.sender, to, amount) */\n      jump\t// in\n    tag_242:\n        /* \"backend/contracts/CarbonCreditToken.sol\":5458:5462  true */\n      0x01\n        /* \"backend/contracts/CarbonCreditToken.sol\":5451:5462  return true */\n      swap1\n      pop\n        /* \"backend/contracts/CarbonCreditToken.sol\":5328:5469  function transfer(address to, uint256 amount) external returns (bool) {... */\n      swap3\n      swap2\n      pop\n      pop\n      jump\t// out\n        /* \"backend/contracts/CarbonCreditToken.sol\":714:778  mapping(address => mapping(address => uint256)) public allowance */\n    tag_115:\n      mstore(0x20, 0x04)\n      dup2\n      0x00\n      mstore\n      mstore(0x20, keccak256(0x00, 0x40))\n      dup1\n      0x00\n      mstore\n      keccak256(0x00, 0x40)\n      0x00\n      swap2\n      pop\n      swap2\n      pop\n      pop\n      sload\n      dup2\n      jump\t// out\n        /* \"backend/contracts/CarbonCreditToken.sol\":4366:4589  function adminMint(address to, uint256 amount) external onlyOwner {... */\n    tag_119:\n        /* \"backend/contracts/CarbonCreditToken.sol\":1140:1145  owner */\n      0x05\n      0x00\n      swap1\n      sload\n      swap1\n      0x0100\n      exp\n      swap1\n      div\n      0xffffffffffffffffffffffffffffffffffffffff\n      and\n        /* \"backend/contracts/CarbonCreditToken.sol\":1126:1145  msg.sender == owner */\n      0xffffffffffffffffffffffffffffffffffffffff\n      and\n        /* \"backend/contracts/CarbonCreditToken.sol\":1126:1136  msg.sender */\n      caller\n        /* \"backend/contracts/CarbonCreditToken.sol\":1126:1145  msg.sender == owner */\n      0xffffffffffffffffffffffffffffffffffffffff\n      and\n      eq\n        /* \"backend/contracts/CarbonCreditToken.sol\":1118:1159  require(msg.sender == owner, \"Not owner\") */\n      tag_244\n      jumpi\n      mload(0x40)\n      0x08c379a000000000000000000000000000000000000000000000000000000000\n      dup2\n      mstore\n      0x04\n      add\n      tag_245\n      swap1\n      tag_141\n      jump\t// in\n    tag_245:\n      mload(0x40)\n      dup1\n      swap2\n      sub\n      swap1\n      revert\n    tag_244:\n        /* \"backend/contracts/CarbonCreditToken.sol\":4464:4465  0 */\n      0x00\n        /* \"backend/contracts/CarbonCreditToken.sol\":4450:4466  to != address(0) */\n      0xffffffffffffffffffffffffffffffffffffffff\n      and\n        /* \"backend/contracts/CarbonCreditToken.sol\":4450:4452  to */\n      dup3\n        /* \"backend/contracts/CarbonCreditToken.sol\":4450:4466  to != address(0) */\n      0xffffffffffffffffffffffffffffffffffffffff\n      and\n      sub\n        /* \"backend/contracts/CarbonCreditToken.sol\":4442:4478  require(to != address(0), \"Zero to\") */\n      tag_247\n      jumpi\n      mload(0x40)\n      0x08c379a000000000000000000000000000000000000000000000000000000000\n      dup2\n      mstore\n      0x04\n      add\n      tag_248\n      swap1\n      tag_249\n      jump\t// in\n    tag_248:\n      mload(0x40)\n      dup1\n      swap2\n      sub\n      swap1\n      revert\n    tag_247:\n        /* \"backend/contracts/CarbonCreditToken.sol\":4505:4506  0 */\n      0x00\n        /* \"backend/contracts/CarbonCreditToken.sol\":4496:4502  amount */\n      dup2\n        /* \"backend/contracts/CarbonCreditToken.sol\":4496:4506  amount > 0 */\n      gt\n        /* \"backend/contracts/CarbonCreditToken.sol\":4488:4519  require(amount > 0, \"amount=0\") */\n      tag_250\n      jumpi\n      mload(0x40)\n      0x08c379a000000000000000000000000000000000000000000000000000000000\n      dup2\n      mstore\n      0x04\n      add\n      tag_251\n      swap1\n      tag_148\n      jump\t// in\n    tag_251:\n      mload(0x40)\n      dup1\n      swap2\n      sub\n      swap1\n      revert\n    tag_250:\n        /* \"backend/contracts/CarbonCreditToken.sol\":4529:4546  _mint(to, amount) */\n      tag_252\n        /* \"backend/contracts/CarbonCreditToken.sol\":4535:4537  to */\n      dup3\n        /* \"backend/contracts/CarbonCreditToken.sol\":4539:4545  amount */\n      dup3\n        /* \"backend/contracts/CarbonCreditToken.sol\":4529:4534  _mint */\n      tag_253\n        /* \"backend/contracts/CarbonCreditToken.sol\":4529:4546  _mint(to, amount) */\n      jump\t// in\n    tag_252:\n        /* \"backend/contracts/CarbonCreditToken.sol\":4571:4573  to */\n      dup2\n        /* \"backend/contracts/CarbonCreditToken.sol\":4561:4582  AdminMint(to, amount) */\n      0xffffffffffffffffffffffffffffffffffffffff\n      and\n      0x90363c347ac279caf3ee0f1a07c9c17f19f56b1e394697a1d23b056c2c5bb36b\n        /* \"backend/contracts/CarbonCreditToken.sol\":4575:4581  amount */\n      dup3\n        /* \"backend/contracts/CarbonCreditToken.sol\":4561:4582  AdminMint(to, amount) */\n      mload(0x40)\n      tag_254\n      swap2\n      swap1\n      tag_55\n      jump\t// in\n    tag_254:\n      mload(0x40)\n      dup1\n      swap2\n      sub\n      swap1\n      log2\n        /* \"backend/contracts/CarbonCreditToken.sol\":4366:4589  function adminMint(address to, uint256 amount) external onlyOwner {... */\n      pop\n      pop\n      jump\t// out\n        /* \"backend/contracts/CarbonCreditToken.sol\":12132:12267  function emissionHistoryLength(address company) external view returns (uint256) {... */\n    tag_122:\n        /* \"backend/contracts/CarbonCreditToken.sol\":12203:12210  uint256 */\n      0x00\n        /* \"backend/contracts/CarbonCreditToken.sol\":12229:12244  emissionHistory */\n      0x07\n        /* \"backend/contracts/CarbonCreditToken.sol\":12229:12253  emissionHistory[company] */\n      0x00\n        /* \"backend/contracts/CarbonCreditToken.sol\":12245:12252  company */\n      dup4\n        /* \"backend/contracts/CarbonCreditToken.sol\":12229:12253  emissionHistory[company] */\n      0xffffffffffffffffffffffffffffffffffffffff\n      and\n      0xffffffffffffffffffffffffffffffffffffffff\n      and\n      dup2\n      mstore\n      0x20\n      add\n      swap1\n      dup2\n      mstore\n      0x20\n      add\n      0x00\n      keccak256\n        /* \"backend/contracts/CarbonCreditToken.sol\":12229:12260  emissionHistory[company].length */\n      dup1\n      sload\n      swap1\n      pop\n        /* \"backend/contracts/CarbonCreditToken.sol\":12222:12260  return emissionHistory[company].length */\n      swap1\n      pop\n        /* \"backend/contracts/CarbonCreditToken.sol\":12132:12267  function emissionHistoryLength(address company) external view returns (uint256) {... */\n      swap2\n      swap1\n      pop\n      jump\t// out\n        /* \"backend/contracts/CarbonCreditToken.sol\":12273:12512  function getEmissionBatch(address company, uint256 index) external view returns (EmissionBatch memory) {... */\n    tag_126:\n        /* \"backend/contracts/CarbonCreditToken.sol\":12354:12374  EmissionBatch memory */\n      tag_256\n      tag_257\n      jump\t// in\n    tag_256:\n        /* \"backend/contracts/CarbonCreditToken.sol\":12402:12417  emissionHistory */\n      0x07\n        /* \"backend/contracts/CarbonCreditToken.sol\":12402:12426  emissionHistory[company] */\n      0x00\n        /* \"backend/contracts/CarbonCreditToken.sol\":12418:12425  company */\n      dup5\n        /* \"backend/contracts/CarbonCreditToken.sol\":12402:12426  emissionHistory[company] */\n      0xffffffffffffffffffffffffffffffffffffffff\n      and\n      0xffffffffffffffffffffffffffffffffffffffff\n      and\n      dup2\n      mstore\n      0x20\n      add\n      swap1\n      dup2\n      mstore\n      0x20\n      add\n      0x00\n      keccak256\n        /* \"backend/contracts/CarbonCreditToken.sol\":12402:12433  emissionHistory[company].length */\n      dup1\n      sload\n      swap1\n      pop\n        /* \"backend/contracts/CarbonCreditToken.sol\":12394:12399  index */\n      dup3\n        /* \"backend/contracts/CarbonCreditToken.sol\":12394:12433  index < emissionHistory[company].length */\n      lt\n        /* \"backend/contracts/CarbonCreditToken.sol\":12386:12457  require(index < emissionHistory[company].length, \"index out of bounds\") */\n      tag_259\n      jumpi\n      mload(0x40)\n      0x08c379a000000000000000000000000000000000000000000000000000000000\n      dup2\n      mstore\n      0x04\n      add\n      tag_260\n      swap1\n      tag_261\n      jump\t// in\n    tag_260:\n      mload(0x40)\n      dup1\n      swap2\n      sub\n      swap1\n      revert\n    tag_259:\n        /* \"backend/contracts/CarbonCreditToken.sol\":12474:12489  emissionHistory */\n      0x07\n        /* \"backend/contracts/CarbonCreditToken.sol\":12474:12498  emissionHistory[company] */\n      0x00\n        /* \"backend/contracts/CarbonCreditToken.sol\":12490:12497  company */\n      dup5\n        /* \"backend/contracts/CarbonCreditToken.sol\":12474:12498  emissionHistory[company] */\n      0xffffffffffffffffffffffffffffffffffffffff\n      and\n      0xffffffffffffffffffffffffffffffffffffffff\n      and\n      dup2\n      mstore\n      0x20\n      add\n      swap1\n      dup2\n      mstore\n      0x20\n      add\n      0x00\n      keccak256\n        /* \"backend/contracts/CarbonCreditToken.sol\":12499:12504  index */\n      dup3\n        /* \"backend/contracts/CarbonCreditToken.sol\":12474:12505  emissionHistory[company][index] */\n      dup2\n      sload\n      dup2\n      lt\n      tag_262\n      jumpi\n      tag_263\n      tag_264\n      jump\t// in\n    tag_263:\n    tag_262:\n      swap1\n      0x00\n      mstore\n      keccak256(0x00, 0x20)\n      swap1\n      0x09\n      mul\n      add\n        /* \"backend/contracts/CarbonCreditToken.sol\":12467:12505  return emissionHistory[company][index] */\n      mload(0x40)\n      dup1\n      0x0120\n      add\n      0x40\n      mstore\n      swap1\n      dup2\n      0x00\n      dup3\n      add\n      sload\n      dup2\n      mstore\n      0x20\n      add\n      0x01\n      dup3\n      add\n      sload\n      dup2\n      mstore\n      0x20\n      add\n      0x02\n      dup3\n      add\n      sload\n      dup2\n      mstore\n      0x20\n      add\n      0x03\n      dup3\n      add\n      sload\n      dup2\n      mstore\n      0x20\n      add\n      0x04\n      dup3\n      add\n      sload\n      dup2\n      mstore\n      0x20\n      add\n      0x05\n      dup3\n      add\n      sload\n      dup2\n      mstore\n      0x20\n      add\n      0x06\n      dup3\n      add\n      sload\n      dup2\n      mstore\n      0x20\n      add\n      0x07\n      dup3\n      add\n      sload\n      dup2\n      mstore\n      0x20\n      add\n      0x08\n      dup3\n      add\n      sload\n      dup2\n      mstore\n      pop\n      pop\n      swap1\n      pop\n        /* \"backend/contracts/CarbonCreditToken.sol\":12273:12512  function getEmissionBatch(address company, uint256 index) external view returns (EmissionBatch memory) {... */\n      swap3\n      swap2\n      pop\n      pop\n      jump\t// out\n        /* \"backend/contracts/CarbonCreditToken.sol\":2203:2235  uint256 public penaltyAmount = 3 */\n    tag_130:\n      sload(0x0b)\n      dup2\n      jump\t// out\n        /* \"backend/contracts/CarbonCreditToken.sol\":3898:4088  function setGracePeriod(uint256 seconds_) external onlyOwner {... */\n    tag_134:\n        /* \"backend/contracts/CarbonCreditToken.sol\":1140:1145  owner */\n      0x05\n      0x00\n      swap1\n      sload\n      swap1\n      0x0100\n      exp\n      swap1\n      div\n      0xffffffffffffffffffffffffffffffffffffffff\n      and\n        /* \"backend/contracts/CarbonCreditToken.sol\":1126:1145  msg.sender == owner */\n      0xffffffffffffffffffffffffffffffffffffffff\n      and\n        /* \"backend/contracts/CarbonCreditToken.sol\":1126:1136  msg.sender */\n      caller\n        /* \"backend/contracts/CarbonCreditToken.sol\":1126:1145  msg.sender == owner */\n      0xffffffffffffffffffffffffffffffffffffffff\n      and\n      eq\n        /* \"backend/contracts/CarbonCreditToken.sol\":1118:1159  require(msg.sender == owner, \"Not owner\") */\n      tag_267\n      jumpi\n      mload(0x40)\n      0x08c379a000000000000000000000000000000000000000000000000000000000\n      dup2\n      mstore\n      0x04\n      add\n      tag_268\n      swap1\n      tag_141\n      jump\t// in\n    tag_268:\n      mload(0x40)\n      dup1\n      swap2\n      sub\n      swap1\n      revert\n    tag_267:\n        /* \"backend/contracts/CarbonCreditToken.sol\":3988:3989  0 */\n      0x00\n        /* \"backend/contracts/CarbonCreditToken.sol\":3977:3985  seconds_ */\n      dup2\n        /* \"backend/contracts/CarbonCreditToken.sol\":3977:3989  seconds_ > 0 */\n      gt\n        /* \"backend/contracts/CarbonCreditToken.sol\":3969:4003  require(seconds_ > 0, \"grace > 0\") */\n      tag_270\n      jumpi\n      mload(0x40)\n      0x08c379a000000000000000000000000000000000000000000000000000000000\n      dup2\n      mstore\n      0x04\n      add\n      tag_271\n      swap1\n      tag_272\n      jump\t// in\n    tag_271:\n      mload(0x40)\n      dup1\n      swap2\n      sub\n      swap1\n      revert\n    tag_270:\n        /* \"backend/contracts/CarbonCreditToken.sol\":4030:4038  seconds_ */\n      dup1\n        /* \"backend/contracts/CarbonCreditToken.sol\":4013:4027  gracePeriodSec */\n      0x0a\n        /* \"backend/contracts/CarbonCreditToken.sol\":4013:4038  gracePeriodSec = seconds_ */\n      dup2\n      swap1\n      sstore\n      pop\n        /* \"backend/contracts/CarbonCreditToken.sol\":4053:4081  GracePeriodUpdated(seconds_) */\n      0x33d1191f5a3abfe19d468d51bb5ece97489f1277a912a5b5c65992fc279ad3d4\n        /* \"backend/contracts/CarbonCreditToken.sol\":4072:4080  seconds_ */\n      dup2\n        /* \"backend/contracts/CarbonCreditToken.sol\":4053:4081  GracePeriodUpdated(seconds_) */\n      mload(0x40)\n      tag_273\n      swap2\n      swap1\n      tag_55\n      jump\t// in\n    tag_273:\n      mload(0x40)\n      dup1\n      swap2\n      sub\n      swap1\n      log1\n        /* \"backend/contracts/CarbonCreditToken.sol\":3898:4088  function setGracePeriod(uint256 seconds_) external onlyOwner {... */\n      pop\n      jump\t// out\n        /* \"backend/contracts/CarbonCreditToken.sol\":3688:3892  function transferOwnership(address newOwner) external onlyOwner {... */\n    tag_137:\n        /* \"backend/contracts/CarbonCreditToken.sol\":1140:1145  owner */\n      0x05\n      0x00\n      swap1\n      sload\n      swap1\n      0x0100\n      exp\n      swap1\n      div\n      0xffffffffffffffffffffffffffffffffffffffff\n      and\n        /* \"backend/contracts/CarbonCreditToken.sol\":1126:1145  msg.sender == owner */\n      0xffffffffffffffffffffffffffffffffffffffff\n      and\n        /* \"backend/contracts/CarbonCreditToken.sol\":1126:1136  msg.sender */\n      caller\n        /* \"backend/contracts/CarbonCreditToken.sol\":1126:1145  msg.sender == owner */\n      0xffffffffffffffffffffffffffffffffffffffff\n      and\n      eq\n        /* \"backend/contracts/CarbonCreditToken.sol\":1118:1159  require(msg.sender == owner, \"Not owner\") */\n      tag_275\n      jumpi\n      mload(0x40)\n      0x08c379a000000000000000000000000000000000000000000000000000000000\n      dup2\n      mstore\n      0x04\n      add\n      tag_276\n      swap1\n      tag_141\n      jump\t// in\n    tag_276:\n      mload(0x40)\n      dup1\n      swap2\n      sub\n      swap1\n      revert\n    tag_275:\n        /* \"backend/contracts/CarbonCreditToken.sol\":3790:3791  0 */\n      0x00\n        /* \"backend/contracts/CarbonCreditToken.sol\":3770:3792  newOwner != address(0) */\n      0xffffffffffffffffffffffffffffffffffffffff\n      and\n        /* \"backend/contracts/CarbonCreditToken.sol\":3770:3778  newOwner */\n      dup2\n        /* \"backend/contracts/CarbonCreditToken.sol\":3770:3792  newOwner != address(0) */\n      0xffffffffffffffffffffffffffffffffffffffff\n      and\n      sub\n        /* \"backend/contracts/CarbonCreditToken.sol\":3762:3807  require(newOwner != address(0), \"Zero owner\") */\n      tag_278\n      jumpi\n      mload(0x40)\n      0x08c379a000000000000000000000000000000000000000000000000000000000\n      dup2\n      mstore\n      0x04\n      add\n      tag_279\n      swap1\n      tag_280\n      jump\t// in\n    tag_279:\n      mload(0x40)\n      dup1\n      swap2\n      sub\n      swap1\n      revert\n    tag_278:\n        /* \"backend/contracts/CarbonCreditToken.sol\":3850:3858  newOwner */\n      dup1\n        /* \"backend/contracts/CarbonCreditToken.sol\":3822:3859  OwnershipTransferred(owner, newOwner) */\n      0xffffffffffffffffffffffffffffffffffffffff\n      and\n        /* \"backend/contracts/CarbonCreditToken.sol\":3843:3848  owner */\n      0x05\n      0x00\n      swap1\n      sload\n      swap1\n      0x0100\n      exp\n      swap1\n      div\n      0xffffffffffffffffffffffffffffffffffffffff\n      and\n        /* \"backend/contracts/CarbonCreditToken.sol\":3822:3859  OwnershipTransferred(owner, newOwner) */\n      0xffffffffffffffffffffffffffffffffffffffff\n      and\n      0x8be0079c531659141344cd1fd0a4f28419497f9722a3daafe3b4186f6b6457e0\n      mload(0x40)\n      mload(0x40)\n      dup1\n      swap2\n      sub\n      swap1\n      log3\n        /* \"backend/contracts/CarbonCreditToken.sol\":3877:3885  newOwner */\n      dup1\n        /* \"backend/contracts/CarbonCreditToken.sol\":3869:3874  owner */\n      0x05\n      0x00\n        /* \"backend/contracts/CarbonCreditToken.sol\":3869:3885  owner = newOwner */\n      0x0100\n      exp\n      dup2\n      sload\n      dup2\n      0xffffffffffffffffffffffffffffffffffffffff\n      mul\n      not\n      and\n      swap1\n      dup4\n      0xffffffffffffffffffffffffffffffffffffffff\n      and\n      mul\n      or\n      swap1\n      sstore\n      pop\n        /* \"backend/contracts/CarbonCreditToken.sol\":3688:3892  function transferOwnership(address newOwner) external onlyOwner {... */\n      pop\n      jump\t// out\n        /* \"backend/contracts/CarbonCreditToken.sol\":6291:6605  function _burn(address from, uint256 amount) internal {... */\n    tag_150:\n        /* \"backend/contracts/CarbonCreditToken.sol\":6355:6366  uint256 bal */\n      0x00\n        /* \"backend/contracts/CarbonCreditToken.sol\":6369:6378  balanceOf */\n      0x03\n        /* \"backend/contracts/CarbonCreditToken.sol\":6369:6384  balanceOf[from] */\n      0x00\n        /* \"backend/contracts/CarbonCreditToken.sol\":6379:6383  from */\n      dup5\n        /* \"backend/contracts/CarbonCreditToken.sol\":6369:6384  balanceOf[from] */\n      0xffffffffffffffffffffffffffffffffffffffff\n      and\n      0xffffffffffffffffffffffffffffffffffffffff\n      and\n      dup2\n      mstore\n      0x20\n      add\n      swap1\n      dup2\n      mstore\n      0x20\n      add\n      0x00\n      keccak256\n      sload\n        /* \"backend/contracts/CarbonCreditToken.sol\":6355:6384  uint256 bal = balanceOf[from] */\n      swap1\n      pop\n        /* \"backend/contracts/CarbonCreditToken.sol\":6409:6415  amount */\n      dup2\n        /* \"backend/contracts/CarbonCreditToken.sol\":6402:6405  bal */\n      dup2\n        /* \"backend/contracts/CarbonCreditToken.sol\":6402:6415  bal >= amount */\n      lt\n      iszero\n        /* \"backend/contracts/CarbonCreditToken.sol\":6394:6440  require(bal >= amount, \"Burn exceeds balance\") */\n      tag_282\n      jumpi\n      mload(0x40)\n      0x08c379a000000000000000000000000000000000000000000000000000000000\n      dup2\n      mstore\n      0x04\n      add\n      tag_283\n      swap1\n      tag_284\n      jump\t// in\n    tag_283:\n      mload(0x40)\n      dup1\n      swap2\n      sub\n      swap1\n      revert\n    tag_282:\n        /* \"backend/contracts/CarbonCreditToken.sol\":6498:6504  amount */\n      dup2\n        /* \"backend/contracts/CarbonCreditToken.sol\":6492:6495  bal */\n      dup2\n        /* \"backend/contracts/CarbonCreditToken.sol\":6492:6504  bal - amount */\n      sub\n        /* \"backend/contracts/CarbonCreditToken.sol\":6474:6483  balanceOf */\n      0x03\n        /* \"backend/contracts/CarbonCreditToken.sol\":6474:6489  balanceOf[from] */\n      0x00\n        /* \"backend/contracts/CarbonCreditToken.sol\":6484:6488  from */\n      dup6\n        /* \"backend/contracts/CarbonCreditToken.sol\":6474:6489  balanceOf[from] */\n      0xffffffffffffffffffffffffffffffffffffffff\n      and\n      0xffffffffffffffffffffffffffffffffffffffff\n      and\n      dup2\n      mstore\n      0x20\n      add\n      swap1\n      dup2\n      mstore\n      0x20\n      add\n      0x00\n      keccak256\n        /* \"backend/contracts/CarbonCreditToken.sol\":6474:6504  balanceOf[from] = bal - amount */\n      dup2\n      swap1\n      sstore\n      pop\n        /* \"backend/contracts/CarbonCreditToken.sol\":6533:6539  amount */\n      dup2\n        /* \"backend/contracts/CarbonCreditToken.sol\":6518:6529  totalSupply */\n      0x02\n      0x00\n        /* \"backend/contracts/CarbonCreditToken.sol\":6518:6539  totalSupply -= amount */\n      dup3\n      dup3\n      sload\n      sub\n      swap3\n      pop\n      pop\n      dup2\n      swap1\n      sstore\n      pop\n        /* \"backend/contracts/CarbonCreditToken.sol\":6587:6588  0 */\n      0x00\n        /* \"backend/contracts/CarbonCreditToken.sol\":6564:6598  Transfer(from, address(0), amount) */\n      0xffffffffffffffffffffffffffffffffffffffff\n      and\n        /* \"backend/contracts/CarbonCreditToken.sol\":6573:6577  from */\n      dup4\n        /* \"backend/contracts/CarbonCreditToken.sol\":6564:6598  Transfer(from, address(0), amount) */\n      0xffffffffffffffffffffffffffffffffffffffff\n      and\n      0xddf252ad1be2c89b69c2b068fc378daa952ba7f163c4a11628f55a4df523b3ef\n        /* \"backend/contracts/CarbonCreditToken.sol\":6591:6597  amount */\n      dup5\n        /* \"backend/contracts/CarbonCreditToken.sol\":6564:6598  Transfer(from, address(0), amount) */\n      mload(0x40)\n      tag_285\n      swap2\n      swap1\n      tag_55\n      jump\t// in\n    tag_285:\n      mload(0x40)\n      dup1\n      swap2\n      sub\n      swap1\n      log3\n        /* \"backend/contracts/CarbonCreditToken.sol\":6345:6605  {... */\n      pop\n        /* \"backend/contracts/CarbonCreditToken.sol\":6291:6605  function _burn(address from, uint256 amount) internal {... */\n      pop\n      pop\n      jump\t// out\n        /* \"backend/contracts/CarbonCreditToken.sol\":4949:5322  function _transfer(address from, address to, uint256 amount) internal {... */\n    tag_170:\n        /* \"backend/contracts/CarbonCreditToken.sol\":5051:5052  0 */\n      0x00\n        /* \"backend/contracts/CarbonCreditToken.sol\":5037:5053  to != address(0) */\n      0xffffffffffffffffffffffffffffffffffffffff\n      and\n        /* \"backend/contracts/CarbonCreditToken.sol\":5037:5039  to */\n      dup3\n        /* \"backend/contracts/CarbonCreditToken.sol\":5037:5053  to != address(0) */\n      0xffffffffffffffffffffffffffffffffffffffff\n      and\n      sub\n        /* \"backend/contracts/CarbonCreditToken.sol\":5029:5065  require(to != address(0), \"Zero to\") */\n      tag_287\n      jumpi\n      mload(0x40)\n      0x08c379a000000000000000000000000000000000000000000000000000000000\n      dup2\n      mstore\n      0x04\n      add\n      tag_288\n      swap1\n      tag_249\n      jump\t// in\n    tag_288:\n      mload(0x40)\n      dup1\n      swap2\n      sub\n      swap1\n      revert\n    tag_287:\n        /* \"backend/contracts/CarbonCreditToken.sol\":5075:5090  uint256 fromBal */\n      0x00\n        /* \"backend/contracts/CarbonCreditToken.sol\":5093:5102  balanceOf */\n      0x03\n        /* \"backend/contracts/CarbonCreditToken.sol\":5093:5108  balanceOf[from] */\n      0x00\n        /* \"backend/contracts/CarbonCreditToken.sol\":5103:5107  from */\n      dup6\n        /* \"backend/contracts/CarbonCreditToken.sol\":5093:5108  balanceOf[from] */\n      0xffffffffffffffffffffffffffffffffffffffff\n      and\n      0xffffffffffffffffffffffffffffffffffffffff\n      and\n      dup2\n      mstore\n      0x20\n      add\n      swap1\n      dup2\n      mstore\n      0x20\n      add\n      0x00\n      keccak256\n      sload\n        /* \"backend/contracts/CarbonCreditToken.sol\":5075:5108  uint256 fromBal = balanceOf[from] */\n      swap1\n      pop\n        /* \"backend/contracts/CarbonCreditToken.sol\":5137:5143  amount */\n      dup2\n        /* \"backend/contracts/CarbonCreditToken.sol\":5126:5133  fromBal */\n      dup2\n        /* \"backend/contracts/CarbonCreditToken.sol\":5126:5143  fromBal >= amount */\n      lt\n      iszero\n        /* \"backend/contracts/CarbonCreditToken.sol\":5118:5163  require(fromBal >= amount, \"Balance too low\") */\n      tag_289\n      jumpi\n      mload(0x40)\n      0x08c379a000000000000000000000000000000000000000000000000000000000\n      dup2\n      mstore\n      0x04\n      add\n      tag_290\n      swap1\n      tag_291\n      jump\t// in\n    tag_290:\n      mload(0x40)\n      dup1\n      swap2\n      sub\n      swap1\n      revert\n    tag_289:\n        /* \"backend/contracts/CarbonCreditToken.sol\":5225:5231  amount */\n      dup2\n        /* \"backend/contracts/CarbonCreditToken.sol\":5215:5222  fromBal */\n      dup2\n        /* \"backend/contracts/CarbonCreditToken.sol\":5215:5231  fromBal - amount */\n      sub\n        /* \"backend/contracts/CarbonCreditToken.sol\":5197:5206  balanceOf */\n      0x03\n        /* \"backend/contracts/CarbonCreditToken.sol\":5197:5212  balanceOf[from] */\n      0x00\n        /* \"backend/contracts/CarbonCreditToken.sol\":5207:5211  from */\n      dup7\n        /* \"backend/contracts/CarbonCreditToken.sol\":5197:5212  balanceOf[from] */\n      0xffffffffffffffffffffffffffffffffffffffff\n      and\n      0xffffffffffffffffffffffffffffffffffffffff\n      and\n      dup2\n      mstore\n      0x20\n      add\n      swap1\n      dup2\n      mstore\n      0x20\n      add\n      0x00\n      keccak256\n        /* \"backend/contracts/CarbonCreditToken.sol\":5197:5231  balanceOf[from] = fromBal - amount */\n      dup2\n      swap1\n      sstore\n      pop\n        /* \"backend/contracts/CarbonCreditToken.sol\":5268:5274  amount */\n      dup2\n        /* \"backend/contracts/CarbonCreditToken.sol\":5251:5260  balanceOf */\n      0x03\n        /* \"backend/contracts/CarbonCreditToken.sol\":5251:5264  balanceOf[to] */\n      0x00\n        /* \"backend/contracts/CarbonCreditToken.sol\":5261:5263  to */\n      dup6\n        /* \"backend/contracts/CarbonCreditToken.sol\":5251:5264  balanceOf[to] */\n      0xffffffffffffffffffffffffffffffffffffffff\n      and\n      0xffffffffffffffffffffffffffffffffffffffff\n      and\n      dup2\n      mstore\n      0x20\n      add\n      swap1\n      dup2\n      mstore\n      0x20\n      add\n      0x00\n      keccak256\n      0x00\n        /* \"backend/contracts/CarbonCreditToken.sol\":5251:5274  balanceOf[to] += amount */\n      dup3\n      dup3\n      sload\n      tag_292\n      swap2\n      swap1\n      tag_293\n      jump\t// in\n    tag_292:\n      swap3\n      pop\n      pop\n      dup2\n      swap1\n      sstore\n      pop\n        /* \"backend/contracts/CarbonCreditToken.sol\":5304:5306  to */\n      dup3\n        /* \"backend/contracts/CarbonCreditToken.sol\":5289:5315  Transfer(from, to, amount) */\n      0xffffffffffffffffffffffffffffffffffffffff\n      and\n        /* \"backend/contracts/CarbonCreditToken.sol\":5298:5302  from */\n      dup5\n        /* \"backend/contracts/CarbonCreditToken.sol\":5289:5315  Transfer(from, to, amount) */\n      0xffffffffffffffffffffffffffffffffffffffff\n      and\n      0xddf252ad1be2c89b69c2b068fc378daa952ba7f163c4a11628f55a4df523b3ef\n        /* \"backend/contracts/CarbonCreditToken.sol\":5308:5314  amount */\n      dup5\n        /* \"backend/contracts/CarbonCreditToken.sol\":5289:5315  Transfer(from, to, amount) */\n      mload(0x40)\n      tag_294\n      swap2\n      swap1\n      tag_55\n      jump\t// in\n    tag_294:\n      mload(0x40)\n      dup1\n      swap2\n      sub\n      swap1\n      log3\n        /* \"backend/contracts/CarbonCreditToken.sol\":5019:5322  {... */\n      pop\n        /* \"backend/contracts/CarbonCreditToken.sol\":4949:5322  function _transfer(address from, address to, uint256 amount) internal {... */\n      pop\n      pop\n      pop\n      jump\t// out\n        /* \"backend/contracts/CarbonCreditToken.sol\":8882:9436  function _applyPenalty(address company) internal {... */\n    tag_205:\n        /* \"backend/contracts/CarbonCreditToken.sol\":8941:8952  uint256 due */\n      0x00\n        /* \"backend/contracts/CarbonCreditToken.sol\":8955:8966  owedDueTime */\n      0x09\n        /* \"backend/contracts/CarbonCreditToken.sol\":8955:8975  owedDueTime[company] */\n      0x00\n        /* \"backend/contracts/CarbonCreditToken.sol\":8967:8974  company */\n      dup4\n        /* \"backend/contracts/CarbonCreditToken.sol\":8955:8975  owedDueTime[company] */\n      0xffffffffffffffffffffffffffffffffffffffff\n      and\n      0xffffffffffffffffffffffffffffffffffffffff\n      and\n      dup2\n      mstore\n      0x20\n      add\n      swap1\n      dup2\n      mstore\n      0x20\n      add\n      0x00\n      keccak256\n      sload\n        /* \"backend/contracts/CarbonCreditToken.sol\":8941:8975  uint256 due = owedDueTime[company] */\n      swap1\n      pop\n        /* \"backend/contracts/CarbonCreditToken.sol\":9013:9014  0 */\n      0x00\n        /* \"backend/contracts/CarbonCreditToken.sol\":8989:9000  owedBalance */\n      0x08\n        /* \"backend/contracts/CarbonCreditToken.sol\":8989:9009  owedBalance[company] */\n      0x00\n        /* \"backend/contracts/CarbonCreditToken.sol\":9001:9008  company */\n      dup5\n        /* \"backend/contracts/CarbonCreditToken.sol\":8989:9009  owedBalance[company] */\n      0xffffffffffffffffffffffffffffffffffffffff\n      and\n      0xffffffffffffffffffffffffffffffffffffffff\n      and\n      dup2\n      mstore\n      0x20\n      add\n      swap1\n      dup2\n      mstore\n      0x20\n      add\n      0x00\n      keccak256\n      sload\n        /* \"backend/contracts/CarbonCreditToken.sol\":8989:9014  owedBalance[company] == 0 */\n      eq\n        /* \"backend/contracts/CarbonCreditToken.sol\":8989:9026  owedBalance[company] == 0 || due == 0 */\n      dup1\n      tag_296\n      jumpi\n      pop\n        /* \"backend/contracts/CarbonCreditToken.sol\":9025:9026  0 */\n      0x00\n        /* \"backend/contracts/CarbonCreditToken.sol\":9018:9021  due */\n      dup2\n        /* \"backend/contracts/CarbonCreditToken.sol\":9018:9026  due == 0 */\n      eq\n        /* \"backend/contracts/CarbonCreditToken.sol\":8989:9026  owedBalance[company] == 0 || due == 0 */\n    tag_296:\n        /* \"backend/contracts/CarbonCreditToken.sol\":8989:9052  owedBalance[company] == 0 || due == 0 || block.timestamp <= due */\n      dup1\n      tag_297\n      jumpi\n      pop\n        /* \"backend/contracts/CarbonCreditToken.sol\":9049:9052  due */\n      dup1\n        /* \"backend/contracts/CarbonCreditToken.sol\":9030:9045  block.timestamp */\n      timestamp\n        /* \"backend/contracts/CarbonCreditToken.sol\":9030:9052  block.timestamp <= due */\n      gt\n      iszero\n        /* \"backend/contracts/CarbonCreditToken.sol\":8989:9052  owedBalance[company] == 0 || due == 0 || block.timestamp <= due */\n    tag_297:\n        /* \"backend/contracts/CarbonCreditToken.sol\":8985:9085  if (owedBalance[company] == 0 || due == 0 || block.timestamp <= due) {... */\n      iszero\n      tag_298\n      jumpi\n        /* \"backend/contracts/CarbonCreditToken.sol\":9068:9075  return; */\n      pop\n      jump(tag_295)\n        /* \"backend/contracts/CarbonCreditToken.sol\":8985:9085  if (owedBalance[company] == 0 || due == 0 || block.timestamp <= due) {... */\n    tag_298:\n        /* \"backend/contracts/CarbonCreditToken.sol\":9095:9112  uint256 intervals */\n      0x00\n        /* \"backend/contracts/CarbonCreditToken.sol\":9158:9159  1 */\n      0x01\n        /* \"backend/contracts/CarbonCreditToken.sol\":9141:9155  gracePeriodSec */\n      sload(0x0a)\n        /* \"backend/contracts/CarbonCreditToken.sol\":9134:9137  due */\n      dup4\n        /* \"backend/contracts/CarbonCreditToken.sol\":9116:9131  block.timestamp */\n      timestamp\n        /* \"backend/contracts/CarbonCreditToken.sol\":9116:9137  block.timestamp - due */\n      tag_299\n      swap2\n      swap1\n      tag_168\n      jump\t// in\n    tag_299:\n        /* \"backend/contracts/CarbonCreditToken.sol\":9115:9155  (block.timestamp - due) / gracePeriodSec */\n      tag_300\n      swap2\n      swap1\n      tag_219\n      jump\t// in\n    tag_300:\n        /* \"backend/contracts/CarbonCreditToken.sol\":9115:9159  (block.timestamp - due) / gracePeriodSec + 1 */\n      tag_301\n      swap2\n      swap1\n      tag_293\n      jump\t// in\n    tag_301:\n        /* \"backend/contracts/CarbonCreditToken.sol\":9095:9159  uint256 intervals = (block.timestamp - due) / gracePeriodSec + 1 */\n      swap1\n      pop\n        /* \"backend/contracts/CarbonCreditToken.sol\":9169:9182  uint256 added */\n      0x00\n        /* \"backend/contracts/CarbonCreditToken.sol\":9197:9210  penaltyAmount */\n      sload(0x0b)\n        /* \"backend/contracts/CarbonCreditToken.sol\":9185:9194  intervals */\n      dup3\n        /* \"backend/contracts/CarbonCreditToken.sol\":9185:9210  intervals * penaltyAmount */\n      tag_302\n      swap2\n      swap1\n      tag_303\n      jump\t// in\n    tag_302:\n        /* \"backend/contracts/CarbonCreditToken.sol\":9169:9210  uint256 added = intervals * penaltyAmount */\n      swap1\n      pop\n        /* \"backend/contracts/CarbonCreditToken.sol\":9266:9271  added */\n      dup1\n        /* \"backend/contracts/CarbonCreditToken.sol\":9243:9254  owedBalance */\n      0x08\n        /* \"backend/contracts/CarbonCreditToken.sol\":9243:9263  owedBalance[company] */\n      0x00\n        /* \"backend/contracts/CarbonCreditToken.sol\":9255:9262  company */\n      dup7\n        /* \"backend/contracts/CarbonCreditToken.sol\":9243:9263  owedBalance[company] */\n      0xffffffffffffffffffffffffffffffffffffffff\n      and\n      0xffffffffffffffffffffffffffffffffffffffff\n      and\n      dup2\n      mstore\n      0x20\n      add\n      swap1\n      dup2\n      mstore\n      0x20\n      add\n      0x00\n      keccak256\n      sload\n        /* \"backend/contracts/CarbonCreditToken.sol\":9243:9271  owedBalance[company] + added */\n      tag_304\n      swap2\n      swap1\n      tag_293\n      jump\t// in\n    tag_304:\n        /* \"backend/contracts/CarbonCreditToken.sol\":9220:9231  owedBalance */\n      0x08\n        /* \"backend/contracts/CarbonCreditToken.sol\":9220:9240  owedBalance[company] */\n      0x00\n        /* \"backend/contracts/CarbonCreditToken.sol\":9232:9239  company */\n      dup7\n        /* \"backend/contracts/CarbonCreditToken.sol\":9220:9240  owedBalance[company] */\n      0xffffffffffffffffffffffffffffffffffffffff\n      and\n      0xffffffffffffffffffffffffffffffffffffffff\n      and\n      dup2\n      mstore\n      0x20\n      add\n      swap1\n      dup2\n      mstore\n      0x20\n      add\n      0x00\n      keccak256\n        /* \"backend/contracts/CarbonCreditToken.sol\":9220:9271  owedBalance[company] = owedBalance[company] + added */\n      dup2\n      swap1\n      sstore\n      pop\n        /* \"backend/contracts/CarbonCreditToken.sol\":9322:9336  gracePeriodSec */\n      sload(0x0a)\n        /* \"backend/contracts/CarbonCreditToken.sol\":9310:9319  intervals */\n      dup3\n        /* \"backend/contracts/CarbonCreditToken.sol\":9310:9336  intervals * gracePeriodSec */\n      tag_305\n      swap2\n      swap1\n      tag_303\n      jump\t// in\n    tag_305:\n        /* \"backend/contracts/CarbonCreditToken.sol\":9304:9307  due */\n      dup4\n        /* \"backend/contracts/CarbonCreditToken.sol\":9304:9336  due + intervals * gracePeriodSec */\n      tag_306\n      swap2\n      swap1\n      tag_293\n      jump\t// in\n    tag_306:\n        /* \"backend/contracts/CarbonCreditToken.sol\":9281:9292  owedDueTime */\n      0x09\n        /* \"backend/contracts/CarbonCreditToken.sol\":9281:9301  owedDueTime[company] */\n      0x00\n        /* \"backend/contracts/CarbonCreditToken.sol\":9293:9300  company */\n      dup7\n        /* \"backend/contracts/CarbonCreditToken.sol\":9281:9301  owedDueTime[company] */\n      0xffffffffffffffffffffffffffffffffffffffff\n      and\n      0xffffffffffffffffffffffffffffffffffffffff\n      and\n      dup2\n      mstore\n      0x20\n      add\n      swap1\n      dup2\n      mstore\n      0x20\n      add\n      0x00\n      keccak256\n        /* \"backend/contracts/CarbonCreditToken.sol\":9281:9336  owedDueTime[company] = due + intervals * gracePeriodSec */\n      dup2\n      swap1\n      sstore\n      pop\n        /* \"backend/contracts/CarbonCreditToken.sol\":9370:9377  company */\n      dup4\n        /* \"backend/contracts/CarbonCreditToken.sol\":9351:9429  OwedPenaltyApplied(company, added, owedBalance[company], owedDueTime[company]) */\n      0xffffffffffffffffffffffffffffffffffffffff\n      and\n      0x8974cf72bdf759c6e85c73d5baae06af803be0f9ce1d4c36f9af034c2959d312\n        /* \"backend/contracts/CarbonCreditToken.sol\":9379:9384  added */\n      dup3\n        /* \"backend/contracts/CarbonCreditToken.sol\":9386:9397  owedBalance */\n      0x08\n        /* \"backend/contracts/CarbonCreditToken.sol\":9386:9406  owedBalance[company] */\n      0x00\n        /* \"backend/contracts/CarbonCreditToken.sol\":9398:9405  company */\n      dup9\n        /* \"backend/contracts/CarbonCreditToken.sol\":9386:9406  owedBalance[company] */\n      0xffffffffffffffffffffffffffffffffffffffff\n      and\n      0xffffffffffffffffffffffffffffffffffffffff\n      and\n      dup2\n      mstore\n      0x20\n      add\n      swap1\n      dup2\n      mstore\n      0x20\n      add\n      0x00\n      keccak256\n      sload\n        /* \"backend/contracts/CarbonCreditToken.sol\":9408:9419  owedDueTime */\n      0x09\n        /* \"backend/contracts/CarbonCreditToken.sol\":9408:9428  owedDueTime[company] */\n      0x00\n        /* \"backend/contracts/CarbonCreditToken.sol\":9420:9427  company */\n      dup10\n        /* \"backend/contracts/CarbonCreditToken.sol\":9408:9428  owedDueTime[company] */\n      0xffffffffffffffffffffffffffffffffffffffff\n      and\n      0xffffffffffffffffffffffffffffffffffffffff\n      and\n      dup2\n      mstore\n      0x20\n      add\n      swap1\n      dup2\n      mstore\n      0x20\n      add\n      0x00\n      keccak256\n      sload\n        /* \"backend/contracts/CarbonCreditToken.sol\":9351:9429  OwedPenaltyApplied(company, added, owedBalance[company], owedDueTime[company]) */\n      mload(0x40)\n      tag_307\n      swap4\n      swap3\n      swap2\n      swap1\n      tag_308\n      jump\t// in\n    tag_307:\n      mload(0x40)\n      dup1\n      swap2\n      sub\n      swap1\n      log2\n        /* \"backend/contracts/CarbonCreditToken.sol\":8931:9436  {... */\n      pop\n      pop\n      pop\n        /* \"backend/contracts/CarbonCreditToken.sol\":8882:9436  function _applyPenalty(address company) internal {... */\n    tag_295:\n      pop\n      jump\t// out\n        /* \"backend/contracts/CarbonCreditToken.sol\":9442:10454  function _mintAndSettle(address company, uint256 mintTokens, TempBatch memory t) internal {... */\n    tag_222:\n        /* \"backend/contracts/CarbonCreditToken.sol\":9542:9554  uint256 owed */\n      0x00\n        /* \"backend/contracts/CarbonCreditToken.sol\":9557:9568  owedBalance */\n      0x08\n        /* \"backend/contracts/CarbonCreditToken.sol\":9557:9577  owedBalance[company] */\n      0x00\n        /* \"backend/contracts/CarbonCreditToken.sol\":9569:9576  company */\n      dup6\n        /* \"backend/contracts/CarbonCreditToken.sol\":9557:9577  owedBalance[company] */\n      0xffffffffffffffffffffffffffffffffffffffff\n      and\n      0xffffffffffffffffffffffffffffffffffffffff\n      and\n      dup2\n      mstore\n      0x20\n      add\n      swap1\n      dup2\n      mstore\n      0x20\n      add\n      0x00\n      keccak256\n      sload\n        /* \"backend/contracts/CarbonCreditToken.sol\":9542:9577  uint256 owed = owedBalance[company] */\n      swap1\n      pop\n        /* \"backend/contracts/CarbonCreditToken.sol\":9598:9599  0 */\n      0x00\n        /* \"backend/contracts/CarbonCreditToken.sol\":9591:9595  owed */\n      dup2\n        /* \"backend/contracts/CarbonCreditToken.sol\":9591:9599  owed > 0 */\n      gt\n        /* \"backend/contracts/CarbonCreditToken.sol\":9587:10448  if (owed > 0) {... */\n      iszero\n      tag_310\n      jumpi\n        /* \"backend/contracts/CarbonCreditToken.sol\":9633:9637  owed */\n      dup1\n        /* \"backend/contracts/CarbonCreditToken.sol\":9619:9629  mintTokens */\n      dup4\n        /* \"backend/contracts/CarbonCreditToken.sol\":9619:9637  mintTokens >= owed */\n      lt\n        /* \"backend/contracts/CarbonCreditToken.sol\":9615:10245  if (mintTokens >= owed) {... */\n      tag_311\n      jumpi\n        /* \"backend/contracts/CarbonCreditToken.sol\":9657:9672  uint256 netMint */\n      0x00\n        /* \"backend/contracts/CarbonCreditToken.sol\":9688:9692  owed */\n      dup2\n        /* \"backend/contracts/CarbonCreditToken.sol\":9675:9685  mintTokens */\n      dup5\n        /* \"backend/contracts/CarbonCreditToken.sol\":9675:9692  mintTokens - owed */\n      tag_312\n      swap2\n      swap1\n      tag_168\n      jump\t// in\n    tag_312:\n        /* \"backend/contracts/CarbonCreditToken.sol\":9657:9692  uint256 netMint = mintTokens - owed */\n      swap1\n      pop\n        /* \"backend/contracts/CarbonCreditToken.sol\":9733:9734  0 */\n      0x00\n        /* \"backend/contracts/CarbonCreditToken.sol\":9710:9721  owedBalance */\n      0x08\n        /* \"backend/contracts/CarbonCreditToken.sol\":9710:9730  owedBalance[company] */\n      0x00\n        /* \"backend/contracts/CarbonCreditToken.sol\":9722:9729  company */\n      dup8\n        /* \"backend/contracts/CarbonCreditToken.sol\":9710:9730  owedBalance[company] */\n      0xffffffffffffffffffffffffffffffffffffffff\n      and\n      0xffffffffffffffffffffffffffffffffffffffff\n      and\n      dup2\n      mstore\n      0x20\n      add\n      swap1\n      dup2\n      mstore\n      0x20\n      add\n      0x00\n      keccak256\n        /* \"backend/contracts/CarbonCreditToken.sol\":9710:9734  owedBalance[company] = 0 */\n      dup2\n      swap1\n      sstore\n      pop\n        /* \"backend/contracts/CarbonCreditToken.sol\":9775:9776  0 */\n      0x00\n        /* \"backend/contracts/CarbonCreditToken.sol\":9752:9763  owedDueTime */\n      0x09\n        /* \"backend/contracts/CarbonCreditToken.sol\":9752:9772  owedDueTime[company] */\n      0x00\n        /* \"backend/contracts/CarbonCreditToken.sol\":9764:9771  company */\n      dup8\n        /* \"backend/contracts/CarbonCreditToken.sol\":9752:9772  owedDueTime[company] */\n      0xffffffffffffffffffffffffffffffffffffffff\n      and\n      0xffffffffffffffffffffffffffffffffffffffff\n      and\n      dup2\n      mstore\n      0x20\n      add\n      swap1\n      dup2\n      mstore\n      0x20\n      add\n      0x00\n      keccak256\n        /* \"backend/contracts/CarbonCreditToken.sol\":9752:9776  owedDueTime[company] = 0 */\n      dup2\n      swap1\n      sstore\n      pop\n        /* \"backend/contracts/CarbonCreditToken.sol\":9811:9818  company */\n      dup5\n        /* \"backend/contracts/CarbonCreditToken.sol\":9799:9828  OwedSettled(company, owed, 0) */\n      0xffffffffffffffffffffffffffffffffffffffff\n      and\n      0x1657f3f9db7a57a2cbf7c5c76516840b2a7cf3f20bc67edb2cd02f10c56d0a2a\n        /* \"backend/contracts/CarbonCreditToken.sol\":9820:9824  owed */\n      dup4\n        /* \"backend/contracts/CarbonCreditToken.sol\":9826:9827  0 */\n      0x00\n        /* \"backend/contracts/CarbonCreditToken.sol\":9799:9828  OwedSettled(company, owed, 0) */\n      mload(0x40)\n      tag_313\n      swap3\n      swap2\n      swap1\n      tag_183\n      jump\t// in\n    tag_313:\n      mload(0x40)\n      dup1\n      swap2\n      sub\n      swap1\n      log2\n        /* \"backend/contracts/CarbonCreditToken.sol\":9860:9861  0 */\n      0x00\n        /* \"backend/contracts/CarbonCreditToken.sol\":9850:9857  netMint */\n      dup2\n        /* \"backend/contracts/CarbonCreditToken.sol\":9850:9861  netMint > 0 */\n      gt\n        /* \"backend/contracts/CarbonCreditToken.sol\":9846:10078  if (netMint > 0) {... */\n      iszero\n      tag_314\n      jumpi\n        /* \"backend/contracts/CarbonCreditToken.sol\":9885:9908  _mint(company, netMint) */\n      tag_315\n        /* \"backend/contracts/CarbonCreditToken.sol\":9891:9898  company */\n      dup6\n        /* \"backend/contracts/CarbonCreditToken.sol\":9900:9907  netMint */\n      dup3\n        /* \"backend/contracts/CarbonCreditToken.sol\":9885:9890  _mint */\n      tag_253\n        /* \"backend/contracts/CarbonCreditToken.sol\":9885:9908  _mint(company, netMint) */\n      jump\t// in\n    tag_315:\n        /* \"backend/contracts/CarbonCreditToken.sol\":9949:9956  company */\n      dup5\n        /* \"backend/contracts/CarbonCreditToken.sol\":9935:9966  CreditsIssued(company, netMint) */\n      0xffffffffffffffffffffffffffffffffffffffff\n      and\n      0xba27001eed39081e9d6f521103bc201676a9b4eb7fe868e5e596da78b135126b\n        /* \"backend/contracts/CarbonCreditToken.sol\":9958:9965  netMint */\n      dup3\n        /* \"backend/contracts/CarbonCreditToken.sol\":9935:9966  CreditsIssued(company, netMint) */\n      mload(0x40)\n      tag_316\n      swap2\n      swap1\n      tag_55\n      jump\t// in\n    tag_316:\n      mload(0x40)\n      dup1\n      swap2\n      sub\n      swap1\n      log2\n        /* \"backend/contracts/CarbonCreditToken.sol\":9999:10006  netMint */\n      dup1\n        /* \"backend/contracts/CarbonCreditToken.sol\":9988:9989  t */\n      dup4\n        /* \"backend/contracts/CarbonCreditToken.sol\":9988:9996  t.minted */\n      0x20\n      add\n        /* \"backend/contracts/CarbonCreditToken.sol\":9988:10006  t.minted = netMint */\n      dup2\n      dup2\n      mstore\n      pop\n      pop\n        /* \"backend/contracts/CarbonCreditToken.sol\":10051:10058  netMint */\n      dup1\n        /* \"backend/contracts/CarbonCreditToken.sol\":10028:10029  t */\n      dup4\n        /* \"backend/contracts/CarbonCreditToken.sol\":10028:10041  t.tokenChange */\n      0x00\n      add\n        /* \"backend/contracts/CarbonCreditToken.sol\":10028:10059  t.tokenChange = int256(netMint) */\n      dup2\n      dup2\n      mstore\n      pop\n      pop\n        /* \"backend/contracts/CarbonCreditToken.sol\":9846:10078  if (netMint > 0) {... */\n    tag_314:\n        /* \"backend/contracts/CarbonCreditToken.sol\":9639:10092  {... */\n      pop\n        /* \"backend/contracts/CarbonCreditToken.sol\":9615:10245  if (mintTokens >= owed) {... */\n      jump(tag_317)\n    tag_311:\n        /* \"backend/contracts/CarbonCreditToken.sol\":10146:10156  mintTokens */\n      dup3\n        /* \"backend/contracts/CarbonCreditToken.sol\":10139:10143  owed */\n      dup2\n        /* \"backend/contracts/CarbonCreditToken.sol\":10139:10156  owed - mintTokens */\n      tag_318\n      swap2\n      swap1\n      tag_168\n      jump\t// in\n    tag_318:\n        /* \"backend/contracts/CarbonCreditToken.sol\":10116:10127  owedBalance */\n      0x08\n        /* \"backend/contracts/CarbonCreditToken.sol\":10116:10136  owedBalance[company] */\n      0x00\n        /* \"backend/contracts/CarbonCreditToken.sol\":10128:10135  company */\n      dup7\n        /* \"backend/contracts/CarbonCreditToken.sol\":10116:10136  owedBalance[company] */\n      0xffffffffffffffffffffffffffffffffffffffff\n      and\n      0xffffffffffffffffffffffffffffffffffffffff\n      and\n      dup2\n      mstore\n      0x20\n      add\n      swap1\n      dup2\n      mstore\n      0x20\n      add\n      0x00\n      keccak256\n        /* \"backend/contracts/CarbonCreditToken.sol\":10116:10156  owedBalance[company] = owed - mintTokens */\n      dup2\n      swap1\n      sstore\n      pop\n        /* \"backend/contracts/CarbonCreditToken.sol\":10191:10198  company */\n      dup4\n        /* \"backend/contracts/CarbonCreditToken.sol\":10179:10230  OwedSettled(company, mintTokens, owed - mintTokens) */\n      0xffffffffffffffffffffffffffffffffffffffff\n      and\n      0x1657f3f9db7a57a2cbf7c5c76516840b2a7cf3f20bc67edb2cd02f10c56d0a2a\n        /* \"backend/contracts/CarbonCreditToken.sol\":10200:10210  mintTokens */\n      dup5\n        /* \"backend/contracts/CarbonCreditToken.sol\":10219:10229  mintTokens */\n      dup6\n        /* \"backend/contracts/CarbonCreditToken.sol\":10212:10216  owed */\n      dup5\n        /* \"backend/contracts/CarbonCreditToken.sol\":10212:10229  owed - mintTokens */\n      tag_319\n      swap2\n      swap1\n      tag_168\n      jump\t// in\n    tag_319:\n        /* \"backend/contracts/CarbonCreditToken.sol\":10179:10230  OwedSettled(company, mintTokens, owed - mintTokens) */\n      mload(0x40)\n      tag_320\n      swap3\n      swap2\n      swap1\n      tag_188\n      jump\t// in\n    tag_320:\n      mload(0x40)\n      dup1\n      swap2\n      sub\n      swap1\n      log2\n        /* \"backend/contracts/CarbonCreditToken.sol\":9615:10245  if (mintTokens >= owed) {... */\n    tag_317:\n        /* \"backend/contracts/CarbonCreditToken.sol\":9587:10448  if (owed > 0) {... */\n      jump(tag_321)\n    tag_310:\n        /* \"backend/contracts/CarbonCreditToken.sol\":10275:10301  _mint(company, mintTokens) */\n      tag_322\n        /* \"backend/contracts/CarbonCreditToken.sol\":10281:10288  company */\n      dup5\n        /* \"backend/contracts/CarbonCreditToken.sol\":10290:10300  mintTokens */\n      dup5\n        /* \"backend/contracts/CarbonCreditToken.sol\":10275:10280  _mint */\n      tag_253\n        /* \"backend/contracts/CarbonCreditToken.sol\":10275:10301  _mint(company, mintTokens) */\n      jump\t// in\n    tag_322:\n        /* \"backend/contracts/CarbonCreditToken.sol\":10334:10341  company */\n      dup4\n        /* \"backend/contracts/CarbonCreditToken.sol\":10320:10354  CreditsIssued(company, mintTokens) */\n      0xffffffffffffffffffffffffffffffffffffffff\n      and\n      0xba27001eed39081e9d6f521103bc201676a9b4eb7fe868e5e596da78b135126b\n        /* \"backend/contracts/CarbonCreditToken.sol\":10343:10353  mintTokens */\n      dup5\n        /* \"backend/contracts/CarbonCreditToken.sol\":10320:10354  CreditsIssued(company, mintTokens) */\n      mload(0x40)\n      tag_323\n      swap2\n      swap1\n      tag_55\n      jump\t// in\n    tag_323:\n      mload(0x40)\n      dup1\n      swap2\n      sub\n      swap1\n      log2\n        /* \"backend/contracts/CarbonCreditToken.sol\":10379:10389  mintTokens */\n      dup3\n        /* \"backend/contracts/CarbonCreditToken.sol\":10368:10369  t */\n      dup3\n        /* \"backend/contracts/CarbonCreditToken.sol\":10368:10376  t.minted */\n      0x20\n      add\n        /* \"backend/contracts/CarbonCreditToken.sol\":10368:10389  t.minted = mintTokens */\n      dup2\n      dup2\n      mstore\n      pop\n      pop\n        /* \"backend/contracts/CarbonCreditToken.sol\":10426:10436  mintTokens */\n      dup3\n        /* \"backend/contracts/CarbonCreditToken.sol\":10403:10404  t */\n      dup3\n        /* \"backend/contracts/CarbonCreditToken.sol\":10403:10416  t.tokenChange */\n      0x00\n      add\n        /* \"backend/contracts/CarbonCreditToken.sol\":10403:10437  t.tokenChange = int256(mintTokens) */\n      dup2\n      dup2\n      mstore\n      pop\n      pop\n        /* \"backend/contracts/CarbonCreditToken.sol\":9587:10448  if (owed > 0) {... */\n    tag_321:\n        /* \"backend/contracts/CarbonCreditToken.sol\":9532:10454  {... */\n      pop\n        /* \"backend/contracts/CarbonCreditToken.sol\":9442:10454  function _mintAndSettle(address company, uint256 mintTokens, TempBatch memory t) internal {... */\n      pop\n      pop\n      pop\n      jump\t// out\n        /* \"backend/contracts/CarbonCreditToken.sol\":10460:11455  function _burnAndAccrue(address company, uint256 burnTokens, TempBatch memory t) internal {... */\n    tag_229:\n        /* \"backend/contracts/CarbonCreditToken.sol\":10560:10574  uint256 toBurn */\n      0x00\n        /* \"backend/contracts/CarbonCreditToken.sol\":10577:10587  burnTokens */\n      dup3\n        /* \"backend/contracts/CarbonCreditToken.sol\":10560:10587  uint256 toBurn = burnTokens */\n      swap1\n      pop\n        /* \"backend/contracts/CarbonCreditToken.sol\":10611:10628  uint256 available */\n      0x00\n        /* \"backend/contracts/CarbonCreditToken.sol\":10631:10640  balanceOf */\n      0x03\n        /* \"backend/contracts/CarbonCreditToken.sol\":10631:10649  balanceOf[company] */\n      0x00\n        /* \"backend/contracts/CarbonCreditToken.sol\":10641:10648  company */\n      dup7\n        /* \"backend/contracts/CarbonCreditToken.sol\":10631:10649  balanceOf[company] */\n      0xffffffffffffffffffffffffffffffffffffffff\n      and\n      0xffffffffffffffffffffffffffffffffffffffff\n      and\n      dup2\n      mstore\n      0x20\n      add\n      swap1\n      dup2\n      mstore\n      0x20\n      add\n      0x00\n      keccak256\n      sload\n        /* \"backend/contracts/CarbonCreditToken.sol\":10611:10649  uint256 available = balanceOf[company] */\n      swap1\n      pop\n        /* \"backend/contracts/CarbonCreditToken.sol\":10676:10685  available */\n      dup1\n        /* \"backend/contracts/CarbonCreditToken.sol\":10667:10673  toBurn */\n      dup3\n        /* \"backend/contracts/CarbonCreditToken.sol\":10667:10685  toBurn > available */\n      gt\n        /* \"backend/contracts/CarbonCreditToken.sol\":10663:10738  if (toBurn > available) {... */\n      iszero\n      tag_325\n      jumpi\n        /* \"backend/contracts/CarbonCreditToken.sol\":10714:10723  available */\n      dup1\n        /* \"backend/contracts/CarbonCreditToken.sol\":10705:10723  toBurn = available */\n      swap2\n      pop\n        /* \"backend/contracts/CarbonCreditToken.sol\":10663:10738  if (toBurn > available) {... */\n    tag_325:\n        /* \"backend/contracts/CarbonCreditToken.sol\":10597:10748  {... */\n      pop\n        /* \"backend/contracts/CarbonCreditToken.sol\":10770:10771  0 */\n      0x00\n        /* \"backend/contracts/CarbonCreditToken.sol\":10761:10767  toBurn */\n      dup2\n        /* \"backend/contracts/CarbonCreditToken.sol\":10761:10771  toBurn > 0 */\n      gt\n        /* \"backend/contracts/CarbonCreditToken.sol\":10757:10946  if (toBurn > 0) {... */\n      iszero\n      tag_326\n      jumpi\n        /* \"backend/contracts/CarbonCreditToken.sol\":10787:10809  _burn(company, toBurn) */\n      tag_327\n        /* \"backend/contracts/CarbonCreditToken.sol\":10793:10800  company */\n      dup5\n        /* \"backend/contracts/CarbonCreditToken.sol\":10802:10808  toBurn */\n      dup3\n        /* \"backend/contracts/CarbonCreditToken.sol\":10787:10792  _burn */\n      tag_150\n        /* \"backend/contracts/CarbonCreditToken.sol\":10787:10809  _burn(company, toBurn) */\n      jump\t// in\n    tag_327:\n        /* \"backend/contracts/CarbonCreditToken.sol\":10843:10850  company */\n      dup4\n        /* \"backend/contracts/CarbonCreditToken.sol\":10828:10859  PenaltyApplied(company, toBurn) */\n      0xffffffffffffffffffffffffffffffffffffffff\n      and\n      0x4b28c7dc138644f27518388387393ecbd08ef8d180a4a6799c954be166a37ab3\n        /* \"backend/contracts/CarbonCreditToken.sol\":10852:10858  toBurn */\n      dup3\n        /* \"backend/contracts/CarbonCreditToken.sol\":10828:10859  PenaltyApplied(company, toBurn) */\n      mload(0x40)\n      tag_328\n      swap2\n      swap1\n      tag_55\n      jump\t// in\n    tag_328:\n      mload(0x40)\n      dup1\n      swap2\n      sub\n      swap1\n      log2\n        /* \"backend/contracts/CarbonCreditToken.sol\":10897:10903  toBurn */\n      dup1\n        /* \"backend/contracts/CarbonCreditToken.sol\":10889:10904  -int256(toBurn) */\n      tag_329\n      swap1\n      tag_330\n      jump\t// in\n    tag_329:\n        /* \"backend/contracts/CarbonCreditToken.sol\":10873:10874  t */\n      dup3\n        /* \"backend/contracts/CarbonCreditToken.sol\":10873:10886  t.tokenChange */\n      0x00\n      add\n        /* \"backend/contracts/CarbonCreditToken.sol\":10873:10904  t.tokenChange = -int256(toBurn) */\n      dup2\n      dup2\n      mstore\n      pop\n      pop\n        /* \"backend/contracts/CarbonCreditToken.sol\":10929:10935  toBurn */\n      dup1\n        /* \"backend/contracts/CarbonCreditToken.sol\":10918:10919  t */\n      dup3\n        /* \"backend/contracts/CarbonCreditToken.sol\":10918:10926  t.burned */\n      0x40\n      add\n        /* \"backend/contracts/CarbonCreditToken.sol\":10918:10935  t.burned = toBurn */\n      dup2\n      dup2\n      mstore\n      pop\n      pop\n        /* \"backend/contracts/CarbonCreditToken.sol\":10757:10946  if (toBurn > 0) {... */\n    tag_326:\n        /* \"backend/contracts/CarbonCreditToken.sol\":10973:10979  toBurn */\n      dup1\n        /* \"backend/contracts/CarbonCreditToken.sol\":10960:10970  burnTokens */\n      dup4\n        /* \"backend/contracts/CarbonCreditToken.sol\":10960:10979  burnTokens > toBurn */\n      gt\n        /* \"backend/contracts/CarbonCreditToken.sol\":10956:11449  if (burnTokens > toBurn) {... */\n      iszero\n      tag_331\n      jumpi\n        /* \"backend/contracts/CarbonCreditToken.sol\":10995:11012  uint256 shortfall */\n      0x00\n        /* \"backend/contracts/CarbonCreditToken.sol\":11028:11034  toBurn */\n      dup2\n        /* \"backend/contracts/CarbonCreditToken.sol\":11015:11025  burnTokens */\n      dup5\n        /* \"backend/contracts/CarbonCreditToken.sol\":11015:11034  burnTokens - toBurn */\n      tag_332\n      swap2\n      swap1\n      tag_168\n      jump\t// in\n    tag_332:\n        /* \"backend/contracts/CarbonCreditToken.sol\":10995:11034  uint256 shortfall = burnTokens - toBurn */\n      swap1\n      pop\n        /* \"backend/contracts/CarbonCreditToken.sol\":11072:11081  shortfall */\n      dup1\n        /* \"backend/contracts/CarbonCreditToken.sol\":11048:11059  owedBalance */\n      0x08\n        /* \"backend/contracts/CarbonCreditToken.sol\":11048:11068  owedBalance[company] */\n      0x00\n        /* \"backend/contracts/CarbonCreditToken.sol\":11060:11067  company */\n      dup8\n        /* \"backend/contracts/CarbonCreditToken.sol\":11048:11068  owedBalance[company] */\n      0xffffffffffffffffffffffffffffffffffffffff\n      and\n      0xffffffffffffffffffffffffffffffffffffffff\n      and\n      dup2\n      mstore\n      0x20\n      add\n      swap1\n      dup2\n      mstore\n      0x20\n      add\n      0x00\n      keccak256\n      0x00\n        /* \"backend/contracts/CarbonCreditToken.sol\":11048:11081  owedBalance[company] += shortfall */\n      dup3\n      dup3\n      sload\n      tag_333\n      swap2\n      swap1\n      tag_293\n      jump\t// in\n    tag_333:\n      swap3\n      pop\n      pop\n      dup2\n      swap1\n      sstore\n      pop\n        /* \"backend/contracts/CarbonCreditToken.sol\":11095:11109  uint256 newDue */\n      0x00\n        /* \"backend/contracts/CarbonCreditToken.sol\":11130:11144  gracePeriodSec */\n      sload(0x0a)\n        /* \"backend/contracts/CarbonCreditToken.sol\":11112:11127  block.timestamp */\n      timestamp\n        /* \"backend/contracts/CarbonCreditToken.sol\":11112:11144  block.timestamp + gracePeriodSec */\n      tag_334\n      swap2\n      swap1\n      tag_293\n      jump\t// in\n    tag_334:\n        /* \"backend/contracts/CarbonCreditToken.sol\":11095:11144  uint256 newDue = block.timestamp + gracePeriodSec */\n      swap1\n      pop\n        /* \"backend/contracts/CarbonCreditToken.sol\":11158:11173  uint256 nextDue */\n      0x00\n        /* \"backend/contracts/CarbonCreditToken.sol\":11176:11187  owedDueTime */\n      0x09\n        /* \"backend/contracts/CarbonCreditToken.sol\":11176:11196  owedDueTime[company] */\n      0x00\n        /* \"backend/contracts/CarbonCreditToken.sol\":11188:11195  company */\n      dup9\n        /* \"backend/contracts/CarbonCreditToken.sol\":11176:11196  owedDueTime[company] */\n      0xffffffffffffffffffffffffffffffffffffffff\n      and\n      0xffffffffffffffffffffffffffffffffffffffff\n      and\n      dup2\n      mstore\n      0x20\n      add\n      swap1\n      dup2\n      mstore\n      0x20\n      add\n      0x00\n      keccak256\n      sload\n        /* \"backend/contracts/CarbonCreditToken.sol\":11158:11196  uint256 nextDue = owedDueTime[company] */\n      swap1\n      pop\n        /* \"backend/contracts/CarbonCreditToken.sol\":11225:11226  0 */\n      0x00\n        /* \"backend/contracts/CarbonCreditToken.sol\":11214:11221  nextDue */\n      dup2\n        /* \"backend/contracts/CarbonCreditToken.sol\":11214:11226  nextDue == 0 */\n      eq\n        /* \"backend/contracts/CarbonCreditToken.sol\":11214:11246  nextDue == 0 || newDue < nextDue */\n      dup1\n      tag_335\n      jumpi\n      pop\n        /* \"backend/contracts/CarbonCreditToken.sol\":11239:11246  nextDue */\n      dup1\n        /* \"backend/contracts/CarbonCreditToken.sol\":11230:11236  newDue */\n      dup3\n        /* \"backend/contracts/CarbonCreditToken.sol\":11230:11246  newDue < nextDue */\n      lt\n        /* \"backend/contracts/CarbonCreditToken.sol\":11214:11246  nextDue == 0 || newDue < nextDue */\n    tag_335:\n        /* \"backend/contracts/CarbonCreditToken.sol\":11210:11297  if (nextDue == 0 || newDue < nextDue) {... */\n      iszero\n      tag_336\n      jumpi\n        /* \"backend/contracts/CarbonCreditToken.sol\":11276:11282  newDue */\n      dup2\n        /* \"backend/contracts/CarbonCreditToken.sol\":11266:11282  nextDue = newDue */\n      swap1\n      pop\n        /* \"backend/contracts/CarbonCreditToken.sol\":11210:11297  if (nextDue == 0 || newDue < nextDue) {... */\n    tag_336:\n        /* \"backend/contracts/CarbonCreditToken.sol\":11333:11340  nextDue */\n      dup1\n        /* \"backend/contracts/CarbonCreditToken.sol\":11310:11321  owedDueTime */\n      0x09\n        /* \"backend/contracts/CarbonCreditToken.sol\":11310:11330  owedDueTime[company] */\n      0x00\n        /* \"backend/contracts/CarbonCreditToken.sol\":11322:11329  company */\n      dup10\n        /* \"backend/contracts/CarbonCreditToken.sol\":11310:11330  owedDueTime[company] */\n      0xffffffffffffffffffffffffffffffffffffffff\n      and\n      0xffffffffffffffffffffffffffffffffffffffff\n      and\n      dup2\n      mstore\n      0x20\n      add\n      swap1\n      dup2\n      mstore\n      0x20\n      add\n      0x00\n      keccak256\n        /* \"backend/contracts/CarbonCreditToken.sol\":11310:11340  owedDueTime[company] = nextDue */\n      dup2\n      swap1\n      sstore\n      pop\n        /* \"backend/contracts/CarbonCreditToken.sol\":11369:11378  shortfall */\n      dup3\n        /* \"backend/contracts/CarbonCreditToken.sol\":11354:11355  t */\n      dup6\n        /* \"backend/contracts/CarbonCreditToken.sol\":11354:11366  t.owedTokens */\n      0x60\n      add\n        /* \"backend/contracts/CarbonCreditToken.sol\":11354:11378  t.owedTokens = shortfall */\n      dup2\n      dup2\n      mstore\n      pop\n      pop\n        /* \"backend/contracts/CarbonCreditToken.sol\":11410:11417  company */\n      dup7\n        /* \"backend/contracts/CarbonCreditToken.sol\":11397:11438  OwedRecorded(company, shortfall, nextDue) */\n      0xffffffffffffffffffffffffffffffffffffffff\n      and\n      0x11044a55b74266e69ae3c73ce38e31edeaab7921f3ca4dd220024931123a50eb\n        /* \"backend/contracts/CarbonCreditToken.sol\":11419:11428  shortfall */\n      dup5\n        /* \"backend/contracts/CarbonCreditToken.sol\":11430:11437  nextDue */\n      dup4\n        /* \"backend/contracts/CarbonCreditToken.sol\":11397:11438  OwedRecorded(company, shortfall, nextDue) */\n      mload(0x40)\n      tag_337\n      swap3\n      swap2\n      swap1\n      tag_188\n      jump\t// in\n    tag_337:\n      mload(0x40)\n      dup1\n      swap2\n      sub\n      swap1\n      log2\n        /* \"backend/contracts/CarbonCreditToken.sol\":10981:11449  {... */\n      pop\n      pop\n      pop\n        /* \"backend/contracts/CarbonCreditToken.sol\":10956:11449  if (burnTokens > toBurn) {... */\n    tag_331:\n        /* \"backend/contracts/CarbonCreditToken.sol\":10550:11455  {... */\n      pop\n        /* \"backend/contracts/CarbonCreditToken.sol\":10460:11455  function _burnAndAccrue(address company, uint256 burnTokens, TempBatch memory t) internal {... */\n      pop\n      pop\n      pop\n      jump\t// out\n        /* \"backend/contracts/CarbonCreditToken.sol\":6069:6285  function _mint(address to, uint256 amount) internal {... */\n    tag_253:\n        /* \"backend/contracts/CarbonCreditToken.sol\":6153:6154  0 */\n      0x00\n        /* \"backend/contracts/CarbonCreditToken.sol\":6139:6155  to != address(0) */\n      0xffffffffffffffffffffffffffffffffffffffff\n      and\n        /* \"backend/contracts/CarbonCreditToken.sol\":6139:6141  to */\n      dup3\n        /* \"backend/contracts/CarbonCreditToken.sol\":6139:6155  to != address(0) */\n      0xffffffffffffffffffffffffffffffffffffffff\n      and\n      sub\n        /* \"backend/contracts/CarbonCreditToken.sol\":6131:6167  require(to != address(0), \"Zero to\") */\n      tag_339\n      jumpi\n      mload(0x40)\n      0x08c379a000000000000000000000000000000000000000000000000000000000\n      dup2\n      mstore\n      0x04\n      add\n      tag_340\n      swap1\n      tag_249\n      jump\t// in\n    tag_340:\n      mload(0x40)\n      dup1\n      swap2\n      sub\n      swap1\n      revert\n    tag_339:\n        /* \"backend/contracts/CarbonCreditToken.sol\":6192:6198  amount */\n      dup1\n        /* \"backend/contracts/CarbonCreditToken.sol\":6177:6188  totalSupply */\n      0x02\n      0x00\n        /* \"backend/contracts/CarbonCreditToken.sol\":6177:6198  totalSupply += amount */\n      dup3\n      dup3\n      sload\n      tag_341\n      swap2\n      swap1\n      tag_293\n      jump\t// in\n    tag_341:\n      swap3\n      pop\n      pop\n      dup2\n      swap1\n      sstore\n      pop\n        /* \"backend/contracts/CarbonCreditToken.sol\":6225:6231  amount */\n      dup1\n        /* \"backend/contracts/CarbonCreditToken.sol\":6208:6217  balanceOf */\n      0x03\n        /* \"backend/contracts/CarbonCreditToken.sol\":6208:6221  balanceOf[to] */\n      0x00\n        /* \"backend/contracts/CarbonCreditToken.sol\":6218:6220  to */\n      dup5\n        /* \"backend/contracts/CarbonCreditToken.sol\":6208:6221  balanceOf[to] */\n      0xffffffffffffffffffffffffffffffffffffffff\n      and\n      0xffffffffffffffffffffffffffffffffffffffff\n      and\n      dup2\n      mstore\n      0x20\n      add\n      swap1\n      dup2\n      mstore\n      0x20\n      add\n      0x00\n      keccak256\n      0x00\n        /* \"backend/contracts/CarbonCreditToken.sol\":6208:6231  balanceOf[to] += amount */\n      dup3\n      dup3\n      sload\n      tag_342\n      swap2\n      swap1\n      tag_293\n      jump\t// in\n    tag_342:\n      swap3\n      pop\n      pop\n      dup2\n      swap1\n      sstore\n      pop\n        /* \"backend/contracts/CarbonCreditToken.sol\":6267:6269  to */\n      dup2\n        /* \"backend/contracts/CarbonCreditToken.sol\":6246:6278  Transfer(address(0), to, amount) */\n      0xffffffffffffffffffffffffffffffffffffffff\n      and\n        /* \"backend/contracts/CarbonCreditToken.sol\":6263:6264  0 */\n      0x00\n        /* \"backend/contracts/CarbonCreditToken.sol\":6246:6278  Transfer(address(0), to, amount) */\n      0xffffffffffffffffffffffffffffffffffffffff\n      and\n      0xddf252ad1be2c89b69c2b068fc378daa952ba7f163c4a11628f55a4df523b3ef\n        /* \"backend/contracts/CarbonCreditToken.sol\":6271:6277  amount */\n      dup4\n        /* \"backend/contracts/CarbonCreditToken.sol\":6246:6278  Transfer(address(0), to, amount) */\n      mload(0x40)\n      tag_343\n      swap2\n      swap1\n      tag_55\n      jump\t// in\n    tag_343:\n      mload(0x40)\n      dup1\n      swap2\n      sub\n      swap1\n      log3\n        /* \"backend/contracts/CarbonCreditToken.sol\":6069:6285  function _mint(address to, uint256 amount) internal {... */\n      pop\n      pop\n      jump\t// out\n    tag_215:\n      mload(0x40)\n      dup1\n      0x80\n      add\n      0x40\n      mstore\n      dup1\n      0x00\n      dup2\n      mstore\n      0x20\n      add\n      0x00\n      dup2\n      mstore\n      0x20\n      add\n      0x00\n      dup2\n      mstore\n      0x20\n      add\n      0x00\n      dup2\n      mstore\n      pop\n      swap1\n      jump\t// out\n    tag_257:\n      mload(0x40)\n      dup1\n      0x0120\n      add\n      0x40\n      mstore\n      dup1\n      0x00\n      dup2\n      mstore\n      0x20\n      add\n      0x00\n      dup2\n      mstore\n      0x20\n      add\n      0x00\n      dup2\n      mstore\n      0x20\n      add\n      0x00\n      dup2\n      mstore\n      0x20\n      add\n      0x00\n      dup2\n      mstore\n      0x20\n      add\n      0x00\n      dup2\n      mstore\n      0x20\n      add\n      0x00\n      dup2\n      mstore\n      0x20\n      add\n      0x00\n      dup2\n      mstore\n      0x20\n      add\n      0x00\n      dup2\n      mstore\n      pop\n      swap1\n      jump\t// out\n        /* \"#utility.yul\":88:205   */\n    tag_345:\n        /* \"#utility.yul\":197:198   */\n      0x00\n        /* \"#utility.yul\":194:195   */\n      0x00\n        /* \"#utility.yul\":187:199   */\n      revert\n        /* \"#utility.yul\":334:460   */\n    tag_347:\n        /* \"#utility.yul\":371:378   */\n      0x00\n        /* \"#utility.yul\":411:453   */\n      0xffffffffffffffffffffffffffffffffffffffff\n        /* \"#utility.yul\":404:409   */\n      dup3\n        /* \"#utility.yul\":400:454   */\n      and\n        /* \"#utility.yul\":389:454   */\n      swap1\n      pop\n        /* \"#utility.yul\":334:460   */\n      swap2\n      swap1\n      pop\n      jump\t// out\n        /* \"#utility.yul\":466:562   */\n    tag_348:\n        /* \"#utility.yul\":503:510   */\n      0x00\n        /* \"#utility.yul\":532:556   */\n      tag_423\n        /* \"#utility.yul\":550:555   */\n      dup3\n        /* \"#utility.yul\":532:556   */\n      tag_347\n      jump\t// in\n    tag_423:\n        /* \"#utility.yul\":521:556   */\n      swap1\n      pop\n        /* \"#utility.yul\":466:562   */\n      swap2\n      swap1\n      pop\n      jump\t// out\n        /* \"#utility.yul\":568:690   */\n    tag_349:\n        /* \"#utility.yul\":641:665   */\n      tag_425\n        /* \"#utility.yul\":659:664   */\n      dup2\n        /* \"#utility.yul\":641:665   */\n      tag_348\n      jump\t// in\n    tag_425:\n        /* \"#utility.yul\":634:639   */\n      dup2\n        /* \"#utility.yul\":631:666   */\n      eq\n        /* \"#utility.yul\":621:684   */\n      tag_426\n      jumpi\n        /* \"#utility.yul\":680:681   */\n      0x00\n        /* \"#utility.yul\":677:678   */\n      0x00\n        /* \"#utility.yul\":670:682   */\n      revert\n        /* \"#utility.yul\":621:684   */\n    tag_426:\n        /* \"#utility.yul\":568:690   */\n      pop\n      jump\t// out\n        /* \"#utility.yul\":696:835   */\n    tag_350:\n        /* \"#utility.yul\":742:747   */\n      0x00\n        /* \"#utility.yul\":780:786   */\n      dup2\n        /* \"#utility.yul\":767:787   */\n      calldataload\n        /* \"#utility.yul\":758:787   */\n      swap1\n      pop\n        /* \"#utility.yul\":796:829   */\n      tag_428\n        /* \"#utility.yul\":823:828   */\n      dup2\n        /* \"#utility.yul\":796:829   */\n      tag_349\n      jump\t// in\n    tag_428:\n        /* \"#utility.yul\":696:835   */\n      swap3\n      swap2\n      pop\n      pop\n      jump\t// out\n        /* \"#utility.yul\":841:918   */\n    tag_351:\n        /* \"#utility.yul\":878:885   */\n      0x00\n        /* \"#utility.yul\":907:912   */\n      dup2\n        /* \"#utility.yul\":896:912   */\n      swap1\n      pop\n        /* \"#utility.yul\":841:918   */\n      swap2\n      swap1\n      pop\n      jump\t// out\n        /* \"#utility.yul\":924:1046   */\n    tag_352:\n        /* \"#utility.yul\":997:1021   */\n      tag_431\n        /* \"#utility.yul\":1015:1020   */\n      dup2\n        /* \"#utility.yul\":997:1021   */\n      tag_351\n      jump\t// in\n    tag_431:\n        /* \"#utility.yul\":990:995   */\n      dup2\n        /* \"#utility.yul\":987:1022   */\n      eq\n        /* \"#utility.yul\":977:1040   */\n      tag_432\n      jumpi\n        /* \"#utility.yul\":1036:1037   */\n      0x00\n        /* \"#utility.yul\":1033:1034   */\n      0x00\n        /* \"#utility.yul\":1026:1038   */\n      revert\n        /* \"#utility.yul\":977:1040   */\n    tag_432:\n        /* \"#utility.yul\":924:1046   */\n      pop\n      jump\t// out\n        /* \"#utility.yul\":1052:1191   */\n    tag_353:\n        /* \"#utility.yul\":1098:1103   */\n      0x00\n        /* \"#utility.yul\":1136:1142   */\n      dup2\n        /* \"#utility.yul\":1123:1143   */\n      calldataload\n        /* \"#utility.yul\":1114:1143   */\n      swap1\n      pop\n        /* \"#utility.yul\":1152:1185   */\n      tag_434\n        /* \"#utility.yul\":1179:1184   */\n      dup2\n        /* \"#utility.yul\":1152:1185   */\n      tag_352\n      jump\t// in\n    tag_434:\n        /* \"#utility.yul\":1052:1191   */\n      swap3\n      swap2\n      pop\n      pop\n      jump\t// out\n        /* \"#utility.yul\":1197:1671   */\n    tag_36:\n        /* \"#utility.yul\":1265:1271   */\n      0x00\n        /* \"#utility.yul\":1273:1279   */\n      0x00\n        /* \"#utility.yul\":1322:1324   */\n      0x40\n        /* \"#utility.yul\":1310:1319   */\n      dup4\n        /* \"#utility.yul\":1301:1308   */\n      dup6\n        /* \"#utility.yul\":1297:1320   */\n      sub\n        /* \"#utility.yul\":1293:1325   */\n      slt\n        /* \"#utility.yul\":1290:1409   */\n      iszero\n      tag_436\n      jumpi\n        /* \"#utility.yul\":1328:1407   */\n      tag_437\n      tag_345\n      jump\t// in\n    tag_437:\n        /* \"#utility.yul\":1290:1409   */\n    tag_436:\n        /* \"#utility.yul\":1448:1449   */\n      0x00\n        /* \"#utility.yul\":1473:1526   */\n      tag_438\n        /* \"#utility.yul\":1518:1525   */\n      dup6\n        /* \"#utility.yul\":1509:1515   */\n      dup3\n        /* \"#utility.yul\":1498:1507   */\n      dup7\n        /* \"#utility.yul\":1494:1516   */\n      add\n        /* \"#utility.yul\":1473:1526   */\n      tag_350\n      jump\t// in\n    tag_438:\n        /* \"#utility.yul\":1463:1526   */\n      swap3\n      pop\n        /* \"#utility.yul\":1419:1536   */\n      pop\n        /* \"#utility.yul\":1575:1577   */\n      0x20\n        /* \"#utility.yul\":1601:1654   */\n      tag_439\n        /* \"#utility.yul\":1646:1653   */\n      dup6\n        /* \"#utility.yul\":1637:1643   */\n      dup3\n        /* \"#utility.yul\":1626:1635   */\n      dup7\n        /* \"#utility.yul\":1622:1644   */\n      add\n        /* \"#utility.yul\":1601:1654   */\n      tag_353\n      jump\t// in\n    tag_439:\n        /* \"#utility.yul\":1591:1654   */\n      swap2\n      pop\n        /* \"#utility.yul\":1546:1664   */\n      pop\n        /* \"#utility.yul\":1197:1671   */\n      swap3\n      pop\n      swap3\n      swap1\n      pop\n      jump\t// out\n        /* \"#utility.yul\":1677:1776   */\n    tag_354:\n        /* \"#utility.yul\":1729:1735   */\n      0x00\n        /* \"#utility.yul\":1763:1768   */\n      dup2\n        /* \"#utility.yul\":1757:1769   */\n      mload\n        /* \"#utility.yul\":1747:1769   */\n      swap1\n      pop\n        /* \"#utility.yul\":1677:1776   */\n      swap2\n      swap1\n      pop\n      jump\t// out\n        /* \"#utility.yul\":1782:1951   */\n    tag_355:\n        /* \"#utility.yul\":1866:1877   */\n      0x00\n        /* \"#utility.yul\":1900:1906   */\n      dup3\n        /* \"#utility.yul\":1895:1898   */\n      dup3\n        /* \"#utility.yul\":1888:1907   */\n      mstore\n        /* \"#utility.yul\":1940:1944   */\n      0x20\n        /* \"#utility.yul\":1935:1938   */\n      dup3\n        /* \"#utility.yul\":1931:1945   */\n      add\n        /* \"#utility.yul\":1916:1945   */\n      swap1\n      pop\n        /* \"#utility.yul\":1782:1951   */\n      swap3\n      swap2\n      pop\n      pop\n      jump\t// out\n        /* \"#utility.yul\":1957:2096   */\n    tag_356:\n        /* \"#utility.yul\":2046:2052   */\n      dup3\n        /* \"#utility.yul\":2041:2044   */\n      dup2\n        /* \"#utility.yul\":2036:2039   */\n      dup4\n        /* \"#utility.yul\":2030:2053   */\n      mcopy\n        /* \"#utility.yul\":2087:2088   */\n      0x00\n        /* \"#utility.yul\":2078:2084   */\n      dup4\n        /* \"#utility.yul\":2073:2076   */\n      dup4\n        /* \"#utility.yul\":2069:2085   */\n      add\n        /* \"#utility.yul\":2062:2089   */\n      mstore\n        /* \"#utility.yul\":1957:2096   */\n      pop\n      pop\n      pop\n      jump\t// out\n        /* \"#utility.yul\":2102:2204   */\n    tag_357:\n        /* \"#utility.yul\":2143:2149   */\n      0x00\n        /* \"#utility.yul\":2194:2196   */\n      0x1f\n        /* \"#utility.yul\":2190:2197   */\n      not\n        /* \"#utility.yul\":2185:2187   */\n      0x1f\n        /* \"#utility.yul\":2178:2183   */\n      dup4\n        /* \"#utility.yul\":2174:2188   */\n      add\n        /* \"#utility.yul\":2170:2198   */\n      and\n        /* \"#utility.yul\":2160:2198   */\n      swap1\n      pop\n        /* \"#utility.yul\":2102:2204   */\n      swap2\n      swap1\n      pop\n      jump\t// out\n        /* \"#utility.yul\":2210:2587   */\n    tag_358:\n        /* \"#utility.yul\":2298:2301   */\n      0x00\n        /* \"#utility.yul\":2326:2365   */\n      tag_445\n        /* \"#utility.yul\":2359:2364   */\n      dup3\n        /* \"#utility.yul\":2326:2365   */\n      tag_354\n      jump\t// in\n    tag_445:\n        /* \"#utility.yul\":2381:2452   */\n      tag_446\n        /* \"#utility.yul\":2445:2451   */\n      dup2\n        /* \"#utility.yul\":2440:2443   */\n      dup6\n        /* \"#utility.yul\":2381:2452   */\n      tag_355\n      jump\t// in\n    tag_446:\n        /* \"#utility.yul\":2374:2452   */\n      swap4\n      pop\n        /* \"#utility.yul\":2461:2526   */\n      tag_447\n        /* \"#utility.yul\":2519:2525   */\n      dup2\n        /* \"#utility.yul\":2514:2517   */\n      dup6\n        /* \"#utility.yul\":2507:2511   */\n      0x20\n        /* \"#utility.yul\":2500:2505   */\n      dup7\n        /* \"#utility.yul\":2496:2512   */\n      add\n        /* \"#utility.yul\":2461:2526   */\n      tag_356\n      jump\t// in\n    tag_447:\n        /* \"#utility.yul\":2551:2580   */\n      tag_448\n        /* \"#utility.yul\":2573:2579   */\n      dup2\n        /* \"#utility.yul\":2551:2580   */\n      tag_357\n      jump\t// in\n    tag_448:\n        /* \"#utility.yul\":2546:2549   */\n      dup5\n        /* \"#utility.yul\":2542:2581   */\n      add\n        /* \"#utility.yul\":2535:2581   */\n      swap2\n      pop\n        /* \"#utility.yul\":2302:2587   */\n      pop\n        /* \"#utility.yul\":2210:2587   */\n      swap3\n      swap2\n      pop\n      pop\n      jump\t// out\n        /* \"#utility.yul\":2593:2906   */\n    tag_41:\n        /* \"#utility.yul\":2706:2710   */\n      0x00\n        /* \"#utility.yul\":2744:2746   */\n      0x20\n        /* \"#utility.yul\":2733:2742   */\n      dup3\n        /* \"#utility.yul\":2729:2747   */\n      add\n        /* \"#utility.yul\":2721:2747   */\n      swap1\n      pop\n        /* \"#utility.yul\":2793:2802   */\n      dup2\n        /* \"#utility.yul\":2787:2791   */\n      dup2\n        /* \"#utility.yul\":2783:2803   */\n      sub\n        /* \"#utility.yul\":2779:2780   */\n      0x00\n        /* \"#utility.yul\":2768:2777   */\n      dup4\n        /* \"#utility.yul\":2764:2781   */\n      add\n        /* \"#utility.yul\":2757:2804   */\n      mstore\n        /* \"#utility.yul\":2821:2899   */\n      tag_450\n        /* \"#utility.yul\":2894:2898   */\n      dup2\n        /* \"#utility.yul\":2885:2891   */\n      dup5\n        /* \"#utility.yul\":2821:2899   */\n      tag_358\n      jump\t// in\n    tag_450:\n        /* \"#utility.yul\":2813:2899   */\n      swap1\n      pop\n        /* \"#utility.yul\":2593:2906   */\n      swap3\n      swap2\n      pop\n      pop\n      jump\t// out\n        /* \"#utility.yul\":2912:3002   */\n    tag_359:\n        /* \"#utility.yul\":2946:2953   */\n      0x00\n        /* \"#utility.yul\":2989:2994   */\n      dup2\n        /* \"#utility.yul\":2982:2995   */\n      iszero\n        /* \"#utility.yul\":2975:2996   */\n      iszero\n        /* \"#utility.yul\":2964:2996   */\n      swap1\n      pop\n        /* \"#utility.yul\":2912:3002   */\n      swap2\n      swap1\n      pop\n      jump\t// out\n        /* \"#utility.yul\":3008:3117   */\n    tag_360:\n        /* \"#utility.yul\":3089:3110   */\n      tag_453\n        /* \"#utility.yul\":3104:3109   */\n      dup2\n        /* \"#utility.yul\":3089:3110   */\n      tag_359\n      jump\t// in\n    tag_453:\n        /* \"#utility.yul\":3084:3087   */\n      dup3\n        /* \"#utility.yul\":3077:3111   */\n      mstore\n        /* \"#utility.yul\":3008:3117   */\n      pop\n      pop\n      jump\t// out\n        /* \"#utility.yul\":3123:3333   */\n    tag_46:\n        /* \"#utility.yul\":3210:3214   */\n      0x00\n        /* \"#utility.yul\":3248:3250   */\n      0x20\n        /* \"#utility.yul\":3237:3246   */\n      dup3\n        /* \"#utility.yul\":3233:3251   */\n      add\n        /* \"#utility.yul\":3225:3251   */\n      swap1\n      pop\n        /* \"#utility.yul\":3261:3326   */\n      tag_455\n        /* \"#utility.yul\":3323:3324   */\n      0x00\n        /* \"#utility.yul\":3312:3321   */\n      dup4\n        /* \"#utility.yul\":3308:3325   */\n      add\n        /* \"#utility.yul\":3299:3305   */\n      dup5\n        /* \"#utility.yul\":3261:3326   */\n      tag_360\n      jump\t// in\n    tag_455:\n        /* \"#utility.yul\":3123:3333   */\n      swap3\n      swap2\n      pop\n      pop\n      jump\t// out\n        /* \"#utility.yul\":3339:3457   */\n    tag_361:\n        /* \"#utility.yul\":3426:3450   */\n      tag_457\n        /* \"#utility.yul\":3444:3449   */\n      dup2\n        /* \"#utility.yul\":3426:3450   */\n      tag_351\n      jump\t// in\n    tag_457:\n        /* \"#utility.yul\":3421:3424   */\n      dup3\n        /* \"#utility.yul\":3414:3451   */\n      mstore\n        /* \"#utility.yul\":3339:3457   */\n      pop\n      pop\n      jump\t// out\n        /* \"#utility.yul\":3463:3540   */\n    tag_362:\n        /* \"#utility.yul\":3500:3507   */\n      0x00\n        /* \"#utility.yul\":3529:3534   */\n      dup2\n        /* \"#utility.yul\":3518:3534   */\n      swap1\n      pop\n        /* \"#utility.yul\":3463:3540   */\n      swap2\n      swap1\n      pop\n      jump\t// out\n        /* \"#utility.yul\":3546:3664   */\n    tag_363:\n        /* \"#utility.yul\":3633:3657   */\n      tag_460\n        /* \"#utility.yul\":3651:3656   */\n      dup2\n        /* \"#utility.yul\":3633:3657   */\n      tag_362\n      jump\t// in\n    tag_460:\n        /* \"#utility.yul\":3628:3631   */\n      dup3\n        /* \"#utility.yul\":3621:3658   */\n      mstore\n        /* \"#utility.yul\":3546:3664   */\n      pop\n      pop\n      jump\t// out\n        /* \"#utility.yul\":3670:3746   */\n    tag_364:\n        /* \"#utility.yul\":3706:3713   */\n      0x00\n        /* \"#utility.yul\":3735:3740   */\n      dup2\n        /* \"#utility.yul\":3724:3740   */\n      swap1\n      pop\n        /* \"#utility.yul\":3670:3746   */\n      swap2\n      swap1\n      pop\n      jump\t// out\n        /* \"#utility.yul\":3752:3867   */\n    tag_365:\n        /* \"#utility.yul\":3837:3860   */\n      tag_463\n        /* \"#utility.yul\":3854:3859   */\n      dup2\n        /* \"#utility.yul\":3837:3860   */\n      tag_364\n      jump\t// in\n    tag_463:\n        /* \"#utility.yul\":3832:3835   */\n      dup3\n        /* \"#utility.yul\":3825:3861   */\n      mstore\n        /* \"#utility.yul\":3752:3867   */\n      pop\n      pop\n      jump\t// out\n        /* \"#utility.yul\":3873:4977   */\n    tag_51:\n        /* \"#utility.yul\":4188:4192   */\n      0x00\n        /* \"#utility.yul\":4226:4229   */\n      0x0120\n        /* \"#utility.yul\":4215:4224   */\n      dup3\n        /* \"#utility.yul\":4211:4230   */\n      add\n        /* \"#utility.yul\":4203:4230   */\n      swap1\n      pop\n        /* \"#utility.yul\":4240:4311   */\n      tag_465\n        /* \"#utility.yul\":4308:4309   */\n      0x00\n        /* \"#utility.yul\":4297:4306   */\n      dup4\n        /* \"#utility.yul\":4293:4310   */\n      add\n        /* \"#utility.yul\":4284:4290   */\n      dup13\n        /* \"#utility.yul\":4240:4311   */\n      tag_361\n      jump\t// in\n    tag_465:\n        /* \"#utility.yul\":4321:4393   */\n      tag_466\n        /* \"#utility.yul\":4389:4391   */\n      0x20\n        /* \"#utility.yul\":4378:4387   */\n      dup4\n        /* \"#utility.yul\":4374:4392   */\n      add\n        /* \"#utility.yul\":4365:4371   */\n      dup12\n        /* \"#utility.yul\":4321:4393   */\n      tag_361\n      jump\t// in\n    tag_466:\n        /* \"#utility.yul\":4403:4475   */\n      tag_467\n        /* \"#utility.yul\":4471:4473   */\n      0x40\n        /* \"#utility.yul\":4460:4469   */\n      dup4\n        /* \"#utility.yul\":4456:4474   */\n      add\n        /* \"#utility.yul\":4447:4453   */\n      dup11\n        /* \"#utility.yul\":4403:4475   */\n      tag_361\n      jump\t// in\n    tag_467:\n        /* \"#utility.yul\":4485:4557   */\n      tag_468\n        /* \"#utility.yul\":4553:4555   */\n      0x60\n        /* \"#utility.yul\":4542:4551   */\n      dup4\n        /* \"#utility.yul\":4538:4556   */\n      add\n        /* \"#utility.yul\":4529:4535   */\n      dup10\n        /* \"#utility.yul\":4485:4557   */\n      tag_361\n      jump\t// in\n    tag_468:\n        /* \"#utility.yul\":4567:4640   */\n      tag_469\n        /* \"#utility.yul\":4635:4638   */\n      0x80\n        /* \"#utility.yul\":4624:4633   */\n      dup4\n        /* \"#utility.yul\":4620:4639   */\n      add\n        /* \"#utility.yul\":4611:4617   */\n      dup9\n        /* \"#utility.yul\":4567:4640   */\n      tag_363\n      jump\t// in\n    tag_469:\n        /* \"#utility.yul\":4650:4721   */\n      tag_470\n        /* \"#utility.yul\":4716:4719   */\n      0xa0\n        /* \"#utility.yul\":4705:4714   */\n      dup4\n        /* \"#utility.yul\":4701:4720   */\n      add\n        /* \"#utility.yul\":4692:4698   */\n      dup8\n        /* \"#utility.yul\":4650:4721   */\n      tag_365\n      jump\t// in\n    tag_470:\n        /* \"#utility.yul\":4731:4804   */\n      tag_471\n        /* \"#utility.yul\":4799:4802   */\n      0xc0\n        /* \"#utility.yul\":4788:4797   */\n      dup4\n        /* \"#utility.yul\":4784:4803   */\n      add\n        /* \"#utility.yul\":4775:4781   */\n      dup7\n        /* \"#utility.yul\":4731:4804   */\n      tag_361\n      jump\t// in\n    tag_471:\n        /* \"#utility.yul\":4814:4887   */\n      tag_472\n        /* \"#utility.yul\":4882:4885   */\n      0xe0\n        /* \"#utility.yul\":4871:4880   */\n      dup4\n        /* \"#utility.yul\":4867:4886   */\n      add\n        /* \"#utility.yul\":4858:4864   */\n      dup6\n        /* \"#utility.yul\":4814:4887   */\n      tag_361\n      jump\t// in\n    tag_472:\n        /* \"#utility.yul\":4897:4970   */\n      tag_473\n        /* \"#utility.yul\":4965:4968   */\n      0x0100\n        /* \"#utility.yul\":4954:4963   */\n      dup4\n        /* \"#utility.yul\":4950:4969   */\n      add\n        /* \"#utility.yul\":4941:4947   */\n      dup5\n        /* \"#utility.yul\":4897:4970   */\n      tag_363\n      jump\t// in\n    tag_473:\n        /* \"#utility.yul\":3873:4977   */\n      swap11\n      swap10\n      pop\n      pop\n      pop\n      pop\n      pop\n      pop\n      pop\n      pop\n      pop\n      pop\n      jump\t// out\n        /* \"#utility.yul\":4983:5205   */\n    tag_55:\n        /* \"#utility.yul\":5076:5080   */\n      0x00\n        /* \"#utility.yul\":5114:5116   */\n      0x20\n        /* \"#utility.yul\":5103:5112   */\n      dup3\n        /* \"#utility.yul\":5099:5117   */\n      add\n        /* \"#utility.yul\":5091:5117   */\n      swap1\n      pop\n        /* \"#utility.yul\":5127:5198   */\n      tag_475\n        /* \"#utility.yul\":5195:5196   */\n      0x00\n        /* \"#utility.yul\":5184:5193   */\n      dup4\n        /* \"#utility.yul\":5180:5197   */\n      add\n        /* \"#utility.yul\":5171:5177   */\n      dup5\n        /* \"#utility.yul\":5127:5198   */\n      tag_361\n      jump\t// in\n    tag_475:\n        /* \"#utility.yul\":4983:5205   */\n      swap3\n      swap2\n      pop\n      pop\n      jump\t// out\n        /* \"#utility.yul\":5211:5830   */\n    tag_61:\n        /* \"#utility.yul\":5288:5294   */\n      0x00\n        /* \"#utility.yul\":5296:5302   */\n      0x00\n        /* \"#utility.yul\":5304:5310   */\n      0x00\n        /* \"#utility.yul\":5353:5355   */\n      0x60\n        /* \"#utility.yul\":5341:5350   */\n      dup5\n        /* \"#utility.yul\":5332:5339   */\n      dup7\n        /* \"#utility.yul\":5328:5351   */\n      sub\n        /* \"#utility.yul\":5324:5356   */\n      slt\n        /* \"#utility.yul\":5321:5440   */\n      iszero\n      tag_477\n      jumpi\n        /* \"#utility.yul\":5359:5438   */\n      tag_478\n      tag_345\n      jump\t// in\n    tag_478:\n        /* \"#utility.yul\":5321:5440   */\n    tag_477:\n        /* \"#utility.yul\":5479:5480   */\n      0x00\n        /* \"#utility.yul\":5504:5557   */\n      tag_479\n        /* \"#utility.yul\":5549:5556   */\n      dup7\n        /* \"#utility.yul\":5540:5546   */\n      dup3\n        /* \"#utility.yul\":5529:5538   */\n      dup8\n        /* \"#utility.yul\":5525:5547   */\n      add\n        /* \"#utility.yul\":5504:5557   */\n      tag_350\n      jump\t// in\n    tag_479:\n        /* \"#utility.yul\":5494:5557   */\n      swap4\n      pop\n        /* \"#utility.yul\":5450:5567   */\n      pop\n        /* \"#utility.yul\":5606:5608   */\n      0x20\n        /* \"#utility.yul\":5632:5685   */\n      tag_480\n        /* \"#utility.yul\":5677:5684   */\n      dup7\n        /* \"#utility.yul\":5668:5674   */\n      dup3\n        /* \"#utility.yul\":5657:5666   */\n      dup8\n        /* \"#utility.yul\":5653:5675   */\n      add\n        /* \"#utility.yul\":5632:5685   */\n      tag_350\n      jump\t// in\n    tag_480:\n        /* \"#utility.yul\":5622:5685   */\n      swap3\n      pop\n        /* \"#utility.yul\":5577:5695   */\n      pop\n        /* \"#utility.yul\":5734:5736   */\n      0x40\n        /* \"#utility.yul\":5760:5813   */\n      tag_481\n        /* \"#utility.yul\":5805:5812   */\n      dup7\n        /* \"#utility.yul\":5796:5802   */\n      dup3\n        /* \"#utility.yul\":5785:5794   */\n      dup8\n        /* \"#utility.yul\":5781:5803   */\n      add\n        /* \"#utility.yul\":5760:5813   */\n      tag_353\n      jump\t// in\n    tag_481:\n        /* \"#utility.yul\":5750:5813   */\n      swap2\n      pop\n        /* \"#utility.yul\":5705:5823   */\n      pop\n        /* \"#utility.yul\":5211:5830   */\n      swap3\n      pop\n      swap3\n      pop\n      swap3\n      jump\t// out\n        /* \"#utility.yul\":5836:5922   */\n    tag_366:\n        /* \"#utility.yul\":5871:5878   */\n      0x00\n        /* \"#utility.yul\":5911:5915   */\n      0xff\n        /* \"#utility.yul\":5904:5909   */\n      dup3\n        /* \"#utility.yul\":5900:5916   */\n      and\n        /* \"#utility.yul\":5889:5916   */\n      swap1\n      pop\n        /* \"#utility.yul\":5836:5922   */\n      swap2\n      swap1\n      pop\n      jump\t// out\n        /* \"#utility.yul\":5928:6040   */\n    tag_367:\n        /* \"#utility.yul\":6011:6033   */\n      tag_484\n        /* \"#utility.yul\":6027:6032   */\n      dup2\n        /* \"#utility.yul\":6011:6033   */\n      tag_366\n      jump\t// in\n    tag_484:\n        /* \"#utility.yul\":6006:6009   */\n      dup3\n        /* \"#utility.yul\":5999:6034   */\n      mstore\n        /* \"#utility.yul\":5928:6040   */\n      pop\n      pop\n      jump\t// out\n        /* \"#utility.yul\":6046:6260   */\n    tag_67:\n        /* \"#utility.yul\":6135:6139   */\n      0x00\n        /* \"#utility.yul\":6173:6175   */\n      0x20\n        /* \"#utility.yul\":6162:6171   */\n      dup3\n        /* \"#utility.yul\":6158:6176   */\n      add\n        /* \"#utility.yul\":6150:6176   */\n      swap1\n      pop\n        /* \"#utility.yul\":6186:6253   */\n      tag_486\n        /* \"#utility.yul\":6250:6251   */\n      0x00\n        /* \"#utility.yul\":6239:6248   */\n      dup4\n        /* \"#utility.yul\":6235:6252   */\n      add\n        /* \"#utility.yul\":6226:6232   */\n      dup5\n        /* \"#utility.yul\":6186:6253   */\n      tag_367\n      jump\t// in\n    tag_486:\n        /* \"#utility.yul\":6046:6260   */\n      swap3\n      swap2\n      pop\n      pop\n      jump\t// out\n        /* \"#utility.yul\":6266:6595   */\n    tag_70:\n        /* \"#utility.yul\":6325:6331   */\n      0x00\n        /* \"#utility.yul\":6374:6376   */\n      0x20\n        /* \"#utility.yul\":6362:6371   */\n      dup3\n        /* \"#utility.yul\":6353:6360   */\n      dup5\n        /* \"#utility.yul\":6349:6372   */\n      sub\n        /* \"#utility.yul\":6345:6377   */\n      slt\n        /* \"#utility.yul\":6342:6461   */\n      iszero\n      tag_488\n      jumpi\n        /* \"#utility.yul\":6380:6459   */\n      tag_489\n      tag_345\n      jump\t// in\n    tag_489:\n        /* \"#utility.yul\":6342:6461   */\n    tag_488:\n        /* \"#utility.yul\":6500:6501   */\n      0x00\n        /* \"#utility.yul\":6525:6578   */\n      tag_490\n        /* \"#utility.yul\":6570:6577   */\n      dup5\n        /* \"#utility.yul\":6561:6567   */\n      dup3\n        /* \"#utility.yul\":6550:6559   */\n      dup6\n        /* \"#utility.yul\":6546:6568   */\n      add\n        /* \"#utility.yul\":6525:6578   */\n      tag_353\n      jump\t// in\n    tag_490:\n        /* \"#utility.yul\":6515:6578   */\n      swap2\n      pop\n        /* \"#utility.yul\":6471:6588   */\n      pop\n        /* \"#utility.yul\":6266:6595   */\n      swap3\n      swap2\n      pop\n      pop\n      jump\t// out\n        /* \"#utility.yul\":6601:6930   */\n    tag_74:\n        /* \"#utility.yul\":6660:6666   */\n      0x00\n        /* \"#utility.yul\":6709:6711   */\n      0x20\n        /* \"#utility.yul\":6697:6706   */\n      dup3\n        /* \"#utility.yul\":6688:6695   */\n      dup5\n        /* \"#utility.yul\":6684:6707   */\n      sub\n        /* \"#utility.yul\":6680:6712   */\n      slt\n        /* \"#utility.yul\":6677:6796   */\n      iszero\n      tag_492\n      jumpi\n        /* \"#utility.yul\":6715:6794   */\n      tag_493\n      tag_345\n      jump\t// in\n    tag_493:\n        /* \"#utility.yul\":6677:6796   */\n    tag_492:\n        /* \"#utility.yul\":6835:6836   */\n      0x00\n        /* \"#utility.yul\":6860:6913   */\n      tag_494\n        /* \"#utility.yul\":6905:6912   */\n      dup5\n        /* \"#utility.yul\":6896:6902   */\n      dup3\n        /* \"#utility.yul\":6885:6894   */\n      dup6\n        /* \"#utility.yul\":6881:6903   */\n      add\n        /* \"#utility.yul\":6860:6913   */\n      tag_350\n      jump\t// in\n    tag_494:\n        /* \"#utility.yul\":6850:6913   */\n      swap2\n      pop\n        /* \"#utility.yul\":6806:6923   */\n      pop\n        /* \"#utility.yul\":6601:6930   */\n      swap3\n      swap2\n      pop\n      pop\n      jump\t// out\n        /* \"#utility.yul\":6936:6996   */\n    tag_368:\n        /* \"#utility.yul\":6964:6967   */\n      0x00\n        /* \"#utility.yul\":6985:6990   */\n      dup2\n        /* \"#utility.yul\":6978:6990   */\n      swap1\n      pop\n        /* \"#utility.yul\":6936:6996   */\n      swap2\n      swap1\n      pop\n      jump\t// out\n        /* \"#utility.yul\":7002:7144   */\n    tag_369:\n        /* \"#utility.yul\":7052:7061   */\n      0x00\n        /* \"#utility.yul\":7085:7138   */\n      tag_497\n        /* \"#utility.yul\":7103:7137   */\n      tag_498\n        /* \"#utility.yul\":7112:7136   */\n      tag_499\n        /* \"#utility.yul\":7130:7135   */\n      dup5\n        /* \"#utility.yul\":7112:7136   */\n      tag_347\n      jump\t// in\n    tag_499:\n        /* \"#utility.yul\":7103:7137   */\n      tag_368\n      jump\t// in\n    tag_498:\n        /* \"#utility.yul\":7085:7138   */\n      tag_347\n      jump\t// in\n    tag_497:\n        /* \"#utility.yul\":7072:7138   */\n      swap1\n      pop\n        /* \"#utility.yul\":7002:7144   */\n      swap2\n      swap1\n      pop\n      jump\t// out\n        /* \"#utility.yul\":7150:7276   */\n    tag_370:\n        /* \"#utility.yul\":7200:7209   */\n      0x00\n        /* \"#utility.yul\":7233:7270   */\n      tag_501\n        /* \"#utility.yul\":7264:7269   */\n      dup3\n        /* \"#utility.yul\":7233:7270   */\n      tag_369\n      jump\t// in\n    tag_501:\n        /* \"#utility.yul\":7220:7270   */\n      swap1\n      pop\n        /* \"#utility.yul\":7150:7276   */\n      swap2\n      swap1\n      pop\n      jump\t// out\n        /* \"#utility.yul\":7282:7430   */\n    tag_371:\n        /* \"#utility.yul\":7354:7363   */\n      0x00\n        /* \"#utility.yul\":7387:7424   */\n      tag_503\n        /* \"#utility.yul\":7418:7423   */\n      dup3\n        /* \"#utility.yul\":7387:7424   */\n      tag_370\n      jump\t// in\n    tag_503:\n        /* \"#utility.yul\":7374:7424   */\n      swap1\n      pop\n        /* \"#utility.yul\":7282:7430   */\n      swap2\n      swap1\n      pop\n      jump\t// out\n        /* \"#utility.yul\":7436:7611   */\n    tag_372:\n        /* \"#utility.yul\":7545:7604   */\n      tag_505\n        /* \"#utility.yul\":7598:7603   */\n      dup2\n        /* \"#utility.yul\":7545:7604   */\n      tag_371\n      jump\t// in\n    tag_505:\n        /* \"#utility.yul\":7540:7543   */\n      dup3\n        /* \"#utility.yul\":7533:7605   */\n      mstore\n        /* \"#utility.yul\":7436:7611   */\n      pop\n      pop\n      jump\t// out\n        /* \"#utility.yul\":7617:7883   */\n    tag_87:\n        /* \"#utility.yul\":7732:7736   */\n      0x00\n        /* \"#utility.yul\":7770:7772   */\n      0x20\n        /* \"#utility.yul\":7759:7768   */\n      dup3\n        /* \"#utility.yul\":7755:7773   */\n      add\n        /* \"#utility.yul\":7747:7773   */\n      swap1\n      pop\n        /* \"#utility.yul\":7783:7876   */\n      tag_507\n        /* \"#utility.yul\":7873:7874   */\n      0x00\n        /* \"#utility.yul\":7862:7871   */\n      dup4\n        /* \"#utility.yul\":7858:7875   */\n      add\n        /* \"#utility.yul\":7849:7855   */\n      dup5\n        /* \"#utility.yul\":7783:7876   */\n      tag_372\n      jump\t// in\n    tag_507:\n        /* \"#utility.yul\":7617:7883   */\n      swap3\n      swap2\n      pop\n      pop\n      jump\t// out\n        /* \"#utility.yul\":7889:8011   */\n    tag_373:\n        /* \"#utility.yul\":7962:7986   */\n      tag_509\n        /* \"#utility.yul\":7980:7985   */\n      dup2\n        /* \"#utility.yul\":7962:7986   */\n      tag_362\n      jump\t// in\n    tag_509:\n        /* \"#utility.yul\":7955:7960   */\n      dup2\n        /* \"#utility.yul\":7952:7987   */\n      eq\n        /* \"#utility.yul\":7942:8005   */\n      tag_510\n      jumpi\n        /* \"#utility.yul\":8001:8002   */\n      0x00\n        /* \"#utility.yul\":7998:7999   */\n      0x00\n        /* \"#utility.yul\":7991:8003   */\n      revert\n        /* \"#utility.yul\":7942:8005   */\n    tag_510:\n        /* \"#utility.yul\":7889:8011   */\n      pop\n      jump\t// out\n        /* \"#utility.yul\":8017:8156   */\n    tag_374:\n        /* \"#utility.yul\":8063:8068   */\n      0x00\n        /* \"#utility.yul\":8101:8107   */\n      dup2\n        /* \"#utility.yul\":8088:8108   */\n      calldataload\n        /* \"#utility.yul\":8079:8108   */\n      swap1\n      pop\n        /* \"#utility.yul\":8117:8150   */\n      tag_512\n        /* \"#utility.yul\":8144:8149   */\n      dup2\n        /* \"#utility.yul\":8117:8150   */\n      tag_373\n      jump\t// in\n    tag_512:\n        /* \"#utility.yul\":8017:8156   */\n      swap3\n      swap2\n      pop\n      pop\n      jump\t// out\n        /* \"#utility.yul\":8162:9219   */\n    tag_90:\n        /* \"#utility.yul\":8266:8272   */\n      0x00\n        /* \"#utility.yul\":8274:8280   */\n      0x00\n        /* \"#utility.yul\":8282:8288   */\n      0x00\n        /* \"#utility.yul\":8290:8296   */\n      0x00\n        /* \"#utility.yul\":8298:8304   */\n      0x00\n        /* \"#utility.yul\":8306:8312   */\n      0x00\n        /* \"#utility.yul\":8355:8358   */\n      0xc0\n        /* \"#utility.yul\":8343:8352   */\n      dup8\n        /* \"#utility.yul\":8334:8341   */\n      dup10\n        /* \"#utility.yul\":8330:8353   */\n      sub\n        /* \"#utility.yul\":8326:8359   */\n      slt\n        /* \"#utility.yul\":8323:8443   */\n      iszero\n      tag_514\n      jumpi\n        /* \"#utility.yul\":8362:8441   */\n      tag_515\n      tag_345\n      jump\t// in\n    tag_515:\n        /* \"#utility.yul\":8323:8443   */\n    tag_514:\n        /* \"#utility.yul\":8482:8483   */\n      0x00\n        /* \"#utility.yul\":8507:8560   */\n      tag_516\n        /* \"#utility.yul\":8552:8559   */\n      dup10\n        /* \"#utility.yul\":8543:8549   */\n      dup3\n        /* \"#utility.yul\":8532:8541   */\n      dup11\n        /* \"#utility.yul\":8528:8550   */\n      add\n        /* \"#utility.yul\":8507:8560   */\n      tag_350\n      jump\t// in\n    tag_516:\n        /* \"#utility.yul\":8497:8560   */\n      swap7\n      pop\n        /* \"#utility.yul\":8453:8570   */\n      pop\n        /* \"#utility.yul\":8609:8611   */\n      0x20\n        /* \"#utility.yul\":8635:8688   */\n      tag_517\n        /* \"#utility.yul\":8680:8687   */\n      dup10\n        /* \"#utility.yul\":8671:8677   */\n      dup3\n        /* \"#utility.yul\":8660:8669   */\n      dup11\n        /* \"#utility.yul\":8656:8678   */\n      add\n        /* \"#utility.yul\":8635:8688   */\n      tag_353\n      jump\t// in\n    tag_517:\n        /* \"#utility.yul\":8625:8688   */\n      swap6\n      pop\n        /* \"#utility.yul\":8580:8698   */\n      pop\n        /* \"#utility.yul\":8737:8739   */\n      0x40\n        /* \"#utility.yul\":8763:8816   */\n      tag_518\n        /* \"#utility.yul\":8808:8815   */\n      dup10\n        /* \"#utility.yul\":8799:8805   */\n      dup3\n        /* \"#utility.yul\":8788:8797   */\n      dup11\n        /* \"#utility.yul\":8784:8806   */\n      add\n        /* \"#utility.yul\":8763:8816   */\n      tag_353\n      jump\t// in\n    tag_518:\n        /* \"#utility.yul\":8753:8816   */\n      swap5\n      pop\n        /* \"#utility.yul\":8708:8826   */\n      pop\n        /* \"#utility.yul\":8865:8867   */\n      0x60\n        /* \"#utility.yul\":8891:8944   */\n      tag_519\n        /* \"#utility.yul\":8936:8943   */\n      dup10\n        /* \"#utility.yul\":8927:8933   */\n      dup3\n        /* \"#utility.yul\":8916:8925   */\n      dup11\n        /* \"#utility.yul\":8912:8934   */\n      add\n        /* \"#utility.yul\":8891:8944   */\n      tag_353\n      jump\t// in\n    tag_519:\n        /* \"#utility.yul\":8881:8944   */\n      swap4\n      pop\n        /* \"#utility.yul\":8836:8954   */\n      pop\n        /* \"#utility.yul\":8993:8996   */\n      0x80\n        /* \"#utility.yul\":9020:9073   */\n      tag_520\n        /* \"#utility.yul\":9065:9072   */\n      dup10\n        /* \"#utility.yul\":9056:9062   */\n      dup3\n        /* \"#utility.yul\":9045:9054   */\n      dup11\n        /* \"#utility.yul\":9041:9063   */\n      add\n        /* \"#utility.yul\":9020:9073   */\n      tag_374\n      jump\t// in\n    tag_520:\n        /* \"#utility.yul\":9010:9073   */\n      swap3\n      pop\n        /* \"#utility.yul\":8964:9083   */\n      pop\n        /* \"#utility.yul\":9122:9125   */\n      0xa0\n        /* \"#utility.yul\":9149:9202   */\n      tag_521\n        /* \"#utility.yul\":9194:9201   */\n      dup10\n        /* \"#utility.yul\":9185:9191   */\n      dup3\n        /* \"#utility.yul\":9174:9183   */\n      dup11\n        /* \"#utility.yul\":9170:9192   */\n      add\n        /* \"#utility.yul\":9149:9202   */\n      tag_374\n      jump\t// in\n    tag_521:\n        /* \"#utility.yul\":9139:9202   */\n      swap2\n      pop\n        /* \"#utility.yul\":9093:9212   */\n      pop\n        /* \"#utility.yul\":8162:9219   */\n      swap3\n      swap6\n      pop\n      swap3\n      swap6\n      pop\n      swap3\n      swap6\n      jump\t// out\n        /* \"#utility.yul\":9225:9554   */\n    tag_94:\n        /* \"#utility.yul\":9284:9290   */\n      0x00\n        /* \"#utility.yul\":9333:9335   */\n      0x20\n        /* \"#utility.yul\":9321:9330   */\n      dup3\n        /* \"#utility.yul\":9312:9319   */\n      dup5\n        /* \"#utility.yul\":9308:9331   */\n      sub\n        /* \"#utility.yul\":9304:9336   */\n      slt\n        /* \"#utility.yul\":9301:9420   */\n      iszero\n      tag_523\n      jumpi\n        /* \"#utility.yul\":9339:9418   */\n      tag_524\n      tag_345\n      jump\t// in\n    tag_524:\n        /* \"#utility.yul\":9301:9420   */\n    tag_523:\n        /* \"#utility.yul\":9459:9460   */\n      0x00\n        /* \"#utility.yul\":9484:9537   */\n      tag_525\n        /* \"#utility.yul\":9529:9536   */\n      dup5\n        /* \"#utility.yul\":9520:9526   */\n      dup3\n        /* \"#utility.yul\":9509:9518   */\n      dup6\n        /* \"#utility.yul\":9505:9527   */\n      add\n        /* \"#utility.yul\":9484:9537   */\n      tag_374\n      jump\t// in\n    tag_525:\n        /* \"#utility.yul\":9474:9537   */\n      swap2\n      pop\n        /* \"#utility.yul\":9430:9547   */\n      pop\n        /* \"#utility.yul\":9225:9554   */\n      swap3\n      swap2\n      pop\n      pop\n      jump\t// out\n        /* \"#utility.yul\":9560:9678   */\n    tag_375:\n        /* \"#utility.yul\":9647:9671   */\n      tag_527\n        /* \"#utility.yul\":9665:9670   */\n      dup2\n        /* \"#utility.yul\":9647:9671   */\n      tag_348\n      jump\t// in\n    tag_527:\n        /* \"#utility.yul\":9642:9645   */\n      dup3\n        /* \"#utility.yul\":9635:9672   */\n      mstore\n        /* \"#utility.yul\":9560:9678   */\n      pop\n      pop\n      jump\t// out\n        /* \"#utility.yul\":9684:9906   */\n    tag_100:\n        /* \"#utility.yul\":9777:9781   */\n      0x00\n        /* \"#utility.yul\":9815:9817   */\n      0x20\n        /* \"#utility.yul\":9804:9813   */\n      dup3\n        /* \"#utility.yul\":9800:9818   */\n      add\n        /* \"#utility.yul\":9792:9818   */\n      swap1\n      pop\n        /* \"#utility.yul\":9828:9899   */\n      tag_529\n        /* \"#utility.yul\":9896:9897   */\n      0x00\n        /* \"#utility.yul\":9885:9894   */\n      dup4\n        /* \"#utility.yul\":9881:9898   */\n      add\n        /* \"#utility.yul\":9872:9878   */\n      dup5\n        /* \"#utility.yul\":9828:9899   */\n      tag_375\n      jump\t// in\n    tag_529:\n        /* \"#utility.yul\":9684:9906   */\n      swap3\n      swap2\n      pop\n      pop\n      jump\t// out\n        /* \"#utility.yul\":9912:10386   */\n    tag_114:\n        /* \"#utility.yul\":9980:9986   */\n      0x00\n        /* \"#utility.yul\":9988:9994   */\n      0x00\n        /* \"#utility.yul\":10037:10039   */\n      0x40\n        /* \"#utility.yul\":10025:10034   */\n      dup4\n        /* \"#utility.yul\":10016:10023   */\n      dup6\n        /* \"#utility.yul\":10012:10035   */\n      sub\n        /* \"#utility.yul\":10008:10040   */\n      slt\n        /* \"#utility.yul\":10005:10124   */\n      iszero\n      tag_531\n      jumpi\n        /* \"#utility.yul\":10043:10122   */\n      tag_532\n      tag_345\n      jump\t// in\n    tag_532:\n        /* \"#utility.yul\":10005:10124   */\n    tag_531:\n        /* \"#utility.yul\":10163:10164   */\n      0x00\n        /* \"#utility.yul\":10188:10241   */\n      tag_533\n        /* \"#utility.yul\":10233:10240   */\n      dup6\n        /* \"#utility.yul\":10224:10230   */\n      dup3\n        /* \"#utility.yul\":10213:10222   */\n      dup7\n        /* \"#utility.yul\":10209:10231   */\n      add\n        /* \"#utility.yul\":10188:10241   */\n      tag_350\n      jump\t// in\n    tag_533:\n        /* \"#utility.yul\":10178:10241   */\n      swap3\n      pop\n        /* \"#utility.yul\":10134:10251   */\n      pop\n        /* \"#utility.yul\":10290:10292   */\n      0x20\n        /* \"#utility.yul\":10316:10369   */\n      tag_534\n        /* \"#utility.yul\":10361:10368   */\n      dup6\n        /* \"#utility.yul\":10352:10358   */\n      dup3\n        /* \"#utility.yul\":10341:10350   */\n      dup7\n        /* \"#utility.yul\":10337:10359   */\n      add\n        /* \"#utility.yul\":10316:10369   */\n      tag_350\n      jump\t// in\n    tag_534:\n        /* \"#utility.yul\":10306:10369   */\n      swap2\n      pop\n        /* \"#utility.yul\":10261:10379   */\n      pop\n        /* \"#utility.yul\":9912:10386   */\n      swap3\n      pop\n      swap3\n      swap1\n      pop\n      jump\t// out\n        /* \"#utility.yul\":10392:10500   */\n    tag_376:\n        /* \"#utility.yul\":10469:10493   */\n      tag_536\n        /* \"#utility.yul\":10487:10492   */\n      dup2\n        /* \"#utility.yul\":10469:10493   */\n      tag_351\n      jump\t// in\n    tag_536:\n        /* \"#utility.yul\":10464:10467   */\n      dup3\n        /* \"#utility.yul\":10457:10494   */\n      mstore\n        /* \"#utility.yul\":10392:10500   */\n      pop\n      pop\n      jump\t// out\n        /* \"#utility.yul\":10506:10614   */\n    tag_377:\n        /* \"#utility.yul\":10583:10607   */\n      tag_538\n        /* \"#utility.yul\":10601:10606   */\n      dup2\n        /* \"#utility.yul\":10583:10607   */\n      tag_362\n      jump\t// in\n    tag_538:\n        /* \"#utility.yul\":10578:10581   */\n      dup3\n        /* \"#utility.yul\":10571:10608   */\n      mstore\n        /* \"#utility.yul\":10506:10614   */\n      pop\n      pop\n      jump\t// out\n        /* \"#utility.yul\":10620:10725   */\n    tag_378:\n        /* \"#utility.yul\":10695:10718   */\n      tag_540\n        /* \"#utility.yul\":10712:10717   */\n      dup2\n        /* \"#utility.yul\":10695:10718   */\n      tag_364\n      jump\t// in\n    tag_540:\n        /* \"#utility.yul\":10690:10693   */\n      dup3\n        /* \"#utility.yul\":10683:10719   */\n      mstore\n        /* \"#utility.yul\":10620:10725   */\n      pop\n      pop\n      jump\t// out\n        /* \"#utility.yul\":10819:12601   */\n    tag_379:\n        /* \"#utility.yul\":10974:10980   */\n      0x0120\n        /* \"#utility.yul\":10969:10972   */\n      dup3\n        /* \"#utility.yul\":10965:10981   */\n      add\n        /* \"#utility.yul\":11068:11072   */\n      0x00\n        /* \"#utility.yul\":11061:11066   */\n      dup3\n        /* \"#utility.yul\":11057:11073   */\n      add\n        /* \"#utility.yul\":11051:11074   */\n      mload\n        /* \"#utility.yul\":11087:11150   */\n      tag_542\n        /* \"#utility.yul\":11144:11148   */\n      0x00\n        /* \"#utility.yul\":11139:11142   */\n      dup6\n        /* \"#utility.yul\":11135:11149   */\n      add\n        /* \"#utility.yul\":11121:11133   */\n      dup3\n        /* \"#utility.yul\":11087:11150   */\n      tag_376\n      jump\t// in\n    tag_542:\n        /* \"#utility.yul\":10991:11160   */\n      pop\n        /* \"#utility.yul\":11245:11249   */\n      0x20\n        /* \"#utility.yul\":11238:11243   */\n      dup3\n        /* \"#utility.yul\":11234:11250   */\n      add\n        /* \"#utility.yul\":11228:11251   */\n      mload\n        /* \"#utility.yul\":11264:11327   */\n      tag_543\n        /* \"#utility.yul\":11321:11325   */\n      0x20\n        /* \"#utility.yul\":11316:11319   */\n      dup6\n        /* \"#utility.yul\":11312:11326   */\n      add\n        /* \"#utility.yul\":11298:11310   */\n      dup3\n        /* \"#utility.yul\":11264:11327   */\n      tag_376\n      jump\t// in\n    tag_543:\n        /* \"#utility.yul\":11170:11337   */\n      pop\n        /* \"#utility.yul\":11425:11429   */\n      0x40\n        /* \"#utility.yul\":11418:11423   */\n      dup3\n        /* \"#utility.yul\":11414:11430   */\n      add\n        /* \"#utility.yul\":11408:11431   */\n      mload\n        /* \"#utility.yul\":11444:11507   */\n      tag_544\n        /* \"#utility.yul\":11501:11505   */\n      0x40\n        /* \"#utility.yul\":11496:11499   */\n      dup6\n        /* \"#utility.yul\":11492:11506   */\n      add\n        /* \"#utility.yul\":11478:11490   */\n      dup3\n        /* \"#utility.yul\":11444:11507   */\n      tag_376\n      jump\t// in\n    tag_544:\n        /* \"#utility.yul\":11347:11517   */\n      pop\n        /* \"#utility.yul\":11600:11604   */\n      0x60\n        /* \"#utility.yul\":11593:11598   */\n      dup3\n        /* \"#utility.yul\":11589:11605   */\n      add\n        /* \"#utility.yul\":11583:11606   */\n      mload\n        /* \"#utility.yul\":11619:11682   */\n      tag_545\n        /* \"#utility.yul\":11676:11680   */\n      0x60\n        /* \"#utility.yul\":11671:11674   */\n      dup6\n        /* \"#utility.yul\":11667:11681   */\n      add\n        /* \"#utility.yul\":11653:11665   */\n      dup3\n        /* \"#utility.yul\":11619:11682   */\n      tag_376\n      jump\t// in\n    tag_545:\n        /* \"#utility.yul\":11527:11692   */\n      pop\n        /* \"#utility.yul\":11778:11782   */\n      0x80\n        /* \"#utility.yul\":11771:11776   */\n      dup3\n        /* \"#utility.yul\":11767:11783   */\n      add\n        /* \"#utility.yul\":11761:11784   */\n      mload\n        /* \"#utility.yul\":11797:11860   */\n      tag_546\n        /* \"#utility.yul\":11854:11858   */\n      0x80\n        /* \"#utility.yul\":11849:11852   */\n      dup6\n        /* \"#utility.yul\":11845:11859   */\n      add\n        /* \"#utility.yul\":11831:11843   */\n      dup3\n        /* \"#utility.yul\":11797:11860   */\n      tag_377\n      jump\t// in\n    tag_546:\n        /* \"#utility.yul\":11702:11870   */\n      pop\n        /* \"#utility.yul\":11959:11963   */\n      0xa0\n        /* \"#utility.yul\":11952:11957   */\n      dup3\n        /* \"#utility.yul\":11948:11964   */\n      add\n        /* \"#utility.yul\":11942:11965   */\n      mload\n        /* \"#utility.yul\":11978:12039   */\n      tag_547\n        /* \"#utility.yul\":12033:12037   */\n      0xa0\n        /* \"#utility.yul\":12028:12031   */\n      dup6\n        /* \"#utility.yul\":12024:12038   */\n      add\n        /* \"#utility.yul\":12010:12022   */\n      dup3\n        /* \"#utility.yul\":11978:12039   */\n      tag_378\n      jump\t// in\n    tag_547:\n        /* \"#utility.yul\":11880:12049   */\n      pop\n        /* \"#utility.yul\":12139:12143   */\n      0xc0\n        /* \"#utility.yul\":12132:12137   */\n      dup3\n        /* \"#utility.yul\":12128:12144   */\n      add\n        /* \"#utility.yul\":12122:12145   */\n      mload\n        /* \"#utility.yul\":12158:12221   */\n      tag_548\n        /* \"#utility.yul\":12215:12219   */\n      0xc0\n        /* \"#utility.yul\":12210:12213   */\n      dup6\n        /* \"#utility.yul\":12206:12220   */\n      add\n        /* \"#utility.yul\":12192:12204   */\n      dup3\n        /* \"#utility.yul\":12158:12221   */\n      tag_376\n      jump\t// in\n    tag_548:\n        /* \"#utility.yul\":12059:12231   */\n      pop\n        /* \"#utility.yul\":12321:12325   */\n      0xe0\n        /* \"#utility.yul\":12314:12319   */\n      dup3\n        /* \"#utility.yul\":12310:12326   */\n      add\n        /* \"#utility.yul\":12304:12327   */\n      mload\n        /* \"#utility.yul\":12340:12403   */\n      tag_549\n        /* \"#utility.yul\":12397:12401   */\n      0xe0\n        /* \"#utility.yul\":12392:12395   */\n      dup6\n        /* \"#utility.yul\":12388:12402   */\n      add\n        /* \"#utility.yul\":12374:12386   */\n      dup3\n        /* \"#utility.yul\":12340:12403   */\n      tag_376\n      jump\t// in\n    tag_549:\n        /* \"#utility.yul\":12241:12413   */\n      pop\n        /* \"#utility.yul\":12498:12504   */\n      0x0100\n        /* \"#utility.yul\":12491:12496   */\n      dup3\n        /* \"#utility.yul\":12487:12505   */\n      add\n        /* \"#utility.yul\":12481:12506   */\n      mload\n        /* \"#utility.yul\":12519:12584   */\n      tag_550\n        /* \"#utility.yul\":12576:12582   */\n      0x0100\n        /* \"#utility.yul\":12571:12574   */\n      dup6\n        /* \"#utility.yul\":12567:12583   */\n      add\n        /* \"#utility.yul\":12553:12565   */\n      dup3\n        /* \"#utility.yul\":12519:12584   */\n      tag_377\n      jump\t// in\n    tag_550:\n        /* \"#utility.yul\":12423:12594   */\n      pop\n        /* \"#utility.yul\":10943:12601   */\n      pop\n        /* \"#utility.yul\":10819:12601   */\n      pop\n      pop\n      jump\t// out\n        /* \"#utility.yul\":12607:12946   */\n    tag_128:\n        /* \"#utility.yul\":12758:12762   */\n      0x00\n        /* \"#utility.yul\":12796:12799   */\n      0x0120\n        /* \"#utility.yul\":12785:12794   */\n      dup3\n        /* \"#utility.yul\":12781:12800   */\n      add\n        /* \"#utility.yul\":12773:12800   */\n      swap1\n      pop\n        /* \"#utility.yul\":12810:12939   */\n      tag_552\n        /* \"#utility.yul\":12936:12937   */\n      0x00\n        /* \"#utility.yul\":12925:12934   */\n      dup4\n        /* \"#utility.yul\":12921:12938   */\n      add\n        /* \"#utility.yul\":12912:12918   */\n      dup5\n        /* \"#utility.yul\":12810:12939   */\n      tag_379\n      jump\t// in\n    tag_552:\n        /* \"#utility.yul\":12607:12946   */\n      swap3\n      swap2\n      pop\n      pop\n      jump\t// out\n        /* \"#utility.yul\":12952:13111   */\n    tag_380:\n        /* \"#utility.yul\":13092:13103   */\n      0x4e6f74206f776e65720000000000000000000000000000000000000000000000\n        /* \"#utility.yul\":13088:13089   */\n      0x00\n        /* \"#utility.yul\":13080:13086   */\n      dup3\n        /* \"#utility.yul\":13076:13090   */\n      add\n        /* \"#utility.yul\":13069:13104   */\n      mstore\n        /* \"#utility.yul\":12952:13111   */\n      pop\n      jump\t// out\n        /* \"#utility.yul\":13117:13482   */\n    tag_381:\n        /* \"#utility.yul\":13259:13262   */\n      0x00\n        /* \"#utility.yul\":13280:13346   */\n      tag_555\n        /* \"#utility.yul\":13344:13345   */\n      0x09\n        /* \"#utility.yul\":13339:13342   */\n      dup4\n        /* \"#utility.yul\":13280:13346   */\n      tag_355\n      jump\t// in\n    tag_555:\n        /* \"#utility.yul\":13273:13346   */\n      swap2\n      pop\n        /* \"#utility.yul\":13355:13448   */\n      tag_556\n        /* \"#utility.yul\":13444:13447   */\n      dup3\n        /* \"#utility.yul\":13355:13448   */\n      tag_380\n      jump\t// in\n    tag_556:\n        /* \"#utility.yul\":13473:13475   */\n      0x20\n        /* \"#utility.yul\":13468:13471   */\n      dup3\n        /* \"#utility.yul\":13464:13476   */\n      add\n        /* \"#utility.yul\":13457:13476   */\n      swap1\n      pop\n        /* \"#utility.yul\":13117:13482   */\n      swap2\n      swap1\n      pop\n      jump\t// out\n        /* \"#utility.yul\":13488:13907   */\n    tag_141:\n        /* \"#utility.yul\":13654:13658   */\n      0x00\n        /* \"#utility.yul\":13692:13694   */\n      0x20\n        /* \"#utility.yul\":13681:13690   */\n      dup3\n        /* \"#utility.yul\":13677:13695   */\n      add\n        /* \"#utility.yul\":13669:13695   */\n      swap1\n      pop\n        /* \"#utility.yul\":13741:13750   */\n      dup2\n        /* \"#utility.yul\":13735:13739   */\n      dup2\n        /* \"#utility.yul\":13731:13751   */\n      sub\n        /* \"#utility.yul\":13727:13728   */\n      0x00\n        /* \"#utility.yul\":13716:13725   */\n      dup4\n        /* \"#utility.yul\":13712:13729   */\n      add\n        /* \"#utility.yul\":13705:13752   */\n      mstore\n        /* \"#utility.yul\":13769:13900   */\n      tag_558\n        /* \"#utility.yul\":13895:13899   */\n      dup2\n        /* \"#utility.yul\":13769:13900   */\n      tag_381\n      jump\t// in\n    tag_558:\n        /* \"#utility.yul\":13761:13900   */\n      swap1\n      pop\n        /* \"#utility.yul\":13488:13907   */\n      swap2\n      swap1\n      pop\n      jump\t// out\n        /* \"#utility.yul\":13913:14072   */\n    tag_382:\n        /* \"#utility.yul\":14053:14064   */\n      0x5a65726f2066726f6d0000000000000000000000000000000000000000000000\n        /* \"#utility.yul\":14049:14050   */\n      0x00\n        /* \"#utility.yul\":14041:14047   */\n      dup3\n        /* \"#utility.yul\":14037:14051   */\n      add\n        /* \"#utility.yul\":14030:14065   */\n      mstore\n        /* \"#utility.yul\":13913:14072   */\n      pop\n      jump\t// out\n        /* \"#utility.yul\":14078:14443   */\n    tag_383:\n        /* \"#utility.yul\":14220:14223   */\n      0x00\n        /* \"#utility.yul\":14241:14307   */\n      tag_561\n        /* \"#utility.yul\":14305:14306   */\n      0x09\n        /* \"#utility.yul\":14300:14303   */\n      dup4\n        /* \"#utility.yul\":14241:14307   */\n      tag_355\n      jump\t// in\n    tag_561:\n        /* \"#utility.yul\":14234:14307   */\n      swap2\n      pop\n        /* \"#utility.yul\":14316:14409   */\n      tag_562\n        /* \"#utility.yul\":14405:14408   */\n      dup3\n        /* \"#utility.yul\":14316:14409   */\n      tag_382\n      jump\t// in\n    tag_562:\n        /* \"#utility.yul\":14434:14436   */\n      0x20\n        /* \"#utility.yul\":14429:14432   */\n      dup3\n        /* \"#utility.yul\":14425:14437   */\n      add\n        /* \"#utility.yul\":14418:14437   */\n      swap1\n      pop\n        /* \"#utility.yul\":14078:14443   */\n      swap2\n      swap1\n      pop\n      jump\t// out\n        /* \"#utility.yul\":14449:14868   */\n    tag_145:\n        /* \"#utility.yul\":14615:14619   */\n      0x00\n        /* \"#utility.yul\":14653:14655   */\n      0x20\n        /* \"#utility.yul\":14642:14651   */\n      dup3\n        /* \"#utility.yul\":14638:14656   */\n      add\n        /* \"#utility.yul\":14630:14656   */\n      swap1\n      pop\n        /* \"#utility.yul\":14702:14711   */\n      dup2\n        /* \"#utility.yul\":14696:14700   */\n      dup2\n        /* \"#utility.yul\":14692:14712   */\n      sub\n        /* \"#utility.yul\":14688:14689   */\n      0x00\n        /* \"#utility.yul\":14677:14686   */\n      dup4\n        /* \"#utility.yul\":14673:14690   */\n      add\n        /* \"#utility.yul\":14666:14713   */\n      mstore\n        /* \"#utility.yul\":14730:14861   */\n      tag_564\n        /* \"#utility.yul\":14856:14860   */\n      dup2\n        /* \"#utility.yul\":14730:14861   */\n      tag_383\n      jump\t// in\n    tag_564:\n        /* \"#utility.yul\":14722:14861   */\n      swap1\n      pop\n        /* \"#utility.yul\":14449:14868   */\n      swap2\n      swap1\n      pop\n      jump\t// out\n        /* \"#utility.yul\":14874:15032   */\n    tag_384:\n        /* \"#utility.yul\":15014:15024   */\n      0x616d6f756e743d30000000000000000000000000000000000000000000000000\n        /* \"#utility.yul\":15010:15011   */\n      0x00\n        /* \"#utility.yul\":15002:15008   */\n      dup3\n        /* \"#utility.yul\":14998:15012   */\n      add\n        /* \"#utility.yul\":14991:15025   */\n      mstore\n        /* \"#utility.yul\":14874:15032   */\n      pop\n      jump\t// out\n        /* \"#utility.yul\":15038:15403   */\n    tag_385:\n        /* \"#utility.yul\":15180:15183   */\n      0x00\n        /* \"#utility.yul\":15201:15267   */\n      tag_567\n        /* \"#utility.yul\":15265:15266   */\n      0x08\n        /* \"#utility.yul\":15260:15263   */\n      dup4\n        /* \"#utility.yul\":15201:15267   */\n      tag_355\n      jump\t// in\n    tag_567:\n        /* \"#utility.yul\":15194:15267   */\n      swap2\n      pop\n        /* \"#utility.yul\":15276:15369   */\n      tag_568\n        /* \"#utility.yul\":15365:15368   */\n      dup3\n        /* \"#utility.yul\":15276:15369   */\n      tag_384\n      jump\t// in\n    tag_568:\n        /* \"#utility.yul\":15394:15396   */\n      0x20\n        /* \"#utility.yul\":15389:15392   */\n      dup3\n        /* \"#utility.yul\":15385:15397   */\n      add\n        /* \"#utility.yul\":15378:15397   */\n      swap1\n      pop\n        /* \"#utility.yul\":15038:15403   */\n      swap2\n      swap1\n      pop\n      jump\t// out\n        /* \"#utility.yul\":15409:15828   */\n    tag_148:\n        /* \"#utility.yul\":15575:15579   */\n      0x00\n        /* \"#utility.yul\":15613:15615   */\n      0x20\n        /* \"#utility.yul\":15602:15611   */\n      dup3\n        /* \"#utility.yul\":15598:15616   */\n      add\n        /* \"#utility.yul\":15590:15616   */\n      swap1\n      pop\n        /* \"#utility.yul\":15662:15671   */\n      dup2\n        /* \"#utility.yul\":15656:15660   */\n      dup2\n        /* \"#utility.yul\":15652:15672   */\n      sub\n        /* \"#utility.yul\":15648:15649   */\n      0x00\n        /* \"#utility.yul\":15637:15646   */\n      dup4\n        /* \"#utility.yul\":15633:15650   */\n      add\n        /* \"#utility.yul\":15626:15673   */\n      mstore\n        /* \"#utility.yul\":15690:15821   */\n      tag_570\n        /* \"#utility.yul\":15816:15820   */\n      dup2\n        /* \"#utility.yul\":15690:15821   */\n      tag_385\n      jump\t// in\n    tag_570:\n        /* \"#utility.yul\":15682:15821   */\n      swap1\n      pop\n        /* \"#utility.yul\":15409:15828   */\n      swap2\n      swap1\n      pop\n      jump\t// out\n        /* \"#utility.yul\":15834:16014   */\n    tag_386:\n        /* \"#utility.yul\":15882:15959   */\n      0x4e487b7100000000000000000000000000000000000000000000000000000000\n        /* \"#utility.yul\":15879:15880   */\n      0x00\n        /* \"#utility.yul\":15872:15960   */\n      mstore\n        /* \"#utility.yul\":15979:15983   */\n      0x22\n        /* \"#utility.yul\":15976:15977   */\n      0x04\n        /* \"#utility.yul\":15969:15984   */\n      mstore\n        /* \"#utility.yul\":16003:16007   */\n      0x24\n        /* \"#utility.yul\":16000:16001   */\n      0x00\n        /* \"#utility.yul\":15993:16008   */\n      revert\n        /* \"#utility.yul\":16020:16340   */\n    tag_153:\n        /* \"#utility.yul\":16064:16070   */\n      0x00\n        /* \"#utility.yul\":16101:16102   */\n      0x02\n        /* \"#utility.yul\":16095:16099   */\n      dup3\n        /* \"#utility.yul\":16091:16103   */\n      div\n        /* \"#utility.yul\":16081:16103   */\n      swap1\n      pop\n        /* \"#utility.yul\":16148:16149   */\n      0x01\n        /* \"#utility.yul\":16142:16146   */\n      dup3\n        /* \"#utility.yul\":16138:16150   */\n      and\n        /* \"#utility.yul\":16169:16187   */\n      dup1\n        /* \"#utility.yul\":16159:16240   */\n      tag_573\n      jumpi\n        /* \"#utility.yul\":16225:16229   */\n      0x7f\n        /* \"#utility.yul\":16217:16223   */\n      dup3\n        /* \"#utility.yul\":16213:16230   */\n      and\n        /* \"#utility.yul\":16203:16230   */\n      swap2\n      pop\n        /* \"#utility.yul\":16159:16240   */\n    tag_573:\n        /* \"#utility.yul\":16287:16289   */\n      0x20\n        /* \"#utility.yul\":16279:16285   */\n      dup3\n        /* \"#utility.yul\":16276:16290   */\n      lt\n        /* \"#utility.yul\":16256:16274   */\n      dup2\n        /* \"#utility.yul\":16253:16291   */\n      sub\n        /* \"#utility.yul\":16250:16334   */\n      tag_574\n      jumpi\n        /* \"#utility.yul\":16306:16324   */\n      tag_575\n      tag_386\n      jump\t// in\n    tag_575:\n        /* \"#utility.yul\":16250:16334   */\n    tag_574:\n        /* \"#utility.yul\":16071:16340   */\n      pop\n        /* \"#utility.yul\":16020:16340   */\n      swap2\n      swap1\n      pop\n      jump\t// out\n        /* \"#utility.yul\":16346:16513   */\n    tag_387:\n        /* \"#utility.yul\":16486:16505   */\n      0x416c6c6f77616e636520746f6f206c6f77000000000000000000000000000000\n        /* \"#utility.yul\":16482:16483   */\n      0x00\n        /* \"#utility.yul\":16474:16480   */\n      dup3\n        /* \"#utility.yul\":16470:16484   */\n      add\n        /* \"#utility.yul\":16463:16506   */\n      mstore\n        /* \"#utility.yul\":16346:16513   */\n      pop\n      jump\t// out\n        /* \"#utility.yul\":16519:16885   */\n    tag_388:\n        /* \"#utility.yul\":16661:16664   */\n      0x00\n        /* \"#utility.yul\":16682:16749   */\n      tag_578\n        /* \"#utility.yul\":16746:16748   */\n      0x11\n        /* \"#utility.yul\":16741:16744   */\n      dup4\n        /* \"#utility.yul\":16682:16749   */\n      tag_355\n      jump\t// in\n    tag_578:\n        /* \"#utility.yul\":16675:16749   */\n      swap2\n      pop\n        /* \"#utility.yul\":16758:16851   */\n      tag_579\n        /* \"#utility.yul\":16847:16850   */\n      dup3\n        /* \"#utility.yul\":16758:16851   */\n      tag_387\n      jump\t// in\n    tag_579:\n        /* \"#utility.yul\":16876:16878   */\n      0x20\n        /* \"#utility.yul\":16871:16874   */\n      dup3\n        /* \"#utility.yul\":16867:16879   */\n      add\n        /* \"#utility.yul\":16860:16879   */\n      swap1\n      pop\n        /* \"#utility.yul\":16519:16885   */\n      swap2\n      swap1\n      pop\n      jump\t// out\n        /* \"#utility.yul\":16891:17310   */\n    tag_165:\n        /* \"#utility.yul\":17057:17061   */\n      0x00\n        /* \"#utility.yul\":17095:17097   */\n      0x20\n        /* \"#utility.yul\":17084:17093   */\n      dup3\n        /* \"#utility.yul\":17080:17098   */\n      add\n        /* \"#utility.yul\":17072:17098   */\n      swap1\n      pop\n        /* \"#utility.yul\":17144:17153   */\n      dup2\n        /* \"#utility.yul\":17138:17142   */\n      dup2\n        /* \"#utility.yul\":17134:17154   */\n      sub\n        /* \"#utility.yul\":17130:17131   */\n      0x00\n        /* \"#utility.yul\":17119:17128   */\n      dup4\n        /* \"#utility.yul\":17115:17132   */\n      add\n        /* \"#utility.yul\":17108:17155   */\n      mstore\n        /* \"#utility.yul\":17172:17303   */\n      tag_581\n        /* \"#utility.yul\":17298:17302   */\n      dup2\n        /* \"#utility.yul\":17172:17303   */\n      tag_388\n      jump\t// in\n    tag_581:\n        /* \"#utility.yul\":17164:17303   */\n      swap1\n      pop\n        /* \"#utility.yul\":16891:17310   */\n      swap2\n      swap1\n      pop\n      jump\t// out\n        /* \"#utility.yul\":17316:17496   */\n    tag_389:\n        /* \"#utility.yul\":17364:17441   */\n      0x4e487b7100000000000000000000000000000000000000000000000000000000\n        /* \"#utility.yul\":17361:17362   */\n      0x00\n        /* \"#utility.yul\":17354:17442   */\n      mstore\n        /* \"#utility.yul\":17461:17465   */\n      0x11\n        /* \"#utility.yul\":17458:17459   */\n      0x04\n        /* \"#utility.yul\":17451:17466   */\n      mstore\n        /* \"#utility.yul\":17485:17489   */\n      0x24\n        /* \"#utility.yul\":17482:17483   */\n      0x00\n        /* \"#utility.yul\":17475:17490   */\n      revert\n        /* \"#utility.yul\":17502:17696   */\n    tag_168:\n        /* \"#utility.yul\":17542:17546   */\n      0x00\n        /* \"#utility.yul\":17562:17582   */\n      tag_584\n        /* \"#utility.yul\":17580:17581   */\n      dup3\n        /* \"#utility.yul\":17562:17582   */\n      tag_351\n      jump\t// in\n    tag_584:\n        /* \"#utility.yul\":17557:17582   */\n      swap2\n      pop\n        /* \"#utility.yul\":17596:17616   */\n      tag_585\n        /* \"#utility.yul\":17614:17615   */\n      dup4\n        /* \"#utility.yul\":17596:17616   */\n      tag_351\n      jump\t// in\n    tag_585:\n        /* \"#utility.yul\":17591:17616   */\n      swap3\n      pop\n        /* \"#utility.yul\":17640:17641   */\n      dup3\n        /* \"#utility.yul\":17637:17638   */\n      dup3\n        /* \"#utility.yul\":17633:17642   */\n      sub\n        /* \"#utility.yul\":17625:17642   */\n      swap1\n      pop\n        /* \"#utility.yul\":17664:17665   */\n      dup2\n        /* \"#utility.yul\":17658:17662   */\n      dup2\n        /* \"#utility.yul\":17655:17666   */\n      gt\n        /* \"#utility.yul\":17652:17689   */\n      iszero\n      tag_586\n      jumpi\n        /* \"#utility.yul\":17669:17687   */\n      tag_587\n      tag_389\n      jump\t// in\n    tag_587:\n        /* \"#utility.yul\":17652:17689   */\n    tag_586:\n        /* \"#utility.yul\":17502:17696   */\n      swap3\n      swap2\n      pop\n      pop\n      jump\t// out\n        /* \"#utility.yul\":17702:17859   */\n    tag_390:\n        /* \"#utility.yul\":17842:17851   */\n      0x6e6f206f77656400000000000000000000000000000000000000000000000000\n        /* \"#utility.yul\":17838:17839   */\n      0x00\n        /* \"#utility.yul\":17830:17836   */\n      dup3\n        /* \"#utility.yul\":17826:17840   */\n      add\n        /* \"#utility.yul\":17819:17852   */\n      mstore\n        /* \"#utility.yul\":17702:17859   */\n      pop\n      jump\t// out\n        /* \"#utility.yul\":17865:18230   */\n    tag_391:\n        /* \"#utility.yul\":18007:18010   */\n      0x00\n        /* \"#utility.yul\":18028:18094   */\n      tag_590\n        /* \"#utility.yul\":18092:18093   */\n      0x07\n        /* \"#utility.yul\":18087:18090   */\n      dup4\n        /* \"#utility.yul\":18028:18094   */\n      tag_355\n      jump\t// in\n    tag_590:\n        /* \"#utility.yul\":18021:18094   */\n      swap2\n      pop\n        /* \"#utility.yul\":18103:18196   */\n      tag_591\n        /* \"#utility.yul\":18192:18195   */\n      dup3\n        /* \"#utility.yul\":18103:18196   */\n      tag_390\n      jump\t// in\n    tag_591:\n        /* \"#utility.yul\":18221:18223   */\n      0x20\n        /* \"#utility.yul\":18216:18219   */\n      dup3\n        /* \"#utility.yul\":18212:18224   */\n      add\n        /* \"#utility.yul\":18205:18224   */\n      swap1\n      pop\n        /* \"#utility.yul\":17865:18230   */\n      swap2\n      swap1\n      pop\n      jump\t// out\n        /* \"#utility.yul\":18236:18655   */\n    tag_174:\n        /* \"#utility.yul\":18402:18406   */\n      0x00\n        /* \"#utility.yul\":18440:18442   */\n      0x20\n        /* \"#utility.yul\":18429:18438   */\n      dup3\n        /* \"#utility.yul\":18425:18443   */\n      add\n        /* \"#utility.yul\":18417:18443   */\n      swap1\n      pop\n        /* \"#utility.yul\":18489:18498   */\n      dup2\n        /* \"#utility.yul\":18483:18487   */\n      dup2\n        /* \"#utility.yul\":18479:18499   */\n      sub\n        /* \"#utility.yul\":18475:18476   */\n      0x00\n        /* \"#utility.yul\":18464:18473   */\n      dup4\n        /* \"#utility.yul\":18460:18477   */\n      add\n        /* \"#utility.yul\":18453:18500   */\n      mstore\n        /* \"#utility.yul\":18517:18648   */\n      tag_593\n        /* \"#utility.yul\":18643:18647   */\n      dup2\n        /* \"#utility.yul\":18517:18648   */\n      tag_391\n      jump\t// in\n    tag_593:\n        /* \"#utility.yul\":18509:18648   */\n      swap1\n      pop\n        /* \"#utility.yul\":18236:18655   */\n      swap2\n      swap1\n      pop\n      jump\t// out\n        /* \"#utility.yul\":18661:18821   */\n    tag_392:\n        /* \"#utility.yul\":18801:18813   */\n      0x6e6f2062616c616e636500000000000000000000000000000000000000000000\n        /* \"#utility.yul\":18797:18798   */\n      0x00\n        /* \"#utility.yul\":18789:18795   */\n      dup3\n        /* \"#utility.yul\":18785:18799   */\n      add\n        /* \"#utility.yul\":18778:18814   */\n      mstore\n        /* \"#utility.yul\":18661:18821   */\n      pop\n      jump\t// out\n        /* \"#utility.yul\":18827:19193   */\n    tag_393:\n        /* \"#utility.yul\":18969:18972   */\n      0x00\n        /* \"#utility.yul\":18990:19057   */\n      tag_596\n        /* \"#utility.yul\":19054:19056   */\n      0x0a\n        /* \"#utility.yul\":19049:19052   */\n      dup4\n        /* \"#utility.yul\":18990:19057   */\n      tag_355\n      jump\t// in\n    tag_596:\n        /* \"#utility.yul\":18983:19057   */\n      swap2\n      pop\n        /* \"#utility.yul\":19066:19159   */\n      tag_597\n        /* \"#utility.yul\":19155:19158   */\n      dup3\n        /* \"#utility.yul\":19066:19159   */\n      tag_392\n      jump\t// in\n    tag_597:\n        /* \"#utility.yul\":19184:19186   */\n      0x20\n        /* \"#utility.yul\":19179:19182   */\n      dup3\n        /* \"#utility.yul\":19175:19187   */\n      add\n        /* \"#utility.yul\":19168:19187   */\n      swap1\n      pop\n        /* \"#utility.yul\":18827:19193   */\n      swap2\n      swap1\n      pop\n      jump\t// out\n        /* \"#utility.yul\":19199:19618   */\n    tag_179:\n        /* \"#utility.yul\":19365:19369   */\n      0x00\n        /* \"#utility.yul\":19403:19405   */\n      0x20\n        /* \"#utility.yul\":19392:19401   */\n      dup3\n        /* \"#utility.yul\":19388:19406   */\n      add\n        /* \"#utility.yul\":19380:19406   */\n      swap1\n      pop\n        /* \"#utility.yul\":19452:19461   */\n      dup2\n        /* \"#utility.yul\":19446:19450   */\n      dup2\n        /* \"#utility.yul\":19442:19462   */\n      sub\n        /* \"#utility.yul\":19438:19439   */\n      0x00\n        /* \"#utility.yul\":19427:19436   */\n      dup4\n        /* \"#utility.yul\":19423:19440   */\n      add\n        /* \"#utility.yul\":19416:19463   */\n      mstore\n        /* \"#utility.yul\":19480:19611   */\n      tag_599\n        /* \"#utility.yul\":19606:19610   */\n      dup2\n        /* \"#utility.yul\":19480:19611   */\n      tag_393\n      jump\t// in\n    tag_599:\n        /* \"#utility.yul\":19472:19611   */\n      swap1\n      pop\n        /* \"#utility.yul\":19199:19618   */\n      swap2\n      swap1\n      pop\n      jump\t// out\n        /* \"#utility.yul\":19624:19709   */\n    tag_394:\n        /* \"#utility.yul\":19669:19676   */\n      0x00\n        /* \"#utility.yul\":19698:19703   */\n      dup2\n        /* \"#utility.yul\":19687:19703   */\n      swap1\n      pop\n        /* \"#utility.yul\":19624:19709   */\n      swap2\n      swap1\n      pop\n      jump\t// out\n        /* \"#utility.yul\":19715:19873   */\n    tag_395:\n        /* \"#utility.yul\":19773:19782   */\n      0x00\n        /* \"#utility.yul\":19806:19867   */\n      tag_602\n        /* \"#utility.yul\":19824:19866   */\n      tag_603\n        /* \"#utility.yul\":19833:19865   */\n      tag_604\n        /* \"#utility.yul\":19859:19864   */\n      dup5\n        /* \"#utility.yul\":19833:19865   */\n      tag_394\n      jump\t// in\n    tag_604:\n        /* \"#utility.yul\":19824:19866   */\n      tag_368\n      jump\t// in\n    tag_603:\n        /* \"#utility.yul\":19806:19867   */\n      tag_351\n      jump\t// in\n    tag_602:\n        /* \"#utility.yul\":19793:19867   */\n      swap1\n      pop\n        /* \"#utility.yul\":19715:19873   */\n      swap2\n      swap1\n      pop\n      jump\t// out\n        /* \"#utility.yul\":19879:20026   */\n    tag_396:\n        /* \"#utility.yul\":19974:20019   */\n      tag_606\n        /* \"#utility.yul\":20013:20018   */\n      dup2\n        /* \"#utility.yul\":19974:20019   */\n      tag_395\n      jump\t// in\n    tag_606:\n        /* \"#utility.yul\":19969:19972   */\n      dup3\n        /* \"#utility.yul\":19962:20020   */\n      mstore\n        /* \"#utility.yul\":19879:20026   */\n      pop\n      pop\n      jump\t// out\n        /* \"#utility.yul\":20032:20380   */\n    tag_183:\n        /* \"#utility.yul\":20161:20165   */\n      0x00\n        /* \"#utility.yul\":20199:20201   */\n      0x40\n        /* \"#utility.yul\":20188:20197   */\n      dup3\n        /* \"#utility.yul\":20184:20202   */\n      add\n        /* \"#utility.yul\":20176:20202   */\n      swap1\n      pop\n        /* \"#utility.yul\":20212:20283   */\n      tag_608\n        /* \"#utility.yul\":20280:20281   */\n      0x00\n        /* \"#utility.yul\":20269:20278   */\n      dup4\n        /* \"#utility.yul\":20265:20282   */\n      add\n        /* \"#utility.yul\":20256:20262   */\n      dup6\n        /* \"#utility.yul\":20212:20283   */\n      tag_361\n      jump\t// in\n    tag_608:\n        /* \"#utility.yul\":20293:20373   */\n      tag_609\n        /* \"#utility.yul\":20369:20371   */\n      0x20\n        /* \"#utility.yul\":20358:20367   */\n      dup4\n        /* \"#utility.yul\":20354:20372   */\n      add\n        /* \"#utility.yul\":20345:20351   */\n      dup5\n        /* \"#utility.yul\":20293:20373   */\n      tag_396\n      jump\t// in\n    tag_609:\n        /* \"#utility.yul\":20032:20380   */\n      swap4\n      swap3\n      pop\n      pop\n      pop\n      jump\t// out\n        /* \"#utility.yul\":20386:20718   */\n    tag_188:\n        /* \"#utility.yul\":20507:20511   */\n      0x00\n        /* \"#utility.yul\":20545:20547   */\n      0x40\n        /* \"#utility.yul\":20534:20543   */\n      dup3\n        /* \"#utility.yul\":20530:20548   */\n      add\n        /* \"#utility.yul\":20522:20548   */\n      swap1\n      pop\n        /* \"#utility.yul\":20558:20629   */\n      tag_611\n        /* \"#utility.yul\":20626:20627   */\n      0x00\n        /* \"#utility.yul\":20615:20624   */\n      dup4\n        /* \"#utility.yul\":20611:20628   */\n      add\n        /* \"#utility.yul\":20602:20608   */\n      dup6\n        /* \"#utility.yul\":20558:20629   */\n      tag_361\n      jump\t// in\n    tag_611:\n        /* \"#utility.yul\":20639:20711   */\n      tag_612\n        /* \"#utility.yul\":20707:20709   */\n      0x20\n        /* \"#utility.yul\":20696:20705   */\n      dup4\n        /* \"#utility.yul\":20692:20710   */\n      add\n        /* \"#utility.yul\":20683:20689   */\n      dup5\n        /* \"#utility.yul\":20639:20711   */\n      tag_361\n      jump\t// in\n    tag_612:\n        /* \"#utility.yul\":20386:20718   */\n      swap4\n      swap3\n      pop\n      pop\n      pop\n      jump\t// out\n        /* \"#utility.yul\":20724:20885   */\n    tag_397:\n        /* \"#utility.yul\":20864:20877   */\n      0x70656e616c7479203e2030000000000000000000000000000000000000000000\n        /* \"#utility.yul\":20860:20861   */\n      0x00\n        /* \"#utility.yul\":20852:20858   */\n      dup3\n        /* \"#utility.yul\":20848:20862   */\n      add\n        /* \"#utility.yul\":20841:20878   */\n      mstore\n        /* \"#utility.yul\":20724:20885   */\n      pop\n      jump\t// out\n        /* \"#utility.yul\":20891:21257   */\n    tag_398:\n        /* \"#utility.yul\":21033:21036   */\n      0x00\n        /* \"#utility.yul\":21054:21121   */\n      tag_615\n        /* \"#utility.yul\":21118:21120   */\n      0x0b\n        /* \"#utility.yul\":21113:21116   */\n      dup4\n        /* \"#utility.yul\":21054:21121   */\n      tag_355\n      jump\t// in\n    tag_615:\n        /* \"#utility.yul\":21047:21121   */\n      swap2\n      pop\n        /* \"#utility.yul\":21130:21223   */\n      tag_616\n        /* \"#utility.yul\":21219:21222   */\n      dup3\n        /* \"#utility.yul\":21130:21223   */\n      tag_397\n      jump\t// in\n    tag_616:\n        /* \"#utility.yul\":21248:21250   */\n      0x20\n        /* \"#utility.yul\":21243:21246   */\n      dup3\n        /* \"#utility.yul\":21239:21251   */\n      add\n        /* \"#utility.yul\":21232:21251   */\n      swap1\n      pop\n        /* \"#utility.yul\":20891:21257   */\n      swap2\n      swap1\n      pop\n      jump\t// out\n        /* \"#utility.yul\":21263:21682   */\n    tag_195:\n        /* \"#utility.yul\":21429:21433   */\n      0x00\n        /* \"#utility.yul\":21467:21469   */\n      0x20\n        /* \"#utility.yul\":21456:21465   */\n      dup3\n        /* \"#utility.yul\":21452:21470   */\n      add\n        /* \"#utility.yul\":21444:21470   */\n      swap1\n      pop\n        /* \"#utility.yul\":21516:21525   */\n      dup2\n        /* \"#utility.yul\":21510:21514   */\n      dup2\n        /* \"#utility.yul\":21506:21526   */\n      sub\n        /* \"#utility.yul\":21502:21503   */\n      0x00\n        /* \"#utility.yul\":21491:21500   */\n      dup4\n        /* \"#utility.yul\":21487:21504   */\n      add\n        /* \"#utility.yul\":21480:21527   */\n      mstore\n        /* \"#utility.yul\":21544:21675   */\n      tag_618\n        /* \"#utility.yul\":21670:21674   */\n      dup2\n        /* \"#utility.yul\":21544:21675   */\n      tag_398\n      jump\t// in\n    tag_618:\n        /* \"#utility.yul\":21536:21675   */\n      swap1\n      pop\n        /* \"#utility.yul\":21263:21682   */\n      swap2\n      swap1\n      pop\n      jump\t// out\n        /* \"#utility.yul\":21688:21861   */\n    tag_399:\n        /* \"#utility.yul\":21828:21853   */\n      0x426174636820616c72656164792070726f636573736564000000000000000000\n        /* \"#utility.yul\":21824:21825   */\n      0x00\n        /* \"#utility.yul\":21816:21822   */\n      dup3\n        /* \"#utility.yul\":21812:21826   */\n      add\n        /* \"#utility.yul\":21805:21854   */\n      mstore\n        /* \"#utility.yul\":21688:21861   */\n      pop\n      jump\t// out\n        /* \"#utility.yul\":21867:22233   */\n    tag_400:\n        /* \"#utility.yul\":22009:22012   */\n      0x00\n        /* \"#utility.yul\":22030:22097   */\n      tag_621\n        /* \"#utility.yul\":22094:22096   */\n      0x17\n        /* \"#utility.yul\":22089:22092   */\n      dup4\n        /* \"#utility.yul\":22030:22097   */\n      tag_355\n      jump\t// in\n    tag_621:\n        /* \"#utility.yul\":22023:22097   */\n      swap2\n      pop\n        /* \"#utility.yul\":22106:22199   */\n      tag_622\n        /* \"#utility.yul\":22195:22198   */\n      dup3\n        /* \"#utility.yul\":22106:22199   */\n      tag_399\n      jump\t// in\n    tag_622:\n        /* \"#utility.yul\":22224:22226   */\n      0x20\n        /* \"#utility.yul\":22219:22222   */\n      dup3\n        /* \"#utility.yul\":22215:22227   */\n      add\n        /* \"#utility.yul\":22208:22227   */\n      swap1\n      pop\n        /* \"#utility.yul\":21867:22233   */\n      swap2\n      swap1\n      pop\n      jump\t// out\n        /* \"#utility.yul\":22239:22658   */\n    tag_203:\n        /* \"#utility.yul\":22405:22409   */\n      0x00\n        /* \"#utility.yul\":22443:22445   */\n      0x20\n        /* \"#utility.yul\":22432:22441   */\n      dup3\n        /* \"#utility.yul\":22428:22446   */\n      add\n        /* \"#utility.yul\":22420:22446   */\n      swap1\n      pop\n        /* \"#utility.yul\":22492:22501   */\n      dup2\n        /* \"#utility.yul\":22486:22490   */\n      dup2\n        /* \"#utility.yul\":22482:22502   */\n      sub\n        /* \"#utility.yul\":22478:22479   */\n      0x00\n        /* \"#utility.yul\":22467:22476   */\n      dup4\n        /* \"#utility.yul\":22463:22480   */\n      add\n        /* \"#utility.yul\":22456:22503   */\n      mstore\n        /* \"#utility.yul\":22520:22651   */\n      tag_624\n        /* \"#utility.yul\":22646:22650   */\n      dup2\n        /* \"#utility.yul\":22520:22651   */\n      tag_400\n      jump\t// in\n    tag_624:\n        /* \"#utility.yul\":22512:22651   */\n      swap1\n      pop\n        /* \"#utility.yul\":22239:22658   */\n      swap2\n      swap1\n      pop\n      jump\t// out\n        /* \"#utility.yul\":22664:22807   */\n    tag_401:\n        /* \"#utility.yul\":22721:22726   */\n      0x00\n        /* \"#utility.yul\":22752:22758   */\n      dup2\n        /* \"#utility.yul\":22746:22759   */\n      mload\n        /* \"#utility.yul\":22737:22759   */\n      swap1\n      pop\n        /* \"#utility.yul\":22768:22801   */\n      tag_626\n        /* \"#utility.yul\":22795:22800   */\n      dup2\n        /* \"#utility.yul\":22768:22801   */\n      tag_352\n      jump\t// in\n    tag_626:\n        /* \"#utility.yul\":22664:22807   */\n      swap3\n      swap2\n      pop\n      pop\n      jump\t// out\n        /* \"#utility.yul\":22813:23164   */\n    tag_210:\n        /* \"#utility.yul\":22883:22889   */\n      0x00\n        /* \"#utility.yul\":22932:22934   */\n      0x20\n        /* \"#utility.yul\":22920:22929   */\n      dup3\n        /* \"#utility.yul\":22911:22918   */\n      dup5\n        /* \"#utility.yul\":22907:22930   */\n      sub\n        /* \"#utility.yul\":22903:22935   */\n      slt\n        /* \"#utility.yul\":22900:23019   */\n      iszero\n      tag_628\n      jumpi\n        /* \"#utility.yul\":22938:23017   */\n      tag_629\n      tag_345\n      jump\t// in\n    tag_629:\n        /* \"#utility.yul\":22900:23019   */\n    tag_628:\n        /* \"#utility.yul\":23058:23059   */\n      0x00\n        /* \"#utility.yul\":23083:23147   */\n      tag_630\n        /* \"#utility.yul\":23139:23146   */\n      dup5\n        /* \"#utility.yul\":23130:23136   */\n      dup3\n        /* \"#utility.yul\":23119:23128   */\n      dup6\n        /* \"#utility.yul\":23115:23137   */\n      add\n        /* \"#utility.yul\":23083:23147   */\n      tag_401\n      jump\t// in\n    tag_630:\n        /* \"#utility.yul\":23073:23147   */\n      swap2\n      pop\n        /* \"#utility.yul\":23029:23157   */\n      pop\n        /* \"#utility.yul\":22813:23164   */\n      swap3\n      swap2\n      pop\n      pop\n      jump\t// out\n        /* \"#utility.yul\":23170:23331   */\n    tag_402:\n        /* \"#utility.yul\":23310:23323   */\n      0x636170206d697373696e67000000000000000000000000000000000000000000\n        /* \"#utility.yul\":23306:23307   */\n      0x00\n        /* \"#utility.yul\":23298:23304   */\n      dup3\n        /* \"#utility.yul\":23294:23308   */\n      add\n        /* \"#utility.yul\":23287:23324   */\n      mstore\n        /* \"#utility.yul\":23170:23331   */\n      pop\n      jump\t// out\n        /* \"#utility.yul\":23337:23703   */\n    tag_403:\n        /* \"#utility.yul\":23479:23482   */\n      0x00\n        /* \"#utility.yul\":23500:23567   */\n      tag_633\n        /* \"#utility.yul\":23564:23566   */\n      0x0b\n        /* \"#utility.yul\":23559:23562   */\n      dup4\n        /* \"#utility.yul\":23500:23567   */\n      tag_355\n      jump\t// in\n    tag_633:\n        /* \"#utility.yul\":23493:23567   */\n      swap2\n      pop\n        /* \"#utility.yul\":23576:23669   */\n      tag_634\n        /* \"#utility.yul\":23665:23668   */\n      dup3\n        /* \"#utility.yul\":23576:23669   */\n      tag_402\n      jump\t// in\n    tag_634:\n        /* \"#utility.yul\":23694:23696   */\n      0x20\n        /* \"#utility.yul\":23689:23692   */\n      dup3\n        /* \"#utility.yul\":23685:23697   */\n      add\n        /* \"#utility.yul\":23678:23697   */\n      swap1\n      pop\n        /* \"#utility.yul\":23337:23703   */\n      swap2\n      swap1\n      pop\n      jump\t// out\n        /* \"#utility.yul\":23709:24128   */\n    tag_213:\n        /* \"#utility.yul\":23875:23879   */\n      0x00\n        /* \"#utility.yul\":23913:23915   */\n      0x20\n        /* \"#utility.yul\":23902:23911   */\n      dup3\n        /* \"#utility.yul\":23898:23916   */\n      add\n        /* \"#utility.yul\":23890:23916   */\n      swap1\n      pop\n        /* \"#utility.yul\":23962:23971   */\n      dup2\n        /* \"#utility.yul\":23956:23960   */\n      dup2\n        /* \"#utility.yul\":23952:23972   */\n      sub\n        /* \"#utility.yul\":23948:23949   */\n      0x00\n        /* \"#utility.yul\":23937:23946   */\n      dup4\n        /* \"#utility.yul\":23933:23950   */\n      add\n        /* \"#utility.yul\":23926:23973   */\n      mstore\n        /* \"#utility.yul\":23990:24121   */\n      tag_636\n        /* \"#utility.yul\":24116:24120   */\n      dup2\n        /* \"#utility.yul\":23990:24121   */\n      tag_403\n      jump\t// in\n    tag_636:\n        /* \"#utility.yul\":23982:24121   */\n      swap1\n      pop\n        /* \"#utility.yul\":23709:24128   */\n      swap2\n      swap1\n      pop\n      jump\t// out\n        /* \"#utility.yul\":24134:24314   */\n    tag_404:\n        /* \"#utility.yul\":24182:24259   */\n      0x4e487b7100000000000000000000000000000000000000000000000000000000\n        /* \"#utility.yul\":24179:24180   */\n      0x00\n        /* \"#utility.yul\":24172:24260   */\n      mstore\n        /* \"#utility.yul\":24279:24283   */\n      0x12\n        /* \"#utility.yul\":24276:24277   */\n      0x04\n        /* \"#utility.yul\":24269:24284   */\n      mstore\n        /* \"#utility.yul\":24303:24307   */\n      0x24\n        /* \"#utility.yul\":24300:24301   */\n      0x00\n        /* \"#utility.yul\":24293:24308   */\n      revert\n        /* \"#utility.yul\":24320:24505   */\n    tag_219:\n        /* \"#utility.yul\":24360:24361   */\n      0x00\n        /* \"#utility.yul\":24377:24397   */\n      tag_639\n        /* \"#utility.yul\":24395:24396   */\n      dup3\n        /* \"#utility.yul\":24377:24397   */\n      tag_351\n      jump\t// in\n    tag_639:\n        /* \"#utility.yul\":24372:24397   */\n      swap2\n      pop\n        /* \"#utility.yul\":24411:24431   */\n      tag_640\n        /* \"#utility.yul\":24429:24430   */\n      dup4\n        /* \"#utility.yul\":24411:24431   */\n      tag_351\n      jump\t// in\n    tag_640:\n        /* \"#utility.yul\":24406:24431   */\n      swap3\n      pop\n        /* \"#utility.yul\":24450:24451   */\n      dup3\n        /* \"#utility.yul\":24440:24475   */\n      tag_641\n      jumpi\n        /* \"#utility.yul\":24455:24473   */\n      tag_642\n      tag_404\n      jump\t// in\n    tag_642:\n        /* \"#utility.yul\":24440:24475   */\n    tag_641:\n        /* \"#utility.yul\":24497:24498   */\n      dup3\n        /* \"#utility.yul\":24494:24495   */\n      dup3\n        /* \"#utility.yul\":24490:24499   */\n      div\n        /* \"#utility.yul\":24485:24499   */\n      swap1\n      pop\n        /* \"#utility.yul\":24320:24505   */\n      swap3\n      swap2\n      pop\n      pop\n      jump\t// out\n        /* \"#utility.yul\":24511:25615   */\n    tag_232:\n        /* \"#utility.yul\":24826:24830   */\n      0x00\n        /* \"#utility.yul\":24864:24867   */\n      0x0120\n        /* \"#utility.yul\":24853:24862   */\n      dup3\n        /* \"#utility.yul\":24849:24868   */\n      add\n        /* \"#utility.yul\":24841:24868   */\n      swap1\n      pop\n        /* \"#utility.yul\":24878:24949   */\n      tag_644\n        /* \"#utility.yul\":24946:24947   */\n      0x00\n        /* \"#utility.yul\":24935:24944   */\n      dup4\n        /* \"#utility.yul\":24931:24948   */\n      add\n        /* \"#utility.yul\":24922:24928   */\n      dup13\n        /* \"#utility.yul\":24878:24949   */\n      tag_363\n      jump\t// in\n    tag_644:\n        /* \"#utility.yul\":24959:25031   */\n      tag_645\n        /* \"#utility.yul\":25027:25029   */\n      0x20\n        /* \"#utility.yul\":25016:25025   */\n      dup4\n        /* \"#utility.yul\":25012:25030   */\n      add\n        /* \"#utility.yul\":25003:25009   */\n      dup12\n        /* \"#utility.yul\":24959:25031   */\n      tag_363\n      jump\t// in\n    tag_645:\n        /* \"#utility.yul\":25041:25113   */\n      tag_646\n        /* \"#utility.yul\":25109:25111   */\n      0x40\n        /* \"#utility.yul\":25098:25107   */\n      dup4\n        /* \"#utility.yul\":25094:25112   */\n      add\n        /* \"#utility.yul\":25085:25091   */\n      dup11\n        /* \"#utility.yul\":25041:25113   */\n      tag_361\n      jump\t// in\n    tag_646:\n        /* \"#utility.yul\":25123:25195   */\n      tag_647\n        /* \"#utility.yul\":25191:25193   */\n      0x60\n        /* \"#utility.yul\":25180:25189   */\n      dup4\n        /* \"#utility.yul\":25176:25194   */\n      add\n        /* \"#utility.yul\":25167:25173   */\n      dup10\n        /* \"#utility.yul\":25123:25195   */\n      tag_361\n      jump\t// in\n    tag_647:\n        /* \"#utility.yul\":25205:25278   */\n      tag_648\n        /* \"#utility.yul\":25273:25276   */\n      0x80\n        /* \"#utility.yul\":25262:25271   */\n      dup4\n        /* \"#utility.yul\":25258:25277   */\n      add\n        /* \"#utility.yul\":25249:25255   */\n      dup9\n        /* \"#utility.yul\":25205:25278   */\n      tag_361\n      jump\t// in\n    tag_648:\n        /* \"#utility.yul\":25288:25361   */\n      tag_649\n        /* \"#utility.yul\":25356:25359   */\n      0xa0\n        /* \"#utility.yul\":25345:25354   */\n      dup4\n        /* \"#utility.yul\":25341:25360   */\n      add\n        /* \"#utility.yul\":25332:25338   */\n      dup8\n        /* \"#utility.yul\":25288:25361   */\n      tag_361\n      jump\t// in\n    tag_649:\n        /* \"#utility.yul\":25371:25444   */\n      tag_650\n        /* \"#utility.yul\":25439:25442   */\n      0xc0\n        /* \"#utility.yul\":25428:25437   */\n      dup4\n        /* \"#utility.yul\":25424:25443   */\n      add\n        /* \"#utility.yul\":25415:25421   */\n      dup7\n        /* \"#utility.yul\":25371:25444   */\n      tag_361\n      jump\t// in\n    tag_650:\n        /* \"#utility.yul\":25454:25527   */\n      tag_651\n        /* \"#utility.yul\":25522:25525   */\n      0xe0\n        /* \"#utility.yul\":25511:25520   */\n      dup4\n        /* \"#utility.yul\":25507:25526   */\n      add\n        /* \"#utility.yul\":25498:25504   */\n      dup6\n        /* \"#utility.yul\":25454:25527   */\n      tag_361\n      jump\t// in\n    tag_651:\n        /* \"#utility.yul\":25537:25608   */\n      tag_652\n        /* \"#utility.yul\":25603:25606   */\n      0x0100\n        /* \"#utility.yul\":25592:25601   */\n      dup4\n        /* \"#utility.yul\":25588:25607   */\n      add\n        /* \"#utility.yul\":25579:25585   */\n      dup5\n        /* \"#utility.yul\":25537:25608   */\n      tag_365\n      jump\t// in\n    tag_652:\n        /* \"#utility.yul\":24511:25615   */\n      swap11\n      swap10\n      pop\n      pop\n      pop\n      pop\n      pop\n      pop\n      pop\n      pop\n      pop\n      pop\n      jump\t// out\n        /* \"#utility.yul\":25621:26063   */\n    tag_235:\n        /* \"#utility.yul\":25770:25774   */\n      0x00\n        /* \"#utility.yul\":25808:25810   */\n      0x60\n        /* \"#utility.yul\":25797:25806   */\n      dup3\n        /* \"#utility.yul\":25793:25811   */\n      add\n        /* \"#utility.yul\":25785:25811   */\n      swap1\n      pop\n        /* \"#utility.yul\":25821:25892   */\n      tag_654\n        /* \"#utility.yul\":25889:25890   */\n      0x00\n        /* \"#utility.yul\":25878:25887   */\n      dup4\n        /* \"#utility.yul\":25874:25891   */\n      add\n        /* \"#utility.yul\":25865:25871   */\n      dup7\n        /* \"#utility.yul\":25821:25892   */\n      tag_363\n      jump\t// in\n    tag_654:\n        /* \"#utility.yul\":25902:25974   */\n      tag_655\n        /* \"#utility.yul\":25970:25972   */\n      0x20\n        /* \"#utility.yul\":25959:25968   */\n      dup4\n        /* \"#utility.yul\":25955:25973   */\n      add\n        /* \"#utility.yul\":25946:25952   */\n      dup6\n        /* \"#utility.yul\":25902:25974   */\n      tag_361\n      jump\t// in\n    tag_655:\n        /* \"#utility.yul\":25984:26056   */\n      tag_656\n        /* \"#utility.yul\":26052:26054   */\n      0x40\n        /* \"#utility.yul\":26041:26050   */\n      dup4\n        /* \"#utility.yul\":26037:26055   */\n      add\n        /* \"#utility.yul\":26028:26034   */\n      dup5\n        /* \"#utility.yul\":25984:26056   */\n      tag_361\n      jump\t// in\n    tag_656:\n        /* \"#utility.yul\":25621:26063   */\n      swap5\n      swap4\n      pop\n      pop\n      pop\n      pop\n      jump\t// out\n        /* \"#utility.yul\":26069:26226   */\n    tag_405:\n        /* \"#utility.yul\":26209:26218   */\n      0x5a65726f20746f00000000000000000000000000000000000000000000000000\n        /* \"#utility.yul\":26205:26206   */\n      0x00\n        /* \"#utility.yul\":26197:26203   */\n      dup3\n        /* \"#utility.yul\":26193:26207   */\n      add\n        /* \"#utility.yul\":26186:26219   */\n      mstore\n        /* \"#utility.yul\":26069:26226   */\n      pop\n      jump\t// out\n        /* \"#utility.yul\":26232:26597   */\n    tag_406:\n        /* \"#utility.yul\":26374:26377   */\n      0x00\n        /* \"#utility.yul\":26395:26461   */\n      tag_659\n        /* \"#utility.yul\":26459:26460   */\n      0x07\n        /* \"#utility.yul\":26454:26457   */\n      dup4\n        /* \"#utility.yul\":26395:26461   */\n      tag_355\n      jump\t// in\n    tag_659:\n        /* \"#utility.yul\":26388:26461   */\n      swap2\n      pop\n        /* \"#utility.yul\":26470:26563   */\n      tag_660\n        /* \"#utility.yul\":26559:26562   */\n      dup3\n        /* \"#utility.yul\":26470:26563   */\n      tag_405\n      jump\t// in\n    tag_660:\n        /* \"#utility.yul\":26588:26590   */\n      0x20\n        /* \"#utility.yul\":26583:26586   */\n      dup3\n        /* \"#utility.yul\":26579:26591   */\n      add\n        /* \"#utility.yul\":26572:26591   */\n      swap1\n      pop\n        /* \"#utility.yul\":26232:26597   */\n      swap2\n      swap1\n      pop\n      jump\t// out\n        /* \"#utility.yul\":26603:27022   */\n    tag_249:\n        /* \"#utility.yul\":26769:26773   */\n      0x00\n        /* \"#utility.yul\":26807:26809   */\n      0x20\n        /* \"#utility.yul\":26796:26805   */\n      dup3\n        /* \"#utility.yul\":26792:26810   */\n      add\n        /* \"#utility.yul\":26784:26810   */\n      swap1\n      pop\n        /* \"#utility.yul\":26856:26865   */\n      dup2\n        /* \"#utility.yul\":26850:26854   */\n      dup2\n        /* \"#utility.yul\":26846:26866   */\n      sub\n        /* \"#utility.yul\":26842:26843   */\n      0x00\n        /* \"#utility.yul\":26831:26840   */\n      dup4\n        /* \"#utility.yul\":26827:26844   */\n      add\n        /* \"#utility.yul\":26820:26867   */\n      mstore\n        /* \"#utility.yul\":26884:27015   */\n      tag_662\n        /* \"#utility.yul\":27010:27014   */\n      dup2\n        /* \"#utility.yul\":26884:27015   */\n      tag_406\n      jump\t// in\n    tag_662:\n        /* \"#utility.yul\":26876:27015   */\n      swap1\n      pop\n        /* \"#utility.yul\":26603:27022   */\n      swap2\n      swap1\n      pop\n      jump\t// out\n        /* \"#utility.yul\":27028:27197   */\n    tag_407:\n        /* \"#utility.yul\":27168:27189   */\n      0x696e646578206f7574206f6620626f756e647300000000000000000000000000\n        /* \"#utility.yul\":27164:27165   */\n      0x00\n        /* \"#utility.yul\":27156:27162   */\n      dup3\n        /* \"#utility.yul\":27152:27166   */\n      add\n        /* \"#utility.yul\":27145:27190   */\n      mstore\n        /* \"#utility.yul\":27028:27197   */\n      pop\n      jump\t// out\n        /* \"#utility.yul\":27203:27569   */\n    tag_408:\n        /* \"#utility.yul\":27345:27348   */\n      0x00\n        /* \"#utility.yul\":27366:27433   */\n      tag_665\n        /* \"#utility.yul\":27430:27432   */\n      0x13\n        /* \"#utility.yul\":27425:27428   */\n      dup4\n        /* \"#utility.yul\":27366:27433   */\n      tag_355\n      jump\t// in\n    tag_665:\n        /* \"#utility.yul\":27359:27433   */\n      swap2\n      pop\n        /* \"#utility.yul\":27442:27535   */\n      tag_666\n        /* \"#utility.yul\":27531:27534   */\n      dup3\n        /* \"#utility.yul\":27442:27535   */\n      tag_407\n      jump\t// in\n    tag_666:\n        /* \"#utility.yul\":27560:27562   */\n      0x20\n        /* \"#utility.yul\":27555:27558   */\n      dup3\n        /* \"#utility.yul\":27551:27563   */\n      add\n        /* \"#utility.yul\":27544:27563   */\n      swap1\n      pop\n        /* \"#utility.yul\":27203:27569   */\n      swap2\n      swap1\n      pop\n      jump\t// out\n        /* \"#utility.yul\":27575:27994   */\n    tag_261:\n        /* \"#utility.yul\":27741:27745   */\n      0x00\n        /* \"#utility.yul\":27779:27781   */\n      0x20\n        /* \"#utility.yul\":27768:27777   */\n      dup3\n        /* \"#utility.yul\":27764:27782   */\n      add\n        /* \"#utility.yul\":27756:27782   */\n      swap1\n      pop\n        /* \"#utility.yul\":27828:27837   */\n      dup2\n        /* \"#utility.yul\":27822:27826   */\n      dup2\n        /* \"#utility.yul\":27818:27838   */\n      sub\n        /* \"#utility.yul\":27814:27815   */\n      0x00\n        /* \"#utility.yul\":27803:27812   */\n      dup4\n        /* \"#utility.yul\":27799:27816   */\n      add\n        /* \"#utility.yul\":27792:27839   */\n      mstore\n        /* \"#utility.yul\":27856:27987   */\n      tag_668\n        /* \"#utility.yul\":27982:27986   */\n      dup2\n        /* \"#utility.yul\":27856:27987   */\n      tag_408\n      jump\t// in\n    tag_668:\n        /* \"#utility.yul\":27848:27987   */\n      swap1\n      pop\n        /* \"#utility.yul\":27575:27994   */\n      swap2\n      swap1\n      pop\n      jump\t// out\n        /* \"#utility.yul\":28000:28180   */\n    tag_264:\n        /* \"#utility.yul\":28048:28125   */\n      0x4e487b7100000000000000000000000000000000000000000000000000000000\n        /* \"#utility.yul\":28045:28046   */\n      0x00\n        /* \"#utility.yul\":28038:28126   */\n      mstore\n        /* \"#utility.yul\":28145:28149   */\n      0x32\n        /* \"#utility.yul\":28142:28143   */\n      0x04\n        /* \"#utility.yul\":28135:28150   */\n      mstore\n        /* \"#utility.yul\":28169:28173   */\n      0x24\n        /* \"#utility.yul\":28166:28167   */\n      0x00\n        /* \"#utility.yul\":28159:28174   */\n      revert\n        /* \"#utility.yul\":28186:28345   */\n    tag_409:\n        /* \"#utility.yul\":28326:28337   */\n      0x6772616365203e20300000000000000000000000000000000000000000000000\n        /* \"#utility.yul\":28322:28323   */\n      0x00\n        /* \"#utility.yul\":28314:28320   */\n      dup3\n        /* \"#utility.yul\":28310:28324   */\n      add\n        /* \"#utility.yul\":28303:28338   */\n      mstore\n        /* \"#utility.yul\":28186:28345   */\n      pop\n      jump\t// out\n        /* \"#utility.yul\":28351:28716   */\n    tag_410:\n        /* \"#utility.yul\":28493:28496   */\n      0x00\n        /* \"#utility.yul\":28514:28580   */\n      tag_672\n        /* \"#utility.yul\":28578:28579   */\n      0x09\n        /* \"#utility.yul\":28573:28576   */\n      dup4\n        /* \"#utility.yul\":28514:28580   */\n      tag_355\n      jump\t// in\n    tag_672:\n        /* \"#utility.yul\":28507:28580   */\n      swap2\n      pop\n        /* \"#utility.yul\":28589:28682   */\n      tag_673\n        /* \"#utility.yul\":28678:28681   */\n      dup3\n        /* \"#utility.yul\":28589:28682   */\n      tag_409\n      jump\t// in\n    tag_673:\n        /* \"#utility.yul\":28707:28709   */\n      0x20\n        /* \"#utility.yul\":28702:28705   */\n      dup3\n        /* \"#utility.yul\":28698:28710   */\n      add\n        /* \"#utility.yul\":28691:28710   */\n      swap1\n      pop\n        /* \"#utility.yul\":28351:28716   */\n      swap2\n      swap1\n      pop\n      jump\t// out\n        /* \"#utility.yul\":28722:29141   */\n    tag_272:\n        /* \"#utility.yul\":28888:28892   */\n      0x00\n        /* \"#utility.yul\":28926:28928   */\n      0x20\n        /* \"#utility.yul\":28915:28924   */\n      dup3\n        /* \"#utility.yul\":28911:28929   */\n      add\n        /* \"#utility.yul\":28903:28929   */\n      swap1\n      pop\n        /* \"#utility.yul\":28975:28984   */\n      dup2\n        /* \"#utility.yul\":28969:28973   */\n      dup2\n        /* \"#utility.yul\":28965:28985   */\n      sub\n        /* \"#utility.yul\":28961:28962   */\n      0x00\n        /* \"#utility.yul\":28950:28959   */\n      dup4\n        /* \"#utility.yul\":28946:28963   */\n      add\n        /* \"#utility.yul\":28939:28986   */\n      mstore\n        /* \"#utility.yul\":29003:29134   */\n      tag_675\n        /* \"#utility.yul\":29129:29133   */\n      dup2\n        /* \"#utility.yul\":29003:29134   */\n      tag_410\n      jump\t// in\n    tag_675:\n        /* \"#utility.yul\":28995:29134   */\n      swap1\n      pop\n        /* \"#utility.yul\":28722:29141   */\n      swap2\n      swap1\n      pop\n      jump\t// out\n        /* \"#utility.yul\":29147:29307   */\n    tag_411:\n        /* \"#utility.yul\":29287:29299   */\n      0x5a65726f206f776e657200000000000000000000000000000000000000000000\n        /* \"#utility.yul\":29283:29284   */\n      0x00\n        /* \"#utility.yul\":29275:29281   */\n      dup3\n        /* \"#utility.yul\":29271:29285   */\n      add\n        /* \"#utility.yul\":29264:29300   */\n      mstore\n        /* \"#utility.yul\":29147:29307   */\n      pop\n      jump\t// out\n        /* \"#utility.yul\":29313:29679   */\n    tag_412:\n        /* \"#utility.yul\":29455:29458   */\n      0x00\n        /* \"#utility.yul\":29476:29543   */\n      tag_678\n        /* \"#utility.yul\":29540:29542   */\n      0x0a\n        /* \"#utility.yul\":29535:29538   */\n      dup4\n        /* \"#utility.yul\":29476:29543   */\n      tag_355\n      jump\t// in\n    tag_678:\n        /* \"#utility.yul\":29469:29543   */\n      swap2\n      pop\n        /* \"#utility.yul\":29552:29645   */\n      tag_679\n        /* \"#utility.yul\":29641:29644   */\n      dup3\n        /* \"#utility.yul\":29552:29645   */\n      tag_411\n      jump\t// in\n    tag_679:\n        /* \"#utility.yul\":29670:29672   */\n      0x20\n        /* \"#utility.yul\":29665:29668   */\n      dup3\n        /* \"#utility.yul\":29661:29673   */\n      add\n        /* \"#utility.yul\":29654:29673   */\n      swap1\n      pop\n        /* \"#utility.yul\":29313:29679   */\n      swap2\n      swap1\n      pop\n      jump\t// out\n        /* \"#utility.yul\":29685:30104   */\n    tag_280:\n        /* \"#utility.yul\":29851:29855   */\n      0x00\n        /* \"#utility.yul\":29889:29891   */\n      0x20\n        /* \"#utility.yul\":29878:29887   */\n      dup3\n        /* \"#utility.yul\":29874:29892   */\n      add\n        /* \"#utility.yul\":29866:29892   */\n      swap1\n      pop\n        /* \"#utility.yul\":29938:29947   */\n      dup2\n        /* \"#utility.yul\":29932:29936   */\n      dup2\n        /* \"#utility.yul\":29928:29948   */\n      sub\n        /* \"#utility.yul\":29924:29925   */\n      0x00\n        /* \"#utility.yul\":29913:29922   */\n      dup4\n        /* \"#utility.yul\":29909:29926   */\n      add\n        /* \"#utility.yul\":29902:29949   */\n      mstore\n        /* \"#utility.yul\":29966:30097   */\n      tag_681\n        /* \"#utility.yul\":30092:30096   */\n      dup2\n        /* \"#utility.yul\":29966:30097   */\n      tag_412\n      jump\t// in\n    tag_681:\n        /* \"#utility.yul\":29958:30097   */\n      swap1\n      pop\n        /* \"#utility.yul\":29685:30104   */\n      swap2\n      swap1\n      pop\n      jump\t// out\n        /* \"#utility.yul\":30110:30280   */\n    tag_413:\n        /* \"#utility.yul\":30250:30272   */\n      0x4275726e20657863656564732062616c616e6365000000000000000000000000\n        /* \"#utility.yul\":30246:30247   */\n      0x00\n        /* \"#utility.yul\":30238:30244   */\n      dup3\n        /* \"#utility.yul\":30234:30248   */\n      add\n        /* \"#utility.yul\":30227:30273   */\n      mstore\n        /* \"#utility.yul\":30110:30280   */\n      pop\n      jump\t// out\n        /* \"#utility.yul\":30286:30652   */\n    tag_414:\n        /* \"#utility.yul\":30428:30431   */\n      0x00\n        /* \"#utility.yul\":30449:30516   */\n      tag_684\n        /* \"#utility.yul\":30513:30515   */\n      0x14\n        /* \"#utility.yul\":30508:30511   */\n      dup4\n        /* \"#utility.yul\":30449:30516   */\n      tag_355\n      jump\t// in\n    tag_684:\n        /* \"#utility.yul\":30442:30516   */\n      swap2\n      pop\n        /* \"#utility.yul\":30525:30618   */\n      tag_685\n        /* \"#utility.yul\":30614:30617   */\n      dup3\n        /* \"#utility.yul\":30525:30618   */\n      tag_413\n      jump\t// in\n    tag_685:\n        /* \"#utility.yul\":30643:30645   */\n      0x20\n        /* \"#utility.yul\":30638:30641   */\n      dup3\n        /* \"#utility.yul\":30634:30646   */\n      add\n        /* \"#utility.yul\":30627:30646   */\n      swap1\n      pop\n        /* \"#utility.yul\":30286:30652   */\n      swap2\n      swap1\n      pop\n      jump\t// out\n        /* \"#utility.yul\":30658:31077   */\n    tag_284:\n        /* \"#utility.yul\":30824:30828   */\n      0x00\n        /* \"#utility.yul\":30862:30864   */\n      0x20\n        /* \"#utility.yul\":30851:30860   */\n      dup3\n        /* \"#utility.yul\":30847:30865   */\n      add\n        /* \"#utility.yul\":30839:30865   */\n      swap1\n      pop\n        /* \"#utility.yul\":30911:30920   */\n      dup2\n        /* \"#utility.yul\":30905:30909   */\n      dup2\n        /* \"#utility.yul\":30901:30921   */\n      sub\n        /* \"#utility.yul\":30897:30898   */\n      0x00\n        /* \"#utility.yul\":30886:30895   */\n      dup4\n        /* \"#utility.yul\":30882:30899   */\n      add\n        /* \"#utility.yul\":30875:30922   */\n      mstore\n        /* \"#utility.yul\":30939:31070   */\n      tag_687\n        /* \"#utility.yul\":31065:31069   */\n      dup2\n        /* \"#utility.yul\":30939:31070   */\n      tag_414\n      jump\t// in\n    tag_687:\n        /* \"#utility.yul\":30931:31070   */\n      swap1\n      pop\n        /* \"#utility.yul\":30658:31077   */\n      swap2\n      swap1\n      pop\n      jump\t// out\n        /* \"#utility.yul\":31083:31248   */\n    tag_415:\n        /* \"#utility.yul\":31223:31240   */\n      0x42616c616e636520746f6f206c6f770000000000000000000000000000000000\n        /* \"#utility.yul\":31219:31220   */\n      0x00\n        /* \"#utility.yul\":31211:31217   */\n      dup3\n        /* \"#utility.yul\":31207:31221   */\n      add\n        /* \"#utility.yul\":31200:31241   */\n      mstore\n        /* \"#utility.yul\":31083:31248   */\n      pop\n      jump\t// out\n        /* \"#utility.yul\":31254:31620   */\n    tag_416:\n        /* \"#utility.yul\":31396:31399   */\n      0x00\n        /* \"#utility.yul\":31417:31484   */\n      tag_690\n        /* \"#utility.yul\":31481:31483   */\n      0x0f\n        /* \"#utility.yul\":31476:31479   */\n      dup4\n        /* \"#utility.yul\":31417:31484   */\n      tag_355\n      jump\t// in\n    tag_690:\n        /* \"#utility.yul\":31410:31484   */\n      swap2\n      pop\n        /* \"#utility.yul\":31493:31586   */\n      tag_691\n        /* \"#utility.yul\":31582:31585   */\n      dup3\n        /* \"#utility.yul\":31493:31586   */\n      tag_415\n      jump\t// in\n    tag_691:\n        /* \"#utility.yul\":31611:31613   */\n      0x20\n        /* \"#utility.yul\":31606:31609   */\n      dup3\n        /* \"#utility.yul\":31602:31614   */\n      add\n        /* \"#utility.yul\":31595:31614   */\n      swap1\n      pop\n        /* \"#utility.yul\":31254:31620   */\n      swap2\n      swap1\n      pop\n      jump\t// out\n        /* \"#utility.yul\":31626:32045   */\n    tag_291:\n        /* \"#utility.yul\":31792:31796   */\n      0x00\n        /* \"#utility.yul\":31830:31832   */\n      0x20\n        /* \"#utility.yul\":31819:31828   */\n      dup3\n        /* \"#utility.yul\":31815:31833   */\n      add\n        /* \"#utility.yul\":31807:31833   */\n      swap1\n      pop\n        /* \"#utility.yul\":31879:31888   */\n      dup2\n        /* \"#utility.yul\":31873:31877   */\n      dup2\n        /* \"#utility.yul\":31869:31889   */\n      sub\n        /* \"#utility.yul\":31865:31866   */\n      0x00\n        /* \"#utility.yul\":31854:31863   */\n      dup4\n        /* \"#utility.yul\":31850:31867   */\n      add\n        /* \"#utility.yul\":31843:31890   */\n      mstore\n        /* \"#utility.yul\":31907:32038   */\n      tag_693\n        /* \"#utility.yul\":32033:32037   */\n      dup2\n        /* \"#utility.yul\":31907:32038   */\n      tag_416\n      jump\t// in\n    tag_693:\n        /* \"#utility.yul\":31899:32038   */\n      swap1\n      pop\n        /* \"#utility.yul\":31626:32045   */\n      swap2\n      swap1\n      pop\n      jump\t// out\n        /* \"#utility.yul\":32051:32242   */\n    tag_293:\n        /* \"#utility.yul\":32091:32094   */\n      0x00\n        /* \"#utility.yul\":32110:32130   */\n      tag_695\n        /* \"#utility.yul\":32128:32129   */\n      dup3\n        /* \"#utility.yul\":32110:32130   */\n      tag_351\n      jump\t// in\n    tag_695:\n        /* \"#utility.yul\":32105:32130   */\n      swap2\n      pop\n        /* \"#utility.yul\":32144:32164   */\n      tag_696\n        /* \"#utility.yul\":32162:32163   */\n      dup4\n        /* \"#utility.yul\":32144:32164   */\n      tag_351\n      jump\t// in\n    tag_696:\n        /* \"#utility.yul\":32139:32164   */\n      swap3\n      pop\n        /* \"#utility.yul\":32187:32188   */\n      dup3\n        /* \"#utility.yul\":32184:32185   */\n      dup3\n        /* \"#utility.yul\":32180:32189   */\n      add\n        /* \"#utility.yul\":32173:32189   */\n      swap1\n      pop\n        /* \"#utility.yul\":32208:32211   */\n      dup1\n        /* \"#utility.yul\":32205:32206   */\n      dup3\n        /* \"#utility.yul\":32202:32212   */\n      gt\n        /* \"#utility.yul\":32199:32235   */\n      iszero\n      tag_697\n      jumpi\n        /* \"#utility.yul\":32215:32233   */\n      tag_698\n      tag_389\n      jump\t// in\n    tag_698:\n        /* \"#utility.yul\":32199:32235   */\n    tag_697:\n        /* \"#utility.yul\":32051:32242   */\n      swap3\n      swap2\n      pop\n      pop\n      jump\t// out\n        /* \"#utility.yul\":32248:32658   */\n    tag_303:\n        /* \"#utility.yul\":32288:32295   */\n      0x00\n        /* \"#utility.yul\":32311:32331   */\n      tag_700\n        /* \"#utility.yul\":32329:32330   */\n      dup3\n        /* \"#utility.yul\":32311:32331   */\n      tag_351\n      jump\t// in\n    tag_700:\n        /* \"#utility.yul\":32306:32331   */\n      swap2\n      pop\n        /* \"#utility.yul\":32345:32365   */\n      tag_701\n        /* \"#utility.yul\":32363:32364   */\n      dup4\n        /* \"#utility.yul\":32345:32365   */\n      tag_351\n      jump\t// in\n    tag_701:\n        /* \"#utility.yul\":32340:32365   */\n      swap3\n      pop\n        /* \"#utility.yul\":32400:32401   */\n      dup3\n        /* \"#utility.yul\":32397:32398   */\n      dup3\n        /* \"#utility.yul\":32393:32402   */\n      mul\n        /* \"#utility.yul\":32422:32452   */\n      tag_702\n        /* \"#utility.yul\":32440:32451   */\n      dup2\n        /* \"#utility.yul\":32422:32452   */\n      tag_351\n      jump\t// in\n    tag_702:\n        /* \"#utility.yul\":32411:32452   */\n      swap2\n      pop\n        /* \"#utility.yul\":32601:32602   */\n      dup3\n        /* \"#utility.yul\":32592:32599   */\n      dup3\n        /* \"#utility.yul\":32588:32603   */\n      div\n        /* \"#utility.yul\":32585:32586   */\n      dup5\n        /* \"#utility.yul\":32582:32604   */\n      eq\n        /* \"#utility.yul\":32562:32563   */\n      dup4\n        /* \"#utility.yul\":32555:32564   */\n      iszero\n        /* \"#utility.yul\":32535:32618   */\n      or\n        /* \"#utility.yul\":32512:32651   */\n      tag_703\n      jumpi\n        /* \"#utility.yul\":32631:32649   */\n      tag_704\n      tag_389\n      jump\t// in\n    tag_704:\n        /* \"#utility.yul\":32512:32651   */\n    tag_703:\n        /* \"#utility.yul\":32296:32658   */\n      pop\n        /* \"#utility.yul\":32248:32658   */\n      swap3\n      swap2\n      pop\n      pop\n      jump\t// out\n        /* \"#utility.yul\":32664:33106   */\n    tag_308:\n        /* \"#utility.yul\":32813:32817   */\n      0x00\n        /* \"#utility.yul\":32851:32853   */\n      0x60\n        /* \"#utility.yul\":32840:32849   */\n      dup3\n        /* \"#utility.yul\":32836:32854   */\n      add\n        /* \"#utility.yul\":32828:32854   */\n      swap1\n      pop\n        /* \"#utility.yul\":32864:32935   */\n      tag_706\n        /* \"#utility.yul\":32932:32933   */\n      0x00\n        /* \"#utility.yul\":32921:32930   */\n      dup4\n        /* \"#utility.yul\":32917:32934   */\n      add\n        /* \"#utility.yul\":32908:32914   */\n      dup7\n        /* \"#utility.yul\":32864:32935   */\n      tag_361\n      jump\t// in\n    tag_706:\n        /* \"#utility.yul\":32945:33017   */\n      tag_707\n        /* \"#utility.yul\":33013:33015   */\n      0x20\n        /* \"#utility.yul\":33002:33011   */\n      dup4\n        /* \"#utility.yul\":32998:33016   */\n      add\n        /* \"#utility.yul\":32989:32995   */\n      dup6\n        /* \"#utility.yul\":32945:33017   */\n      tag_361\n      jump\t// in\n    tag_707:\n        /* \"#utility.yul\":33027:33099   */\n      tag_708\n        /* \"#utility.yul\":33095:33097   */\n      0x40\n        /* \"#utility.yul\":33084:33093   */\n      dup4\n        /* \"#utility.yul\":33080:33098   */\n      add\n        /* \"#utility.yul\":33071:33077   */\n      dup5\n        /* \"#utility.yul\":33027:33099   */\n      tag_361\n      jump\t// in\n    tag_708:\n        /* \"#utility.yul\":32664:33106   */\n      swap5\n      swap4\n      pop\n      pop\n      pop\n      pop\n      jump\t// out\n        /* \"#utility.yul\":33112:33340   */\n    tag_330:\n        /* \"#utility.yul\":33147:33150   */\n      0x00\n        /* \"#utility.yul\":33170:33193   */\n      tag_710\n        /* \"#utility.yul\":33187:33192   */\n      dup3\n        /* \"#utility.yul\":33170:33193   */\n      tag_364\n      jump\t// in\n    tag_710:\n        /* \"#utility.yul\":33161:33193   */\n      swap2\n      pop\n        /* \"#utility.yul\":33215:33281   */\n      0x8000000000000000000000000000000000000000000000000000000000000000\n        /* \"#utility.yul\":33208:33213   */\n      dup3\n        /* \"#utility.yul\":33205:33282   */\n      sub\n        /* \"#utility.yul\":33202:33305   */\n      tag_711\n      jumpi\n        /* \"#utility.yul\":33285:33303   */\n      tag_712\n      tag_389\n      jump\t// in\n    tag_712:\n        /* \"#utility.yul\":33202:33305   */\n    tag_711:\n        /* \"#utility.yul\":33328:33333   */\n      dup2\n        /* \"#utility.yul\":33325:33326   */\n      0x00\n        /* \"#utility.yul\":33321:33334   */\n      sub\n        /* \"#utility.yul\":33314:33334   */\n      swap1\n      pop\n        /* \"#utility.yul\":33112:33340   */\n      swap2\n      swap1\n      pop\n      jump\t// out\n\n    auxdata: 0xa2646970667358221220ecd6ce7d37bf95a5b961d9f5c49bf71aba7deb9ed9e91b3049297b559237883964736f6c634300081e0033\n}\n",
				"bytecode": {
					"linkReferences": {},
					"object": "60a06040526040518060400160405280601181526020017f436172626f6e437265646974546f6b656e0000000000000000000000000000008152505f90816100479190610444565b506040518060400160405280600381526020017f43435400000000000000000000000000000000000000000000000000000000008152506001908161008c9190610444565b50610384600a556003600b553480156100a3575f5ffd5b50604051613d08380380613d0883398181016040528101906100c59190610571565b5f73ffffffffffffffffffffffffffffffffffffffff168173ffffffffffffffffffffffffffffffffffffffff1603610133576040517f08c379a000000000000000000000000000000000000000000000000000000000815260040161012a906105f6565b60405180910390fd5b8073ffffffffffffffffffffffffffffffffffffffff1660808173ffffffffffffffffffffffffffffffffffffffff16815250503360055f6101000a81548173ffffffffffffffffffffffffffffffffffffffff021916908373ffffffffffffffffffffffffffffffffffffffff1602179055503373ffffffffffffffffffffffffffffffffffffffff165f73ffffffffffffffffffffffffffffffffffffffff167f8be0079c531659141344cd1fd0a4f28419497f9722a3daafe3b4186f6b6457e060405160405180910390a350610614565b5f81519050919050565b7f4e487b71000000000000000000000000000000000000000000000000000000005f52604160045260245ffd5b7f4e487b71000000000000000000000000000000000000000000000000000000005f52602260045260245ffd5b5f600282049050600182168061028257607f821691505b6020821081036102955761029461023e565b5b50919050565b5f819050815f5260205f209050919050565b5f6020601f8301049050919050565b5f82821b905092915050565b5f600883026102f77fffffffffffffffffffffffffffffffffffffffffffffffffffffffffffffffff826102bc565b61030186836102bc565b95508019841693508086168417925050509392505050565b5f819050919050565b5f819050919050565b5f61034561034061033b84610319565b610322565b610319565b9050919050565b5f819050919050565b61035e8361032b565b61037261036a8261034c565b8484546102c8565b825550505050565b5f5f905090565b61038961037a565b610394818484610355565b505050565b5b818110156103b7576103ac5f82610381565b60018101905061039a565b5050565b601f8211156103fc576103cd8161029b565b6103d6846102ad565b810160208510156103e5578190505b6103f96103f1856102ad565b830182610399565b50505b505050565b5f82821c905092915050565b5f61041c5f1984600802610401565b1980831691505092915050565b5f610434838361040d565b9150826002028217905092915050565b61044d82610207565b67ffffffffffffffff81111561046657610465610211565b5b610470825461026b565b61047b8282856103bb565b5f60209050601f8311600181146104ac575f841561049a578287015190505b6104a48582610429565b86555061050b565b601f1984166104ba8661029b565b5f5b828110156104e1578489015182556001820191506020850194506020810190506104bc565b868310156104fe57848901516104fa601f89168261040d565b8355505b6001600288020188555050505b505050505050565b5f5ffd5b5f73ffffffffffffffffffffffffffffffffffffffff82169050919050565b5f61054082610517565b9050919050565b61055081610536565b811461055a575f5ffd5b50565b5f8151905061056b81610547565b92915050565b5f6020828403121561058657610585610513565b5b5f6105938482850161055d565b91505092915050565b5f82825260208201905092915050565b7f72656769737472792072657175697265640000000000000000000000000000005f82015250565b5f6105e060118361059c565b91506105eb826105ac565b602082019050919050565b5f6020820190508181035f83015261060d816105d4565b9050919050565b6080516136d56106335f395f8181610e5e0152610fa201526136d55ff3fe608060405234801561000f575f5ffd5b506004361061018c575f3560e01c8063812da1e2116100dc578063dd62ed3e11610095578063eb6f0c931161006f578063eb6f0c93146104d6578063f218f48c14610506578063f2f6596014610524578063f2fde38b146105405761018c565b8063dd62ed3e1461045a578063e58306f91461048a578063e8accb5b146104a65761018c565b8063812da1e21461037257806388fcda391461038e5780638da5cb5b146103be57806395d89b41146103dc5780639a6669c0146103fa578063a9059cbb1461042a5761018c565b806323b872dd11610149578063677a68e111610123578063677a68e1146102d85780636e588a371461030857806370a08231146103245780637b103999146103545761018c565b806323b872dd1461026e578063313ce5671461029e57806349b3b32d146102bc5761018c565b806306dd04191461019057806306fdde03146101ac578063095ea7b3146101ca5780631344f9b4146101fa5780631485041c1461023257806318160ddd14610250575b5f5ffd5b6101aa60048036038101906101a59190612759565b61055c565b005b6101b46106f7565b6040516101c19190612807565b60405180910390f35b6101e460048036038101906101df9190612759565b610782565b6040516101f19190612841565b60405180910390f35b610214600480360381019061020f9190612759565b61086f565b60405161022999989796959493929190612899565b60405180910390f35b61023a6108d3565b6040516102479190612924565b60405180910390f35b6102586108d9565b6040516102659190612924565b60405180910390f35b6102886004803603810190610283919061293d565b6108df565b6040516102959190612841565b60405180910390f35b6102a6610a66565b6040516102b391906129a8565b60405180910390f35b6102d660048036038101906102d191906129c1565b610a6a565b005b6102f260048036038101906102ed91906129ec565b610d20565b6040516102ff9190612924565b60405180910390f35b610322600480360381019061031d91906129c1565b610d35565b005b61033e600480360381019061033991906129ec565b610e47565b60405161034b9190612924565b60405180910390f35b61035c610e5c565b6040516103699190612a72565b60405180910390f35b61038c60048036038101906103879190612ab5565b610e80565b005b6103a860048036038101906103a39190612b3e565b611323565b6040516103b59190612841565b60405180910390f35b6103c6611340565b6040516103d39190612b78565b60405180910390f35b6103e4611365565b6040516103f19190612807565b60405180910390f35b610414600480360381019061040f91906129ec565b6113f1565b6040516104219190612924565b60405180910390f35b610444600480360381019061043f9190612759565b611406565b6040516104519190612841565b60405180910390f35b610474600480360381019061046f9190612b91565b61141c565b6040516104819190612924565b60405180910390f35b6104a4600480360381019061049f9190612759565b61143c565b005b6104c060048036038101906104bb91906129ec565b6115d7565b6040516104cd9190612924565b60405180910390f35b6104f060048036038101906104eb9190612759565b611620565b6040516104fd9190612cb1565b60405180910390f35b61050e611772565b60405161051b9190612924565b60405180910390f35b61053e600480360381019061053991906129c1565b611778565b005b61055a600480360381019061055591906129ec565b61188a565b005b60055f9054906101000a900473ffffffffffffffffffffffffffffffffffffffff1673ffffffffffffffffffffffffffffffffffffffff163373ffffffffffffffffffffffffffffffffffffffff16146105eb576040517f08c379a00000000000000000000000000000000000000000000000000000000081526004016105e290612d15565b60405180910390fd5b5f73ffffffffffffffffffffffffffffffffffffffff168273ffffffffffffffffffffffffffffffffffffffff1603610659576040517f08c379a000000000000000000000000000000000000000000000000000000000815260040161065090612d7d565b60405180910390fd5b5f811161069b576040517f08c379a000000000000000000000000000000000000000000000000000000000815260040161069290612de5565b60405180910390fd5b6106a58282611a45565b8173ffffffffffffffffffffffffffffffffffffffff167f5cc4484a78e496ea6abafbd7c5808368871033d43d3c7abd18af42799d9f0f64826040516106eb9190612924565b60405180910390a25050565b5f805461070390612e30565b80601f016020809104026020016040519081016040528092919081815260200182805461072f90612e30565b801561077a5780601f106107515761010080835404028352916020019161077a565b820191905f5260205f20905b81548152906001019060200180831161075d57829003601f168201915b505050505081565b5f8160045f3373ffffffffffffffffffffffffffffffffffffffff1673ffffffffffffffffffffffffffffffffffffffff1681526020019081526020015f205f8573ffffffffffffffffffffffffffffffffffffffff1673ffffffffffffffffffffffffffffffffffffffff1681526020019081526020015f20819055508273ffffffffffffffffffffffffffffffffffffffff163373ffffffffffffffffffffffffffffffffffffffff167f8c5be1e5ebec7d5bd14f71427d1e84f3dd0314c0f7b2291e5b200ac8c7c3b9258460405161085d9190612924565b60405180910390a36001905092915050565b6007602052815f5260405f208181548110610888575f80fd5b905f5260205f2090600902015f9150915050805f0154908060010154908060020154908060030154908060040154908060050154908060060154908060070154908060080154905089565b600a5481565b60025481565b5f5f60045f8673ffffffffffffffffffffffffffffffffffffffff1673ffffffffffffffffffffffffffffffffffffffff1681526020019081526020015f205f3373ffffffffffffffffffffffffffffffffffffffff1673ffffffffffffffffffffffffffffffffffffffff1681526020019081526020015f205490508281101561099f576040517f08c379a000000000000000000000000000000000000000000000000000000000815260040161099690612eaa565b60405180910390fd5b7fffffffffffffffffffffffffffffffffffffffffffffffffffffffffffffffff8114610a4f5782816109d29190612ef5565b60045f8773ffffffffffffffffffffffffffffffffffffffff1673ffffffffffffffffffffffffffffffffffffffff1681526020019081526020015f205f3373ffffffffffffffffffffffffffffffffffffffff1673ffffffffffffffffffffffffffffffffffffffff1681526020019081526020015f20819055505b610a5a858585611b86565b60019150509392505050565b5f81565b5f3390505f60085f8373ffffffffffffffffffffffffffffffffffffffff1673ffffffffffffffffffffffffffffffffffffffff1681526020019081526020015f205490505f8111610af1576040517f08c379a0000000000000000000000000000000000000000000000000000000008152600401610ae890612f72565b60405180910390fd5b5f60035f8473ffffffffffffffffffffffffffffffffffffffff1673ffffffffffffffffffffffffffffffffffffffff1681526020019081526020015f205490505f818511610b405784610b42565b815b90505f8111610b86576040517f08c379a0000000000000000000000000000000000000000000000000000000008152600401610b7d90612fda565b60405180910390fd5b610b908482611a45565b828110610c70575f60085f8673ffffffffffffffffffffffffffffffffffffffff1673ffffffffffffffffffffffffffffffffffffffff1681526020019081526020015f20819055505f60095f8673ffffffffffffffffffffffffffffffffffffffff1673ffffffffffffffffffffffffffffffffffffffff1681526020019081526020015f20819055508373ffffffffffffffffffffffffffffffffffffffff167f1657f3f9db7a57a2cbf7c5c76516840b2a7cf3f20bc67edb2cd02f10c56d0a2a845f604051610c63929190613031565b60405180910390a2610d19565b8083610c7c9190612ef5565b60085f8673ffffffffffffffffffffffffffffffffffffffff1673ffffffffffffffffffffffffffffffffffffffff1681526020019081526020015f20819055508373ffffffffffffffffffffffffffffffffffffffff167f1657f3f9db7a57a2cbf7c5c76516840b2a7cf3f20bc67edb2cd02f10c56d0a2a828386610d029190612ef5565b604051610d10929190613058565b60405180910390a25b5050505050565b6008602052805f5260405f205f915090505481565b60055f9054906101000a900473ffffffffffffffffffffffffffffffffffffffff1673ffffffffffffffffffffffffffffffffffffffff163373ffffffffffffffffffffffffffffffffffffffff1614610dc4576040517f08c379a0000000000000000000000000000000000000000000000000000000008152600401610dbb90612d15565b60405180910390fd5b5f8111610e06576040517f08c379a0000000000000000000000000000000000000000000000000000000008152600401610dfd906130c9565b60405180910390fd5b80600b819055507f9bbd3ee0c0d856b1198cd3966f4f15316ce0e09486f06fb84780b6f85a5ecbe681604051610e3c9190612924565b60405180910390a150565b6003602052805f5260405f205f915090505481565b7f000000000000000000000000000000000000000000000000000000000000000081565b60055f9054906101000a900473ffffffffffffffffffffffffffffffffffffffff1673ffffffffffffffffffffffffffffffffffffffff163373ffffffffffffffffffffffffffffffffffffffff1614610f0f576040517f08c379a0000000000000000000000000000000000000000000000000000000008152600401610f0690612d15565b60405180910390fd5b60065f8281526020019081526020015f205f9054906101000a900460ff1615610f6d576040517f08c379a0000000000000000000000000000000000000000000000000000000008152600401610f6490613131565b60405180910390fd5b600160065f8381526020019081526020015f205f6101000a81548160ff021916908315150217905550610f9f86611d7a565b5f7f000000000000000000000000000000000000000000000000000000000000000073ffffffffffffffffffffffffffffffffffffffff16630c3dea29886040518263ffffffff1660e01b8152600401610ff99190612b78565b602060405180830381865afa158015611014573d5f5f3e3d5ffd5b505050506040513d601f19601f820116820180604052508101906110389190613163565b90505f811161107c576040517f08c379a0000000000000000000000000000000000000000000000000000000008152600401611073906131d8565b60405180910390fd5b611084612661565b818710156110c7575f87836110999190612ef5565b90505f6103e8826110aa9190613223565b90505f8111156110c0576110bf8a828561200b565b5b5050611107565b81871115611106575f82886110dc9190612ef5565b90505f6103e8826110ed9190613223565b90505f811115611103576111028a82856122d8565b5b50505b5b60075f8973ffffffffffffffffffffffffffffffffffffffff1673ffffffffffffffffffffffffffffffffffffffff1681526020019081526020015f20604051806101200160405280888152602001878152602001898152602001848152602001868152602001835f01518152602001836020015181526020018360400151815260200185815250908060018154018082558091505060019003905f5260205f2090600902015f909190919091505f820151815f01556020820151816001015560408201518160020155606082015181600301556080820151816004015560a0820151816005015560c0820151816006015560e08201518160070155610100820151816008015550508773ffffffffffffffffffffffffffffffffffffffff167fccc62654ecd4111e8b4bedba3b24e6ea465563d9ac5b90500e2ba4c7a927479e858589898c88886020015189604001518a5f015160405161127199989796959493929190613253565b60405180910390a25f81606001511115611319578773ffffffffffffffffffffffffffffffffffffffff167fc9da27416a8aae22f0acc7d91833546eb5085a44ed6c817ac307403ca754777184836060015160095f8d73ffffffffffffffffffffffffffffffffffffffff1673ffffffffffffffffffffffffffffffffffffffff1681526020019081526020015f2054604051611310939291906132de565b60405180910390a25b5050505050505050565b6006602052805f5260405f205f915054906101000a900460ff1681565b60055f9054906101000a900473ffffffffffffffffffffffffffffffffffffffff1681565b6001805461137290612e30565b80601f016020809104026020016040519081016040528092919081815260200182805461139e90612e30565b80156113e95780601f106113c0576101008083540402835291602001916113e9565b820191905f5260205f20905b8154815290600101906020018083116113cc57829003601f168201915b505050505081565b6009602052805f5260405f205f915090505481565b5f611412338484611b86565b6001905092915050565b6004602052815f5260405f20602052805f5260405f205f91509150505481565b60055f9054906101000a900473ffffffffffffffffffffffffffffffffffffffff1673ffffffffffffffffffffffffffffffffffffffff163373ffffffffffffffffffffffffffffffffffffffff16146114cb576040517f08c379a00000000000000000000000000000000000000000000000000000000081526004016114c290612d15565b60405180910390fd5b5f73ffffffffffffffffffffffffffffffffffffffff168273ffffffffffffffffffffffffffffffffffffffff1603611539576040517f08c379a00000000000000000000000000000000000000000000000000000000081526004016115309061335d565b60405180910390fd5b5f811161157b576040517f08c379a000000000000000000000000000000000000000000000000000000000815260040161157290612de5565b60405180910390fd5b611585828261251f565b8173ffffffffffffffffffffffffffffffffffffffff167f90363c347ac279caf3ee0f1a07c9c17f19f56b1e394697a1d23b056c2c5bb36b826040516115cb9190612924565b60405180910390a25050565b5f60075f8373ffffffffffffffffffffffffffffffffffffffff1673ffffffffffffffffffffffffffffffffffffffff1681526020019081526020015f20805490509050919050565b611628612685565b60075f8473ffffffffffffffffffffffffffffffffffffffff1673ffffffffffffffffffffffffffffffffffffffff1681526020019081526020015f208054905082106116aa576040517f08c379a00000000000000000000000000000000000000000000000000000000081526004016116a1906133c5565b60405180910390fd5b60075f8473ffffffffffffffffffffffffffffffffffffffff1673ffffffffffffffffffffffffffffffffffffffff1681526020019081526020015f2082815481106116f9576116f86133e3565b5b905f5260205f209060090201604051806101200160405290815f820154815260200160018201548152602001600282015481526020016003820154815260200160048201548152602001600582015481526020016006820154815260200160078201548152602001600882015481525050905092915050565b600b5481565b60055f9054906101000a900473ffffffffffffffffffffffffffffffffffffffff1673ffffffffffffffffffffffffffffffffffffffff163373ffffffffffffffffffffffffffffffffffffffff1614611807576040517f08c379a00000000000000000000000000000000000000000000000000000000081526004016117fe90612d15565b60405180910390fd5b5f8111611849576040517f08c379a00000000000000000000000000000000000000000000000000000000081526004016118409061345a565b60405180910390fd5b80600a819055507f33d1191f5a3abfe19d468d51bb5ece97489f1277a912a5b5c65992fc279ad3d48160405161187f9190612924565b60405180910390a150565b60055f9054906101000a900473ffffffffffffffffffffffffffffffffffffffff1673ffffffffffffffffffffffffffffffffffffffff163373ffffffffffffffffffffffffffffffffffffffff1614611919576040517f08c379a000000000000000000000000000000000000000000000000000000000815260040161191090612d15565b60405180910390fd5b5f73ffffffffffffffffffffffffffffffffffffffff168173ffffffffffffffffffffffffffffffffffffffff1603611987576040517f08c379a000000000000000000000000000000000000000000000000000000000815260040161197e906134c2565b60405180910390fd5b8073ffffffffffffffffffffffffffffffffffffffff1660055f9054906101000a900473ffffffffffffffffffffffffffffffffffffffff1673ffffffffffffffffffffffffffffffffffffffff167f8be0079c531659141344cd1fd0a4f28419497f9722a3daafe3b4186f6b6457e060405160405180910390a38060055f6101000a81548173ffffffffffffffffffffffffffffffffffffffff021916908373ffffffffffffffffffffffffffffffffffffffff16021790555050565b5f60035f8473ffffffffffffffffffffffffffffffffffffffff1673ffffffffffffffffffffffffffffffffffffffff1681526020019081526020015f2054905081811015611ac9576040517f08c379a0000000000000000000000000000000000000000000000000000000008152600401611ac09061352a565b60405180910390fd5b81810360035f8573ffffffffffffffffffffffffffffffffffffffff1673ffffffffffffffffffffffffffffffffffffffff1681526020019081526020015f20819055508160025f82825403925050819055505f73ffffffffffffffffffffffffffffffffffffffff168373ffffffffffffffffffffffffffffffffffffffff167fddf252ad1be2c89b69c2b068fc378daa952ba7f163c4a11628f55a4df523b3ef84604051611b799190612924565b60405180910390a3505050565b5f73ffffffffffffffffffffffffffffffffffffffff168273ffffffffffffffffffffffffffffffffffffffff1603611bf4576040517f08c379a0000000000000000000000000000000000000000000000000000000008152600401611beb9061335d565b60405180910390fd5b5f60035f8573ffffffffffffffffffffffffffffffffffffffff1673ffffffffffffffffffffffffffffffffffffffff1681526020019081526020015f2054905081811015611c78576040517f08c379a0000000000000000000000000000000000000000000000000000000008152600401611c6f90613592565b60405180910390fd5b81810360035f8673ffffffffffffffffffffffffffffffffffffffff1673ffffffffffffffffffffffffffffffffffffffff1681526020019081526020015f20819055508160035f8573ffffffffffffffffffffffffffffffffffffffff1673ffffffffffffffffffffffffffffffffffffffff1681526020019081526020015f205f828254611d0891906135b0565b925050819055508273ffffffffffffffffffffffffffffffffffffffff168473ffffffffffffffffffffffffffffffffffffffff167fddf252ad1be2c89b69c2b068fc378daa952ba7f163c4a11628f55a4df523b3ef84604051611d6c9190612924565b60405180910390a350505050565b5f60095f8373ffffffffffffffffffffffffffffffffffffffff1673ffffffffffffffffffffffffffffffffffffffff1681526020019081526020015f205490505f60085f8473ffffffffffffffffffffffffffffffffffffffff1673ffffffffffffffffffffffffffffffffffffffff1681526020019081526020015f20541480611e0557505f81145b80611e105750804211155b15611e1b5750612008565b5f6001600a548342611e2d9190612ef5565b611e379190613223565b611e4191906135b0565b90505f600b5482611e5291906135e3565b90508060085f8673ffffffffffffffffffffffffffffffffffffffff1673ffffffffffffffffffffffffffffffffffffffff1681526020019081526020015f2054611e9d91906135b0565b60085f8673ffffffffffffffffffffffffffffffffffffffff1673ffffffffffffffffffffffffffffffffffffffff1681526020019081526020015f2081905550600a5482611eec91906135e3565b83611ef791906135b0565b60095f8673ffffffffffffffffffffffffffffffffffffffff1673ffffffffffffffffffffffffffffffffffffffff1681526020019081526020015f20819055508373ffffffffffffffffffffffffffffffffffffffff167f8974cf72bdf759c6e85c73d5baae06af803be0f9ce1d4c36f9af034c2959d3128260085f8873ffffffffffffffffffffffffffffffffffffffff1673ffffffffffffffffffffffffffffffffffffffff1681526020019081526020015f205460095f8973ffffffffffffffffffffffffffffffffffffffff1673ffffffffffffffffffffffffffffffffffffffff1681526020019081526020015f2054604051611ffc93929190613624565b60405180910390a25050505b50565b5f60085f8573ffffffffffffffffffffffffffffffffffffffff1673ffffffffffffffffffffffffffffffffffffffff1681526020019081526020015f205490505f811115612266578083106121b8575f81846120689190612ef5565b90505f60085f8773ffffffffffffffffffffffffffffffffffffffff1673ffffffffffffffffffffffffffffffffffffffff1681526020019081526020015f20819055505f60095f8773ffffffffffffffffffffffffffffffffffffffff1673ffffffffffffffffffffffffffffffffffffffff1681526020019081526020015f20819055508473ffffffffffffffffffffffffffffffffffffffff167f1657f3f9db7a57a2cbf7c5c76516840b2a7cf3f20bc67edb2cd02f10c56d0a2a835f604051612136929190613031565b60405180910390a25f8111156121b257612150858261251f565b8473ffffffffffffffffffffffffffffffffffffffff167fba27001eed39081e9d6f521103bc201676a9b4eb7fe868e5e596da78b135126b826040516121969190612924565b60405180910390a28083602001818152505080835f0181815250505b50612261565b82816121c49190612ef5565b60085f8673ffffffffffffffffffffffffffffffffffffffff1673ffffffffffffffffffffffffffffffffffffffff1681526020019081526020015f20819055508373ffffffffffffffffffffffffffffffffffffffff167f1657f3f9db7a57a2cbf7c5c76516840b2a7cf3f20bc67edb2cd02f10c56d0a2a84858461224a9190612ef5565b604051612258929190613058565b60405180910390a25b6122d2565b612270848461251f565b8373ffffffffffffffffffffffffffffffffffffffff167fba27001eed39081e9d6f521103bc201676a9b4eb7fe868e5e596da78b135126b846040516122b69190612924565b60405180910390a28282602001818152505082825f0181815250505b50505050565b5f8290505f60035f8673ffffffffffffffffffffffffffffffffffffffff1673ffffffffffffffffffffffffffffffffffffffff1681526020019081526020015f2054905080821115612329578091505b505f8111156123a75761233c8482611a45565b8373ffffffffffffffffffffffffffffffffffffffff167f4b28c7dc138644f27518388387393ecbd08ef8d180a4a6799c954be166a37ab3826040516123829190612924565b60405180910390a28061239490613659565b825f018181525050808260400181815250505b80831115612519575f81846123bc9190612ef5565b90508060085f8773ffffffffffffffffffffffffffffffffffffffff1673ffffffffffffffffffffffffffffffffffffffff1681526020019081526020015f205f82825461240a91906135b0565b925050819055505f600a544261242091906135b0565b90505f60095f8873ffffffffffffffffffffffffffffffffffffffff1673ffffffffffffffffffffffffffffffffffffffff1681526020019081526020015f205490505f81148061247057508082105b15612479578190505b8060095f8973ffffffffffffffffffffffffffffffffffffffff1673ffffffffffffffffffffffffffffffffffffffff1681526020019081526020015f2081905550828560600181815250508673ffffffffffffffffffffffffffffffffffffffff167f11044a55b74266e69ae3c73ce38e31edeaab7921f3ca4dd220024931123a50eb848360405161250d929190613058565b60405180910390a25050505b50505050565b5f73ffffffffffffffffffffffffffffffffffffffff168273ffffffffffffffffffffffffffffffffffffffff160361258d576040517f08c379a00000000000000000000000000000000000000000000000000000000081526004016125849061335d565b60405180910390fd5b8060025f82825461259e91906135b0565b925050819055508060035f8473ffffffffffffffffffffffffffffffffffffffff1673ffffffffffffffffffffffffffffffffffffffff1681526020019081526020015f205f8282546125f191906135b0565b925050819055508173ffffffffffffffffffffffffffffffffffffffff165f73ffffffffffffffffffffffffffffffffffffffff167fddf252ad1be2c89b69c2b068fc378daa952ba7f163c4a11628f55a4df523b3ef836040516126559190612924565b60405180910390a35050565b60405180608001604052805f81526020015f81526020015f81526020015f81525090565b6040518061012001604052805f81526020015f81526020015f81526020015f81526020015f81526020015f81526020015f81526020015f81526020015f81525090565b5f5ffd5b5f73ffffffffffffffffffffffffffffffffffffffff82169050919050565b5f6126f5826126cc565b9050919050565b612705816126eb565b811461270f575f5ffd5b50565b5f81359050612720816126fc565b92915050565b5f819050919050565b61273881612726565b8114612742575f5ffd5b50565b5f813590506127538161272f565b92915050565b5f5f6040838503121561276f5761276e6126c8565b5b5f61277c85828601612712565b925050602061278d85828601612745565b9150509250929050565b5f81519050919050565b5f82825260208201905092915050565b8281835e5f83830152505050565b5f601f19601f8301169050919050565b5f6127d982612797565b6127e381856127a1565b93506127f38185602086016127b1565b6127fc816127bf565b840191505092915050565b5f6020820190508181035f83015261281f81846127cf565b905092915050565b5f8115159050919050565b61283b81612827565b82525050565b5f6020820190506128545f830184612832565b92915050565b61286381612726565b82525050565b5f819050919050565b61287b81612869565b82525050565b5f819050919050565b61289381612881565b82525050565b5f610120820190506128ad5f83018c61285a565b6128ba602083018b61285a565b6128c7604083018a61285a565b6128d4606083018961285a565b6128e16080830188612872565b6128ee60a083018761288a565b6128fb60c083018661285a565b61290860e083018561285a565b612916610100830184612872565b9a9950505050505050505050565b5f6020820190506129375f83018461285a565b92915050565b5f5f5f60608486031215612954576129536126c8565b5b5f61296186828701612712565b935050602061297286828701612712565b925050604061298386828701612745565b9150509250925092565b5f60ff82169050919050565b6129a28161298d565b82525050565b5f6020820190506129bb5f830184612999565b92915050565b5f602082840312156129d6576129d56126c8565b5b5f6129e384828501612745565b91505092915050565b5f60208284031215612a0157612a006126c8565b5b5f612a0e84828501612712565b91505092915050565b5f819050919050565b5f612a3a612a35612a30846126cc565b612a17565b6126cc565b9050919050565b5f612a4b82612a20565b9050919050565b5f612a5c82612a41565b9050919050565b612a6c81612a52565b82525050565b5f602082019050612a855f830184612a63565b92915050565b612a9481612869565b8114612a9e575f5ffd5b50565b5f81359050612aaf81612a8b565b92915050565b5f5f5f5f5f5f60c08789031215612acf57612ace6126c8565b5b5f612adc89828a01612712565b9650506020612aed89828a01612745565b9550506040612afe89828a01612745565b9450506060612b0f89828a01612745565b9350506080612b2089828a01612aa1565b92505060a0612b3189828a01612aa1565b9150509295509295509295565b5f60208284031215612b5357612b526126c8565b5b5f612b6084828501612aa1565b91505092915050565b612b72816126eb565b82525050565b5f602082019050612b8b5f830184612b69565b92915050565b5f5f60408385031215612ba757612ba66126c8565b5b5f612bb485828601612712565b9250506020612bc585828601612712565b9150509250929050565b612bd881612726565b82525050565b612be781612869565b82525050565b612bf681612881565b82525050565b61012082015f820151612c115f850182612bcf565b506020820151612c246020850182612bcf565b506040820151612c376040850182612bcf565b506060820151612c4a6060850182612bcf565b506080820151612c5d6080850182612bde565b5060a0820151612c7060a0850182612bed565b5060c0820151612c8360c0850182612bcf565b5060e0820151612c9660e0850182612bcf565b50610100820151612cab610100850182612bde565b50505050565b5f61012082019050612cc55f830184612bfc565b92915050565b7f4e6f74206f776e657200000000000000000000000000000000000000000000005f82015250565b5f612cff6009836127a1565b9150612d0a82612ccb565b602082019050919050565b5f6020820190508181035f830152612d2c81612cf3565b9050919050565b7f5a65726f2066726f6d00000000000000000000000000000000000000000000005f82015250565b5f612d676009836127a1565b9150612d7282612d33565b602082019050919050565b5f6020820190508181035f830152612d9481612d5b565b9050919050565b7f616d6f756e743d300000000000000000000000000000000000000000000000005f82015250565b5f612dcf6008836127a1565b9150612dda82612d9b565b602082019050919050565b5f6020820190508181035f830152612dfc81612dc3565b9050919050565b7f4e487b71000000000000000000000000000000000000000000000000000000005f52602260045260245ffd5b5f6002820490506001821680612e4757607f821691505b602082108103612e5a57612e59612e03565b5b50919050565b7f416c6c6f77616e636520746f6f206c6f770000000000000000000000000000005f82015250565b5f612e946011836127a1565b9150612e9f82612e60565b602082019050919050565b5f6020820190508181035f830152612ec181612e88565b9050919050565b7f4e487b71000000000000000000000000000000000000000000000000000000005f52601160045260245ffd5b5f612eff82612726565b9150612f0a83612726565b9250828203905081811115612f2257612f21612ec8565b5b92915050565b7f6e6f206f776564000000000000000000000000000000000000000000000000005f82015250565b5f612f5c6007836127a1565b9150612f6782612f28565b602082019050919050565b5f6020820190508181035f830152612f8981612f50565b9050919050565b7f6e6f2062616c616e6365000000000000000000000000000000000000000000005f82015250565b5f612fc4600a836127a1565b9150612fcf82612f90565b602082019050919050565b5f6020820190508181035f830152612ff181612fb8565b9050919050565b5f819050919050565b5f61301b61301661301184612ff8565b612a17565b612726565b9050919050565b61302b81613001565b82525050565b5f6040820190506130445f83018561285a565b6130516020830184613022565b9392505050565b5f60408201905061306b5f83018561285a565b613078602083018461285a565b9392505050565b7f70656e616c7479203e20300000000000000000000000000000000000000000005f82015250565b5f6130b3600b836127a1565b91506130be8261307f565b602082019050919050565b5f6020820190508181035f8301526130e0816130a7565b9050919050565b7f426174636820616c72656164792070726f6365737365640000000000000000005f82015250565b5f61311b6017836127a1565b9150613126826130e7565b602082019050919050565b5f6020820190508181035f8301526131488161310f565b9050919050565b5f8151905061315d8161272f565b92915050565b5f60208284031215613178576131776126c8565b5b5f6131858482850161314f565b91505092915050565b7f636170206d697373696e670000000000000000000000000000000000000000005f82015250565b5f6131c2600b836127a1565b91506131cd8261318e565b602082019050919050565b5f6020820190508181035f8301526131ef816131b6565b9050919050565b7f4e487b71000000000000000000000000000000000000000000000000000000005f52601260045260245ffd5b5f61322d82612726565b915061323883612726565b925082613248576132476131f6565b5b828204905092915050565b5f610120820190506132675f83018c612872565b613274602083018b612872565b613281604083018a61285a565b61328e606083018961285a565b61329b608083018861285a565b6132a860a083018761285a565b6132b560c083018661285a565b6132c260e083018561285a565b6132d061010083018461288a565b9a9950505050505050505050565b5f6060820190506132f15f830186612872565b6132fe602083018561285a565b61330b604083018461285a565b949350505050565b7f5a65726f20746f000000000000000000000000000000000000000000000000005f82015250565b5f6133476007836127a1565b915061335282613313565b602082019050919050565b5f6020820190508181035f8301526133748161333b565b9050919050565b7f696e646578206f7574206f6620626f756e6473000000000000000000000000005f82015250565b5f6133af6013836127a1565b91506133ba8261337b565b602082019050919050565b5f6020820190508181035f8301526133dc816133a3565b9050919050565b7f4e487b71000000000000000000000000000000000000000000000000000000005f52603260045260245ffd5b7f6772616365203e203000000000000000000000000000000000000000000000005f82015250565b5f6134446009836127a1565b915061344f82613410565b602082019050919050565b5f6020820190508181035f83015261347181613438565b9050919050565b7f5a65726f206f776e6572000000000000000000000000000000000000000000005f82015250565b5f6134ac600a836127a1565b91506134b782613478565b602082019050919050565b5f6020820190508181035f8301526134d9816134a0565b9050919050565b7f4275726e20657863656564732062616c616e63650000000000000000000000005f82015250565b5f6135146014836127a1565b915061351f826134e0565b602082019050919050565b5f6020820190508181035f83015261354181613508565b9050919050565b7f42616c616e636520746f6f206c6f7700000000000000000000000000000000005f82015250565b5f61357c600f836127a1565b915061358782613548565b602082019050919050565b5f6020820190508181035f8301526135a981613570565b9050919050565b5f6135ba82612726565b91506135c583612726565b92508282019050808211156135dd576135dc612ec8565b5b92915050565b5f6135ed82612726565b91506135f883612726565b925082820261360681612726565b9150828204841483151761361d5761361c612ec8565b5b5092915050565b5f6060820190506136375f83018661285a565b613644602083018561285a565b613651604083018461285a565b949350505050565b5f61366382612881565b91507f8000000000000000000000000000000000000000000000000000000000000000820361369557613694612ec8565b5b815f03905091905056fea2646970667358221220ecd6ce7d37bf95a5b961d9f5c49bf71aba7deb9ed9e91b3049297b559237883964736f6c634300081e0033",
					"opcodes": "PUSH1 0xA0 PUSH1 0x40 MSTORE PUSH1 0x40 MLOAD DUP1 PUSH1 0x40 ADD PUSH1 0x40 MSTORE DUP1 PUSH1 0x11 DUP2 MSTORE PUSH1 0x20 ADD PUSH32 0x436172626F6E437265646974546F6B656E000000000000000000000000000000 DUP2 MSTORE POP PUSH0 SWAP1 DUP2 PUSH2 0x47 SWAP2 SWAP1 PUSH2 0x444 JUMP JUMPDEST POP PUSH1 0x40 MLOAD DUP1 PUSH1 0x40 ADD PUSH1 0x40 MSTORE DUP1 PUSH1 0x3 DUP2 MSTORE PUSH1 0x20 ADD PUSH32 0x4343540000000000000000000000000000000000000000000000000000000000 DUP2 MSTORE POP PUSH1 0x1 SWAP1 DUP2 PUSH2 0x8C SWAP2 SWAP1 PUSH2 0x444 JUMP JUMPDEST POP PUSH2 0x384 PUSH1 0xA SSTORE PUSH1 0x3 PUSH1 0xB SSTORE CALLVALUE DUP1 ISZERO PUSH2 0xA3 JUMPI PUSH0 PUSH0 REVERT JUMPDEST POP PUSH1 0x40 MLOAD PUSH2 0x3D08 CODESIZE SUB DUP1 PUSH2 0x3D08 DUP4 CODECOPY DUP2 DUP2 ADD PUSH1 0x40 MSTORE DUP2 ADD SWAP1 PUSH2 0xC5 SWAP2 SWAP1 PUSH2 0x571 JUMP JUMPDEST PUSH0 PUSH20 0xFFFFFFFFFFFFFFFFFFFFFFFFFFFFFFFFFFFFFFFF AND DUP2 PUSH20 0xFFFFFFFFFFFFFFFFFFFFFFFFFFFFFFFFFFFFFFFF AND SUB PUSH2 0x133 JUMPI PUSH1 0x40 MLOAD PUSH32 0x8C379A000000000000000000000000000000000000000000000000000000000 DUP2 MSTORE PUSH1 0x4 ADD PUSH2 0x12A SWAP1 PUSH2 0x5F6 JUMP JUMPDEST PUSH1 0x40 MLOAD DUP1 SWAP2 SUB SWAP1 REVERT JUMPDEST DUP1 PUSH20 0xFFFFFFFFFFFFFFFFFFFFFFFFFFFFFFFFFFFFFFFF AND PUSH1 0x80 DUP2 PUSH20 0xFFFFFFFFFFFFFFFFFFFFFFFFFFFFFFFFFFFFFFFF AND DUP2 MSTORE POP POP CALLER PUSH1 0x5 PUSH0 PUSH2 0x100 EXP DUP2 SLOAD DUP2 PUSH20 0xFFFFFFFFFFFFFFFFFFFFFFFFFFFFFFFFFFFFFFFF MUL NOT AND SWAP1 DUP4 PUSH20 0xFFFFFFFFFFFFFFFFFFFFFFFFFFFFFFFFFFFFFFFF AND MUL OR SWAP1 SSTORE POP CALLER PUSH20 0xFFFFFFFFFFFFFFFFFFFFFFFFFFFFFFFFFFFFFFFF AND PUSH0 PUSH20 0xFFFFFFFFFFFFFFFFFFFFFFFFFFFFFFFFFFFFFFFF AND PUSH32 0x8BE0079C531659141344CD1FD0A4F28419497F9722A3DAAFE3B4186F6B6457E0 PUSH1 0x40 MLOAD PUSH1 0x40 MLOAD DUP1 SWAP2 SUB SWAP1 LOG3 POP PUSH2 0x614 JUMP JUMPDEST PUSH0 DUP2 MLOAD SWAP1 POP SWAP2 SWAP1 POP JUMP JUMPDEST PUSH32 0x4E487B7100000000000000000000000000000000000000000000000000000000 PUSH0 MSTORE PUSH1 0x41 PUSH1 0x4 MSTORE PUSH1 0x24 PUSH0 REVERT JUMPDEST PUSH32 0x4E487B7100000000000000000000000000000000000000000000000000000000 PUSH0 MSTORE PUSH1 0x22 PUSH1 0x4 MSTORE PUSH1 0x24 PUSH0 REVERT JUMPDEST PUSH0 PUSH1 0x2 DUP3 DIV SWAP1 POP PUSH1 0x1 DUP3 AND DUP1 PUSH2 0x282 JUMPI PUSH1 0x7F DUP3 AND SWAP2 POP JUMPDEST PUSH1 0x20 DUP3 LT DUP2 SUB PUSH2 0x295 JUMPI PUSH2 0x294 PUSH2 0x23E JUMP JUMPDEST JUMPDEST POP SWAP2 SWAP1 POP JUMP JUMPDEST PUSH0 DUP2 SWAP1 POP DUP2 PUSH0 MSTORE PUSH1 0x20 PUSH0 KECCAK256 SWAP1 POP SWAP2 SWAP1 POP JUMP JUMPDEST PUSH0 PUSH1 0x20 PUSH1 0x1F DUP4 ADD DIV SWAP1 POP SWAP2 SWAP1 POP JUMP JUMPDEST PUSH0 DUP3 DUP3 SHL SWAP1 POP SWAP3 SWAP2 POP POP JUMP JUMPDEST PUSH0 PUSH1 0x8 DUP4 MUL PUSH2 0x2F7 PUSH32 0xFFFFFFFFFFFFFFFFFFFFFFFFFFFFFFFFFFFFFFFFFFFFFFFFFFFFFFFFFFFFFFFF DUP3 PUSH2 0x2BC JUMP JUMPDEST PUSH2 0x301 DUP7 DUP4 PUSH2 0x2BC JUMP JUMPDEST SWAP6 POP DUP1 NOT DUP5 AND SWAP4 POP DUP1 DUP7 AND DUP5 OR SWAP3 POP POP POP SWAP4 SWAP3 POP POP POP JUMP JUMPDEST PUSH0 DUP2 SWAP1 POP SWAP2 SWAP1 POP JUMP JUMPDEST PUSH0 DUP2 SWAP1 POP SWAP2 SWAP1 POP JUMP JUMPDEST PUSH0 PUSH2 0x345 PUSH2 0x340 PUSH2 0x33B DUP5 PUSH2 0x319 JUMP JUMPDEST PUSH2 0x322 JUMP JUMPDEST PUSH2 0x319 JUMP JUMPDEST SWAP1 POP SWAP2 SWAP1 POP JUMP JUMPDEST PUSH0 DUP2 SWAP1 POP SWAP2 SWAP1 POP JUMP JUMPDEST PUSH2 0x35E DUP4 PUSH2 0x32B JUMP JUMPDEST PUSH2 0x372 PUSH2 0x36A DUP3 PUSH2 0x34C JUMP JUMPDEST DUP5 DUP5 SLOAD PUSH2 0x2C8 JUMP JUMPDEST DUP3 SSTORE POP POP POP POP JUMP JUMPDEST PUSH0 PUSH0 SWAP1 POP SWAP1 JUMP JUMPDEST PUSH2 0x389 PUSH2 0x37A JUMP JUMPDEST PUSH2 0x394 DUP2 DUP5 DUP5 PUSH2 0x355 JUMP JUMPDEST POP POP POP JUMP JUMPDEST JUMPDEST DUP2 DUP2 LT ISZERO PUSH2 0x3B7 JUMPI PUSH2 0x3AC PUSH0 DUP3 PUSH2 0x381 JUMP JUMPDEST PUSH1 0x1 DUP2 ADD SWAP1 POP PUSH2 0x39A JUMP JUMPDEST POP POP JUMP JUMPDEST PUSH1 0x1F DUP3 GT ISZERO PUSH2 0x3FC JUMPI PUSH2 0x3CD DUP2 PUSH2 0x29B JUMP JUMPDEST PUSH2 0x3D6 DUP5 PUSH2 0x2AD JUMP JUMPDEST DUP2 ADD PUSH1 0x20 DUP6 LT ISZERO PUSH2 0x3E5 JUMPI DUP2 SWAP1 POP JUMPDEST PUSH2 0x3F9 PUSH2 0x3F1 DUP6 PUSH2 0x2AD JUMP JUMPDEST DUP4 ADD DUP3 PUSH2 0x399 JUMP JUMPDEST POP POP JUMPDEST POP POP POP JUMP JUMPDEST PUSH0 DUP3 DUP3 SHR SWAP1 POP SWAP3 SWAP2 POP POP JUMP JUMPDEST PUSH0 PUSH2 0x41C PUSH0 NOT DUP5 PUSH1 0x8 MUL PUSH2 0x401 JUMP JUMPDEST NOT DUP1 DUP4 AND SWAP2 POP POP SWAP3 SWAP2 POP POP JUMP JUMPDEST PUSH0 PUSH2 0x434 DUP4 DUP4 PUSH2 0x40D JUMP JUMPDEST SWAP2 POP DUP3 PUSH1 0x2 MUL DUP3 OR SWAP1 POP SWAP3 SWAP2 POP POP JUMP JUMPDEST PUSH2 0x44D DUP3 PUSH2 0x207 JUMP JUMPDEST PUSH8 0xFFFFFFFFFFFFFFFF DUP2 GT ISZERO PUSH2 0x466 JUMPI PUSH2 0x465 PUSH2 0x211 JUMP JUMPDEST JUMPDEST PUSH2 0x470 DUP3 SLOAD PUSH2 0x26B JUMP JUMPDEST PUSH2 0x47B DUP3 DUP3 DUP6 PUSH2 0x3BB JUMP JUMPDEST PUSH0 PUSH1 0x20 SWAP1 POP PUSH1 0x1F DUP4 GT PUSH1 0x1 DUP2 EQ PUSH2 0x4AC JUMPI PUSH0 DUP5 ISZERO PUSH2 0x49A JUMPI DUP3 DUP8 ADD MLOAD SWAP1 POP JUMPDEST PUSH2 0x4A4 DUP6 DUP3 PUSH2 0x429 JUMP JUMPDEST DUP7 SSTORE POP PUSH2 0x50B JUMP JUMPDEST PUSH1 0x1F NOT DUP5 AND PUSH2 0x4BA DUP7 PUSH2 0x29B JUMP JUMPDEST PUSH0 JUMPDEST DUP3 DUP2 LT ISZERO PUSH2 0x4E1 JUMPI DUP5 DUP10 ADD MLOAD DUP3 SSTORE PUSH1 0x1 DUP3 ADD SWAP2 POP PUSH1 0x20 DUP6 ADD SWAP5 POP PUSH1 0x20 DUP2 ADD SWAP1 POP PUSH2 0x4BC JUMP JUMPDEST DUP7 DUP4 LT ISZERO PUSH2 0x4FE JUMPI DUP5 DUP10 ADD MLOAD PUSH2 0x4FA PUSH1 0x1F DUP10 AND DUP3 PUSH2 0x40D JUMP JUMPDEST DUP4 SSTORE POP JUMPDEST PUSH1 0x1 PUSH1 0x2 DUP9 MUL ADD DUP9 SSTORE POP POP POP JUMPDEST POP POP POP POP POP POP JUMP JUMPDEST PUSH0 PUSH0 REVERT JUMPDEST PUSH0 PUSH20 0xFFFFFFFFFFFFFFFFFFFFFFFFFFFFFFFFFFFFFFFF DUP3 AND SWAP1 POP SWAP2 SWAP1 POP JUMP JUMPDEST PUSH0 PUSH2 0x540 DUP3 PUSH2 0x517 JUMP JUMPDEST SWAP1 POP SWAP2 SWAP1 POP JUMP JUMPDEST PUSH2 0x550 DUP2 PUSH2 0x536 JUMP JUMPDEST DUP2 EQ PUSH2 0x55A JUMPI PUSH0 PUSH0 REVERT JUMPDEST POP JUMP JUMPDEST PUSH0 DUP2 MLOAD SWAP1 POP PUSH2 0x56B DUP2 PUSH2 0x547 JUMP JUMPDEST SWAP3 SWAP2 POP POP JUMP JUMPDEST PUSH0 PUSH1 0x20 DUP3 DUP5 SUB SLT ISZERO PUSH2 0x586 JUMPI PUSH2 0x585 PUSH2 0x513 JUMP JUMPDEST JUMPDEST PUSH0 PUSH2 0x593 DUP5 DUP3 DUP6 ADD PUSH2 0x55D JUMP JUMPDEST SWAP2 POP POP SWAP3 SWAP2 POP POP JUMP JUMPDEST PUSH0 DUP3 DUP3 MSTORE PUSH1 0x20 DUP3 ADD SWAP1 POP SWAP3 SWAP2 POP POP JUMP JUMPDEST PUSH32 0x7265676973747279207265717569726564000000000000000000000000000000 PUSH0 DUP3 ADD MSTORE POP JUMP JUMPDEST PUSH0 PUSH2 0x5E0 PUSH1 0x11 DUP4 PUSH2 0x59C JUMP JUMPDEST SWAP2 POP PUSH2 0x5EB DUP3 PUSH2 0x5AC JUMP JUMPDEST PUSH1 0x20 DUP3 ADD SWAP1 POP SWAP2 SWAP1 POP JUMP JUMPDEST PUSH0 PUSH1 0x20 DUP3 ADD SWAP1 POP DUP2 DUP2 SUB PUSH0 DUP4 ADD MSTORE PUSH2 0x60D DUP2 PUSH2 0x5D4 JUMP JUMPDEST SWAP1 POP SWAP2 SWAP1 POP JUMP JUMPDEST PUSH1 0x80 MLOAD PUSH2 0x36D5 PUSH2 0x633 PUSH0 CODECOPY PUSH0 DUP2 DUP2 PUSH2 0xE5E ADD MSTORE PUSH2 0xFA2 ADD MSTORE PUSH2 0x36D5 PUSH0 RETURN INVALID PUSH1 0x80 PUSH1 0x40 MSTORE CALLVALUE DUP1 ISZERO PUSH2 0xF JUMPI PUSH0 PUSH0 REVERT JUMPDEST POP PUSH1 0x4 CALLDATASIZE LT PUSH2 0x18C JUMPI PUSH0 CALLDATALOAD PUSH1 0xE0 SHR DUP1 PUSH4 0x812DA1E2 GT PUSH2 0xDC JUMPI DUP1 PUSH4 0xDD62ED3E GT PUSH2 0x95 JUMPI DUP1 PUSH4 0xEB6F0C93 GT PUSH2 0x6F JUMPI DUP1 PUSH4 0xEB6F0C93 EQ PUSH2 0x4D6 JUMPI DUP1 PUSH4 0xF218F48C EQ PUSH2 0x506 JUMPI DUP1 PUSH4 0xF2F65960 EQ PUSH2 0x524 JUMPI DUP1 PUSH4 0xF2FDE38B EQ PUSH2 0x540 JUMPI PUSH2 0x18C JUMP JUMPDEST DUP1 PUSH4 0xDD62ED3E EQ PUSH2 0x45A JUMPI DUP1 PUSH4 0xE58306F9 EQ PUSH2 0x48A JUMPI DUP1 PUSH4 0xE8ACCB5B EQ PUSH2 0x4A6 JUMPI PUSH2 0x18C JUMP JUMPDEST DUP1 PUSH4 0x812DA1E2 EQ PUSH2 0x372 JUMPI DUP1 PUSH4 0x88FCDA39 EQ PUSH2 0x38E JUMPI DUP1 PUSH4 0x8DA5CB5B EQ PUSH2 0x3BE JUMPI DUP1 PUSH4 0x95D89B41 EQ PUSH2 0x3DC JUMPI DUP1 PUSH4 0x9A6669C0 EQ PUSH2 0x3FA JUMPI DUP1 PUSH4 0xA9059CBB EQ PUSH2 0x42A JUMPI PUSH2 0x18C JUMP JUMPDEST DUP1 PUSH4 0x23B872DD GT PUSH2 0x149 JUMPI DUP1 PUSH4 0x677A68E1 GT PUSH2 0x123 JUMPI DUP1 PUSH4 0x677A68E1 EQ PUSH2 0x2D8 JUMPI DUP1 PUSH4 0x6E588A37 EQ PUSH2 0x308 JUMPI DUP1 PUSH4 0x70A08231 EQ PUSH2 0x324 JUMPI DUP1 PUSH4 0x7B103999 EQ PUSH2 0x354 JUMPI PUSH2 0x18C JUMP JUMPDEST DUP1 PUSH4 0x23B872DD EQ PUSH2 0x26E JUMPI DUP1 PUSH4 0x313CE567 EQ PUSH2 0x29E JUMPI DUP1 PUSH4 0x49B3B32D EQ PUSH2 0x2BC JUMPI PUSH2 0x18C JUMP JUMPDEST DUP1 PUSH4 0x6DD0419 EQ PUSH2 0x190 JUMPI DUP1 PUSH4 0x6FDDE03 EQ PUSH2 0x1AC JUMPI DUP1 PUSH4 0x95EA7B3 EQ PUSH2 0x1CA JUMPI DUP1 PUSH4 0x1344F9B4 EQ PUSH2 0x1FA JUMPI DUP1 PUSH4 0x1485041C EQ PUSH2 0x232 JUMPI DUP1 PUSH4 0x18160DDD EQ PUSH2 0x250 JUMPI JUMPDEST PUSH0 PUSH0 REVERT JUMPDEST PUSH2 0x1AA PUSH1 0x4 DUP1 CALLDATASIZE SUB DUP2 ADD SWAP1 PUSH2 0x1A5 SWAP2 SWAP1 PUSH2 0x2759 JUMP JUMPDEST PUSH2 0x55C JUMP JUMPDEST STOP JUMPDEST PUSH2 0x1B4 PUSH2 0x6F7 JUMP JUMPDEST PUSH1 0x40 MLOAD PUSH2 0x1C1 SWAP2 SWAP1 PUSH2 0x2807 JUMP JUMPDEST PUSH1 0x40 MLOAD DUP1 SWAP2 SUB SWAP1 RETURN JUMPDEST PUSH2 0x1E4 PUSH1 0x4 DUP1 CALLDATASIZE SUB DUP2 ADD SWAP1 PUSH2 0x1DF SWAP2 SWAP1 PUSH2 0x2759 JUMP JUMPDEST PUSH2 0x782 JUMP JUMPDEST PUSH1 0x40 MLOAD PUSH2 0x1F1 SWAP2 SWAP1 PUSH2 0x2841 JUMP JUMPDEST PUSH1 0x40 MLOAD DUP1 SWAP2 SUB SWAP1 RETURN JUMPDEST PUSH2 0x214 PUSH1 0x4 DUP1 CALLDATASIZE SUB DUP2 ADD SWAP1 PUSH2 0x20F SWAP2 SWAP1 PUSH2 0x2759 JUMP JUMPDEST PUSH2 0x86F JUMP JUMPDEST PUSH1 0x40 MLOAD PUSH2 0x229 SWAP10 SWAP9 SWAP8 SWAP7 SWAP6 SWAP5 SWAP4 SWAP3 SWAP2 SWAP1 PUSH2 0x2899 JUMP JUMPDEST PUSH1 0x40 MLOAD DUP1 SWAP2 SUB SWAP1 RETURN JUMPDEST PUSH2 0x23A PUSH2 0x8D3 JUMP JUMPDEST PUSH1 0x40 MLOAD PUSH2 0x247 SWAP2 SWAP1 PUSH2 0x2924 JUMP JUMPDEST PUSH1 0x40 MLOAD DUP1 SWAP2 SUB SWAP1 RETURN JUMPDEST PUSH2 0x258 PUSH2 0x8D9 JUMP JUMPDEST PUSH1 0x40 MLOAD PUSH2 0x265 SWAP2 SWAP1 PUSH2 0x2924 JUMP JUMPDEST PUSH1 0x40 MLOAD DUP1 SWAP2 SUB SWAP1 RETURN JUMPDEST PUSH2 0x288 PUSH1 0x4 DUP1 CALLDATASIZE SUB DUP2 ADD SWAP1 PUSH2 0x283 SWAP2 SWAP1 PUSH2 0x293D JUMP JUMPDEST PUSH2 0x8DF JUMP JUMPDEST PUSH1 0x40 MLOAD PUSH2 0x295 SWAP2 SWAP1 PUSH2 0x2841 JUMP JUMPDEST PUSH1 0x40 MLOAD DUP1 SWAP2 SUB SWAP1 RETURN JUMPDEST PUSH2 0x2A6 PUSH2 0xA66 JUMP JUMPDEST PUSH1 0x40 MLOAD PUSH2 0x2B3 SWAP2 SWAP1 PUSH2 0x29A8 JUMP JUMPDEST PUSH1 0x40 MLOAD DUP1 SWAP2 SUB SWAP1 RETURN JUMPDEST PUSH2 0x2D6 PUSH1 0x4 DUP1 CALLDATASIZE SUB DUP2 ADD SWAP1 PUSH2 0x2D1 SWAP2 SWAP1 PUSH2 0x29C1 JUMP JUMPDEST PUSH2 0xA6A JUMP JUMPDEST STOP JUMPDEST PUSH2 0x2F2 PUSH1 0x4 DUP1 CALLDATASIZE SUB DUP2 ADD SWAP1 PUSH2 0x2ED SWAP2 SWAP1 PUSH2 0x29EC JUMP JUMPDEST PUSH2 0xD20 JUMP JUMPDEST PUSH1 0x40 MLOAD PUSH2 0x2FF SWAP2 SWAP1 PUSH2 0x2924 JUMP JUMPDEST PUSH1 0x40 MLOAD DUP1 SWAP2 SUB SWAP1 RETURN JUMPDEST PUSH2 0x322 PUSH1 0x4 DUP1 CALLDATASIZE SUB DUP2 ADD SWAP1 PUSH2 0x31D SWAP2 SWAP1 PUSH2 0x29C1 JUMP JUMPDEST PUSH2 0xD35 JUMP JUMPDEST STOP JUMPDEST PUSH2 0x33E PUSH1 0x4 DUP1 CALLDATASIZE SUB DUP2 ADD SWAP1 PUSH2 0x339 SWAP2 SWAP1 PUSH2 0x29EC JUMP JUMPDEST PUSH2 0xE47 JUMP JUMPDEST PUSH1 0x40 MLOAD PUSH2 0x34B SWAP2 SWAP1 PUSH2 0x2924 JUMP JUMPDEST PUSH1 0x40 MLOAD DUP1 SWAP2 SUB SWAP1 RETURN JUMPDEST PUSH2 0x35C PUSH2 0xE5C JUMP JUMPDEST PUSH1 0x40 MLOAD PUSH2 0x369 SWAP2 SWAP1 PUSH2 0x2A72 JUMP JUMPDEST PUSH1 0x40 MLOAD DUP1 SWAP2 SUB SWAP1 RETURN JUMPDEST PUSH2 0x38C PUSH1 0x4 DUP1 CALLDATASIZE SUB DUP2 ADD SWAP1 PUSH2 0x387 SWAP2 SWAP1 PUSH2 0x2AB5 JUMP JUMPDEST PUSH2 0xE80 JUMP JUMPDEST STOP JUMPDEST PUSH2 0x3A8 PUSH1 0x4 DUP1 CALLDATASIZE SUB DUP2 ADD SWAP1 PUSH2 0x3A3 SWAP2 SWAP1 PUSH2 0x2B3E JUMP JUMPDEST PUSH2 0x1323 JUMP JUMPDEST PUSH1 0x40 MLOAD PUSH2 0x3B5 SWAP2 SWAP1 PUSH2 0x2841 JUMP JUMPDEST PUSH1 0x40 MLOAD DUP1 SWAP2 SUB SWAP1 RETURN JUMPDEST PUSH2 0x3C6 PUSH2 0x1340 JUMP JUMPDEST PUSH1 0x40 MLOAD PUSH2 0x3D3 SWAP2 SWAP1 PUSH2 0x2B78 JUMP JUMPDEST PUSH1 0x40 MLOAD DUP1 SWAP2 SUB SWAP1 RETURN JUMPDEST PUSH2 0x3E4 PUSH2 0x1365 JUMP JUMPDEST PUSH1 0x40 MLOAD PUSH2 0x3F1 SWAP2 SWAP1 PUSH2 0x2807 JUMP JUMPDEST PUSH1 0x40 MLOAD DUP1 SWAP2 SUB SWAP1 RETURN JUMPDEST PUSH2 0x414 PUSH1 0x4 DUP1 CALLDATASIZE SUB DUP2 ADD SWAP1 PUSH2 0x40F SWAP2 SWAP1 PUSH2 0x29EC JUMP JUMPDEST PUSH2 0x13F1 JUMP JUMPDEST PUSH1 0x40 MLOAD PUSH2 0x421 SWAP2 SWAP1 PUSH2 0x2924 JUMP JUMPDEST PUSH1 0x40 MLOAD DUP1 SWAP2 SUB SWAP1 RETURN JUMPDEST PUSH2 0x444 PUSH1 0x4 DUP1 CALLDATASIZE SUB DUP2 ADD SWAP1 PUSH2 0x43F SWAP2 SWAP1 PUSH2 0x2759 JUMP JUMPDEST PUSH2 0x1406 JUMP JUMPDEST PUSH1 0x40 MLOAD PUSH2 0x451 SWAP2 SWAP1 PUSH2 0x2841 JUMP JUMPDEST PUSH1 0x40 MLOAD DUP1 SWAP2 SUB SWAP1 RETURN JUMPDEST PUSH2 0x474 PUSH1 0x4 DUP1 CALLDATASIZE SUB DUP2 ADD SWAP1 PUSH2 0x46F SWAP2 SWAP1 PUSH2 0x2B91 JUMP JUMPDEST PUSH2 0x141C JUMP JUMPDEST PUSH1 0x40 MLOAD PUSH2 0x481 SWAP2 SWAP1 PUSH2 0x2924 JUMP JUMPDEST PUSH1 0x40 MLOAD DUP1 SWAP2 SUB SWAP1 RETURN JUMPDEST PUSH2 0x4A4 PUSH1 0x4 DUP1 CALLDATASIZE SUB DUP2 ADD SWAP1 PUSH2 0x49F SWAP2 SWAP1 PUSH2 0x2759 JUMP JUMPDEST PUSH2 0x143C JUMP JUMPDEST STOP JUMPDEST PUSH2 0x4C0 PUSH1 0x4 DUP1 CALLDATASIZE SUB DUP2 ADD SWAP1 PUSH2 0x4BB SWAP2 SWAP1 PUSH2 0x29EC JUMP JUMPDEST PUSH2 0x15D7 JUMP JUMPDEST PUSH1 0x40 MLOAD PUSH2 0x4CD SWAP2 SWAP1 PUSH2 0x2924 JUMP JUMPDEST PUSH1 0x40 MLOAD DUP1 SWAP2 SUB SWAP1 RETURN JUMPDEST PUSH2 0x4F0 PUSH1 0x4 DUP1 CALLDATASIZE SUB DUP2 ADD SWAP1 PUSH2 0x4EB SWAP2 SWAP1 PUSH2 0x2759 JUMP JUMPDEST PUSH2 0x1620 JUMP JUMPDEST PUSH1 0x40 MLOAD PUSH2 0x4FD SWAP2 SWAP1 PUSH2 0x2CB1 JUMP JUMPDEST PUSH1 0x40 MLOAD DUP1 SWAP2 SUB SWAP1 RETURN JUMPDEST PUSH2 0x50E PUSH2 0x1772 JUMP JUMPDEST PUSH1 0x40 MLOAD PUSH2 0x51B SWAP2 SWAP1 PUSH2 0x2924 JUMP JUMPDEST PUSH1 0x40 MLOAD DUP1 SWAP2 SUB SWAP1 RETURN JUMPDEST PUSH2 0x53E PUSH1 0x4 DUP1 CALLDATASIZE SUB DUP2 ADD SWAP1 PUSH2 0x539 SWAP2 SWAP1 PUSH2 0x29C1 JUMP JUMPDEST PUSH2 0x1778 JUMP JUMPDEST STOP JUMPDEST PUSH2 0x55A PUSH1 0x4 DUP1 CALLDATASIZE SUB DUP2 ADD SWAP1 PUSH2 0x555 SWAP2 SWAP1 PUSH2 0x29EC JUMP JUMPDEST PUSH2 0x188A JUMP JUMPDEST STOP JUMPDEST PUSH1 0x5 PUSH0 SWAP1 SLOAD SWAP1 PUSH2 0x100 EXP SWAP1 DIV PUSH20 0xFFFFFFFFFFFFFFFFFFFFFFFFFFFFFFFFFFFFFFFF AND PUSH20 0xFFFFFFFFFFFFFFFFFFFFFFFFFFFFFFFFFFFFFFFF AND CALLER PUSH20 0xFFFFFFFFFFFFFFFFFFFFFFFFFFFFFFFFFFFFFFFF AND EQ PUSH2 0x5EB JUMPI PUSH1 0x40 MLOAD PUSH32 0x8C379A000000000000000000000000000000000000000000000000000000000 DUP2 MSTORE PUSH1 0x4 ADD PUSH2 0x5E2 SWAP1 PUSH2 0x2D15 JUMP JUMPDEST PUSH1 0x40 MLOAD DUP1 SWAP2 SUB SWAP1 REVERT JUMPDEST PUSH0 PUSH20 0xFFFFFFFFFFFFFFFFFFFFFFFFFFFFFFFFFFFFFFFF AND DUP3 PUSH20 0xFFFFFFFFFFFFFFFFFFFFFFFFFFFFFFFFFFFFFFFF AND SUB PUSH2 0x659 JUMPI PUSH1 0x40 MLOAD PUSH32 0x8C379A000000000000000000000000000000000000000000000000000000000 DUP2 MSTORE PUSH1 0x4 ADD PUSH2 0x650 SWAP1 PUSH2 0x2D7D JUMP JUMPDEST PUSH1 0x40 MLOAD DUP1 SWAP2 SUB SWAP1 REVERT JUMPDEST PUSH0 DUP2 GT PUSH2 0x69B JUMPI PUSH1 0x40 MLOAD PUSH32 0x8C379A000000000000000000000000000000000000000000000000000000000 DUP2 MSTORE PUSH1 0x4 ADD PUSH2 0x692 SWAP1 PUSH2 0x2DE5 JUMP JUMPDEST PUSH1 0x40 MLOAD DUP1 SWAP2 SUB SWAP1 REVERT JUMPDEST PUSH2 0x6A5 DUP3 DUP3 PUSH2 0x1A45 JUMP JUMPDEST DUP2 PUSH20 0xFFFFFFFFFFFFFFFFFFFFFFFFFFFFFFFFFFFFFFFF AND PUSH32 0x5CC4484A78E496EA6ABAFBD7C5808368871033D43D3C7ABD18AF42799D9F0F64 DUP3 PUSH1 0x40 MLOAD PUSH2 0x6EB SWAP2 SWAP1 PUSH2 0x2924 JUMP JUMPDEST PUSH1 0x40 MLOAD DUP1 SWAP2 SUB SWAP1 LOG2 POP POP JUMP JUMPDEST PUSH0 DUP1 SLOAD PUSH2 0x703 SWAP1 PUSH2 0x2E30 JUMP JUMPDEST DUP1 PUSH1 0x1F ADD PUSH1 0x20 DUP1 SWAP2 DIV MUL PUSH1 0x20 ADD PUSH1 0x40 MLOAD SWAP1 DUP2 ADD PUSH1 0x40 MSTORE DUP1 SWAP3 SWAP2 SWAP1 DUP2 DUP2 MSTORE PUSH1 0x20 ADD DUP3 DUP1 SLOAD PUSH2 0x72F SWAP1 PUSH2 0x2E30 JUMP JUMPDEST DUP1 ISZERO PUSH2 0x77A JUMPI DUP1 PUSH1 0x1F LT PUSH2 0x751 JUMPI PUSH2 0x100 DUP1 DUP4 SLOAD DIV MUL DUP4 MSTORE SWAP2 PUSH1 0x20 ADD SWAP2 PUSH2 0x77A JUMP JUMPDEST DUP3 ADD SWAP2 SWAP1 PUSH0 MSTORE PUSH1 0x20 PUSH0 KECCAK256 SWAP1 JUMPDEST DUP2 SLOAD DUP2 MSTORE SWAP1 PUSH1 0x1 ADD SWAP1 PUSH1 0x20 ADD DUP1 DUP4 GT PUSH2 0x75D JUMPI DUP3 SWAP1 SUB PUSH1 0x1F AND DUP3 ADD SWAP2 JUMPDEST POP POP POP POP POP DUP2 JUMP JUMPDEST PUSH0 DUP2 PUSH1 0x4 PUSH0 CALLER PUSH20 0xFFFFFFFFFFFFFFFFFFFFFFFFFFFFFFFFFFFFFFFF AND PUSH20 0xFFFFFFFFFFFFFFFFFFFFFFFFFFFFFFFFFFFFFFFF AND DUP2 MSTORE PUSH1 0x20 ADD SWAP1 DUP2 MSTORE PUSH1 0x20 ADD PUSH0 KECCAK256 PUSH0 DUP6 PUSH20 0xFFFFFFFFFFFFFFFFFFFFFFFFFFFFFFFFFFFFFFFF AND PUSH20 0xFFFFFFFFFFFFFFFFFFFFFFFFFFFFFFFFFFFFFFFF AND DUP2 MSTORE PUSH1 0x20 ADD SWAP1 DUP2 MSTORE PUSH1 0x20 ADD PUSH0 KECCAK256 DUP2 SWAP1 SSTORE POP DUP3 PUSH20 0xFFFFFFFFFFFFFFFFFFFFFFFFFFFFFFFFFFFFFFFF AND CALLER PUSH20 0xFFFFFFFFFFFFFFFFFFFFFFFFFFFFFFFFFFFFFFFF AND PUSH32 0x8C5BE1E5EBEC7D5BD14F71427D1E84F3DD0314C0F7B2291E5B200AC8C7C3B925 DUP5 PUSH1 0x40 MLOAD PUSH2 0x85D SWAP2 SWAP1 PUSH2 0x2924 JUMP JUMPDEST PUSH1 0x40 MLOAD DUP1 SWAP2 SUB SWAP1 LOG3 PUSH1 0x1 SWAP1 POP SWAP3 SWAP2 POP POP JUMP JUMPDEST PUSH1 0x7 PUSH1 0x20 MSTORE DUP2 PUSH0 MSTORE PUSH1 0x40 PUSH0 KECCAK256 DUP2 DUP2 SLOAD DUP2 LT PUSH2 0x888 JUMPI PUSH0 DUP1 REVERT JUMPDEST SWAP1 PUSH0 MSTORE PUSH1 0x20 PUSH0 KECCAK256 SWAP1 PUSH1 0x9 MUL ADD PUSH0 SWAP2 POP SWAP2 POP POP DUP1 PUSH0 ADD SLOAD SWAP1 DUP1 PUSH1 0x1 ADD SLOAD SWAP1 DUP1 PUSH1 0x2 ADD SLOAD SWAP1 DUP1 PUSH1 0x3 ADD SLOAD SWAP1 DUP1 PUSH1 0x4 ADD SLOAD SWAP1 DUP1 PUSH1 0x5 ADD SLOAD SWAP1 DUP1 PUSH1 0x6 ADD SLOAD SWAP1 DUP1 PUSH1 0x7 ADD SLOAD SWAP1 DUP1 PUSH1 0x8 ADD SLOAD SWAP1 POP DUP10 JUMP JUMPDEST PUSH1 0xA SLOAD DUP2 JUMP JUMPDEST PUSH1 0x2 SLOAD DUP2 JUMP JUMPDEST PUSH0 PUSH0 PUSH1 0x4 PUSH0 DUP7 PUSH20 0xFFFFFFFFFFFFFFFFFFFFFFFFFFFFFFFFFFFFFFFF AND PUSH20 0xFFFFFFFFFFFFFFFFFFFFFFFFFFFFFFFFFFFFFFFF AND DUP2 MSTORE PUSH1 0x20 ADD SWAP1 DUP2 MSTORE PUSH1 0x20 ADD PUSH0 KECCAK256 PUSH0 CALLER PUSH20 0xFFFFFFFFFFFFFFFFFFFFFFFFFFFFFFFFFFFFFFFF AND PUSH20 0xFFFFFFFFFFFFFFFFFFFFFFFFFFFFFFFFFFFFFFFF AND DUP2 MSTORE PUSH1 0x20 ADD SWAP1 DUP2 MSTORE PUSH1 0x20 ADD PUSH0 KECCAK256 SLOAD SWAP1 POP DUP3 DUP2 LT ISZERO PUSH2 0x99F JUMPI PUSH1 0x40 MLOAD PUSH32 0x8C379A000000000000000000000000000000000000000000000000000000000 DUP2 MSTORE PUSH1 0x4 ADD PUSH2 0x996 SWAP1 PUSH2 0x2EAA JUMP JUMPDEST PUSH1 0x40 MLOAD DUP1 SWAP2 SUB SWAP1 REVERT JUMPDEST PUSH32 0xFFFFFFFFFFFFFFFFFFFFFFFFFFFFFFFFFFFFFFFFFFFFFFFFFFFFFFFFFFFFFFFF DUP2 EQ PUSH2 0xA4F JUMPI DUP3 DUP2 PUSH2 0x9D2 SWAP2 SWAP1 PUSH2 0x2EF5 JUMP JUMPDEST PUSH1 0x4 PUSH0 DUP8 PUSH20 0xFFFFFFFFFFFFFFFFFFFFFFFFFFFFFFFFFFFFFFFF AND PUSH20 0xFFFFFFFFFFFFFFFFFFFFFFFFFFFFFFFFFFFFFFFF AND DUP2 MSTORE PUSH1 0x20 ADD SWAP1 DUP2 MSTORE PUSH1 0x20 ADD PUSH0 KECCAK256 PUSH0 CALLER PUSH20 0xFFFFFFFFFFFFFFFFFFFFFFFFFFFFFFFFFFFFFFFF AND PUSH20 0xFFFFFFFFFFFFFFFFFFFFFFFFFFFFFFFFFFFFFFFF AND DUP2 MSTORE PUSH1 0x20 ADD SWAP1 DUP2 MSTORE PUSH1 0x20 ADD PUSH0 KECCAK256 DUP2 SWAP1 SSTORE POP JUMPDEST PUSH2 0xA5A DUP6 DUP6 DUP6 PUSH2 0x1B86 JUMP JUMPDEST PUSH1 0x1 SWAP2 POP POP SWAP4 SWAP3 POP POP POP JUMP JUMPDEST PUSH0 DUP2 JUMP JUMPDEST PUSH0 CALLER SWAP1 POP PUSH0 PUSH1 0x8 PUSH0 DUP4 PUSH20 0xFFFFFFFFFFFFFFFFFFFFFFFFFFFFFFFFFFFFFFFF AND PUSH20 0xFFFFFFFFFFFFFFFFFFFFFFFFFFFFFFFFFFFFFFFF AND DUP2 MSTORE PUSH1 0x20 ADD SWAP1 DUP2 MSTORE PUSH1 0x20 ADD PUSH0 KECCAK256 SLOAD SWAP1 POP PUSH0 DUP2 GT PUSH2 0xAF1 JUMPI PUSH1 0x40 MLOAD PUSH32 0x8C379A000000000000000000000000000000000000000000000000000000000 DUP2 MSTORE PUSH1 0x4 ADD PUSH2 0xAE8 SWAP1 PUSH2 0x2F72 JUMP JUMPDEST PUSH1 0x40 MLOAD DUP1 SWAP2 SUB SWAP1 REVERT JUMPDEST PUSH0 PUSH1 0x3 PUSH0 DUP5 PUSH20 0xFFFFFFFFFFFFFFFFFFFFFFFFFFFFFFFFFFFFFFFF AND PUSH20 0xFFFFFFFFFFFFFFFFFFFFFFFFFFFFFFFFFFFFFFFF AND DUP2 MSTORE PUSH1 0x20 ADD SWAP1 DUP2 MSTORE PUSH1 0x20 ADD PUSH0 KECCAK256 SLOAD SWAP1 POP PUSH0 DUP2 DUP6 GT PUSH2 0xB40 JUMPI DUP5 PUSH2 0xB42 JUMP JUMPDEST DUP2 JUMPDEST SWAP1 POP PUSH0 DUP2 GT PUSH2 0xB86 JUMPI PUSH1 0x40 MLOAD PUSH32 0x8C379A000000000000000000000000000000000000000000000000000000000 DUP2 MSTORE PUSH1 0x4 ADD PUSH2 0xB7D SWAP1 PUSH2 0x2FDA JUMP JUMPDEST PUSH1 0x40 MLOAD DUP1 SWAP2 SUB SWAP1 REVERT JUMPDEST PUSH2 0xB90 DUP5 DUP3 PUSH2 0x1A45 JUMP JUMPDEST DUP3 DUP2 LT PUSH2 0xC70 JUMPI PUSH0 PUSH1 0x8 PUSH0 DUP7 PUSH20 0xFFFFFFFFFFFFFFFFFFFFFFFFFFFFFFFFFFFFFFFF AND PUSH20 0xFFFFFFFFFFFFFFFFFFFFFFFFFFFFFFFFFFFFFFFF AND DUP2 MSTORE PUSH1 0x20 ADD SWAP1 DUP2 MSTORE PUSH1 0x20 ADD PUSH0 KECCAK256 DUP2 SWAP1 SSTORE POP PUSH0 PUSH1 0x9 PUSH0 DUP7 PUSH20 0xFFFFFFFFFFFFFFFFFFFFFFFFFFFFFFFFFFFFFFFF AND PUSH20 0xFFFFFFFFFFFFFFFFFFFFFFFFFFFFFFFFFFFFFFFF AND DUP2 MSTORE PUSH1 0x20 ADD SWAP1 DUP2 MSTORE PUSH1 0x20 ADD PUSH0 KECCAK256 DUP2 SWAP1 SSTORE POP DUP4 PUSH20 0xFFFFFFFFFFFFFFFFFFFFFFFFFFFFFFFFFFFFFFFF AND PUSH32 0x1657F3F9DB7A57A2CBF7C5C76516840B2A7CF3F20BC67EDB2CD02F10C56D0A2A DUP5 PUSH0 PUSH1 0x40 MLOAD PUSH2 0xC63 SWAP3 SWAP2 SWAP1 PUSH2 0x3031 JUMP JUMPDEST PUSH1 0x40 MLOAD DUP1 SWAP2 SUB SWAP1 LOG2 PUSH2 0xD19 JUMP JUMPDEST DUP1 DUP4 PUSH2 0xC7C SWAP2 SWAP1 PUSH2 0x2EF5 JUMP JUMPDEST PUSH1 0x8 PUSH0 DUP7 PUSH20 0xFFFFFFFFFFFFFFFFFFFFFFFFFFFFFFFFFFFFFFFF AND PUSH20 0xFFFFFFFFFFFFFFFFFFFFFFFFFFFFFFFFFFFFFFFF AND DUP2 MSTORE PUSH1 0x20 ADD SWAP1 DUP2 MSTORE PUSH1 0x20 ADD PUSH0 KECCAK256 DUP2 SWAP1 SSTORE POP DUP4 PUSH20 0xFFFFFFFFFFFFFFFFFFFFFFFFFFFFFFFFFFFFFFFF AND PUSH32 0x1657F3F9DB7A57A2CBF7C5C76516840B2A7CF3F20BC67EDB2CD02F10C56D0A2A DUP3 DUP4 DUP7 PUSH2 0xD02 SWAP2 SWAP1 PUSH2 0x2EF5 JUMP JUMPDEST PUSH1 0x40 MLOAD PUSH2 0xD10 SWAP3 SWAP2 SWAP1 PUSH2 0x3058 JUMP JUMPDEST PUSH1 0x40 MLOAD DUP1 SWAP2 SUB SWAP1 LOG2 JUMPDEST POP POP POP POP POP JUMP JUMPDEST PUSH1 0x8 PUSH1 0x20 MSTORE DUP1 PUSH0 MSTORE PUSH1 0x40 PUSH0 KECCAK256 PUSH0 SWAP2 POP SWAP1 POP SLOAD DUP2 JUMP JUMPDEST PUSH1 0x5 PUSH0 SWAP1 SLOAD SWAP1 PUSH2 0x100 EXP SWAP1 DIV PUSH20 0xFFFFFFFFFFFFFFFFFFFFFFFFFFFFFFFFFFFFFFFF AND PUSH20 0xFFFFFFFFFFFFFFFFFFFFFFFFFFFFFFFFFFFFFFFF AND CALLER PUSH20 0xFFFFFFFFFFFFFFFFFFFFFFFFFFFFFFFFFFFFFFFF AND EQ PUSH2 0xDC4 JUMPI PUSH1 0x40 MLOAD PUSH32 0x8C379A000000000000000000000000000000000000000000000000000000000 DUP2 MSTORE PUSH1 0x4 ADD PUSH2 0xDBB SWAP1 PUSH2 0x2D15 JUMP JUMPDEST PUSH1 0x40 MLOAD DUP1 SWAP2 SUB SWAP1 REVERT JUMPDEST PUSH0 DUP2 GT PUSH2 0xE06 JUMPI PUSH1 0x40 MLOAD PUSH32 0x8C379A000000000000000000000000000000000000000000000000000000000 DUP2 MSTORE PUSH1 0x4 ADD PUSH2 0xDFD SWAP1 PUSH2 0x30C9 JUMP JUMPDEST PUSH1 0x40 MLOAD DUP1 SWAP2 SUB SWAP1 REVERT JUMPDEST DUP1 PUSH1 0xB DUP2 SWAP1 SSTORE POP PUSH32 0x9BBD3EE0C0D856B1198CD3966F4F15316CE0E09486F06FB84780B6F85A5ECBE6 DUP2 PUSH1 0x40 MLOAD PUSH2 0xE3C SWAP2 SWAP1 PUSH2 0x2924 JUMP JUMPDEST PUSH1 0x40 MLOAD DUP1 SWAP2 SUB SWAP1 LOG1 POP JUMP JUMPDEST PUSH1 0x3 PUSH1 0x20 MSTORE DUP1 PUSH0 MSTORE PUSH1 0x40 PUSH0 KECCAK256 PUSH0 SWAP2 POP SWAP1 POP SLOAD DUP2 JUMP JUMPDEST PUSH32 0x0 DUP2 JUMP JUMPDEST PUSH1 0x5 PUSH0 SWAP1 SLOAD SWAP1 PUSH2 0x100 EXP SWAP1 DIV PUSH20 0xFFFFFFFFFFFFFFFFFFFFFFFFFFFFFFFFFFFFFFFF AND PUSH20 0xFFFFFFFFFFFFFFFFFFFFFFFFFFFFFFFFFFFFFFFF AND CALLER PUSH20 0xFFFFFFFFFFFFFFFFFFFFFFFFFFFFFFFFFFFFFFFF AND EQ PUSH2 0xF0F JUMPI PUSH1 0x40 MLOAD PUSH32 0x8C379A000000000000000000000000000000000000000000000000000000000 DUP2 MSTORE PUSH1 0x4 ADD PUSH2 0xF06 SWAP1 PUSH2 0x2D15 JUMP JUMPDEST PUSH1 0x40 MLOAD DUP1 SWAP2 SUB SWAP1 REVERT JUMPDEST PUSH1 0x6 PUSH0 DUP3 DUP2 MSTORE PUSH1 0x20 ADD SWAP1 DUP2 MSTORE PUSH1 0x20 ADD PUSH0 KECCAK256 PUSH0 SWAP1 SLOAD SWAP1 PUSH2 0x100 EXP SWAP1 DIV PUSH1 0xFF AND ISZERO PUSH2 0xF6D JUMPI PUSH1 0x40 MLOAD PUSH32 0x8C379A000000000000000000000000000000000000000000000000000000000 DUP2 MSTORE PUSH1 0x4 ADD PUSH2 0xF64 SWAP1 PUSH2 0x3131 JUMP JUMPDEST PUSH1 0x40 MLOAD DUP1 SWAP2 SUB SWAP1 REVERT JUMPDEST PUSH1 0x1 PUSH1 0x6 PUSH0 DUP4 DUP2 MSTORE PUSH1 0x20 ADD SWAP1 DUP2 MSTORE PUSH1 0x20 ADD PUSH0 KECCAK256 PUSH0 PUSH2 0x100 EXP DUP2 SLOAD DUP2 PUSH1 0xFF MUL NOT AND SWAP1 DUP4 ISZERO ISZERO MUL OR SWAP1 SSTORE POP PUSH2 0xF9F DUP7 PUSH2 0x1D7A JUMP JUMPDEST PUSH0 PUSH32 0x0 PUSH20 0xFFFFFFFFFFFFFFFFFFFFFFFFFFFFFFFFFFFFFFFF AND PUSH4 0xC3DEA29 DUP9 PUSH1 0x40 MLOAD DUP3 PUSH4 0xFFFFFFFF AND PUSH1 0xE0 SHL DUP2 MSTORE PUSH1 0x4 ADD PUSH2 0xFF9 SWAP2 SWAP1 PUSH2 0x2B78 JUMP JUMPDEST PUSH1 0x20 PUSH1 0x40 MLOAD DUP1 DUP4 SUB DUP2 DUP7 GAS STATICCALL ISZERO DUP1 ISZERO PUSH2 0x1014 JUMPI RETURNDATASIZE PUSH0 PUSH0 RETURNDATACOPY RETURNDATASIZE PUSH0 REVERT JUMPDEST POP POP POP POP PUSH1 0x40 MLOAD RETURNDATASIZE PUSH1 0x1F NOT PUSH1 0x1F DUP3 ADD AND DUP3 ADD DUP1 PUSH1 0x40 MSTORE POP DUP2 ADD SWAP1 PUSH2 0x1038 SWAP2 SWAP1 PUSH2 0x3163 JUMP JUMPDEST SWAP1 POP PUSH0 DUP2 GT PUSH2 0x107C JUMPI PUSH1 0x40 MLOAD PUSH32 0x8C379A000000000000000000000000000000000000000000000000000000000 DUP2 MSTORE PUSH1 0x4 ADD PUSH2 0x1073 SWAP1 PUSH2 0x31D8 JUMP JUMPDEST PUSH1 0x40 MLOAD DUP1 SWAP2 SUB SWAP1 REVERT JUMPDEST PUSH2 0x1084 PUSH2 0x2661 JUMP JUMPDEST DUP2 DUP8 LT ISZERO PUSH2 0x10C7 JUMPI PUSH0 DUP8 DUP4 PUSH2 0x1099 SWAP2 SWAP1 PUSH2 0x2EF5 JUMP JUMPDEST SWAP1 POP PUSH0 PUSH2 0x3E8 DUP3 PUSH2 0x10AA SWAP2 SWAP1 PUSH2 0x3223 JUMP JUMPDEST SWAP1 POP PUSH0 DUP2 GT ISZERO PUSH2 0x10C0 JUMPI PUSH2 0x10BF DUP11 DUP3 DUP6 PUSH2 0x200B JUMP JUMPDEST JUMPDEST POP POP PUSH2 0x1107 JUMP JUMPDEST DUP2 DUP8 GT ISZERO PUSH2 0x1106 JUMPI PUSH0 DUP3 DUP9 PUSH2 0x10DC SWAP2 SWAP1 PUSH2 0x2EF5 JUMP JUMPDEST SWAP1 POP PUSH0 PUSH2 0x3E8 DUP3 PUSH2 0x10ED SWAP2 SWAP1 PUSH2 0x3223 JUMP JUMPDEST SWAP1 POP PUSH0 DUP2 GT ISZERO PUSH2 0x1103 JUMPI PUSH2 0x1102 DUP11 DUP3 DUP6 PUSH2 0x22D8 JUMP JUMPDEST JUMPDEST POP POP JUMPDEST JUMPDEST PUSH1 0x7 PUSH0 DUP10 PUSH20 0xFFFFFFFFFFFFFFFFFFFFFFFFFFFFFFFFFFFFFFFF AND PUSH20 0xFFFFFFFFFFFFFFFFFFFFFFFFFFFFFFFFFFFFFFFF AND DUP2 MSTORE PUSH1 0x20 ADD SWAP1 DUP2 MSTORE PUSH1 0x20 ADD PUSH0 KECCAK256 PUSH1 0x40 MLOAD DUP1 PUSH2 0x120 ADD PUSH1 0x40 MSTORE DUP1 DUP9 DUP2 MSTORE PUSH1 0x20 ADD DUP8 DUP2 MSTORE PUSH1 0x20 ADD DUP10 DUP2 MSTORE PUSH1 0x20 ADD DUP5 DUP2 MSTORE PUSH1 0x20 ADD DUP7 DUP2 MSTORE PUSH1 0x20 ADD DUP4 PUSH0 ADD MLOAD DUP2 MSTORE PUSH1 0x20 ADD DUP4 PUSH1 0x20 ADD MLOAD DUP2 MSTORE PUSH1 0x20 ADD DUP4 PUSH1 0x40 ADD MLOAD DUP2 MSTORE PUSH1 0x20 ADD DUP6 DUP2 MSTORE POP SWAP1 DUP1 PUSH1 0x1 DUP2 SLOAD ADD DUP1 DUP3 SSTORE DUP1 SWAP2 POP POP PUSH1 0x1 SWAP1 SUB SWAP1 PUSH0 MSTORE PUSH1 0x20 PUSH0 KECCAK256 SWAP1 PUSH1 0x9 MUL ADD PUSH0 SWAP1 SWAP2 SWAP1 SWAP2 SWAP1 SWAP2 POP PUSH0 DUP3 ADD MLOAD DUP2 PUSH0 ADD SSTORE PUSH1 0x20 DUP3 ADD MLOAD DUP2 PUSH1 0x1 ADD SSTORE PUSH1 0x40 DUP3 ADD MLOAD DUP2 PUSH1 0x2 ADD SSTORE PUSH1 0x60 DUP3 ADD MLOAD DUP2 PUSH1 0x3 ADD SSTORE PUSH1 0x80 DUP3 ADD MLOAD DUP2 PUSH1 0x4 ADD SSTORE PUSH1 0xA0 DUP3 ADD MLOAD DUP2 PUSH1 0x5 ADD SSTORE PUSH1 0xC0 DUP3 ADD MLOAD DUP2 PUSH1 0x6 ADD SSTORE PUSH1 0xE0 DUP3 ADD MLOAD DUP2 PUSH1 0x7 ADD SSTORE PUSH2 0x100 DUP3 ADD MLOAD DUP2 PUSH1 0x8 ADD SSTORE POP POP DUP8 PUSH20 0xFFFFFFFFFFFFFFFFFFFFFFFFFFFFFFFFFFFFFFFF AND PUSH32 0xCCC62654ECD4111E8B4BEDBA3B24E6EA465563D9AC5B90500E2BA4C7A927479E DUP6 DUP6 DUP10 DUP10 DUP13 DUP9 DUP9 PUSH1 0x20 ADD MLOAD DUP10 PUSH1 0x40 ADD MLOAD DUP11 PUSH0 ADD MLOAD PUSH1 0x40 MLOAD PUSH2 0x1271 SWAP10 SWAP9 SWAP8 SWAP7 SWAP6 SWAP5 SWAP4 SWAP3 SWAP2 SWAP1 PUSH2 0x3253 JUMP JUMPDEST PUSH1 0x40 MLOAD DUP1 SWAP2 SUB SWAP1 LOG2 PUSH0 DUP2 PUSH1 0x60 ADD MLOAD GT ISZERO PUSH2 0x1319 JUMPI DUP8 PUSH20 0xFFFFFFFFFFFFFFFFFFFFFFFFFFFFFFFFFFFFFFFF AND PUSH32 0xC9DA27416A8AAE22F0ACC7D91833546EB5085A44ED6C817AC307403CA7547771 DUP5 DUP4 PUSH1 0x60 ADD MLOAD PUSH1 0x9 PUSH0 DUP14 PUSH20 0xFFFFFFFFFFFFFFFFFFFFFFFFFFFFFFFFFFFFFFFF AND PUSH20 0xFFFFFFFFFFFFFFFFFFFFFFFFFFFFFFFFFFFFFFFF AND DUP2 MSTORE PUSH1 0x20 ADD SWAP1 DUP2 MSTORE PUSH1 0x20 ADD PUSH0 KECCAK256 SLOAD PUSH1 0x40 MLOAD PUSH2 0x1310 SWAP4 SWAP3 SWAP2 SWAP1 PUSH2 0x32DE JUMP JUMPDEST PUSH1 0x40 MLOAD DUP1 SWAP2 SUB SWAP1 LOG2 JUMPDEST POP POP POP POP POP POP POP POP JUMP JUMPDEST PUSH1 0x6 PUSH1 0x20 MSTORE DUP1 PUSH0 MSTORE PUSH1 0x40 PUSH0 KECCAK256 PUSH0 SWAP2 POP SLOAD SWAP1 PUSH2 0x100 EXP SWAP1 DIV PUSH1 0xFF AND DUP2 JUMP JUMPDEST PUSH1 0x5 PUSH0 SWAP1 SLOAD SWAP1 PUSH2 0x100 EXP SWAP1 DIV PUSH20 0xFFFFFFFFFFFFFFFFFFFFFFFFFFFFFFFFFFFFFFFF AND DUP2 JUMP JUMPDEST PUSH1 0x1 DUP1 SLOAD PUSH2 0x1372 SWAP1 PUSH2 0x2E30 JUMP JUMPDEST DUP1 PUSH1 0x1F ADD PUSH1 0x20 DUP1 SWAP2 DIV MUL PUSH1 0x20 ADD PUSH1 0x40 MLOAD SWAP1 DUP2 ADD PUSH1 0x40 MSTORE DUP1 SWAP3 SWAP2 SWAP1 DUP2 DUP2 MSTORE PUSH1 0x20 ADD DUP3 DUP1 SLOAD PUSH2 0x139E SWAP1 PUSH2 0x2E30 JUMP JUMPDEST DUP1 ISZERO PUSH2 0x13E9 JUMPI DUP1 PUSH1 0x1F LT PUSH2 0x13C0 JUMPI PUSH2 0x100 DUP1 DUP4 SLOAD DIV MUL DUP4 MSTORE SWAP2 PUSH1 0x20 ADD SWAP2 PUSH2 0x13E9 JUMP JUMPDEST DUP3 ADD SWAP2 SWAP1 PUSH0 MSTORE PUSH1 0x20 PUSH0 KECCAK256 SWAP1 JUMPDEST DUP2 SLOAD DUP2 MSTORE SWAP1 PUSH1 0x1 ADD SWAP1 PUSH1 0x20 ADD DUP1 DUP4 GT PUSH2 0x13CC JUMPI DUP3 SWAP1 SUB PUSH1 0x1F AND DUP3 ADD SWAP2 JUMPDEST POP POP POP POP POP DUP2 JUMP JUMPDEST PUSH1 0x9 PUSH1 0x20 MSTORE DUP1 PUSH0 MSTORE PUSH1 0x40 PUSH0 KECCAK256 PUSH0 SWAP2 POP SWAP1 POP SLOAD DUP2 JUMP JUMPDEST PUSH0 PUSH2 0x1412 CALLER DUP5 DUP5 PUSH2 0x1B86 JUMP JUMPDEST PUSH1 0x1 SWAP1 POP SWAP3 SWAP2 POP POP JUMP JUMPDEST PUSH1 0x4 PUSH1 0x20 MSTORE DUP2 PUSH0 MSTORE PUSH1 0x40 PUSH0 KECCAK256 PUSH1 0x20 MSTORE DUP1 PUSH0 MSTORE PUSH1 0x40 PUSH0 KECCAK256 PUSH0 SWAP2 POP SWAP2 POP POP SLOAD DUP2 JUMP JUMPDEST PUSH1 0x5 PUSH0 SWAP1 SLOAD SWAP1 PUSH2 0x100 EXP SWAP1 DIV PUSH20 0xFFFFFFFFFFFFFFFFFFFFFFFFFFFFFFFFFFFFFFFF AND PUSH20 0xFFFFFFFFFFFFFFFFFFFFFFFFFFFFFFFFFFFFFFFF AND CALLER PUSH20 0xFFFFFFFFFFFFFFFFFFFFFFFFFFFFFFFFFFFFFFFF AND EQ PUSH2 0x14CB JUMPI PUSH1 0x40 MLOAD PUSH32 0x8C379A000000000000000000000000000000000000000000000000000000000 DUP2 MSTORE PUSH1 0x4 ADD PUSH2 0x14C2 SWAP1 PUSH2 0x2D15 JUMP JUMPDEST PUSH1 0x40 MLOAD DUP1 SWAP2 SUB SWAP1 REVERT JUMPDEST PUSH0 PUSH20 0xFFFFFFFFFFFFFFFFFFFFFFFFFFFFFFFFFFFFFFFF AND DUP3 PUSH20 0xFFFFFFFFFFFFFFFFFFFFFFFFFFFFFFFFFFFFFFFF AND SUB PUSH2 0x1539 JUMPI PUSH1 0x40 MLOAD PUSH32 0x8C379A000000000000000000000000000000000000000000000000000000000 DUP2 MSTORE PUSH1 0x4 ADD PUSH2 0x1530 SWAP1 PUSH2 0x335D JUMP JUMPDEST PUSH1 0x40 MLOAD DUP1 SWAP2 SUB SWAP1 REVERT JUMPDEST PUSH0 DUP2 GT PUSH2 0x157B JUMPI PUSH1 0x40 MLOAD PUSH32 0x8C379A000000000000000000000000000000000000000000000000000000000 DUP2 MSTORE PUSH1 0x4 ADD PUSH2 0x1572 SWAP1 PUSH2 0x2DE5 JUMP JUMPDEST PUSH1 0x40 MLOAD DUP1 SWAP2 SUB SWAP1 REVERT JUMPDEST PUSH2 0x1585 DUP3 DUP3 PUSH2 0x251F JUMP JUMPDEST DUP2 PUSH20 0xFFFFFFFFFFFFFFFFFFFFFFFFFFFFFFFFFFFFFFFF AND PUSH32 0x90363C347AC279CAF3EE0F1A07C9C17F19F56B1E394697A1D23B056C2C5BB36B DUP3 PUSH1 0x40 MLOAD PUSH2 0x15CB SWAP2 SWAP1 PUSH2 0x2924 JUMP JUMPDEST PUSH1 0x40 MLOAD DUP1 SWAP2 SUB SWAP1 LOG2 POP POP JUMP JUMPDEST PUSH0 PUSH1 0x7 PUSH0 DUP4 PUSH20 0xFFFFFFFFFFFFFFFFFFFFFFFFFFFFFFFFFFFFFFFF AND PUSH20 0xFFFFFFFFFFFFFFFFFFFFFFFFFFFFFFFFFFFFFFFF AND DUP2 MSTORE PUSH1 0x20 ADD SWAP1 DUP2 MSTORE PUSH1 0x20 ADD PUSH0 KECCAK256 DUP1 SLOAD SWAP1 POP SWAP1 POP SWAP2 SWAP1 POP JUMP JUMPDEST PUSH2 0x1628 PUSH2 0x2685 JUMP JUMPDEST PUSH1 0x7 PUSH0 DUP5 PUSH20 0xFFFFFFFFFFFFFFFFFFFFFFFFFFFFFFFFFFFFFFFF AND PUSH20 0xFFFFFFFFFFFFFFFFFFFFFFFFFFFFFFFFFFFFFFFF AND DUP2 MSTORE PUSH1 0x20 ADD SWAP1 DUP2 MSTORE PUSH1 0x20 ADD PUSH0 KECCAK256 DUP1 SLOAD SWAP1 POP DUP3 LT PUSH2 0x16AA JUMPI PUSH1 0x40 MLOAD PUSH32 0x8C379A000000000000000000000000000000000000000000000000000000000 DUP2 MSTORE PUSH1 0x4 ADD PUSH2 0x16A1 SWAP1 PUSH2 0x33C5 JUMP JUMPDEST PUSH1 0x40 MLOAD DUP1 SWAP2 SUB SWAP1 REVERT JUMPDEST PUSH1 0x7 PUSH0 DUP5 PUSH20 0xFFFFFFFFFFFFFFFFFFFFFFFFFFFFFFFFFFFFFFFF AND PUSH20 0xFFFFFFFFFFFFFFFFFFFFFFFFFFFFFFFFFFFFFFFF AND DUP2 MSTORE PUSH1 0x20 ADD SWAP1 DUP2 MSTORE PUSH1 0x20 ADD PUSH0 KECCAK256 DUP3 DUP2 SLOAD DUP2 LT PUSH2 0x16F9 JUMPI PUSH2 0x16F8 PUSH2 0x33E3 JUMP JUMPDEST JUMPDEST SWAP1 PUSH0 MSTORE PUSH1 0x20 PUSH0 KECCAK256 SWAP1 PUSH1 0x9 MUL ADD PUSH1 0x40 MLOAD DUP1 PUSH2 0x120 ADD PUSH1 0x40 MSTORE SWAP1 DUP2 PUSH0 DUP3 ADD SLOAD DUP2 MSTORE PUSH1 0x20 ADD PUSH1 0x1 DUP3 ADD SLOAD DUP2 MSTORE PUSH1 0x20 ADD PUSH1 0x2 DUP3 ADD SLOAD DUP2 MSTORE PUSH1 0x20 ADD PUSH1 0x3 DUP3 ADD SLOAD DUP2 MSTORE PUSH1 0x20 ADD PUSH1 0x4 DUP3 ADD SLOAD DUP2 MSTORE PUSH1 0x20 ADD PUSH1 0x5 DUP3 ADD SLOAD DUP2 MSTORE PUSH1 0x20 ADD PUSH1 0x6 DUP3 ADD SLOAD DUP2 MSTORE PUSH1 0x20 ADD PUSH1 0x7 DUP3 ADD SLOAD DUP2 MSTORE PUSH1 0x20 ADD PUSH1 0x8 DUP3 ADD SLOAD DUP2 MSTORE POP POP SWAP1 POP SWAP3 SWAP2 POP POP JUMP JUMPDEST PUSH1 0xB SLOAD DUP2 JUMP JUMPDEST PUSH1 0x5 PUSH0 SWAP1 SLOAD SWAP1 PUSH2 0x100 EXP SWAP1 DIV PUSH20 0xFFFFFFFFFFFFFFFFFFFFFFFFFFFFFFFFFFFFFFFF AND PUSH20 0xFFFFFFFFFFFFFFFFFFFFFFFFFFFFFFFFFFFFFFFF AND CALLER PUSH20 0xFFFFFFFFFFFFFFFFFFFFFFFFFFFFFFFFFFFFFFFF AND EQ PUSH2 0x1807 JUMPI PUSH1 0x40 MLOAD PUSH32 0x8C379A000000000000000000000000000000000000000000000000000000000 DUP2 MSTORE PUSH1 0x4 ADD PUSH2 0x17FE SWAP1 PUSH2 0x2D15 JUMP JUMPDEST PUSH1 0x40 MLOAD DUP1 SWAP2 SUB SWAP1 REVERT JUMPDEST PUSH0 DUP2 GT PUSH2 0x1849 JUMPI PUSH1 0x40 MLOAD PUSH32 0x8C379A000000000000000000000000000000000000000000000000000000000 DUP2 MSTORE PUSH1 0x4 ADD PUSH2 0x1840 SWAP1 PUSH2 0x345A JUMP JUMPDEST PUSH1 0x40 MLOAD DUP1 SWAP2 SUB SWAP1 REVERT JUMPDEST DUP1 PUSH1 0xA DUP2 SWAP1 SSTORE POP PUSH32 0x33D1191F5A3ABFE19D468D51BB5ECE97489F1277A912A5B5C65992FC279AD3D4 DUP2 PUSH1 0x40 MLOAD PUSH2 0x187F SWAP2 SWAP1 PUSH2 0x2924 JUMP JUMPDEST PUSH1 0x40 MLOAD DUP1 SWAP2 SUB SWAP1 LOG1 POP JUMP JUMPDEST PUSH1 0x5 PUSH0 SWAP1 SLOAD SWAP1 PUSH2 0x100 EXP SWAP1 DIV PUSH20 0xFFFFFFFFFFFFFFFFFFFFFFFFFFFFFFFFFFFFFFFF AND PUSH20 0xFFFFFFFFFFFFFFFFFFFFFFFFFFFFFFFFFFFFFFFF AND CALLER PUSH20 0xFFFFFFFFFFFFFFFFFFFFFFFFFFFFFFFFFFFFFFFF AND EQ PUSH2 0x1919 JUMPI PUSH1 0x40 MLOAD PUSH32 0x8C379A000000000000000000000000000000000000000000000000000000000 DUP2 MSTORE PUSH1 0x4 ADD PUSH2 0x1910 SWAP1 PUSH2 0x2D15 JUMP JUMPDEST PUSH1 0x40 MLOAD DUP1 SWAP2 SUB SWAP1 REVERT JUMPDEST PUSH0 PUSH20 0xFFFFFFFFFFFFFFFFFFFFFFFFFFFFFFFFFFFFFFFF AND DUP2 PUSH20 0xFFFFFFFFFFFFFFFFFFFFFFFFFFFFFFFFFFFFFFFF AND SUB PUSH2 0x1987 JUMPI PUSH1 0x40 MLOAD PUSH32 0x8C379A000000000000000000000000000000000000000000000000000000000 DUP2 MSTORE PUSH1 0x4 ADD PUSH2 0x197E SWAP1 PUSH2 0x34C2 JUMP JUMPDEST PUSH1 0x40 MLOAD DUP1 SWAP2 SUB SWAP1 REVERT JUMPDEST DUP1 PUSH20 0xFFFFFFFFFFFFFFFFFFFFFFFFFFFFFFFFFFFFFFFF AND PUSH1 0x5 PUSH0 SWAP1 SLOAD SWAP1 PUSH2 0x100 EXP SWAP1 DIV PUSH20 0xFFFFFFFFFFFFFFFFFFFFFFFFFFFFFFFFFFFFFFFF AND PUSH20 0xFFFFFFFFFFFFFFFFFFFFFFFFFFFFFFFFFFFFFFFF AND PUSH32 0x8BE0079C531659141344CD1FD0A4F28419497F9722A3DAAFE3B4186F6B6457E0 PUSH1 0x40 MLOAD PUSH1 0x40 MLOAD DUP1 SWAP2 SUB SWAP1 LOG3 DUP1 PUSH1 0x5 PUSH0 PUSH2 0x100 EXP DUP2 SLOAD DUP2 PUSH20 0xFFFFFFFFFFFFFFFFFFFFFFFFFFFFFFFFFFFFFFFF MUL NOT AND SWAP1 DUP4 PUSH20 0xFFFFFFFFFFFFFFFFFFFFFFFFFFFFFFFFFFFFFFFF AND MUL OR SWAP1 SSTORE POP POP JUMP JUMPDEST PUSH0 PUSH1 0x3 PUSH0 DUP5 PUSH20 0xFFFFFFFFFFFFFFFFFFFFFFFFFFFFFFFFFFFFFFFF AND PUSH20 0xFFFFFFFFFFFFFFFFFFFFFFFFFFFFFFFFFFFFFFFF AND DUP2 MSTORE PUSH1 0x20 ADD SWAP1 DUP2 MSTORE PUSH1 0x20 ADD PUSH0 KECCAK256 SLOAD SWAP1 POP DUP2 DUP2 LT ISZERO PUSH2 0x1AC9 JUMPI PUSH1 0x40 MLOAD PUSH32 0x8C379A000000000000000000000000000000000000000000000000000000000 DUP2 MSTORE PUSH1 0x4 ADD PUSH2 0x1AC0 SWAP1 PUSH2 0x352A JUMP JUMPDEST PUSH1 0x40 MLOAD DUP1 SWAP2 SUB SWAP1 REVERT JUMPDEST DUP2 DUP2 SUB PUSH1 0x3 PUSH0 DUP6 PUSH20 0xFFFFFFFFFFFFFFFFFFFFFFFFFFFFFFFFFFFFFFFF AND PUSH20 0xFFFFFFFFFFFFFFFFFFFFFFFFFFFFFFFFFFFFFFFF AND DUP2 MSTORE PUSH1 0x20 ADD SWAP1 DUP2 MSTORE PUSH1 0x20 ADD PUSH0 KECCAK256 DUP2 SWAP1 SSTORE POP DUP2 PUSH1 0x2 PUSH0 DUP3 DUP3 SLOAD SUB SWAP3 POP POP DUP2 SWAP1 SSTORE POP PUSH0 PUSH20 0xFFFFFFFFFFFFFFFFFFFFFFFFFFFFFFFFFFFFFFFF AND DUP4 PUSH20 0xFFFFFFFFFFFFFFFFFFFFFFFFFFFFFFFFFFFFFFFF AND PUSH32 0xDDF252AD1BE2C89B69C2B068FC378DAA952BA7F163C4A11628F55A4DF523B3EF DUP5 PUSH1 0x40 MLOAD PUSH2 0x1B79 SWAP2 SWAP1 PUSH2 0x2924 JUMP JUMPDEST PUSH1 0x40 MLOAD DUP1 SWAP2 SUB SWAP1 LOG3 POP POP POP JUMP JUMPDEST PUSH0 PUSH20 0xFFFFFFFFFFFFFFFFFFFFFFFFFFFFFFFFFFFFFFFF AND DUP3 PUSH20 0xFFFFFFFFFFFFFFFFFFFFFFFFFFFFFFFFFFFFFFFF AND SUB PUSH2 0x1BF4 JUMPI PUSH1 0x40 MLOAD PUSH32 0x8C379A000000000000000000000000000000000000000000000000000000000 DUP2 MSTORE PUSH1 0x4 ADD PUSH2 0x1BEB SWAP1 PUSH2 0x335D JUMP JUMPDEST PUSH1 0x40 MLOAD DUP1 SWAP2 SUB SWAP1 REVERT JUMPDEST PUSH0 PUSH1 0x3 PUSH0 DUP6 PUSH20 0xFFFFFFFFFFFFFFFFFFFFFFFFFFFFFFFFFFFFFFFF AND PUSH20 0xFFFFFFFFFFFFFFFFFFFFFFFFFFFFFFFFFFFFFFFF AND DUP2 MSTORE PUSH1 0x20 ADD SWAP1 DUP2 MSTORE PUSH1 0x20 ADD PUSH0 KECCAK256 SLOAD SWAP1 POP DUP2 DUP2 LT ISZERO PUSH2 0x1C78 JUMPI PUSH1 0x40 MLOAD PUSH32 0x8C379A000000000000000000000000000000000000000000000000000000000 DUP2 MSTORE PUSH1 0x4 ADD PUSH2 0x1C6F SWAP1 PUSH2 0x3592 JUMP JUMPDEST PUSH1 0x40 MLOAD DUP1 SWAP2 SUB SWAP1 REVERT JUMPDEST DUP2 DUP2 SUB PUSH1 0x3 PUSH0 DUP7 PUSH20 0xFFFFFFFFFFFFFFFFFFFFFFFFFFFFFFFFFFFFFFFF AND PUSH20 0xFFFFFFFFFFFFFFFFFFFFFFFFFFFFFFFFFFFFFFFF AND DUP2 MSTORE PUSH1 0x20 ADD SWAP1 DUP2 MSTORE PUSH1 0x20 ADD PUSH0 KECCAK256 DUP2 SWAP1 SSTORE POP DUP2 PUSH1 0x3 PUSH0 DUP6 PUSH20 0xFFFFFFFFFFFFFFFFFFFFFFFFFFFFFFFFFFFFFFFF AND PUSH20 0xFFFFFFFFFFFFFFFFFFFFFFFFFFFFFFFFFFFFFFFF AND DUP2 MSTORE PUSH1 0x20 ADD SWAP1 DUP2 MSTORE PUSH1 0x20 ADD PUSH0 KECCAK256 PUSH0 DUP3 DUP3 SLOAD PUSH2 0x1D08 SWAP2 SWAP1 PUSH2 0x35B0 JUMP JUMPDEST SWAP3 POP POP DUP2 SWAP1 SSTORE POP DUP3 PUSH20 0xFFFFFFFFFFFFFFFFFFFFFFFFFFFFFFFFFFFFFFFF AND DUP5 PUSH20 0xFFFFFFFFFFFFFFFFFFFFFFFFFFFFFFFFFFFFFFFF AND PUSH32 0xDDF252AD1BE2C89B69C2B068FC378DAA952BA7F163C4A11628F55A4DF523B3EF DUP5 PUSH1 0x40 MLOAD PUSH2 0x1D6C SWAP2 SWAP1 PUSH2 0x2924 JUMP JUMPDEST PUSH1 0x40 MLOAD DUP1 SWAP2 SUB SWAP1 LOG3 POP POP POP POP JUMP JUMPDEST PUSH0 PUSH1 0x9 PUSH0 DUP4 PUSH20 0xFFFFFFFFFFFFFFFFFFFFFFFFFFFFFFFFFFFFFFFF AND PUSH20 0xFFFFFFFFFFFFFFFFFFFFFFFFFFFFFFFFFFFFFFFF AND DUP2 MSTORE PUSH1 0x20 ADD SWAP1 DUP2 MSTORE PUSH1 0x20 ADD PUSH0 KECCAK256 SLOAD SWAP1 POP PUSH0 PUSH1 0x8 PUSH0 DUP5 PUSH20 0xFFFFFFFFFFFFFFFFFFFFFFFFFFFFFFFFFFFFFFFF AND PUSH20 0xFFFFFFFFFFFFFFFFFFFFFFFFFFFFFFFFFFFFFFFF AND DUP2 MSTORE PUSH1 0x20 ADD SWAP1 DUP2 MSTORE PUSH1 0x20 ADD PUSH0 KECCAK256 SLOAD EQ DUP1 PUSH2 0x1E05 JUMPI POP PUSH0 DUP2 EQ JUMPDEST DUP1 PUSH2 0x1E10 JUMPI POP DUP1 TIMESTAMP GT ISZERO JUMPDEST ISZERO PUSH2 0x1E1B JUMPI POP PUSH2 0x2008 JUMP JUMPDEST PUSH0 PUSH1 0x1 PUSH1 0xA SLOAD DUP4 TIMESTAMP PUSH2 0x1E2D SWAP2 SWAP1 PUSH2 0x2EF5 JUMP JUMPDEST PUSH2 0x1E37 SWAP2 SWAP1 PUSH2 0x3223 JUMP JUMPDEST PUSH2 0x1E41 SWAP2 SWAP1 PUSH2 0x35B0 JUMP JUMPDEST SWAP1 POP PUSH0 PUSH1 0xB SLOAD DUP3 PUSH2 0x1E52 SWAP2 SWAP1 PUSH2 0x35E3 JUMP JUMPDEST SWAP1 POP DUP1 PUSH1 0x8 PUSH0 DUP7 PUSH20 0xFFFFFFFFFFFFFFFFFFFFFFFFFFFFFFFFFFFFFFFF AND PUSH20 0xFFFFFFFFFFFFFFFFFFFFFFFFFFFFFFFFFFFFFFFF AND DUP2 MSTORE PUSH1 0x20 ADD SWAP1 DUP2 MSTORE PUSH1 0x20 ADD PUSH0 KECCAK256 SLOAD PUSH2 0x1E9D SWAP2 SWAP1 PUSH2 0x35B0 JUMP JUMPDEST PUSH1 0x8 PUSH0 DUP7 PUSH20 0xFFFFFFFFFFFFFFFFFFFFFFFFFFFFFFFFFFFFFFFF AND PUSH20 0xFFFFFFFFFFFFFFFFFFFFFFFFFFFFFFFFFFFFFFFF AND DUP2 MSTORE PUSH1 0x20 ADD SWAP1 DUP2 MSTORE PUSH1 0x20 ADD PUSH0 KECCAK256 DUP2 SWAP1 SSTORE POP PUSH1 0xA SLOAD DUP3 PUSH2 0x1EEC SWAP2 SWAP1 PUSH2 0x35E3 JUMP JUMPDEST DUP4 PUSH2 0x1EF7 SWAP2 SWAP1 PUSH2 0x35B0 JUMP JUMPDEST PUSH1 0x9 PUSH0 DUP7 PUSH20 0xFFFFFFFFFFFFFFFFFFFFFFFFFFFFFFFFFFFFFFFF AND PUSH20 0xFFFFFFFFFFFFFFFFFFFFFFFFFFFFFFFFFFFFFFFF AND DUP2 MSTORE PUSH1 0x20 ADD SWAP1 DUP2 MSTORE PUSH1 0x20 ADD PUSH0 KECCAK256 DUP2 SWAP1 SSTORE POP DUP4 PUSH20 0xFFFFFFFFFFFFFFFFFFFFFFFFFFFFFFFFFFFFFFFF AND PUSH32 0x8974CF72BDF759C6E85C73D5BAAE06AF803BE0F9CE1D4C36F9AF034C2959D312 DUP3 PUSH1 0x8 PUSH0 DUP9 PUSH20 0xFFFFFFFFFFFFFFFFFFFFFFFFFFFFFFFFFFFFFFFF AND PUSH20 0xFFFFFFFFFFFFFFFFFFFFFFFFFFFFFFFFFFFFFFFF AND DUP2 MSTORE PUSH1 0x20 ADD SWAP1 DUP2 MSTORE PUSH1 0x20 ADD PUSH0 KECCAK256 SLOAD PUSH1 0x9 PUSH0 DUP10 PUSH20 0xFFFFFFFFFFFFFFFFFFFFFFFFFFFFFFFFFFFFFFFF AND PUSH20 0xFFFFFFFFFFFFFFFFFFFFFFFFFFFFFFFFFFFFFFFF AND DUP2 MSTORE PUSH1 0x20 ADD SWAP1 DUP2 MSTORE PUSH1 0x20 ADD PUSH0 KECCAK256 SLOAD PUSH1 0x40 MLOAD PUSH2 0x1FFC SWAP4 SWAP3 SWAP2 SWAP1 PUSH2 0x3624 JUMP JUMPDEST PUSH1 0x40 MLOAD DUP1 SWAP2 SUB SWAP1 LOG2 POP POP POP JUMPDEST POP JUMP JUMPDEST PUSH0 PUSH1 0x8 PUSH0 DUP6 PUSH20 0xFFFFFFFFFFFFFFFFFFFFFFFFFFFFFFFFFFFFFFFF AND PUSH20 0xFFFFFFFFFFFFFFFFFFFFFFFFFFFFFFFFFFFFFFFF AND DUP2 MSTORE PUSH1 0x20 ADD SWAP1 DUP2 MSTORE PUSH1 0x20 ADD PUSH0 KECCAK256 SLOAD SWAP1 POP PUSH0 DUP2 GT ISZERO PUSH2 0x2266 JUMPI DUP1 DUP4 LT PUSH2 0x21B8 JUMPI PUSH0 DUP2 DUP5 PUSH2 0x2068 SWAP2 SWAP1 PUSH2 0x2EF5 JUMP JUMPDEST SWAP1 POP PUSH0 PUSH1 0x8 PUSH0 DUP8 PUSH20 0xFFFFFFFFFFFFFFFFFFFFFFFFFFFFFFFFFFFFFFFF AND PUSH20 0xFFFFFFFFFFFFFFFFFFFFFFFFFFFFFFFFFFFFFFFF AND DUP2 MSTORE PUSH1 0x20 ADD SWAP1 DUP2 MSTORE PUSH1 0x20 ADD PUSH0 KECCAK256 DUP2 SWAP1 SSTORE POP PUSH0 PUSH1 0x9 PUSH0 DUP8 PUSH20 0xFFFFFFFFFFFFFFFFFFFFFFFFFFFFFFFFFFFFFFFF AND PUSH20 0xFFFFFFFFFFFFFFFFFFFFFFFFFFFFFFFFFFFFFFFF AND DUP2 MSTORE PUSH1 0x20 ADD SWAP1 DUP2 MSTORE PUSH1 0x20 ADD PUSH0 KECCAK256 DUP2 SWAP1 SSTORE POP DUP5 PUSH20 0xFFFFFFFFFFFFFFFFFFFFFFFFFFFFFFFFFFFFFFFF AND PUSH32 0x1657F3F9DB7A57A2CBF7C5C76516840B2A7CF3F20BC67EDB2CD02F10C56D0A2A DUP4 PUSH0 PUSH1 0x40 MLOAD PUSH2 0x2136 SWAP3 SWAP2 SWAP1 PUSH2 0x3031 JUMP JUMPDEST PUSH1 0x40 MLOAD DUP1 SWAP2 SUB SWAP1 LOG2 PUSH0 DUP2 GT ISZERO PUSH2 0x21B2 JUMPI PUSH2 0x2150 DUP6 DUP3 PUSH2 0x251F JUMP JUMPDEST DUP5 PUSH20 0xFFFFFFFFFFFFFFFFFFFFFFFFFFFFFFFFFFFFFFFF AND PUSH32 0xBA27001EED39081E9D6F521103BC201676A9B4EB7FE868E5E596DA78B135126B DUP3 PUSH1 0x40 MLOAD PUSH2 0x2196 SWAP2 SWAP1 PUSH2 0x2924 JUMP JUMPDEST PUSH1 0x40 MLOAD DUP1 SWAP2 SUB SWAP1 LOG2 DUP1 DUP4 PUSH1 0x20 ADD DUP2 DUP2 MSTORE POP POP DUP1 DUP4 PUSH0 ADD DUP2 DUP2 MSTORE POP POP JUMPDEST POP PUSH2 0x2261 JUMP JUMPDEST DUP3 DUP2 PUSH2 0x21C4 SWAP2 SWAP1 PUSH2 0x2EF5 JUMP JUMPDEST PUSH1 0x8 PUSH0 DUP7 PUSH20 0xFFFFFFFFFFFFFFFFFFFFFFFFFFFFFFFFFFFFFFFF AND PUSH20 0xFFFFFFFFFFFFFFFFFFFFFFFFFFFFFFFFFFFFFFFF AND DUP2 MSTORE PUSH1 0x20 ADD SWAP1 DUP2 MSTORE PUSH1 0x20 ADD PUSH0 KECCAK256 DUP2 SWAP1 SSTORE POP DUP4 PUSH20 0xFFFFFFFFFFFFFFFFFFFFFFFFFFFFFFFFFFFFFFFF AND PUSH32 0x1657F3F9DB7A57A2CBF7C5C76516840B2A7CF3F20BC67EDB2CD02F10C56D0A2A DUP5 DUP6 DUP5 PUSH2 0x224A SWAP2 SWAP1 PUSH2 0x2EF5 JUMP JUMPDEST PUSH1 0x40 MLOAD PUSH2 0x2258 SWAP3 SWAP2 SWAP1 PUSH2 0x3058 JUMP JUMPDEST PUSH1 0x40 MLOAD DUP1 SWAP2 SUB SWAP1 LOG2 JUMPDEST PUSH2 0x22D2 JUMP JUMPDEST PUSH2 0x2270 DUP5 DUP5 PUSH2 0x251F JUMP JUMPDEST DUP4 PUSH20 0xFFFFFFFFFFFFFFFFFFFFFFFFFFFFFFFFFFFFFFFF AND PUSH32 0xBA27001EED39081E9D6F521103BC201676A9B4EB7FE868E5E596DA78B135126B DUP5 PUSH1 0x40 MLOAD PUSH2 0x22B6 SWAP2 SWAP1 PUSH2 0x2924 JUMP JUMPDEST PUSH1 0x40 MLOAD DUP1 SWAP2 SUB SWAP1 LOG2 DUP3 DUP3 PUSH1 0x20 ADD DUP2 DUP2 MSTORE POP POP DUP3 DUP3 PUSH0 ADD DUP2 DUP2 MSTORE POP POP JUMPDEST POP POP POP POP JUMP JUMPDEST PUSH0 DUP3 SWAP1 POP PUSH0 PUSH1 0x3 PUSH0 DUP7 PUSH20 0xFFFFFFFFFFFFFFFFFFFFFFFFFFFFFFFFFFFFFFFF AND PUSH20 0xFFFFFFFFFFFFFFFFFFFFFFFFFFFFFFFFFFFFFFFF AND DUP2 MSTORE PUSH1 0x20 ADD SWAP1 DUP2 MSTORE PUSH1 0x20 ADD PUSH0 KECCAK256 SLOAD SWAP1 POP DUP1 DUP3 GT ISZERO PUSH2 0x2329 JUMPI DUP1 SWAP2 POP JUMPDEST POP PUSH0 DUP2 GT ISZERO PUSH2 0x23A7 JUMPI PUSH2 0x233C DUP5 DUP3 PUSH2 0x1A45 JUMP JUMPDEST DUP4 PUSH20 0xFFFFFFFFFFFFFFFFFFFFFFFFFFFFFFFFFFFFFFFF AND PUSH32 0x4B28C7DC138644F27518388387393ECBD08EF8D180A4A6799C954BE166A37AB3 DUP3 PUSH1 0x40 MLOAD PUSH2 0x2382 SWAP2 SWAP1 PUSH2 0x2924 JUMP JUMPDEST PUSH1 0x40 MLOAD DUP1 SWAP2 SUB SWAP1 LOG2 DUP1 PUSH2 0x2394 SWAP1 PUSH2 0x3659 JUMP JUMPDEST DUP3 PUSH0 ADD DUP2 DUP2 MSTORE POP POP DUP1 DUP3 PUSH1 0x40 ADD DUP2 DUP2 MSTORE POP POP JUMPDEST DUP1 DUP4 GT ISZERO PUSH2 0x2519 JUMPI PUSH0 DUP2 DUP5 PUSH2 0x23BC SWAP2 SWAP1 PUSH2 0x2EF5 JUMP JUMPDEST SWAP1 POP DUP1 PUSH1 0x8 PUSH0 DUP8 PUSH20 0xFFFFFFFFFFFFFFFFFFFFFFFFFFFFFFFFFFFFFFFF AND PUSH20 0xFFFFFFFFFFFFFFFFFFFFFFFFFFFFFFFFFFFFFFFF AND DUP2 MSTORE PUSH1 0x20 ADD SWAP1 DUP2 MSTORE PUSH1 0x20 ADD PUSH0 KECCAK256 PUSH0 DUP3 DUP3 SLOAD PUSH2 0x240A SWAP2 SWAP1 PUSH2 0x35B0 JUMP JUMPDEST SWAP3 POP POP DUP2 SWAP1 SSTORE POP PUSH0 PUSH1 0xA SLOAD TIMESTAMP PUSH2 0x2420 SWAP2 SWAP1 PUSH2 0x35B0 JUMP JUMPDEST SWAP1 POP PUSH0 PUSH1 0x9 PUSH0 DUP9 PUSH20 0xFFFFFFFFFFFFFFFFFFFFFFFFFFFFFFFFFFFFFFFF AND PUSH20 0xFFFFFFFFFFFFFFFFFFFFFFFFFFFFFFFFFFFFFFFF AND DUP2 MSTORE PUSH1 0x20 ADD SWAP1 DUP2 MSTORE PUSH1 0x20 ADD PUSH0 KECCAK256 SLOAD SWAP1 POP PUSH0 DUP2 EQ DUP1 PUSH2 0x2470 JUMPI POP DUP1 DUP3 LT JUMPDEST ISZERO PUSH2 0x2479 JUMPI DUP2 SWAP1 POP JUMPDEST DUP1 PUSH1 0x9 PUSH0 DUP10 PUSH20 0xFFFFFFFFFFFFFFFFFFFFFFFFFFFFFFFFFFFFFFFF AND PUSH20 0xFFFFFFFFFFFFFFFFFFFFFFFFFFFFFFFFFFFFFFFF AND DUP2 MSTORE PUSH1 0x20 ADD SWAP1 DUP2 MSTORE PUSH1 0x20 ADD PUSH0 KECCAK256 DUP2 SWAP1 SSTORE POP DUP3 DUP6 PUSH1 0x60 ADD DUP2 DUP2 MSTORE POP POP DUP7 PUSH20 0xFFFFFFFFFFFFFFFFFFFFFFFFFFFFFFFFFFFFFFFF AND PUSH32 0x11044A55B74266E69AE3C73CE38E31EDEAAB7921F3CA4DD220024931123A50EB DUP5 DUP4 PUSH1 0x40 MLOAD PUSH2 0x250D SWAP3 SWAP2 SWAP1 PUSH2 0x3058 JUMP JUMPDEST PUSH1 0x40 MLOAD DUP1 SWAP2 SUB SWAP1 LOG2 POP POP POP JUMPDEST POP POP POP POP JUMP JUMPDEST PUSH0 PUSH20 0xFFFFFFFFFFFFFFFFFFFFFFFFFFFFFFFFFFFFFFFF AND DUP3 PUSH20 0xFFFFFFFFFFFFFFFFFFFFFFFFFFFFFFFFFFFFFFFF AND SUB PUSH2 0x258D JUMPI PUSH1 0x40 MLOAD PUSH32 0x8C379A000000000000000000000000000000000000000000000000000000000 DUP2 MSTORE PUSH1 0x4 ADD PUSH2 0x2584 SWAP1 PUSH2 0x335D JUMP JUMPDEST PUSH1 0x40 MLOAD DUP1 SWAP2 SUB SWAP1 REVERT JUMPDEST DUP1 PUSH1 0x2 PUSH0 DUP3 DUP3 SLOAD PUSH2 0x259E SWAP2 SWAP1 PUSH2 0x35B0 JUMP JUMPDEST SWAP3 POP POP DUP2 SWAP1 SSTORE POP DUP1 PUSH1 0x3 PUSH0 DUP5 PUSH20 0xFFFFFFFFFFFFFFFFFFFFFFFFFFFFFFFFFFFFFFFF AND PUSH20 0xFFFFFFFFFFFFFFFFFFFFFFFFFFFFFFFFFFFFFFFF AND DUP2 MSTORE PUSH1 0x20 ADD SWAP1 DUP2 MSTORE PUSH1 0x20 ADD PUSH0 KECCAK256 PUSH0 DUP3 DUP3 SLOAD PUSH2 0x25F1 SWAP2 SWAP1 PUSH2 0x35B0 JUMP JUMPDEST SWAP3 POP POP DUP2 SWAP1 SSTORE POP DUP2 PUSH20 0xFFFFFFFFFFFFFFFFFFFFFFFFFFFFFFFFFFFFFFFF AND PUSH0 PUSH20 0xFFFFFFFFFFFFFFFFFFFFFFFFFFFFFFFFFFFFFFFF AND PUSH32 0xDDF252AD1BE2C89B69C2B068FC378DAA952BA7F163C4A11628F55A4DF523B3EF DUP4 PUSH1 0x40 MLOAD PUSH2 0x2655 SWAP2 SWAP1 PUSH2 0x2924 JUMP JUMPDEST PUSH1 0x40 MLOAD DUP1 SWAP2 SUB SWAP1 LOG3 POP POP JUMP JUMPDEST PUSH1 0x40 MLOAD DUP1 PUSH1 0x80 ADD PUSH1 0x40 MSTORE DUP1 PUSH0 DUP2 MSTORE PUSH1 0x20 ADD PUSH0 DUP2 MSTORE PUSH1 0x20 ADD PUSH0 DUP2 MSTORE PUSH1 0x20 ADD PUSH0 DUP2 MSTORE POP SWAP1 JUMP JUMPDEST PUSH1 0x40 MLOAD DUP1 PUSH2 0x120 ADD PUSH1 0x40 MSTORE DUP1 PUSH0 DUP2 MSTORE PUSH1 0x20 ADD PUSH0 DUP2 MSTORE PUSH1 0x20 ADD PUSH0 DUP2 MSTORE PUSH1 0x20 ADD PUSH0 DUP2 MSTORE PUSH1 0x20 ADD PUSH0 DUP2 MSTORE PUSH1 0x20 ADD PUSH0 DUP2 MSTORE PUSH1 0x20 ADD PUSH0 DUP2 MSTORE PUSH1 0x20 ADD PUSH0 DUP2 MSTORE PUSH1 0x20 ADD PUSH0 DUP2 MSTORE POP SWAP1 JUMP JUMPDEST PUSH0 PUSH0 REVERT JUMPDEST PUSH0 PUSH20 0xFFFFFFFFFFFFFFFFFFFFFFFFFFFFFFFFFFFFFFFF DUP3 AND SWAP1 POP SWAP2 SWAP1 POP JUMP JUMPDEST PUSH0 PUSH2 0x26F5 DUP3 PUSH2 0x26CC JUMP JUMPDEST SWAP1 POP SWAP2 SWAP1 POP JUMP JUMPDEST PUSH2 0x2705 DUP2 PUSH2 0x26EB JUMP JUMPDEST DUP2 EQ PUSH2 0x270F JUMPI PUSH0 PUSH0 REVERT JUMPDEST POP JUMP JUMPDEST PUSH0 DUP2 CALLDATALOAD SWAP1 POP PUSH2 0x2720 DUP2 PUSH2 0x26FC JUMP JUMPDEST SWAP3 SWAP2 POP POP JUMP JUMPDEST PUSH0 DUP2 SWAP1 POP SWAP2 SWAP1 POP JUMP JUMPDEST PUSH2 0x2738 DUP2 PUSH2 0x2726 JUMP JUMPDEST DUP2 EQ PUSH2 0x2742 JUMPI PUSH0 PUSH0 REVERT JUMPDEST POP JUMP JUMPDEST PUSH0 DUP2 CALLDATALOAD SWAP1 POP PUSH2 0x2753 DUP2 PUSH2 0x272F JUMP JUMPDEST SWAP3 SWAP2 POP POP JUMP JUMPDEST PUSH0 PUSH0 PUSH1 0x40 DUP4 DUP6 SUB SLT ISZERO PUSH2 0x276F JUMPI PUSH2 0x276E PUSH2 0x26C8 JUMP JUMPDEST JUMPDEST PUSH0 PUSH2 0x277C DUP6 DUP3 DUP7 ADD PUSH2 0x2712 JUMP JUMPDEST SWAP3 POP POP PUSH1 0x20 PUSH2 0x278D DUP6 DUP3 DUP7 ADD PUSH2 0x2745 JUMP JUMPDEST SWAP2 POP POP SWAP3 POP SWAP3 SWAP1 POP JUMP JUMPDEST PUSH0 DUP2 MLOAD SWAP1 POP SWAP2 SWAP1 POP JUMP JUMPDEST PUSH0 DUP3 DUP3 MSTORE PUSH1 0x20 DUP3 ADD SWAP1 POP SWAP3 SWAP2 POP POP JUMP JUMPDEST DUP3 DUP2 DUP4 MCOPY PUSH0 DUP4 DUP4 ADD MSTORE POP POP POP JUMP JUMPDEST PUSH0 PUSH1 0x1F NOT PUSH1 0x1F DUP4 ADD AND SWAP1 POP SWAP2 SWAP1 POP JUMP JUMPDEST PUSH0 PUSH2 0x27D9 DUP3 PUSH2 0x2797 JUMP JUMPDEST PUSH2 0x27E3 DUP2 DUP6 PUSH2 0x27A1 JUMP JUMPDEST SWAP4 POP PUSH2 0x27F3 DUP2 DUP6 PUSH1 0x20 DUP7 ADD PUSH2 0x27B1 JUMP JUMPDEST PUSH2 0x27FC DUP2 PUSH2 0x27BF JUMP JUMPDEST DUP5 ADD SWAP2 POP POP SWAP3 SWAP2 POP POP JUMP JUMPDEST PUSH0 PUSH1 0x20 DUP3 ADD SWAP1 POP DUP2 DUP2 SUB PUSH0 DUP4 ADD MSTORE PUSH2 0x281F DUP2 DUP5 PUSH2 0x27CF JUMP JUMPDEST SWAP1 POP SWAP3 SWAP2 POP POP JUMP JUMPDEST PUSH0 DUP2 ISZERO ISZERO SWAP1 POP SWAP2 SWAP1 POP JUMP JUMPDEST PUSH2 0x283B DUP2 PUSH2 0x2827 JUMP JUMPDEST DUP3 MSTORE POP POP JUMP JUMPDEST PUSH0 PUSH1 0x20 DUP3 ADD SWAP1 POP PUSH2 0x2854 PUSH0 DUP4 ADD DUP5 PUSH2 0x2832 JUMP JUMPDEST SWAP3 SWAP2 POP POP JUMP JUMPDEST PUSH2 0x2863 DUP2 PUSH2 0x2726 JUMP JUMPDEST DUP3 MSTORE POP POP JUMP JUMPDEST PUSH0 DUP2 SWAP1 POP SWAP2 SWAP1 POP JUMP JUMPDEST PUSH2 0x287B DUP2 PUSH2 0x2869 JUMP JUMPDEST DUP3 MSTORE POP POP JUMP JUMPDEST PUSH0 DUP2 SWAP1 POP SWAP2 SWAP1 POP JUMP JUMPDEST PUSH2 0x2893 DUP2 PUSH2 0x2881 JUMP JUMPDEST DUP3 MSTORE POP POP JUMP JUMPDEST PUSH0 PUSH2 0x120 DUP3 ADD SWAP1 POP PUSH2 0x28AD PUSH0 DUP4 ADD DUP13 PUSH2 0x285A JUMP JUMPDEST PUSH2 0x28BA PUSH1 0x20 DUP4 ADD DUP12 PUSH2 0x285A JUMP JUMPDEST PUSH2 0x28C7 PUSH1 0x40 DUP4 ADD DUP11 PUSH2 0x285A JUMP JUMPDEST PUSH2 0x28D4 PUSH1 0x60 DUP4 ADD DUP10 PUSH2 0x285A JUMP JUMPDEST PUSH2 0x28E1 PUSH1 0x80 DUP4 ADD DUP9 PUSH2 0x2872 JUMP JUMPDEST PUSH2 0x28EE PUSH1 0xA0 DUP4 ADD DUP8 PUSH2 0x288A JUMP JUMPDEST PUSH2 0x28FB PUSH1 0xC0 DUP4 ADD DUP7 PUSH2 0x285A JUMP JUMPDEST PUSH2 0x2908 PUSH1 0xE0 DUP4 ADD DUP6 PUSH2 0x285A JUMP JUMPDEST PUSH2 0x2916 PUSH2 0x100 DUP4 ADD DUP5 PUSH2 0x2872 JUMP JUMPDEST SWAP11 SWAP10 POP POP POP POP POP POP POP POP POP POP JUMP JUMPDEST PUSH0 PUSH1 0x20 DUP3 ADD SWAP1 POP PUSH2 0x2937 PUSH0 DUP4 ADD DUP5 PUSH2 0x285A JUMP JUMPDEST SWAP3 SWAP2 POP POP JUMP JUMPDEST PUSH0 PUSH0 PUSH0 PUSH1 0x60 DUP5 DUP7 SUB SLT ISZERO PUSH2 0x2954 JUMPI PUSH2 0x2953 PUSH2 0x26C8 JUMP JUMPDEST JUMPDEST PUSH0 PUSH2 0x2961 DUP7 DUP3 DUP8 ADD PUSH2 0x2712 JUMP JUMPDEST SWAP4 POP POP PUSH1 0x20 PUSH2 0x2972 DUP7 DUP3 DUP8 ADD PUSH2 0x2712 JUMP JUMPDEST SWAP3 POP POP PUSH1 0x40 PUSH2 0x2983 DUP7 DUP3 DUP8 ADD PUSH2 0x2745 JUMP JUMPDEST SWAP2 POP POP SWAP3 POP SWAP3 POP SWAP3 JUMP JUMPDEST PUSH0 PUSH1 0xFF DUP3 AND SWAP1 POP SWAP2 SWAP1 POP JUMP JUMPDEST PUSH2 0x29A2 DUP2 PUSH2 0x298D JUMP JUMPDEST DUP3 MSTORE POP POP JUMP JUMPDEST PUSH0 PUSH1 0x20 DUP3 ADD SWAP1 POP PUSH2 0x29BB PUSH0 DUP4 ADD DUP5 PUSH2 0x2999 JUMP JUMPDEST SWAP3 SWAP2 POP POP JUMP JUMPDEST PUSH0 PUSH1 0x20 DUP3 DUP5 SUB SLT ISZERO PUSH2 0x29D6 JUMPI PUSH2 0x29D5 PUSH2 0x26C8 JUMP JUMPDEST JUMPDEST PUSH0 PUSH2 0x29E3 DUP5 DUP3 DUP6 ADD PUSH2 0x2745 JUMP JUMPDEST SWAP2 POP POP SWAP3 SWAP2 POP POP JUMP JUMPDEST PUSH0 PUSH1 0x20 DUP3 DUP5 SUB SLT ISZERO PUSH2 0x2A01 JUMPI PUSH2 0x2A00 PUSH2 0x26C8 JUMP JUMPDEST JUMPDEST PUSH0 PUSH2 0x2A0E DUP5 DUP3 DUP6 ADD PUSH2 0x2712 JUMP JUMPDEST SWAP2 POP POP SWAP3 SWAP2 POP POP JUMP JUMPDEST PUSH0 DUP2 SWAP1 POP SWAP2 SWAP1 POP JUMP JUMPDEST PUSH0 PUSH2 0x2A3A PUSH2 0x2A35 PUSH2 0x2A30 DUP5 PUSH2 0x26CC JUMP JUMPDEST PUSH2 0x2A17 JUMP JUMPDEST PUSH2 0x26CC JUMP JUMPDEST SWAP1 POP SWAP2 SWAP1 POP JUMP JUMPDEST PUSH0 PUSH2 0x2A4B DUP3 PUSH2 0x2A20 JUMP JUMPDEST SWAP1 POP SWAP2 SWAP1 POP JUMP JUMPDEST PUSH0 PUSH2 0x2A5C DUP3 PUSH2 0x2A41 JUMP JUMPDEST SWAP1 POP SWAP2 SWAP1 POP JUMP JUMPDEST PUSH2 0x2A6C DUP2 PUSH2 0x2A52 JUMP JUMPDEST DUP3 MSTORE POP POP JUMP JUMPDEST PUSH0 PUSH1 0x20 DUP3 ADD SWAP1 POP PUSH2 0x2A85 PUSH0 DUP4 ADD DUP5 PUSH2 0x2A63 JUMP JUMPDEST SWAP3 SWAP2 POP POP JUMP JUMPDEST PUSH2 0x2A94 DUP2 PUSH2 0x2869 JUMP JUMPDEST DUP2 EQ PUSH2 0x2A9E JUMPI PUSH0 PUSH0 REVERT JUMPDEST POP JUMP JUMPDEST PUSH0 DUP2 CALLDATALOAD SWAP1 POP PUSH2 0x2AAF DUP2 PUSH2 0x2A8B JUMP JUMPDEST SWAP3 SWAP2 POP POP JUMP JUMPDEST PUSH0 PUSH0 PUSH0 PUSH0 PUSH0 PUSH0 PUSH1 0xC0 DUP8 DUP10 SUB SLT ISZERO PUSH2 0x2ACF JUMPI PUSH2 0x2ACE PUSH2 0x26C8 JUMP JUMPDEST JUMPDEST PUSH0 PUSH2 0x2ADC DUP10 DUP3 DUP11 ADD PUSH2 0x2712 JUMP JUMPDEST SWAP7 POP POP PUSH1 0x20 PUSH2 0x2AED DUP10 DUP3 DUP11 ADD PUSH2 0x2745 JUMP JUMPDEST SWAP6 POP POP PUSH1 0x40 PUSH2 0x2AFE DUP10 DUP3 DUP11 ADD PUSH2 0x2745 JUMP JUMPDEST SWAP5 POP POP PUSH1 0x60 PUSH2 0x2B0F DUP10 DUP3 DUP11 ADD PUSH2 0x2745 JUMP JUMPDEST SWAP4 POP POP PUSH1 0x80 PUSH2 0x2B20 DUP10 DUP3 DUP11 ADD PUSH2 0x2AA1 JUMP JUMPDEST SWAP3 POP POP PUSH1 0xA0 PUSH2 0x2B31 DUP10 DUP3 DUP11 ADD PUSH2 0x2AA1 JUMP JUMPDEST SWAP2 POP POP SWAP3 SWAP6 POP SWAP3 SWAP6 POP SWAP3 SWAP6 JUMP JUMPDEST PUSH0 PUSH1 0x20 DUP3 DUP5 SUB SLT ISZERO PUSH2 0x2B53 JUMPI PUSH2 0x2B52 PUSH2 0x26C8 JUMP JUMPDEST JUMPDEST PUSH0 PUSH2 0x2B60 DUP5 DUP3 DUP6 ADD PUSH2 0x2AA1 JUMP JUMPDEST SWAP2 POP POP SWAP3 SWAP2 POP POP JUMP JUMPDEST PUSH2 0x2B72 DUP2 PUSH2 0x26EB JUMP JUMPDEST DUP3 MSTORE POP POP JUMP JUMPDEST PUSH0 PUSH1 0x20 DUP3 ADD SWAP1 POP PUSH2 0x2B8B PUSH0 DUP4 ADD DUP5 PUSH2 0x2B69 JUMP JUMPDEST SWAP3 SWAP2 POP POP JUMP JUMPDEST PUSH0 PUSH0 PUSH1 0x40 DUP4 DUP6 SUB SLT ISZERO PUSH2 0x2BA7 JUMPI PUSH2 0x2BA6 PUSH2 0x26C8 JUMP JUMPDEST JUMPDEST PUSH0 PUSH2 0x2BB4 DUP6 DUP3 DUP7 ADD PUSH2 0x2712 JUMP JUMPDEST SWAP3 POP POP PUSH1 0x20 PUSH2 0x2BC5 DUP6 DUP3 DUP7 ADD PUSH2 0x2712 JUMP JUMPDEST SWAP2 POP POP SWAP3 POP SWAP3 SWAP1 POP JUMP JUMPDEST PUSH2 0x2BD8 DUP2 PUSH2 0x2726 JUMP JUMPDEST DUP3 MSTORE POP POP JUMP JUMPDEST PUSH2 0x2BE7 DUP2 PUSH2 0x2869 JUMP JUMPDEST DUP3 MSTORE POP POP JUMP JUMPDEST PUSH2 0x2BF6 DUP2 PUSH2 0x2881 JUMP JUMPDEST DUP3 MSTORE POP POP JUMP JUMPDEST PUSH2 0x120 DUP3 ADD PUSH0 DUP3 ADD MLOAD PUSH2 0x2C11 PUSH0 DUP6 ADD DUP3 PUSH2 0x2BCF JUMP JUMPDEST POP PUSH1 0x20 DUP3 ADD MLOAD PUSH2 0x2C24 PUSH1 0x20 DUP6 ADD DUP3 PUSH2 0x2BCF JUMP JUMPDEST POP PUSH1 0x40 DUP3 ADD MLOAD PUSH2 0x2C37 PUSH1 0x40 DUP6 ADD DUP3 PUSH2 0x2BCF JUMP JUMPDEST POP PUSH1 0x60 DUP3 ADD MLOAD PUSH2 0x2C4A PUSH1 0x60 DUP6 ADD DUP3 PUSH2 0x2BCF JUMP JUMPDEST POP PUSH1 0x80 DUP3 ADD MLOAD PUSH2 0x2C5D PUSH1 0x80 DUP6 ADD DUP3 PUSH2 0x2BDE JUMP JUMPDEST POP PUSH1 0xA0 DUP3 ADD MLOAD PUSH2 0x2C70 PUSH1 0xA0 DUP6 ADD DUP3 PUSH2 0x2BED JUMP JUMPDEST POP PUSH1 0xC0 DUP3 ADD MLOAD PUSH2 0x2C83 PUSH1 0xC0 DUP6 ADD DUP3 PUSH2 0x2BCF JUMP JUMPDEST POP PUSH1 0xE0 DUP3 ADD MLOAD PUSH2 0x2C96 PUSH1 0xE0 DUP6 ADD DUP3 PUSH2 0x2BCF JUMP JUMPDEST POP PUSH2 0x100 DUP3 ADD MLOAD PUSH2 0x2CAB PUSH2 0x100 DUP6 ADD DUP3 PUSH2 0x2BDE JUMP JUMPDEST POP POP POP POP JUMP JUMPDEST PUSH0 PUSH2 0x120 DUP3 ADD SWAP1 POP PUSH2 0x2CC5 PUSH0 DUP4 ADD DUP5 PUSH2 0x2BFC JUMP JUMPDEST SWAP3 SWAP2 POP POP JUMP JUMPDEST PUSH32 0x4E6F74206F776E65720000000000000000000000000000000000000000000000 PUSH0 DUP3 ADD MSTORE POP JUMP JUMPDEST PUSH0 PUSH2 0x2CFF PUSH1 0x9 DUP4 PUSH2 0x27A1 JUMP JUMPDEST SWAP2 POP PUSH2 0x2D0A DUP3 PUSH2 0x2CCB JUMP JUMPDEST PUSH1 0x20 DUP3 ADD SWAP1 POP SWAP2 SWAP1 POP JUMP JUMPDEST PUSH0 PUSH1 0x20 DUP3 ADD SWAP1 POP DUP2 DUP2 SUB PUSH0 DUP4 ADD MSTORE PUSH2 0x2D2C DUP2 PUSH2 0x2CF3 JUMP JUMPDEST SWAP1 POP SWAP2 SWAP1 POP JUMP JUMPDEST PUSH32 0x5A65726F2066726F6D0000000000000000000000000000000000000000000000 PUSH0 DUP3 ADD MSTORE POP JUMP JUMPDEST PUSH0 PUSH2 0x2D67 PUSH1 0x9 DUP4 PUSH2 0x27A1 JUMP JUMPDEST SWAP2 POP PUSH2 0x2D72 DUP3 PUSH2 0x2D33 JUMP JUMPDEST PUSH1 0x20 DUP3 ADD SWAP1 POP SWAP2 SWAP1 POP JUMP JUMPDEST PUSH0 PUSH1 0x20 DUP3 ADD SWAP1 POP DUP2 DUP2 SUB PUSH0 DUP4 ADD MSTORE PUSH2 0x2D94 DUP2 PUSH2 0x2D5B JUMP JUMPDEST SWAP1 POP SWAP2 SWAP1 POP JUMP JUMPDEST PUSH32 0x616D6F756E743D30000000000000000000000000000000000000000000000000 PUSH0 DUP3 ADD MSTORE POP JUMP JUMPDEST PUSH0 PUSH2 0x2DCF PUSH1 0x8 DUP4 PUSH2 0x27A1 JUMP JUMPDEST SWAP2 POP PUSH2 0x2DDA DUP3 PUSH2 0x2D9B JUMP JUMPDEST PUSH1 0x20 DUP3 ADD SWAP1 POP SWAP2 SWAP1 POP JUMP JUMPDEST PUSH0 PUSH1 0x20 DUP3 ADD SWAP1 POP DUP2 DUP2 SUB PUSH0 DUP4 ADD MSTORE PUSH2 0x2DFC DUP2 PUSH2 0x2DC3 JUMP JUMPDEST SWAP1 POP SWAP2 SWAP1 POP JUMP JUMPDEST PUSH32 0x4E487B7100000000000000000000000000000000000000000000000000000000 PUSH0 MSTORE PUSH1 0x22 PUSH1 0x4 MSTORE PUSH1 0x24 PUSH0 REVERT JUMPDEST PUSH0 PUSH1 0x2 DUP3 DIV SWAP1 POP PUSH1 0x1 DUP3 AND DUP1 PUSH2 0x2E47 JUMPI PUSH1 0x7F DUP3 AND SWAP2 POP JUMPDEST PUSH1 0x20 DUP3 LT DUP2 SUB PUSH2 0x2E5A JUMPI PUSH2 0x2E59 PUSH2 0x2E03 JUMP JUMPDEST JUMPDEST POP SWAP2 SWAP1 POP JUMP JUMPDEST PUSH32 0x416C6C6F77616E636520746F6F206C6F77000000000000000000000000000000 PUSH0 DUP3 ADD MSTORE POP JUMP JUMPDEST PUSH0 PUSH2 0x2E94 PUSH1 0x11 DUP4 PUSH2 0x27A1 JUMP JUMPDEST SWAP2 POP PUSH2 0x2E9F DUP3 PUSH2 0x2E60 JUMP JUMPDEST PUSH1 0x20 DUP3 ADD SWAP1 POP SWAP2 SWAP1 POP JUMP JUMPDEST PUSH0 PUSH1 0x20 DUP3 ADD SWAP1 POP DUP2 DUP2 SUB PUSH0 DUP4 ADD MSTORE PUSH2 0x2EC1 DUP2 PUSH2 0x2E88 JUMP JUMPDEST SWAP1 POP SWAP2 SWAP1 POP JUMP JUMPDEST PUSH32 0x4E487B7100000000000000000000000000000000000000000000000000000000 PUSH0 MSTORE PUSH1 0x11 PUSH1 0x4 MSTORE PUSH1 0x24 PUSH0 REVERT JUMPDEST PUSH0 PUSH2 0x2EFF DUP3 PUSH2 0x2726 JUMP JUMPDEST SWAP2 POP PUSH2 0x2F0A DUP4 PUSH2 0x2726 JUMP JUMPDEST SWAP3 POP DUP3 DUP3 SUB SWAP1 POP DUP2 DUP2 GT ISZERO PUSH2 0x2F22 JUMPI PUSH2 0x2F21 PUSH2 0x2EC8 JUMP JUMPDEST JUMPDEST SWAP3 SWAP2 POP POP JUMP JUMPDEST PUSH32 0x6E6F206F77656400000000000000000000000000000000000000000000000000 PUSH0 DUP3 ADD MSTORE POP JUMP JUMPDEST PUSH0 PUSH2 0x2F5C PUSH1 0x7 DUP4 PUSH2 0x27A1 JUMP JUMPDEST SWAP2 POP PUSH2 0x2F67 DUP3 PUSH2 0x2F28 JUMP JUMPDEST PUSH1 0x20 DUP3 ADD SWAP1 POP SWAP2 SWAP1 POP JUMP JUMPDEST PUSH0 PUSH1 0x20 DUP3 ADD SWAP1 POP DUP2 DUP2 SUB PUSH0 DUP4 ADD MSTORE PUSH2 0x2F89 DUP2 PUSH2 0x2F50 JUMP JUMPDEST SWAP1 POP SWAP2 SWAP1 POP JUMP JUMPDEST PUSH32 0x6E6F2062616C616E636500000000000000000000000000000000000000000000 PUSH0 DUP3 ADD MSTORE POP JUMP JUMPDEST PUSH0 PUSH2 0x2FC4 PUSH1 0xA DUP4 PUSH2 0x27A1 JUMP JUMPDEST SWAP2 POP PUSH2 0x2FCF DUP3 PUSH2 0x2F90 JUMP JUMPDEST PUSH1 0x20 DUP3 ADD SWAP1 POP SWAP2 SWAP1 POP JUMP JUMPDEST PUSH0 PUSH1 0x20 DUP3 ADD SWAP1 POP DUP2 DUP2 SUB PUSH0 DUP4 ADD MSTORE PUSH2 0x2FF1 DUP2 PUSH2 0x2FB8 JUMP JUMPDEST SWAP1 POP SWAP2 SWAP1 POP JUMP JUMPDEST PUSH0 DUP2 SWAP1 POP SWAP2 SWAP1 POP JUMP JUMPDEST PUSH0 PUSH2 0x301B PUSH2 0x3016 PUSH2 0x3011 DUP5 PUSH2 0x2FF8 JUMP JUMPDEST PUSH2 0x2A17 JUMP JUMPDEST PUSH2 0x2726 JUMP JUMPDEST SWAP1 POP SWAP2 SWAP1 POP JUMP JUMPDEST PUSH2 0x302B DUP2 PUSH2 0x3001 JUMP JUMPDEST DUP3 MSTORE POP POP JUMP JUMPDEST PUSH0 PUSH1 0x40 DUP3 ADD SWAP1 POP PUSH2 0x3044 PUSH0 DUP4 ADD DUP6 PUSH2 0x285A JUMP JUMPDEST PUSH2 0x3051 PUSH1 0x20 DUP4 ADD DUP5 PUSH2 0x3022 JUMP JUMPDEST SWAP4 SWAP3 POP POP POP JUMP JUMPDEST PUSH0 PUSH1 0x40 DUP3 ADD SWAP1 POP PUSH2 0x306B PUSH0 DUP4 ADD DUP6 PUSH2 0x285A JUMP JUMPDEST PUSH2 0x3078 PUSH1 0x20 DUP4 ADD DUP5 PUSH2 0x285A JUMP JUMPDEST SWAP4 SWAP3 POP POP POP JUMP JUMPDEST PUSH32 0x70656E616C7479203E2030000000000000000000000000000000000000000000 PUSH0 DUP3 ADD MSTORE POP JUMP JUMPDEST PUSH0 PUSH2 0x30B3 PUSH1 0xB DUP4 PUSH2 0x27A1 JUMP JUMPDEST SWAP2 POP PUSH2 0x30BE DUP3 PUSH2 0x307F JUMP JUMPDEST PUSH1 0x20 DUP3 ADD SWAP1 POP SWAP2 SWAP1 POP JUMP JUMPDEST PUSH0 PUSH1 0x20 DUP3 ADD SWAP1 POP DUP2 DUP2 SUB PUSH0 DUP4 ADD MSTORE PUSH2 0x30E0 DUP2 PUSH2 0x30A7 JUMP JUMPDEST SWAP1 POP SWAP2 SWAP1 POP JUMP JUMPDEST PUSH32 0x426174636820616C72656164792070726F636573736564000000000000000000 PUSH0 DUP3 ADD MSTORE POP JUMP JUMPDEST PUSH0 PUSH2 0x311B PUSH1 0x17 DUP4 PUSH2 0x27A1 JUMP JUMPDEST SWAP2 POP PUSH2 0x3126 DUP3 PUSH2 0x30E7 JUMP JUMPDEST PUSH1 0x20 DUP3 ADD SWAP1 POP SWAP2 SWAP1 POP JUMP JUMPDEST PUSH0 PUSH1 0x20 DUP3 ADD SWAP1 POP DUP2 DUP2 SUB PUSH0 DUP4 ADD MSTORE PUSH2 0x3148 DUP2 PUSH2 0x310F JUMP JUMPDEST SWAP1 POP SWAP2 SWAP1 POP JUMP JUMPDEST PUSH0 DUP2 MLOAD SWAP1 POP PUSH2 0x315D DUP2 PUSH2 0x272F JUMP JUMPDEST SWAP3 SWAP2 POP POP JUMP JUMPDEST PUSH0 PUSH1 0x20 DUP3 DUP5 SUB SLT ISZERO PUSH2 0x3178 JUMPI PUSH2 0x3177 PUSH2 0x26C8 JUMP JUMPDEST JUMPDEST PUSH0 PUSH2 0x3185 DUP5 DUP3 DUP6 ADD PUSH2 0x314F JUMP JUMPDEST SWAP2 POP POP SWAP3 SWAP2 POP POP JUMP JUMPDEST PUSH32 0x636170206D697373696E67000000000000000000000000000000000000000000 PUSH0 DUP3 ADD MSTORE POP JUMP JUMPDEST PUSH0 PUSH2 0x31C2 PUSH1 0xB DUP4 PUSH2 0x27A1 JUMP JUMPDEST SWAP2 POP PUSH2 0x31CD DUP3 PUSH2 0x318E JUMP JUMPDEST PUSH1 0x20 DUP3 ADD SWAP1 POP SWAP2 SWAP1 POP JUMP JUMPDEST PUSH0 PUSH1 0x20 DUP3 ADD SWAP1 POP DUP2 DUP2 SUB PUSH0 DUP4 ADD MSTORE PUSH2 0x31EF DUP2 PUSH2 0x31B6 JUMP JUMPDEST SWAP1 POP SWAP2 SWAP1 POP JUMP JUMPDEST PUSH32 0x4E487B7100000000000000000000000000000000000000000000000000000000 PUSH0 MSTORE PUSH1 0x12 PUSH1 0x4 MSTORE PUSH1 0x24 PUSH0 REVERT JUMPDEST PUSH0 PUSH2 0x322D DUP3 PUSH2 0x2726 JUMP JUMPDEST SWAP2 POP PUSH2 0x3238 DUP4 PUSH2 0x2726 JUMP JUMPDEST SWAP3 POP DUP3 PUSH2 0x3248 JUMPI PUSH2 0x3247 PUSH2 0x31F6 JUMP JUMPDEST JUMPDEST DUP3 DUP3 DIV SWAP1 POP SWAP3 SWAP2 POP POP JUMP JUMPDEST PUSH0 PUSH2 0x120 DUP3 ADD SWAP1 POP PUSH2 0x3267 PUSH0 DUP4 ADD DUP13 PUSH2 0x2872 JUMP JUMPDEST PUSH2 0x3274 PUSH1 0x20 DUP4 ADD DUP12 PUSH2 0x2872 JUMP JUMPDEST PUSH2 0x3281 PUSH1 0x40 DUP4 ADD DUP11 PUSH2 0x285A JUMP JUMPDEST PUSH2 0x328E PUSH1 0x60 DUP4 ADD DUP10 PUSH2 0x285A JUMP JUMPDEST PUSH2 0x329B PUSH1 0x80 DUP4 ADD DUP9 PUSH2 0x285A JUMP JUMPDEST PUSH2 0x32A8 PUSH1 0xA0 DUP4 ADD DUP8 PUSH2 0x285A JUMP JUMPDEST PUSH2 0x32B5 PUSH1 0xC0 DUP4 ADD DUP7 PUSH2 0x285A JUMP JUMPDEST PUSH2 0x32C2 PUSH1 0xE0 DUP4 ADD DUP6 PUSH2 0x285A JUMP JUMPDEST PUSH2 0x32D0 PUSH2 0x100 DUP4 ADD DUP5 PUSH2 0x288A JUMP JUMPDEST SWAP11 SWAP10 POP POP POP POP POP POP POP POP POP POP JUMP JUMPDEST PUSH0 PUSH1 0x60 DUP3 ADD SWAP1 POP PUSH2 0x32F1 PUSH0 DUP4 ADD DUP7 PUSH2 0x2872 JUMP JUMPDEST PUSH2 0x32FE PUSH1 0x20 DUP4 ADD DUP6 PUSH2 0x285A JUMP JUMPDEST PUSH2 0x330B PUSH1 0x40 DUP4 ADD DUP5 PUSH2 0x285A JUMP JUMPDEST SWAP5 SWAP4 POP POP POP POP JUMP JUMPDEST PUSH32 0x5A65726F20746F00000000000000000000000000000000000000000000000000 PUSH0 DUP3 ADD MSTORE POP JUMP JUMPDEST PUSH0 PUSH2 0x3347 PUSH1 0x7 DUP4 PUSH2 0x27A1 JUMP JUMPDEST SWAP2 POP PUSH2 0x3352 DUP3 PUSH2 0x3313 JUMP JUMPDEST PUSH1 0x20 DUP3 ADD SWAP1 POP SWAP2 SWAP1 POP JUMP JUMPDEST PUSH0 PUSH1 0x20 DUP3 ADD SWAP1 POP DUP2 DUP2 SUB PUSH0 DUP4 ADD MSTORE PUSH2 0x3374 DUP2 PUSH2 0x333B JUMP JUMPDEST SWAP1 POP SWAP2 SWAP1 POP JUMP JUMPDEST PUSH32 0x696E646578206F7574206F6620626F756E647300000000000000000000000000 PUSH0 DUP3 ADD MSTORE POP JUMP JUMPDEST PUSH0 PUSH2 0x33AF PUSH1 0x13 DUP4 PUSH2 0x27A1 JUMP JUMPDEST SWAP2 POP PUSH2 0x33BA DUP3 PUSH2 0x337B JUMP JUMPDEST PUSH1 0x20 DUP3 ADD SWAP1 POP SWAP2 SWAP1 POP JUMP JUMPDEST PUSH0 PUSH1 0x20 DUP3 ADD SWAP1 POP DUP2 DUP2 SUB PUSH0 DUP4 ADD MSTORE PUSH2 0x33DC DUP2 PUSH2 0x33A3 JUMP JUMPDEST SWAP1 POP SWAP2 SWAP1 POP JUMP JUMPDEST PUSH32 0x4E487B7100000000000000000000000000000000000000000000000000000000 PUSH0 MSTORE PUSH1 0x32 PUSH1 0x4 MSTORE PUSH1 0x24 PUSH0 REVERT JUMPDEST PUSH32 0x6772616365203E20300000000000000000000000000000000000000000000000 PUSH0 DUP3 ADD MSTORE POP JUMP JUMPDEST PUSH0 PUSH2 0x3444 PUSH1 0x9 DUP4 PUSH2 0x27A1 JUMP JUMPDEST SWAP2 POP PUSH2 0x344F DUP3 PUSH2 0x3410 JUMP JUMPDEST PUSH1 0x20 DUP3 ADD SWAP1 POP SWAP2 SWAP1 POP JUMP JUMPDEST PUSH0 PUSH1 0x20 DUP3 ADD SWAP1 POP DUP2 DUP2 SUB PUSH0 DUP4 ADD MSTORE PUSH2 0x3471 DUP2 PUSH2 0x3438 JUMP JUMPDEST SWAP1 POP SWAP2 SWAP1 POP JUMP JUMPDEST PUSH32 0x5A65726F206F776E657200000000000000000000000000000000000000000000 PUSH0 DUP3 ADD MSTORE POP JUMP JUMPDEST PUSH0 PUSH2 0x34AC PUSH1 0xA DUP4 PUSH2 0x27A1 JUMP JUMPDEST SWAP2 POP PUSH2 0x34B7 DUP3 PUSH2 0x3478 JUMP JUMPDEST PUSH1 0x20 DUP3 ADD SWAP1 POP SWAP2 SWAP1 POP JUMP JUMPDEST PUSH0 PUSH1 0x20 DUP3 ADD SWAP1 POP DUP2 DUP2 SUB PUSH0 DUP4 ADD MSTORE PUSH2 0x34D9 DUP2 PUSH2 0x34A0 JUMP JUMPDEST SWAP1 POP SWAP2 SWAP1 POP JUMP JUMPDEST PUSH32 0x4275726E20657863656564732062616C616E6365000000000000000000000000 PUSH0 DUP3 ADD MSTORE POP JUMP JUMPDEST PUSH0 PUSH2 0x3514 PUSH1 0x14 DUP4 PUSH2 0x27A1 JUMP JUMPDEST SWAP2 POP PUSH2 0x351F DUP3 PUSH2 0x34E0 JUMP JUMPDEST PUSH1 0x20 DUP3 ADD SWAP1 POP SWAP2 SWAP1 POP JUMP JUMPDEST PUSH0 PUSH1 0x20 DUP3 ADD SWAP1 POP DUP2 DUP2 SUB PUSH0 DUP4 ADD MSTORE PUSH2 0x3541 DUP2 PUSH2 0x3508 JUMP JUMPDEST SWAP1 POP SWAP2 SWAP1 POP JUMP JUMPDEST PUSH32 0x42616C616E636520746F6F206C6F770000000000000000000000000000000000 PUSH0 DUP3 ADD MSTORE POP JUMP JUMPDEST PUSH0 PUSH2 0x357C PUSH1 0xF DUP4 PUSH2 0x27A1 JUMP JUMPDEST SWAP2 POP PUSH2 0x3587 DUP3 PUSH2 0x3548 JUMP JUMPDEST PUSH1 0x20 DUP3 ADD SWAP1 POP SWAP2 SWAP1 POP JUMP JUMPDEST PUSH0 PUSH1 0x20 DUP3 ADD SWAP1 POP DUP2 DUP2 SUB PUSH0 DUP4 ADD MSTORE PUSH2 0x35A9 DUP2 PUSH2 0x3570 JUMP JUMPDEST SWAP1 POP SWAP2 SWAP1 POP JUMP JUMPDEST PUSH0 PUSH2 0x35BA DUP3 PUSH2 0x2726 JUMP JUMPDEST SWAP2 POP PUSH2 0x35C5 DUP4 PUSH2 0x2726 JUMP JUMPDEST SWAP3 POP DUP3 DUP3 ADD SWAP1 POP DUP1 DUP3 GT ISZERO PUSH2 0x35DD JUMPI PUSH2 0x35DC PUSH2 0x2EC8 JUMP JUMPDEST JUMPDEST SWAP3 SWAP2 POP POP JUMP JUMPDEST PUSH0 PUSH2 0x35ED DUP3 PUSH2 0x2726 JUMP JUMPDEST SWAP2 POP PUSH2 0x35F8 DUP4 PUSH2 0x2726 JUMP JUMPDEST SWAP3 POP DUP3 DUP3 MUL PUSH2 0x3606 DUP2 PUSH2 0x2726 JUMP JUMPDEST SWAP2 POP DUP3 DUP3 DIV DUP5 EQ DUP4 ISZERO OR PUSH2 0x361D JUMPI PUSH2 0x361C PUSH2 0x2EC8 JUMP JUMPDEST JUMPDEST POP SWAP3 SWAP2 POP POP JUMP JUMPDEST PUSH0 PUSH1 0x60 DUP3 ADD SWAP1 POP PUSH2 0x3637 PUSH0 DUP4 ADD DUP7 PUSH2 0x285A JUMP JUMPDEST PUSH2 0x3644 PUSH1 0x20 DUP4 ADD DUP6 PUSH2 0x285A JUMP JUMPDEST PUSH2 0x3651 PUSH1 0x40 DUP4 ADD DUP5 PUSH2 0x285A JUMP JUMPDEST SWAP5 SWAP4 POP POP POP POP JUMP JUMPDEST PUSH0 PUSH2 0x3663 DUP3 PUSH2 0x2881 JUMP JUMPDEST SWAP2 POP PUSH32 0x8000000000000000000000000000000000000000000000000000000000000000 DUP3 SUB PUSH2 0x3695 JUMPI PUSH2 0x3694 PUSH2 0x2EC8 JUMP JUMPDEST JUMPDEST DUP2 PUSH0 SUB SWAP1 POP SWAP2 SWAP1 POP JUMP INVALID LOG2 PUSH5 0x6970667358 0x22 SLT KECCAK256 EOFCREATE 0xD6 0xCE PUSH30 0x37BF95A5B961D9F5C49BF71ABA7DEB9ED9E91B3049297B55923788396473 PUSH16 0x6C634300081E00330000000000000000 "
				},
				"gasEstimates": {
					"creation": {
						"codeDepositCost": "2807400",
						"executionCost": "infinite",
						"totalCost": "infinite"
					},
					"external": {
						"adminBurn(address,uint256)": "infinite",
						"adminMint(address,uint256)": "infinite",
						"allowance(address,address)": "infinite",
						"approve(address,uint256)": "infinite",
						"balanceOf(address)": "2891",
						"decimals()": "398",
						"emissionHistory(address,uint256)": "infinite",
						"emissionHistoryLength(address)": "2926",
						"getEmissionBatch(address,uint256)": "infinite",
						"gracePeriodSec()": "2537",
						"name()": "infinite",
						"owedBalance(address)": "2847",
						"owedDueTime(address)": "2913",
						"owner()": "2575",
						"penaltyAmount()": "2491",
						"processedBatches(bytes32)": "2830",
						"registry()": "infinite",
						"setGracePeriod(uint256)": "infinite",
						"setPenaltyAmount(uint256)": "infinite",
						"settleOwed(uint256)": "infinite",
						"submitBatch(address,uint256,uint256,uint256,bytes32,bytes32)": "infinite",
						"symbol()": "infinite",
						"totalSupply()": "2559",
						"transfer(address,uint256)": "infinite",
						"transferFrom(address,address,uint256)": "infinite",
						"transferOwnership(address)": "30708"
					},
					"internal": {
						"_applyPenalty(address)": "infinite",
						"_burn(address,uint256)": "infinite",
						"_burnAndAccrue(address,uint256,struct CarbonCreditToken.TempBatch memory)": "infinite",
						"_mint(address,uint256)": "infinite",
						"_mintAndSettle(address,uint256,struct CarbonCreditToken.TempBatch memory)": "infinite",
						"_transfer(address,address,uint256)": "infinite"
					}
				},
				"methodIdentifiers": {
					"adminBurn(address,uint256)": "06dd0419",
					"adminMint(address,uint256)": "e58306f9",
					"allowance(address,address)": "dd62ed3e",
					"approve(address,uint256)": "095ea7b3",
					"balanceOf(address)": "70a08231",
					"decimals()": "313ce567",
					"emissionHistory(address,uint256)": "1344f9b4",
					"emissionHistoryLength(address)": "e8accb5b",
					"getEmissionBatch(address,uint256)": "eb6f0c93",
					"gracePeriodSec()": "1485041c",
					"name()": "06fdde03",
					"owedBalance(address)": "677a68e1",
					"owedDueTime(address)": "9a6669c0",
					"owner()": "8da5cb5b",
					"penaltyAmount()": "f218f48c",
					"processedBatches(bytes32)": "88fcda39",
					"registry()": "7b103999",
					"setGracePeriod(uint256)": "f2f65960",
					"setPenaltyAmount(uint256)": "6e588a37",
					"settleOwed(uint256)": "49b3b32d",
					"submitBatch(address,uint256,uint256,uint256,bytes32,bytes32)": "812da1e2",
					"symbol()": "95d89b41",
					"totalSupply()": "18160ddd",
					"transfer(address,uint256)": "a9059cbb",
					"transferFrom(address,address,uint256)": "23b872dd",
					"transferOwnership(address)": "f2fde38b"
				}
			},
			"storageLayout": {
				"storage": [
					{
						"astId": 13,
						"contract": "backend/contracts/CarbonCreditToken.sol:CarbonCreditToken",
						"label": "name",
						"offset": 0,
						"slot": "0",
						"type": "t_string_storage"
					},
					{
						"astId": 16,
						"contract": "backend/contracts/CarbonCreditToken.sol:CarbonCreditToken",
						"label": "symbol",
						"offset": 0,
						"slot": "1",
						"type": "t_string_storage"
					},
					{
						"astId": 21,
						"contract": "backend/contracts/CarbonCreditToken.sol:CarbonCreditToken",
						"label": "totalSupply",
						"offset": 0,
						"slot": "2",
						"type": "t_uint256"
					},
					{
						"astId": 25,
						"contract": "backend/contracts/CarbonCreditToken.sol:CarbonCreditToken",
						"label": "balanceOf",
						"offset": 0,
						"slot": "3",
						"type": "t_mapping(t_address,t_uint256)"
					},
					{
						"astId": 31,
						"contract": "backend/contracts/CarbonCreditToken.sol:CarbonCreditToken",
						"label": "allowance",
						"offset": 0,
						"slot": "4",
						"type": "t_mapping(t_address,t_mapping(t_address,t_uint256))"
					},
					{
						"astId": 49,
						"contract": "backend/contracts/CarbonCreditToken.sol:CarbonCreditToken",
						"label": "owner",
						"offset": 0,
						"slot": "5",
						"type": "t_address"
					},
					{
						"astId": 75,
						"contract": "backend/contracts/CarbonCreditToken.sol:CarbonCreditToken",
						"label": "processedBatches",
						"offset": 0,
						"slot": "6",
						"type": "t_mapping(t_bytes32,t_bool)"
					},
					{
						"astId": 101,
						"contract": "backend/contracts/CarbonCreditToken.sol:CarbonCreditToken",
						"label": "emissionHistory",
						"offset": 0,
						"slot": "7",
						"type": "t_mapping(t_address,t_array(t_struct(EmissionBatch)94_storage)dyn_storage)"
					},
					{
						"astId": 114,
						"contract": "backend/contracts/CarbonCreditToken.sol:CarbonCreditToken",
						"label": "owedBalance",
						"offset": 0,
						"slot": "8",
						"type": "t_mapping(t_address,t_uint256)"
					},
					{
						"astId": 118,
						"contract": "backend/contracts/CarbonCreditToken.sol:CarbonCreditToken",
						"label": "owedDueTime",
						"offset": 0,
						"slot": "9",
						"type": "t_mapping(t_address,t_uint256)"
					},
					{
						"astId": 121,
						"contract": "backend/contracts/CarbonCreditToken.sol:CarbonCreditToken",
						"label": "gracePeriodSec",
						"offset": 0,
						"slot": "10",
						"type": "t_uint256"
					},
					{
						"astId": 124,
						"contract": "backend/contracts/CarbonCreditToken.sol:CarbonCreditToken",
						"label": "penaltyAmount",
						"offset": 0,
						"slot": "11",
						"type": "t_uint256"
					}
				],
				"types": {
					"t_address": {
						"encoding": "inplace",
						"label": "address",
						"numberOfBytes": "20"
					},
					"t_array(t_struct(EmissionBatch)94_storage)dyn_storage": {
						"base": "t_struct(EmissionBatch)94_storage",
						"encoding": "dynamic_array",
						"label": "struct CarbonCreditToken.EmissionBatch[]",
						"numberOfBytes": "32"
					},
					"t_bool": {
						"encoding": "inplace",
						"label": "bool",
						"numberOfBytes": "1"
					},
					"t_bytes32": {
						"encoding": "inplace",
						"label": "bytes32",
						"numberOfBytes": "32"
					},
					"t_int256": {
						"encoding": "inplace",
						"label": "int256",
						"numberOfBytes": "32"
					},
					"t_mapping(t_address,t_array(t_struct(EmissionBatch)94_storage)dyn_storage)": {
						"encoding": "mapping",
						"key": "t_address",
						"label": "mapping(address => struct CarbonCreditToken.EmissionBatch[])",
						"numberOfBytes": "32",
						"value": "t_array(t_struct(EmissionBatch)94_storage)dyn_storage"
					},
					"t_mapping(t_address,t_mapping(t_address,t_uint256))": {
						"encoding": "mapping",
						"key": "t_address",
						"label": "mapping(address => mapping(address => uint256))",
						"numberOfBytes": "32",
						"value": "t_mapping(t_address,t_uint256)"
					},
					"t_mapping(t_address,t_uint256)": {
						"encoding": "mapping",
						"key": "t_address",
						"label": "mapping(address => uint256)",
						"numberOfBytes": "32",
						"value": "t_uint256"
					},
					"t_mapping(t_bytes32,t_bool)": {
						"encoding": "mapping",
						"key": "t_bytes32",
						"label": "mapping(bytes32 => bool)",
						"numberOfBytes": "32",
						"value": "t_bool"
					},
					"t_string_storage": {
						"encoding": "bytes",
						"label": "string",
						"numberOfBytes": "32"
					},
					"t_struct(EmissionBatch)94_storage": {
						"encoding": "inplace",
						"label": "struct CarbonCreditToken.EmissionBatch",
						"members": [
							{
								"astId": 77,
								"contract": "backend/contracts/CarbonCreditToken.sol:CarbonCreditToken",
								"label": "startTime",
								"offset": 0,
								"slot": "0",
								"type": "t_uint256"
							},
							{
								"astId": 79,
								"contract": "backend/contracts/CarbonCreditToken.sol:CarbonCreditToken",
								"label": "endTime",
								"offset": 0,
								"slot": "1",
								"type": "t_uint256"
							},
							{
								"astId": 81,
								"contract": "backend/contracts/CarbonCreditToken.sol:CarbonCreditToken",
								"label": "emissionKg",
								"offset": 0,
								"slot": "2",
								"type": "t_uint256"
							},
							{
								"astId": 83,
								"contract": "backend/contracts/CarbonCreditToken.sol:CarbonCreditToken",
								"label": "capKg",
								"offset": 0,
								"slot": "3",
								"type": "t_uint256"
							},
							{
								"astId": 85,
								"contract": "backend/contracts/CarbonCreditToken.sol:CarbonCreditToken",
								"label": "dataHash",
								"offset": 0,
								"slot": "4",
								"type": "t_bytes32"
							},
							{
								"astId": 87,
								"contract": "backend/contracts/CarbonCreditToken.sol:CarbonCreditToken",
								"label": "tokenChange",
								"offset": 0,
								"slot": "5",
								"type": "t_int256"
							},
							{
								"astId": 89,
								"contract": "backend/contracts/CarbonCreditToken.sol:CarbonCreditToken",
								"label": "mintedTokens",
								"offset": 0,
								"slot": "6",
								"type": "t_uint256"
							},
							{
								"astId": 91,
								"contract": "backend/contracts/CarbonCreditToken.sol:CarbonCreditToken",
								"label": "burnedTokens",
								"offset": 0,
								"slot": "7",
								"type": "t_uint256"
							},
							{
								"astId": 93,
								"contract": "backend/contracts/CarbonCreditToken.sol:CarbonCreditToken",
								"label": "batchId",
								"offset": 0,
								"slot": "8",
								"type": "t_bytes32"
							}
						],
						"numberOfBytes": "288"
					},
					"t_uint256": {
						"encoding": "inplace",
						"label": "uint256",
						"numberOfBytes": "32"
					}
				}
			},
			"userdoc": {
				"kind": "user",
				"methods": {
					"adminBurn(address,uint256)": {
						"notice": "owner-only helper to burn tokens from a holder (admin/test tooling)"
					},
					"adminMint(address,uint256)": {
						"notice": "owner-only helper to mint tokens directly (admin/test tooling)"
					}
				},
				"notice": "Owner submits 10-minute emission batches. Caps sourced from CompanyRegistry.         Under-cap → mint credits; over-cap → burn credits (if held).",
				"version": 1
			}
		}
	}
}