{
	"backend/contracts/CompanyRegistry.sol": {
		"CompanyRegistry": {
			"abi": [
				{
					"inputs": [],
					"stateMutability": "nonpayable",
					"type": "constructor"
				},
				{
					"anonymous": false,
					"inputs": [
						{
							"indexed": true,
							"internalType": "bytes32",
							"name": "key",
							"type": "bytes32"
						},
						{
							"indexed": false,
							"internalType": "string",
							"name": "firebaseId",
							"type": "string"
						},
						{
							"indexed": false,
							"internalType": "string",
							"name": "name",
							"type": "string"
						},
						{
							"indexed": false,
							"internalType": "address",
							"name": "wallet",
							"type": "address"
						},
						{
							"indexed": false,
							"internalType": "string",
							"name": "emissionCapText",
							"type": "string"
						},
						{
							"indexed": false,
							"internalType": "uint256",
							"name": "capKgPerWindow",
							"type": "uint256"
						}
					],
					"name": "CompanyRecorded",
					"type": "event"
				},
				{
					"anonymous": false,
					"inputs": [
						{
							"indexed": true,
							"internalType": "bytes32",
							"name": "key",
							"type": "bytes32"
						},
						{
							"indexed": false,
							"internalType": "string",
							"name": "firebaseId",
							"type": "string"
						},
						{
							"indexed": false,
							"internalType": "string",
							"name": "emissionCapText",
							"type": "string"
						},
						{
							"indexed": false,
							"internalType": "uint256",
							"name": "capKgPerWindow",
							"type": "uint256"
						}
					],
					"name": "EmissionCapUpdated",
					"type": "event"
				},
				{
					"anonymous": false,
					"inputs": [
						{
							"indexed": true,
							"internalType": "bytes32",
							"name": "key",
							"type": "bytes32"
						},
						{
							"indexed": false,
							"internalType": "string",
							"name": "firebaseId",
							"type": "string"
						},
						{
							"indexed": true,
							"internalType": "address",
							"name": "wallet",
							"type": "address"
						},
						{
							"indexed": false,
							"internalType": "uint256",
							"name": "amount",
							"type": "uint256"
						}
					],
					"name": "FundingSent",
					"type": "event"
				},
				{
					"anonymous": false,
					"inputs": [
						{
							"indexed": true,
							"internalType": "address",
							"name": "previousOwner",
							"type": "address"
						},
						{
							"indexed": true,
							"internalType": "address",
							"name": "newOwner",
							"type": "address"
						}
					],
					"name": "OwnershipTransferred",
					"type": "event"
				},
				{
					"inputs": [],
					"name": "fundAmountWei",
					"outputs": [
						{
							"internalType": "uint256",
							"name": "",
							"type": "uint256"
						}
					],
					"stateMutability": "view",
					"type": "function"
				},
				{
					"inputs": [
						{
							"internalType": "address",
							"name": "wallet",
							"type": "address"
						}
					],
					"name": "getCapKgByWallet",
					"outputs": [
						{
							"internalType": "uint256",
							"name": "",
							"type": "uint256"
						}
					],
					"stateMutability": "view",
					"type": "function"
				},
				{
					"inputs": [
						{
							"internalType": "string",
							"name": "firebaseId",
							"type": "string"
						}
					],
					"name": "getCompany",
					"outputs": [
						{
							"components": [
								{
									"internalType": "string",
									"name": "firebaseId",
									"type": "string"
								},
								{
									"internalType": "string",
									"name": "name",
									"type": "string"
								},
								{
									"internalType": "address",
									"name": "wallet",
									"type": "address"
								},
								{
									"internalType": "string",
									"name": "emissionCapText",
									"type": "string"
								},
								{
									"internalType": "uint256",
									"name": "capKgPerWindow",
									"type": "uint256"
								},
								{
									"internalType": "uint256",
									"name": "recordedAt",
									"type": "uint256"
								}
							],
							"internalType": "struct CompanyRegistry.Company",
							"name": "",
							"type": "tuple"
						}
					],
					"stateMutability": "view",
					"type": "function"
				},
				{
					"inputs": [
						{
							"internalType": "address",
							"name": "wallet",
							"type": "address"
						}
					],
					"name": "getCompanyByAddress",
					"outputs": [
						{
							"components": [
								{
									"internalType": "string",
									"name": "firebaseId",
									"type": "string"
								},
								{
									"internalType": "string",
									"name": "name",
									"type": "string"
								},
								{
									"internalType": "address",
									"name": "wallet",
									"type": "address"
								},
								{
									"internalType": "string",
									"name": "emissionCapText",
									"type": "string"
								},
								{
									"internalType": "uint256",
									"name": "capKgPerWindow",
									"type": "uint256"
								},
								{
									"internalType": "uint256",
									"name": "recordedAt",
									"type": "uint256"
								}
							],
							"internalType": "struct CompanyRegistry.Company",
							"name": "",
							"type": "tuple"
						}
					],
					"stateMutability": "view",
					"type": "function"
				},
				{
					"inputs": [],
					"name": "owner",
					"outputs": [
						{
							"internalType": "address",
							"name": "",
							"type": "address"
						}
					],
					"stateMutability": "view",
					"type": "function"
				},
				{
					"inputs": [
						{
							"internalType": "string",
							"name": "firebaseId",
							"type": "string"
						},
						{
							"internalType": "string",
							"name": "name",
							"type": "string"
						},
						{
							"internalType": "address",
							"name": "wallet",
							"type": "address"
						},
						{
							"internalType": "string",
							"name": "emissionCapText",
							"type": "string"
						},
						{
							"internalType": "uint256",
							"name": "capKgPerWindow",
							"type": "uint256"
						}
					],
					"name": "recordCompany",
					"outputs": [],
					"stateMutability": "nonpayable",
					"type": "function"
				},
				{
					"inputs": [
						{
							"internalType": "string",
							"name": "firebaseId",
							"type": "string"
						},
						{
							"internalType": "string",
							"name": "name",
							"type": "string"
						},
						{
							"internalType": "address",
							"name": "wallet",
							"type": "address"
						},
						{
							"internalType": "string",
							"name": "emissionCapText",
							"type": "string"
						},
						{
							"internalType": "uint256",
							"name": "capKgPerWindow",
							"type": "uint256"
						}
					],
					"name": "recordCompanyAndFund",
					"outputs": [],
					"stateMutability": "payable",
					"type": "function"
				},
				{
					"inputs": [
						{
							"internalType": "uint256",
							"name": "amount",
							"type": "uint256"
						}
					],
					"name": "setFundAmountWei",
					"outputs": [],
					"stateMutability": "nonpayable",
					"type": "function"
				},
				{
					"inputs": [
						{
							"internalType": "address",
							"name": "newOwner",
							"type": "address"
						}
					],
					"name": "transferOwnership",
					"outputs": [],
					"stateMutability": "nonpayable",
					"type": "function"
				},
				{
					"inputs": [
						{
							"internalType": "string",
							"name": "firebaseId",
							"type": "string"
						},
						{
							"internalType": "string",
							"name": "emissionCapText",
							"type": "string"
						},
						{
							"internalType": "uint256",
							"name": "capKgPerWindow",
							"type": "uint256"
						}
					],
					"name": "updateEmissionCap",
					"outputs": [],
					"stateMutability": "nonpayable",
					"type": "function"
				},
				{
					"stateMutability": "payable",
					"type": "receive"
				}
			],
			"devdoc": {
				"kind": "dev",
				"methods": {},
				"title": "Company Registry for EcoChain",
				"version": 1
			},
			"evm": {
				"assembly": "    /* \"backend/contracts/CompanyRegistry.sol\":208:5609  contract CompanyRegistry {... */\n  mstore(0x40, 0x80)\n    /* \"backend/contracts/CompanyRegistry.sol\":728:737  0.1 ether */\n  0x016345785d8a0000\n    /* \"backend/contracts/CompanyRegistry.sol\":697:737  uint256 public fundAmountWei = 0.1 ether */\n  0x01\n  sstore\n    /* \"backend/contracts/CompanyRegistry.sol\":1399:1507  constructor() {... */\n  callvalue\n  dup1\n  iszero\n  tag_1\n  jumpi\n  revert(0x00, 0x00)\ntag_1:\n  pop\n    /* \"backend/contracts/CompanyRegistry.sol\":1431:1441  msg.sender */\n  caller\n    /* \"backend/contracts/CompanyRegistry.sol\":1423:1428  owner */\n  0x00\n  0x00\n    /* \"backend/contracts/CompanyRegistry.sol\":1423:1441  owner = msg.sender */\n  0x0100\n  exp\n  dup2\n  sload\n  dup2\n  0xffffffffffffffffffffffffffffffffffffffff\n  mul\n  not\n  and\n  swap1\n  dup4\n  0xffffffffffffffffffffffffffffffffffffffff\n  and\n  mul\n  or\n  swap1\n  sstore\n  pop\n    /* \"backend/contracts/CompanyRegistry.sol\":1489:1499  msg.sender */\n  caller\n    /* \"backend/contracts/CompanyRegistry.sol\":1456:1500  OwnershipTransferred(address(0), msg.sender) */\n  0xffffffffffffffffffffffffffffffffffffffff\n  and\n    /* \"backend/contracts/CompanyRegistry.sol\":1485:1486  0 */\n  0x00\n    /* \"backend/contracts/CompanyRegistry.sol\":1456:1500  OwnershipTransferred(address(0), msg.sender) */\n  0xffffffffffffffffffffffffffffffffffffffff\n  and\n  0x8be0079c531659141344cd1fd0a4f28419497f9722a3daafe3b4186f6b6457e0\n  mload(0x40)\n  mload(0x40)\n  dup1\n  swap2\n  sub\n  swap1\n  log3\n    /* \"backend/contracts/CompanyRegistry.sol\":208:5609  contract CompanyRegistry {... */\n  dataSize(sub_0)\n  dup1\n  dataOffset(sub_0)\n  0x00\n  codecopy\n  0x00\n  return\nstop\n\nsub_0: assembly {\n        /* \"backend/contracts/CompanyRegistry.sol\":208:5609  contract CompanyRegistry {... */\n      mstore(0x40, 0x80)\n      jumpi(tag_1, lt(calldatasize, 0x04))\n      shr(0xe0, calldataload(0x00))\n      dup1\n      0xca80a77f\n      gt\n      tag_13\n      jumpi\n      dup1\n      0xca80a77f\n      eq\n      tag_8\n      jumpi\n      dup1\n      0xe7440698\n      eq\n      tag_9\n      jumpi\n      dup1\n      0xeb12e040\n      eq\n      tag_10\n      jumpi\n      dup1\n      0xf117dd5b\n      eq\n      tag_11\n      jumpi\n      dup1\n      0xf2fde38b\n      eq\n      tag_12\n      jumpi\n      jump(tag_2)\n    tag_13:\n      dup1\n      0x0c3dea29\n      eq\n      tag_3\n      jumpi\n      dup1\n      0x1950c45b\n      eq\n      tag_4\n      jumpi\n      dup1\n      0x8da5cb5b\n      eq\n      tag_5\n      jumpi\n      dup1\n      0xad8ee3cb\n      eq\n      tag_6\n      jumpi\n      dup1\n      0xb24a4e52\n      eq\n      tag_7\n      jumpi\n      jump(tag_2)\n    tag_1:\n      jumpi(tag_2, calldatasize)\n      stop\n    tag_2:\n      revert(0x00, 0x00)\n        /* \"backend/contracts/CompanyRegistry.sol\":5339:5607  function getCapKgByWallet(address wallet) external view returns (uint256) {... */\n    tag_3:\n      callvalue\n      dup1\n      iszero\n      tag_16\n      jumpi\n      revert(0x00, 0x00)\n    tag_16:\n      pop\n      tag_17\n      0x04\n      dup1\n      calldatasize\n      sub\n      dup2\n      add\n      swap1\n      tag_18\n      swap2\n      swap1\n      tag_19\n      jump\t// in\n    tag_18:\n      tag_20\n      jump\t// in\n    tag_17:\n      mload(0x40)\n      tag_21\n      swap2\n      swap1\n      tag_22\n      jump\t// in\n    tag_21:\n      mload(0x40)\n      dup1\n      swap2\n      sub\n      swap1\n      return\n        /* \"backend/contracts/CompanyRegistry.sol\":2519:2820  function recordCompany(... */\n    tag_4:\n      callvalue\n      dup1\n      iszero\n      tag_23\n      jumpi\n      revert(0x00, 0x00)\n    tag_23:\n      pop\n      tag_24\n      0x04\n      dup1\n      calldatasize\n      sub\n      dup2\n      add\n      swap1\n      tag_25\n      swap2\n      swap1\n      tag_26\n      jump\t// in\n    tag_25:\n      tag_27\n      jump\t// in\n    tag_24:\n      stop\n        /* \"backend/contracts/CompanyRegistry.sol\":671:691  address public owner */\n    tag_5:\n      callvalue\n      dup1\n      iszero\n      tag_28\n      jumpi\n      revert(0x00, 0x00)\n    tag_28:\n      pop\n      tag_29\n      tag_30\n      jump\t// in\n    tag_29:\n      mload(0x40)\n      tag_31\n      swap2\n      swap1\n      tag_32\n      jump\t// in\n    tag_31:\n      mload(0x40)\n      dup1\n      swap2\n      sub\n      swap1\n      return\n        /* \"backend/contracts/CompanyRegistry.sol\":1758:1858  function setFundAmountWei(uint256 amount) external onlyOwner {... */\n    tag_6:\n      callvalue\n      dup1\n      iszero\n      tag_33\n      jumpi\n      revert(0x00, 0x00)\n    tag_33:\n      pop\n      tag_34\n      0x04\n      dup1\n      calldatasize\n      sub\n      dup2\n      add\n      swap1\n      tag_35\n      swap2\n      swap1\n      tag_36\n      jump\t// in\n    tag_35:\n      tag_37\n      jump\t// in\n    tag_34:\n      stop\n        /* \"backend/contracts/CompanyRegistry.sol\":4789:5064  function getCompany(string calldata firebaseId) external view returns (Company memory) {... */\n    tag_7:\n      callvalue\n      dup1\n      iszero\n      tag_38\n      jumpi\n      revert(0x00, 0x00)\n    tag_38:\n      pop\n      tag_39\n      0x04\n      dup1\n      calldatasize\n      sub\n      dup2\n      add\n      swap1\n      tag_40\n      swap2\n      swap1\n      tag_41\n      jump\t// in\n    tag_40:\n      tag_42\n      jump\t// in\n    tag_39:\n      mload(0x40)\n      tag_43\n      swap2\n      swap1\n      tag_44\n      jump\t// in\n    tag_43:\n      mload(0x40)\n      dup1\n      swap2\n      sub\n      swap1\n      return\n        /* \"backend/contracts/CompanyRegistry.sol\":697:737  uint256 public fundAmountWei = 0.1 ether */\n    tag_8:\n      callvalue\n      dup1\n      iszero\n      tag_45\n      jumpi\n      revert(0x00, 0x00)\n    tag_45:\n      pop\n      tag_46\n      tag_47\n      jump\t// in\n    tag_46:\n      mload(0x40)\n      tag_48\n      swap2\n      swap1\n      tag_22\n      jump\t// in\n    tag_48:\n      mload(0x40)\n      dup1\n      swap2\n      sub\n      swap1\n      return\n        /* \"backend/contracts/CompanyRegistry.sol\":1985:2444  function recordCompanyAndFund(... */\n    tag_9:\n      tag_49\n      0x04\n      dup1\n      calldatasize\n      sub\n      dup2\n      add\n      swap1\n      tag_50\n      swap2\n      swap1\n      tag_26\n      jump\t// in\n    tag_50:\n      tag_51\n      jump\t// in\n    tag_49:\n      stop\n        /* \"backend/contracts/CompanyRegistry.sol\":4045:4721  function updateEmissionCap(... */\n    tag_10:\n      callvalue\n      dup1\n      iszero\n      tag_52\n      jumpi\n      revert(0x00, 0x00)\n    tag_52:\n      pop\n      tag_53\n      0x04\n      dup1\n      calldatasize\n      sub\n      dup2\n      add\n      swap1\n      tag_54\n      swap2\n      swap1\n      tag_55\n      jump\t// in\n    tag_54:\n      tag_56\n      jump\t// in\n    tag_53:\n      stop\n        /* \"backend/contracts/CompanyRegistry.sol\":5070:5333  function getCompanyByAddress(address wallet) external view returns (Company memory) {... */\n    tag_11:\n      callvalue\n      dup1\n      iszero\n      tag_57\n      jumpi\n      revert(0x00, 0x00)\n    tag_57:\n      pop\n      tag_58\n      0x04\n      dup1\n      calldatasize\n      sub\n      dup2\n      add\n      swap1\n      tag_59\n      swap2\n      swap1\n      tag_19\n      jump\t// in\n    tag_59:\n      tag_60\n      jump\t// in\n    tag_58:\n      mload(0x40)\n      tag_61\n      swap2\n      swap1\n      tag_44\n      jump\t// in\n    tag_61:\n      mload(0x40)\n      dup1\n      swap2\n      sub\n      swap1\n      return\n        /* \"backend/contracts/CompanyRegistry.sol\":1513:1717  function transferOwnership(address newOwner) external onlyOwner {... */\n    tag_12:\n      callvalue\n      dup1\n      iszero\n      tag_62\n      jumpi\n      revert(0x00, 0x00)\n    tag_62:\n      pop\n      tag_63\n      0x04\n      dup1\n      calldatasize\n      sub\n      dup2\n      add\n      swap1\n      tag_64\n      swap2\n      swap1\n      tag_19\n      jump\t// in\n    tag_64:\n      tag_65\n      jump\t// in\n    tag_63:\n      stop\n        /* \"backend/contracts/CompanyRegistry.sol\":5339:5607  function getCapKgByWallet(address wallet) external view returns (uint256) {... */\n    tag_20:\n        /* \"backend/contracts/CompanyRegistry.sol\":5404:5411  uint256 */\n      0x00\n        /* \"backend/contracts/CompanyRegistry.sol\":5423:5434  bytes32 key */\n      0x00\n        /* \"backend/contracts/CompanyRegistry.sol\":5437:5448  walletToKey */\n      0x03\n        /* \"backend/contracts/CompanyRegistry.sol\":5437:5456  walletToKey[wallet] */\n      0x00\n        /* \"backend/contracts/CompanyRegistry.sol\":5449:5455  wallet */\n      dup5\n        /* \"backend/contracts/CompanyRegistry.sol\":5437:5456  walletToKey[wallet] */\n      0xffffffffffffffffffffffffffffffffffffffff\n      and\n      0xffffffffffffffffffffffffffffffffffffffff\n      and\n      dup2\n      mstore\n      0x20\n      add\n      swap1\n      dup2\n      mstore\n      0x20\n      add\n      0x00\n      keccak256\n      sload\n        /* \"backend/contracts/CompanyRegistry.sol\":5423:5456  bytes32 key = walletToKey[wallet] */\n      swap1\n      pop\n        /* \"backend/contracts/CompanyRegistry.sol\":5466:5482  Company memory c */\n      0x00\n        /* \"backend/contracts/CompanyRegistry.sol\":5485:5494  companies */\n      0x02\n        /* \"backend/contracts/CompanyRegistry.sol\":5485:5499  companies[key] */\n      0x00\n        /* \"backend/contracts/CompanyRegistry.sol\":5495:5498  key */\n      dup4\n        /* \"backend/contracts/CompanyRegistry.sol\":5485:5499  companies[key] */\n      dup2\n      mstore\n      0x20\n      add\n      swap1\n      dup2\n      mstore\n      0x20\n      add\n      0x00\n      keccak256\n        /* \"backend/contracts/CompanyRegistry.sol\":5466:5499  Company memory c = companies[key] */\n      mload(0x40)\n      dup1\n      0xc0\n      add\n      0x40\n      mstore\n      swap1\n      dup2\n      0x00\n      dup3\n      add\n      dup1\n      sload\n      tag_67\n      swap1\n      tag_68\n      jump\t// in\n    tag_67:\n      dup1\n      0x1f\n      add\n      0x20\n      dup1\n      swap2\n      div\n      mul\n      0x20\n      add\n      mload(0x40)\n      swap1\n      dup2\n      add\n      0x40\n      mstore\n      dup1\n      swap3\n      swap2\n      swap1\n      dup2\n      dup2\n      mstore\n      0x20\n      add\n      dup3\n      dup1\n      sload\n      tag_69\n      swap1\n      tag_68\n      jump\t// in\n    tag_69:\n      dup1\n      iszero\n      tag_70\n      jumpi\n      dup1\n      0x1f\n      lt\n      tag_71\n      jumpi\n      0x0100\n      dup1\n      dup4\n      sload\n      div\n      mul\n      dup4\n      mstore\n      swap2\n      0x20\n      add\n      swap2\n      jump(tag_70)\n    tag_71:\n      dup3\n      add\n      swap2\n      swap1\n      0x00\n      mstore\n      keccak256(0x00, 0x20)\n      swap1\n    tag_72:\n      dup2\n      sload\n      dup2\n      mstore\n      swap1\n      0x01\n      add\n      swap1\n      0x20\n      add\n      dup1\n      dup4\n      gt\n      tag_72\n      jumpi\n      dup3\n      swap1\n      sub\n      0x1f\n      and\n      dup3\n      add\n      swap2\n    tag_70:\n      pop\n      pop\n      pop\n      pop\n      pop\n      dup2\n      mstore\n      0x20\n      add\n      0x01\n      dup3\n      add\n      dup1\n      sload\n      tag_73\n      swap1\n      tag_68\n      jump\t// in\n    tag_73:\n      dup1\n      0x1f\n      add\n      0x20\n      dup1\n      swap2\n      div\n      mul\n      0x20\n      add\n      mload(0x40)\n      swap1\n      dup2\n      add\n      0x40\n      mstore\n      dup1\n      swap3\n      swap2\n      swap1\n      dup2\n      dup2\n      mstore\n      0x20\n      add\n      dup3\n      dup1\n      sload\n      tag_74\n      swap1\n      tag_68\n      jump\t// in\n    tag_74:\n      dup1\n      iszero\n      tag_75\n      jumpi\n      dup1\n      0x1f\n      lt\n      tag_76\n      jumpi\n      0x0100\n      dup1\n      dup4\n      sload\n      div\n      mul\n      dup4\n      mstore\n      swap2\n      0x20\n      add\n      swap2\n      jump(tag_75)\n    tag_76:\n      dup3\n      add\n      swap2\n      swap1\n      0x00\n      mstore\n      keccak256(0x00, 0x20)\n      swap1\n    tag_77:\n      dup2\n      sload\n      dup2\n      mstore\n      swap1\n      0x01\n      add\n      swap1\n      0x20\n      add\n      dup1\n      dup4\n      gt\n      tag_77\n      jumpi\n      dup3\n      swap1\n      sub\n      0x1f\n      and\n      dup3\n      add\n      swap2\n    tag_75:\n      pop\n      pop\n      pop\n      pop\n      pop\n      dup2\n      mstore\n      0x20\n      add\n      0x02\n      dup3\n      add\n      0x00\n      swap1\n      sload\n      swap1\n      0x0100\n      exp\n      swap1\n      div\n      0xffffffffffffffffffffffffffffffffffffffff\n      and\n      0xffffffffffffffffffffffffffffffffffffffff\n      and\n      0xffffffffffffffffffffffffffffffffffffffff\n      and\n      dup2\n      mstore\n      0x20\n      add\n      0x03\n      dup3\n      add\n      dup1\n      sload\n      tag_78\n      swap1\n      tag_68\n      jump\t// in\n    tag_78:\n      dup1\n      0x1f\n      add\n      0x20\n      dup1\n      swap2\n      div\n      mul\n      0x20\n      add\n      mload(0x40)\n      swap1\n      dup2\n      add\n      0x40\n      mstore\n      dup1\n      swap3\n      swap2\n      swap1\n      dup2\n      dup2\n      mstore\n      0x20\n      add\n      dup3\n      dup1\n      sload\n      tag_79\n      swap1\n      tag_68\n      jump\t// in\n    tag_79:\n      dup1\n      iszero\n      tag_80\n      jumpi\n      dup1\n      0x1f\n      lt\n      tag_81\n      jumpi\n      0x0100\n      dup1\n      dup4\n      sload\n      div\n      mul\n      dup4\n      mstore\n      swap2\n      0x20\n      add\n      swap2\n      jump(tag_80)\n    tag_81:\n      dup3\n      add\n      swap2\n      swap1\n      0x00\n      mstore\n      keccak256(0x00, 0x20)\n      swap1\n    tag_82:\n      dup2\n      sload\n      dup2\n      mstore\n      swap1\n      0x01\n      add\n      swap1\n      0x20\n      add\n      dup1\n      dup4\n      gt\n      tag_82\n      jumpi\n      dup3\n      swap1\n      sub\n      0x1f\n      and\n      dup3\n      add\n      swap2\n    tag_80:\n      pop\n      pop\n      pop\n      pop\n      pop\n      dup2\n      mstore\n      0x20\n      add\n      0x04\n      dup3\n      add\n      sload\n      dup2\n      mstore\n      0x20\n      add\n      0x05\n      dup3\n      add\n      sload\n      dup2\n      mstore\n      pop\n      pop\n      swap1\n      pop\n        /* \"backend/contracts/CompanyRegistry.sol\":5546:5547  0 */\n      0x00\n        /* \"backend/contracts/CompanyRegistry.sol\":5523:5524  c */\n      dup2\n        /* \"backend/contracts/CompanyRegistry.sol\":5523:5535  c.firebaseId */\n      0x00\n      add\n      mload\n        /* \"backend/contracts/CompanyRegistry.sol\":5517:5543  bytes(c.firebaseId).length */\n      mload\n        /* \"backend/contracts/CompanyRegistry.sol\":5517:5547  bytes(c.firebaseId).length > 0 */\n      gt\n        /* \"backend/contracts/CompanyRegistry.sol\":5509:5567  require(bytes(c.firebaseId).length > 0, \"company missing\") */\n      tag_83\n      jumpi\n      mload(0x40)\n      0x08c379a000000000000000000000000000000000000000000000000000000000\n      dup2\n      mstore\n      0x04\n      add\n      tag_84\n      swap1\n      tag_85\n      jump\t// in\n    tag_84:\n      mload(0x40)\n      dup1\n      swap2\n      sub\n      swap1\n      revert\n    tag_83:\n        /* \"backend/contracts/CompanyRegistry.sol\":5584:5585  c */\n      dup1\n        /* \"backend/contracts/CompanyRegistry.sol\":5584:5600  c.capKgPerWindow */\n      0x80\n      add\n      mload\n        /* \"backend/contracts/CompanyRegistry.sol\":5577:5600  return c.capKgPerWindow */\n      swap3\n      pop\n      pop\n      pop\n        /* \"backend/contracts/CompanyRegistry.sol\":5339:5607  function getCapKgByWallet(address wallet) external view returns (uint256) {... */\n      swap2\n      swap1\n      pop\n      jump\t// out\n        /* \"backend/contracts/CompanyRegistry.sol\":2519:2820  function recordCompany(... */\n    tag_27:\n        /* \"backend/contracts/CompanyRegistry.sol\":1356:1361  owner */\n      0x00\n      0x00\n      swap1\n      sload\n      swap1\n      0x0100\n      exp\n      swap1\n      div\n      0xffffffffffffffffffffffffffffffffffffffff\n      and\n        /* \"backend/contracts/CompanyRegistry.sol\":1342:1361  msg.sender == owner */\n      0xffffffffffffffffffffffffffffffffffffffff\n      and\n        /* \"backend/contracts/CompanyRegistry.sol\":1342:1352  msg.sender */\n      caller\n        /* \"backend/contracts/CompanyRegistry.sol\":1342:1361  msg.sender == owner */\n      0xffffffffffffffffffffffffffffffffffffffff\n      and\n      eq\n        /* \"backend/contracts/CompanyRegistry.sol\":1334:1375  require(msg.sender == owner, \"Not owner\") */\n      tag_87\n      jumpi\n      mload(0x40)\n      0x08c379a000000000000000000000000000000000000000000000000000000000\n      dup2\n      mstore\n      0x04\n      add\n      tag_88\n      swap1\n      tag_89\n      jump\t// in\n    tag_88:\n      mload(0x40)\n      dup1\n      swap2\n      sub\n      swap1\n      revert\n    tag_87:\n        /* \"backend/contracts/CompanyRegistry.sol\":2740:2813  _recordCompany(firebaseId, name, wallet, emissionCapText, capKgPerWindow) */\n      tag_91\n        /* \"backend/contracts/CompanyRegistry.sol\":2755:2765  firebaseId */\n      dup9\n      dup9\n        /* \"backend/contracts/CompanyRegistry.sol\":2767:2771  name */\n      dup9\n      dup9\n        /* \"backend/contracts/CompanyRegistry.sol\":2773:2779  wallet */\n      dup9\n        /* \"backend/contracts/CompanyRegistry.sol\":2781:2796  emissionCapText */\n      dup9\n      dup9\n        /* \"backend/contracts/CompanyRegistry.sol\":2798:2812  capKgPerWindow */\n      dup9\n        /* \"backend/contracts/CompanyRegistry.sol\":2740:2754  _recordCompany */\n      tag_92\n        /* \"backend/contracts/CompanyRegistry.sol\":2740:2813  _recordCompany(firebaseId, name, wallet, emissionCapText, capKgPerWindow) */\n      jump\t// in\n    tag_91:\n      pop\n        /* \"backend/contracts/CompanyRegistry.sol\":2519:2820  function recordCompany(... */\n      pop\n      pop\n      pop\n      pop\n      pop\n      pop\n      pop\n      pop\n      jump\t// out\n        /* \"backend/contracts/CompanyRegistry.sol\":671:691  address public owner */\n    tag_30:\n      0x00\n      0x00\n      swap1\n      sload\n      swap1\n      0x0100\n      exp\n      swap1\n      div\n      0xffffffffffffffffffffffffffffffffffffffff\n      and\n      dup2\n      jump\t// out\n        /* \"backend/contracts/CompanyRegistry.sol\":1758:1858  function setFundAmountWei(uint256 amount) external onlyOwner {... */\n    tag_37:\n        /* \"backend/contracts/CompanyRegistry.sol\":1356:1361  owner */\n      0x00\n      0x00\n      swap1\n      sload\n      swap1\n      0x0100\n      exp\n      swap1\n      div\n      0xffffffffffffffffffffffffffffffffffffffff\n      and\n        /* \"backend/contracts/CompanyRegistry.sol\":1342:1361  msg.sender == owner */\n      0xffffffffffffffffffffffffffffffffffffffff\n      and\n        /* \"backend/contracts/CompanyRegistry.sol\":1342:1352  msg.sender */\n      caller\n        /* \"backend/contracts/CompanyRegistry.sol\":1342:1361  msg.sender == owner */\n      0xffffffffffffffffffffffffffffffffffffffff\n      and\n      eq\n        /* \"backend/contracts/CompanyRegistry.sol\":1334:1375  require(msg.sender == owner, \"Not owner\") */\n      tag_94\n      jumpi\n      mload(0x40)\n      0x08c379a000000000000000000000000000000000000000000000000000000000\n      dup2\n      mstore\n      0x04\n      add\n      tag_95\n      swap1\n      tag_89\n      jump\t// in\n    tag_95:\n      mload(0x40)\n      dup1\n      swap2\n      sub\n      swap1\n      revert\n    tag_94:\n        /* \"backend/contracts/CompanyRegistry.sol\":1845:1851  amount */\n      dup1\n        /* \"backend/contracts/CompanyRegistry.sol\":1829:1842  fundAmountWei */\n      0x01\n        /* \"backend/contracts/CompanyRegistry.sol\":1829:1851  fundAmountWei = amount */\n      dup2\n      swap1\n      sstore\n      pop\n        /* \"backend/contracts/CompanyRegistry.sol\":1758:1858  function setFundAmountWei(uint256 amount) external onlyOwner {... */\n      pop\n      jump\t// out\n        /* \"backend/contracts/CompanyRegistry.sol\":4789:5064  function getCompany(string calldata firebaseId) external view returns (Company memory) {... */\n    tag_42:\n        /* \"backend/contracts/CompanyRegistry.sol\":4860:4874  Company memory */\n      tag_97\n      tag_98\n      jump\t// in\n    tag_97:\n        /* \"backend/contracts/CompanyRegistry.sol\":4886:4897  bytes32 key */\n      0x00\n        /* \"backend/contracts/CompanyRegistry.sol\":4916:4926  firebaseId */\n      dup4\n      dup4\n        /* \"backend/contracts/CompanyRegistry.sol\":4900:4928  keccak256(bytes(firebaseId)) */\n      mload(0x40)\n      tag_100\n      swap3\n      swap2\n      swap1\n      tag_101\n      jump\t// in\n    tag_100:\n      mload(0x40)\n      dup1\n      swap2\n      sub\n      swap1\n      keccak256\n        /* \"backend/contracts/CompanyRegistry.sol\":4886:4928  bytes32 key = keccak256(bytes(firebaseId)) */\n      swap1\n      pop\n        /* \"backend/contracts/CompanyRegistry.sol\":4938:4954  Company memory c */\n      0x00\n        /* \"backend/contracts/CompanyRegistry.sol\":4957:4966  companies */\n      0x02\n        /* \"backend/contracts/CompanyRegistry.sol\":4957:4971  companies[key] */\n      0x00\n        /* \"backend/contracts/CompanyRegistry.sol\":4967:4970  key */\n      dup4\n        /* \"backend/contracts/CompanyRegistry.sol\":4957:4971  companies[key] */\n      dup2\n      mstore\n      0x20\n      add\n      swap1\n      dup2\n      mstore\n      0x20\n      add\n      0x00\n      keccak256\n        /* \"backend/contracts/CompanyRegistry.sol\":4938:4971  Company memory c = companies[key] */\n      mload(0x40)\n      dup1\n      0xc0\n      add\n      0x40\n      mstore\n      swap1\n      dup2\n      0x00\n      dup3\n      add\n      dup1\n      sload\n      tag_102\n      swap1\n      tag_68\n      jump\t// in\n    tag_102:\n      dup1\n      0x1f\n      add\n      0x20\n      dup1\n      swap2\n      div\n      mul\n      0x20\n      add\n      mload(0x40)\n      swap1\n      dup2\n      add\n      0x40\n      mstore\n      dup1\n      swap3\n      swap2\n      swap1\n      dup2\n      dup2\n      mstore\n      0x20\n      add\n      dup3\n      dup1\n      sload\n      tag_103\n      swap1\n      tag_68\n      jump\t// in\n    tag_103:\n      dup1\n      iszero\n      tag_104\n      jumpi\n      dup1\n      0x1f\n      lt\n      tag_105\n      jumpi\n      0x0100\n      dup1\n      dup4\n      sload\n      div\n      mul\n      dup4\n      mstore\n      swap2\n      0x20\n      add\n      swap2\n      jump(tag_104)\n    tag_105:\n      dup3\n      add\n      swap2\n      swap1\n      0x00\n      mstore\n      keccak256(0x00, 0x20)\n      swap1\n    tag_106:\n      dup2\n      sload\n      dup2\n      mstore\n      swap1\n      0x01\n      add\n      swap1\n      0x20\n      add\n      dup1\n      dup4\n      gt\n      tag_106\n      jumpi\n      dup3\n      swap1\n      sub\n      0x1f\n      and\n      dup3\n      add\n      swap2\n    tag_104:\n      pop\n      pop\n      pop\n      pop\n      pop\n      dup2\n      mstore\n      0x20\n      add\n      0x01\n      dup3\n      add\n      dup1\n      sload\n      tag_107\n      swap1\n      tag_68\n      jump\t// in\n    tag_107:\n      dup1\n      0x1f\n      add\n      0x20\n      dup1\n      swap2\n      div\n      mul\n      0x20\n      add\n      mload(0x40)\n      swap1\n      dup2\n      add\n      0x40\n      mstore\n      dup1\n      swap3\n      swap2\n      swap1\n      dup2\n      dup2\n      mstore\n      0x20\n      add\n      dup3\n      dup1\n      sload\n      tag_108\n      swap1\n      tag_68\n      jump\t// in\n    tag_108:\n      dup1\n      iszero\n      tag_109\n      jumpi\n      dup1\n      0x1f\n      lt\n      tag_110\n      jumpi\n      0x0100\n      dup1\n      dup4\n      sload\n      div\n      mul\n      dup4\n      mstore\n      swap2\n      0x20\n      add\n      swap2\n      jump(tag_109)\n    tag_110:\n      dup3\n      add\n      swap2\n      swap1\n      0x00\n      mstore\n      keccak256(0x00, 0x20)\n      swap1\n    tag_111:\n      dup2\n      sload\n      dup2\n      mstore\n      swap1\n      0x01\n      add\n      swap1\n      0x20\n      add\n      dup1\n      dup4\n      gt\n      tag_111\n      jumpi\n      dup3\n      swap1\n      sub\n      0x1f\n      and\n      dup3\n      add\n      swap2\n    tag_109:\n      pop\n      pop\n      pop\n      pop\n      pop\n      dup2\n      mstore\n      0x20\n      add\n      0x02\n      dup3\n      add\n      0x00\n      swap1\n      sload\n      swap1\n      0x0100\n      exp\n      swap1\n      div\n      0xffffffffffffffffffffffffffffffffffffffff\n      and\n      0xffffffffffffffffffffffffffffffffffffffff\n      and\n      0xffffffffffffffffffffffffffffffffffffffff\n      and\n      dup2\n      mstore\n      0x20\n      add\n      0x03\n      dup3\n      add\n      dup1\n      sload\n      tag_112\n      swap1\n      tag_68\n      jump\t// in\n    tag_112:\n      dup1\n      0x1f\n      add\n      0x20\n      dup1\n      swap2\n      div\n      mul\n      0x20\n      add\n      mload(0x40)\n      swap1\n      dup2\n      add\n      0x40\n      mstore\n      dup1\n      swap3\n      swap2\n      swap1\n      dup2\n      dup2\n      mstore\n      0x20\n      add\n      dup3\n      dup1\n      sload\n      tag_113\n      swap1\n      tag_68\n      jump\t// in\n    tag_113:\n      dup1\n      iszero\n      tag_114\n      jumpi\n      dup1\n      0x1f\n      lt\n      tag_115\n      jumpi\n      0x0100\n      dup1\n      dup4\n      sload\n      div\n      mul\n      dup4\n      mstore\n      swap2\n      0x20\n      add\n      swap2\n      jump(tag_114)\n    tag_115:\n      dup3\n      add\n      swap2\n      swap1\n      0x00\n      mstore\n      keccak256(0x00, 0x20)\n      swap1\n    tag_116:\n      dup2\n      sload\n      dup2\n      mstore\n      swap1\n      0x01\n      add\n      swap1\n      0x20\n      add\n      dup1\n      dup4\n      gt\n      tag_116\n      jumpi\n      dup3\n      swap1\n      sub\n      0x1f\n      and\n      dup3\n      add\n      swap2\n    tag_114:\n      pop\n      pop\n      pop\n      pop\n      pop\n      dup2\n      mstore\n      0x20\n      add\n      0x04\n      dup3\n      add\n      sload\n      dup2\n      mstore\n      0x20\n      add\n      0x05\n      dup3\n      add\n      sload\n      dup2\n      mstore\n      pop\n      pop\n      swap1\n      pop\n        /* \"backend/contracts/CompanyRegistry.sol\":5018:5019  0 */\n      0x00\n        /* \"backend/contracts/CompanyRegistry.sol\":4995:4996  c */\n      dup2\n        /* \"backend/contracts/CompanyRegistry.sol\":4995:5007  c.firebaseId */\n      0x00\n      add\n      mload\n        /* \"backend/contracts/CompanyRegistry.sol\":4989:5015  bytes(c.firebaseId).length */\n      mload\n        /* \"backend/contracts/CompanyRegistry.sol\":4989:5019  bytes(c.firebaseId).length > 0 */\n      gt\n        /* \"backend/contracts/CompanyRegistry.sol\":4981:5039  require(bytes(c.firebaseId).length > 0, \"company missing\") */\n      tag_117\n      jumpi\n      mload(0x40)\n      0x08c379a000000000000000000000000000000000000000000000000000000000\n      dup2\n      mstore\n      0x04\n      add\n      tag_118\n      swap1\n      tag_85\n      jump\t// in\n    tag_118:\n      mload(0x40)\n      dup1\n      swap2\n      sub\n      swap1\n      revert\n    tag_117:\n        /* \"backend/contracts/CompanyRegistry.sol\":5056:5057  c */\n      dup1\n        /* \"backend/contracts/CompanyRegistry.sol\":5049:5057  return c */\n      swap3\n      pop\n      pop\n      pop\n        /* \"backend/contracts/CompanyRegistry.sol\":4789:5064  function getCompany(string calldata firebaseId) external view returns (Company memory) {... */\n      swap3\n      swap2\n      pop\n      pop\n      jump\t// out\n        /* \"backend/contracts/CompanyRegistry.sol\":697:737  uint256 public fundAmountWei = 0.1 ether */\n    tag_47:\n      sload(0x01)\n      dup2\n      jump\t// out\n        /* \"backend/contracts/CompanyRegistry.sol\":1985:2444  function recordCompanyAndFund(... */\n    tag_51:\n        /* \"backend/contracts/CompanyRegistry.sol\":1356:1361  owner */\n      0x00\n      0x00\n      swap1\n      sload\n      swap1\n      0x0100\n      exp\n      swap1\n      div\n      0xffffffffffffffffffffffffffffffffffffffff\n      and\n        /* \"backend/contracts/CompanyRegistry.sol\":1342:1361  msg.sender == owner */\n      0xffffffffffffffffffffffffffffffffffffffff\n      and\n        /* \"backend/contracts/CompanyRegistry.sol\":1342:1352  msg.sender */\n      caller\n        /* \"backend/contracts/CompanyRegistry.sol\":1342:1361  msg.sender == owner */\n      0xffffffffffffffffffffffffffffffffffffffff\n      and\n      eq\n        /* \"backend/contracts/CompanyRegistry.sol\":1334:1375  require(msg.sender == owner, \"Not owner\") */\n      tag_120\n      jumpi\n      mload(0x40)\n      0x08c379a000000000000000000000000000000000000000000000000000000000\n      dup2\n      mstore\n      0x04\n      add\n      tag_121\n      swap1\n      tag_89\n      jump\t// in\n    tag_121:\n      mload(0x40)\n      dup1\n      swap2\n      sub\n      swap1\n      revert\n    tag_120:\n        /* \"backend/contracts/CompanyRegistry.sol\":2242:2255  fundAmountWei */\n      sload(0x01)\n        /* \"backend/contracts/CompanyRegistry.sol\":2229:2238  msg.value */\n      callvalue\n        /* \"backend/contracts/CompanyRegistry.sol\":2229:2255  msg.value >= fundAmountWei */\n      lt\n      iszero\n        /* \"backend/contracts/CompanyRegistry.sol\":2221:2282  require(msg.value >= fundAmountWei, \"insufficient msg.value\") */\n      tag_123\n      jumpi\n      mload(0x40)\n      0x08c379a000000000000000000000000000000000000000000000000000000000\n      dup2\n      mstore\n      0x04\n      add\n      tag_124\n      swap1\n      tag_125\n      jump\t// in\n    tag_124:\n      mload(0x40)\n      dup1\n      swap2\n      sub\n      swap1\n      revert\n    tag_123:\n        /* \"backend/contracts/CompanyRegistry.sol\":2292:2303  bytes32 key */\n      0x00\n        /* \"backend/contracts/CompanyRegistry.sol\":2306:2379  _recordCompany(firebaseId, name, wallet, emissionCapText, capKgPerWindow) */\n      tag_126\n        /* \"backend/contracts/CompanyRegistry.sol\":2321:2331  firebaseId */\n      dup10\n      dup10\n        /* \"backend/contracts/CompanyRegistry.sol\":2333:2337  name */\n      dup10\n      dup10\n        /* \"backend/contracts/CompanyRegistry.sol\":2339:2345  wallet */\n      dup10\n        /* \"backend/contracts/CompanyRegistry.sol\":2347:2362  emissionCapText */\n      dup10\n      dup10\n        /* \"backend/contracts/CompanyRegistry.sol\":2364:2378  capKgPerWindow */\n      dup10\n        /* \"backend/contracts/CompanyRegistry.sol\":2306:2320  _recordCompany */\n      tag_92\n        /* \"backend/contracts/CompanyRegistry.sol\":2306:2379  _recordCompany(firebaseId, name, wallet, emissionCapText, capKgPerWindow) */\n      jump\t// in\n    tag_126:\n        /* \"backend/contracts/CompanyRegistry.sol\":2292:2379  bytes32 key = _recordCompany(firebaseId, name, wallet, emissionCapText, capKgPerWindow) */\n      swap1\n      pop\n        /* \"backend/contracts/CompanyRegistry.sol\":2389:2437  _sendFunding(key, firebaseId, wallet, msg.value) */\n      tag_127\n        /* \"backend/contracts/CompanyRegistry.sol\":2402:2405  key */\n      dup2\n        /* \"backend/contracts/CompanyRegistry.sol\":2407:2417  firebaseId */\n      dup11\n      dup11\n        /* \"backend/contracts/CompanyRegistry.sol\":2419:2425  wallet */\n      dup9\n        /* \"backend/contracts/CompanyRegistry.sol\":2427:2436  msg.value */\n      callvalue\n        /* \"backend/contracts/CompanyRegistry.sol\":2389:2401  _sendFunding */\n      tag_128\n        /* \"backend/contracts/CompanyRegistry.sol\":2389:2437  _sendFunding(key, firebaseId, wallet, msg.value) */\n      jump\t// in\n    tag_127:\n        /* \"backend/contracts/CompanyRegistry.sol\":2211:2444  {... */\n      pop\n        /* \"backend/contracts/CompanyRegistry.sol\":1985:2444  function recordCompanyAndFund(... */\n      pop\n      pop\n      pop\n      pop\n      pop\n      pop\n      pop\n      pop\n      jump\t// out\n        /* \"backend/contracts/CompanyRegistry.sol\":4045:4721  function updateEmissionCap(... */\n    tag_56:\n        /* \"backend/contracts/CompanyRegistry.sol\":1356:1361  owner */\n      0x00\n      0x00\n      swap1\n      sload\n      swap1\n      0x0100\n      exp\n      swap1\n      div\n      0xffffffffffffffffffffffffffffffffffffffff\n      and\n        /* \"backend/contracts/CompanyRegistry.sol\":1342:1361  msg.sender == owner */\n      0xffffffffffffffffffffffffffffffffffffffff\n      and\n        /* \"backend/contracts/CompanyRegistry.sol\":1342:1352  msg.sender */\n      caller\n        /* \"backend/contracts/CompanyRegistry.sol\":1342:1361  msg.sender == owner */\n      0xffffffffffffffffffffffffffffffffffffffff\n      and\n      eq\n        /* \"backend/contracts/CompanyRegistry.sol\":1334:1375  require(msg.sender == owner, \"Not owner\") */\n      tag_130\n      jumpi\n      mload(0x40)\n      0x08c379a000000000000000000000000000000000000000000000000000000000\n      dup2\n      mstore\n      0x04\n      add\n      tag_131\n      swap1\n      tag_89\n      jump\t// in\n    tag_131:\n      mload(0x40)\n      dup1\n      swap2\n      sub\n      swap1\n      revert\n    tag_130:\n        /* \"backend/contracts/CompanyRegistry.sol\":4251:4252  0 */\n      0x00\n        /* \"backend/contracts/CompanyRegistry.sol\":4230:4240  firebaseId */\n      dup6\n      dup6\n        /* \"backend/contracts/CompanyRegistry.sol\":4224:4248  bytes(firebaseId).length */\n      swap1\n      pop\n        /* \"backend/contracts/CompanyRegistry.sol\":4224:4252  bytes(firebaseId).length > 0 */\n      gt\n        /* \"backend/contracts/CompanyRegistry.sol\":4216:4276  require(bytes(firebaseId).length > 0, \"firebaseId required\") */\n      tag_133\n      jumpi\n      mload(0x40)\n      0x08c379a000000000000000000000000000000000000000000000000000000000\n      dup2\n      mstore\n      0x04\n      add\n      tag_134\n      swap1\n      tag_135\n      jump\t// in\n    tag_134:\n      mload(0x40)\n      dup1\n      swap2\n      sub\n      swap1\n      revert\n    tag_133:\n        /* \"backend/contracts/CompanyRegistry.sol\":4286:4297  bytes32 key */\n      0x00\n        /* \"backend/contracts/CompanyRegistry.sol\":4316:4326  firebaseId */\n      dup6\n      dup6\n        /* \"backend/contracts/CompanyRegistry.sol\":4300:4328  keccak256(bytes(firebaseId)) */\n      mload(0x40)\n      tag_136\n      swap3\n      swap2\n      swap1\n      tag_101\n      jump\t// in\n    tag_136:\n      mload(0x40)\n      dup1\n      swap2\n      sub\n      swap1\n      keccak256\n        /* \"backend/contracts/CompanyRegistry.sol\":4286:4328  bytes32 key = keccak256(bytes(firebaseId)) */\n      swap1\n      pop\n        /* \"backend/contracts/CompanyRegistry.sol\":4388:4389  0 */\n      0x00\n        /* \"backend/contracts/CompanyRegistry.sol\":4352:4361  companies */\n      0x02\n        /* \"backend/contracts/CompanyRegistry.sol\":4352:4366  companies[key] */\n      0x00\n        /* \"backend/contracts/CompanyRegistry.sol\":4362:4365  key */\n      dup4\n        /* \"backend/contracts/CompanyRegistry.sol\":4352:4366  companies[key] */\n      dup2\n      mstore\n      0x20\n      add\n      swap1\n      dup2\n      mstore\n      0x20\n      add\n      0x00\n      keccak256\n        /* \"backend/contracts/CompanyRegistry.sol\":4352:4377  companies[key].firebaseId */\n      0x00\n      add\n        /* \"backend/contracts/CompanyRegistry.sol\":4346:4385  bytes(companies[key].firebaseId).length */\n      dup1\n      sload\n      tag_137\n      swap1\n      tag_68\n      jump\t// in\n    tag_137:\n      swap1\n      pop\n        /* \"backend/contracts/CompanyRegistry.sol\":4346:4389  bytes(companies[key].firebaseId).length > 0 */\n      gt\n        /* \"backend/contracts/CompanyRegistry.sol\":4338:4409  require(bytes(companies[key].firebaseId).length > 0, \"company missing\") */\n      tag_138\n      jumpi\n      mload(0x40)\n      0x08c379a000000000000000000000000000000000000000000000000000000000\n      dup2\n      mstore\n      0x04\n      add\n      tag_139\n      swap1\n      tag_85\n      jump\t// in\n    tag_139:\n      mload(0x40)\n      dup1\n      swap2\n      sub\n      swap1\n      revert\n    tag_138:\n        /* \"backend/contracts/CompanyRegistry.sol\":4444:4445  0 */\n      0x00\n        /* \"backend/contracts/CompanyRegistry.sol\":4427:4441  capKgPerWindow */\n      dup3\n        /* \"backend/contracts/CompanyRegistry.sol\":4427:4445  capKgPerWindow > 0 */\n      gt\n        /* \"backend/contracts/CompanyRegistry.sol\":4419:4462  require(capKgPerWindow > 0, \"cap required\") */\n      tag_140\n      jumpi\n      mload(0x40)\n      0x08c379a000000000000000000000000000000000000000000000000000000000\n      dup2\n      mstore\n      0x04\n      add\n      tag_141\n      swap1\n      tag_142\n      jump\t// in\n    tag_141:\n      mload(0x40)\n      dup1\n      swap2\n      sub\n      swap1\n      revert\n    tag_140:\n        /* \"backend/contracts/CompanyRegistry.sol\":4506:4521  emissionCapText */\n      dup4\n      dup4\n        /* \"backend/contracts/CompanyRegistry.sol\":4473:4482  companies */\n      0x02\n        /* \"backend/contracts/CompanyRegistry.sol\":4473:4487  companies[key] */\n      0x00\n        /* \"backend/contracts/CompanyRegistry.sol\":4483:4486  key */\n      dup5\n        /* \"backend/contracts/CompanyRegistry.sol\":4473:4487  companies[key] */\n      dup2\n      mstore\n      0x20\n      add\n      swap1\n      dup2\n      mstore\n      0x20\n      add\n      0x00\n      keccak256\n        /* \"backend/contracts/CompanyRegistry.sol\":4473:4503  companies[key].emissionCapText */\n      0x03\n      add\n        /* \"backend/contracts/CompanyRegistry.sol\":4473:4521  companies[key].emissionCapText = emissionCapText */\n      swap2\n      dup3\n      tag_143\n      swap3\n      swap2\n      swap1\n      tag_144\n      jump\t// in\n    tag_143:\n      pop\n        /* \"backend/contracts/CompanyRegistry.sol\":4563:4577  capKgPerWindow */\n      dup2\n        /* \"backend/contracts/CompanyRegistry.sol\":4531:4540  companies */\n      0x02\n        /* \"backend/contracts/CompanyRegistry.sol\":4531:4545  companies[key] */\n      0x00\n        /* \"backend/contracts/CompanyRegistry.sol\":4541:4544  key */\n      dup4\n        /* \"backend/contracts/CompanyRegistry.sol\":4531:4545  companies[key] */\n      dup2\n      mstore\n      0x20\n      add\n      swap1\n      dup2\n      mstore\n      0x20\n      add\n      0x00\n      keccak256\n        /* \"backend/contracts/CompanyRegistry.sol\":4531:4560  companies[key].capKgPerWindow */\n      0x04\n      add\n        /* \"backend/contracts/CompanyRegistry.sol\":4531:4577  companies[key].capKgPerWindow = capKgPerWindow */\n      dup2\n      swap1\n      sstore\n      pop\n        /* \"backend/contracts/CompanyRegistry.sol\":4615:4630  block.timestamp */\n      timestamp\n        /* \"backend/contracts/CompanyRegistry.sol\":4587:4596  companies */\n      0x02\n        /* \"backend/contracts/CompanyRegistry.sol\":4587:4601  companies[key] */\n      0x00\n        /* \"backend/contracts/CompanyRegistry.sol\":4597:4600  key */\n      dup4\n        /* \"backend/contracts/CompanyRegistry.sol\":4587:4601  companies[key] */\n      dup2\n      mstore\n      0x20\n      add\n      swap1\n      dup2\n      mstore\n      0x20\n      add\n      0x00\n      keccak256\n        /* \"backend/contracts/CompanyRegistry.sol\":4587:4612  companies[key].recordedAt */\n      0x05\n      add\n        /* \"backend/contracts/CompanyRegistry.sol\":4587:4630  companies[key].recordedAt = block.timestamp */\n      dup2\n      swap1\n      sstore\n      pop\n        /* \"backend/contracts/CompanyRegistry.sol\":4665:4668  key */\n      dup1\n        /* \"backend/contracts/CompanyRegistry.sol\":4646:4714  EmissionCapUpdated(key, firebaseId, emissionCapText, capKgPerWindow) */\n      0x83ffc3ac8241db58af7e14e2cba24e454315dccc6a0fdc302b67bbf27a9d5fa7\n        /* \"backend/contracts/CompanyRegistry.sol\":4670:4680  firebaseId */\n      dup8\n      dup8\n        /* \"backend/contracts/CompanyRegistry.sol\":4682:4697  emissionCapText */\n      dup8\n      dup8\n        /* \"backend/contracts/CompanyRegistry.sol\":4699:4713  capKgPerWindow */\n      dup8\n        /* \"backend/contracts/CompanyRegistry.sol\":4646:4714  EmissionCapUpdated(key, firebaseId, emissionCapText, capKgPerWindow) */\n      mload(0x40)\n      tag_145\n      swap6\n      swap5\n      swap4\n      swap3\n      swap2\n      swap1\n      tag_146\n      jump\t// in\n    tag_145:\n      mload(0x40)\n      dup1\n      swap2\n      sub\n      swap1\n      log2\n        /* \"backend/contracts/CompanyRegistry.sol\":4206:4721  {... */\n      pop\n        /* \"backend/contracts/CompanyRegistry.sol\":4045:4721  function updateEmissionCap(... */\n      pop\n      pop\n      pop\n      pop\n      pop\n      jump\t// out\n        /* \"backend/contracts/CompanyRegistry.sol\":5070:5333  function getCompanyByAddress(address wallet) external view returns (Company memory) {... */\n    tag_60:\n        /* \"backend/contracts/CompanyRegistry.sol\":5138:5152  Company memory */\n      tag_147\n      tag_98\n      jump\t// in\n    tag_147:\n        /* \"backend/contracts/CompanyRegistry.sol\":5164:5175  bytes32 key */\n      0x00\n        /* \"backend/contracts/CompanyRegistry.sol\":5178:5189  walletToKey */\n      0x03\n        /* \"backend/contracts/CompanyRegistry.sol\":5178:5197  walletToKey[wallet] */\n      0x00\n        /* \"backend/contracts/CompanyRegistry.sol\":5190:5196  wallet */\n      dup5\n        /* \"backend/contracts/CompanyRegistry.sol\":5178:5197  walletToKey[wallet] */\n      0xffffffffffffffffffffffffffffffffffffffff\n      and\n      0xffffffffffffffffffffffffffffffffffffffff\n      and\n      dup2\n      mstore\n      0x20\n      add\n      swap1\n      dup2\n      mstore\n      0x20\n      add\n      0x00\n      keccak256\n      sload\n        /* \"backend/contracts/CompanyRegistry.sol\":5164:5197  bytes32 key = walletToKey[wallet] */\n      swap1\n      pop\n        /* \"backend/contracts/CompanyRegistry.sol\":5207:5223  Company memory c */\n      0x00\n        /* \"backend/contracts/CompanyRegistry.sol\":5226:5235  companies */\n      0x02\n        /* \"backend/contracts/CompanyRegistry.sol\":5226:5240  companies[key] */\n      0x00\n        /* \"backend/contracts/CompanyRegistry.sol\":5236:5239  key */\n      dup4\n        /* \"backend/contracts/CompanyRegistry.sol\":5226:5240  companies[key] */\n      dup2\n      mstore\n      0x20\n      add\n      swap1\n      dup2\n      mstore\n      0x20\n      add\n      0x00\n      keccak256\n        /* \"backend/contracts/CompanyRegistry.sol\":5207:5240  Company memory c = companies[key] */\n      mload(0x40)\n      dup1\n      0xc0\n      add\n      0x40\n      mstore\n      swap1\n      dup2\n      0x00\n      dup3\n      add\n      dup1\n      sload\n      tag_149\n      swap1\n      tag_68\n      jump\t// in\n    tag_149:\n      dup1\n      0x1f\n      add\n      0x20\n      dup1\n      swap2\n      div\n      mul\n      0x20\n      add\n      mload(0x40)\n      swap1\n      dup2\n      add\n      0x40\n      mstore\n      dup1\n      swap3\n      swap2\n      swap1\n      dup2\n      dup2\n      mstore\n      0x20\n      add\n      dup3\n      dup1\n      sload\n      tag_150\n      swap1\n      tag_68\n      jump\t// in\n    tag_150:\n      dup1\n      iszero\n      tag_151\n      jumpi\n      dup1\n      0x1f\n      lt\n      tag_152\n      jumpi\n      0x0100\n      dup1\n      dup4\n      sload\n      div\n      mul\n      dup4\n      mstore\n      swap2\n      0x20\n      add\n      swap2\n      jump(tag_151)\n    tag_152:\n      dup3\n      add\n      swap2\n      swap1\n      0x00\n      mstore\n      keccak256(0x00, 0x20)\n      swap1\n    tag_153:\n      dup2\n      sload\n      dup2\n      mstore\n      swap1\n      0x01\n      add\n      swap1\n      0x20\n      add\n      dup1\n      dup4\n      gt\n      tag_153\n      jumpi\n      dup3\n      swap1\n      sub\n      0x1f\n      and\n      dup3\n      add\n      swap2\n    tag_151:\n      pop\n      pop\n      pop\n      pop\n      pop\n      dup2\n      mstore\n      0x20\n      add\n      0x01\n      dup3\n      add\n      dup1\n      sload\n      tag_154\n      swap1\n      tag_68\n      jump\t// in\n    tag_154:\n      dup1\n      0x1f\n      add\n      0x20\n      dup1\n      swap2\n      div\n      mul\n      0x20\n      add\n      mload(0x40)\n      swap1\n      dup2\n      add\n      0x40\n      mstore\n      dup1\n      swap3\n      swap2\n      swap1\n      dup2\n      dup2\n      mstore\n      0x20\n      add\n      dup3\n      dup1\n      sload\n      tag_155\n      swap1\n      tag_68\n      jump\t// in\n    tag_155:\n      dup1\n      iszero\n      tag_156\n      jumpi\n      dup1\n      0x1f\n      lt\n      tag_157\n      jumpi\n      0x0100\n      dup1\n      dup4\n      sload\n      div\n      mul\n      dup4\n      mstore\n      swap2\n      0x20\n      add\n      swap2\n      jump(tag_156)\n    tag_157:\n      dup3\n      add\n      swap2\n      swap1\n      0x00\n      mstore\n      keccak256(0x00, 0x20)\n      swap1\n    tag_158:\n      dup2\n      sload\n      dup2\n      mstore\n      swap1\n      0x01\n      add\n      swap1\n      0x20\n      add\n      dup1\n      dup4\n      gt\n      tag_158\n      jumpi\n      dup3\n      swap1\n      sub\n      0x1f\n      and\n      dup3\n      add\n      swap2\n    tag_156:\n      pop\n      pop\n      pop\n      pop\n      pop\n      dup2\n      mstore\n      0x20\n      add\n      0x02\n      dup3\n      add\n      0x00\n      swap1\n      sload\n      swap1\n      0x0100\n      exp\n      swap1\n      div\n      0xffffffffffffffffffffffffffffffffffffffff\n      and\n      0xffffffffffffffffffffffffffffffffffffffff\n      and\n      0xffffffffffffffffffffffffffffffffffffffff\n      and\n      dup2\n      mstore\n      0x20\n      add\n      0x03\n      dup3\n      add\n      dup1\n      sload\n      tag_159\n      swap1\n      tag_68\n      jump\t// in\n    tag_159:\n      dup1\n      0x1f\n      add\n      0x20\n      dup1\n      swap2\n      div\n      mul\n      0x20\n      add\n      mload(0x40)\n      swap1\n      dup2\n      add\n      0x40\n      mstore\n      dup1\n      swap3\n      swap2\n      swap1\n      dup2\n      dup2\n      mstore\n      0x20\n      add\n      dup3\n      dup1\n      sload\n      tag_160\n      swap1\n      tag_68\n      jump\t// in\n    tag_160:\n      dup1\n      iszero\n      tag_161\n      jumpi\n      dup1\n      0x1f\n      lt\n      tag_162\n      jumpi\n      0x0100\n      dup1\n      dup4\n      sload\n      div\n      mul\n      dup4\n      mstore\n      swap2\n      0x20\n      add\n      swap2\n      jump(tag_161)\n    tag_162:\n      dup3\n      add\n      swap2\n      swap1\n      0x00\n      mstore\n      keccak256(0x00, 0x20)\n      swap1\n    tag_163:\n      dup2\n      sload\n      dup2\n      mstore\n      swap1\n      0x01\n      add\n      swap1\n      0x20\n      add\n      dup1\n      dup4\n      gt\n      tag_163\n      jumpi\n      dup3\n      swap1\n      sub\n      0x1f\n      and\n      dup3\n      add\n      swap2\n    tag_161:\n      pop\n      pop\n      pop\n      pop\n      pop\n      dup2\n      mstore\n      0x20\n      add\n      0x04\n      dup3\n      add\n      sload\n      dup2\n      mstore\n      0x20\n      add\n      0x05\n      dup3\n      add\n      sload\n      dup2\n      mstore\n      pop\n      pop\n      swap1\n      pop\n        /* \"backend/contracts/CompanyRegistry.sol\":5287:5288  0 */\n      0x00\n        /* \"backend/contracts/CompanyRegistry.sol\":5264:5265  c */\n      dup2\n        /* \"backend/contracts/CompanyRegistry.sol\":5264:5276  c.firebaseId */\n      0x00\n      add\n      mload\n        /* \"backend/contracts/CompanyRegistry.sol\":5258:5284  bytes(c.firebaseId).length */\n      mload\n        /* \"backend/contracts/CompanyRegistry.sol\":5258:5288  bytes(c.firebaseId).length > 0 */\n      gt\n        /* \"backend/contracts/CompanyRegistry.sol\":5250:5308  require(bytes(c.firebaseId).length > 0, \"company missing\") */\n      tag_164\n      jumpi\n      mload(0x40)\n      0x08c379a000000000000000000000000000000000000000000000000000000000\n      dup2\n      mstore\n      0x04\n      add\n      tag_165\n      swap1\n      tag_85\n      jump\t// in\n    tag_165:\n      mload(0x40)\n      dup1\n      swap2\n      sub\n      swap1\n      revert\n    tag_164:\n        /* \"backend/contracts/CompanyRegistry.sol\":5325:5326  c */\n      dup1\n        /* \"backend/contracts/CompanyRegistry.sol\":5318:5326  return c */\n      swap3\n      pop\n      pop\n      pop\n        /* \"backend/contracts/CompanyRegistry.sol\":5070:5333  function getCompanyByAddress(address wallet) external view returns (Company memory) {... */\n      swap2\n      swap1\n      pop\n      jump\t// out\n        /* \"backend/contracts/CompanyRegistry.sol\":1513:1717  function transferOwnership(address newOwner) external onlyOwner {... */\n    tag_65:\n        /* \"backend/contracts/CompanyRegistry.sol\":1356:1361  owner */\n      0x00\n      0x00\n      swap1\n      sload\n      swap1\n      0x0100\n      exp\n      swap1\n      div\n      0xffffffffffffffffffffffffffffffffffffffff\n      and\n        /* \"backend/contracts/CompanyRegistry.sol\":1342:1361  msg.sender == owner */\n      0xffffffffffffffffffffffffffffffffffffffff\n      and\n        /* \"backend/contracts/CompanyRegistry.sol\":1342:1352  msg.sender */\n      caller\n        /* \"backend/contracts/CompanyRegistry.sol\":1342:1361  msg.sender == owner */\n      0xffffffffffffffffffffffffffffffffffffffff\n      and\n      eq\n        /* \"backend/contracts/CompanyRegistry.sol\":1334:1375  require(msg.sender == owner, \"Not owner\") */\n      tag_167\n      jumpi\n      mload(0x40)\n      0x08c379a000000000000000000000000000000000000000000000000000000000\n      dup2\n      mstore\n      0x04\n      add\n      tag_168\n      swap1\n      tag_89\n      jump\t// in\n    tag_168:\n      mload(0x40)\n      dup1\n      swap2\n      sub\n      swap1\n      revert\n    tag_167:\n        /* \"backend/contracts/CompanyRegistry.sol\":1615:1616  0 */\n      0x00\n        /* \"backend/contracts/CompanyRegistry.sol\":1595:1617  newOwner != address(0) */\n      0xffffffffffffffffffffffffffffffffffffffff\n      and\n        /* \"backend/contracts/CompanyRegistry.sol\":1595:1603  newOwner */\n      dup2\n        /* \"backend/contracts/CompanyRegistry.sol\":1595:1617  newOwner != address(0) */\n      0xffffffffffffffffffffffffffffffffffffffff\n      and\n      sub\n        /* \"backend/contracts/CompanyRegistry.sol\":1587:1632  require(newOwner != address(0), \"Zero owner\") */\n      tag_170\n      jumpi\n      mload(0x40)\n      0x08c379a000000000000000000000000000000000000000000000000000000000\n      dup2\n      mstore\n      0x04\n      add\n      tag_171\n      swap1\n      tag_172\n      jump\t// in\n    tag_171:\n      mload(0x40)\n      dup1\n      swap2\n      sub\n      swap1\n      revert\n    tag_170:\n        /* \"backend/contracts/CompanyRegistry.sol\":1675:1683  newOwner */\n      dup1\n        /* \"backend/contracts/CompanyRegistry.sol\":1647:1684  OwnershipTransferred(owner, newOwner) */\n      0xffffffffffffffffffffffffffffffffffffffff\n      and\n        /* \"backend/contracts/CompanyRegistry.sol\":1668:1673  owner */\n      0x00\n      0x00\n      swap1\n      sload\n      swap1\n      0x0100\n      exp\n      swap1\n      div\n      0xffffffffffffffffffffffffffffffffffffffff\n      and\n        /* \"backend/contracts/CompanyRegistry.sol\":1647:1684  OwnershipTransferred(owner, newOwner) */\n      0xffffffffffffffffffffffffffffffffffffffff\n      and\n      0x8be0079c531659141344cd1fd0a4f28419497f9722a3daafe3b4186f6b6457e0\n      mload(0x40)\n      mload(0x40)\n      dup1\n      swap2\n      sub\n      swap1\n      log3\n        /* \"backend/contracts/CompanyRegistry.sol\":1702:1710  newOwner */\n      dup1\n        /* \"backend/contracts/CompanyRegistry.sol\":1694:1699  owner */\n      0x00\n      0x00\n        /* \"backend/contracts/CompanyRegistry.sol\":1694:1710  owner = newOwner */\n      0x0100\n      exp\n      dup2\n      sload\n      dup2\n      0xffffffffffffffffffffffffffffffffffffffff\n      mul\n      not\n      and\n      swap1\n      dup4\n      0xffffffffffffffffffffffffffffffffffffffff\n      and\n      mul\n      or\n      swap1\n      sstore\n      pop\n        /* \"backend/contracts/CompanyRegistry.sol\":1513:1717  function transferOwnership(address newOwner) external onlyOwner {... */\n      pop\n      jump\t// out\n        /* \"backend/contracts/CompanyRegistry.sol\":2826:3679  function _recordCompany(... */\n    tag_92:\n        /* \"backend/contracts/CompanyRegistry.sol\":3037:3048  bytes32 key */\n      0x00\n        /* \"backend/contracts/CompanyRegistry.sol\":3095:3096  0 */\n      0x00\n        /* \"backend/contracts/CompanyRegistry.sol\":3074:3084  firebaseId */\n      dup10\n      dup10\n        /* \"backend/contracts/CompanyRegistry.sol\":3068:3092  bytes(firebaseId).length */\n      swap1\n      pop\n        /* \"backend/contracts/CompanyRegistry.sol\":3068:3096  bytes(firebaseId).length > 0 */\n      gt\n        /* \"backend/contracts/CompanyRegistry.sol\":3060:3120  require(bytes(firebaseId).length > 0, \"firebaseId required\") */\n      tag_174\n      jumpi\n      mload(0x40)\n      0x08c379a000000000000000000000000000000000000000000000000000000000\n      dup2\n      mstore\n      0x04\n      add\n      tag_175\n      swap1\n      tag_135\n      jump\t// in\n    tag_175:\n      mload(0x40)\n      dup1\n      swap2\n      sub\n      swap1\n      revert\n    tag_174:\n        /* \"backend/contracts/CompanyRegistry.sol\":3156:3157  0 */\n      0x00\n        /* \"backend/contracts/CompanyRegistry.sol\":3138:3158  wallet != address(0) */\n      0xffffffffffffffffffffffffffffffffffffffff\n      and\n        /* \"backend/contracts/CompanyRegistry.sol\":3138:3144  wallet */\n      dup6\n        /* \"backend/contracts/CompanyRegistry.sol\":3138:3158  wallet != address(0) */\n      0xffffffffffffffffffffffffffffffffffffffff\n      and\n      sub\n        /* \"backend/contracts/CompanyRegistry.sol\":3130:3178  require(wallet != address(0), \"wallet required\") */\n      tag_176\n      jumpi\n      mload(0x40)\n      0x08c379a000000000000000000000000000000000000000000000000000000000\n      dup2\n      mstore\n      0x04\n      add\n      tag_177\n      swap1\n      tag_178\n      jump\t// in\n    tag_177:\n      mload(0x40)\n      dup1\n      swap2\n      sub\n      swap1\n      revert\n    tag_176:\n        /* \"backend/contracts/CompanyRegistry.sol\":3213:3214  0 */\n      0x00\n        /* \"backend/contracts/CompanyRegistry.sol\":3196:3210  capKgPerWindow */\n      dup3\n        /* \"backend/contracts/CompanyRegistry.sol\":3196:3214  capKgPerWindow > 0 */\n      gt\n        /* \"backend/contracts/CompanyRegistry.sol\":3188:3231  require(capKgPerWindow > 0, \"cap required\") */\n      tag_179\n      jumpi\n      mload(0x40)\n      0x08c379a000000000000000000000000000000000000000000000000000000000\n      dup2\n      mstore\n      0x04\n      add\n      tag_180\n      swap1\n      tag_142\n      jump\t// in\n    tag_180:\n      mload(0x40)\n      dup1\n      swap2\n      sub\n      swap1\n      revert\n    tag_179:\n        /* \"backend/contracts/CompanyRegistry.sol\":3264:3274  firebaseId */\n      dup9\n      dup9\n        /* \"backend/contracts/CompanyRegistry.sol\":3248:3276  keccak256(bytes(firebaseId)) */\n      mload(0x40)\n      tag_181\n      swap3\n      swap2\n      swap1\n      tag_101\n      jump\t// in\n    tag_181:\n      mload(0x40)\n      dup1\n      swap2\n      sub\n      swap1\n      keccak256\n        /* \"backend/contracts/CompanyRegistry.sol\":3242:3276  key = keccak256(bytes(firebaseId)) */\n      swap1\n      pop\n        /* \"backend/contracts/CompanyRegistry.sol\":3303:3541  Company({... */\n      mload(0x40)\n      dup1\n      0xc0\n      add\n      0x40\n      mstore\n      dup1\n        /* \"backend/contracts/CompanyRegistry.sol\":3337:3347  firebaseId */\n      dup11\n      dup11\n        /* \"backend/contracts/CompanyRegistry.sol\":3303:3541  Company({... */\n      dup1\n      dup1\n      0x1f\n      add\n      0x20\n      dup1\n      swap2\n      div\n      mul\n      0x20\n      add\n      mload(0x40)\n      swap1\n      dup2\n      add\n      0x40\n      mstore\n      dup1\n      swap4\n      swap3\n      swap2\n      swap1\n      dup2\n      dup2\n      mstore\n      0x20\n      add\n      dup4\n      dup4\n      dup1\n      dup3\n      dup5\n      calldatacopy\n      0x00\n      dup2\n      dup5\n      add\n      mstore\n      not(0x1f)\n      0x1f\n      dup3\n      add\n      and\n      swap1\n      pop\n      dup1\n      dup4\n      add\n      swap3\n      pop\n      pop\n      pop\n      pop\n      pop\n      pop\n      pop\n      dup2\n      mstore\n      0x20\n      add\n        /* \"backend/contracts/CompanyRegistry.sol\":3367:3371  name */\n      dup9\n      dup9\n        /* \"backend/contracts/CompanyRegistry.sol\":3303:3541  Company({... */\n      dup1\n      dup1\n      0x1f\n      add\n      0x20\n      dup1\n      swap2\n      div\n      mul\n      0x20\n      add\n      mload(0x40)\n      swap1\n      dup2\n      add\n      0x40\n      mstore\n      dup1\n      swap4\n      swap3\n      swap2\n      swap1\n      dup2\n      dup2\n      mstore\n      0x20\n      add\n      dup4\n      dup4\n      dup1\n      dup3\n      dup5\n      calldatacopy\n      0x00\n      dup2\n      dup5\n      add\n      mstore\n      not(0x1f)\n      0x1f\n      dup3\n      add\n      and\n      swap1\n      pop\n      dup1\n      dup4\n      add\n      swap3\n      pop\n      pop\n      pop\n      pop\n      pop\n      pop\n      pop\n      dup2\n      mstore\n      0x20\n      add\n        /* \"backend/contracts/CompanyRegistry.sol\":3393:3399  wallet */\n      dup7\n        /* \"backend/contracts/CompanyRegistry.sol\":3303:3541  Company({... */\n      0xffffffffffffffffffffffffffffffffffffffff\n      and\n      dup2\n      mstore\n      0x20\n      add\n        /* \"backend/contracts/CompanyRegistry.sol\":3430:3445  emissionCapText */\n      dup6\n      dup6\n        /* \"backend/contracts/CompanyRegistry.sol\":3303:3541  Company({... */\n      dup1\n      dup1\n      0x1f\n      add\n      0x20\n      dup1\n      swap2\n      div\n      mul\n      0x20\n      add\n      mload(0x40)\n      swap1\n      dup2\n      add\n      0x40\n      mstore\n      dup1\n      swap4\n      swap3\n      swap2\n      swap1\n      dup2\n      dup2\n      mstore\n      0x20\n      add\n      dup4\n      dup4\n      dup1\n      dup3\n      dup5\n      calldatacopy\n      0x00\n      dup2\n      dup5\n      add\n      mstore\n      not(0x1f)\n      0x1f\n      dup3\n      add\n      and\n      swap1\n      pop\n      dup1\n      dup4\n      add\n      swap3\n      pop\n      pop\n      pop\n      pop\n      pop\n      pop\n      pop\n      dup2\n      mstore\n      0x20\n      add\n        /* \"backend/contracts/CompanyRegistry.sol\":3475:3489  capKgPerWindow */\n      dup4\n        /* \"backend/contracts/CompanyRegistry.sol\":3303:3541  Company({... */\n      dup2\n      mstore\n      0x20\n      add\n        /* \"backend/contracts/CompanyRegistry.sol\":3515:3530  block.timestamp */\n      timestamp\n        /* \"backend/contracts/CompanyRegistry.sol\":3303:3541  Company({... */\n      dup2\n      mstore\n      pop\n        /* \"backend/contracts/CompanyRegistry.sol\":3286:3295  companies */\n      0x02\n        /* \"backend/contracts/CompanyRegistry.sol\":3286:3300  companies[key] */\n      0x00\n        /* \"backend/contracts/CompanyRegistry.sol\":3296:3299  key */\n      dup4\n        /* \"backend/contracts/CompanyRegistry.sol\":3286:3300  companies[key] */\n      dup2\n      mstore\n      0x20\n      add\n      swap1\n      dup2\n      mstore\n      0x20\n      add\n      0x00\n      keccak256\n        /* \"backend/contracts/CompanyRegistry.sol\":3286:3541  companies[key] = Company({... */\n      0x00\n      dup3\n      add\n      mload\n      dup2\n      0x00\n      add\n      swap1\n      dup2\n      tag_182\n      swap2\n      swap1\n      tag_183\n      jump\t// in\n    tag_182:\n      pop\n      0x20\n      dup3\n      add\n      mload\n      dup2\n      0x01\n      add\n      swap1\n      dup2\n      tag_184\n      swap2\n      swap1\n      tag_183\n      jump\t// in\n    tag_184:\n      pop\n      0x40\n      dup3\n      add\n      mload\n      dup2\n      0x02\n      add\n      exp(0x0100, 0x00)\n      dup2\n      sload\n      dup2\n      0xffffffffffffffffffffffffffffffffffffffff\n      mul\n      not\n      and\n      swap1\n      dup4\n      0xffffffffffffffffffffffffffffffffffffffff\n      and\n      mul\n      or\n      swap1\n      sstore\n      pop\n      0x60\n      dup3\n      add\n      mload\n      dup2\n      0x03\n      add\n      swap1\n      dup2\n      tag_185\n      swap2\n      swap1\n      tag_183\n      jump\t// in\n    tag_185:\n      pop\n      0x80\n      dup3\n      add\n      mload\n      dup2\n      0x04\n      add\n      sstore\n      0xa0\n      dup3\n      add\n      mload\n      dup2\n      0x05\n      add\n      sstore\n      swap1\n      pop\n      pop\n        /* \"backend/contracts/CompanyRegistry.sol\":3574:3577  key */\n      dup1\n        /* \"backend/contracts/CompanyRegistry.sol\":3552:3563  walletToKey */\n      0x03\n        /* \"backend/contracts/CompanyRegistry.sol\":3552:3571  walletToKey[wallet] */\n      0x00\n        /* \"backend/contracts/CompanyRegistry.sol\":3564:3570  wallet */\n      dup8\n        /* \"backend/contracts/CompanyRegistry.sol\":3552:3571  walletToKey[wallet] */\n      0xffffffffffffffffffffffffffffffffffffffff\n      and\n      0xffffffffffffffffffffffffffffffffffffffff\n      and\n      dup2\n      mstore\n      0x20\n      add\n      swap1\n      dup2\n      mstore\n      0x20\n      add\n      0x00\n      keccak256\n        /* \"backend/contracts/CompanyRegistry.sol\":3552:3577  walletToKey[wallet] = key */\n      dup2\n      swap1\n      sstore\n      pop\n        /* \"backend/contracts/CompanyRegistry.sol\":3609:3612  key */\n      dup1\n        /* \"backend/contracts/CompanyRegistry.sol\":3593:3672  CompanyRecorded(key, firebaseId, name, wallet, emissionCapText, capKgPerWindow) */\n      0x502399ffc14aabf146372ee3e6d9385622bbf5edec1846f89e416f680372e173\n        /* \"backend/contracts/CompanyRegistry.sol\":3614:3624  firebaseId */\n      dup11\n      dup11\n        /* \"backend/contracts/CompanyRegistry.sol\":3626:3630  name */\n      dup11\n      dup11\n        /* \"backend/contracts/CompanyRegistry.sol\":3632:3638  wallet */\n      dup11\n        /* \"backend/contracts/CompanyRegistry.sol\":3640:3655  emissionCapText */\n      dup11\n      dup11\n        /* \"backend/contracts/CompanyRegistry.sol\":3657:3671  capKgPerWindow */\n      dup11\n        /* \"backend/contracts/CompanyRegistry.sol\":3593:3672  CompanyRecorded(key, firebaseId, name, wallet, emissionCapText, capKgPerWindow) */\n      mload(0x40)\n      tag_186\n      swap9\n      swap8\n      swap7\n      swap6\n      swap5\n      swap4\n      swap3\n      swap2\n      swap1\n      tag_187\n      jump\t// in\n    tag_186:\n      mload(0x40)\n      dup1\n      swap2\n      sub\n      swap1\n      log2\n        /* \"backend/contracts/CompanyRegistry.sol\":2826:3679  function _recordCompany(... */\n      swap9\n      swap8\n      pop\n      pop\n      pop\n      pop\n      pop\n      pop\n      pop\n      pop\n      jump\t// out\n        /* \"backend/contracts/CompanyRegistry.sol\":3685:3967  function _sendFunding(bytes32 key, string calldata firebaseId, address wallet, uint256 amount) internal {... */\n    tag_128:\n        /* \"backend/contracts/CompanyRegistry.sol\":3800:3809  bool sent */\n      0x00\n        /* \"backend/contracts/CompanyRegistry.sol\":3823:3829  wallet */\n      dup3\n        /* \"backend/contracts/CompanyRegistry.sol\":3815:3835  payable(wallet).call */\n      0xffffffffffffffffffffffffffffffffffffffff\n      and\n        /* \"backend/contracts/CompanyRegistry.sol\":3843:3849  amount */\n      dup3\n        /* \"backend/contracts/CompanyRegistry.sol\":3815:3854  payable(wallet).call{value: amount}(\"\") */\n      mload(0x40)\n      tag_189\n      swap1\n      tag_190\n      jump\t// in\n    tag_189:\n      0x00\n      mload(0x40)\n      dup1\n      dup4\n      sub\n      dup2\n      dup6\n      dup8\n      gas\n      call\n      swap3\n      pop\n      pop\n      pop\n      returndatasize\n      dup1\n      0x00\n      dup2\n      eq\n      tag_193\n      jumpi\n      mload(0x40)\n      swap2\n      pop\n      and(add(returndatasize, 0x3f), not(0x1f))\n      dup3\n      add\n      0x40\n      mstore\n      returndatasize\n      dup3\n      mstore\n      returndatasize\n      0x00\n      0x20\n      dup5\n      add\n      returndatacopy\n      jump(tag_192)\n    tag_193:\n      0x60\n      swap2\n      pop\n    tag_192:\n      pop\n        /* \"backend/contracts/CompanyRegistry.sol\":3799:3854  (bool sent, ) = payable(wallet).call{value: amount}(\"\") */\n      pop\n      swap1\n      pop\n        /* \"backend/contracts/CompanyRegistry.sol\":3872:3876  sent */\n      dup1\n        /* \"backend/contracts/CompanyRegistry.sol\":3864:3901  require(sent, \"fund transfer failed\") */\n      tag_194\n      jumpi\n      mload(0x40)\n      0x08c379a000000000000000000000000000000000000000000000000000000000\n      dup2\n      mstore\n      0x04\n      add\n      tag_195\n      swap1\n      tag_196\n      jump\t// in\n    tag_195:\n      mload(0x40)\n      dup1\n      swap2\n      sub\n      swap1\n      revert\n    tag_194:\n        /* \"backend/contracts/CompanyRegistry.sol\":3945:3951  wallet */\n      dup3\n        /* \"backend/contracts/CompanyRegistry.sol\":3916:3960  FundingSent(key, firebaseId, wallet, amount) */\n      0xffffffffffffffffffffffffffffffffffffffff\n      and\n        /* \"backend/contracts/CompanyRegistry.sol\":3928:3931  key */\n      dup7\n        /* \"backend/contracts/CompanyRegistry.sol\":3916:3960  FundingSent(key, firebaseId, wallet, amount) */\n      0x605cf1e76558bf63cfec5306ed6562a0ff6ed7945d0431bf7711e0432a0c50a1\n        /* \"backend/contracts/CompanyRegistry.sol\":3933:3943  firebaseId */\n      dup8\n      dup8\n        /* \"backend/contracts/CompanyRegistry.sol\":3953:3959  amount */\n      dup7\n        /* \"backend/contracts/CompanyRegistry.sol\":3916:3960  FundingSent(key, firebaseId, wallet, amount) */\n      mload(0x40)\n      tag_197\n      swap4\n      swap3\n      swap2\n      swap1\n      tag_198\n      jump\t// in\n    tag_197:\n      mload(0x40)\n      dup1\n      swap2\n      sub\n      swap1\n      log3\n        /* \"backend/contracts/CompanyRegistry.sol\":3789:3967  {... */\n      pop\n        /* \"backend/contracts/CompanyRegistry.sol\":3685:3967  function _sendFunding(bytes32 key, string calldata firebaseId, address wallet, uint256 amount) internal {... */\n      pop\n      pop\n      pop\n      pop\n      pop\n      jump\t// out\n    tag_98:\n      mload(0x40)\n      dup1\n      0xc0\n      add\n      0x40\n      mstore\n      dup1\n      0x60\n      dup2\n      mstore\n      0x20\n      add\n      0x60\n      dup2\n      mstore\n      0x20\n      add\n      and(0xffffffffffffffffffffffffffffffffffffffff, 0x00)\n      dup2\n      mstore\n      0x20\n      add\n      0x60\n      dup2\n      mstore\n      0x20\n      add\n      0x00\n      dup2\n      mstore\n      0x20\n      add\n      0x00\n      dup2\n      mstore\n      pop\n      swap1\n      jump\t// out\n        /* \"#utility.yul\":88:205   */\n    tag_200:\n        /* \"#utility.yul\":197:198   */\n      0x00\n        /* \"#utility.yul\":194:195   */\n      0x00\n        /* \"#utility.yul\":187:199   */\n      revert\n        /* \"#utility.yul\":211:328   */\n    tag_201:\n        /* \"#utility.yul\":320:321   */\n      0x00\n        /* \"#utility.yul\":317:318   */\n      0x00\n        /* \"#utility.yul\":310:322   */\n      revert\n        /* \"#utility.yul\":334:460   */\n    tag_202:\n        /* \"#utility.yul\":371:378   */\n      0x00\n        /* \"#utility.yul\":411:453   */\n      0xffffffffffffffffffffffffffffffffffffffff\n        /* \"#utility.yul\":404:409   */\n      dup3\n        /* \"#utility.yul\":400:454   */\n      and\n        /* \"#utility.yul\":389:454   */\n      swap1\n      pop\n        /* \"#utility.yul\":334:460   */\n      swap2\n      swap1\n      pop\n      jump\t// out\n        /* \"#utility.yul\":466:562   */\n    tag_203:\n        /* \"#utility.yul\":503:510   */\n      0x00\n        /* \"#utility.yul\":532:556   */\n      tag_270\n        /* \"#utility.yul\":550:555   */\n      dup3\n        /* \"#utility.yul\":532:556   */\n      tag_202\n      jump\t// in\n    tag_270:\n        /* \"#utility.yul\":521:556   */\n      swap1\n      pop\n        /* \"#utility.yul\":466:562   */\n      swap2\n      swap1\n      pop\n      jump\t// out\n        /* \"#utility.yul\":568:690   */\n    tag_204:\n        /* \"#utility.yul\":641:665   */\n      tag_272\n        /* \"#utility.yul\":659:664   */\n      dup2\n        /* \"#utility.yul\":641:665   */\n      tag_203\n      jump\t// in\n    tag_272:\n        /* \"#utility.yul\":634:639   */\n      dup2\n        /* \"#utility.yul\":631:666   */\n      eq\n        /* \"#utility.yul\":621:684   */\n      tag_273\n      jumpi\n        /* \"#utility.yul\":680:681   */\n      0x00\n        /* \"#utility.yul\":677:678   */\n      0x00\n        /* \"#utility.yul\":670:682   */\n      revert\n        /* \"#utility.yul\":621:684   */\n    tag_273:\n        /* \"#utility.yul\":568:690   */\n      pop\n      jump\t// out\n        /* \"#utility.yul\":696:835   */\n    tag_205:\n        /* \"#utility.yul\":742:747   */\n      0x00\n        /* \"#utility.yul\":780:786   */\n      dup2\n        /* \"#utility.yul\":767:787   */\n      calldataload\n        /* \"#utility.yul\":758:787   */\n      swap1\n      pop\n        /* \"#utility.yul\":796:829   */\n      tag_275\n        /* \"#utility.yul\":823:828   */\n      dup2\n        /* \"#utility.yul\":796:829   */\n      tag_204\n      jump\t// in\n    tag_275:\n        /* \"#utility.yul\":696:835   */\n      swap3\n      swap2\n      pop\n      pop\n      jump\t// out\n        /* \"#utility.yul\":841:1170   */\n    tag_19:\n        /* \"#utility.yul\":900:906   */\n      0x00\n        /* \"#utility.yul\":949:951   */\n      0x20\n        /* \"#utility.yul\":937:946   */\n      dup3\n        /* \"#utility.yul\":928:935   */\n      dup5\n        /* \"#utility.yul\":924:947   */\n      sub\n        /* \"#utility.yul\":920:952   */\n      slt\n        /* \"#utility.yul\":917:1036   */\n      iszero\n      tag_277\n      jumpi\n        /* \"#utility.yul\":955:1034   */\n      tag_278\n      tag_200\n      jump\t// in\n    tag_278:\n        /* \"#utility.yul\":917:1036   */\n    tag_277:\n        /* \"#utility.yul\":1075:1076   */\n      0x00\n        /* \"#utility.yul\":1100:1153   */\n      tag_279\n        /* \"#utility.yul\":1145:1152   */\n      dup5\n        /* \"#utility.yul\":1136:1142   */\n      dup3\n        /* \"#utility.yul\":1125:1134   */\n      dup6\n        /* \"#utility.yul\":1121:1143   */\n      add\n        /* \"#utility.yul\":1100:1153   */\n      tag_205\n      jump\t// in\n    tag_279:\n        /* \"#utility.yul\":1090:1153   */\n      swap2\n      pop\n        /* \"#utility.yul\":1046:1163   */\n      pop\n        /* \"#utility.yul\":841:1170   */\n      swap3\n      swap2\n      pop\n      pop\n      jump\t// out\n        /* \"#utility.yul\":1176:1253   */\n    tag_206:\n        /* \"#utility.yul\":1213:1220   */\n      0x00\n        /* \"#utility.yul\":1242:1247   */\n      dup2\n        /* \"#utility.yul\":1231:1247   */\n      swap1\n      pop\n        /* \"#utility.yul\":1176:1253   */\n      swap2\n      swap1\n      pop\n      jump\t// out\n        /* \"#utility.yul\":1259:1377   */\n    tag_207:\n        /* \"#utility.yul\":1346:1370   */\n      tag_282\n        /* \"#utility.yul\":1364:1369   */\n      dup2\n        /* \"#utility.yul\":1346:1370   */\n      tag_206\n      jump\t// in\n    tag_282:\n        /* \"#utility.yul\":1341:1344   */\n      dup3\n        /* \"#utility.yul\":1334:1371   */\n      mstore\n        /* \"#utility.yul\":1259:1377   */\n      pop\n      pop\n      jump\t// out\n        /* \"#utility.yul\":1383:1605   */\n    tag_22:\n        /* \"#utility.yul\":1476:1480   */\n      0x00\n        /* \"#utility.yul\":1514:1516   */\n      0x20\n        /* \"#utility.yul\":1503:1512   */\n      dup3\n        /* \"#utility.yul\":1499:1517   */\n      add\n        /* \"#utility.yul\":1491:1517   */\n      swap1\n      pop\n        /* \"#utility.yul\":1527:1598   */\n      tag_284\n        /* \"#utility.yul\":1595:1596   */\n      0x00\n        /* \"#utility.yul\":1584:1593   */\n      dup4\n        /* \"#utility.yul\":1580:1597   */\n      add\n        /* \"#utility.yul\":1571:1577   */\n      dup5\n        /* \"#utility.yul\":1527:1598   */\n      tag_207\n      jump\t// in\n    tag_284:\n        /* \"#utility.yul\":1383:1605   */\n      swap3\n      swap2\n      pop\n      pop\n      jump\t// out\n        /* \"#utility.yul\":1611:1728   */\n    tag_208:\n        /* \"#utility.yul\":1720:1721   */\n      0x00\n        /* \"#utility.yul\":1717:1718   */\n      0x00\n        /* \"#utility.yul\":1710:1722   */\n      revert\n        /* \"#utility.yul\":1734:1851   */\n    tag_209:\n        /* \"#utility.yul\":1843:1844   */\n      0x00\n        /* \"#utility.yul\":1840:1841   */\n      0x00\n        /* \"#utility.yul\":1833:1845   */\n      revert\n        /* \"#utility.yul\":1857:1974   */\n    tag_210:\n        /* \"#utility.yul\":1966:1967   */\n      0x00\n        /* \"#utility.yul\":1963:1964   */\n      0x00\n        /* \"#utility.yul\":1956:1968   */\n      revert\n        /* \"#utility.yul\":1994:2547   */\n    tag_211:\n        /* \"#utility.yul\":2052:2060   */\n      0x00\n        /* \"#utility.yul\":2062:2068   */\n      0x00\n        /* \"#utility.yul\":2112:2115   */\n      dup4\n        /* \"#utility.yul\":2105:2109   */\n      0x1f\n        /* \"#utility.yul\":2097:2103   */\n      dup5\n        /* \"#utility.yul\":2093:2110   */\n      add\n        /* \"#utility.yul\":2089:2116   */\n      slt\n        /* \"#utility.yul\":2079:2201   */\n      tag_289\n      jumpi\n        /* \"#utility.yul\":2120:2199   */\n      tag_290\n      tag_208\n      jump\t// in\n    tag_290:\n        /* \"#utility.yul\":2079:2201   */\n    tag_289:\n        /* \"#utility.yul\":2233:2239   */\n      dup3\n        /* \"#utility.yul\":2220:2240   */\n      calldataload\n        /* \"#utility.yul\":2210:2240   */\n      swap1\n      pop\n        /* \"#utility.yul\":2263:2281   */\n      0xffffffffffffffff\n        /* \"#utility.yul\":2255:2261   */\n      dup2\n        /* \"#utility.yul\":2252:2282   */\n      gt\n        /* \"#utility.yul\":2249:2366   */\n      iszero\n      tag_291\n      jumpi\n        /* \"#utility.yul\":2285:2364   */\n      tag_292\n      tag_209\n      jump\t// in\n    tag_292:\n        /* \"#utility.yul\":2249:2366   */\n    tag_291:\n        /* \"#utility.yul\":2399:2403   */\n      0x20\n        /* \"#utility.yul\":2391:2397   */\n      dup4\n        /* \"#utility.yul\":2387:2404   */\n      add\n        /* \"#utility.yul\":2375:2404   */\n      swap2\n      pop\n        /* \"#utility.yul\":2453:2456   */\n      dup4\n        /* \"#utility.yul\":2445:2449   */\n      0x01\n        /* \"#utility.yul\":2437:2443   */\n      dup3\n        /* \"#utility.yul\":2433:2450   */\n      mul\n        /* \"#utility.yul\":2423:2431   */\n      dup4\n        /* \"#utility.yul\":2419:2451   */\n      add\n        /* \"#utility.yul\":2416:2457   */\n      gt\n        /* \"#utility.yul\":2413:2541   */\n      iszero\n      tag_293\n      jumpi\n        /* \"#utility.yul\":2460:2539   */\n      tag_294\n      tag_210\n      jump\t// in\n    tag_294:\n        /* \"#utility.yul\":2413:2541   */\n    tag_293:\n        /* \"#utility.yul\":1994:2547   */\n      swap3\n      pop\n      swap3\n      swap1\n      pop\n      jump\t// out\n        /* \"#utility.yul\":2553:2675   */\n    tag_212:\n        /* \"#utility.yul\":2626:2650   */\n      tag_296\n        /* \"#utility.yul\":2644:2649   */\n      dup2\n        /* \"#utility.yul\":2626:2650   */\n      tag_206\n      jump\t// in\n    tag_296:\n        /* \"#utility.yul\":2619:2624   */\n      dup2\n        /* \"#utility.yul\":2616:2651   */\n      eq\n        /* \"#utility.yul\":2606:2669   */\n      tag_297\n      jumpi\n        /* \"#utility.yul\":2665:2666   */\n      0x00\n        /* \"#utility.yul\":2662:2663   */\n      0x00\n        /* \"#utility.yul\":2655:2667   */\n      revert\n        /* \"#utility.yul\":2606:2669   */\n    tag_297:\n        /* \"#utility.yul\":2553:2675   */\n      pop\n      jump\t// out\n        /* \"#utility.yul\":2681:2820   */\n    tag_213:\n        /* \"#utility.yul\":2727:2732   */\n      0x00\n        /* \"#utility.yul\":2765:2771   */\n      dup2\n        /* \"#utility.yul\":2752:2772   */\n      calldataload\n        /* \"#utility.yul\":2743:2772   */\n      swap1\n      pop\n        /* \"#utility.yul\":2781:2814   */\n      tag_299\n        /* \"#utility.yul\":2808:2813   */\n      dup2\n        /* \"#utility.yul\":2781:2814   */\n      tag_212\n      jump\t// in\n    tag_299:\n        /* \"#utility.yul\":2681:2820   */\n      swap3\n      swap2\n      pop\n      pop\n      jump\t// out\n        /* \"#utility.yul\":2826:4337   */\n    tag_26:\n        /* \"#utility.yul\":2957:2963   */\n      0x00\n        /* \"#utility.yul\":2965:2971   */\n      0x00\n        /* \"#utility.yul\":2973:2979   */\n      0x00\n        /* \"#utility.yul\":2981:2987   */\n      0x00\n        /* \"#utility.yul\":2989:2995   */\n      0x00\n        /* \"#utility.yul\":2997:3003   */\n      0x00\n        /* \"#utility.yul\":3005:3011   */\n      0x00\n        /* \"#utility.yul\":3013:3019   */\n      0x00\n        /* \"#utility.yul\":3062:3065   */\n      0xa0\n        /* \"#utility.yul\":3050:3059   */\n      dup10\n        /* \"#utility.yul\":3041:3048   */\n      dup12\n        /* \"#utility.yul\":3037:3060   */\n      sub\n        /* \"#utility.yul\":3033:3066   */\n      slt\n        /* \"#utility.yul\":3030:3150   */\n      iszero\n      tag_301\n      jumpi\n        /* \"#utility.yul\":3069:3148   */\n      tag_302\n      tag_200\n      jump\t// in\n    tag_302:\n        /* \"#utility.yul\":3030:3150   */\n    tag_301:\n        /* \"#utility.yul\":3217:3218   */\n      0x00\n        /* \"#utility.yul\":3206:3215   */\n      dup10\n        /* \"#utility.yul\":3202:3219   */\n      add\n        /* \"#utility.yul\":3189:3220   */\n      calldataload\n        /* \"#utility.yul\":3247:3265   */\n      0xffffffffffffffff\n        /* \"#utility.yul\":3239:3245   */\n      dup2\n        /* \"#utility.yul\":3236:3266   */\n      gt\n        /* \"#utility.yul\":3233:3350   */\n      iszero\n      tag_303\n      jumpi\n        /* \"#utility.yul\":3269:3348   */\n      tag_304\n      tag_201\n      jump\t// in\n    tag_304:\n        /* \"#utility.yul\":3233:3350   */\n    tag_303:\n        /* \"#utility.yul\":3382:3447   */\n      tag_305\n        /* \"#utility.yul\":3439:3446   */\n      dup12\n        /* \"#utility.yul\":3430:3436   */\n      dup3\n        /* \"#utility.yul\":3419:3428   */\n      dup13\n        /* \"#utility.yul\":3415:3437   */\n      add\n        /* \"#utility.yul\":3382:3447   */\n      tag_211\n      jump\t// in\n    tag_305:\n        /* \"#utility.yul\":3364:3447   */\n      swap9\n      pop\n      swap9\n      pop\n        /* \"#utility.yul\":3160:3457   */\n      pop\n        /* \"#utility.yul\":3524:3526   */\n      0x20\n        /* \"#utility.yul\":3513:3522   */\n      dup10\n        /* \"#utility.yul\":3509:3527   */\n      add\n        /* \"#utility.yul\":3496:3528   */\n      calldataload\n        /* \"#utility.yul\":3555:3573   */\n      0xffffffffffffffff\n        /* \"#utility.yul\":3547:3553   */\n      dup2\n        /* \"#utility.yul\":3544:3574   */\n      gt\n        /* \"#utility.yul\":3541:3658   */\n      iszero\n      tag_306\n      jumpi\n        /* \"#utility.yul\":3577:3656   */\n      tag_307\n      tag_201\n      jump\t// in\n    tag_307:\n        /* \"#utility.yul\":3541:3658   */\n    tag_306:\n        /* \"#utility.yul\":3690:3755   */\n      tag_308\n        /* \"#utility.yul\":3747:3754   */\n      dup12\n        /* \"#utility.yul\":3738:3744   */\n      dup3\n        /* \"#utility.yul\":3727:3736   */\n      dup13\n        /* \"#utility.yul\":3723:3745   */\n      add\n        /* \"#utility.yul\":3690:3755   */\n      tag_211\n      jump\t// in\n    tag_308:\n        /* \"#utility.yul\":3672:3755   */\n      swap7\n      pop\n      swap7\n      pop\n        /* \"#utility.yul\":3467:3765   */\n      pop\n        /* \"#utility.yul\":3804:3806   */\n      0x40\n        /* \"#utility.yul\":3830:3883   */\n      tag_309\n        /* \"#utility.yul\":3875:3882   */\n      dup12\n        /* \"#utility.yul\":3866:3872   */\n      dup3\n        /* \"#utility.yul\":3855:3864   */\n      dup13\n        /* \"#utility.yul\":3851:3873   */\n      add\n        /* \"#utility.yul\":3830:3883   */\n      tag_205\n      jump\t// in\n    tag_309:\n        /* \"#utility.yul\":3820:3883   */\n      swap5\n      pop\n        /* \"#utility.yul\":3775:3893   */\n      pop\n        /* \"#utility.yul\":3960:3962   */\n      0x60\n        /* \"#utility.yul\":3949:3958   */\n      dup10\n        /* \"#utility.yul\":3945:3963   */\n      add\n        /* \"#utility.yul\":3932:3964   */\n      calldataload\n        /* \"#utility.yul\":3991:4009   */\n      0xffffffffffffffff\n        /* \"#utility.yul\":3983:3989   */\n      dup2\n        /* \"#utility.yul\":3980:4010   */\n      gt\n        /* \"#utility.yul\":3977:4094   */\n      iszero\n      tag_310\n      jumpi\n        /* \"#utility.yul\":4013:4092   */\n      tag_311\n      tag_201\n      jump\t// in\n    tag_311:\n        /* \"#utility.yul\":3977:4094   */\n    tag_310:\n        /* \"#utility.yul\":4126:4191   */\n      tag_312\n        /* \"#utility.yul\":4183:4190   */\n      dup12\n        /* \"#utility.yul\":4174:4180   */\n      dup3\n        /* \"#utility.yul\":4163:4172   */\n      dup13\n        /* \"#utility.yul\":4159:4181   */\n      add\n        /* \"#utility.yul\":4126:4191   */\n      tag_211\n      jump\t// in\n    tag_312:\n        /* \"#utility.yul\":4108:4191   */\n      swap4\n      pop\n      swap4\n      pop\n        /* \"#utility.yul\":3903:4201   */\n      pop\n        /* \"#utility.yul\":4240:4243   */\n      0x80\n        /* \"#utility.yul\":4267:4320   */\n      tag_313\n        /* \"#utility.yul\":4312:4319   */\n      dup12\n        /* \"#utility.yul\":4303:4309   */\n      dup3\n        /* \"#utility.yul\":4292:4301   */\n      dup13\n        /* \"#utility.yul\":4288:4310   */\n      add\n        /* \"#utility.yul\":4267:4320   */\n      tag_213\n      jump\t// in\n    tag_313:\n        /* \"#utility.yul\":4257:4320   */\n      swap2\n      pop\n        /* \"#utility.yul\":4211:4330   */\n      pop\n        /* \"#utility.yul\":2826:4337   */\n      swap3\n      swap6\n      swap9\n      pop\n      swap3\n      swap6\n      swap9\n      swap1\n      swap4\n      swap7\n      pop\n      jump\t// out\n        /* \"#utility.yul\":4343:4461   */\n    tag_214:\n        /* \"#utility.yul\":4430:4454   */\n      tag_315\n        /* \"#utility.yul\":4448:4453   */\n      dup2\n        /* \"#utility.yul\":4430:4454   */\n      tag_203\n      jump\t// in\n    tag_315:\n        /* \"#utility.yul\":4425:4428   */\n      dup3\n        /* \"#utility.yul\":4418:4455   */\n      mstore\n        /* \"#utility.yul\":4343:4461   */\n      pop\n      pop\n      jump\t// out\n        /* \"#utility.yul\":4467:4689   */\n    tag_32:\n        /* \"#utility.yul\":4560:4564   */\n      0x00\n        /* \"#utility.yul\":4598:4600   */\n      0x20\n        /* \"#utility.yul\":4587:4596   */\n      dup3\n        /* \"#utility.yul\":4583:4601   */\n      add\n        /* \"#utility.yul\":4575:4601   */\n      swap1\n      pop\n        /* \"#utility.yul\":4611:4682   */\n      tag_317\n        /* \"#utility.yul\":4679:4680   */\n      0x00\n        /* \"#utility.yul\":4668:4677   */\n      dup4\n        /* \"#utility.yul\":4664:4681   */\n      add\n        /* \"#utility.yul\":4655:4661   */\n      dup5\n        /* \"#utility.yul\":4611:4682   */\n      tag_214\n      jump\t// in\n    tag_317:\n        /* \"#utility.yul\":4467:4689   */\n      swap3\n      swap2\n      pop\n      pop\n      jump\t// out\n        /* \"#utility.yul\":4695:5024   */\n    tag_36:\n        /* \"#utility.yul\":4754:4760   */\n      0x00\n        /* \"#utility.yul\":4803:4805   */\n      0x20\n        /* \"#utility.yul\":4791:4800   */\n      dup3\n        /* \"#utility.yul\":4782:4789   */\n      dup5\n        /* \"#utility.yul\":4778:4801   */\n      sub\n        /* \"#utility.yul\":4774:4806   */\n      slt\n        /* \"#utility.yul\":4771:4890   */\n      iszero\n      tag_319\n      jumpi\n        /* \"#utility.yul\":4809:4888   */\n      tag_320\n      tag_200\n      jump\t// in\n    tag_320:\n        /* \"#utility.yul\":4771:4890   */\n    tag_319:\n        /* \"#utility.yul\":4929:4930   */\n      0x00\n        /* \"#utility.yul\":4954:5007   */\n      tag_321\n        /* \"#utility.yul\":4999:5006   */\n      dup5\n        /* \"#utility.yul\":4990:4996   */\n      dup3\n        /* \"#utility.yul\":4979:4988   */\n      dup6\n        /* \"#utility.yul\":4975:4997   */\n      add\n        /* \"#utility.yul\":4954:5007   */\n      tag_213\n      jump\t// in\n    tag_321:\n        /* \"#utility.yul\":4944:5007   */\n      swap2\n      pop\n        /* \"#utility.yul\":4900:5017   */\n      pop\n        /* \"#utility.yul\":4695:5024   */\n      swap3\n      swap2\n      pop\n      pop\n      jump\t// out\n        /* \"#utility.yul\":5030:5559   */\n    tag_41:\n        /* \"#utility.yul\":5101:5107   */\n      0x00\n        /* \"#utility.yul\":5109:5115   */\n      0x00\n        /* \"#utility.yul\":5158:5160   */\n      0x20\n        /* \"#utility.yul\":5146:5155   */\n      dup4\n        /* \"#utility.yul\":5137:5144   */\n      dup6\n        /* \"#utility.yul\":5133:5156   */\n      sub\n        /* \"#utility.yul\":5129:5161   */\n      slt\n        /* \"#utility.yul\":5126:5245   */\n      iszero\n      tag_323\n      jumpi\n        /* \"#utility.yul\":5164:5243   */\n      tag_324\n      tag_200\n      jump\t// in\n    tag_324:\n        /* \"#utility.yul\":5126:5245   */\n    tag_323:\n        /* \"#utility.yul\":5312:5313   */\n      0x00\n        /* \"#utility.yul\":5301:5310   */\n      dup4\n        /* \"#utility.yul\":5297:5314   */\n      add\n        /* \"#utility.yul\":5284:5315   */\n      calldataload\n        /* \"#utility.yul\":5342:5360   */\n      0xffffffffffffffff\n        /* \"#utility.yul\":5334:5340   */\n      dup2\n        /* \"#utility.yul\":5331:5361   */\n      gt\n        /* \"#utility.yul\":5328:5445   */\n      iszero\n      tag_325\n      jumpi\n        /* \"#utility.yul\":5364:5443   */\n      tag_326\n      tag_201\n      jump\t// in\n    tag_326:\n        /* \"#utility.yul\":5328:5445   */\n    tag_325:\n        /* \"#utility.yul\":5477:5542   */\n      tag_327\n        /* \"#utility.yul\":5534:5541   */\n      dup6\n        /* \"#utility.yul\":5525:5531   */\n      dup3\n        /* \"#utility.yul\":5514:5523   */\n      dup7\n        /* \"#utility.yul\":5510:5532   */\n      add\n        /* \"#utility.yul\":5477:5542   */\n      tag_211\n      jump\t// in\n    tag_327:\n        /* \"#utility.yul\":5459:5542   */\n      swap3\n      pop\n      swap3\n      pop\n        /* \"#utility.yul\":5255:5552   */\n      pop\n        /* \"#utility.yul\":5030:5559   */\n      swap3\n      pop\n      swap3\n      swap1\n      pop\n      jump\t// out\n        /* \"#utility.yul\":5565:5664   */\n    tag_215:\n        /* \"#utility.yul\":5617:5623   */\n      0x00\n        /* \"#utility.yul\":5651:5656   */\n      dup2\n        /* \"#utility.yul\":5645:5657   */\n      mload\n        /* \"#utility.yul\":5635:5657   */\n      swap1\n      pop\n        /* \"#utility.yul\":5565:5664   */\n      swap2\n      swap1\n      pop\n      jump\t// out\n        /* \"#utility.yul\":5670:5829   */\n    tag_216:\n        /* \"#utility.yul\":5744:5755   */\n      0x00\n        /* \"#utility.yul\":5778:5784   */\n      dup3\n        /* \"#utility.yul\":5773:5776   */\n      dup3\n        /* \"#utility.yul\":5766:5785   */\n      mstore\n        /* \"#utility.yul\":5818:5822   */\n      0x20\n        /* \"#utility.yul\":5813:5816   */\n      dup3\n        /* \"#utility.yul\":5809:5823   */\n      add\n        /* \"#utility.yul\":5794:5823   */\n      swap1\n      pop\n        /* \"#utility.yul\":5670:5829   */\n      swap3\n      swap2\n      pop\n      pop\n      jump\t// out\n        /* \"#utility.yul\":5835:5974   */\n    tag_217:\n        /* \"#utility.yul\":5924:5930   */\n      dup3\n        /* \"#utility.yul\":5919:5922   */\n      dup2\n        /* \"#utility.yul\":5914:5917   */\n      dup4\n        /* \"#utility.yul\":5908:5931   */\n      mcopy\n        /* \"#utility.yul\":5965:5966   */\n      0x00\n        /* \"#utility.yul\":5956:5962   */\n      dup4\n        /* \"#utility.yul\":5951:5954   */\n      dup4\n        /* \"#utility.yul\":5947:5963   */\n      add\n        /* \"#utility.yul\":5940:5967   */\n      mstore\n        /* \"#utility.yul\":5835:5974   */\n      pop\n      pop\n      pop\n      jump\t// out\n        /* \"#utility.yul\":5980:6082   */\n    tag_218:\n        /* \"#utility.yul\":6021:6027   */\n      0x00\n        /* \"#utility.yul\":6072:6074   */\n      0x1f\n        /* \"#utility.yul\":6068:6075   */\n      not\n        /* \"#utility.yul\":6063:6065   */\n      0x1f\n        /* \"#utility.yul\":6056:6061   */\n      dup4\n        /* \"#utility.yul\":6052:6066   */\n      add\n        /* \"#utility.yul\":6048:6076   */\n      and\n        /* \"#utility.yul\":6038:6076   */\n      swap1\n      pop\n        /* \"#utility.yul\":5980:6082   */\n      swap2\n      swap1\n      pop\n      jump\t// out\n        /* \"#utility.yul\":6088:6445   */\n    tag_219:\n        /* \"#utility.yul\":6166:6169   */\n      0x00\n        /* \"#utility.yul\":6194:6233   */\n      tag_333\n        /* \"#utility.yul\":6227:6232   */\n      dup3\n        /* \"#utility.yul\":6194:6233   */\n      tag_215\n      jump\t// in\n    tag_333:\n        /* \"#utility.yul\":6249:6310   */\n      tag_334\n        /* \"#utility.yul\":6303:6309   */\n      dup2\n        /* \"#utility.yul\":6298:6301   */\n      dup6\n        /* \"#utility.yul\":6249:6310   */\n      tag_216\n      jump\t// in\n    tag_334:\n        /* \"#utility.yul\":6242:6310   */\n      swap4\n      pop\n        /* \"#utility.yul\":6319:6384   */\n      tag_335\n        /* \"#utility.yul\":6377:6383   */\n      dup2\n        /* \"#utility.yul\":6372:6375   */\n      dup6\n        /* \"#utility.yul\":6365:6369   */\n      0x20\n        /* \"#utility.yul\":6358:6363   */\n      dup7\n        /* \"#utility.yul\":6354:6370   */\n      add\n        /* \"#utility.yul\":6319:6384   */\n      tag_217\n      jump\t// in\n    tag_335:\n        /* \"#utility.yul\":6409:6438   */\n      tag_336\n        /* \"#utility.yul\":6431:6437   */\n      dup2\n        /* \"#utility.yul\":6409:6438   */\n      tag_218\n      jump\t// in\n    tag_336:\n        /* \"#utility.yul\":6404:6407   */\n      dup5\n        /* \"#utility.yul\":6400:6439   */\n      add\n        /* \"#utility.yul\":6393:6439   */\n      swap2\n      pop\n        /* \"#utility.yul\":6170:6445   */\n      pop\n        /* \"#utility.yul\":6088:6445   */\n      swap3\n      swap2\n      pop\n      pop\n      jump\t// out\n        /* \"#utility.yul\":6451:6559   */\n    tag_220:\n        /* \"#utility.yul\":6528:6552   */\n      tag_338\n        /* \"#utility.yul\":6546:6551   */\n      dup2\n        /* \"#utility.yul\":6528:6552   */\n      tag_203\n      jump\t// in\n    tag_338:\n        /* \"#utility.yul\":6523:6526   */\n      dup3\n        /* \"#utility.yul\":6516:6553   */\n      mstore\n        /* \"#utility.yul\":6451:6559   */\n      pop\n      pop\n      jump\t// out\n        /* \"#utility.yul\":6565:6673   */\n    tag_221:\n        /* \"#utility.yul\":6642:6666   */\n      tag_340\n        /* \"#utility.yul\":6660:6665   */\n      dup2\n        /* \"#utility.yul\":6642:6666   */\n      tag_206\n      jump\t// in\n    tag_340:\n        /* \"#utility.yul\":6637:6640   */\n      dup3\n        /* \"#utility.yul\":6630:6667   */\n      mstore\n        /* \"#utility.yul\":6565:6673   */\n      pop\n      pop\n      jump\t// out\n        /* \"#utility.yul\":6751:8226   */\n    tag_222:\n        /* \"#utility.yul\":6866:6869   */\n      0x00\n        /* \"#utility.yul\":6902:6906   */\n      0xc0\n        /* \"#utility.yul\":6897:6900   */\n      dup4\n        /* \"#utility.yul\":6893:6907   */\n      add\n        /* \"#utility.yul\":6995:6999   */\n      0x00\n        /* \"#utility.yul\":6988:6993   */\n      dup4\n        /* \"#utility.yul\":6984:7000   */\n      add\n        /* \"#utility.yul\":6978:7001   */\n      mload\n        /* \"#utility.yul\":7048:7051   */\n      dup5\n        /* \"#utility.yul\":7042:7046   */\n      dup3\n        /* \"#utility.yul\":7038:7052   */\n      sub\n        /* \"#utility.yul\":7031:7035   */\n      0x00\n        /* \"#utility.yul\":7026:7029   */\n      dup7\n        /* \"#utility.yul\":7022:7036   */\n      add\n        /* \"#utility.yul\":7015:7053   */\n      mstore\n        /* \"#utility.yul\":7074:7147   */\n      tag_342\n        /* \"#utility.yul\":7142:7146   */\n      dup3\n        /* \"#utility.yul\":7128:7140   */\n      dup3\n        /* \"#utility.yul\":7074:7147   */\n      tag_219\n      jump\t// in\n    tag_342:\n        /* \"#utility.yul\":7066:7147   */\n      swap2\n      pop\n        /* \"#utility.yul\":6917:7158   */\n      pop\n        /* \"#utility.yul\":7240:7244   */\n      0x20\n        /* \"#utility.yul\":7233:7238   */\n      dup4\n        /* \"#utility.yul\":7229:7245   */\n      add\n        /* \"#utility.yul\":7223:7246   */\n      mload\n        /* \"#utility.yul\":7293:7296   */\n      dup5\n        /* \"#utility.yul\":7287:7291   */\n      dup3\n        /* \"#utility.yul\":7283:7297   */\n      sub\n        /* \"#utility.yul\":7276:7280   */\n      0x20\n        /* \"#utility.yul\":7271:7274   */\n      dup7\n        /* \"#utility.yul\":7267:7281   */\n      add\n        /* \"#utility.yul\":7260:7298   */\n      mstore\n        /* \"#utility.yul\":7319:7392   */\n      tag_343\n        /* \"#utility.yul\":7387:7391   */\n      dup3\n        /* \"#utility.yul\":7373:7385   */\n      dup3\n        /* \"#utility.yul\":7319:7392   */\n      tag_219\n      jump\t// in\n    tag_343:\n        /* \"#utility.yul\":7311:7392   */\n      swap2\n      pop\n        /* \"#utility.yul\":7168:7403   */\n      pop\n        /* \"#utility.yul\":7487:7491   */\n      0x40\n        /* \"#utility.yul\":7480:7485   */\n      dup4\n        /* \"#utility.yul\":7476:7492   */\n      add\n        /* \"#utility.yul\":7470:7493   */\n      mload\n        /* \"#utility.yul\":7506:7569   */\n      tag_344\n        /* \"#utility.yul\":7563:7567   */\n      0x40\n        /* \"#utility.yul\":7558:7561   */\n      dup7\n        /* \"#utility.yul\":7554:7568   */\n      add\n        /* \"#utility.yul\":7540:7552   */\n      dup3\n        /* \"#utility.yul\":7506:7569   */\n      tag_220\n      jump\t// in\n    tag_344:\n        /* \"#utility.yul\":7413:7579   */\n      pop\n        /* \"#utility.yul\":7672:7676   */\n      0x60\n        /* \"#utility.yul\":7665:7670   */\n      dup4\n        /* \"#utility.yul\":7661:7677   */\n      add\n        /* \"#utility.yul\":7655:7678   */\n      mload\n        /* \"#utility.yul\":7725:7728   */\n      dup5\n        /* \"#utility.yul\":7719:7723   */\n      dup3\n        /* \"#utility.yul\":7715:7729   */\n      sub\n        /* \"#utility.yul\":7708:7712   */\n      0x60\n        /* \"#utility.yul\":7703:7706   */\n      dup7\n        /* \"#utility.yul\":7699:7713   */\n      add\n        /* \"#utility.yul\":7692:7730   */\n      mstore\n        /* \"#utility.yul\":7751:7824   */\n      tag_345\n        /* \"#utility.yul\":7819:7823   */\n      dup3\n        /* \"#utility.yul\":7805:7817   */\n      dup3\n        /* \"#utility.yul\":7751:7824   */\n      tag_219\n      jump\t// in\n    tag_345:\n        /* \"#utility.yul\":7743:7824   */\n      swap2\n      pop\n        /* \"#utility.yul\":7589:7835   */\n      pop\n        /* \"#utility.yul\":7927:7931   */\n      0x80\n        /* \"#utility.yul\":7920:7925   */\n      dup4\n        /* \"#utility.yul\":7916:7932   */\n      add\n        /* \"#utility.yul\":7910:7933   */\n      mload\n        /* \"#utility.yul\":7946:8009   */\n      tag_346\n        /* \"#utility.yul\":8003:8007   */\n      0x80\n        /* \"#utility.yul\":7998:8001   */\n      dup7\n        /* \"#utility.yul\":7994:8008   */\n      add\n        /* \"#utility.yul\":7980:7992   */\n      dup3\n        /* \"#utility.yul\":7946:8009   */\n      tag_221\n      jump\t// in\n    tag_346:\n        /* \"#utility.yul\":7845:8019   */\n      pop\n        /* \"#utility.yul\":8107:8111   */\n      0xa0\n        /* \"#utility.yul\":8100:8105   */\n      dup4\n        /* \"#utility.yul\":8096:8112   */\n      add\n        /* \"#utility.yul\":8090:8113   */\n      mload\n        /* \"#utility.yul\":8126:8189   */\n      tag_347\n        /* \"#utility.yul\":8183:8187   */\n      0xa0\n        /* \"#utility.yul\":8178:8181   */\n      dup7\n        /* \"#utility.yul\":8174:8188   */\n      add\n        /* \"#utility.yul\":8160:8172   */\n      dup3\n        /* \"#utility.yul\":8126:8189   */\n      tag_221\n      jump\t// in\n    tag_347:\n        /* \"#utility.yul\":8029:8199   */\n      pop\n        /* \"#utility.yul\":8216:8220   */\n      dup1\n        /* \"#utility.yul\":8209:8220   */\n      swap2\n      pop\n        /* \"#utility.yul\":6871:8226   */\n      pop\n        /* \"#utility.yul\":6751:8226   */\n      swap3\n      swap2\n      pop\n      pop\n      jump\t// out\n        /* \"#utility.yul\":8232:8597   */\n    tag_44:\n        /* \"#utility.yul\":8371:8375   */\n      0x00\n        /* \"#utility.yul\":8409:8411   */\n      0x20\n        /* \"#utility.yul\":8398:8407   */\n      dup3\n        /* \"#utility.yul\":8394:8412   */\n      add\n        /* \"#utility.yul\":8386:8412   */\n      swap1\n      pop\n        /* \"#utility.yul\":8458:8467   */\n      dup2\n        /* \"#utility.yul\":8452:8456   */\n      dup2\n        /* \"#utility.yul\":8448:8468   */\n      sub\n        /* \"#utility.yul\":8444:8445   */\n      0x00\n        /* \"#utility.yul\":8433:8442   */\n      dup4\n        /* \"#utility.yul\":8429:8446   */\n      add\n        /* \"#utility.yul\":8422:8469   */\n      mstore\n        /* \"#utility.yul\":8486:8590   */\n      tag_349\n        /* \"#utility.yul\":8585:8589   */\n      dup2\n        /* \"#utility.yul\":8576:8582   */\n      dup5\n        /* \"#utility.yul\":8486:8590   */\n      tag_222\n      jump\t// in\n    tag_349:\n        /* \"#utility.yul\":8478:8590   */\n      swap1\n      pop\n        /* \"#utility.yul\":8232:8597   */\n      swap3\n      swap2\n      pop\n      pop\n      jump\t// out\n        /* \"#utility.yul\":8603:9622   */\n    tag_55:\n        /* \"#utility.yul\":8704:8710   */\n      0x00\n        /* \"#utility.yul\":8712:8718   */\n      0x00\n        /* \"#utility.yul\":8720:8726   */\n      0x00\n        /* \"#utility.yul\":8728:8734   */\n      0x00\n        /* \"#utility.yul\":8736:8742   */\n      0x00\n        /* \"#utility.yul\":8785:8787   */\n      0x60\n        /* \"#utility.yul\":8773:8782   */\n      dup7\n        /* \"#utility.yul\":8764:8771   */\n      dup9\n        /* \"#utility.yul\":8760:8783   */\n      sub\n        /* \"#utility.yul\":8756:8788   */\n      slt\n        /* \"#utility.yul\":8753:8872   */\n      iszero\n      tag_351\n      jumpi\n        /* \"#utility.yul\":8791:8870   */\n      tag_352\n      tag_200\n      jump\t// in\n    tag_352:\n        /* \"#utility.yul\":8753:8872   */\n    tag_351:\n        /* \"#utility.yul\":8939:8940   */\n      0x00\n        /* \"#utility.yul\":8928:8937   */\n      dup7\n        /* \"#utility.yul\":8924:8941   */\n      add\n        /* \"#utility.yul\":8911:8942   */\n      calldataload\n        /* \"#utility.yul\":8969:8987   */\n      0xffffffffffffffff\n        /* \"#utility.yul\":8961:8967   */\n      dup2\n        /* \"#utility.yul\":8958:8988   */\n      gt\n        /* \"#utility.yul\":8955:9072   */\n      iszero\n      tag_353\n      jumpi\n        /* \"#utility.yul\":8991:9070   */\n      tag_354\n      tag_201\n      jump\t// in\n    tag_354:\n        /* \"#utility.yul\":8955:9072   */\n    tag_353:\n        /* \"#utility.yul\":9104:9169   */\n      tag_355\n        /* \"#utility.yul\":9161:9168   */\n      dup9\n        /* \"#utility.yul\":9152:9158   */\n      dup3\n        /* \"#utility.yul\":9141:9150   */\n      dup10\n        /* \"#utility.yul\":9137:9159   */\n      add\n        /* \"#utility.yul\":9104:9169   */\n      tag_211\n      jump\t// in\n    tag_355:\n        /* \"#utility.yul\":9086:9169   */\n      swap6\n      pop\n      swap6\n      pop\n        /* \"#utility.yul\":8882:9179   */\n      pop\n        /* \"#utility.yul\":9246:9248   */\n      0x20\n        /* \"#utility.yul\":9235:9244   */\n      dup7\n        /* \"#utility.yul\":9231:9249   */\n      add\n        /* \"#utility.yul\":9218:9250   */\n      calldataload\n        /* \"#utility.yul\":9277:9295   */\n      0xffffffffffffffff\n        /* \"#utility.yul\":9269:9275   */\n      dup2\n        /* \"#utility.yul\":9266:9296   */\n      gt\n        /* \"#utility.yul\":9263:9380   */\n      iszero\n      tag_356\n      jumpi\n        /* \"#utility.yul\":9299:9378   */\n      tag_357\n      tag_201\n      jump\t// in\n    tag_357:\n        /* \"#utility.yul\":9263:9380   */\n    tag_356:\n        /* \"#utility.yul\":9412:9477   */\n      tag_358\n        /* \"#utility.yul\":9469:9476   */\n      dup9\n        /* \"#utility.yul\":9460:9466   */\n      dup3\n        /* \"#utility.yul\":9449:9458   */\n      dup10\n        /* \"#utility.yul\":9445:9467   */\n      add\n        /* \"#utility.yul\":9412:9477   */\n      tag_211\n      jump\t// in\n    tag_358:\n        /* \"#utility.yul\":9394:9477   */\n      swap4\n      pop\n      swap4\n      pop\n        /* \"#utility.yul\":9189:9487   */\n      pop\n        /* \"#utility.yul\":9526:9528   */\n      0x40\n        /* \"#utility.yul\":9552:9605   */\n      tag_359\n        /* \"#utility.yul\":9597:9604   */\n      dup9\n        /* \"#utility.yul\":9588:9594   */\n      dup3\n        /* \"#utility.yul\":9577:9586   */\n      dup10\n        /* \"#utility.yul\":9573:9595   */\n      add\n        /* \"#utility.yul\":9552:9605   */\n      tag_213\n      jump\t// in\n    tag_359:\n        /* \"#utility.yul\":9542:9605   */\n      swap2\n      pop\n        /* \"#utility.yul\":9497:9615   */\n      pop\n        /* \"#utility.yul\":8603:9622   */\n      swap3\n      swap6\n      pop\n      swap3\n      swap6\n      swap1\n      swap4\n      pop\n      jump\t// out\n        /* \"#utility.yul\":9628:9808   */\n    tag_223:\n        /* \"#utility.yul\":9676:9753   */\n      0x4e487b7100000000000000000000000000000000000000000000000000000000\n        /* \"#utility.yul\":9673:9674   */\n      0x00\n        /* \"#utility.yul\":9666:9754   */\n      mstore\n        /* \"#utility.yul\":9773:9777   */\n      0x22\n        /* \"#utility.yul\":9770:9771   */\n      0x04\n        /* \"#utility.yul\":9763:9778   */\n      mstore\n        /* \"#utility.yul\":9797:9801   */\n      0x24\n        /* \"#utility.yul\":9794:9795   */\n      0x00\n        /* \"#utility.yul\":9787:9802   */\n      revert\n        /* \"#utility.yul\":9814:10134   */\n    tag_68:\n        /* \"#utility.yul\":9858:9864   */\n      0x00\n        /* \"#utility.yul\":9895:9896   */\n      0x02\n        /* \"#utility.yul\":9889:9893   */\n      dup3\n        /* \"#utility.yul\":9885:9897   */\n      div\n        /* \"#utility.yul\":9875:9897   */\n      swap1\n      pop\n        /* \"#utility.yul\":9942:9943   */\n      0x01\n        /* \"#utility.yul\":9936:9940   */\n      dup3\n        /* \"#utility.yul\":9932:9944   */\n      and\n        /* \"#utility.yul\":9963:9981   */\n      dup1\n        /* \"#utility.yul\":9953:10034   */\n      tag_362\n      jumpi\n        /* \"#utility.yul\":10019:10023   */\n      0x7f\n        /* \"#utility.yul\":10011:10017   */\n      dup3\n        /* \"#utility.yul\":10007:10024   */\n      and\n        /* \"#utility.yul\":9997:10024   */\n      swap2\n      pop\n        /* \"#utility.yul\":9953:10034   */\n    tag_362:\n        /* \"#utility.yul\":10081:10083   */\n      0x20\n        /* \"#utility.yul\":10073:10079   */\n      dup3\n        /* \"#utility.yul\":10070:10084   */\n      lt\n        /* \"#utility.yul\":10050:10068   */\n      dup2\n        /* \"#utility.yul\":10047:10085   */\n      sub\n        /* \"#utility.yul\":10044:10128   */\n      tag_363\n      jumpi\n        /* \"#utility.yul\":10100:10118   */\n      tag_364\n      tag_223\n      jump\t// in\n    tag_364:\n        /* \"#utility.yul\":10044:10128   */\n    tag_363:\n        /* \"#utility.yul\":9865:10134   */\n      pop\n        /* \"#utility.yul\":9814:10134   */\n      swap2\n      swap1\n      pop\n      jump\t// out\n        /* \"#utility.yul\":10140:10309   */\n    tag_224:\n        /* \"#utility.yul\":10224:10235   */\n      0x00\n        /* \"#utility.yul\":10258:10264   */\n      dup3\n        /* \"#utility.yul\":10253:10256   */\n      dup3\n        /* \"#utility.yul\":10246:10265   */\n      mstore\n        /* \"#utility.yul\":10298:10302   */\n      0x20\n        /* \"#utility.yul\":10293:10296   */\n      dup3\n        /* \"#utility.yul\":10289:10303   */\n      add\n        /* \"#utility.yul\":10274:10303   */\n      swap1\n      pop\n        /* \"#utility.yul\":10140:10309   */\n      swap3\n      swap2\n      pop\n      pop\n      jump\t// out\n        /* \"#utility.yul\":10315:10480   */\n    tag_225:\n        /* \"#utility.yul\":10455:10472   */\n      0x636f6d70616e79206d697373696e670000000000000000000000000000000000\n        /* \"#utility.yul\":10451:10452   */\n      0x00\n        /* \"#utility.yul\":10443:10449   */\n      dup3\n        /* \"#utility.yul\":10439:10453   */\n      add\n        /* \"#utility.yul\":10432:10473   */\n      mstore\n        /* \"#utility.yul\":10315:10480   */\n      pop\n      jump\t// out\n        /* \"#utility.yul\":10486:10852   */\n    tag_226:\n        /* \"#utility.yul\":10628:10631   */\n      0x00\n        /* \"#utility.yul\":10649:10716   */\n      tag_368\n        /* \"#utility.yul\":10713:10715   */\n      0x0f\n        /* \"#utility.yul\":10708:10711   */\n      dup4\n        /* \"#utility.yul\":10649:10716   */\n      tag_224\n      jump\t// in\n    tag_368:\n        /* \"#utility.yul\":10642:10716   */\n      swap2\n      pop\n        /* \"#utility.yul\":10725:10818   */\n      tag_369\n        /* \"#utility.yul\":10814:10817   */\n      dup3\n        /* \"#utility.yul\":10725:10818   */\n      tag_225\n      jump\t// in\n    tag_369:\n        /* \"#utility.yul\":10843:10845   */\n      0x20\n        /* \"#utility.yul\":10838:10841   */\n      dup3\n        /* \"#utility.yul\":10834:10846   */\n      add\n        /* \"#utility.yul\":10827:10846   */\n      swap1\n      pop\n        /* \"#utility.yul\":10486:10852   */\n      swap2\n      swap1\n      pop\n      jump\t// out\n        /* \"#utility.yul\":10858:11277   */\n    tag_85:\n        /* \"#utility.yul\":11024:11028   */\n      0x00\n        /* \"#utility.yul\":11062:11064   */\n      0x20\n        /* \"#utility.yul\":11051:11060   */\n      dup3\n        /* \"#utility.yul\":11047:11065   */\n      add\n        /* \"#utility.yul\":11039:11065   */\n      swap1\n      pop\n        /* \"#utility.yul\":11111:11120   */\n      dup2\n        /* \"#utility.yul\":11105:11109   */\n      dup2\n        /* \"#utility.yul\":11101:11121   */\n      sub\n        /* \"#utility.yul\":11097:11098   */\n      0x00\n        /* \"#utility.yul\":11086:11095   */\n      dup4\n        /* \"#utility.yul\":11082:11099   */\n      add\n        /* \"#utility.yul\":11075:11122   */\n      mstore\n        /* \"#utility.yul\":11139:11270   */\n      tag_371\n        /* \"#utility.yul\":11265:11269   */\n      dup2\n        /* \"#utility.yul\":11139:11270   */\n      tag_226\n      jump\t// in\n    tag_371:\n        /* \"#utility.yul\":11131:11270   */\n      swap1\n      pop\n        /* \"#utility.yul\":10858:11277   */\n      swap2\n      swap1\n      pop\n      jump\t// out\n        /* \"#utility.yul\":11283:11442   */\n    tag_227:\n        /* \"#utility.yul\":11423:11434   */\n      0x4e6f74206f776e65720000000000000000000000000000000000000000000000\n        /* \"#utility.yul\":11419:11420   */\n      0x00\n        /* \"#utility.yul\":11411:11417   */\n      dup3\n        /* \"#utility.yul\":11407:11421   */\n      add\n        /* \"#utility.yul\":11400:11435   */\n      mstore\n        /* \"#utility.yul\":11283:11442   */\n      pop\n      jump\t// out\n        /* \"#utility.yul\":11448:11813   */\n    tag_228:\n        /* \"#utility.yul\":11590:11593   */\n      0x00\n        /* \"#utility.yul\":11611:11677   */\n      tag_374\n        /* \"#utility.yul\":11675:11676   */\n      0x09\n        /* \"#utility.yul\":11670:11673   */\n      dup4\n        /* \"#utility.yul\":11611:11677   */\n      tag_224\n      jump\t// in\n    tag_374:\n        /* \"#utility.yul\":11604:11677   */\n      swap2\n      pop\n        /* \"#utility.yul\":11686:11779   */\n      tag_375\n        /* \"#utility.yul\":11775:11778   */\n      dup3\n        /* \"#utility.yul\":11686:11779   */\n      tag_227\n      jump\t// in\n    tag_375:\n        /* \"#utility.yul\":11804:11806   */\n      0x20\n        /* \"#utility.yul\":11799:11802   */\n      dup3\n        /* \"#utility.yul\":11795:11807   */\n      add\n        /* \"#utility.yul\":11788:11807   */\n      swap1\n      pop\n        /* \"#utility.yul\":11448:11813   */\n      swap2\n      swap1\n      pop\n      jump\t// out\n        /* \"#utility.yul\":11819:12238   */\n    tag_89:\n        /* \"#utility.yul\":11985:11989   */\n      0x00\n        /* \"#utility.yul\":12023:12025   */\n      0x20\n        /* \"#utility.yul\":12012:12021   */\n      dup3\n        /* \"#utility.yul\":12008:12026   */\n      add\n        /* \"#utility.yul\":12000:12026   */\n      swap1\n      pop\n        /* \"#utility.yul\":12072:12081   */\n      dup2\n        /* \"#utility.yul\":12066:12070   */\n      dup2\n        /* \"#utility.yul\":12062:12082   */\n      sub\n        /* \"#utility.yul\":12058:12059   */\n      0x00\n        /* \"#utility.yul\":12047:12056   */\n      dup4\n        /* \"#utility.yul\":12043:12060   */\n      add\n        /* \"#utility.yul\":12036:12083   */\n      mstore\n        /* \"#utility.yul\":12100:12231   */\n      tag_377\n        /* \"#utility.yul\":12226:12230   */\n      dup2\n        /* \"#utility.yul\":12100:12231   */\n      tag_228\n      jump\t// in\n    tag_377:\n        /* \"#utility.yul\":12092:12231   */\n      swap1\n      pop\n        /* \"#utility.yul\":11819:12238   */\n      swap2\n      swap1\n      pop\n      jump\t// out\n        /* \"#utility.yul\":12244:12391   */\n    tag_229:\n        /* \"#utility.yul\":12345:12356   */\n      0x00\n        /* \"#utility.yul\":12382:12385   */\n      dup2\n        /* \"#utility.yul\":12367:12385   */\n      swap1\n      pop\n        /* \"#utility.yul\":12244:12391   */\n      swap3\n      swap2\n      pop\n      pop\n      jump\t// out\n        /* \"#utility.yul\":12397:12545   */\n    tag_230:\n        /* \"#utility.yul\":12495:12501   */\n      dup3\n        /* \"#utility.yul\":12490:12493   */\n      dup2\n        /* \"#utility.yul\":12485:12488   */\n      dup4\n        /* \"#utility.yul\":12472:12502   */\n      calldatacopy\n        /* \"#utility.yul\":12536:12537   */\n      0x00\n        /* \"#utility.yul\":12527:12533   */\n      dup4\n        /* \"#utility.yul\":12522:12525   */\n      dup4\n        /* \"#utility.yul\":12518:12534   */\n      add\n        /* \"#utility.yul\":12511:12538   */\n      mstore\n        /* \"#utility.yul\":12397:12545   */\n      pop\n      pop\n      pop\n      jump\t// out\n        /* \"#utility.yul\":12573:12900   */\n    tag_231:\n        /* \"#utility.yul\":12687:12690   */\n      0x00\n        /* \"#utility.yul\":12708:12796   */\n      tag_381\n        /* \"#utility.yul\":12789:12795   */\n      dup4\n        /* \"#utility.yul\":12784:12787   */\n      dup6\n        /* \"#utility.yul\":12708:12796   */\n      tag_229\n      jump\t// in\n    tag_381:\n        /* \"#utility.yul\":12701:12796   */\n      swap4\n      pop\n        /* \"#utility.yul\":12806:12862   */\n      tag_382\n        /* \"#utility.yul\":12855:12861   */\n      dup4\n        /* \"#utility.yul\":12850:12853   */\n      dup6\n        /* \"#utility.yul\":12843:12848   */\n      dup5\n        /* \"#utility.yul\":12806:12862   */\n      tag_230\n      jump\t// in\n    tag_382:\n        /* \"#utility.yul\":12887:12893   */\n      dup3\n        /* \"#utility.yul\":12882:12885   */\n      dup5\n        /* \"#utility.yul\":12878:12894   */\n      add\n        /* \"#utility.yul\":12871:12894   */\n      swap1\n      pop\n        /* \"#utility.yul\":12573:12900   */\n      swap4\n      swap3\n      pop\n      pop\n      pop\n      jump\t// out\n        /* \"#utility.yul\":12906:13197   */\n    tag_101:\n        /* \"#utility.yul\":13046:13049   */\n      0x00\n        /* \"#utility.yul\":13068:13171   */\n      tag_384\n        /* \"#utility.yul\":13167:13170   */\n      dup3\n        /* \"#utility.yul\":13158:13164   */\n      dup5\n        /* \"#utility.yul\":13150:13156   */\n      dup7\n        /* \"#utility.yul\":13068:13171   */\n      tag_231\n      jump\t// in\n    tag_384:\n        /* \"#utility.yul\":13061:13171   */\n      swap2\n      pop\n        /* \"#utility.yul\":13188:13191   */\n      dup2\n        /* \"#utility.yul\":13181:13191   */\n      swap1\n      pop\n        /* \"#utility.yul\":12906:13197   */\n      swap4\n      swap3\n      pop\n      pop\n      pop\n      jump\t// out\n        /* \"#utility.yul\":13203:13375   */\n    tag_232:\n        /* \"#utility.yul\":13343:13367   */\n      0x696e73756666696369656e74206d73672e76616c756500000000000000000000\n        /* \"#utility.yul\":13339:13340   */\n      0x00\n        /* \"#utility.yul\":13331:13337   */\n      dup3\n        /* \"#utility.yul\":13327:13341   */\n      add\n        /* \"#utility.yul\":13320:13368   */\n      mstore\n        /* \"#utility.yul\":13203:13375   */\n      pop\n      jump\t// out\n        /* \"#utility.yul\":13381:13747   */\n    tag_233:\n        /* \"#utility.yul\":13523:13526   */\n      0x00\n        /* \"#utility.yul\":13544:13611   */\n      tag_387\n        /* \"#utility.yul\":13608:13610   */\n      0x16\n        /* \"#utility.yul\":13603:13606   */\n      dup4\n        /* \"#utility.yul\":13544:13611   */\n      tag_224\n      jump\t// in\n    tag_387:\n        /* \"#utility.yul\":13537:13611   */\n      swap2\n      pop\n        /* \"#utility.yul\":13620:13713   */\n      tag_388\n        /* \"#utility.yul\":13709:13712   */\n      dup3\n        /* \"#utility.yul\":13620:13713   */\n      tag_232\n      jump\t// in\n    tag_388:\n        /* \"#utility.yul\":13738:13740   */\n      0x20\n        /* \"#utility.yul\":13733:13736   */\n      dup3\n        /* \"#utility.yul\":13729:13741   */\n      add\n        /* \"#utility.yul\":13722:13741   */\n      swap1\n      pop\n        /* \"#utility.yul\":13381:13747   */\n      swap2\n      swap1\n      pop\n      jump\t// out\n        /* \"#utility.yul\":13753:14172   */\n    tag_125:\n        /* \"#utility.yul\":13919:13923   */\n      0x00\n        /* \"#utility.yul\":13957:13959   */\n      0x20\n        /* \"#utility.yul\":13946:13955   */\n      dup3\n        /* \"#utility.yul\":13942:13960   */\n      add\n        /* \"#utility.yul\":13934:13960   */\n      swap1\n      pop\n        /* \"#utility.yul\":14006:14015   */\n      dup2\n        /* \"#utility.yul\":14000:14004   */\n      dup2\n        /* \"#utility.yul\":13996:14016   */\n      sub\n        /* \"#utility.yul\":13992:13993   */\n      0x00\n        /* \"#utility.yul\":13981:13990   */\n      dup4\n        /* \"#utility.yul\":13977:13994   */\n      add\n        /* \"#utility.yul\":13970:14017   */\n      mstore\n        /* \"#utility.yul\":14034:14165   */\n      tag_390\n        /* \"#utility.yul\":14160:14164   */\n      dup2\n        /* \"#utility.yul\":14034:14165   */\n      tag_233\n      jump\t// in\n    tag_390:\n        /* \"#utility.yul\":14026:14165   */\n      swap1\n      pop\n        /* \"#utility.yul\":13753:14172   */\n      swap2\n      swap1\n      pop\n      jump\t// out\n        /* \"#utility.yul\":14178:14347   */\n    tag_234:\n        /* \"#utility.yul\":14318:14339   */\n      0x6669726562617365496420726571756972656400000000000000000000000000\n        /* \"#utility.yul\":14314:14315   */\n      0x00\n        /* \"#utility.yul\":14306:14312   */\n      dup3\n        /* \"#utility.yul\":14302:14316   */\n      add\n        /* \"#utility.yul\":14295:14340   */\n      mstore\n        /* \"#utility.yul\":14178:14347   */\n      pop\n      jump\t// out\n        /* \"#utility.yul\":14353:14719   */\n    tag_235:\n        /* \"#utility.yul\":14495:14498   */\n      0x00\n        /* \"#utility.yul\":14516:14583   */\n      tag_393\n        /* \"#utility.yul\":14580:14582   */\n      0x13\n        /* \"#utility.yul\":14575:14578   */\n      dup4\n        /* \"#utility.yul\":14516:14583   */\n      tag_224\n      jump\t// in\n    tag_393:\n        /* \"#utility.yul\":14509:14583   */\n      swap2\n      pop\n        /* \"#utility.yul\":14592:14685   */\n      tag_394\n        /* \"#utility.yul\":14681:14684   */\n      dup3\n        /* \"#utility.yul\":14592:14685   */\n      tag_234\n      jump\t// in\n    tag_394:\n        /* \"#utility.yul\":14710:14712   */\n      0x20\n        /* \"#utility.yul\":14705:14708   */\n      dup3\n        /* \"#utility.yul\":14701:14713   */\n      add\n        /* \"#utility.yul\":14694:14713   */\n      swap1\n      pop\n        /* \"#utility.yul\":14353:14719   */\n      swap2\n      swap1\n      pop\n      jump\t// out\n        /* \"#utility.yul\":14725:15144   */\n    tag_135:\n        /* \"#utility.yul\":14891:14895   */\n      0x00\n        /* \"#utility.yul\":14929:14931   */\n      0x20\n        /* \"#utility.yul\":14918:14927   */\n      dup3\n        /* \"#utility.yul\":14914:14932   */\n      add\n        /* \"#utility.yul\":14906:14932   */\n      swap1\n      pop\n        /* \"#utility.yul\":14978:14987   */\n      dup2\n        /* \"#utility.yul\":14972:14976   */\n      dup2\n        /* \"#utility.yul\":14968:14988   */\n      sub\n        /* \"#utility.yul\":14964:14965   */\n      0x00\n        /* \"#utility.yul\":14953:14962   */\n      dup4\n        /* \"#utility.yul\":14949:14966   */\n      add\n        /* \"#utility.yul\":14942:14989   */\n      mstore\n        /* \"#utility.yul\":15006:15137   */\n      tag_396\n        /* \"#utility.yul\":15132:15136   */\n      dup2\n        /* \"#utility.yul\":15006:15137   */\n      tag_235\n      jump\t// in\n    tag_396:\n        /* \"#utility.yul\":14998:15137   */\n      swap1\n      pop\n        /* \"#utility.yul\":14725:15144   */\n      swap2\n      swap1\n      pop\n      jump\t// out\n        /* \"#utility.yul\":15150:15312   */\n    tag_236:\n        /* \"#utility.yul\":15290:15304   */\n      0x6361702072657175697265640000000000000000000000000000000000000000\n        /* \"#utility.yul\":15286:15287   */\n      0x00\n        /* \"#utility.yul\":15278:15284   */\n      dup3\n        /* \"#utility.yul\":15274:15288   */\n      add\n        /* \"#utility.yul\":15267:15305   */\n      mstore\n        /* \"#utility.yul\":15150:15312   */\n      pop\n      jump\t// out\n        /* \"#utility.yul\":15318:15684   */\n    tag_237:\n        /* \"#utility.yul\":15460:15463   */\n      0x00\n        /* \"#utility.yul\":15481:15548   */\n      tag_399\n        /* \"#utility.yul\":15545:15547   */\n      0x0c\n        /* \"#utility.yul\":15540:15543   */\n      dup4\n        /* \"#utility.yul\":15481:15548   */\n      tag_224\n      jump\t// in\n    tag_399:\n        /* \"#utility.yul\":15474:15548   */\n      swap2\n      pop\n        /* \"#utility.yul\":15557:15650   */\n      tag_400\n        /* \"#utility.yul\":15646:15649   */\n      dup3\n        /* \"#utility.yul\":15557:15650   */\n      tag_236\n      jump\t// in\n    tag_400:\n        /* \"#utility.yul\":15675:15677   */\n      0x20\n        /* \"#utility.yul\":15670:15673   */\n      dup3\n        /* \"#utility.yul\":15666:15678   */\n      add\n        /* \"#utility.yul\":15659:15678   */\n      swap1\n      pop\n        /* \"#utility.yul\":15318:15684   */\n      swap2\n      swap1\n      pop\n      jump\t// out\n        /* \"#utility.yul\":15690:16109   */\n    tag_142:\n        /* \"#utility.yul\":15856:15860   */\n      0x00\n        /* \"#utility.yul\":15894:15896   */\n      0x20\n        /* \"#utility.yul\":15883:15892   */\n      dup3\n        /* \"#utility.yul\":15879:15897   */\n      add\n        /* \"#utility.yul\":15871:15897   */\n      swap1\n      pop\n        /* \"#utility.yul\":15943:15952   */\n      dup2\n        /* \"#utility.yul\":15937:15941   */\n      dup2\n        /* \"#utility.yul\":15933:15953   */\n      sub\n        /* \"#utility.yul\":15929:15930   */\n      0x00\n        /* \"#utility.yul\":15918:15927   */\n      dup4\n        /* \"#utility.yul\":15914:15931   */\n      add\n        /* \"#utility.yul\":15907:15954   */\n      mstore\n        /* \"#utility.yul\":15971:16102   */\n      tag_402\n        /* \"#utility.yul\":16097:16101   */\n      dup2\n        /* \"#utility.yul\":15971:16102   */\n      tag_237\n      jump\t// in\n    tag_402:\n        /* \"#utility.yul\":15963:16102   */\n      swap1\n      pop\n        /* \"#utility.yul\":15690:16109   */\n      swap2\n      swap1\n      pop\n      jump\t// out\n        /* \"#utility.yul\":16115:16212   */\n    tag_238:\n        /* \"#utility.yul\":16174:16180   */\n      0x00\n        /* \"#utility.yul\":16202:16205   */\n      dup3\n        /* \"#utility.yul\":16192:16205   */\n      swap1\n      pop\n        /* \"#utility.yul\":16115:16212   */\n      swap3\n      swap2\n      pop\n      pop\n      jump\t// out\n        /* \"#utility.yul\":16218:16398   */\n    tag_239:\n        /* \"#utility.yul\":16266:16343   */\n      0x4e487b7100000000000000000000000000000000000000000000000000000000\n        /* \"#utility.yul\":16263:16264   */\n      0x00\n        /* \"#utility.yul\":16256:16344   */\n      mstore\n        /* \"#utility.yul\":16363:16367   */\n      0x41\n        /* \"#utility.yul\":16360:16361   */\n      0x04\n        /* \"#utility.yul\":16353:16368   */\n      mstore\n        /* \"#utility.yul\":16387:16391   */\n      0x24\n        /* \"#utility.yul\":16384:16385   */\n      0x00\n        /* \"#utility.yul\":16377:16392   */\n      revert\n        /* \"#utility.yul\":16404:16545   */\n    tag_240:\n        /* \"#utility.yul\":16453:16457   */\n      0x00\n        /* \"#utility.yul\":16476:16479   */\n      dup2\n        /* \"#utility.yul\":16468:16479   */\n      swap1\n      pop\n        /* \"#utility.yul\":16499:16502   */\n      dup2\n        /* \"#utility.yul\":16496:16497   */\n      0x00\n        /* \"#utility.yul\":16489:16503   */\n      mstore\n        /* \"#utility.yul\":16533:16537   */\n      0x20\n        /* \"#utility.yul\":16530:16531   */\n      0x00\n        /* \"#utility.yul\":16520:16538   */\n      keccak256\n        /* \"#utility.yul\":16512:16538   */\n      swap1\n      pop\n        /* \"#utility.yul\":16404:16545   */\n      swap2\n      swap1\n      pop\n      jump\t// out\n        /* \"#utility.yul\":16551:16644   */\n    tag_241:\n        /* \"#utility.yul\":16588:16594   */\n      0x00\n        /* \"#utility.yul\":16635:16637   */\n      0x20\n        /* \"#utility.yul\":16630:16632   */\n      0x1f\n        /* \"#utility.yul\":16623:16628   */\n      dup4\n        /* \"#utility.yul\":16619:16633   */\n      add\n        /* \"#utility.yul\":16615:16638   */\n      div\n        /* \"#utility.yul\":16605:16638   */\n      swap1\n      pop\n        /* \"#utility.yul\":16551:16644   */\n      swap2\n      swap1\n      pop\n      jump\t// out\n        /* \"#utility.yul\":16650:16757   */\n    tag_242:\n        /* \"#utility.yul\":16694:16702   */\n      0x00\n        /* \"#utility.yul\":16744:16749   */\n      dup3\n        /* \"#utility.yul\":16738:16742   */\n      dup3\n        /* \"#utility.yul\":16734:16750   */\n      shl\n        /* \"#utility.yul\":16713:16750   */\n      swap1\n      pop\n        /* \"#utility.yul\":16650:16757   */\n      swap3\n      swap2\n      pop\n      pop\n      jump\t// out\n        /* \"#utility.yul\":16763:17156   */\n    tag_243:\n        /* \"#utility.yul\":16832:16838   */\n      0x00\n        /* \"#utility.yul\":16882:16883   */\n      0x08\n        /* \"#utility.yul\":16870:16880   */\n      dup4\n        /* \"#utility.yul\":16866:16884   */\n      mul\n        /* \"#utility.yul\":16905:17002   */\n      tag_409\n        /* \"#utility.yul\":16935:17001   */\n      0xffffffffffffffffffffffffffffffffffffffffffffffffffffffffffffffff\n        /* \"#utility.yul\":16924:16933   */\n      dup3\n        /* \"#utility.yul\":16905:17002   */\n      tag_242\n      jump\t// in\n    tag_409:\n        /* \"#utility.yul\":17023:17062   */\n      tag_410\n        /* \"#utility.yul\":17053:17061   */\n      dup7\n        /* \"#utility.yul\":17042:17051   */\n      dup4\n        /* \"#utility.yul\":17023:17062   */\n      tag_242\n      jump\t// in\n    tag_410:\n        /* \"#utility.yul\":17011:17062   */\n      swap6\n      pop\n        /* \"#utility.yul\":17095:17099   */\n      dup1\n        /* \"#utility.yul\":17091:17100   */\n      not\n        /* \"#utility.yul\":17084:17089   */\n      dup5\n        /* \"#utility.yul\":17080:17101   */\n      and\n        /* \"#utility.yul\":17071:17101   */\n      swap4\n      pop\n        /* \"#utility.yul\":17144:17148   */\n      dup1\n        /* \"#utility.yul\":17134:17142   */\n      dup7\n        /* \"#utility.yul\":17130:17149   */\n      and\n        /* \"#utility.yul\":17123:17128   */\n      dup5\n        /* \"#utility.yul\":17120:17150   */\n      or\n        /* \"#utility.yul\":17110:17150   */\n      swap3\n      pop\n        /* \"#utility.yul\":16839:17156   */\n      pop\n      pop\n        /* \"#utility.yul\":16763:17156   */\n      swap4\n      swap3\n      pop\n      pop\n      pop\n      jump\t// out\n        /* \"#utility.yul\":17162:17222   */\n    tag_244:\n        /* \"#utility.yul\":17190:17193   */\n      0x00\n        /* \"#utility.yul\":17211:17216   */\n      dup2\n        /* \"#utility.yul\":17204:17216   */\n      swap1\n      pop\n        /* \"#utility.yul\":17162:17222   */\n      swap2\n      swap1\n      pop\n      jump\t// out\n        /* \"#utility.yul\":17228:17370   */\n    tag_245:\n        /* \"#utility.yul\":17278:17287   */\n      0x00\n        /* \"#utility.yul\":17311:17364   */\n      tag_413\n        /* \"#utility.yul\":17329:17363   */\n      tag_414\n        /* \"#utility.yul\":17338:17362   */\n      tag_415\n        /* \"#utility.yul\":17356:17361   */\n      dup5\n        /* \"#utility.yul\":17338:17362   */\n      tag_206\n      jump\t// in\n    tag_415:\n        /* \"#utility.yul\":17329:17363   */\n      tag_244\n      jump\t// in\n    tag_414:\n        /* \"#utility.yul\":17311:17364   */\n      tag_206\n      jump\t// in\n    tag_413:\n        /* \"#utility.yul\":17298:17364   */\n      swap1\n      pop\n        /* \"#utility.yul\":17228:17370   */\n      swap2\n      swap1\n      pop\n      jump\t// out\n        /* \"#utility.yul\":17376:17451   */\n    tag_246:\n        /* \"#utility.yul\":17419:17422   */\n      0x00\n        /* \"#utility.yul\":17440:17445   */\n      dup2\n        /* \"#utility.yul\":17433:17445   */\n      swap1\n      pop\n        /* \"#utility.yul\":17376:17451   */\n      swap2\n      swap1\n      pop\n      jump\t// out\n        /* \"#utility.yul\":17457:17726   */\n    tag_247:\n        /* \"#utility.yul\":17567:17606   */\n      tag_418\n        /* \"#utility.yul\":17598:17605   */\n      dup4\n        /* \"#utility.yul\":17567:17606   */\n      tag_245\n      jump\t// in\n    tag_418:\n        /* \"#utility.yul\":17628:17719   */\n      tag_419\n        /* \"#utility.yul\":17677:17718   */\n      tag_420\n        /* \"#utility.yul\":17701:17717   */\n      dup3\n        /* \"#utility.yul\":17677:17718   */\n      tag_246\n      jump\t// in\n    tag_420:\n        /* \"#utility.yul\":17669:17675   */\n      dup5\n        /* \"#utility.yul\":17662:17666   */\n      dup5\n        /* \"#utility.yul\":17656:17667   */\n      sload\n        /* \"#utility.yul\":17628:17719   */\n      tag_243\n      jump\t// in\n    tag_419:\n        /* \"#utility.yul\":17622:17626   */\n      dup3\n        /* \"#utility.yul\":17615:17720   */\n      sstore\n        /* \"#utility.yul\":17533:17726   */\n      pop\n        /* \"#utility.yul\":17457:17726   */\n      pop\n      pop\n      pop\n      jump\t// out\n        /* \"#utility.yul\":17732:17805   */\n    tag_248:\n        /* \"#utility.yul\":17777:17780   */\n      0x00\n        /* \"#utility.yul\":17798:17799   */\n      0x00\n        /* \"#utility.yul\":17791:17799   */\n      swap1\n      pop\n        /* \"#utility.yul\":17732:17805   */\n      swap1\n      jump\t// out\n        /* \"#utility.yul\":17811:18000   */\n    tag_249:\n        /* \"#utility.yul\":17888:17920   */\n      tag_423\n      tag_248\n      jump\t// in\n    tag_423:\n        /* \"#utility.yul\":17929:17994   */\n      tag_424\n        /* \"#utility.yul\":17987:17993   */\n      dup2\n        /* \"#utility.yul\":17979:17985   */\n      dup5\n        /* \"#utility.yul\":17973:17977   */\n      dup5\n        /* \"#utility.yul\":17929:17994   */\n      tag_247\n      jump\t// in\n    tag_424:\n        /* \"#utility.yul\":17864:18000   */\n      pop\n        /* \"#utility.yul\":17811:18000   */\n      pop\n      pop\n      jump\t// out\n        /* \"#utility.yul\":18006:18192   */\n    tag_250:\n        /* \"#utility.yul\":18066:18186   */\n    tag_426:\n        /* \"#utility.yul\":18083:18086   */\n      dup2\n        /* \"#utility.yul\":18076:18081   */\n      dup2\n        /* \"#utility.yul\":18073:18087   */\n      lt\n        /* \"#utility.yul\":18066:18186   */\n      iszero\n      tag_428\n      jumpi\n        /* \"#utility.yul\":18137:18176   */\n      tag_429\n        /* \"#utility.yul\":18174:18175   */\n      0x00\n        /* \"#utility.yul\":18167:18172   */\n      dup3\n        /* \"#utility.yul\":18137:18176   */\n      tag_249\n      jump\t// in\n    tag_429:\n        /* \"#utility.yul\":18110:18111   */\n      0x01\n        /* \"#utility.yul\":18103:18108   */\n      dup2\n        /* \"#utility.yul\":18099:18112   */\n      add\n        /* \"#utility.yul\":18090:18112   */\n      swap1\n      pop\n        /* \"#utility.yul\":18066:18186   */\n      jump(tag_426)\n    tag_428:\n        /* \"#utility.yul\":18006:18192   */\n      pop\n      pop\n      jump\t// out\n        /* \"#utility.yul\":18198:18741   */\n    tag_251:\n        /* \"#utility.yul\":18299:18301   */\n      0x1f\n        /* \"#utility.yul\":18294:18297   */\n      dup3\n        /* \"#utility.yul\":18291:18302   */\n      gt\n        /* \"#utility.yul\":18288:18734   */\n      iszero\n      tag_431\n      jumpi\n        /* \"#utility.yul\":18333:18371   */\n      tag_432\n        /* \"#utility.yul\":18365:18370   */\n      dup2\n        /* \"#utility.yul\":18333:18371   */\n      tag_240\n      jump\t// in\n    tag_432:\n        /* \"#utility.yul\":18417:18446   */\n      tag_433\n        /* \"#utility.yul\":18435:18445   */\n      dup5\n        /* \"#utility.yul\":18417:18446   */\n      tag_241\n      jump\t// in\n    tag_433:\n        /* \"#utility.yul\":18407:18415   */\n      dup2\n        /* \"#utility.yul\":18403:18447   */\n      add\n        /* \"#utility.yul\":18600:18602   */\n      0x20\n        /* \"#utility.yul\":18588:18598   */\n      dup6\n        /* \"#utility.yul\":18585:18603   */\n      lt\n        /* \"#utility.yul\":18582:18631   */\n      iszero\n      tag_434\n      jumpi\n        /* \"#utility.yul\":18621:18629   */\n      dup2\n        /* \"#utility.yul\":18606:18629   */\n      swap1\n      pop\n        /* \"#utility.yul\":18582:18631   */\n    tag_434:\n        /* \"#utility.yul\":18644:18724   */\n      tag_435\n        /* \"#utility.yul\":18700:18722   */\n      tag_436\n        /* \"#utility.yul\":18718:18721   */\n      dup6\n        /* \"#utility.yul\":18700:18722   */\n      tag_241\n      jump\t// in\n    tag_436:\n        /* \"#utility.yul\":18690:18698   */\n      dup4\n        /* \"#utility.yul\":18686:18723   */\n      add\n        /* \"#utility.yul\":18673:18684   */\n      dup3\n        /* \"#utility.yul\":18644:18724   */\n      tag_250\n      jump\t// in\n    tag_435:\n        /* \"#utility.yul\":18303:18734   */\n      pop\n      pop\n        /* \"#utility.yul\":18288:18734   */\n    tag_431:\n        /* \"#utility.yul\":18198:18741   */\n      pop\n      pop\n      pop\n      jump\t// out\n        /* \"#utility.yul\":18747:18864   */\n    tag_252:\n        /* \"#utility.yul\":18801:18809   */\n      0x00\n        /* \"#utility.yul\":18851:18856   */\n      dup3\n        /* \"#utility.yul\":18845:18849   */\n      dup3\n        /* \"#utility.yul\":18841:18857   */\n      shr\n        /* \"#utility.yul\":18820:18857   */\n      swap1\n      pop\n        /* \"#utility.yul\":18747:18864   */\n      swap3\n      swap2\n      pop\n      pop\n      jump\t// out\n        /* \"#utility.yul\":18870:19039   */\n    tag_253:\n        /* \"#utility.yul\":18914:18920   */\n      0x00\n        /* \"#utility.yul\":18947:18998   */\n      tag_439\n        /* \"#utility.yul\":18995:18996   */\n      0x00\n        /* \"#utility.yul\":18991:18997   */\n      not\n        /* \"#utility.yul\":18983:18988   */\n      dup5\n        /* \"#utility.yul\":18980:18981   */\n      0x08\n        /* \"#utility.yul\":18976:18989   */\n      mul\n        /* \"#utility.yul\":18947:18998   */\n      tag_252\n      jump\t// in\n    tag_439:\n        /* \"#utility.yul\":18943:18999   */\n      not\n        /* \"#utility.yul\":19028:19032   */\n      dup1\n        /* \"#utility.yul\":19022:19026   */\n      dup4\n        /* \"#utility.yul\":19018:19033   */\n      and\n        /* \"#utility.yul\":19008:19033   */\n      swap2\n      pop\n        /* \"#utility.yul\":18921:19039   */\n      pop\n        /* \"#utility.yul\":18870:19039   */\n      swap3\n      swap2\n      pop\n      pop\n      jump\t// out\n        /* \"#utility.yul\":19044:19339   */\n    tag_254:\n        /* \"#utility.yul\":19120:19124   */\n      0x00\n        /* \"#utility.yul\":19266:19295   */\n      tag_441\n        /* \"#utility.yul\":19291:19294   */\n      dup4\n        /* \"#utility.yul\":19285:19289   */\n      dup4\n        /* \"#utility.yul\":19266:19295   */\n      tag_253\n      jump\t// in\n    tag_441:\n        /* \"#utility.yul\":19258:19295   */\n      swap2\n      pop\n        /* \"#utility.yul\":19328:19331   */\n      dup3\n        /* \"#utility.yul\":19325:19326   */\n      0x02\n        /* \"#utility.yul\":19321:19332   */\n      mul\n        /* \"#utility.yul\":19315:19319   */\n      dup3\n        /* \"#utility.yul\":19312:19333   */\n      or\n        /* \"#utility.yul\":19304:19333   */\n      swap1\n      pop\n        /* \"#utility.yul\":19044:19339   */\n      swap3\n      swap2\n      pop\n      pop\n      jump\t// out\n        /* \"#utility.yul\":19344:20747   */\n    tag_144:\n        /* \"#utility.yul\":19468:19512   */\n      tag_443\n        /* \"#utility.yul\":19508:19511   */\n      dup4\n        /* \"#utility.yul\":19503:19506   */\n      dup4\n        /* \"#utility.yul\":19468:19512   */\n      tag_238\n      jump\t// in\n    tag_443:\n        /* \"#utility.yul\":19577:19595   */\n      0xffffffffffffffff\n        /* \"#utility.yul\":19569:19575   */\n      dup2\n        /* \"#utility.yul\":19566:19596   */\n      gt\n        /* \"#utility.yul\":19563:19619   */\n      iszero\n      tag_444\n      jumpi\n        /* \"#utility.yul\":19599:19617   */\n      tag_445\n      tag_239\n      jump\t// in\n    tag_445:\n        /* \"#utility.yul\":19563:19619   */\n    tag_444:\n        /* \"#utility.yul\":19643:19681   */\n      tag_446\n        /* \"#utility.yul\":19675:19679   */\n      dup3\n        /* \"#utility.yul\":19669:19680   */\n      sload\n        /* \"#utility.yul\":19643:19681   */\n      tag_68\n      jump\t// in\n    tag_446:\n        /* \"#utility.yul\":19728:19795   */\n      tag_447\n        /* \"#utility.yul\":19788:19794   */\n      dup3\n        /* \"#utility.yul\":19780:19786   */\n      dup3\n        /* \"#utility.yul\":19774:19778   */\n      dup6\n        /* \"#utility.yul\":19728:19795   */\n      tag_251\n      jump\t// in\n    tag_447:\n        /* \"#utility.yul\":19822:19823   */\n      0x00\n        /* \"#utility.yul\":19851:19853   */\n      0x1f\n        /* \"#utility.yul\":19843:19849   */\n      dup4\n        /* \"#utility.yul\":19840:19854   */\n      gt\n        /* \"#utility.yul\":19868:19869   */\n      0x01\n        /* \"#utility.yul\":19863:20495   */\n      dup2\n      eq\n      tag_449\n      jumpi\n        /* \"#utility.yul\":20539:20540   */\n      0x00\n        /* \"#utility.yul\":20556:20562   */\n      dup5\n        /* \"#utility.yul\":20553:20637   */\n      iszero\n      tag_450\n      jumpi\n        /* \"#utility.yul\":20612:20621   */\n      dup3\n        /* \"#utility.yul\":20607:20610   */\n      dup8\n        /* \"#utility.yul\":20603:20622   */\n      add\n        /* \"#utility.yul\":20590:20623   */\n      calldataload\n        /* \"#utility.yul\":20581:20623   */\n      swap1\n      pop\n        /* \"#utility.yul\":20553:20637   */\n    tag_450:\n        /* \"#utility.yul\":20663:20730   */\n      tag_451\n        /* \"#utility.yul\":20723:20729   */\n      dup6\n        /* \"#utility.yul\":20716:20721   */\n      dup3\n        /* \"#utility.yul\":20663:20730   */\n      tag_254\n      jump\t// in\n    tag_451:\n        /* \"#utility.yul\":20657:20661   */\n      dup7\n        /* \"#utility.yul\":20650:20731   */\n      sstore\n        /* \"#utility.yul\":20512:20741   */\n      pop\n        /* \"#utility.yul\":19833:20741   */\n      jump(tag_448)\n        /* \"#utility.yul\":19863:20495   */\n    tag_449:\n        /* \"#utility.yul\":19915:19919   */\n      0x1f\n        /* \"#utility.yul\":19911:19920   */\n      not\n        /* \"#utility.yul\":19903:19909   */\n      dup5\n        /* \"#utility.yul\":19899:19921   */\n      and\n        /* \"#utility.yul\":19949:19986   */\n      tag_452\n        /* \"#utility.yul\":19981:19985   */\n      dup7\n        /* \"#utility.yul\":19949:19986   */\n      tag_240\n      jump\t// in\n    tag_452:\n        /* \"#utility.yul\":20008:20009   */\n      0x00\n        /* \"#utility.yul\":20022:20237   */\n    tag_453:\n        /* \"#utility.yul\":20036:20043   */\n      dup3\n        /* \"#utility.yul\":20033:20034   */\n      dup2\n        /* \"#utility.yul\":20030:20044   */\n      lt\n        /* \"#utility.yul\":20022:20237   */\n      iszero\n      tag_455\n      jumpi\n        /* \"#utility.yul\":20122:20131   */\n      dup5\n        /* \"#utility.yul\":20117:20120   */\n      dup10\n        /* \"#utility.yul\":20113:20132   */\n      add\n        /* \"#utility.yul\":20100:20133   */\n      calldataload\n        /* \"#utility.yul\":20092:20098   */\n      dup3\n        /* \"#utility.yul\":20085:20134   */\n      sstore\n        /* \"#utility.yul\":20173:20174   */\n      0x01\n        /* \"#utility.yul\":20165:20171   */\n      dup3\n        /* \"#utility.yul\":20161:20175   */\n      add\n        /* \"#utility.yul\":20151:20175   */\n      swap2\n      pop\n        /* \"#utility.yul\":20220:20222   */\n      0x20\n        /* \"#utility.yul\":20209:20218   */\n      dup6\n        /* \"#utility.yul\":20205:20223   */\n      add\n        /* \"#utility.yul\":20192:20223   */\n      swap5\n      pop\n        /* \"#utility.yul\":20059:20063   */\n      0x20\n        /* \"#utility.yul\":20056:20057   */\n      dup2\n        /* \"#utility.yul\":20052:20064   */\n      add\n        /* \"#utility.yul\":20047:20064   */\n      swap1\n      pop\n        /* \"#utility.yul\":20022:20237   */\n      jump(tag_453)\n    tag_455:\n        /* \"#utility.yul\":20265:20271   */\n      dup7\n        /* \"#utility.yul\":20256:20263   */\n      dup4\n        /* \"#utility.yul\":20253:20272   */\n      lt\n        /* \"#utility.yul\":20250:20436   */\n      iszero\n      tag_456\n      jumpi\n        /* \"#utility.yul\":20330:20339   */\n      dup5\n        /* \"#utility.yul\":20325:20328   */\n      dup10\n        /* \"#utility.yul\":20321:20340   */\n      add\n        /* \"#utility.yul\":20308:20341   */\n      calldataload\n        /* \"#utility.yul\":20373:20421   */\n      tag_457\n        /* \"#utility.yul\":20415:20419   */\n      0x1f\n        /* \"#utility.yul\":20407:20413   */\n      dup10\n        /* \"#utility.yul\":20403:20420   */\n      and\n        /* \"#utility.yul\":20392:20401   */\n      dup3\n        /* \"#utility.yul\":20373:20421   */\n      tag_253\n      jump\t// in\n    tag_457:\n        /* \"#utility.yul\":20365:20371   */\n      dup4\n        /* \"#utility.yul\":20358:20422   */\n      sstore\n        /* \"#utility.yul\":20273:20436   */\n      pop\n        /* \"#utility.yul\":20250:20436   */\n    tag_456:\n        /* \"#utility.yul\":20482:20483   */\n      0x01\n        /* \"#utility.yul\":20478:20479   */\n      0x02\n        /* \"#utility.yul\":20470:20476   */\n      dup9\n        /* \"#utility.yul\":20466:20480   */\n      mul\n        /* \"#utility.yul\":20462:20484   */\n      add\n        /* \"#utility.yul\":20456:20460   */\n      dup9\n        /* \"#utility.yul\":20449:20485   */\n      sstore\n        /* \"#utility.yul\":19870:20495   */\n      pop\n      pop\n      pop\n        /* \"#utility.yul\":19833:20741   */\n    tag_448:\n      pop\n        /* \"#utility.yul\":19443:20747   */\n      pop\n      pop\n      pop\n        /* \"#utility.yul\":19344:20747   */\n      pop\n      pop\n      pop\n      jump\t// out\n        /* \"#utility.yul\":20777:21094   */\n    tag_255:\n        /* \"#utility.yul\":20875:20878   */\n      0x00\n        /* \"#utility.yul\":20896:20967   */\n      tag_459\n        /* \"#utility.yul\":20960:20966   */\n      dup4\n        /* \"#utility.yul\":20955:20958   */\n      dup6\n        /* \"#utility.yul\":20896:20967   */\n      tag_224\n      jump\t// in\n    tag_459:\n        /* \"#utility.yul\":20889:20967   */\n      swap4\n      pop\n        /* \"#utility.yul\":20977:21033   */\n      tag_460\n        /* \"#utility.yul\":21026:21032   */\n      dup4\n        /* \"#utility.yul\":21021:21024   */\n      dup6\n        /* \"#utility.yul\":21014:21019   */\n      dup5\n        /* \"#utility.yul\":20977:21033   */\n      tag_230\n      jump\t// in\n    tag_460:\n        /* \"#utility.yul\":21058:21087   */\n      tag_461\n        /* \"#utility.yul\":21080:21086   */\n      dup4\n        /* \"#utility.yul\":21058:21087   */\n      tag_218\n      jump\t// in\n    tag_461:\n        /* \"#utility.yul\":21053:21056   */\n      dup5\n        /* \"#utility.yul\":21049:21088   */\n      add\n        /* \"#utility.yul\":21042:21088   */\n      swap1\n      pop\n        /* \"#utility.yul\":20777:21094   */\n      swap4\n      swap3\n      pop\n      pop\n      pop\n      jump\t// out\n        /* \"#utility.yul\":21100:21764   */\n    tag_146:\n        /* \"#utility.yul\":21309:21313   */\n      0x00\n        /* \"#utility.yul\":21347:21349   */\n      0x60\n        /* \"#utility.yul\":21336:21345   */\n      dup3\n        /* \"#utility.yul\":21332:21350   */\n      add\n        /* \"#utility.yul\":21324:21350   */\n      swap1\n      pop\n        /* \"#utility.yul\":21396:21405   */\n      dup2\n        /* \"#utility.yul\":21390:21394   */\n      dup2\n        /* \"#utility.yul\":21386:21406   */\n      sub\n        /* \"#utility.yul\":21382:21383   */\n      0x00\n        /* \"#utility.yul\":21371:21380   */\n      dup4\n        /* \"#utility.yul\":21367:21384   */\n      add\n        /* \"#utility.yul\":21360:21407   */\n      mstore\n        /* \"#utility.yul\":21424:21512   */\n      tag_463\n        /* \"#utility.yul\":21507:21511   */\n      dup2\n        /* \"#utility.yul\":21498:21504   */\n      dup8\n        /* \"#utility.yul\":21490:21496   */\n      dup10\n        /* \"#utility.yul\":21424:21512   */\n      tag_255\n      jump\t// in\n    tag_463:\n        /* \"#utility.yul\":21416:21512   */\n      swap1\n      pop\n        /* \"#utility.yul\":21559:21568   */\n      dup2\n        /* \"#utility.yul\":21553:21557   */\n      dup2\n        /* \"#utility.yul\":21549:21569   */\n      sub\n        /* \"#utility.yul\":21544:21546   */\n      0x20\n        /* \"#utility.yul\":21533:21542   */\n      dup4\n        /* \"#utility.yul\":21529:21547   */\n      add\n        /* \"#utility.yul\":21522:21570   */\n      mstore\n        /* \"#utility.yul\":21587:21675   */\n      tag_464\n        /* \"#utility.yul\":21670:21674   */\n      dup2\n        /* \"#utility.yul\":21661:21667   */\n      dup6\n        /* \"#utility.yul\":21653:21659   */\n      dup8\n        /* \"#utility.yul\":21587:21675   */\n      tag_255\n      jump\t// in\n    tag_464:\n        /* \"#utility.yul\":21579:21675   */\n      swap1\n      pop\n        /* \"#utility.yul\":21685:21757   */\n      tag_465\n        /* \"#utility.yul\":21753:21755   */\n      0x40\n        /* \"#utility.yul\":21742:21751   */\n      dup4\n        /* \"#utility.yul\":21738:21756   */\n      add\n        /* \"#utility.yul\":21729:21735   */\n      dup5\n        /* \"#utility.yul\":21685:21757   */\n      tag_207\n      jump\t// in\n    tag_465:\n        /* \"#utility.yul\":21100:21764   */\n      swap7\n      swap6\n      pop\n      pop\n      pop\n      pop\n      pop\n      pop\n      jump\t// out\n        /* \"#utility.yul\":21770:21930   */\n    tag_256:\n        /* \"#utility.yul\":21910:21922   */\n      0x5a65726f206f776e657200000000000000000000000000000000000000000000\n        /* \"#utility.yul\":21906:21907   */\n      0x00\n        /* \"#utility.yul\":21898:21904   */\n      dup3\n        /* \"#utility.yul\":21894:21908   */\n      add\n        /* \"#utility.yul\":21887:21923   */\n      mstore\n        /* \"#utility.yul\":21770:21930   */\n      pop\n      jump\t// out\n        /* \"#utility.yul\":21936:22302   */\n    tag_257:\n        /* \"#utility.yul\":22078:22081   */\n      0x00\n        /* \"#utility.yul\":22099:22166   */\n      tag_468\n        /* \"#utility.yul\":22163:22165   */\n      0x0a\n        /* \"#utility.yul\":22158:22161   */\n      dup4\n        /* \"#utility.yul\":22099:22166   */\n      tag_224\n      jump\t// in\n    tag_468:\n        /* \"#utility.yul\":22092:22166   */\n      swap2\n      pop\n        /* \"#utility.yul\":22175:22268   */\n      tag_469\n        /* \"#utility.yul\":22264:22267   */\n      dup3\n        /* \"#utility.yul\":22175:22268   */\n      tag_256\n      jump\t// in\n    tag_469:\n        /* \"#utility.yul\":22293:22295   */\n      0x20\n        /* \"#utility.yul\":22288:22291   */\n      dup3\n        /* \"#utility.yul\":22284:22296   */\n      add\n        /* \"#utility.yul\":22277:22296   */\n      swap1\n      pop\n        /* \"#utility.yul\":21936:22302   */\n      swap2\n      swap1\n      pop\n      jump\t// out\n        /* \"#utility.yul\":22308:22727   */\n    tag_172:\n        /* \"#utility.yul\":22474:22478   */\n      0x00\n        /* \"#utility.yul\":22512:22514   */\n      0x20\n        /* \"#utility.yul\":22501:22510   */\n      dup3\n        /* \"#utility.yul\":22497:22515   */\n      add\n        /* \"#utility.yul\":22489:22515   */\n      swap1\n      pop\n        /* \"#utility.yul\":22561:22570   */\n      dup2\n        /* \"#utility.yul\":22555:22559   */\n      dup2\n        /* \"#utility.yul\":22551:22571   */\n      sub\n        /* \"#utility.yul\":22547:22548   */\n      0x00\n        /* \"#utility.yul\":22536:22545   */\n      dup4\n        /* \"#utility.yul\":22532:22549   */\n      add\n        /* \"#utility.yul\":22525:22572   */\n      mstore\n        /* \"#utility.yul\":22589:22720   */\n      tag_471\n        /* \"#utility.yul\":22715:22719   */\n      dup2\n        /* \"#utility.yul\":22589:22720   */\n      tag_257\n      jump\t// in\n    tag_471:\n        /* \"#utility.yul\":22581:22720   */\n      swap1\n      pop\n        /* \"#utility.yul\":22308:22727   */\n      swap2\n      swap1\n      pop\n      jump\t// out\n        /* \"#utility.yul\":22733:22898   */\n    tag_258:\n        /* \"#utility.yul\":22873:22890   */\n      0x77616c6c65742072657175697265640000000000000000000000000000000000\n        /* \"#utility.yul\":22869:22870   */\n      0x00\n        /* \"#utility.yul\":22861:22867   */\n      dup3\n        /* \"#utility.yul\":22857:22871   */\n      add\n        /* \"#utility.yul\":22850:22891   */\n      mstore\n        /* \"#utility.yul\":22733:22898   */\n      pop\n      jump\t// out\n        /* \"#utility.yul\":22904:23270   */\n    tag_259:\n        /* \"#utility.yul\":23046:23049   */\n      0x00\n        /* \"#utility.yul\":23067:23134   */\n      tag_474\n        /* \"#utility.yul\":23131:23133   */\n      0x0f\n        /* \"#utility.yul\":23126:23129   */\n      dup4\n        /* \"#utility.yul\":23067:23134   */\n      tag_224\n      jump\t// in\n    tag_474:\n        /* \"#utility.yul\":23060:23134   */\n      swap2\n      pop\n        /* \"#utility.yul\":23143:23236   */\n      tag_475\n        /* \"#utility.yul\":23232:23235   */\n      dup3\n        /* \"#utility.yul\":23143:23236   */\n      tag_258\n      jump\t// in\n    tag_475:\n        /* \"#utility.yul\":23261:23263   */\n      0x20\n        /* \"#utility.yul\":23256:23259   */\n      dup3\n        /* \"#utility.yul\":23252:23264   */\n      add\n        /* \"#utility.yul\":23245:23264   */\n      swap1\n      pop\n        /* \"#utility.yul\":22904:23270   */\n      swap2\n      swap1\n      pop\n      jump\t// out\n        /* \"#utility.yul\":23276:23695   */\n    tag_178:\n        /* \"#utility.yul\":23442:23446   */\n      0x00\n        /* \"#utility.yul\":23480:23482   */\n      0x20\n        /* \"#utility.yul\":23469:23478   */\n      dup3\n        /* \"#utility.yul\":23465:23483   */\n      add\n        /* \"#utility.yul\":23457:23483   */\n      swap1\n      pop\n        /* \"#utility.yul\":23529:23538   */\n      dup2\n        /* \"#utility.yul\":23523:23527   */\n      dup2\n        /* \"#utility.yul\":23519:23539   */\n      sub\n        /* \"#utility.yul\":23515:23516   */\n      0x00\n        /* \"#utility.yul\":23504:23513   */\n      dup4\n        /* \"#utility.yul\":23500:23517   */\n      add\n        /* \"#utility.yul\":23493:23540   */\n      mstore\n        /* \"#utility.yul\":23557:23688   */\n      tag_477\n        /* \"#utility.yul\":23683:23687   */\n      dup2\n        /* \"#utility.yul\":23557:23688   */\n      tag_259\n      jump\t// in\n    tag_477:\n        /* \"#utility.yul\":23549:23688   */\n      swap1\n      pop\n        /* \"#utility.yul\":23276:23695   */\n      swap2\n      swap1\n      pop\n      jump\t// out\n        /* \"#utility.yul\":23701:25096   */\n    tag_183:\n        /* \"#utility.yul\":23818:23855   */\n      tag_479\n        /* \"#utility.yul\":23851:23854   */\n      dup3\n        /* \"#utility.yul\":23818:23855   */\n      tag_215\n      jump\t// in\n    tag_479:\n        /* \"#utility.yul\":23920:23938   */\n      0xffffffffffffffff\n        /* \"#utility.yul\":23912:23918   */\n      dup2\n        /* \"#utility.yul\":23909:23939   */\n      gt\n        /* \"#utility.yul\":23906:23962   */\n      iszero\n      tag_480\n      jumpi\n        /* \"#utility.yul\":23942:23960   */\n      tag_481\n      tag_239\n      jump\t// in\n    tag_481:\n        /* \"#utility.yul\":23906:23962   */\n    tag_480:\n        /* \"#utility.yul\":23986:24024   */\n      tag_482\n        /* \"#utility.yul\":24018:24022   */\n      dup3\n        /* \"#utility.yul\":24012:24023   */\n      sload\n        /* \"#utility.yul\":23986:24024   */\n      tag_68\n      jump\t// in\n    tag_482:\n        /* \"#utility.yul\":24071:24138   */\n      tag_483\n        /* \"#utility.yul\":24131:24137   */\n      dup3\n        /* \"#utility.yul\":24123:24129   */\n      dup3\n        /* \"#utility.yul\":24117:24121   */\n      dup6\n        /* \"#utility.yul\":24071:24138   */\n      tag_251\n      jump\t// in\n    tag_483:\n        /* \"#utility.yul\":24165:24166   */\n      0x00\n        /* \"#utility.yul\":24189:24193   */\n      0x20\n        /* \"#utility.yul\":24176:24193   */\n      swap1\n      pop\n        /* \"#utility.yul\":24221:24223   */\n      0x1f\n        /* \"#utility.yul\":24213:24219   */\n      dup4\n        /* \"#utility.yul\":24210:24224   */\n      gt\n        /* \"#utility.yul\":24238:24239   */\n      0x01\n        /* \"#utility.yul\":24233:24851   */\n      dup2\n      eq\n      tag_485\n      jumpi\n        /* \"#utility.yul\":24895:24896   */\n      0x00\n        /* \"#utility.yul\":24912:24918   */\n      dup5\n        /* \"#utility.yul\":24909:24986   */\n      iszero\n      tag_486\n      jumpi\n        /* \"#utility.yul\":24961:24970   */\n      dup3\n        /* \"#utility.yul\":24956:24959   */\n      dup8\n        /* \"#utility.yul\":24952:24971   */\n      add\n        /* \"#utility.yul\":24946:24972   */\n      mload\n        /* \"#utility.yul\":24937:24972   */\n      swap1\n      pop\n        /* \"#utility.yul\":24909:24986   */\n    tag_486:\n        /* \"#utility.yul\":25012:25079   */\n      tag_487\n        /* \"#utility.yul\":25072:25078   */\n      dup6\n        /* \"#utility.yul\":25065:25070   */\n      dup3\n        /* \"#utility.yul\":25012:25079   */\n      tag_254\n      jump\t// in\n    tag_487:\n        /* \"#utility.yul\":25006:25010   */\n      dup7\n        /* \"#utility.yul\":24999:25080   */\n      sstore\n        /* \"#utility.yul\":24868:25090   */\n      pop\n        /* \"#utility.yul\":24203:25090   */\n      jump(tag_484)\n        /* \"#utility.yul\":24233:24851   */\n    tag_485:\n        /* \"#utility.yul\":24285:24289   */\n      0x1f\n        /* \"#utility.yul\":24281:24290   */\n      not\n        /* \"#utility.yul\":24273:24279   */\n      dup5\n        /* \"#utility.yul\":24269:24291   */\n      and\n        /* \"#utility.yul\":24319:24356   */\n      tag_488\n        /* \"#utility.yul\":24351:24355   */\n      dup7\n        /* \"#utility.yul\":24319:24356   */\n      tag_240\n      jump\t// in\n    tag_488:\n        /* \"#utility.yul\":24378:24379   */\n      0x00\n        /* \"#utility.yul\":24392:24600   */\n    tag_489:\n        /* \"#utility.yul\":24406:24413   */\n      dup3\n        /* \"#utility.yul\":24403:24404   */\n      dup2\n        /* \"#utility.yul\":24400:24414   */\n      lt\n        /* \"#utility.yul\":24392:24600   */\n      iszero\n      tag_491\n      jumpi\n        /* \"#utility.yul\":24485:24494   */\n      dup5\n        /* \"#utility.yul\":24480:24483   */\n      dup10\n        /* \"#utility.yul\":24476:24495   */\n      add\n        /* \"#utility.yul\":24470:24496   */\n      mload\n        /* \"#utility.yul\":24462:24468   */\n      dup3\n        /* \"#utility.yul\":24455:24497   */\n      sstore\n        /* \"#utility.yul\":24536:24537   */\n      0x01\n        /* \"#utility.yul\":24528:24534   */\n      dup3\n        /* \"#utility.yul\":24524:24538   */\n      add\n        /* \"#utility.yul\":24514:24538   */\n      swap2\n      pop\n        /* \"#utility.yul\":24583:24585   */\n      0x20\n        /* \"#utility.yul\":24572:24581   */\n      dup6\n        /* \"#utility.yul\":24568:24586   */\n      add\n        /* \"#utility.yul\":24555:24586   */\n      swap5\n      pop\n        /* \"#utility.yul\":24429:24433   */\n      0x20\n        /* \"#utility.yul\":24426:24427   */\n      dup2\n        /* \"#utility.yul\":24422:24434   */\n      add\n        /* \"#utility.yul\":24417:24434   */\n      swap1\n      pop\n        /* \"#utility.yul\":24392:24600   */\n      jump(tag_489)\n    tag_491:\n        /* \"#utility.yul\":24628:24634   */\n      dup7\n        /* \"#utility.yul\":24619:24626   */\n      dup4\n        /* \"#utility.yul\":24616:24635   */\n      lt\n        /* \"#utility.yul\":24613:24792   */\n      iszero\n      tag_492\n      jumpi\n        /* \"#utility.yul\":24686:24695   */\n      dup5\n        /* \"#utility.yul\":24681:24684   */\n      dup10\n        /* \"#utility.yul\":24677:24696   */\n      add\n        /* \"#utility.yul\":24671:24697   */\n      mload\n        /* \"#utility.yul\":24729:24777   */\n      tag_493\n        /* \"#utility.yul\":24771:24775   */\n      0x1f\n        /* \"#utility.yul\":24763:24769   */\n      dup10\n        /* \"#utility.yul\":24759:24776   */\n      and\n        /* \"#utility.yul\":24748:24757   */\n      dup3\n        /* \"#utility.yul\":24729:24777   */\n      tag_253\n      jump\t// in\n    tag_493:\n        /* \"#utility.yul\":24721:24727   */\n      dup4\n        /* \"#utility.yul\":24714:24778   */\n      sstore\n        /* \"#utility.yul\":24636:24792   */\n      pop\n        /* \"#utility.yul\":24613:24792   */\n    tag_492:\n        /* \"#utility.yul\":24838:24839   */\n      0x01\n        /* \"#utility.yul\":24834:24835   */\n      0x02\n        /* \"#utility.yul\":24826:24832   */\n      dup9\n        /* \"#utility.yul\":24822:24836   */\n      mul\n        /* \"#utility.yul\":24818:24840   */\n      add\n        /* \"#utility.yul\":24812:24816   */\n      dup9\n        /* \"#utility.yul\":24805:24841   */\n      sstore\n        /* \"#utility.yul\":24240:24851   */\n      pop\n      pop\n      pop\n        /* \"#utility.yul\":24203:25090   */\n    tag_484:\n      pop\n        /* \"#utility.yul\":23793:25096   */\n      pop\n      pop\n      pop\n        /* \"#utility.yul\":23701:25096   */\n      pop\n      pop\n      jump\t// out\n        /* \"#utility.yul\":25102:26099   */\n    tag_187:\n        /* \"#utility.yul\":25397:25401   */\n      0x00\n        /* \"#utility.yul\":25435:25438   */\n      0xa0\n        /* \"#utility.yul\":25424:25433   */\n      dup3\n        /* \"#utility.yul\":25420:25439   */\n      add\n        /* \"#utility.yul\":25412:25439   */\n      swap1\n      pop\n        /* \"#utility.yul\":25485:25494   */\n      dup2\n        /* \"#utility.yul\":25479:25483   */\n      dup2\n        /* \"#utility.yul\":25475:25495   */\n      sub\n        /* \"#utility.yul\":25471:25472   */\n      0x00\n        /* \"#utility.yul\":25460:25469   */\n      dup4\n        /* \"#utility.yul\":25456:25473   */\n      add\n        /* \"#utility.yul\":25449:25496   */\n      mstore\n        /* \"#utility.yul\":25513:25601   */\n      tag_495\n        /* \"#utility.yul\":25596:25600   */\n      dup2\n        /* \"#utility.yul\":25587:25593   */\n      dup11\n        /* \"#utility.yul\":25579:25585   */\n      dup13\n        /* \"#utility.yul\":25513:25601   */\n      tag_255\n      jump\t// in\n    tag_495:\n        /* \"#utility.yul\":25505:25601   */\n      swap1\n      pop\n        /* \"#utility.yul\":25648:25657   */\n      dup2\n        /* \"#utility.yul\":25642:25646   */\n      dup2\n        /* \"#utility.yul\":25638:25658   */\n      sub\n        /* \"#utility.yul\":25633:25635   */\n      0x20\n        /* \"#utility.yul\":25622:25631   */\n      dup4\n        /* \"#utility.yul\":25618:25636   */\n      add\n        /* \"#utility.yul\":25611:25659   */\n      mstore\n        /* \"#utility.yul\":25676:25764   */\n      tag_496\n        /* \"#utility.yul\":25759:25763   */\n      dup2\n        /* \"#utility.yul\":25750:25756   */\n      dup9\n        /* \"#utility.yul\":25742:25748   */\n      dup11\n        /* \"#utility.yul\":25676:25764   */\n      tag_255\n      jump\t// in\n    tag_496:\n        /* \"#utility.yul\":25668:25764   */\n      swap1\n      pop\n        /* \"#utility.yul\":25774:25846   */\n      tag_497\n        /* \"#utility.yul\":25842:25844   */\n      0x40\n        /* \"#utility.yul\":25831:25840   */\n      dup4\n        /* \"#utility.yul\":25827:25845   */\n      add\n        /* \"#utility.yul\":25818:25824   */\n      dup8\n        /* \"#utility.yul\":25774:25846   */\n      tag_214\n      jump\t// in\n    tag_497:\n        /* \"#utility.yul\":25893:25902   */\n      dup2\n        /* \"#utility.yul\":25887:25891   */\n      dup2\n        /* \"#utility.yul\":25883:25903   */\n      sub\n        /* \"#utility.yul\":25878:25880   */\n      0x60\n        /* \"#utility.yul\":25867:25876   */\n      dup4\n        /* \"#utility.yul\":25863:25881   */\n      add\n        /* \"#utility.yul\":25856:25904   */\n      mstore\n        /* \"#utility.yul\":25921:26009   */\n      tag_498\n        /* \"#utility.yul\":26004:26008   */\n      dup2\n        /* \"#utility.yul\":25995:26001   */\n      dup6\n        /* \"#utility.yul\":25987:25993   */\n      dup8\n        /* \"#utility.yul\":25921:26009   */\n      tag_255\n      jump\t// in\n    tag_498:\n        /* \"#utility.yul\":25913:26009   */\n      swap1\n      pop\n        /* \"#utility.yul\":26019:26092   */\n      tag_499\n        /* \"#utility.yul\":26087:26090   */\n      0x80\n        /* \"#utility.yul\":26076:26085   */\n      dup4\n        /* \"#utility.yul\":26072:26091   */\n      add\n        /* \"#utility.yul\":26063:26069   */\n      dup5\n        /* \"#utility.yul\":26019:26092   */\n      tag_207\n      jump\t// in\n    tag_499:\n        /* \"#utility.yul\":25102:26099   */\n      swap10\n      swap9\n      pop\n      pop\n      pop\n      pop\n      pop\n      pop\n      pop\n      pop\n      pop\n      jump\t// out\n        /* \"#utility.yul\":26105:26219   */\n    tag_260:\n      pop\n      jump\t// out\n        /* \"#utility.yul\":26225:26623   */\n    tag_261:\n        /* \"#utility.yul\":26384:26387   */\n      0x00\n        /* \"#utility.yul\":26405:26488   */\n      tag_502\n        /* \"#utility.yul\":26486:26487   */\n      0x00\n        /* \"#utility.yul\":26481:26484   */\n      dup4\n        /* \"#utility.yul\":26405:26488   */\n      tag_229\n      jump\t// in\n    tag_502:\n        /* \"#utility.yul\":26398:26488   */\n      swap2\n      pop\n        /* \"#utility.yul\":26497:26590   */\n      tag_503\n        /* \"#utility.yul\":26586:26589   */\n      dup3\n        /* \"#utility.yul\":26497:26590   */\n      tag_260\n      jump\t// in\n    tag_503:\n        /* \"#utility.yul\":26615:26616   */\n      0x00\n        /* \"#utility.yul\":26610:26613   */\n      dup3\n        /* \"#utility.yul\":26606:26617   */\n      add\n        /* \"#utility.yul\":26599:26617   */\n      swap1\n      pop\n        /* \"#utility.yul\":26225:26623   */\n      swap2\n      swap1\n      pop\n      jump\t// out\n        /* \"#utility.yul\":26629:27008   */\n    tag_190:\n        /* \"#utility.yul\":26813:26816   */\n      0x00\n        /* \"#utility.yul\":26835:26982   */\n      tag_505\n        /* \"#utility.yul\":26978:26981   */\n      dup3\n        /* \"#utility.yul\":26835:26982   */\n      tag_261\n      jump\t// in\n    tag_505:\n        /* \"#utility.yul\":26828:26982   */\n      swap2\n      pop\n        /* \"#utility.yul\":26999:27002   */\n      dup2\n        /* \"#utility.yul\":26992:27002   */\n      swap1\n      pop\n        /* \"#utility.yul\":26629:27008   */\n      swap2\n      swap1\n      pop\n      jump\t// out\n        /* \"#utility.yul\":27014:27184   */\n    tag_262:\n        /* \"#utility.yul\":27154:27176   */\n      0x66756e64207472616e73666572206661696c6564000000000000000000000000\n        /* \"#utility.yul\":27150:27151   */\n      0x00\n        /* \"#utility.yul\":27142:27148   */\n      dup3\n        /* \"#utility.yul\":27138:27152   */\n      add\n        /* \"#utility.yul\":27131:27177   */\n      mstore\n        /* \"#utility.yul\":27014:27184   */\n      pop\n      jump\t// out\n        /* \"#utility.yul\":27190:27556   */\n    tag_263:\n        /* \"#utility.yul\":27332:27335   */\n      0x00\n        /* \"#utility.yul\":27353:27420   */\n      tag_508\n        /* \"#utility.yul\":27417:27419   */\n      0x14\n        /* \"#utility.yul\":27412:27415   */\n      dup4\n        /* \"#utility.yul\":27353:27420   */\n      tag_224\n      jump\t// in\n    tag_508:\n        /* \"#utility.yul\":27346:27420   */\n      swap2\n      pop\n        /* \"#utility.yul\":27429:27522   */\n      tag_509\n        /* \"#utility.yul\":27518:27521   */\n      dup3\n        /* \"#utility.yul\":27429:27522   */\n      tag_262\n      jump\t// in\n    tag_509:\n        /* \"#utility.yul\":27547:27549   */\n      0x20\n        /* \"#utility.yul\":27542:27545   */\n      dup3\n        /* \"#utility.yul\":27538:27550   */\n      add\n        /* \"#utility.yul\":27531:27550   */\n      swap1\n      pop\n        /* \"#utility.yul\":27190:27556   */\n      swap2\n      swap1\n      pop\n      jump\t// out\n        /* \"#utility.yul\":27562:27981   */\n    tag_196:\n        /* \"#utility.yul\":27728:27732   */\n      0x00\n        /* \"#utility.yul\":27766:27768   */\n      0x20\n        /* \"#utility.yul\":27755:27764   */\n      dup3\n        /* \"#utility.yul\":27751:27769   */\n      add\n        /* \"#utility.yul\":27743:27769   */\n      swap1\n      pop\n        /* \"#utility.yul\":27815:27824   */\n      dup2\n        /* \"#utility.yul\":27809:27813   */\n      dup2\n        /* \"#utility.yul\":27805:27825   */\n      sub\n        /* \"#utility.yul\":27801:27802   */\n      0x00\n        /* \"#utility.yul\":27790:27799   */\n      dup4\n        /* \"#utility.yul\":27786:27803   */\n      add\n        /* \"#utility.yul\":27779:27826   */\n      mstore\n        /* \"#utility.yul\":27843:27974   */\n      tag_511\n        /* \"#utility.yul\":27969:27973   */\n      dup2\n        /* \"#utility.yul\":27843:27974   */\n      tag_263\n      jump\t// in\n    tag_511:\n        /* \"#utility.yul\":27835:27974   */\n      swap1\n      pop\n        /* \"#utility.yul\":27562:27981   */\n      swap2\n      swap1\n      pop\n      jump\t// out\n        /* \"#utility.yul\":27987:28430   */\n    tag_198:\n        /* \"#utility.yul\":28138:28142   */\n      0x00\n        /* \"#utility.yul\":28176:28178   */\n      0x40\n        /* \"#utility.yul\":28165:28174   */\n      dup3\n        /* \"#utility.yul\":28161:28179   */\n      add\n        /* \"#utility.yul\":28153:28179   */\n      swap1\n      pop\n        /* \"#utility.yul\":28225:28234   */\n      dup2\n        /* \"#utility.yul\":28219:28223   */\n      dup2\n        /* \"#utility.yul\":28215:28235   */\n      sub\n        /* \"#utility.yul\":28211:28212   */\n      0x00\n        /* \"#utility.yul\":28200:28209   */\n      dup4\n        /* \"#utility.yul\":28196:28213   */\n      add\n        /* \"#utility.yul\":28189:28236   */\n      mstore\n        /* \"#utility.yul\":28253:28341   */\n      tag_513\n        /* \"#utility.yul\":28336:28340   */\n      dup2\n        /* \"#utility.yul\":28327:28333   */\n      dup6\n        /* \"#utility.yul\":28319:28325   */\n      dup8\n        /* \"#utility.yul\":28253:28341   */\n      tag_255\n      jump\t// in\n    tag_513:\n        /* \"#utility.yul\":28245:28341   */\n      swap1\n      pop\n        /* \"#utility.yul\":28351:28423   */\n      tag_514\n        /* \"#utility.yul\":28419:28421   */\n      0x20\n        /* \"#utility.yul\":28408:28417   */\n      dup4\n        /* \"#utility.yul\":28404:28422   */\n      add\n        /* \"#utility.yul\":28395:28401   */\n      dup5\n        /* \"#utility.yul\":28351:28423   */\n      tag_207\n      jump\t// in\n    tag_514:\n        /* \"#utility.yul\":27987:28430   */\n      swap5\n      swap4\n      pop\n      pop\n      pop\n      pop\n      jump\t// out\n\n    auxdata: 0xa26469706673582212200d0830d29fd16f1f3ab678bc4138c4132100ae16a407aec4d44bd8ab88e62ca964736f6c634300081e0033\n}\n",
				"bytecode": {
					"linkReferences": {},
					"object": "608060405267016345785d8a0000600155348015601a575f5ffd5b50335f5f6101000a81548173ffffffffffffffffffffffffffffffffffffffff021916908373ffffffffffffffffffffffffffffffffffffffff1602179055503373ffffffffffffffffffffffffffffffffffffffff165f73ffffffffffffffffffffffffffffffffffffffff167f8be0079c531659141344cd1fd0a4f28419497f9722a3daafe3b4186f6b6457e060405160405180910390a3612326806100c15f395ff3fe608060405260043610610094575f3560e01c8063ca80a77f11610058578063ca80a77f14610191578063e7440698146101bb578063eb12e040146101d7578063f117dd5b146101ff578063f2fde38b1461023b5761009b565b80630c3dea291461009f5780631950c45b146100db5780638da5cb5b14610103578063ad8ee3cb1461012d578063b24a4e52146101555761009b565b3661009b57005b5f5ffd5b3480156100aa575f5ffd5b506100c560048036038101906100c09190611607565b610263565b6040516100d2919061164a565b60405180910390f35b3480156100e6575f5ffd5b5061010160048036038101906100fc91906116ee565b610530565b005b34801561010e575f5ffd5b506101176105d9565b60405161012491906117d4565b60405180910390f35b348015610138575f5ffd5b50610153600480360381019061014e91906117ed565b6105fd565b005b348015610160575f5ffd5b5061017b60048036038101906101769190611818565b610695565b6040516101889190611985565b60405180910390f35b34801561019c575f5ffd5b506101a5610940565b6040516101b2919061164a565b60405180910390f35b6101d560048036038101906101d091906116ee565b610946565b005b3480156101e2575f5ffd5b506101fd60048036038101906101f891906119a5565b610a44565b005b34801561020a575f5ffd5b5061022560048036038101906102209190611607565b610c73565b6040516102329190611985565b60405180910390f35b348015610246575f5ffd5b50610261600480360381019061025c9190611607565b610f43565b005b5f5f60035f8473ffffffffffffffffffffffffffffffffffffffff1673ffffffffffffffffffffffffffffffffffffffff1681526020019081526020015f205490505f60025f8381526020019081526020015f206040518060c00160405290815f820180546102d190611a63565b80601f01602080910402602001604051908101604052809291908181526020018280546102fd90611a63565b80156103485780601f1061031f57610100808354040283529160200191610348565b820191905f5260205f20905b81548152906001019060200180831161032b57829003601f168201915b5050505050815260200160018201805461036190611a63565b80601f016020809104026020016040519081016040528092919081815260200182805461038d90611a63565b80156103d85780601f106103af576101008083540402835291602001916103d8565b820191905f5260205f20905b8154815290600101906020018083116103bb57829003601f168201915b50505050508152602001600282015f9054906101000a900473ffffffffffffffffffffffffffffffffffffffff1673ffffffffffffffffffffffffffffffffffffffff1673ffffffffffffffffffffffffffffffffffffffff16815260200160038201805461044690611a63565b80601f016020809104026020016040519081016040528092919081815260200182805461047290611a63565b80156104bd5780601f10610494576101008083540402835291602001916104bd565b820191905f5260205f20905b8154815290600101906020018083116104a057829003601f168201915b505050505081526020016004820154815260200160058201548152505090505f815f01515111610522576040517f08c379a000000000000000000000000000000000000000000000000000000000815260040161051990611aed565b60405180910390fd5b806080015192505050919050565b5f5f9054906101000a900473ffffffffffffffffffffffffffffffffffffffff1673ffffffffffffffffffffffffffffffffffffffff163373ffffffffffffffffffffffffffffffffffffffff16146105be576040517f08c379a00000000000000000000000000000000000000000000000000000000081526004016105b590611b55565b60405180910390fd5b6105ce88888888888888886110fb565b505050505050505050565b5f5f9054906101000a900473ffffffffffffffffffffffffffffffffffffffff1681565b5f5f9054906101000a900473ffffffffffffffffffffffffffffffffffffffff1673ffffffffffffffffffffffffffffffffffffffff163373ffffffffffffffffffffffffffffffffffffffff161461068b576040517f08c379a000000000000000000000000000000000000000000000000000000000815260040161068290611b55565b60405180910390fd5b8060018190555050565b61069d61155c565b5f83836040516106ae929190611baf565b604051809103902090505f60025f8381526020019081526020015f206040518060c00160405290815f820180546106e490611a63565b80601f016020809104026020016040519081016040528092919081815260200182805461071090611a63565b801561075b5780601f106107325761010080835404028352916020019161075b565b820191905f5260205f20905b81548152906001019060200180831161073e57829003601f168201915b5050505050815260200160018201805461077490611a63565b80601f01602080910402602001604051908101604052809291908181526020018280546107a090611a63565b80156107eb5780601f106107c2576101008083540402835291602001916107eb565b820191905f5260205f20905b8154815290600101906020018083116107ce57829003601f168201915b50505050508152602001600282015f9054906101000a900473ffffffffffffffffffffffffffffffffffffffff1673ffffffffffffffffffffffffffffffffffffffff1673ffffffffffffffffffffffffffffffffffffffff16815260200160038201805461085990611a63565b80601f016020809104026020016040519081016040528092919081815260200182805461088590611a63565b80156108d05780601f106108a7576101008083540402835291602001916108d0565b820191905f5260205f20905b8154815290600101906020018083116108b357829003601f168201915b505050505081526020016004820154815260200160058201548152505090505f815f01515111610935576040517f08c379a000000000000000000000000000000000000000000000000000000000815260040161092c90611aed565b60405180910390fd5b809250505092915050565b60015481565b5f5f9054906101000a900473ffffffffffffffffffffffffffffffffffffffff1673ffffffffffffffffffffffffffffffffffffffff163373ffffffffffffffffffffffffffffffffffffffff16146109d4576040517f08c379a00000000000000000000000000000000000000000000000000000000081526004016109cb90611b55565b60405180910390fd5b600154341015610a19576040517f08c379a0000000000000000000000000000000000000000000000000000000008152600401610a1090611c11565b60405180910390fd5b5f610a2a89898989898989896110fb565b9050610a39818a8a8834611459565b505050505050505050565b5f5f9054906101000a900473ffffffffffffffffffffffffffffffffffffffff1673ffffffffffffffffffffffffffffffffffffffff163373ffffffffffffffffffffffffffffffffffffffff1614610ad2576040517f08c379a0000000000000000000000000000000000000000000000000000000008152600401610ac990611b55565b60405180910390fd5b5f8585905011610b17576040517f08c379a0000000000000000000000000000000000000000000000000000000008152600401610b0e90611c79565b60405180910390fd5b5f8585604051610b28929190611baf565b604051809103902090505f60025f8381526020019081526020015f205f018054610b5190611a63565b905011610b93576040517f08c379a0000000000000000000000000000000000000000000000000000000008152600401610b8a90611aed565b60405180910390fd5b5f8211610bd5576040517f08c379a0000000000000000000000000000000000000000000000000000000008152600401610bcc90611ce1565b60405180910390fd5b838360025f8481526020019081526020015f206003019182610bf8929190611ed6565b508160025f8381526020019081526020015f20600401819055504260025f8381526020019081526020015f2060050181905550807f83ffc3ac8241db58af7e14e2cba24e454315dccc6a0fdc302b67bbf27a9d5fa78787878787604051610c63959493929190611fcf565b60405180910390a2505050505050565b610c7b61155c565b5f60035f8473ffffffffffffffffffffffffffffffffffffffff1673ffffffffffffffffffffffffffffffffffffffff1681526020019081526020015f205490505f60025f8381526020019081526020015f206040518060c00160405290815f82018054610ce890611a63565b80601f0160208091040260200160405190810160405280929190818152602001828054610d1490611a63565b8015610d5f5780601f10610d3657610100808354040283529160200191610d5f565b820191905f5260205f20905b815481529060010190602001808311610d4257829003601f168201915b50505050508152602001600182018054610d7890611a63565b80601f0160208091040260200160405190810160405280929190818152602001828054610da490611a63565b8015610def5780601f10610dc657610100808354040283529160200191610def565b820191905f5260205f20905b815481529060010190602001808311610dd257829003601f168201915b50505050508152602001600282015f9054906101000a900473ffffffffffffffffffffffffffffffffffffffff1673ffffffffffffffffffffffffffffffffffffffff1673ffffffffffffffffffffffffffffffffffffffff168152602001600382018054610e5d90611a63565b80601f0160208091040260200160405190810160405280929190818152602001828054610e8990611a63565b8015610ed45780601f10610eab57610100808354040283529160200191610ed4565b820191905f5260205f20905b815481529060010190602001808311610eb757829003601f168201915b505050505081526020016004820154815260200160058201548152505090505f815f01515111610f39576040517f08c379a0000000000000000000000000000000000000000000000000000000008152600401610f3090611aed565b60405180910390fd5b8092505050919050565b5f5f9054906101000a900473ffffffffffffffffffffffffffffffffffffffff1673ffffffffffffffffffffffffffffffffffffffff163373ffffffffffffffffffffffffffffffffffffffff1614610fd1576040517f08c379a0000000000000000000000000000000000000000000000000000000008152600401610fc890611b55565b60405180910390fd5b5f73ffffffffffffffffffffffffffffffffffffffff168173ffffffffffffffffffffffffffffffffffffffff160361103f576040517f08c379a000000000000000000000000000000000000000000000000000000000815260040161103690612060565b60405180910390fd5b8073ffffffffffffffffffffffffffffffffffffffff165f5f9054906101000a900473ffffffffffffffffffffffffffffffffffffffff1673ffffffffffffffffffffffffffffffffffffffff167f8be0079c531659141344cd1fd0a4f28419497f9722a3daafe3b4186f6b6457e060405160405180910390a3805f5f6101000a81548173ffffffffffffffffffffffffffffffffffffffff021916908373ffffffffffffffffffffffffffffffffffffffff16021790555050565b5f5f8989905011611141576040517f08c379a000000000000000000000000000000000000000000000000000000000815260040161113890611c79565b60405180910390fd5b5f73ffffffffffffffffffffffffffffffffffffffff168573ffffffffffffffffffffffffffffffffffffffff16036111af576040517f08c379a00000000000000000000000000000000000000000000000000000000081526004016111a6906120c8565b60405180910390fd5b5f82116111f1576040517f08c379a00000000000000000000000000000000000000000000000000000000081526004016111e890611ce1565b60405180910390fd5b8888604051611201929190611baf565b604051809103902090506040518060c001604052808a8a8080601f0160208091040260200160405190810160405280939291908181526020018383808284375f81840152601f19601f82011690508083019250505050505050815260200188888080601f0160208091040260200160405190810160405280939291908181526020018383808284375f81840152601f19601f8201169050808301925050505050505081526020018673ffffffffffffffffffffffffffffffffffffffff16815260200185858080601f0160208091040260200160405190810160405280939291908181526020018383808284375f81840152601f19601f8201169050808301925050505050505081526020018381526020014281525060025f8381526020019081526020015f205f820151815f01908161133b91906120e6565b50602082015181600101908161135191906120e6565b506040820151816002015f6101000a81548173ffffffffffffffffffffffffffffffffffffffff021916908373ffffffffffffffffffffffffffffffffffffffff16021790555060608201518160030190816113ad91906120e6565b506080820151816004015560a082015181600501559050508060035f8773ffffffffffffffffffffffffffffffffffffffff1673ffffffffffffffffffffffffffffffffffffffff1681526020019081526020015f2081905550807f502399ffc14aabf146372ee3e6d9385622bbf5edec1846f89e416f680372e1738a8a8a8a8a8a8a8a6040516114459897969594939291906121b5565b60405180910390a298975050505050505050565b5f8273ffffffffffffffffffffffffffffffffffffffff168260405161147e90612244565b5f6040518083038185875af1925050503d805f81146114b8576040519150601f19603f3d011682016040523d82523d5f602084013e6114bd565b606091505b5050905080611501576040517f08c379a00000000000000000000000000000000000000000000000000000000081526004016114f8906122a2565b60405180910390fd5b8273ffffffffffffffffffffffffffffffffffffffff16867f605cf1e76558bf63cfec5306ed6562a0ff6ed7945d0431bf7711e0432a0c50a187878660405161154c939291906122c0565b60405180910390a3505050505050565b6040518060c0016040528060608152602001606081526020015f73ffffffffffffffffffffffffffffffffffffffff168152602001606081526020015f81526020015f81525090565b5f5ffd5b5f5ffd5b5f73ffffffffffffffffffffffffffffffffffffffff82169050919050565b5f6115d6826115ad565b9050919050565b6115e6816115cc565b81146115f0575f5ffd5b50565b5f81359050611601816115dd565b92915050565b5f6020828403121561161c5761161b6115a5565b5b5f611629848285016115f3565b91505092915050565b5f819050919050565b61164481611632565b82525050565b5f60208201905061165d5f83018461163b565b92915050565b5f5ffd5b5f5ffd5b5f5ffd5b5f5f83601f84011261168457611683611663565b5b8235905067ffffffffffffffff8111156116a1576116a0611667565b5b6020830191508360018202830111156116bd576116bc61166b565b5b9250929050565b6116cd81611632565b81146116d7575f5ffd5b50565b5f813590506116e8816116c4565b92915050565b5f5f5f5f5f5f5f5f60a0898b03121561170a576117096115a5565b5b5f89013567ffffffffffffffff811115611727576117266115a9565b5b6117338b828c0161166f565b9850985050602089013567ffffffffffffffff811115611756576117556115a9565b5b6117628b828c0161166f565b965096505060406117758b828c016115f3565b945050606089013567ffffffffffffffff811115611796576117956115a9565b5b6117a28b828c0161166f565b935093505060806117b58b828c016116da565b9150509295985092959890939650565b6117ce816115cc565b82525050565b5f6020820190506117e75f8301846117c5565b92915050565b5f60208284031215611802576118016115a5565b5b5f61180f848285016116da565b91505092915050565b5f5f6020838503121561182e5761182d6115a5565b5b5f83013567ffffffffffffffff81111561184b5761184a6115a9565b5b6118578582860161166f565b92509250509250929050565b5f81519050919050565b5f82825260208201905092915050565b8281835e5f83830152505050565b5f601f19601f8301169050919050565b5f6118a582611863565b6118af818561186d565b93506118bf81856020860161187d565b6118c88161188b565b840191505092915050565b6118dc816115cc565b82525050565b6118eb81611632565b82525050565b5f60c083015f8301518482035f86015261190b828261189b565b91505060208301518482036020860152611925828261189b565b915050604083015161193a60408601826118d3565b5060608301518482036060860152611952828261189b565b915050608083015161196760808601826118e2565b5060a083015161197a60a08601826118e2565b508091505092915050565b5f6020820190508181035f83015261199d81846118f1565b905092915050565b5f5f5f5f5f606086880312156119be576119bd6115a5565b5b5f86013567ffffffffffffffff8111156119db576119da6115a9565b5b6119e78882890161166f565b9550955050602086013567ffffffffffffffff811115611a0a57611a096115a9565b5b611a168882890161166f565b93509350506040611a29888289016116da565b9150509295509295909350565b7f4e487b71000000000000000000000000000000000000000000000000000000005f52602260045260245ffd5b5f6002820490506001821680611a7a57607f821691505b602082108103611a8d57611a8c611a36565b5b50919050565b5f82825260208201905092915050565b7f636f6d70616e79206d697373696e6700000000000000000000000000000000005f82015250565b5f611ad7600f83611a93565b9150611ae282611aa3565b602082019050919050565b5f6020820190508181035f830152611b0481611acb565b9050919050565b7f4e6f74206f776e657200000000000000000000000000000000000000000000005f82015250565b5f611b3f600983611a93565b9150611b4a82611b0b565b602082019050919050565b5f6020820190508181035f830152611b6c81611b33565b9050919050565b5f81905092915050565b828183375f83830152505050565b5f611b968385611b73565b9350611ba3838584611b7d565b82840190509392505050565b5f611bbb828486611b8b565b91508190509392505050565b7f696e73756666696369656e74206d73672e76616c7565000000000000000000005f82015250565b5f611bfb601683611a93565b9150611c0682611bc7565b602082019050919050565b5f6020820190508181035f830152611c2881611bef565b9050919050565b7f66697265626173654964207265717569726564000000000000000000000000005f82015250565b5f611c63601383611a93565b9150611c6e82611c2f565b602082019050919050565b5f6020820190508181035f830152611c9081611c57565b9050919050565b7f63617020726571756972656400000000000000000000000000000000000000005f82015250565b5f611ccb600c83611a93565b9150611cd682611c97565b602082019050919050565b5f6020820190508181035f830152611cf881611cbf565b9050919050565b5f82905092915050565b7f4e487b71000000000000000000000000000000000000000000000000000000005f52604160045260245ffd5b5f819050815f5260205f209050919050565b5f6020601f8301049050919050565b5f82821b905092915050565b5f60088302611d927fffffffffffffffffffffffffffffffffffffffffffffffffffffffffffffffff82611d57565b611d9c8683611d57565b95508019841693508086168417925050509392505050565b5f819050919050565b5f611dd7611dd2611dcd84611632565b611db4565b611632565b9050919050565b5f819050919050565b611df083611dbd565b611e04611dfc82611dde565b848454611d63565b825550505050565b5f5f905090565b611e1b611e0c565b611e26818484611de7565b505050565b5b81811015611e4957611e3e5f82611e13565b600181019050611e2c565b5050565b601f821115611e8e57611e5f81611d36565b611e6884611d48565b81016020851015611e77578190505b611e8b611e8385611d48565b830182611e2b565b50505b505050565b5f82821c905092915050565b5f611eae5f1984600802611e93565b1980831691505092915050565b5f611ec68383611e9f565b9150826002028217905092915050565b611ee08383611cff565b67ffffffffffffffff811115611ef957611ef8611d09565b5b611f038254611a63565b611f0e828285611e4d565b5f601f831160018114611f3b575f8415611f29578287013590505b611f338582611ebb565b865550611f9a565b601f198416611f4986611d36565b5f5b82811015611f7057848901358255600182019150602085019450602081019050611f4b565b86831015611f8d5784890135611f89601f891682611e9f565b8355505b6001600288020188555050505b50505050505050565b5f611fae8385611a93565b9350611fbb838584611b7d565b611fc48361188b565b840190509392505050565b5f6060820190508181035f830152611fe8818789611fa3565b90508181036020830152611ffd818587611fa3565b905061200c604083018461163b565b9695505050505050565b7f5a65726f206f776e6572000000000000000000000000000000000000000000005f82015250565b5f61204a600a83611a93565b915061205582612016565b602082019050919050565b5f6020820190508181035f8301526120778161203e565b9050919050565b7f77616c6c657420726571756972656400000000000000000000000000000000005f82015250565b5f6120b2600f83611a93565b91506120bd8261207e565b602082019050919050565b5f6020820190508181035f8301526120df816120a6565b9050919050565b6120ef82611863565b67ffffffffffffffff81111561210857612107611d09565b5b6121128254611a63565b61211d828285611e4d565b5f60209050601f83116001811461214e575f841561213c578287015190505b6121468582611ebb565b8655506121ad565b601f19841661215c86611d36565b5f5b828110156121835784890151825560018201915060208501945060208101905061215e565b868310156121a0578489015161219c601f891682611e9f565b8355505b6001600288020188555050505b505050505050565b5f60a0820190508181035f8301526121ce818a8c611fa3565b905081810360208301526121e381888a611fa3565b90506121f260408301876117c5565b8181036060830152612205818587611fa3565b9050612214608083018461163b565b9998505050505050505050565b50565b5f61222f5f83611b73565b915061223a82612221565b5f82019050919050565b5f61224e82612224565b9150819050919050565b7f66756e64207472616e73666572206661696c65640000000000000000000000005f82015250565b5f61228c601483611a93565b915061229782612258565b602082019050919050565b5f6020820190508181035f8301526122b981612280565b9050919050565b5f6040820190508181035f8301526122d9818587611fa3565b90506122e8602083018461163b565b94935050505056fea26469706673582212200d0830d29fd16f1f3ab678bc4138c4132100ae16a407aec4d44bd8ab88e62ca964736f6c634300081e0033",
					"opcodes": "PUSH1 0x80 PUSH1 0x40 MSTORE PUSH8 0x16345785D8A0000 PUSH1 0x1 SSTORE CALLVALUE DUP1 ISZERO PUSH1 0x1A JUMPI PUSH0 PUSH0 REVERT JUMPDEST POP CALLER PUSH0 PUSH0 PUSH2 0x100 EXP DUP2 SLOAD DUP2 PUSH20 0xFFFFFFFFFFFFFFFFFFFFFFFFFFFFFFFFFFFFFFFF MUL NOT AND SWAP1 DUP4 PUSH20 0xFFFFFFFFFFFFFFFFFFFFFFFFFFFFFFFFFFFFFFFF AND MUL OR SWAP1 SSTORE POP CALLER PUSH20 0xFFFFFFFFFFFFFFFFFFFFFFFFFFFFFFFFFFFFFFFF AND PUSH0 PUSH20 0xFFFFFFFFFFFFFFFFFFFFFFFFFFFFFFFFFFFFFFFF AND PUSH32 0x8BE0079C531659141344CD1FD0A4F28419497F9722A3DAAFE3B4186F6B6457E0 PUSH1 0x40 MLOAD PUSH1 0x40 MLOAD DUP1 SWAP2 SUB SWAP1 LOG3 PUSH2 0x2326 DUP1 PUSH2 0xC1 PUSH0 CODECOPY PUSH0 RETURN INVALID PUSH1 0x80 PUSH1 0x40 MSTORE PUSH1 0x4 CALLDATASIZE LT PUSH2 0x94 JUMPI PUSH0 CALLDATALOAD PUSH1 0xE0 SHR DUP1 PUSH4 0xCA80A77F GT PUSH2 0x58 JUMPI DUP1 PUSH4 0xCA80A77F EQ PUSH2 0x191 JUMPI DUP1 PUSH4 0xE7440698 EQ PUSH2 0x1BB JUMPI DUP1 PUSH4 0xEB12E040 EQ PUSH2 0x1D7 JUMPI DUP1 PUSH4 0xF117DD5B EQ PUSH2 0x1FF JUMPI DUP1 PUSH4 0xF2FDE38B EQ PUSH2 0x23B JUMPI PUSH2 0x9B JUMP JUMPDEST DUP1 PUSH4 0xC3DEA29 EQ PUSH2 0x9F JUMPI DUP1 PUSH4 0x1950C45B EQ PUSH2 0xDB JUMPI DUP1 PUSH4 0x8DA5CB5B EQ PUSH2 0x103 JUMPI DUP1 PUSH4 0xAD8EE3CB EQ PUSH2 0x12D JUMPI DUP1 PUSH4 0xB24A4E52 EQ PUSH2 0x155 JUMPI PUSH2 0x9B JUMP JUMPDEST CALLDATASIZE PUSH2 0x9B JUMPI STOP JUMPDEST PUSH0 PUSH0 REVERT JUMPDEST CALLVALUE DUP1 ISZERO PUSH2 0xAA JUMPI PUSH0 PUSH0 REVERT JUMPDEST POP PUSH2 0xC5 PUSH1 0x4 DUP1 CALLDATASIZE SUB DUP2 ADD SWAP1 PUSH2 0xC0 SWAP2 SWAP1 PUSH2 0x1607 JUMP JUMPDEST PUSH2 0x263 JUMP JUMPDEST PUSH1 0x40 MLOAD PUSH2 0xD2 SWAP2 SWAP1 PUSH2 0x164A JUMP JUMPDEST PUSH1 0x40 MLOAD DUP1 SWAP2 SUB SWAP1 RETURN JUMPDEST CALLVALUE DUP1 ISZERO PUSH2 0xE6 JUMPI PUSH0 PUSH0 REVERT JUMPDEST POP PUSH2 0x101 PUSH1 0x4 DUP1 CALLDATASIZE SUB DUP2 ADD SWAP1 PUSH2 0xFC SWAP2 SWAP1 PUSH2 0x16EE JUMP JUMPDEST PUSH2 0x530 JUMP JUMPDEST STOP JUMPDEST CALLVALUE DUP1 ISZERO PUSH2 0x10E JUMPI PUSH0 PUSH0 REVERT JUMPDEST POP PUSH2 0x117 PUSH2 0x5D9 JUMP JUMPDEST PUSH1 0x40 MLOAD PUSH2 0x124 SWAP2 SWAP1 PUSH2 0x17D4 JUMP JUMPDEST PUSH1 0x40 MLOAD DUP1 SWAP2 SUB SWAP1 RETURN JUMPDEST CALLVALUE DUP1 ISZERO PUSH2 0x138 JUMPI PUSH0 PUSH0 REVERT JUMPDEST POP PUSH2 0x153 PUSH1 0x4 DUP1 CALLDATASIZE SUB DUP2 ADD SWAP1 PUSH2 0x14E SWAP2 SWAP1 PUSH2 0x17ED JUMP JUMPDEST PUSH2 0x5FD JUMP JUMPDEST STOP JUMPDEST CALLVALUE DUP1 ISZERO PUSH2 0x160 JUMPI PUSH0 PUSH0 REVERT JUMPDEST POP PUSH2 0x17B PUSH1 0x4 DUP1 CALLDATASIZE SUB DUP2 ADD SWAP1 PUSH2 0x176 SWAP2 SWAP1 PUSH2 0x1818 JUMP JUMPDEST PUSH2 0x695 JUMP JUMPDEST PUSH1 0x40 MLOAD PUSH2 0x188 SWAP2 SWAP1 PUSH2 0x1985 JUMP JUMPDEST PUSH1 0x40 MLOAD DUP1 SWAP2 SUB SWAP1 RETURN JUMPDEST CALLVALUE DUP1 ISZERO PUSH2 0x19C JUMPI PUSH0 PUSH0 REVERT JUMPDEST POP PUSH2 0x1A5 PUSH2 0x940 JUMP JUMPDEST PUSH1 0x40 MLOAD PUSH2 0x1B2 SWAP2 SWAP1 PUSH2 0x164A JUMP JUMPDEST PUSH1 0x40 MLOAD DUP1 SWAP2 SUB SWAP1 RETURN JUMPDEST PUSH2 0x1D5 PUSH1 0x4 DUP1 CALLDATASIZE SUB DUP2 ADD SWAP1 PUSH2 0x1D0 SWAP2 SWAP1 PUSH2 0x16EE JUMP JUMPDEST PUSH2 0x946 JUMP JUMPDEST STOP JUMPDEST CALLVALUE DUP1 ISZERO PUSH2 0x1E2 JUMPI PUSH0 PUSH0 REVERT JUMPDEST POP PUSH2 0x1FD PUSH1 0x4 DUP1 CALLDATASIZE SUB DUP2 ADD SWAP1 PUSH2 0x1F8 SWAP2 SWAP1 PUSH2 0x19A5 JUMP JUMPDEST PUSH2 0xA44 JUMP JUMPDEST STOP JUMPDEST CALLVALUE DUP1 ISZERO PUSH2 0x20A JUMPI PUSH0 PUSH0 REVERT JUMPDEST POP PUSH2 0x225 PUSH1 0x4 DUP1 CALLDATASIZE SUB DUP2 ADD SWAP1 PUSH2 0x220 SWAP2 SWAP1 PUSH2 0x1607 JUMP JUMPDEST PUSH2 0xC73 JUMP JUMPDEST PUSH1 0x40 MLOAD PUSH2 0x232 SWAP2 SWAP1 PUSH2 0x1985 JUMP JUMPDEST PUSH1 0x40 MLOAD DUP1 SWAP2 SUB SWAP1 RETURN JUMPDEST CALLVALUE DUP1 ISZERO PUSH2 0x246 JUMPI PUSH0 PUSH0 REVERT JUMPDEST POP PUSH2 0x261 PUSH1 0x4 DUP1 CALLDATASIZE SUB DUP2 ADD SWAP1 PUSH2 0x25C SWAP2 SWAP1 PUSH2 0x1607 JUMP JUMPDEST PUSH2 0xF43 JUMP JUMPDEST STOP JUMPDEST PUSH0 PUSH0 PUSH1 0x3 PUSH0 DUP5 PUSH20 0xFFFFFFFFFFFFFFFFFFFFFFFFFFFFFFFFFFFFFFFF AND PUSH20 0xFFFFFFFFFFFFFFFFFFFFFFFFFFFFFFFFFFFFFFFF AND DUP2 MSTORE PUSH1 0x20 ADD SWAP1 DUP2 MSTORE PUSH1 0x20 ADD PUSH0 KECCAK256 SLOAD SWAP1 POP PUSH0 PUSH1 0x2 PUSH0 DUP4 DUP2 MSTORE PUSH1 0x20 ADD SWAP1 DUP2 MSTORE PUSH1 0x20 ADD PUSH0 KECCAK256 PUSH1 0x40 MLOAD DUP1 PUSH1 0xC0 ADD PUSH1 0x40 MSTORE SWAP1 DUP2 PUSH0 DUP3 ADD DUP1 SLOAD PUSH2 0x2D1 SWAP1 PUSH2 0x1A63 JUMP JUMPDEST DUP1 PUSH1 0x1F ADD PUSH1 0x20 DUP1 SWAP2 DIV MUL PUSH1 0x20 ADD PUSH1 0x40 MLOAD SWAP1 DUP2 ADD PUSH1 0x40 MSTORE DUP1 SWAP3 SWAP2 SWAP1 DUP2 DUP2 MSTORE PUSH1 0x20 ADD DUP3 DUP1 SLOAD PUSH2 0x2FD SWAP1 PUSH2 0x1A63 JUMP JUMPDEST DUP1 ISZERO PUSH2 0x348 JUMPI DUP1 PUSH1 0x1F LT PUSH2 0x31F JUMPI PUSH2 0x100 DUP1 DUP4 SLOAD DIV MUL DUP4 MSTORE SWAP2 PUSH1 0x20 ADD SWAP2 PUSH2 0x348 JUMP JUMPDEST DUP3 ADD SWAP2 SWAP1 PUSH0 MSTORE PUSH1 0x20 PUSH0 KECCAK256 SWAP1 JUMPDEST DUP2 SLOAD DUP2 MSTORE SWAP1 PUSH1 0x1 ADD SWAP1 PUSH1 0x20 ADD DUP1 DUP4 GT PUSH2 0x32B JUMPI DUP3 SWAP1 SUB PUSH1 0x1F AND DUP3 ADD SWAP2 JUMPDEST POP POP POP POP POP DUP2 MSTORE PUSH1 0x20 ADD PUSH1 0x1 DUP3 ADD DUP1 SLOAD PUSH2 0x361 SWAP1 PUSH2 0x1A63 JUMP JUMPDEST DUP1 PUSH1 0x1F ADD PUSH1 0x20 DUP1 SWAP2 DIV MUL PUSH1 0x20 ADD PUSH1 0x40 MLOAD SWAP1 DUP2 ADD PUSH1 0x40 MSTORE DUP1 SWAP3 SWAP2 SWAP1 DUP2 DUP2 MSTORE PUSH1 0x20 ADD DUP3 DUP1 SLOAD PUSH2 0x38D SWAP1 PUSH2 0x1A63 JUMP JUMPDEST DUP1 ISZERO PUSH2 0x3D8 JUMPI DUP1 PUSH1 0x1F LT PUSH2 0x3AF JUMPI PUSH2 0x100 DUP1 DUP4 SLOAD DIV MUL DUP4 MSTORE SWAP2 PUSH1 0x20 ADD SWAP2 PUSH2 0x3D8 JUMP JUMPDEST DUP3 ADD SWAP2 SWAP1 PUSH0 MSTORE PUSH1 0x20 PUSH0 KECCAK256 SWAP1 JUMPDEST DUP2 SLOAD DUP2 MSTORE SWAP1 PUSH1 0x1 ADD SWAP1 PUSH1 0x20 ADD DUP1 DUP4 GT PUSH2 0x3BB JUMPI DUP3 SWAP1 SUB PUSH1 0x1F AND DUP3 ADD SWAP2 JUMPDEST POP POP POP POP POP DUP2 MSTORE PUSH1 0x20 ADD PUSH1 0x2 DUP3 ADD PUSH0 SWAP1 SLOAD SWAP1 PUSH2 0x100 EXP SWAP1 DIV PUSH20 0xFFFFFFFFFFFFFFFFFFFFFFFFFFFFFFFFFFFFFFFF AND PUSH20 0xFFFFFFFFFFFFFFFFFFFFFFFFFFFFFFFFFFFFFFFF AND PUSH20 0xFFFFFFFFFFFFFFFFFFFFFFFFFFFFFFFFFFFFFFFF AND DUP2 MSTORE PUSH1 0x20 ADD PUSH1 0x3 DUP3 ADD DUP1 SLOAD PUSH2 0x446 SWAP1 PUSH2 0x1A63 JUMP JUMPDEST DUP1 PUSH1 0x1F ADD PUSH1 0x20 DUP1 SWAP2 DIV MUL PUSH1 0x20 ADD PUSH1 0x40 MLOAD SWAP1 DUP2 ADD PUSH1 0x40 MSTORE DUP1 SWAP3 SWAP2 SWAP1 DUP2 DUP2 MSTORE PUSH1 0x20 ADD DUP3 DUP1 SLOAD PUSH2 0x472 SWAP1 PUSH2 0x1A63 JUMP JUMPDEST DUP1 ISZERO PUSH2 0x4BD JUMPI DUP1 PUSH1 0x1F LT PUSH2 0x494 JUMPI PUSH2 0x100 DUP1 DUP4 SLOAD DIV MUL DUP4 MSTORE SWAP2 PUSH1 0x20 ADD SWAP2 PUSH2 0x4BD JUMP JUMPDEST DUP3 ADD SWAP2 SWAP1 PUSH0 MSTORE PUSH1 0x20 PUSH0 KECCAK256 SWAP1 JUMPDEST DUP2 SLOAD DUP2 MSTORE SWAP1 PUSH1 0x1 ADD SWAP1 PUSH1 0x20 ADD DUP1 DUP4 GT PUSH2 0x4A0 JUMPI DUP3 SWAP1 SUB PUSH1 0x1F AND DUP3 ADD SWAP2 JUMPDEST POP POP POP POP POP DUP2 MSTORE PUSH1 0x20 ADD PUSH1 0x4 DUP3 ADD SLOAD DUP2 MSTORE PUSH1 0x20 ADD PUSH1 0x5 DUP3 ADD SLOAD DUP2 MSTORE POP POP SWAP1 POP PUSH0 DUP2 PUSH0 ADD MLOAD MLOAD GT PUSH2 0x522 JUMPI PUSH1 0x40 MLOAD PUSH32 0x8C379A000000000000000000000000000000000000000000000000000000000 DUP2 MSTORE PUSH1 0x4 ADD PUSH2 0x519 SWAP1 PUSH2 0x1AED JUMP JUMPDEST PUSH1 0x40 MLOAD DUP1 SWAP2 SUB SWAP1 REVERT JUMPDEST DUP1 PUSH1 0x80 ADD MLOAD SWAP3 POP POP POP SWAP2 SWAP1 POP JUMP JUMPDEST PUSH0 PUSH0 SWAP1 SLOAD SWAP1 PUSH2 0x100 EXP SWAP1 DIV PUSH20 0xFFFFFFFFFFFFFFFFFFFFFFFFFFFFFFFFFFFFFFFF AND PUSH20 0xFFFFFFFFFFFFFFFFFFFFFFFFFFFFFFFFFFFFFFFF AND CALLER PUSH20 0xFFFFFFFFFFFFFFFFFFFFFFFFFFFFFFFFFFFFFFFF AND EQ PUSH2 0x5BE JUMPI PUSH1 0x40 MLOAD PUSH32 0x8C379A000000000000000000000000000000000000000000000000000000000 DUP2 MSTORE PUSH1 0x4 ADD PUSH2 0x5B5 SWAP1 PUSH2 0x1B55 JUMP JUMPDEST PUSH1 0x40 MLOAD DUP1 SWAP2 SUB SWAP1 REVERT JUMPDEST PUSH2 0x5CE DUP9 DUP9 DUP9 DUP9 DUP9 DUP9 DUP9 DUP9 PUSH2 0x10FB JUMP JUMPDEST POP POP POP POP POP POP POP POP POP JUMP JUMPDEST PUSH0 PUSH0 SWAP1 SLOAD SWAP1 PUSH2 0x100 EXP SWAP1 DIV PUSH20 0xFFFFFFFFFFFFFFFFFFFFFFFFFFFFFFFFFFFFFFFF AND DUP2 JUMP JUMPDEST PUSH0 PUSH0 SWAP1 SLOAD SWAP1 PUSH2 0x100 EXP SWAP1 DIV PUSH20 0xFFFFFFFFFFFFFFFFFFFFFFFFFFFFFFFFFFFFFFFF AND PUSH20 0xFFFFFFFFFFFFFFFFFFFFFFFFFFFFFFFFFFFFFFFF AND CALLER PUSH20 0xFFFFFFFFFFFFFFFFFFFFFFFFFFFFFFFFFFFFFFFF AND EQ PUSH2 0x68B JUMPI PUSH1 0x40 MLOAD PUSH32 0x8C379A000000000000000000000000000000000000000000000000000000000 DUP2 MSTORE PUSH1 0x4 ADD PUSH2 0x682 SWAP1 PUSH2 0x1B55 JUMP JUMPDEST PUSH1 0x40 MLOAD DUP1 SWAP2 SUB SWAP1 REVERT JUMPDEST DUP1 PUSH1 0x1 DUP2 SWAP1 SSTORE POP POP JUMP JUMPDEST PUSH2 0x69D PUSH2 0x155C JUMP JUMPDEST PUSH0 DUP4 DUP4 PUSH1 0x40 MLOAD PUSH2 0x6AE SWAP3 SWAP2 SWAP1 PUSH2 0x1BAF JUMP JUMPDEST PUSH1 0x40 MLOAD DUP1 SWAP2 SUB SWAP1 KECCAK256 SWAP1 POP PUSH0 PUSH1 0x2 PUSH0 DUP4 DUP2 MSTORE PUSH1 0x20 ADD SWAP1 DUP2 MSTORE PUSH1 0x20 ADD PUSH0 KECCAK256 PUSH1 0x40 MLOAD DUP1 PUSH1 0xC0 ADD PUSH1 0x40 MSTORE SWAP1 DUP2 PUSH0 DUP3 ADD DUP1 SLOAD PUSH2 0x6E4 SWAP1 PUSH2 0x1A63 JUMP JUMPDEST DUP1 PUSH1 0x1F ADD PUSH1 0x20 DUP1 SWAP2 DIV MUL PUSH1 0x20 ADD PUSH1 0x40 MLOAD SWAP1 DUP2 ADD PUSH1 0x40 MSTORE DUP1 SWAP3 SWAP2 SWAP1 DUP2 DUP2 MSTORE PUSH1 0x20 ADD DUP3 DUP1 SLOAD PUSH2 0x710 SWAP1 PUSH2 0x1A63 JUMP JUMPDEST DUP1 ISZERO PUSH2 0x75B JUMPI DUP1 PUSH1 0x1F LT PUSH2 0x732 JUMPI PUSH2 0x100 DUP1 DUP4 SLOAD DIV MUL DUP4 MSTORE SWAP2 PUSH1 0x20 ADD SWAP2 PUSH2 0x75B JUMP JUMPDEST DUP3 ADD SWAP2 SWAP1 PUSH0 MSTORE PUSH1 0x20 PUSH0 KECCAK256 SWAP1 JUMPDEST DUP2 SLOAD DUP2 MSTORE SWAP1 PUSH1 0x1 ADD SWAP1 PUSH1 0x20 ADD DUP1 DUP4 GT PUSH2 0x73E JUMPI DUP3 SWAP1 SUB PUSH1 0x1F AND DUP3 ADD SWAP2 JUMPDEST POP POP POP POP POP DUP2 MSTORE PUSH1 0x20 ADD PUSH1 0x1 DUP3 ADD DUP1 SLOAD PUSH2 0x774 SWAP1 PUSH2 0x1A63 JUMP JUMPDEST DUP1 PUSH1 0x1F ADD PUSH1 0x20 DUP1 SWAP2 DIV MUL PUSH1 0x20 ADD PUSH1 0x40 MLOAD SWAP1 DUP2 ADD PUSH1 0x40 MSTORE DUP1 SWAP3 SWAP2 SWAP1 DUP2 DUP2 MSTORE PUSH1 0x20 ADD DUP3 DUP1 SLOAD PUSH2 0x7A0 SWAP1 PUSH2 0x1A63 JUMP JUMPDEST DUP1 ISZERO PUSH2 0x7EB JUMPI DUP1 PUSH1 0x1F LT PUSH2 0x7C2 JUMPI PUSH2 0x100 DUP1 DUP4 SLOAD DIV MUL DUP4 MSTORE SWAP2 PUSH1 0x20 ADD SWAP2 PUSH2 0x7EB JUMP JUMPDEST DUP3 ADD SWAP2 SWAP1 PUSH0 MSTORE PUSH1 0x20 PUSH0 KECCAK256 SWAP1 JUMPDEST DUP2 SLOAD DUP2 MSTORE SWAP1 PUSH1 0x1 ADD SWAP1 PUSH1 0x20 ADD DUP1 DUP4 GT PUSH2 0x7CE JUMPI DUP3 SWAP1 SUB PUSH1 0x1F AND DUP3 ADD SWAP2 JUMPDEST POP POP POP POP POP DUP2 MSTORE PUSH1 0x20 ADD PUSH1 0x2 DUP3 ADD PUSH0 SWAP1 SLOAD SWAP1 PUSH2 0x100 EXP SWAP1 DIV PUSH20 0xFFFFFFFFFFFFFFFFFFFFFFFFFFFFFFFFFFFFFFFF AND PUSH20 0xFFFFFFFFFFFFFFFFFFFFFFFFFFFFFFFFFFFFFFFF AND PUSH20 0xFFFFFFFFFFFFFFFFFFFFFFFFFFFFFFFFFFFFFFFF AND DUP2 MSTORE PUSH1 0x20 ADD PUSH1 0x3 DUP3 ADD DUP1 SLOAD PUSH2 0x859 SWAP1 PUSH2 0x1A63 JUMP JUMPDEST DUP1 PUSH1 0x1F ADD PUSH1 0x20 DUP1 SWAP2 DIV MUL PUSH1 0x20 ADD PUSH1 0x40 MLOAD SWAP1 DUP2 ADD PUSH1 0x40 MSTORE DUP1 SWAP3 SWAP2 SWAP1 DUP2 DUP2 MSTORE PUSH1 0x20 ADD DUP3 DUP1 SLOAD PUSH2 0x885 SWAP1 PUSH2 0x1A63 JUMP JUMPDEST DUP1 ISZERO PUSH2 0x8D0 JUMPI DUP1 PUSH1 0x1F LT PUSH2 0x8A7 JUMPI PUSH2 0x100 DUP1 DUP4 SLOAD DIV MUL DUP4 MSTORE SWAP2 PUSH1 0x20 ADD SWAP2 PUSH2 0x8D0 JUMP JUMPDEST DUP3 ADD SWAP2 SWAP1 PUSH0 MSTORE PUSH1 0x20 PUSH0 KECCAK256 SWAP1 JUMPDEST DUP2 SLOAD DUP2 MSTORE SWAP1 PUSH1 0x1 ADD SWAP1 PUSH1 0x20 ADD DUP1 DUP4 GT PUSH2 0x8B3 JUMPI DUP3 SWAP1 SUB PUSH1 0x1F AND DUP3 ADD SWAP2 JUMPDEST POP POP POP POP POP DUP2 MSTORE PUSH1 0x20 ADD PUSH1 0x4 DUP3 ADD SLOAD DUP2 MSTORE PUSH1 0x20 ADD PUSH1 0x5 DUP3 ADD SLOAD DUP2 MSTORE POP POP SWAP1 POP PUSH0 DUP2 PUSH0 ADD MLOAD MLOAD GT PUSH2 0x935 JUMPI PUSH1 0x40 MLOAD PUSH32 0x8C379A000000000000000000000000000000000000000000000000000000000 DUP2 MSTORE PUSH1 0x4 ADD PUSH2 0x92C SWAP1 PUSH2 0x1AED JUMP JUMPDEST PUSH1 0x40 MLOAD DUP1 SWAP2 SUB SWAP1 REVERT JUMPDEST DUP1 SWAP3 POP POP POP SWAP3 SWAP2 POP POP JUMP JUMPDEST PUSH1 0x1 SLOAD DUP2 JUMP JUMPDEST PUSH0 PUSH0 SWAP1 SLOAD SWAP1 PUSH2 0x100 EXP SWAP1 DIV PUSH20 0xFFFFFFFFFFFFFFFFFFFFFFFFFFFFFFFFFFFFFFFF AND PUSH20 0xFFFFFFFFFFFFFFFFFFFFFFFFFFFFFFFFFFFFFFFF AND CALLER PUSH20 0xFFFFFFFFFFFFFFFFFFFFFFFFFFFFFFFFFFFFFFFF AND EQ PUSH2 0x9D4 JUMPI PUSH1 0x40 MLOAD PUSH32 0x8C379A000000000000000000000000000000000000000000000000000000000 DUP2 MSTORE PUSH1 0x4 ADD PUSH2 0x9CB SWAP1 PUSH2 0x1B55 JUMP JUMPDEST PUSH1 0x40 MLOAD DUP1 SWAP2 SUB SWAP1 REVERT JUMPDEST PUSH1 0x1 SLOAD CALLVALUE LT ISZERO PUSH2 0xA19 JUMPI PUSH1 0x40 MLOAD PUSH32 0x8C379A000000000000000000000000000000000000000000000000000000000 DUP2 MSTORE PUSH1 0x4 ADD PUSH2 0xA10 SWAP1 PUSH2 0x1C11 JUMP JUMPDEST PUSH1 0x40 MLOAD DUP1 SWAP2 SUB SWAP1 REVERT JUMPDEST PUSH0 PUSH2 0xA2A DUP10 DUP10 DUP10 DUP10 DUP10 DUP10 DUP10 DUP10 PUSH2 0x10FB JUMP JUMPDEST SWAP1 POP PUSH2 0xA39 DUP2 DUP11 DUP11 DUP9 CALLVALUE PUSH2 0x1459 JUMP JUMPDEST POP POP POP POP POP POP POP POP POP JUMP JUMPDEST PUSH0 PUSH0 SWAP1 SLOAD SWAP1 PUSH2 0x100 EXP SWAP1 DIV PUSH20 0xFFFFFFFFFFFFFFFFFFFFFFFFFFFFFFFFFFFFFFFF AND PUSH20 0xFFFFFFFFFFFFFFFFFFFFFFFFFFFFFFFFFFFFFFFF AND CALLER PUSH20 0xFFFFFFFFFFFFFFFFFFFFFFFFFFFFFFFFFFFFFFFF AND EQ PUSH2 0xAD2 JUMPI PUSH1 0x40 MLOAD PUSH32 0x8C379A000000000000000000000000000000000000000000000000000000000 DUP2 MSTORE PUSH1 0x4 ADD PUSH2 0xAC9 SWAP1 PUSH2 0x1B55 JUMP JUMPDEST PUSH1 0x40 MLOAD DUP1 SWAP2 SUB SWAP1 REVERT JUMPDEST PUSH0 DUP6 DUP6 SWAP1 POP GT PUSH2 0xB17 JUMPI PUSH1 0x40 MLOAD PUSH32 0x8C379A000000000000000000000000000000000000000000000000000000000 DUP2 MSTORE PUSH1 0x4 ADD PUSH2 0xB0E SWAP1 PUSH2 0x1C79 JUMP JUMPDEST PUSH1 0x40 MLOAD DUP1 SWAP2 SUB SWAP1 REVERT JUMPDEST PUSH0 DUP6 DUP6 PUSH1 0x40 MLOAD PUSH2 0xB28 SWAP3 SWAP2 SWAP1 PUSH2 0x1BAF JUMP JUMPDEST PUSH1 0x40 MLOAD DUP1 SWAP2 SUB SWAP1 KECCAK256 SWAP1 POP PUSH0 PUSH1 0x2 PUSH0 DUP4 DUP2 MSTORE PUSH1 0x20 ADD SWAP1 DUP2 MSTORE PUSH1 0x20 ADD PUSH0 KECCAK256 PUSH0 ADD DUP1 SLOAD PUSH2 0xB51 SWAP1 PUSH2 0x1A63 JUMP JUMPDEST SWAP1 POP GT PUSH2 0xB93 JUMPI PUSH1 0x40 MLOAD PUSH32 0x8C379A000000000000000000000000000000000000000000000000000000000 DUP2 MSTORE PUSH1 0x4 ADD PUSH2 0xB8A SWAP1 PUSH2 0x1AED JUMP JUMPDEST PUSH1 0x40 MLOAD DUP1 SWAP2 SUB SWAP1 REVERT JUMPDEST PUSH0 DUP3 GT PUSH2 0xBD5 JUMPI PUSH1 0x40 MLOAD PUSH32 0x8C379A000000000000000000000000000000000000000000000000000000000 DUP2 MSTORE PUSH1 0x4 ADD PUSH2 0xBCC SWAP1 PUSH2 0x1CE1 JUMP JUMPDEST PUSH1 0x40 MLOAD DUP1 SWAP2 SUB SWAP1 REVERT JUMPDEST DUP4 DUP4 PUSH1 0x2 PUSH0 DUP5 DUP2 MSTORE PUSH1 0x20 ADD SWAP1 DUP2 MSTORE PUSH1 0x20 ADD PUSH0 KECCAK256 PUSH1 0x3 ADD SWAP2 DUP3 PUSH2 0xBF8 SWAP3 SWAP2 SWAP1 PUSH2 0x1ED6 JUMP JUMPDEST POP DUP2 PUSH1 0x2 PUSH0 DUP4 DUP2 MSTORE PUSH1 0x20 ADD SWAP1 DUP2 MSTORE PUSH1 0x20 ADD PUSH0 KECCAK256 PUSH1 0x4 ADD DUP2 SWAP1 SSTORE POP TIMESTAMP PUSH1 0x2 PUSH0 DUP4 DUP2 MSTORE PUSH1 0x20 ADD SWAP1 DUP2 MSTORE PUSH1 0x20 ADD PUSH0 KECCAK256 PUSH1 0x5 ADD DUP2 SWAP1 SSTORE POP DUP1 PUSH32 0x83FFC3AC8241DB58AF7E14E2CBA24E454315DCCC6A0FDC302B67BBF27A9D5FA7 DUP8 DUP8 DUP8 DUP8 DUP8 PUSH1 0x40 MLOAD PUSH2 0xC63 SWAP6 SWAP5 SWAP4 SWAP3 SWAP2 SWAP1 PUSH2 0x1FCF JUMP JUMPDEST PUSH1 0x40 MLOAD DUP1 SWAP2 SUB SWAP1 LOG2 POP POP POP POP POP POP JUMP JUMPDEST PUSH2 0xC7B PUSH2 0x155C JUMP JUMPDEST PUSH0 PUSH1 0x3 PUSH0 DUP5 PUSH20 0xFFFFFFFFFFFFFFFFFFFFFFFFFFFFFFFFFFFFFFFF AND PUSH20 0xFFFFFFFFFFFFFFFFFFFFFFFFFFFFFFFFFFFFFFFF AND DUP2 MSTORE PUSH1 0x20 ADD SWAP1 DUP2 MSTORE PUSH1 0x20 ADD PUSH0 KECCAK256 SLOAD SWAP1 POP PUSH0 PUSH1 0x2 PUSH0 DUP4 DUP2 MSTORE PUSH1 0x20 ADD SWAP1 DUP2 MSTORE PUSH1 0x20 ADD PUSH0 KECCAK256 PUSH1 0x40 MLOAD DUP1 PUSH1 0xC0 ADD PUSH1 0x40 MSTORE SWAP1 DUP2 PUSH0 DUP3 ADD DUP1 SLOAD PUSH2 0xCE8 SWAP1 PUSH2 0x1A63 JUMP JUMPDEST DUP1 PUSH1 0x1F ADD PUSH1 0x20 DUP1 SWAP2 DIV MUL PUSH1 0x20 ADD PUSH1 0x40 MLOAD SWAP1 DUP2 ADD PUSH1 0x40 MSTORE DUP1 SWAP3 SWAP2 SWAP1 DUP2 DUP2 MSTORE PUSH1 0x20 ADD DUP3 DUP1 SLOAD PUSH2 0xD14 SWAP1 PUSH2 0x1A63 JUMP JUMPDEST DUP1 ISZERO PUSH2 0xD5F JUMPI DUP1 PUSH1 0x1F LT PUSH2 0xD36 JUMPI PUSH2 0x100 DUP1 DUP4 SLOAD DIV MUL DUP4 MSTORE SWAP2 PUSH1 0x20 ADD SWAP2 PUSH2 0xD5F JUMP JUMPDEST DUP3 ADD SWAP2 SWAP1 PUSH0 MSTORE PUSH1 0x20 PUSH0 KECCAK256 SWAP1 JUMPDEST DUP2 SLOAD DUP2 MSTORE SWAP1 PUSH1 0x1 ADD SWAP1 PUSH1 0x20 ADD DUP1 DUP4 GT PUSH2 0xD42 JUMPI DUP3 SWAP1 SUB PUSH1 0x1F AND DUP3 ADD SWAP2 JUMPDEST POP POP POP POP POP DUP2 MSTORE PUSH1 0x20 ADD PUSH1 0x1 DUP3 ADD DUP1 SLOAD PUSH2 0xD78 SWAP1 PUSH2 0x1A63 JUMP JUMPDEST DUP1 PUSH1 0x1F ADD PUSH1 0x20 DUP1 SWAP2 DIV MUL PUSH1 0x20 ADD PUSH1 0x40 MLOAD SWAP1 DUP2 ADD PUSH1 0x40 MSTORE DUP1 SWAP3 SWAP2 SWAP1 DUP2 DUP2 MSTORE PUSH1 0x20 ADD DUP3 DUP1 SLOAD PUSH2 0xDA4 SWAP1 PUSH2 0x1A63 JUMP JUMPDEST DUP1 ISZERO PUSH2 0xDEF JUMPI DUP1 PUSH1 0x1F LT PUSH2 0xDC6 JUMPI PUSH2 0x100 DUP1 DUP4 SLOAD DIV MUL DUP4 MSTORE SWAP2 PUSH1 0x20 ADD SWAP2 PUSH2 0xDEF JUMP JUMPDEST DUP3 ADD SWAP2 SWAP1 PUSH0 MSTORE PUSH1 0x20 PUSH0 KECCAK256 SWAP1 JUMPDEST DUP2 SLOAD DUP2 MSTORE SWAP1 PUSH1 0x1 ADD SWAP1 PUSH1 0x20 ADD DUP1 DUP4 GT PUSH2 0xDD2 JUMPI DUP3 SWAP1 SUB PUSH1 0x1F AND DUP3 ADD SWAP2 JUMPDEST POP POP POP POP POP DUP2 MSTORE PUSH1 0x20 ADD PUSH1 0x2 DUP3 ADD PUSH0 SWAP1 SLOAD SWAP1 PUSH2 0x100 EXP SWAP1 DIV PUSH20 0xFFFFFFFFFFFFFFFFFFFFFFFFFFFFFFFFFFFFFFFF AND PUSH20 0xFFFFFFFFFFFFFFFFFFFFFFFFFFFFFFFFFFFFFFFF AND PUSH20 0xFFFFFFFFFFFFFFFFFFFFFFFFFFFFFFFFFFFFFFFF AND DUP2 MSTORE PUSH1 0x20 ADD PUSH1 0x3 DUP3 ADD DUP1 SLOAD PUSH2 0xE5D SWAP1 PUSH2 0x1A63 JUMP JUMPDEST DUP1 PUSH1 0x1F ADD PUSH1 0x20 DUP1 SWAP2 DIV MUL PUSH1 0x20 ADD PUSH1 0x40 MLOAD SWAP1 DUP2 ADD PUSH1 0x40 MSTORE DUP1 SWAP3 SWAP2 SWAP1 DUP2 DUP2 MSTORE PUSH1 0x20 ADD DUP3 DUP1 SLOAD PUSH2 0xE89 SWAP1 PUSH2 0x1A63 JUMP JUMPDEST DUP1 ISZERO PUSH2 0xED4 JUMPI DUP1 PUSH1 0x1F LT PUSH2 0xEAB JUMPI PUSH2 0x100 DUP1 DUP4 SLOAD DIV MUL DUP4 MSTORE SWAP2 PUSH1 0x20 ADD SWAP2 PUSH2 0xED4 JUMP JUMPDEST DUP3 ADD SWAP2 SWAP1 PUSH0 MSTORE PUSH1 0x20 PUSH0 KECCAK256 SWAP1 JUMPDEST DUP2 SLOAD DUP2 MSTORE SWAP1 PUSH1 0x1 ADD SWAP1 PUSH1 0x20 ADD DUP1 DUP4 GT PUSH2 0xEB7 JUMPI DUP3 SWAP1 SUB PUSH1 0x1F AND DUP3 ADD SWAP2 JUMPDEST POP POP POP POP POP DUP2 MSTORE PUSH1 0x20 ADD PUSH1 0x4 DUP3 ADD SLOAD DUP2 MSTORE PUSH1 0x20 ADD PUSH1 0x5 DUP3 ADD SLOAD DUP2 MSTORE POP POP SWAP1 POP PUSH0 DUP2 PUSH0 ADD MLOAD MLOAD GT PUSH2 0xF39 JUMPI PUSH1 0x40 MLOAD PUSH32 0x8C379A000000000000000000000000000000000000000000000000000000000 DUP2 MSTORE PUSH1 0x4 ADD PUSH2 0xF30 SWAP1 PUSH2 0x1AED JUMP JUMPDEST PUSH1 0x40 MLOAD DUP1 SWAP2 SUB SWAP1 REVERT JUMPDEST DUP1 SWAP3 POP POP POP SWAP2 SWAP1 POP JUMP JUMPDEST PUSH0 PUSH0 SWAP1 SLOAD SWAP1 PUSH2 0x100 EXP SWAP1 DIV PUSH20 0xFFFFFFFFFFFFFFFFFFFFFFFFFFFFFFFFFFFFFFFF AND PUSH20 0xFFFFFFFFFFFFFFFFFFFFFFFFFFFFFFFFFFFFFFFF AND CALLER PUSH20 0xFFFFFFFFFFFFFFFFFFFFFFFFFFFFFFFFFFFFFFFF AND EQ PUSH2 0xFD1 JUMPI PUSH1 0x40 MLOAD PUSH32 0x8C379A000000000000000000000000000000000000000000000000000000000 DUP2 MSTORE PUSH1 0x4 ADD PUSH2 0xFC8 SWAP1 PUSH2 0x1B55 JUMP JUMPDEST PUSH1 0x40 MLOAD DUP1 SWAP2 SUB SWAP1 REVERT JUMPDEST PUSH0 PUSH20 0xFFFFFFFFFFFFFFFFFFFFFFFFFFFFFFFFFFFFFFFF AND DUP2 PUSH20 0xFFFFFFFFFFFFFFFFFFFFFFFFFFFFFFFFFFFFFFFF AND SUB PUSH2 0x103F JUMPI PUSH1 0x40 MLOAD PUSH32 0x8C379A000000000000000000000000000000000000000000000000000000000 DUP2 MSTORE PUSH1 0x4 ADD PUSH2 0x1036 SWAP1 PUSH2 0x2060 JUMP JUMPDEST PUSH1 0x40 MLOAD DUP1 SWAP2 SUB SWAP1 REVERT JUMPDEST DUP1 PUSH20 0xFFFFFFFFFFFFFFFFFFFFFFFFFFFFFFFFFFFFFFFF AND PUSH0 PUSH0 SWAP1 SLOAD SWAP1 PUSH2 0x100 EXP SWAP1 DIV PUSH20 0xFFFFFFFFFFFFFFFFFFFFFFFFFFFFFFFFFFFFFFFF AND PUSH20 0xFFFFFFFFFFFFFFFFFFFFFFFFFFFFFFFFFFFFFFFF AND PUSH32 0x8BE0079C531659141344CD1FD0A4F28419497F9722A3DAAFE3B4186F6B6457E0 PUSH1 0x40 MLOAD PUSH1 0x40 MLOAD DUP1 SWAP2 SUB SWAP1 LOG3 DUP1 PUSH0 PUSH0 PUSH2 0x100 EXP DUP2 SLOAD DUP2 PUSH20 0xFFFFFFFFFFFFFFFFFFFFFFFFFFFFFFFFFFFFFFFF MUL NOT AND SWAP1 DUP4 PUSH20 0xFFFFFFFFFFFFFFFFFFFFFFFFFFFFFFFFFFFFFFFF AND MUL OR SWAP1 SSTORE POP POP JUMP JUMPDEST PUSH0 PUSH0 DUP10 DUP10 SWAP1 POP GT PUSH2 0x1141 JUMPI PUSH1 0x40 MLOAD PUSH32 0x8C379A000000000000000000000000000000000000000000000000000000000 DUP2 MSTORE PUSH1 0x4 ADD PUSH2 0x1138 SWAP1 PUSH2 0x1C79 JUMP JUMPDEST PUSH1 0x40 MLOAD DUP1 SWAP2 SUB SWAP1 REVERT JUMPDEST PUSH0 PUSH20 0xFFFFFFFFFFFFFFFFFFFFFFFFFFFFFFFFFFFFFFFF AND DUP6 PUSH20 0xFFFFFFFFFFFFFFFFFFFFFFFFFFFFFFFFFFFFFFFF AND SUB PUSH2 0x11AF JUMPI PUSH1 0x40 MLOAD PUSH32 0x8C379A000000000000000000000000000000000000000000000000000000000 DUP2 MSTORE PUSH1 0x4 ADD PUSH2 0x11A6 SWAP1 PUSH2 0x20C8 JUMP JUMPDEST PUSH1 0x40 MLOAD DUP1 SWAP2 SUB SWAP1 REVERT JUMPDEST PUSH0 DUP3 GT PUSH2 0x11F1 JUMPI PUSH1 0x40 MLOAD PUSH32 0x8C379A000000000000000000000000000000000000000000000000000000000 DUP2 MSTORE PUSH1 0x4 ADD PUSH2 0x11E8 SWAP1 PUSH2 0x1CE1 JUMP JUMPDEST PUSH1 0x40 MLOAD DUP1 SWAP2 SUB SWAP1 REVERT JUMPDEST DUP9 DUP9 PUSH1 0x40 MLOAD PUSH2 0x1201 SWAP3 SWAP2 SWAP1 PUSH2 0x1BAF JUMP JUMPDEST PUSH1 0x40 MLOAD DUP1 SWAP2 SUB SWAP1 KECCAK256 SWAP1 POP PUSH1 0x40 MLOAD DUP1 PUSH1 0xC0 ADD PUSH1 0x40 MSTORE DUP1 DUP11 DUP11 DUP1 DUP1 PUSH1 0x1F ADD PUSH1 0x20 DUP1 SWAP2 DIV MUL PUSH1 0x20 ADD PUSH1 0x40 MLOAD SWAP1 DUP2 ADD PUSH1 0x40 MSTORE DUP1 SWAP4 SWAP3 SWAP2 SWAP1 DUP2 DUP2 MSTORE PUSH1 0x20 ADD DUP4 DUP4 DUP1 DUP3 DUP5 CALLDATACOPY PUSH0 DUP2 DUP5 ADD MSTORE PUSH1 0x1F NOT PUSH1 0x1F DUP3 ADD AND SWAP1 POP DUP1 DUP4 ADD SWAP3 POP POP POP POP POP POP POP DUP2 MSTORE PUSH1 0x20 ADD DUP9 DUP9 DUP1 DUP1 PUSH1 0x1F ADD PUSH1 0x20 DUP1 SWAP2 DIV MUL PUSH1 0x20 ADD PUSH1 0x40 MLOAD SWAP1 DUP2 ADD PUSH1 0x40 MSTORE DUP1 SWAP4 SWAP3 SWAP2 SWAP1 DUP2 DUP2 MSTORE PUSH1 0x20 ADD DUP4 DUP4 DUP1 DUP3 DUP5 CALLDATACOPY PUSH0 DUP2 DUP5 ADD MSTORE PUSH1 0x1F NOT PUSH1 0x1F DUP3 ADD AND SWAP1 POP DUP1 DUP4 ADD SWAP3 POP POP POP POP POP POP POP DUP2 MSTORE PUSH1 0x20 ADD DUP7 PUSH20 0xFFFFFFFFFFFFFFFFFFFFFFFFFFFFFFFFFFFFFFFF AND DUP2 MSTORE PUSH1 0x20 ADD DUP6 DUP6 DUP1 DUP1 PUSH1 0x1F ADD PUSH1 0x20 DUP1 SWAP2 DIV MUL PUSH1 0x20 ADD PUSH1 0x40 MLOAD SWAP1 DUP2 ADD PUSH1 0x40 MSTORE DUP1 SWAP4 SWAP3 SWAP2 SWAP1 DUP2 DUP2 MSTORE PUSH1 0x20 ADD DUP4 DUP4 DUP1 DUP3 DUP5 CALLDATACOPY PUSH0 DUP2 DUP5 ADD MSTORE PUSH1 0x1F NOT PUSH1 0x1F DUP3 ADD AND SWAP1 POP DUP1 DUP4 ADD SWAP3 POP POP POP POP POP POP POP DUP2 MSTORE PUSH1 0x20 ADD DUP4 DUP2 MSTORE PUSH1 0x20 ADD TIMESTAMP DUP2 MSTORE POP PUSH1 0x2 PUSH0 DUP4 DUP2 MSTORE PUSH1 0x20 ADD SWAP1 DUP2 MSTORE PUSH1 0x20 ADD PUSH0 KECCAK256 PUSH0 DUP3 ADD MLOAD DUP2 PUSH0 ADD SWAP1 DUP2 PUSH2 0x133B SWAP2 SWAP1 PUSH2 0x20E6 JUMP JUMPDEST POP PUSH1 0x20 DUP3 ADD MLOAD DUP2 PUSH1 0x1 ADD SWAP1 DUP2 PUSH2 0x1351 SWAP2 SWAP1 PUSH2 0x20E6 JUMP JUMPDEST POP PUSH1 0x40 DUP3 ADD MLOAD DUP2 PUSH1 0x2 ADD PUSH0 PUSH2 0x100 EXP DUP2 SLOAD DUP2 PUSH20 0xFFFFFFFFFFFFFFFFFFFFFFFFFFFFFFFFFFFFFFFF MUL NOT AND SWAP1 DUP4 PUSH20 0xFFFFFFFFFFFFFFFFFFFFFFFFFFFFFFFFFFFFFFFF AND MUL OR SWAP1 SSTORE POP PUSH1 0x60 DUP3 ADD MLOAD DUP2 PUSH1 0x3 ADD SWAP1 DUP2 PUSH2 0x13AD SWAP2 SWAP1 PUSH2 0x20E6 JUMP JUMPDEST POP PUSH1 0x80 DUP3 ADD MLOAD DUP2 PUSH1 0x4 ADD SSTORE PUSH1 0xA0 DUP3 ADD MLOAD DUP2 PUSH1 0x5 ADD SSTORE SWAP1 POP POP DUP1 PUSH1 0x3 PUSH0 DUP8 PUSH20 0xFFFFFFFFFFFFFFFFFFFFFFFFFFFFFFFFFFFFFFFF AND PUSH20 0xFFFFFFFFFFFFFFFFFFFFFFFFFFFFFFFFFFFFFFFF AND DUP2 MSTORE PUSH1 0x20 ADD SWAP1 DUP2 MSTORE PUSH1 0x20 ADD PUSH0 KECCAK256 DUP2 SWAP1 SSTORE POP DUP1 PUSH32 0x502399FFC14AABF146372EE3E6D9385622BBF5EDEC1846F89E416F680372E173 DUP11 DUP11 DUP11 DUP11 DUP11 DUP11 DUP11 DUP11 PUSH1 0x40 MLOAD PUSH2 0x1445 SWAP9 SWAP8 SWAP7 SWAP6 SWAP5 SWAP4 SWAP3 SWAP2 SWAP1 PUSH2 0x21B5 JUMP JUMPDEST PUSH1 0x40 MLOAD DUP1 SWAP2 SUB SWAP1 LOG2 SWAP9 SWAP8 POP POP POP POP POP POP POP POP JUMP JUMPDEST PUSH0 DUP3 PUSH20 0xFFFFFFFFFFFFFFFFFFFFFFFFFFFFFFFFFFFFFFFF AND DUP3 PUSH1 0x40 MLOAD PUSH2 0x147E SWAP1 PUSH2 0x2244 JUMP JUMPDEST PUSH0 PUSH1 0x40 MLOAD DUP1 DUP4 SUB DUP2 DUP6 DUP8 GAS CALL SWAP3 POP POP POP RETURNDATASIZE DUP1 PUSH0 DUP2 EQ PUSH2 0x14B8 JUMPI PUSH1 0x40 MLOAD SWAP2 POP PUSH1 0x1F NOT PUSH1 0x3F RETURNDATASIZE ADD AND DUP3 ADD PUSH1 0x40 MSTORE RETURNDATASIZE DUP3 MSTORE RETURNDATASIZE PUSH0 PUSH1 0x20 DUP5 ADD RETURNDATACOPY PUSH2 0x14BD JUMP JUMPDEST PUSH1 0x60 SWAP2 POP JUMPDEST POP POP SWAP1 POP DUP1 PUSH2 0x1501 JUMPI PUSH1 0x40 MLOAD PUSH32 0x8C379A000000000000000000000000000000000000000000000000000000000 DUP2 MSTORE PUSH1 0x4 ADD PUSH2 0x14F8 SWAP1 PUSH2 0x22A2 JUMP JUMPDEST PUSH1 0x40 MLOAD DUP1 SWAP2 SUB SWAP1 REVERT JUMPDEST DUP3 PUSH20 0xFFFFFFFFFFFFFFFFFFFFFFFFFFFFFFFFFFFFFFFF AND DUP7 PUSH32 0x605CF1E76558BF63CFEC5306ED6562A0FF6ED7945D0431BF7711E0432A0C50A1 DUP8 DUP8 DUP7 PUSH1 0x40 MLOAD PUSH2 0x154C SWAP4 SWAP3 SWAP2 SWAP1 PUSH2 0x22C0 JUMP JUMPDEST PUSH1 0x40 MLOAD DUP1 SWAP2 SUB SWAP1 LOG3 POP POP POP POP POP POP JUMP JUMPDEST PUSH1 0x40 MLOAD DUP1 PUSH1 0xC0 ADD PUSH1 0x40 MSTORE DUP1 PUSH1 0x60 DUP2 MSTORE PUSH1 0x20 ADD PUSH1 0x60 DUP2 MSTORE PUSH1 0x20 ADD PUSH0 PUSH20 0xFFFFFFFFFFFFFFFFFFFFFFFFFFFFFFFFFFFFFFFF AND DUP2 MSTORE PUSH1 0x20 ADD PUSH1 0x60 DUP2 MSTORE PUSH1 0x20 ADD PUSH0 DUP2 MSTORE PUSH1 0x20 ADD PUSH0 DUP2 MSTORE POP SWAP1 JUMP JUMPDEST PUSH0 PUSH0 REVERT JUMPDEST PUSH0 PUSH0 REVERT JUMPDEST PUSH0 PUSH20 0xFFFFFFFFFFFFFFFFFFFFFFFFFFFFFFFFFFFFFFFF DUP3 AND SWAP1 POP SWAP2 SWAP1 POP JUMP JUMPDEST PUSH0 PUSH2 0x15D6 DUP3 PUSH2 0x15AD JUMP JUMPDEST SWAP1 POP SWAP2 SWAP1 POP JUMP JUMPDEST PUSH2 0x15E6 DUP2 PUSH2 0x15CC JUMP JUMPDEST DUP2 EQ PUSH2 0x15F0 JUMPI PUSH0 PUSH0 REVERT JUMPDEST POP JUMP JUMPDEST PUSH0 DUP2 CALLDATALOAD SWAP1 POP PUSH2 0x1601 DUP2 PUSH2 0x15DD JUMP JUMPDEST SWAP3 SWAP2 POP POP JUMP JUMPDEST PUSH0 PUSH1 0x20 DUP3 DUP5 SUB SLT ISZERO PUSH2 0x161C JUMPI PUSH2 0x161B PUSH2 0x15A5 JUMP JUMPDEST JUMPDEST PUSH0 PUSH2 0x1629 DUP5 DUP3 DUP6 ADD PUSH2 0x15F3 JUMP JUMPDEST SWAP2 POP POP SWAP3 SWAP2 POP POP JUMP JUMPDEST PUSH0 DUP2 SWAP1 POP SWAP2 SWAP1 POP JUMP JUMPDEST PUSH2 0x1644 DUP2 PUSH2 0x1632 JUMP JUMPDEST DUP3 MSTORE POP POP JUMP JUMPDEST PUSH0 PUSH1 0x20 DUP3 ADD SWAP1 POP PUSH2 0x165D PUSH0 DUP4 ADD DUP5 PUSH2 0x163B JUMP JUMPDEST SWAP3 SWAP2 POP POP JUMP JUMPDEST PUSH0 PUSH0 REVERT JUMPDEST PUSH0 PUSH0 REVERT JUMPDEST PUSH0 PUSH0 REVERT JUMPDEST PUSH0 PUSH0 DUP4 PUSH1 0x1F DUP5 ADD SLT PUSH2 0x1684 JUMPI PUSH2 0x1683 PUSH2 0x1663 JUMP JUMPDEST JUMPDEST DUP3 CALLDATALOAD SWAP1 POP PUSH8 0xFFFFFFFFFFFFFFFF DUP2 GT ISZERO PUSH2 0x16A1 JUMPI PUSH2 0x16A0 PUSH2 0x1667 JUMP JUMPDEST JUMPDEST PUSH1 0x20 DUP4 ADD SWAP2 POP DUP4 PUSH1 0x1 DUP3 MUL DUP4 ADD GT ISZERO PUSH2 0x16BD JUMPI PUSH2 0x16BC PUSH2 0x166B JUMP JUMPDEST JUMPDEST SWAP3 POP SWAP3 SWAP1 POP JUMP JUMPDEST PUSH2 0x16CD DUP2 PUSH2 0x1632 JUMP JUMPDEST DUP2 EQ PUSH2 0x16D7 JUMPI PUSH0 PUSH0 REVERT JUMPDEST POP JUMP JUMPDEST PUSH0 DUP2 CALLDATALOAD SWAP1 POP PUSH2 0x16E8 DUP2 PUSH2 0x16C4 JUMP JUMPDEST SWAP3 SWAP2 POP POP JUMP JUMPDEST PUSH0 PUSH0 PUSH0 PUSH0 PUSH0 PUSH0 PUSH0 PUSH0 PUSH1 0xA0 DUP10 DUP12 SUB SLT ISZERO PUSH2 0x170A JUMPI PUSH2 0x1709 PUSH2 0x15A5 JUMP JUMPDEST JUMPDEST PUSH0 DUP10 ADD CALLDATALOAD PUSH8 0xFFFFFFFFFFFFFFFF DUP2 GT ISZERO PUSH2 0x1727 JUMPI PUSH2 0x1726 PUSH2 0x15A9 JUMP JUMPDEST JUMPDEST PUSH2 0x1733 DUP12 DUP3 DUP13 ADD PUSH2 0x166F JUMP JUMPDEST SWAP9 POP SWAP9 POP POP PUSH1 0x20 DUP10 ADD CALLDATALOAD PUSH8 0xFFFFFFFFFFFFFFFF DUP2 GT ISZERO PUSH2 0x1756 JUMPI PUSH2 0x1755 PUSH2 0x15A9 JUMP JUMPDEST JUMPDEST PUSH2 0x1762 DUP12 DUP3 DUP13 ADD PUSH2 0x166F JUMP JUMPDEST SWAP7 POP SWAP7 POP POP PUSH1 0x40 PUSH2 0x1775 DUP12 DUP3 DUP13 ADD PUSH2 0x15F3 JUMP JUMPDEST SWAP5 POP POP PUSH1 0x60 DUP10 ADD CALLDATALOAD PUSH8 0xFFFFFFFFFFFFFFFF DUP2 GT ISZERO PUSH2 0x1796 JUMPI PUSH2 0x1795 PUSH2 0x15A9 JUMP JUMPDEST JUMPDEST PUSH2 0x17A2 DUP12 DUP3 DUP13 ADD PUSH2 0x166F JUMP JUMPDEST SWAP4 POP SWAP4 POP POP PUSH1 0x80 PUSH2 0x17B5 DUP12 DUP3 DUP13 ADD PUSH2 0x16DA JUMP JUMPDEST SWAP2 POP POP SWAP3 SWAP6 SWAP9 POP SWAP3 SWAP6 SWAP9 SWAP1 SWAP4 SWAP7 POP JUMP JUMPDEST PUSH2 0x17CE DUP2 PUSH2 0x15CC JUMP JUMPDEST DUP3 MSTORE POP POP JUMP JUMPDEST PUSH0 PUSH1 0x20 DUP3 ADD SWAP1 POP PUSH2 0x17E7 PUSH0 DUP4 ADD DUP5 PUSH2 0x17C5 JUMP JUMPDEST SWAP3 SWAP2 POP POP JUMP JUMPDEST PUSH0 PUSH1 0x20 DUP3 DUP5 SUB SLT ISZERO PUSH2 0x1802 JUMPI PUSH2 0x1801 PUSH2 0x15A5 JUMP JUMPDEST JUMPDEST PUSH0 PUSH2 0x180F DUP5 DUP3 DUP6 ADD PUSH2 0x16DA JUMP JUMPDEST SWAP2 POP POP SWAP3 SWAP2 POP POP JUMP JUMPDEST PUSH0 PUSH0 PUSH1 0x20 DUP4 DUP6 SUB SLT ISZERO PUSH2 0x182E JUMPI PUSH2 0x182D PUSH2 0x15A5 JUMP JUMPDEST JUMPDEST PUSH0 DUP4 ADD CALLDATALOAD PUSH8 0xFFFFFFFFFFFFFFFF DUP2 GT ISZERO PUSH2 0x184B JUMPI PUSH2 0x184A PUSH2 0x15A9 JUMP JUMPDEST JUMPDEST PUSH2 0x1857 DUP6 DUP3 DUP7 ADD PUSH2 0x166F JUMP JUMPDEST SWAP3 POP SWAP3 POP POP SWAP3 POP SWAP3 SWAP1 POP JUMP JUMPDEST PUSH0 DUP2 MLOAD SWAP1 POP SWAP2 SWAP1 POP JUMP JUMPDEST PUSH0 DUP3 DUP3 MSTORE PUSH1 0x20 DUP3 ADD SWAP1 POP SWAP3 SWAP2 POP POP JUMP JUMPDEST DUP3 DUP2 DUP4 MCOPY PUSH0 DUP4 DUP4 ADD MSTORE POP POP POP JUMP JUMPDEST PUSH0 PUSH1 0x1F NOT PUSH1 0x1F DUP4 ADD AND SWAP1 POP SWAP2 SWAP1 POP JUMP JUMPDEST PUSH0 PUSH2 0x18A5 DUP3 PUSH2 0x1863 JUMP JUMPDEST PUSH2 0x18AF DUP2 DUP6 PUSH2 0x186D JUMP JUMPDEST SWAP4 POP PUSH2 0x18BF DUP2 DUP6 PUSH1 0x20 DUP7 ADD PUSH2 0x187D JUMP JUMPDEST PUSH2 0x18C8 DUP2 PUSH2 0x188B JUMP JUMPDEST DUP5 ADD SWAP2 POP POP SWAP3 SWAP2 POP POP JUMP JUMPDEST PUSH2 0x18DC DUP2 PUSH2 0x15CC JUMP JUMPDEST DUP3 MSTORE POP POP JUMP JUMPDEST PUSH2 0x18EB DUP2 PUSH2 0x1632 JUMP JUMPDEST DUP3 MSTORE POP POP JUMP JUMPDEST PUSH0 PUSH1 0xC0 DUP4 ADD PUSH0 DUP4 ADD MLOAD DUP5 DUP3 SUB PUSH0 DUP7 ADD MSTORE PUSH2 0x190B DUP3 DUP3 PUSH2 0x189B JUMP JUMPDEST SWAP2 POP POP PUSH1 0x20 DUP4 ADD MLOAD DUP5 DUP3 SUB PUSH1 0x20 DUP7 ADD MSTORE PUSH2 0x1925 DUP3 DUP3 PUSH2 0x189B JUMP JUMPDEST SWAP2 POP POP PUSH1 0x40 DUP4 ADD MLOAD PUSH2 0x193A PUSH1 0x40 DUP7 ADD DUP3 PUSH2 0x18D3 JUMP JUMPDEST POP PUSH1 0x60 DUP4 ADD MLOAD DUP5 DUP3 SUB PUSH1 0x60 DUP7 ADD MSTORE PUSH2 0x1952 DUP3 DUP3 PUSH2 0x189B JUMP JUMPDEST SWAP2 POP POP PUSH1 0x80 DUP4 ADD MLOAD PUSH2 0x1967 PUSH1 0x80 DUP7 ADD DUP3 PUSH2 0x18E2 JUMP JUMPDEST POP PUSH1 0xA0 DUP4 ADD MLOAD PUSH2 0x197A PUSH1 0xA0 DUP7 ADD DUP3 PUSH2 0x18E2 JUMP JUMPDEST POP DUP1 SWAP2 POP POP SWAP3 SWAP2 POP POP JUMP JUMPDEST PUSH0 PUSH1 0x20 DUP3 ADD SWAP1 POP DUP2 DUP2 SUB PUSH0 DUP4 ADD MSTORE PUSH2 0x199D DUP2 DUP5 PUSH2 0x18F1 JUMP JUMPDEST SWAP1 POP SWAP3 SWAP2 POP POP JUMP JUMPDEST PUSH0 PUSH0 PUSH0 PUSH0 PUSH0 PUSH1 0x60 DUP7 DUP9 SUB SLT ISZERO PUSH2 0x19BE JUMPI PUSH2 0x19BD PUSH2 0x15A5 JUMP JUMPDEST JUMPDEST PUSH0 DUP7 ADD CALLDATALOAD PUSH8 0xFFFFFFFFFFFFFFFF DUP2 GT ISZERO PUSH2 0x19DB JUMPI PUSH2 0x19DA PUSH2 0x15A9 JUMP JUMPDEST JUMPDEST PUSH2 0x19E7 DUP9 DUP3 DUP10 ADD PUSH2 0x166F JUMP JUMPDEST SWAP6 POP SWAP6 POP POP PUSH1 0x20 DUP7 ADD CALLDATALOAD PUSH8 0xFFFFFFFFFFFFFFFF DUP2 GT ISZERO PUSH2 0x1A0A JUMPI PUSH2 0x1A09 PUSH2 0x15A9 JUMP JUMPDEST JUMPDEST PUSH2 0x1A16 DUP9 DUP3 DUP10 ADD PUSH2 0x166F JUMP JUMPDEST SWAP4 POP SWAP4 POP POP PUSH1 0x40 PUSH2 0x1A29 DUP9 DUP3 DUP10 ADD PUSH2 0x16DA JUMP JUMPDEST SWAP2 POP POP SWAP3 SWAP6 POP SWAP3 SWAP6 SWAP1 SWAP4 POP JUMP JUMPDEST PUSH32 0x4E487B7100000000000000000000000000000000000000000000000000000000 PUSH0 MSTORE PUSH1 0x22 PUSH1 0x4 MSTORE PUSH1 0x24 PUSH0 REVERT JUMPDEST PUSH0 PUSH1 0x2 DUP3 DIV SWAP1 POP PUSH1 0x1 DUP3 AND DUP1 PUSH2 0x1A7A JUMPI PUSH1 0x7F DUP3 AND SWAP2 POP JUMPDEST PUSH1 0x20 DUP3 LT DUP2 SUB PUSH2 0x1A8D JUMPI PUSH2 0x1A8C PUSH2 0x1A36 JUMP JUMPDEST JUMPDEST POP SWAP2 SWAP1 POP JUMP JUMPDEST PUSH0 DUP3 DUP3 MSTORE PUSH1 0x20 DUP3 ADD SWAP1 POP SWAP3 SWAP2 POP POP JUMP JUMPDEST PUSH32 0x636F6D70616E79206D697373696E670000000000000000000000000000000000 PUSH0 DUP3 ADD MSTORE POP JUMP JUMPDEST PUSH0 PUSH2 0x1AD7 PUSH1 0xF DUP4 PUSH2 0x1A93 JUMP JUMPDEST SWAP2 POP PUSH2 0x1AE2 DUP3 PUSH2 0x1AA3 JUMP JUMPDEST PUSH1 0x20 DUP3 ADD SWAP1 POP SWAP2 SWAP1 POP JUMP JUMPDEST PUSH0 PUSH1 0x20 DUP3 ADD SWAP1 POP DUP2 DUP2 SUB PUSH0 DUP4 ADD MSTORE PUSH2 0x1B04 DUP2 PUSH2 0x1ACB JUMP JUMPDEST SWAP1 POP SWAP2 SWAP1 POP JUMP JUMPDEST PUSH32 0x4E6F74206F776E65720000000000000000000000000000000000000000000000 PUSH0 DUP3 ADD MSTORE POP JUMP JUMPDEST PUSH0 PUSH2 0x1B3F PUSH1 0x9 DUP4 PUSH2 0x1A93 JUMP JUMPDEST SWAP2 POP PUSH2 0x1B4A DUP3 PUSH2 0x1B0B JUMP JUMPDEST PUSH1 0x20 DUP3 ADD SWAP1 POP SWAP2 SWAP1 POP JUMP JUMPDEST PUSH0 PUSH1 0x20 DUP3 ADD SWAP1 POP DUP2 DUP2 SUB PUSH0 DUP4 ADD MSTORE PUSH2 0x1B6C DUP2 PUSH2 0x1B33 JUMP JUMPDEST SWAP1 POP SWAP2 SWAP1 POP JUMP JUMPDEST PUSH0 DUP2 SWAP1 POP SWAP3 SWAP2 POP POP JUMP JUMPDEST DUP3 DUP2 DUP4 CALLDATACOPY PUSH0 DUP4 DUP4 ADD MSTORE POP POP POP JUMP JUMPDEST PUSH0 PUSH2 0x1B96 DUP4 DUP6 PUSH2 0x1B73 JUMP JUMPDEST SWAP4 POP PUSH2 0x1BA3 DUP4 DUP6 DUP5 PUSH2 0x1B7D JUMP JUMPDEST DUP3 DUP5 ADD SWAP1 POP SWAP4 SWAP3 POP POP POP JUMP JUMPDEST PUSH0 PUSH2 0x1BBB DUP3 DUP5 DUP7 PUSH2 0x1B8B JUMP JUMPDEST SWAP2 POP DUP2 SWAP1 POP SWAP4 SWAP3 POP POP POP JUMP JUMPDEST PUSH32 0x696E73756666696369656E74206D73672E76616C756500000000000000000000 PUSH0 DUP3 ADD MSTORE POP JUMP JUMPDEST PUSH0 PUSH2 0x1BFB PUSH1 0x16 DUP4 PUSH2 0x1A93 JUMP JUMPDEST SWAP2 POP PUSH2 0x1C06 DUP3 PUSH2 0x1BC7 JUMP JUMPDEST PUSH1 0x20 DUP3 ADD SWAP1 POP SWAP2 SWAP1 POP JUMP JUMPDEST PUSH0 PUSH1 0x20 DUP3 ADD SWAP1 POP DUP2 DUP2 SUB PUSH0 DUP4 ADD MSTORE PUSH2 0x1C28 DUP2 PUSH2 0x1BEF JUMP JUMPDEST SWAP1 POP SWAP2 SWAP1 POP JUMP JUMPDEST PUSH32 0x6669726562617365496420726571756972656400000000000000000000000000 PUSH0 DUP3 ADD MSTORE POP JUMP JUMPDEST PUSH0 PUSH2 0x1C63 PUSH1 0x13 DUP4 PUSH2 0x1A93 JUMP JUMPDEST SWAP2 POP PUSH2 0x1C6E DUP3 PUSH2 0x1C2F JUMP JUMPDEST PUSH1 0x20 DUP3 ADD SWAP1 POP SWAP2 SWAP1 POP JUMP JUMPDEST PUSH0 PUSH1 0x20 DUP3 ADD SWAP1 POP DUP2 DUP2 SUB PUSH0 DUP4 ADD MSTORE PUSH2 0x1C90 DUP2 PUSH2 0x1C57 JUMP JUMPDEST SWAP1 POP SWAP2 SWAP1 POP JUMP JUMPDEST PUSH32 0x6361702072657175697265640000000000000000000000000000000000000000 PUSH0 DUP3 ADD MSTORE POP JUMP JUMPDEST PUSH0 PUSH2 0x1CCB PUSH1 0xC DUP4 PUSH2 0x1A93 JUMP JUMPDEST SWAP2 POP PUSH2 0x1CD6 DUP3 PUSH2 0x1C97 JUMP JUMPDEST PUSH1 0x20 DUP3 ADD SWAP1 POP SWAP2 SWAP1 POP JUMP JUMPDEST PUSH0 PUSH1 0x20 DUP3 ADD SWAP1 POP DUP2 DUP2 SUB PUSH0 DUP4 ADD MSTORE PUSH2 0x1CF8 DUP2 PUSH2 0x1CBF JUMP JUMPDEST SWAP1 POP SWAP2 SWAP1 POP JUMP JUMPDEST PUSH0 DUP3 SWAP1 POP SWAP3 SWAP2 POP POP JUMP JUMPDEST PUSH32 0x4E487B7100000000000000000000000000000000000000000000000000000000 PUSH0 MSTORE PUSH1 0x41 PUSH1 0x4 MSTORE PUSH1 0x24 PUSH0 REVERT JUMPDEST PUSH0 DUP2 SWAP1 POP DUP2 PUSH0 MSTORE PUSH1 0x20 PUSH0 KECCAK256 SWAP1 POP SWAP2 SWAP1 POP JUMP JUMPDEST PUSH0 PUSH1 0x20 PUSH1 0x1F DUP4 ADD DIV SWAP1 POP SWAP2 SWAP1 POP JUMP JUMPDEST PUSH0 DUP3 DUP3 SHL SWAP1 POP SWAP3 SWAP2 POP POP JUMP JUMPDEST PUSH0 PUSH1 0x8 DUP4 MUL PUSH2 0x1D92 PUSH32 0xFFFFFFFFFFFFFFFFFFFFFFFFFFFFFFFFFFFFFFFFFFFFFFFFFFFFFFFFFFFFFFFF DUP3 PUSH2 0x1D57 JUMP JUMPDEST PUSH2 0x1D9C DUP7 DUP4 PUSH2 0x1D57 JUMP JUMPDEST SWAP6 POP DUP1 NOT DUP5 AND SWAP4 POP DUP1 DUP7 AND DUP5 OR SWAP3 POP POP POP SWAP4 SWAP3 POP POP POP JUMP JUMPDEST PUSH0 DUP2 SWAP1 POP SWAP2 SWAP1 POP JUMP JUMPDEST PUSH0 PUSH2 0x1DD7 PUSH2 0x1DD2 PUSH2 0x1DCD DUP5 PUSH2 0x1632 JUMP JUMPDEST PUSH2 0x1DB4 JUMP JUMPDEST PUSH2 0x1632 JUMP JUMPDEST SWAP1 POP SWAP2 SWAP1 POP JUMP JUMPDEST PUSH0 DUP2 SWAP1 POP SWAP2 SWAP1 POP JUMP JUMPDEST PUSH2 0x1DF0 DUP4 PUSH2 0x1DBD JUMP JUMPDEST PUSH2 0x1E04 PUSH2 0x1DFC DUP3 PUSH2 0x1DDE JUMP JUMPDEST DUP5 DUP5 SLOAD PUSH2 0x1D63 JUMP JUMPDEST DUP3 SSTORE POP POP POP POP JUMP JUMPDEST PUSH0 PUSH0 SWAP1 POP SWAP1 JUMP JUMPDEST PUSH2 0x1E1B PUSH2 0x1E0C JUMP JUMPDEST PUSH2 0x1E26 DUP2 DUP5 DUP5 PUSH2 0x1DE7 JUMP JUMPDEST POP POP POP JUMP JUMPDEST JUMPDEST DUP2 DUP2 LT ISZERO PUSH2 0x1E49 JUMPI PUSH2 0x1E3E PUSH0 DUP3 PUSH2 0x1E13 JUMP JUMPDEST PUSH1 0x1 DUP2 ADD SWAP1 POP PUSH2 0x1E2C JUMP JUMPDEST POP POP JUMP JUMPDEST PUSH1 0x1F DUP3 GT ISZERO PUSH2 0x1E8E JUMPI PUSH2 0x1E5F DUP2 PUSH2 0x1D36 JUMP JUMPDEST PUSH2 0x1E68 DUP5 PUSH2 0x1D48 JUMP JUMPDEST DUP2 ADD PUSH1 0x20 DUP6 LT ISZERO PUSH2 0x1E77 JUMPI DUP2 SWAP1 POP JUMPDEST PUSH2 0x1E8B PUSH2 0x1E83 DUP6 PUSH2 0x1D48 JUMP JUMPDEST DUP4 ADD DUP3 PUSH2 0x1E2B JUMP JUMPDEST POP POP JUMPDEST POP POP POP JUMP JUMPDEST PUSH0 DUP3 DUP3 SHR SWAP1 POP SWAP3 SWAP2 POP POP JUMP JUMPDEST PUSH0 PUSH2 0x1EAE PUSH0 NOT DUP5 PUSH1 0x8 MUL PUSH2 0x1E93 JUMP JUMPDEST NOT DUP1 DUP4 AND SWAP2 POP POP SWAP3 SWAP2 POP POP JUMP JUMPDEST PUSH0 PUSH2 0x1EC6 DUP4 DUP4 PUSH2 0x1E9F JUMP JUMPDEST SWAP2 POP DUP3 PUSH1 0x2 MUL DUP3 OR SWAP1 POP SWAP3 SWAP2 POP POP JUMP JUMPDEST PUSH2 0x1EE0 DUP4 DUP4 PUSH2 0x1CFF JUMP JUMPDEST PUSH8 0xFFFFFFFFFFFFFFFF DUP2 GT ISZERO PUSH2 0x1EF9 JUMPI PUSH2 0x1EF8 PUSH2 0x1D09 JUMP JUMPDEST JUMPDEST PUSH2 0x1F03 DUP3 SLOAD PUSH2 0x1A63 JUMP JUMPDEST PUSH2 0x1F0E DUP3 DUP3 DUP6 PUSH2 0x1E4D JUMP JUMPDEST PUSH0 PUSH1 0x1F DUP4 GT PUSH1 0x1 DUP2 EQ PUSH2 0x1F3B JUMPI PUSH0 DUP5 ISZERO PUSH2 0x1F29 JUMPI DUP3 DUP8 ADD CALLDATALOAD SWAP1 POP JUMPDEST PUSH2 0x1F33 DUP6 DUP3 PUSH2 0x1EBB JUMP JUMPDEST DUP7 SSTORE POP PUSH2 0x1F9A JUMP JUMPDEST PUSH1 0x1F NOT DUP5 AND PUSH2 0x1F49 DUP7 PUSH2 0x1D36 JUMP JUMPDEST PUSH0 JUMPDEST DUP3 DUP2 LT ISZERO PUSH2 0x1F70 JUMPI DUP5 DUP10 ADD CALLDATALOAD DUP3 SSTORE PUSH1 0x1 DUP3 ADD SWAP2 POP PUSH1 0x20 DUP6 ADD SWAP5 POP PUSH1 0x20 DUP2 ADD SWAP1 POP PUSH2 0x1F4B JUMP JUMPDEST DUP7 DUP4 LT ISZERO PUSH2 0x1F8D JUMPI DUP5 DUP10 ADD CALLDATALOAD PUSH2 0x1F89 PUSH1 0x1F DUP10 AND DUP3 PUSH2 0x1E9F JUMP JUMPDEST DUP4 SSTORE POP JUMPDEST PUSH1 0x1 PUSH1 0x2 DUP9 MUL ADD DUP9 SSTORE POP POP POP JUMPDEST POP POP POP POP POP POP POP JUMP JUMPDEST PUSH0 PUSH2 0x1FAE DUP4 DUP6 PUSH2 0x1A93 JUMP JUMPDEST SWAP4 POP PUSH2 0x1FBB DUP4 DUP6 DUP5 PUSH2 0x1B7D JUMP JUMPDEST PUSH2 0x1FC4 DUP4 PUSH2 0x188B JUMP JUMPDEST DUP5 ADD SWAP1 POP SWAP4 SWAP3 POP POP POP JUMP JUMPDEST PUSH0 PUSH1 0x60 DUP3 ADD SWAP1 POP DUP2 DUP2 SUB PUSH0 DUP4 ADD MSTORE PUSH2 0x1FE8 DUP2 DUP8 DUP10 PUSH2 0x1FA3 JUMP JUMPDEST SWAP1 POP DUP2 DUP2 SUB PUSH1 0x20 DUP4 ADD MSTORE PUSH2 0x1FFD DUP2 DUP6 DUP8 PUSH2 0x1FA3 JUMP JUMPDEST SWAP1 POP PUSH2 0x200C PUSH1 0x40 DUP4 ADD DUP5 PUSH2 0x163B JUMP JUMPDEST SWAP7 SWAP6 POP POP POP POP POP POP JUMP JUMPDEST PUSH32 0x5A65726F206F776E657200000000000000000000000000000000000000000000 PUSH0 DUP3 ADD MSTORE POP JUMP JUMPDEST PUSH0 PUSH2 0x204A PUSH1 0xA DUP4 PUSH2 0x1A93 JUMP JUMPDEST SWAP2 POP PUSH2 0x2055 DUP3 PUSH2 0x2016 JUMP JUMPDEST PUSH1 0x20 DUP3 ADD SWAP1 POP SWAP2 SWAP1 POP JUMP JUMPDEST PUSH0 PUSH1 0x20 DUP3 ADD SWAP1 POP DUP2 DUP2 SUB PUSH0 DUP4 ADD MSTORE PUSH2 0x2077 DUP2 PUSH2 0x203E JUMP JUMPDEST SWAP1 POP SWAP2 SWAP1 POP JUMP JUMPDEST PUSH32 0x77616C6C65742072657175697265640000000000000000000000000000000000 PUSH0 DUP3 ADD MSTORE POP JUMP JUMPDEST PUSH0 PUSH2 0x20B2 PUSH1 0xF DUP4 PUSH2 0x1A93 JUMP JUMPDEST SWAP2 POP PUSH2 0x20BD DUP3 PUSH2 0x207E JUMP JUMPDEST PUSH1 0x20 DUP3 ADD SWAP1 POP SWAP2 SWAP1 POP JUMP JUMPDEST PUSH0 PUSH1 0x20 DUP3 ADD SWAP1 POP DUP2 DUP2 SUB PUSH0 DUP4 ADD MSTORE PUSH2 0x20DF DUP2 PUSH2 0x20A6 JUMP JUMPDEST SWAP1 POP SWAP2 SWAP1 POP JUMP JUMPDEST PUSH2 0x20EF DUP3 PUSH2 0x1863 JUMP JUMPDEST PUSH8 0xFFFFFFFFFFFFFFFF DUP2 GT ISZERO PUSH2 0x2108 JUMPI PUSH2 0x2107 PUSH2 0x1D09 JUMP JUMPDEST JUMPDEST PUSH2 0x2112 DUP3 SLOAD PUSH2 0x1A63 JUMP JUMPDEST PUSH2 0x211D DUP3 DUP3 DUP6 PUSH2 0x1E4D JUMP JUMPDEST PUSH0 PUSH1 0x20 SWAP1 POP PUSH1 0x1F DUP4 GT PUSH1 0x1 DUP2 EQ PUSH2 0x214E JUMPI PUSH0 DUP5 ISZERO PUSH2 0x213C JUMPI DUP3 DUP8 ADD MLOAD SWAP1 POP JUMPDEST PUSH2 0x2146 DUP6 DUP3 PUSH2 0x1EBB JUMP JUMPDEST DUP7 SSTORE POP PUSH2 0x21AD JUMP JUMPDEST PUSH1 0x1F NOT DUP5 AND PUSH2 0x215C DUP7 PUSH2 0x1D36 JUMP JUMPDEST PUSH0 JUMPDEST DUP3 DUP2 LT ISZERO PUSH2 0x2183 JUMPI DUP5 DUP10 ADD MLOAD DUP3 SSTORE PUSH1 0x1 DUP3 ADD SWAP2 POP PUSH1 0x20 DUP6 ADD SWAP5 POP PUSH1 0x20 DUP2 ADD SWAP1 POP PUSH2 0x215E JUMP JUMPDEST DUP7 DUP4 LT ISZERO PUSH2 0x21A0 JUMPI DUP5 DUP10 ADD MLOAD PUSH2 0x219C PUSH1 0x1F DUP10 AND DUP3 PUSH2 0x1E9F JUMP JUMPDEST DUP4 SSTORE POP JUMPDEST PUSH1 0x1 PUSH1 0x2 DUP9 MUL ADD DUP9 SSTORE POP POP POP JUMPDEST POP POP POP POP POP POP JUMP JUMPDEST PUSH0 PUSH1 0xA0 DUP3 ADD SWAP1 POP DUP2 DUP2 SUB PUSH0 DUP4 ADD MSTORE PUSH2 0x21CE DUP2 DUP11 DUP13 PUSH2 0x1FA3 JUMP JUMPDEST SWAP1 POP DUP2 DUP2 SUB PUSH1 0x20 DUP4 ADD MSTORE PUSH2 0x21E3 DUP2 DUP9 DUP11 PUSH2 0x1FA3 JUMP JUMPDEST SWAP1 POP PUSH2 0x21F2 PUSH1 0x40 DUP4 ADD DUP8 PUSH2 0x17C5 JUMP JUMPDEST DUP2 DUP2 SUB PUSH1 0x60 DUP4 ADD MSTORE PUSH2 0x2205 DUP2 DUP6 DUP8 PUSH2 0x1FA3 JUMP JUMPDEST SWAP1 POP PUSH2 0x2214 PUSH1 0x80 DUP4 ADD DUP5 PUSH2 0x163B JUMP JUMPDEST SWAP10 SWAP9 POP POP POP POP POP POP POP POP POP JUMP JUMPDEST POP JUMP JUMPDEST PUSH0 PUSH2 0x222F PUSH0 DUP4 PUSH2 0x1B73 JUMP JUMPDEST SWAP2 POP PUSH2 0x223A DUP3 PUSH2 0x2221 JUMP JUMPDEST PUSH0 DUP3 ADD SWAP1 POP SWAP2 SWAP1 POP JUMP JUMPDEST PUSH0 PUSH2 0x224E DUP3 PUSH2 0x2224 JUMP JUMPDEST SWAP2 POP DUP2 SWAP1 POP SWAP2 SWAP1 POP JUMP JUMPDEST PUSH32 0x66756E64207472616E73666572206661696C6564000000000000000000000000 PUSH0 DUP3 ADD MSTORE POP JUMP JUMPDEST PUSH0 PUSH2 0x228C PUSH1 0x14 DUP4 PUSH2 0x1A93 JUMP JUMPDEST SWAP2 POP PUSH2 0x2297 DUP3 PUSH2 0x2258 JUMP JUMPDEST PUSH1 0x20 DUP3 ADD SWAP1 POP SWAP2 SWAP1 POP JUMP JUMPDEST PUSH0 PUSH1 0x20 DUP3 ADD SWAP1 POP DUP2 DUP2 SUB PUSH0 DUP4 ADD MSTORE PUSH2 0x22B9 DUP2 PUSH2 0x2280 JUMP JUMPDEST SWAP1 POP SWAP2 SWAP1 POP JUMP JUMPDEST PUSH0 PUSH1 0x40 DUP3 ADD SWAP1 POP DUP2 DUP2 SUB PUSH0 DUP4 ADD MSTORE PUSH2 0x22D9 DUP2 DUP6 DUP8 PUSH2 0x1FA3 JUMP JUMPDEST SWAP1 POP PUSH2 0x22E8 PUSH1 0x20 DUP4 ADD DUP5 PUSH2 0x163B JUMP JUMPDEST SWAP5 SWAP4 POP POP POP POP JUMP INVALID LOG2 PUSH5 0x6970667358 0x22 SLT KECCAK256 0xD ADDMOD ADDRESS 0xD2 SWAP16 DATALOADN 0x6F1F GASPRICE 0xB6 PUSH25 0xBC4138C4132100AE16A407AEC4D44BD8AB88E62CA964736F6C PUSH4 0x4300081E STOP CALLER "
				},
				"gasEstimates": {
					"creation": {
						"codeDepositCost": "1799600",
						"executionCost": "49809",
						"totalCost": "1849409"
					},
					"external": {
						"fundAmountWei()": "2425",
						"getCapKgByWallet(address)": "infinite",
						"getCompany(string)": "infinite",
						"getCompanyByAddress(address)": "infinite",
						"owner()": "2552",
						"recordCompany(string,string,address,string,uint256)": "infinite",
						"recordCompanyAndFund(string,string,address,string,uint256)": "infinite",
						"setFundAmountWei(uint256)": "24750",
						"transferOwnership(address)": "30683",
						"updateEmissionCap(string,string,uint256)": "infinite"
					},
					"internal": {
						"_recordCompany(string calldata,string calldata,address,string calldata,uint256)": "infinite",
						"_sendFunding(bytes32,string calldata,address,uint256)": "infinite"
					}
				},
				"methodIdentifiers": {
					"fundAmountWei()": "ca80a77f",
					"getCapKgByWallet(address)": "0c3dea29",
					"getCompany(string)": "b24a4e52",
					"getCompanyByAddress(address)": "f117dd5b",
					"owner()": "8da5cb5b",
					"recordCompany(string,string,address,string,uint256)": "1950c45b",
					"recordCompanyAndFund(string,string,address,string,uint256)": "e7440698",
					"setFundAmountWei(uint256)": "ad8ee3cb",
					"transferOwnership(address)": "f2fde38b",
					"updateEmissionCap(string,string,uint256)": "eb12e040"
				}
			},
			"storageLayout": {
				"storage": [
					{
						"astId": 17,
						"contract": "backend/contracts/CompanyRegistry.sol:CompanyRegistry",
						"label": "owner",
						"offset": 0,
						"slot": "0",
						"type": "t_address"
					},
					{
						"astId": 20,
						"contract": "backend/contracts/CompanyRegistry.sol:CompanyRegistry",
						"label": "fundAmountWei",
						"offset": 0,
						"slot": "1",
						"type": "t_uint256"
					},
					{
						"astId": 25,
						"contract": "backend/contracts/CompanyRegistry.sol:CompanyRegistry",
						"label": "companies",
						"offset": 0,
						"slot": "2",
						"type": "t_mapping(t_bytes32,t_struct(Company)15_storage)"
					},
					{
						"astId": 29,
						"contract": "backend/contracts/CompanyRegistry.sol:CompanyRegistry",
						"label": "walletToKey",
						"offset": 0,
						"slot": "3",
						"type": "t_mapping(t_address,t_bytes32)"
					}
				],
				"types": {
					"t_address": {
						"encoding": "inplace",
						"label": "address",
						"numberOfBytes": "20"
					},
					"t_bytes32": {
						"encoding": "inplace",
						"label": "bytes32",
						"numberOfBytes": "32"
					},
					"t_mapping(t_address,t_bytes32)": {
						"encoding": "mapping",
						"key": "t_address",
						"label": "mapping(address => bytes32)",
						"numberOfBytes": "32",
						"value": "t_bytes32"
					},
					"t_mapping(t_bytes32,t_struct(Company)15_storage)": {
						"encoding": "mapping",
						"key": "t_bytes32",
						"label": "mapping(bytes32 => struct CompanyRegistry.Company)",
						"numberOfBytes": "32",
						"value": "t_struct(Company)15_storage"
					},
					"t_string_storage": {
						"encoding": "bytes",
						"label": "string",
						"numberOfBytes": "32"
					},
					"t_struct(Company)15_storage": {
						"encoding": "inplace",
						"label": "struct CompanyRegistry.Company",
						"members": [
							{
								"astId": 4,
								"contract": "backend/contracts/CompanyRegistry.sol:CompanyRegistry",
								"label": "firebaseId",
								"offset": 0,
								"slot": "0",
								"type": "t_string_storage"
							},
							{
								"astId": 6,
								"contract": "backend/contracts/CompanyRegistry.sol:CompanyRegistry",
								"label": "name",
								"offset": 0,
								"slot": "1",
								"type": "t_string_storage"
							},
							{
								"astId": 8,
								"contract": "backend/contracts/CompanyRegistry.sol:CompanyRegistry",
								"label": "wallet",
								"offset": 0,
								"slot": "2",
								"type": "t_address"
							},
							{
								"astId": 10,
								"contract": "backend/contracts/CompanyRegistry.sol:CompanyRegistry",
								"label": "emissionCapText",
								"offset": 0,
								"slot": "3",
								"type": "t_string_storage"
							},
							{
								"astId": 12,
								"contract": "backend/contracts/CompanyRegistry.sol:CompanyRegistry",
								"label": "capKgPerWindow",
								"offset": 0,
								"slot": "4",
								"type": "t_uint256"
							},
							{
								"astId": 14,
								"contract": "backend/contracts/CompanyRegistry.sol:CompanyRegistry",
								"label": "recordedAt",
								"offset": 0,
								"slot": "5",
								"type": "t_uint256"
							}
						],
						"numberOfBytes": "192"
					},
					"t_uint256": {
						"encoding": "inplace",
						"label": "uint256",
						"numberOfBytes": "32"
					}
				}
			},
			"userdoc": {
				"kind": "user",
				"methods": {
					"getCompany(string)": {
						"notice": "View helper to fetch a company by firebaseId."
					},
					"recordCompany(string,string,address,string,uint256)": {
						"notice": "Record or overwrite a company entry without funding."
					},
					"recordCompanyAndFund(string,string,address,string,uint256)": {
						"notice": "Record company and fund in a single call. Sends msg.value to the company wallet (caller provides value)."
					},
					"updateEmissionCap(string,string,uint256)": {
						"notice": "Update emission cap only (keeping other fields intact)."
					}
				},
				"notice": "Owner (admin) records companies approved in Firebase to the blockchain and optionally funds them",
				"version": 1
			}
		}
	}
}