{
	"backend/contracts/CarbonCreditToken.sol": {
		"CarbonCreditToken": {
			"abi": [
				{
					"inputs": [
						{
							"internalType": "address",
							"name": "registryAddress",
							"type": "address"
						}
					],
					"stateMutability": "nonpayable",
					"type": "constructor"
				},
				{
					"anonymous": false,
					"inputs": [
						{
							"indexed": true,
							"internalType": "address",
							"name": "owner",
							"type": "address"
						},
						{
							"indexed": true,
							"internalType": "address",
							"name": "spender",
							"type": "address"
						},
						{
							"indexed": false,
							"internalType": "uint256",
							"name": "value",
							"type": "uint256"
						}
					],
					"name": "Approval",
					"type": "event"
				},
				{
					"anonymous": false,
					"inputs": [
						{
							"indexed": true,
							"internalType": "address",
							"name": "company",
							"type": "address"
						},
						{
							"indexed": false,
							"internalType": "bytes32",
							"name": "batchHash",
							"type": "bytes32"
						},
						{
							"indexed": false,
							"internalType": "bytes32",
							"name": "batchId",
							"type": "bytes32"
						},
						{
							"indexed": false,
							"internalType": "uint256",
							"name": "startTime",
							"type": "uint256"
						},
						{
							"indexed": false,
							"internalType": "uint256",
							"name": "endTime",
							"type": "uint256"
						},
						{
							"indexed": false,
							"internalType": "uint256",
							"name": "emissionKg",
							"type": "uint256"
						},
						{
							"indexed": false,
							"internalType": "uint256",
							"name": "capKg",
							"type": "uint256"
						},
						{
							"indexed": false,
							"internalType": "uint256",
							"name": "mintedTokens",
							"type": "uint256"
						},
						{
							"indexed": false,
							"internalType": "uint256",
							"name": "burnedTokens",
							"type": "uint256"
						},
						{
							"indexed": false,
							"internalType": "int256",
							"name": "tokenChange",
							"type": "int256"
						}
					],
					"name": "BatchRecorded",
					"type": "event"
				},
				{
					"anonymous": false,
					"inputs": [
						{
							"indexed": true,
							"internalType": "address",
							"name": "company",
							"type": "address"
						},
						{
							"indexed": false,
							"internalType": "uint256",
							"name": "tokens",
							"type": "uint256"
						}
					],
					"name": "CreditsIssued",
					"type": "event"
				},
				{
					"anonymous": false,
					"inputs": [
						{
							"indexed": true,
							"internalType": "address",
							"name": "previousOwner",
							"type": "address"
						},
						{
							"indexed": true,
							"internalType": "address",
							"name": "newOwner",
							"type": "address"
						}
					],
					"name": "OwnershipTransferred",
					"type": "event"
				},
				{
					"anonymous": false,
					"inputs": [
						{
							"indexed": true,
							"internalType": "address",
							"name": "company",
							"type": "address"
						},
						{
							"indexed": false,
							"internalType": "uint256",
							"name": "tokens",
							"type": "uint256"
						}
					],
					"name": "PenaltyApplied",
					"type": "event"
				},
				{
					"anonymous": false,
					"inputs": [
						{
							"indexed": true,
							"internalType": "address",
							"name": "from",
							"type": "address"
						},
						{
							"indexed": true,
							"internalType": "address",
							"name": "to",
							"type": "address"
						},
						{
							"indexed": false,
							"internalType": "uint256",
							"name": "value",
							"type": "uint256"
						}
					],
					"name": "Transfer",
					"type": "event"
				},
				{
					"inputs": [
						{
							"internalType": "address",
							"name": "",
							"type": "address"
						},
						{
							"internalType": "address",
							"name": "",
							"type": "address"
						}
					],
					"name": "allowance",
					"outputs": [
						{
							"internalType": "uint256",
							"name": "",
							"type": "uint256"
						}
					],
					"stateMutability": "view",
					"type": "function"
				},
				{
					"inputs": [
						{
							"internalType": "address",
							"name": "spender",
							"type": "address"
						},
						{
							"internalType": "uint256",
							"name": "amount",
							"type": "uint256"
						}
					],
					"name": "approve",
					"outputs": [
						{
							"internalType": "bool",
							"name": "",
							"type": "bool"
						}
					],
					"stateMutability": "nonpayable",
					"type": "function"
				},
				{
					"inputs": [
						{
							"internalType": "address",
							"name": "",
							"type": "address"
						}
					],
					"name": "balanceOf",
					"outputs": [
						{
							"internalType": "uint256",
							"name": "",
							"type": "uint256"
						}
					],
					"stateMutability": "view",
					"type": "function"
				},
				{
					"inputs": [],
					"name": "decimals",
					"outputs": [
						{
							"internalType": "uint8",
							"name": "",
							"type": "uint8"
						}
					],
					"stateMutability": "view",
					"type": "function"
				},
				{
					"inputs": [
						{
							"internalType": "address",
							"name": "",
							"type": "address"
						},
						{
							"internalType": "uint256",
							"name": "",
							"type": "uint256"
						}
					],
					"name": "emissionHistory",
					"outputs": [
						{
							"internalType": "uint256",
							"name": "startTime",
							"type": "uint256"
						},
						{
							"internalType": "uint256",
							"name": "endTime",
							"type": "uint256"
						},
						{
							"internalType": "uint256",
							"name": "emissionKg",
							"type": "uint256"
						},
						{
							"internalType": "uint256",
							"name": "capKg",
							"type": "uint256"
						},
						{
							"internalType": "bytes32",
							"name": "dataHash",
							"type": "bytes32"
						},
						{
							"internalType": "int256",
							"name": "tokenChange",
							"type": "int256"
						},
						{
							"internalType": "uint256",
							"name": "mintedTokens",
							"type": "uint256"
						},
						{
							"internalType": "uint256",
							"name": "burnedTokens",
							"type": "uint256"
						},
						{
							"internalType": "bytes32",
							"name": "batchId",
							"type": "bytes32"
						}
					],
					"stateMutability": "view",
					"type": "function"
				},
				{
					"inputs": [
						{
							"internalType": "address",
							"name": "company",
							"type": "address"
						}
					],
					"name": "emissionHistoryLength",
					"outputs": [
						{
							"internalType": "uint256",
							"name": "",
							"type": "uint256"
						}
					],
					"stateMutability": "view",
					"type": "function"
				},
				{
					"inputs": [
						{
							"internalType": "address",
							"name": "company",
							"type": "address"
						},
						{
							"internalType": "uint256",
							"name": "index",
							"type": "uint256"
						}
					],
					"name": "getEmissionBatch",
					"outputs": [
						{
							"components": [
								{
									"internalType": "uint256",
									"name": "startTime",
									"type": "uint256"
								},
								{
									"internalType": "uint256",
									"name": "endTime",
									"type": "uint256"
								},
								{
									"internalType": "uint256",
									"name": "emissionKg",
									"type": "uint256"
								},
								{
									"internalType": "uint256",
									"name": "capKg",
									"type": "uint256"
								},
								{
									"internalType": "bytes32",
									"name": "dataHash",
									"type": "bytes32"
								},
								{
									"internalType": "int256",
									"name": "tokenChange",
									"type": "int256"
								},
								{
									"internalType": "uint256",
									"name": "mintedTokens",
									"type": "uint256"
								},
								{
									"internalType": "uint256",
									"name": "burnedTokens",
									"type": "uint256"
								},
								{
									"internalType": "bytes32",
									"name": "batchId",
									"type": "bytes32"
								}
							],
							"internalType": "struct CarbonCreditToken.EmissionBatch",
							"name": "",
							"type": "tuple"
						}
					],
					"stateMutability": "view",
					"type": "function"
				},
				{
					"inputs": [],
					"name": "name",
					"outputs": [
						{
							"internalType": "string",
							"name": "",
							"type": "string"
						}
					],
					"stateMutability": "view",
					"type": "function"
				},
				{
					"inputs": [],
					"name": "owner",
					"outputs": [
						{
							"internalType": "address",
							"name": "",
							"type": "address"
						}
					],
					"stateMutability": "view",
					"type": "function"
				},
				{
					"inputs": [
						{
							"internalType": "bytes32",
							"name": "",
							"type": "bytes32"
						}
					],
					"name": "processedBatches",
					"outputs": [
						{
							"internalType": "bool",
							"name": "",
							"type": "bool"
						}
					],
					"stateMutability": "view",
					"type": "function"
				},
				{
					"inputs": [],
					"name": "registry",
					"outputs": [
						{
							"internalType": "contract ICompanyRegistry",
							"name": "",
							"type": "address"
						}
					],
					"stateMutability": "view",
					"type": "function"
				},
				{
					"inputs": [
						{
							"internalType": "address",
							"name": "company",
							"type": "address"
						},
						{
							"internalType": "uint256",
							"name": "emissionKg",
							"type": "uint256"
						},
						{
							"internalType": "uint256",
							"name": "batchStartTime",
							"type": "uint256"
						},
						{
							"internalType": "uint256",
							"name": "batchEndTime",
							"type": "uint256"
						},
						{
							"internalType": "bytes32",
							"name": "batchHash",
							"type": "bytes32"
						},
						{
							"internalType": "bytes32",
							"name": "batchId",
							"type": "bytes32"
						}
					],
					"name": "submitBatch",
					"outputs": [],
					"stateMutability": "nonpayable",
					"type": "function"
				},
				{
					"inputs": [],
					"name": "symbol",
					"outputs": [
						{
							"internalType": "string",
							"name": "",
							"type": "string"
						}
					],
					"stateMutability": "view",
					"type": "function"
				},
				{
					"inputs": [],
					"name": "totalSupply",
					"outputs": [
						{
							"internalType": "uint256",
							"name": "",
							"type": "uint256"
						}
					],
					"stateMutability": "view",
					"type": "function"
				},
				{
					"inputs": [
						{
							"internalType": "address",
							"name": "to",
							"type": "address"
						},
						{
							"internalType": "uint256",
							"name": "amount",
							"type": "uint256"
						}
					],
					"name": "transfer",
					"outputs": [
						{
							"internalType": "bool",
							"name": "",
							"type": "bool"
						}
					],
					"stateMutability": "nonpayable",
					"type": "function"
				},
				{
					"inputs": [
						{
							"internalType": "address",
							"name": "from",
							"type": "address"
						},
						{
							"internalType": "address",
							"name": "to",
							"type": "address"
						},
						{
							"internalType": "uint256",
							"name": "amount",
							"type": "uint256"
						}
					],
					"name": "transferFrom",
					"outputs": [
						{
							"internalType": "bool",
							"name": "",
							"type": "bool"
						}
					],
					"stateMutability": "nonpayable",
					"type": "function"
				},
				{
					"inputs": [
						{
							"internalType": "address",
							"name": "newOwner",
							"type": "address"
						}
					],
					"name": "transferOwnership",
					"outputs": [],
					"stateMutability": "nonpayable",
					"type": "function"
				}
			],
			"devdoc": {
				"kind": "dev",
				"methods": {
					"submitBatch(address,uint256,uint256,uint256,bytes32,bytes32)": {
						"params": {
							"batchEndTime": "end timestamp (seconds)",
							"batchHash": "SHA-256 hash of the 10-minute dataset",
							"batchId": "unique id to prevent duplicates",
							"batchStartTime": "start timestamp (seconds)",
							"company": "company wallet",
							"emissionKg": "emission in kilograms for the 10-minute batch"
						}
					}
				},
				"stateVariables": {
					"emissionHistory": {
						"details": "history per company"
					},
					"processedBatches": {
						"details": "prevent duplicate batches"
					}
				},
				"title": "Carbon Credit Token (CCT) with on-chain emission verification",
				"version": 1
			},
			"evm": {
				"assembly": "    /* \"backend/contracts/CarbonCreditToken.sol\":408:7565  contract CarbonCreditToken {... */\n  mstore(0x40, 0xa0)\n    /* \"backend/contracts/CarbonCreditToken.sol\":511:551  string public name = \"CarbonCreditToken\" */\n  mload(0x40)\n  dup1\n  0x40\n  add\n  0x40\n  mstore\n  dup1\n  0x11\n  dup2\n  mstore\n  0x20\n  add\n  0x436172626f6e437265646974546f6b656e000000000000000000000000000000\n  dup2\n  mstore\n  pop\n  0x00\n  swap1\n  dup2\n  tag_1\n  swap2\n  swap1\n  tag_2\n  jump\t// in\ntag_1:\n  pop\n    /* \"backend/contracts/CarbonCreditToken.sol\":557:585  string public symbol = \"CCT\" */\n  mload(0x40)\n  dup1\n  0x40\n  add\n  0x40\n  mstore\n  dup1\n  0x03\n  dup2\n  mstore\n  0x20\n  add\n  0x4343540000000000000000000000000000000000000000000000000000000000\n  dup2\n  mstore\n  pop\n  0x01\n  swap1\n  dup2\n  tag_3\n  swap2\n  swap1\n  tag_2\n  jump\t// in\ntag_3:\n  pop\n    /* \"backend/contracts/CarbonCreditToken.sol\":2293:2547  constructor(address registryAddress) {... */\n  callvalue\n  dup1\n  iszero\n  tag_4\n  jumpi\n  revert(0x00, 0x00)\ntag_4:\n  pop\n  mload(0x40)\n  sub(codesize, bytecodeSize)\n  dup1\n  bytecodeSize\n  dup4\n  codecopy\n  dup2\n  dup2\n  add\n  0x40\n  mstore\n  dup2\n  add\n  swap1\n  tag_5\n  swap2\n  swap1\n  tag_6\n  jump\t// in\ntag_5:\n    /* \"backend/contracts/CarbonCreditToken.sol\":2375:2376  0 */\n  0x00\n    /* \"backend/contracts/CarbonCreditToken.sol\":2348:2377  registryAddress != address(0) */\n  0xffffffffffffffffffffffffffffffffffffffff\n  and\n    /* \"backend/contracts/CarbonCreditToken.sol\":2348:2363  registryAddress */\n  dup2\n    /* \"backend/contracts/CarbonCreditToken.sol\":2348:2377  registryAddress != address(0) */\n  0xffffffffffffffffffffffffffffffffffffffff\n  and\n  sub\n    /* \"backend/contracts/CarbonCreditToken.sol\":2340:2399  require(registryAddress != address(0), \"registry required\") */\n  tag_9\n  jumpi\n  mload(0x40)\n  0x08c379a000000000000000000000000000000000000000000000000000000000\n  dup2\n  mstore\n  0x04\n  add\n  tag_10\n  swap1\n  tag_11\n  jump\t// in\ntag_10:\n  mload(0x40)\n  dup1\n  swap2\n  sub\n  swap1\n  revert\ntag_9:\n    /* \"backend/contracts/CarbonCreditToken.sol\":2437:2452  registryAddress */\n  dup1\n    /* \"backend/contracts/CarbonCreditToken.sol\":2409:2453  registry = ICompanyRegistry(registryAddress) */\n  0xffffffffffffffffffffffffffffffffffffffff\n  and\n  0x80\n  dup2\n  0xffffffffffffffffffffffffffffffffffffffff\n  and\n  dup2\n  mstore\n  pop\n  pop\n    /* \"backend/contracts/CarbonCreditToken.sol\":2471:2481  msg.sender */\n  caller\n    /* \"backend/contracts/CarbonCreditToken.sol\":2463:2468  owner */\n  0x05\n  0x00\n    /* \"backend/contracts/CarbonCreditToken.sol\":2463:2481  owner = msg.sender */\n  0x0100\n  exp\n  dup2\n  sload\n  dup2\n  0xffffffffffffffffffffffffffffffffffffffff\n  mul\n  not\n  and\n  swap1\n  dup4\n  0xffffffffffffffffffffffffffffffffffffffff\n  and\n  mul\n  or\n  swap1\n  sstore\n  pop\n    /* \"backend/contracts/CarbonCreditToken.sol\":2529:2539  msg.sender */\n  caller\n    /* \"backend/contracts/CarbonCreditToken.sol\":2496:2540  OwnershipTransferred(address(0), msg.sender) */\n  0xffffffffffffffffffffffffffffffffffffffff\n  and\n    /* \"backend/contracts/CarbonCreditToken.sol\":2525:2526  0 */\n  0x00\n    /* \"backend/contracts/CarbonCreditToken.sol\":2496:2540  OwnershipTransferred(address(0), msg.sender) */\n  0xffffffffffffffffffffffffffffffffffffffff\n  and\n  0x8be0079c531659141344cd1fd0a4f28419497f9722a3daafe3b4186f6b6457e0\n  mload(0x40)\n  mload(0x40)\n  dup1\n  swap2\n  sub\n  swap1\n  log3\n    /* \"backend/contracts/CarbonCreditToken.sol\":2293:2547  constructor(address registryAddress) {... */\n  pop\n    /* \"backend/contracts/CarbonCreditToken.sol\":408:7565  contract CarbonCreditToken {... */\n  jump(tag_12)\n    /* \"#utility.yul\":7:106   */\ntag_13:\n    /* \"#utility.yul\":59:65   */\n  0x00\n    /* \"#utility.yul\":93:98   */\n  dup2\n    /* \"#utility.yul\":87:99   */\n  mload\n    /* \"#utility.yul\":77:99   */\n  swap1\n  pop\n    /* \"#utility.yul\":7:106   */\n  swap2\n  swap1\n  pop\n  jump\t// out\n    /* \"#utility.yul\":112:292   */\ntag_14:\n    /* \"#utility.yul\":160:237   */\n  0x4e487b7100000000000000000000000000000000000000000000000000000000\n    /* \"#utility.yul\":157:158   */\n  0x00\n    /* \"#utility.yul\":150:238   */\n  mstore\n    /* \"#utility.yul\":257:261   */\n  0x41\n    /* \"#utility.yul\":254:255   */\n  0x04\n    /* \"#utility.yul\":247:262   */\n  mstore\n    /* \"#utility.yul\":281:285   */\n  0x24\n    /* \"#utility.yul\":278:279   */\n  0x00\n    /* \"#utility.yul\":271:286   */\n  revert\n    /* \"#utility.yul\":298:478   */\ntag_15:\n    /* \"#utility.yul\":346:423   */\n  0x4e487b7100000000000000000000000000000000000000000000000000000000\n    /* \"#utility.yul\":343:344   */\n  0x00\n    /* \"#utility.yul\":336:424   */\n  mstore\n    /* \"#utility.yul\":443:447   */\n  0x22\n    /* \"#utility.yul\":440:441   */\n  0x04\n    /* \"#utility.yul\":433:448   */\n  mstore\n    /* \"#utility.yul\":467:471   */\n  0x24\n    /* \"#utility.yul\":464:465   */\n  0x00\n    /* \"#utility.yul\":457:472   */\n  revert\n    /* \"#utility.yul\":484:804   */\ntag_16:\n    /* \"#utility.yul\":528:534   */\n  0x00\n    /* \"#utility.yul\":565:566   */\n  0x02\n    /* \"#utility.yul\":559:563   */\n  dup3\n    /* \"#utility.yul\":555:567   */\n  div\n    /* \"#utility.yul\":545:567   */\n  swap1\n  pop\n    /* \"#utility.yul\":612:613   */\n  0x01\n    /* \"#utility.yul\":606:610   */\n  dup3\n    /* \"#utility.yul\":602:614   */\n  and\n    /* \"#utility.yul\":633:651   */\n  dup1\n    /* \"#utility.yul\":623:704   */\n  tag_48\n  jumpi\n    /* \"#utility.yul\":689:693   */\n  0x7f\n    /* \"#utility.yul\":681:687   */\n  dup3\n    /* \"#utility.yul\":677:694   */\n  and\n    /* \"#utility.yul\":667:694   */\n  swap2\n  pop\n    /* \"#utility.yul\":623:704   */\ntag_48:\n    /* \"#utility.yul\":751:753   */\n  0x20\n    /* \"#utility.yul\":743:749   */\n  dup3\n    /* \"#utility.yul\":740:754   */\n  lt\n    /* \"#utility.yul\":720:738   */\n  dup2\n    /* \"#utility.yul\":717:755   */\n  sub\n    /* \"#utility.yul\":714:798   */\n  tag_49\n  jumpi\n    /* \"#utility.yul\":770:788   */\n  tag_50\n  tag_15\n  jump\t// in\ntag_50:\n    /* \"#utility.yul\":714:798   */\ntag_49:\n    /* \"#utility.yul\":535:804   */\n  pop\n    /* \"#utility.yul\":484:804   */\n  swap2\n  swap1\n  pop\n  jump\t// out\n    /* \"#utility.yul\":810:951   */\ntag_17:\n    /* \"#utility.yul\":859:863   */\n  0x00\n    /* \"#utility.yul\":882:885   */\n  dup2\n    /* \"#utility.yul\":874:885   */\n  swap1\n  pop\n    /* \"#utility.yul\":905:908   */\n  dup2\n    /* \"#utility.yul\":902:903   */\n  0x00\n    /* \"#utility.yul\":895:909   */\n  mstore\n    /* \"#utility.yul\":939:943   */\n  0x20\n    /* \"#utility.yul\":936:937   */\n  0x00\n    /* \"#utility.yul\":926:944   */\n  keccak256\n    /* \"#utility.yul\":918:944   */\n  swap1\n  pop\n    /* \"#utility.yul\":810:951   */\n  swap2\n  swap1\n  pop\n  jump\t// out\n    /* \"#utility.yul\":957:1050   */\ntag_18:\n    /* \"#utility.yul\":994:1000   */\n  0x00\n    /* \"#utility.yul\":1041:1043   */\n  0x20\n    /* \"#utility.yul\":1036:1038   */\n  0x1f\n    /* \"#utility.yul\":1029:1034   */\n  dup4\n    /* \"#utility.yul\":1025:1039   */\n  add\n    /* \"#utility.yul\":1021:1044   */\n  div\n    /* \"#utility.yul\":1011:1044   */\n  swap1\n  pop\n    /* \"#utility.yul\":957:1050   */\n  swap2\n  swap1\n  pop\n  jump\t// out\n    /* \"#utility.yul\":1056:1163   */\ntag_19:\n    /* \"#utility.yul\":1100:1108   */\n  0x00\n    /* \"#utility.yul\":1150:1155   */\n  dup3\n    /* \"#utility.yul\":1144:1148   */\n  dup3\n    /* \"#utility.yul\":1140:1156   */\n  shl\n    /* \"#utility.yul\":1119:1156   */\n  swap1\n  pop\n    /* \"#utility.yul\":1056:1163   */\n  swap3\n  swap2\n  pop\n  pop\n  jump\t// out\n    /* \"#utility.yul\":1169:1562   */\ntag_20:\n    /* \"#utility.yul\":1238:1244   */\n  0x00\n    /* \"#utility.yul\":1288:1289   */\n  0x08\n    /* \"#utility.yul\":1276:1286   */\n  dup4\n    /* \"#utility.yul\":1272:1290   */\n  mul\n    /* \"#utility.yul\":1311:1408   */\n  tag_55\n    /* \"#utility.yul\":1341:1407   */\n  0xffffffffffffffffffffffffffffffffffffffffffffffffffffffffffffffff\n    /* \"#utility.yul\":1330:1339   */\n  dup3\n    /* \"#utility.yul\":1311:1408   */\n  tag_19\n  jump\t// in\ntag_55:\n    /* \"#utility.yul\":1429:1468   */\n  tag_56\n    /* \"#utility.yul\":1459:1467   */\n  dup7\n    /* \"#utility.yul\":1448:1457   */\n  dup4\n    /* \"#utility.yul\":1429:1468   */\n  tag_19\n  jump\t// in\ntag_56:\n    /* \"#utility.yul\":1417:1468   */\n  swap6\n  pop\n    /* \"#utility.yul\":1501:1505   */\n  dup1\n    /* \"#utility.yul\":1497:1506   */\n  not\n    /* \"#utility.yul\":1490:1495   */\n  dup5\n    /* \"#utility.yul\":1486:1507   */\n  and\n    /* \"#utility.yul\":1477:1507   */\n  swap4\n  pop\n    /* \"#utility.yul\":1550:1554   */\n  dup1\n    /* \"#utility.yul\":1540:1548   */\n  dup7\n    /* \"#utility.yul\":1536:1555   */\n  and\n    /* \"#utility.yul\":1529:1534   */\n  dup5\n    /* \"#utility.yul\":1526:1556   */\n  or\n    /* \"#utility.yul\":1516:1556   */\n  swap3\n  pop\n    /* \"#utility.yul\":1245:1562   */\n  pop\n  pop\n    /* \"#utility.yul\":1169:1562   */\n  swap4\n  swap3\n  pop\n  pop\n  pop\n  jump\t// out\n    /* \"#utility.yul\":1568:1645   */\ntag_21:\n    /* \"#utility.yul\":1605:1612   */\n  0x00\n    /* \"#utility.yul\":1634:1639   */\n  dup2\n    /* \"#utility.yul\":1623:1639   */\n  swap1\n  pop\n    /* \"#utility.yul\":1568:1645   */\n  swap2\n  swap1\n  pop\n  jump\t// out\n    /* \"#utility.yul\":1651:1711   */\ntag_22:\n    /* \"#utility.yul\":1679:1682   */\n  0x00\n    /* \"#utility.yul\":1700:1705   */\n  dup2\n    /* \"#utility.yul\":1693:1705   */\n  swap1\n  pop\n    /* \"#utility.yul\":1651:1711   */\n  swap2\n  swap1\n  pop\n  jump\t// out\n    /* \"#utility.yul\":1717:1859   */\ntag_23:\n    /* \"#utility.yul\":1767:1776   */\n  0x00\n    /* \"#utility.yul\":1800:1853   */\n  tag_60\n    /* \"#utility.yul\":1818:1852   */\n  tag_61\n    /* \"#utility.yul\":1827:1851   */\n  tag_62\n    /* \"#utility.yul\":1845:1850   */\n  dup5\n    /* \"#utility.yul\":1827:1851   */\n  tag_21\n  jump\t// in\ntag_62:\n    /* \"#utility.yul\":1818:1852   */\n  tag_22\n  jump\t// in\ntag_61:\n    /* \"#utility.yul\":1800:1853   */\n  tag_21\n  jump\t// in\ntag_60:\n    /* \"#utility.yul\":1787:1853   */\n  swap1\n  pop\n    /* \"#utility.yul\":1717:1859   */\n  swap2\n  swap1\n  pop\n  jump\t// out\n    /* \"#utility.yul\":1865:1940   */\ntag_24:\n    /* \"#utility.yul\":1908:1911   */\n  0x00\n    /* \"#utility.yul\":1929:1934   */\n  dup2\n    /* \"#utility.yul\":1922:1934   */\n  swap1\n  pop\n    /* \"#utility.yul\":1865:1940   */\n  swap2\n  swap1\n  pop\n  jump\t// out\n    /* \"#utility.yul\":1946:2215   */\ntag_25:\n    /* \"#utility.yul\":2056:2095   */\n  tag_65\n    /* \"#utility.yul\":2087:2094   */\n  dup4\n    /* \"#utility.yul\":2056:2095   */\n  tag_23\n  jump\t// in\ntag_65:\n    /* \"#utility.yul\":2117:2208   */\n  tag_66\n    /* \"#utility.yul\":2166:2207   */\n  tag_67\n    /* \"#utility.yul\":2190:2206   */\n  dup3\n    /* \"#utility.yul\":2166:2207   */\n  tag_24\n  jump\t// in\ntag_67:\n    /* \"#utility.yul\":2158:2164   */\n  dup5\n    /* \"#utility.yul\":2151:2155   */\n  dup5\n    /* \"#utility.yul\":2145:2156   */\n  sload\n    /* \"#utility.yul\":2117:2208   */\n  tag_20\n  jump\t// in\ntag_66:\n    /* \"#utility.yul\":2111:2115   */\n  dup3\n    /* \"#utility.yul\":2104:2209   */\n  sstore\n    /* \"#utility.yul\":2022:2215   */\n  pop\n    /* \"#utility.yul\":1946:2215   */\n  pop\n  pop\n  pop\n  jump\t// out\n    /* \"#utility.yul\":2221:2294   */\ntag_26:\n    /* \"#utility.yul\":2266:2269   */\n  0x00\n    /* \"#utility.yul\":2287:2288   */\n  0x00\n    /* \"#utility.yul\":2280:2288   */\n  swap1\n  pop\n    /* \"#utility.yul\":2221:2294   */\n  swap1\n  jump\t// out\n    /* \"#utility.yul\":2300:2489   */\ntag_27:\n    /* \"#utility.yul\":2377:2409   */\n  tag_70\n  tag_26\n  jump\t// in\ntag_70:\n    /* \"#utility.yul\":2418:2483   */\n  tag_71\n    /* \"#utility.yul\":2476:2482   */\n  dup2\n    /* \"#utility.yul\":2468:2474   */\n  dup5\n    /* \"#utility.yul\":2462:2466   */\n  dup5\n    /* \"#utility.yul\":2418:2483   */\n  tag_25\n  jump\t// in\ntag_71:\n    /* \"#utility.yul\":2353:2489   */\n  pop\n    /* \"#utility.yul\":2300:2489   */\n  pop\n  pop\n  jump\t// out\n    /* \"#utility.yul\":2495:2681   */\ntag_28:\n    /* \"#utility.yul\":2555:2675   */\ntag_73:\n    /* \"#utility.yul\":2572:2575   */\n  dup2\n    /* \"#utility.yul\":2565:2570   */\n  dup2\n    /* \"#utility.yul\":2562:2576   */\n  lt\n    /* \"#utility.yul\":2555:2675   */\n  iszero\n  tag_75\n  jumpi\n    /* \"#utility.yul\":2626:2665   */\n  tag_76\n    /* \"#utility.yul\":2663:2664   */\n  0x00\n    /* \"#utility.yul\":2656:2661   */\n  dup3\n    /* \"#utility.yul\":2626:2665   */\n  tag_27\n  jump\t// in\ntag_76:\n    /* \"#utility.yul\":2599:2600   */\n  0x01\n    /* \"#utility.yul\":2592:2597   */\n  dup2\n    /* \"#utility.yul\":2588:2601   */\n  add\n    /* \"#utility.yul\":2579:2601   */\n  swap1\n  pop\n    /* \"#utility.yul\":2555:2675   */\n  jump(tag_73)\ntag_75:\n    /* \"#utility.yul\":2495:2681   */\n  pop\n  pop\n  jump\t// out\n    /* \"#utility.yul\":2687:3230   */\ntag_29:\n    /* \"#utility.yul\":2788:2790   */\n  0x1f\n    /* \"#utility.yul\":2783:2786   */\n  dup3\n    /* \"#utility.yul\":2780:2791   */\n  gt\n    /* \"#utility.yul\":2777:3223   */\n  iszero\n  tag_78\n  jumpi\n    /* \"#utility.yul\":2822:2860   */\n  tag_79\n    /* \"#utility.yul\":2854:2859   */\n  dup2\n    /* \"#utility.yul\":2822:2860   */\n  tag_17\n  jump\t// in\ntag_79:\n    /* \"#utility.yul\":2906:2935   */\n  tag_80\n    /* \"#utility.yul\":2924:2934   */\n  dup5\n    /* \"#utility.yul\":2906:2935   */\n  tag_18\n  jump\t// in\ntag_80:\n    /* \"#utility.yul\":2896:2904   */\n  dup2\n    /* \"#utility.yul\":2892:2936   */\n  add\n    /* \"#utility.yul\":3089:3091   */\n  0x20\n    /* \"#utility.yul\":3077:3087   */\n  dup6\n    /* \"#utility.yul\":3074:3092   */\n  lt\n    /* \"#utility.yul\":3071:3120   */\n  iszero\n  tag_81\n  jumpi\n    /* \"#utility.yul\":3110:3118   */\n  dup2\n    /* \"#utility.yul\":3095:3118   */\n  swap1\n  pop\n    /* \"#utility.yul\":3071:3120   */\ntag_81:\n    /* \"#utility.yul\":3133:3213   */\n  tag_82\n    /* \"#utility.yul\":3189:3211   */\n  tag_83\n    /* \"#utility.yul\":3207:3210   */\n  dup6\n    /* \"#utility.yul\":3189:3211   */\n  tag_18\n  jump\t// in\ntag_83:\n    /* \"#utility.yul\":3179:3187   */\n  dup4\n    /* \"#utility.yul\":3175:3212   */\n  add\n    /* \"#utility.yul\":3162:3173   */\n  dup3\n    /* \"#utility.yul\":3133:3213   */\n  tag_28\n  jump\t// in\ntag_82:\n    /* \"#utility.yul\":2792:3223   */\n  pop\n  pop\n    /* \"#utility.yul\":2777:3223   */\ntag_78:\n    /* \"#utility.yul\":2687:3230   */\n  pop\n  pop\n  pop\n  jump\t// out\n    /* \"#utility.yul\":3236:3353   */\ntag_30:\n    /* \"#utility.yul\":3290:3298   */\n  0x00\n    /* \"#utility.yul\":3340:3345   */\n  dup3\n    /* \"#utility.yul\":3334:3338   */\n  dup3\n    /* \"#utility.yul\":3330:3346   */\n  shr\n    /* \"#utility.yul\":3309:3346   */\n  swap1\n  pop\n    /* \"#utility.yul\":3236:3353   */\n  swap3\n  swap2\n  pop\n  pop\n  jump\t// out\n    /* \"#utility.yul\":3359:3528   */\ntag_31:\n    /* \"#utility.yul\":3403:3409   */\n  0x00\n    /* \"#utility.yul\":3436:3487   */\n  tag_86\n    /* \"#utility.yul\":3484:3485   */\n  0x00\n    /* \"#utility.yul\":3480:3486   */\n  not\n    /* \"#utility.yul\":3472:3477   */\n  dup5\n    /* \"#utility.yul\":3469:3470   */\n  0x08\n    /* \"#utility.yul\":3465:3478   */\n  mul\n    /* \"#utility.yul\":3436:3487   */\n  tag_30\n  jump\t// in\ntag_86:\n    /* \"#utility.yul\":3432:3488   */\n  not\n    /* \"#utility.yul\":3517:3521   */\n  dup1\n    /* \"#utility.yul\":3511:3515   */\n  dup4\n    /* \"#utility.yul\":3507:3522   */\n  and\n    /* \"#utility.yul\":3497:3522   */\n  swap2\n  pop\n    /* \"#utility.yul\":3410:3528   */\n  pop\n    /* \"#utility.yul\":3359:3528   */\n  swap3\n  swap2\n  pop\n  pop\n  jump\t// out\n    /* \"#utility.yul\":3533:3828   */\ntag_32:\n    /* \"#utility.yul\":3609:3613   */\n  0x00\n    /* \"#utility.yul\":3755:3784   */\n  tag_88\n    /* \"#utility.yul\":3780:3783   */\n  dup4\n    /* \"#utility.yul\":3774:3778   */\n  dup4\n    /* \"#utility.yul\":3755:3784   */\n  tag_31\n  jump\t// in\ntag_88:\n    /* \"#utility.yul\":3747:3784   */\n  swap2\n  pop\n    /* \"#utility.yul\":3817:3820   */\n  dup3\n    /* \"#utility.yul\":3814:3815   */\n  0x02\n    /* \"#utility.yul\":3810:3821   */\n  mul\n    /* \"#utility.yul\":3804:3808   */\n  dup3\n    /* \"#utility.yul\":3801:3822   */\n  or\n    /* \"#utility.yul\":3793:3822   */\n  swap1\n  pop\n    /* \"#utility.yul\":3533:3828   */\n  swap3\n  swap2\n  pop\n  pop\n  jump\t// out\n    /* \"#utility.yul\":3833:5228   */\ntag_2:\n    /* \"#utility.yul\":3950:3987   */\n  tag_90\n    /* \"#utility.yul\":3983:3986   */\n  dup3\n    /* \"#utility.yul\":3950:3987   */\n  tag_13\n  jump\t// in\ntag_90:\n    /* \"#utility.yul\":4052:4070   */\n  0xffffffffffffffff\n    /* \"#utility.yul\":4044:4050   */\n  dup2\n    /* \"#utility.yul\":4041:4071   */\n  gt\n    /* \"#utility.yul\":4038:4094   */\n  iszero\n  tag_91\n  jumpi\n    /* \"#utility.yul\":4074:4092   */\n  tag_92\n  tag_14\n  jump\t// in\ntag_92:\n    /* \"#utility.yul\":4038:4094   */\ntag_91:\n    /* \"#utility.yul\":4118:4156   */\n  tag_93\n    /* \"#utility.yul\":4150:4154   */\n  dup3\n    /* \"#utility.yul\":4144:4155   */\n  sload\n    /* \"#utility.yul\":4118:4156   */\n  tag_16\n  jump\t// in\ntag_93:\n    /* \"#utility.yul\":4203:4270   */\n  tag_94\n    /* \"#utility.yul\":4263:4269   */\n  dup3\n    /* \"#utility.yul\":4255:4261   */\n  dup3\n    /* \"#utility.yul\":4249:4253   */\n  dup6\n    /* \"#utility.yul\":4203:4270   */\n  tag_29\n  jump\t// in\ntag_94:\n    /* \"#utility.yul\":4297:4298   */\n  0x00\n    /* \"#utility.yul\":4321:4325   */\n  0x20\n    /* \"#utility.yul\":4308:4325   */\n  swap1\n  pop\n    /* \"#utility.yul\":4353:4355   */\n  0x1f\n    /* \"#utility.yul\":4345:4351   */\n  dup4\n    /* \"#utility.yul\":4342:4356   */\n  gt\n    /* \"#utility.yul\":4370:4371   */\n  0x01\n    /* \"#utility.yul\":4365:4983   */\n  dup2\n  eq\n  tag_96\n  jumpi\n    /* \"#utility.yul\":5027:5028   */\n  0x00\n    /* \"#utility.yul\":5044:5050   */\n  dup5\n    /* \"#utility.yul\":5041:5118   */\n  iszero\n  tag_97\n  jumpi\n    /* \"#utility.yul\":5093:5102   */\n  dup3\n    /* \"#utility.yul\":5088:5091   */\n  dup8\n    /* \"#utility.yul\":5084:5103   */\n  add\n    /* \"#utility.yul\":5078:5104   */\n  mload\n    /* \"#utility.yul\":5069:5104   */\n  swap1\n  pop\n    /* \"#utility.yul\":5041:5118   */\ntag_97:\n    /* \"#utility.yul\":5144:5211   */\n  tag_98\n    /* \"#utility.yul\":5204:5210   */\n  dup6\n    /* \"#utility.yul\":5197:5202   */\n  dup3\n    /* \"#utility.yul\":5144:5211   */\n  tag_32\n  jump\t// in\ntag_98:\n    /* \"#utility.yul\":5138:5142   */\n  dup7\n    /* \"#utility.yul\":5131:5212   */\n  sstore\n    /* \"#utility.yul\":5000:5222   */\n  pop\n    /* \"#utility.yul\":4335:5222   */\n  jump(tag_95)\n    /* \"#utility.yul\":4365:4983   */\ntag_96:\n    /* \"#utility.yul\":4417:4421   */\n  0x1f\n    /* \"#utility.yul\":4413:4422   */\n  not\n    /* \"#utility.yul\":4405:4411   */\n  dup5\n    /* \"#utility.yul\":4401:4423   */\n  and\n    /* \"#utility.yul\":4451:4488   */\n  tag_99\n    /* \"#utility.yul\":4483:4487   */\n  dup7\n    /* \"#utility.yul\":4451:4488   */\n  tag_17\n  jump\t// in\ntag_99:\n    /* \"#utility.yul\":4510:4511   */\n  0x00\n    /* \"#utility.yul\":4524:4732   */\ntag_100:\n    /* \"#utility.yul\":4538:4545   */\n  dup3\n    /* \"#utility.yul\":4535:4536   */\n  dup2\n    /* \"#utility.yul\":4532:4546   */\n  lt\n    /* \"#utility.yul\":4524:4732   */\n  iszero\n  tag_102\n  jumpi\n    /* \"#utility.yul\":4617:4626   */\n  dup5\n    /* \"#utility.yul\":4612:4615   */\n  dup10\n    /* \"#utility.yul\":4608:4627   */\n  add\n    /* \"#utility.yul\":4602:4628   */\n  mload\n    /* \"#utility.yul\":4594:4600   */\n  dup3\n    /* \"#utility.yul\":4587:4629   */\n  sstore\n    /* \"#utility.yul\":4668:4669   */\n  0x01\n    /* \"#utility.yul\":4660:4666   */\n  dup3\n    /* \"#utility.yul\":4656:4670   */\n  add\n    /* \"#utility.yul\":4646:4670   */\n  swap2\n  pop\n    /* \"#utility.yul\":4715:4717   */\n  0x20\n    /* \"#utility.yul\":4704:4713   */\n  dup6\n    /* \"#utility.yul\":4700:4718   */\n  add\n    /* \"#utility.yul\":4687:4718   */\n  swap5\n  pop\n    /* \"#utility.yul\":4561:4565   */\n  0x20\n    /* \"#utility.yul\":4558:4559   */\n  dup2\n    /* \"#utility.yul\":4554:4566   */\n  add\n    /* \"#utility.yul\":4549:4566   */\n  swap1\n  pop\n    /* \"#utility.yul\":4524:4732   */\n  jump(tag_100)\ntag_102:\n    /* \"#utility.yul\":4760:4766   */\n  dup7\n    /* \"#utility.yul\":4751:4758   */\n  dup4\n    /* \"#utility.yul\":4748:4767   */\n  lt\n    /* \"#utility.yul\":4745:4924   */\n  iszero\n  tag_103\n  jumpi\n    /* \"#utility.yul\":4818:4827   */\n  dup5\n    /* \"#utility.yul\":4813:4816   */\n  dup10\n    /* \"#utility.yul\":4809:4828   */\n  add\n    /* \"#utility.yul\":4803:4829   */\n  mload\n    /* \"#utility.yul\":4861:4909   */\n  tag_104\n    /* \"#utility.yul\":4903:4907   */\n  0x1f\n    /* \"#utility.yul\":4895:4901   */\n  dup10\n    /* \"#utility.yul\":4891:4908   */\n  and\n    /* \"#utility.yul\":4880:4889   */\n  dup3\n    /* \"#utility.yul\":4861:4909   */\n  tag_31\n  jump\t// in\ntag_104:\n    /* \"#utility.yul\":4853:4859   */\n  dup4\n    /* \"#utility.yul\":4846:4910   */\n  sstore\n    /* \"#utility.yul\":4768:4924   */\n  pop\n    /* \"#utility.yul\":4745:4924   */\ntag_103:\n    /* \"#utility.yul\":4970:4971   */\n  0x01\n    /* \"#utility.yul\":4966:4967   */\n  0x02\n    /* \"#utility.yul\":4958:4964   */\n  dup9\n    /* \"#utility.yul\":4954:4968   */\n  mul\n    /* \"#utility.yul\":4950:4972   */\n  add\n    /* \"#utility.yul\":4944:4948   */\n  dup9\n    /* \"#utility.yul\":4937:4973   */\n  sstore\n    /* \"#utility.yul\":4372:4983   */\n  pop\n  pop\n  pop\n    /* \"#utility.yul\":4335:5222   */\ntag_95:\n  pop\n    /* \"#utility.yul\":3925:5228   */\n  pop\n  pop\n  pop\n    /* \"#utility.yul\":3833:5228   */\n  pop\n  pop\n  jump\t// out\n    /* \"#utility.yul\":5315:5432   */\ntag_34:\n    /* \"#utility.yul\":5424:5425   */\n  0x00\n    /* \"#utility.yul\":5421:5422   */\n  0x00\n    /* \"#utility.yul\":5414:5426   */\n  revert\n    /* \"#utility.yul\":5561:5687   */\ntag_36:\n    /* \"#utility.yul\":5598:5605   */\n  0x00\n    /* \"#utility.yul\":5638:5680   */\n  0xffffffffffffffffffffffffffffffffffffffff\n    /* \"#utility.yul\":5631:5636   */\n  dup3\n    /* \"#utility.yul\":5627:5681   */\n  and\n    /* \"#utility.yul\":5616:5681   */\n  swap1\n  pop\n    /* \"#utility.yul\":5561:5687   */\n  swap2\n  swap1\n  pop\n  jump\t// out\n    /* \"#utility.yul\":5693:5789   */\ntag_37:\n    /* \"#utility.yul\":5730:5737   */\n  0x00\n    /* \"#utility.yul\":5759:5783   */\n  tag_110\n    /* \"#utility.yul\":5777:5782   */\n  dup3\n    /* \"#utility.yul\":5759:5783   */\n  tag_36\n  jump\t// in\ntag_110:\n    /* \"#utility.yul\":5748:5783   */\n  swap1\n  pop\n    /* \"#utility.yul\":5693:5789   */\n  swap2\n  swap1\n  pop\n  jump\t// out\n    /* \"#utility.yul\":5795:5917   */\ntag_38:\n    /* \"#utility.yul\":5868:5892   */\n  tag_112\n    /* \"#utility.yul\":5886:5891   */\n  dup2\n    /* \"#utility.yul\":5868:5892   */\n  tag_37\n  jump\t// in\ntag_112:\n    /* \"#utility.yul\":5861:5866   */\n  dup2\n    /* \"#utility.yul\":5858:5893   */\n  eq\n    /* \"#utility.yul\":5848:5911   */\n  tag_113\n  jumpi\n    /* \"#utility.yul\":5907:5908   */\n  0x00\n    /* \"#utility.yul\":5904:5905   */\n  0x00\n    /* \"#utility.yul\":5897:5909   */\n  revert\n    /* \"#utility.yul\":5848:5911   */\ntag_113:\n    /* \"#utility.yul\":5795:5917   */\n  pop\n  jump\t// out\n    /* \"#utility.yul\":5923:6066   */\ntag_39:\n    /* \"#utility.yul\":5980:5985   */\n  0x00\n    /* \"#utility.yul\":6011:6017   */\n  dup2\n    /* \"#utility.yul\":6005:6018   */\n  mload\n    /* \"#utility.yul\":5996:6018   */\n  swap1\n  pop\n    /* \"#utility.yul\":6027:6060   */\n  tag_115\n    /* \"#utility.yul\":6054:6059   */\n  dup2\n    /* \"#utility.yul\":6027:6060   */\n  tag_38\n  jump\t// in\ntag_115:\n    /* \"#utility.yul\":5923:6066   */\n  swap3\n  swap2\n  pop\n  pop\n  jump\t// out\n    /* \"#utility.yul\":6072:6423   */\ntag_6:\n    /* \"#utility.yul\":6142:6148   */\n  0x00\n    /* \"#utility.yul\":6191:6193   */\n  0x20\n    /* \"#utility.yul\":6179:6188   */\n  dup3\n    /* \"#utility.yul\":6170:6177   */\n  dup5\n    /* \"#utility.yul\":6166:6189   */\n  sub\n    /* \"#utility.yul\":6162:6194   */\n  slt\n    /* \"#utility.yul\":6159:6278   */\n  iszero\n  tag_117\n  jumpi\n    /* \"#utility.yul\":6197:6276   */\n  tag_118\n  tag_34\n  jump\t// in\ntag_118:\n    /* \"#utility.yul\":6159:6278   */\ntag_117:\n    /* \"#utility.yul\":6317:6318   */\n  0x00\n    /* \"#utility.yul\":6342:6406   */\n  tag_119\n    /* \"#utility.yul\":6398:6405   */\n  dup5\n    /* \"#utility.yul\":6389:6395   */\n  dup3\n    /* \"#utility.yul\":6378:6387   */\n  dup6\n    /* \"#utility.yul\":6374:6396   */\n  add\n    /* \"#utility.yul\":6342:6406   */\n  tag_39\n  jump\t// in\ntag_119:\n    /* \"#utility.yul\":6332:6406   */\n  swap2\n  pop\n    /* \"#utility.yul\":6288:6416   */\n  pop\n    /* \"#utility.yul\":6072:6423   */\n  swap3\n  swap2\n  pop\n  pop\n  jump\t// out\n    /* \"#utility.yul\":6429:6598   */\ntag_40:\n    /* \"#utility.yul\":6513:6524   */\n  0x00\n    /* \"#utility.yul\":6547:6553   */\n  dup3\n    /* \"#utility.yul\":6542:6545   */\n  dup3\n    /* \"#utility.yul\":6535:6554   */\n  mstore\n    /* \"#utility.yul\":6587:6591   */\n  0x20\n    /* \"#utility.yul\":6582:6585   */\n  dup3\n    /* \"#utility.yul\":6578:6592   */\n  add\n    /* \"#utility.yul\":6563:6592   */\n  swap1\n  pop\n    /* \"#utility.yul\":6429:6598   */\n  swap3\n  swap2\n  pop\n  pop\n  jump\t// out\n    /* \"#utility.yul\":6604:6771   */\ntag_41:\n    /* \"#utility.yul\":6744:6763   */\n  0x7265676973747279207265717569726564000000000000000000000000000000\n    /* \"#utility.yul\":6740:6741   */\n  0x00\n    /* \"#utility.yul\":6732:6738   */\n  dup3\n    /* \"#utility.yul\":6728:6742   */\n  add\n    /* \"#utility.yul\":6721:6764   */\n  mstore\n    /* \"#utility.yul\":6604:6771   */\n  pop\n  jump\t// out\n    /* \"#utility.yul\":6777:7143   */\ntag_42:\n    /* \"#utility.yul\":6919:6922   */\n  0x00\n    /* \"#utility.yul\":6940:7007   */\n  tag_123\n    /* \"#utility.yul\":7004:7006   */\n  0x11\n    /* \"#utility.yul\":6999:7002   */\n  dup4\n    /* \"#utility.yul\":6940:7007   */\n  tag_40\n  jump\t// in\ntag_123:\n    /* \"#utility.yul\":6933:7007   */\n  swap2\n  pop\n    /* \"#utility.yul\":7016:7109   */\n  tag_124\n    /* \"#utility.yul\":7105:7108   */\n  dup3\n    /* \"#utility.yul\":7016:7109   */\n  tag_41\n  jump\t// in\ntag_124:\n    /* \"#utility.yul\":7134:7136   */\n  0x20\n    /* \"#utility.yul\":7129:7132   */\n  dup3\n    /* \"#utility.yul\":7125:7137   */\n  add\n    /* \"#utility.yul\":7118:7137   */\n  swap1\n  pop\n    /* \"#utility.yul\":6777:7143   */\n  swap2\n  swap1\n  pop\n  jump\t// out\n    /* \"#utility.yul\":7149:7568   */\ntag_11:\n    /* \"#utility.yul\":7315:7319   */\n  0x00\n    /* \"#utility.yul\":7353:7355   */\n  0x20\n    /* \"#utility.yul\":7342:7351   */\n  dup3\n    /* \"#utility.yul\":7338:7356   */\n  add\n    /* \"#utility.yul\":7330:7356   */\n  swap1\n  pop\n    /* \"#utility.yul\":7402:7411   */\n  dup2\n    /* \"#utility.yul\":7396:7400   */\n  dup2\n    /* \"#utility.yul\":7392:7412   */\n  sub\n    /* \"#utility.yul\":7388:7389   */\n  0x00\n    /* \"#utility.yul\":7377:7386   */\n  dup4\n    /* \"#utility.yul\":7373:7390   */\n  add\n    /* \"#utility.yul\":7366:7413   */\n  mstore\n    /* \"#utility.yul\":7430:7561   */\n  tag_126\n    /* \"#utility.yul\":7556:7560   */\n  dup2\n    /* \"#utility.yul\":7430:7561   */\n  tag_42\n  jump\t// in\ntag_126:\n    /* \"#utility.yul\":7422:7561   */\n  swap1\n  pop\n    /* \"#utility.yul\":7149:7568   */\n  swap2\n  swap1\n  pop\n  jump\t// out\n    /* \"backend/contracts/CarbonCreditToken.sol\":408:7565  contract CarbonCreditToken {... */\ntag_12:\n  mload(0x80)\n  codecopy(0x00, dataOffset(sub_0), dataSize(sub_0))\n  0x00\n  assignImmutable(\"0xcdbc23227c72e0a3f4683bdbccfcbed38047ca1a70d48b78c210dc5393029019\")\n  return(0x00, dataSize(sub_0))\nstop\n\nsub_0: assembly {\n        /* \"backend/contracts/CarbonCreditToken.sol\":408:7565  contract CarbonCreditToken {... */\n      mstore(0x40, 0x80)\n      callvalue\n      dup1\n      iszero\n      tag_1\n      jumpi\n      revert(0x00, 0x00)\n    tag_1:\n      pop\n      jumpi(tag_2, lt(calldatasize, 0x04))\n      shr(0xe0, calldataload(0x00))\n      dup1\n      0x812da1e2\n      gt\n      tag_20\n      jumpi\n      dup1\n      0xa9059cbb\n      gt\n      tag_21\n      jumpi\n      dup1\n      0xa9059cbb\n      eq\n      tag_15\n      jumpi\n      dup1\n      0xdd62ed3e\n      eq\n      tag_16\n      jumpi\n      dup1\n      0xe8accb5b\n      eq\n      tag_17\n      jumpi\n      dup1\n      0xeb6f0c93\n      eq\n      tag_18\n      jumpi\n      dup1\n      0xf2fde38b\n      eq\n      tag_19\n      jumpi\n      jump(tag_2)\n    tag_21:\n      dup1\n      0x812da1e2\n      eq\n      tag_11\n      jumpi\n      dup1\n      0x88fcda39\n      eq\n      tag_12\n      jumpi\n      dup1\n      0x8da5cb5b\n      eq\n      tag_13\n      jumpi\n      dup1\n      0x95d89b41\n      eq\n      tag_14\n      jumpi\n      jump(tag_2)\n    tag_20:\n      dup1\n      0x23b872dd\n      gt\n      tag_22\n      jumpi\n      dup1\n      0x23b872dd\n      eq\n      tag_7\n      jumpi\n      dup1\n      0x313ce567\n      eq\n      tag_8\n      jumpi\n      dup1\n      0x70a08231\n      eq\n      tag_9\n      jumpi\n      dup1\n      0x7b103999\n      eq\n      tag_10\n      jumpi\n      jump(tag_2)\n    tag_22:\n      dup1\n      0x06fdde03\n      eq\n      tag_3\n      jumpi\n      dup1\n      0x095ea7b3\n      eq\n      tag_4\n      jumpi\n      dup1\n      0x1344f9b4\n      eq\n      tag_5\n      jumpi\n      dup1\n      0x18160ddd\n      eq\n      tag_6\n      jumpi\n    tag_2:\n      revert(0x00, 0x00)\n        /* \"backend/contracts/CarbonCreditToken.sol\":511:551  string public name = \"CarbonCreditToken\" */\n    tag_3:\n      tag_23\n      tag_24\n      jump\t// in\n    tag_23:\n      mload(0x40)\n      tag_25\n      swap2\n      swap1\n      tag_26\n      jump\t// in\n    tag_25:\n      mload(0x40)\n      dup1\n      swap2\n      sub\n      swap1\n      return\n        /* \"backend/contracts/CarbonCreditToken.sol\":3354:3557  function approve(address spender, uint256 amount) external returns (bool) {... */\n    tag_4:\n      tag_27\n      0x04\n      dup1\n      calldatasize\n      sub\n      dup2\n      add\n      swap1\n      tag_28\n      swap2\n      swap1\n      tag_29\n      jump\t// in\n    tag_28:\n      tag_30\n      jump\t// in\n    tag_27:\n      mload(0x40)\n      tag_31\n      swap2\n      swap1\n      tag_32\n      jump\t// in\n    tag_31:\n      mload(0x40)\n      dup1\n      swap2\n      sub\n      swap1\n      return\n        /* \"backend/contracts/CarbonCreditToken.sol\":1738:1796  mapping(address => EmissionBatch[]) public emissionHistory */\n    tag_5:\n      tag_33\n      0x04\n      dup1\n      calldatasize\n      sub\n      dup2\n      add\n      swap1\n      tag_34\n      swap2\n      swap1\n      tag_29\n      jump\t// in\n    tag_34:\n      tag_35\n      jump\t// in\n    tag_33:\n      mload(0x40)\n      tag_36\n      swap10\n      swap9\n      swap8\n      swap7\n      swap6\n      swap5\n      swap4\n      swap3\n      swap2\n      swap1\n      tag_37\n      jump\t// in\n    tag_36:\n      mload(0x40)\n      dup1\n      swap2\n      sub\n      swap1\n      return\n        /* \"backend/contracts/CarbonCreditToken.sol\":632:658  uint256 public totalSupply */\n    tag_6:\n      tag_38\n      tag_39\n      jump\t// in\n    tag_38:\n      mload(0x40)\n      tag_40\n      swap2\n      swap1\n      tag_41\n      jump\t// in\n    tag_40:\n      mload(0x40)\n      dup1\n      swap2\n      sub\n      swap1\n      return\n        /* \"backend/contracts/CarbonCreditToken.sol\":3563:3942  function transferFrom(address from, address to, uint256 amount) external returns (bool) {... */\n    tag_7:\n      tag_42\n      0x04\n      dup1\n      calldatasize\n      sub\n      dup2\n      add\n      swap1\n      tag_43\n      swap2\n      swap1\n      tag_44\n      jump\t// in\n    tag_43:\n      tag_45\n      jump\t// in\n    tag_42:\n      mload(0x40)\n      tag_46\n      swap2\n      swap1\n      tag_32\n      jump\t// in\n    tag_46:\n      mload(0x40)\n      dup1\n      swap2\n      sub\n      swap1\n      return\n        /* \"backend/contracts/CarbonCreditToken.sol\":591:625  uint8 public constant decimals = 0 */\n    tag_8:\n      tag_47\n      tag_48\n      jump\t// in\n    tag_47:\n      mload(0x40)\n      tag_49\n      swap2\n      swap1\n      tag_50\n      jump\t// in\n    tag_49:\n      mload(0x40)\n      dup1\n      swap2\n      sub\n      swap1\n      return\n        /* \"backend/contracts/CarbonCreditToken.sol\":664:708  mapping(address => uint256) public balanceOf */\n    tag_9:\n      tag_51\n      0x04\n      dup1\n      calldatasize\n      sub\n      dup2\n      add\n      swap1\n      tag_52\n      swap2\n      swap1\n      tag_53\n      jump\t// in\n    tag_52:\n      tag_54\n      jump\t// in\n    tag_51:\n      mload(0x40)\n      tag_55\n      swap2\n      swap1\n      tag_41\n      jump\t// in\n    tag_55:\n      mload(0x40)\n      dup1\n      swap2\n      sub\n      swap1\n      return\n        /* \"backend/contracts/CarbonCreditToken.sol\":1216:1258  ICompanyRegistry public immutable registry */\n    tag_10:\n      tag_56\n      tag_57\n      jump\t// in\n    tag_56:\n      mload(0x40)\n      tag_58\n      swap2\n      swap1\n      tag_59\n      jump\t// in\n    tag_58:\n      mload(0x40)\n      dup1\n      swap2\n      sub\n      swap1\n      return\n        /* \"backend/contracts/CarbonCreditToken.sol\":4882:7149  function submitBatch(... */\n    tag_11:\n      tag_60\n      0x04\n      dup1\n      calldatasize\n      sub\n      dup2\n      add\n      swap1\n      tag_61\n      swap2\n      swap1\n      tag_62\n      jump\t// in\n    tag_61:\n      tag_63\n      jump\t// in\n    tag_60:\n      stop\n        /* \"backend/contracts/CarbonCreditToken.sol\":1304:1352  mapping(bytes32 => bool) public processedBatches */\n    tag_12:\n      tag_64\n      0x04\n      dup1\n      calldatasize\n      sub\n      dup2\n      add\n      swap1\n      tag_65\n      swap2\n      swap1\n      tag_66\n      jump\t// in\n    tag_65:\n      tag_67\n      jump\t// in\n    tag_64:\n      mload(0x40)\n      tag_68\n      swap2\n      swap1\n      tag_32\n      jump\t// in\n    tag_68:\n      mload(0x40)\n      dup1\n      swap2\n      sub\n      swap1\n      return\n        /* \"backend/contracts/CarbonCreditToken.sol\":971:991  address public owner */\n    tag_13:\n      tag_69\n      tag_70\n      jump\t// in\n    tag_69:\n      mload(0x40)\n      tag_71\n      swap2\n      swap1\n      tag_72\n      jump\t// in\n    tag_71:\n      mload(0x40)\n      dup1\n      swap2\n      sub\n      swap1\n      return\n        /* \"backend/contracts/CarbonCreditToken.sol\":557:585  string public symbol = \"CCT\" */\n    tag_14:\n      tag_73\n      tag_74\n      jump\t// in\n    tag_73:\n      mload(0x40)\n      tag_75\n      swap2\n      swap1\n      tag_26\n      jump\t// in\n    tag_75:\n      mload(0x40)\n      dup1\n      swap2\n      sub\n      swap1\n      return\n        /* \"backend/contracts/CarbonCreditToken.sol\":3207:3348  function transfer(address to, uint256 amount) external returns (bool) {... */\n    tag_15:\n      tag_76\n      0x04\n      dup1\n      calldatasize\n      sub\n      dup2\n      add\n      swap1\n      tag_77\n      swap2\n      swap1\n      tag_29\n      jump\t// in\n    tag_77:\n      tag_78\n      jump\t// in\n    tag_76:\n      mload(0x40)\n      tag_79\n      swap2\n      swap1\n      tag_32\n      jump\t// in\n    tag_79:\n      mload(0x40)\n      dup1\n      swap2\n      sub\n      swap1\n      return\n        /* \"backend/contracts/CarbonCreditToken.sol\":714:778  mapping(address => mapping(address => uint256)) public allowance */\n    tag_16:\n      tag_80\n      0x04\n      dup1\n      calldatasize\n      sub\n      dup2\n      add\n      swap1\n      tag_81\n      swap2\n      swap1\n      tag_82\n      jump\t// in\n    tag_81:\n      tag_83\n      jump\t// in\n    tag_80:\n      mload(0x40)\n      tag_84\n      swap2\n      swap1\n      tag_41\n      jump\t// in\n    tag_84:\n      mload(0x40)\n      dup1\n      swap2\n      sub\n      swap1\n      return\n        /* \"backend/contracts/CarbonCreditToken.sol\":7183:7318  function emissionHistoryLength(address company) external view returns (uint256) {... */\n    tag_17:\n      tag_85\n      0x04\n      dup1\n      calldatasize\n      sub\n      dup2\n      add\n      swap1\n      tag_86\n      swap2\n      swap1\n      tag_53\n      jump\t// in\n    tag_86:\n      tag_87\n      jump\t// in\n    tag_85:\n      mload(0x40)\n      tag_88\n      swap2\n      swap1\n      tag_41\n      jump\t// in\n    tag_88:\n      mload(0x40)\n      dup1\n      swap2\n      sub\n      swap1\n      return\n        /* \"backend/contracts/CarbonCreditToken.sol\":7324:7563  function getEmissionBatch(address company, uint256 index) external view returns (EmissionBatch memory) {... */\n    tag_18:\n      tag_89\n      0x04\n      dup1\n      calldatasize\n      sub\n      dup2\n      add\n      swap1\n      tag_90\n      swap2\n      swap1\n      tag_29\n      jump\t// in\n    tag_90:\n      tag_91\n      jump\t// in\n    tag_89:\n      mload(0x40)\n      tag_92\n      swap2\n      swap1\n      tag_93\n      jump\t// in\n    tag_92:\n      mload(0x40)\n      dup1\n      swap2\n      sub\n      swap1\n      return\n        /* \"backend/contracts/CarbonCreditToken.sol\":2587:2791  function transferOwnership(address newOwner) external onlyOwner {... */\n    tag_19:\n      tag_94\n      0x04\n      dup1\n      calldatasize\n      sub\n      dup2\n      add\n      swap1\n      tag_95\n      swap2\n      swap1\n      tag_53\n      jump\t// in\n    tag_95:\n      tag_96\n      jump\t// in\n    tag_94:\n      stop\n        /* \"backend/contracts/CarbonCreditToken.sol\":511:551  string public name = \"CarbonCreditToken\" */\n    tag_24:\n      0x00\n      dup1\n      sload\n      tag_97\n      swap1\n      tag_98\n      jump\t// in\n    tag_97:\n      dup1\n      0x1f\n      add\n      0x20\n      dup1\n      swap2\n      div\n      mul\n      0x20\n      add\n      mload(0x40)\n      swap1\n      dup2\n      add\n      0x40\n      mstore\n      dup1\n      swap3\n      swap2\n      swap1\n      dup2\n      dup2\n      mstore\n      0x20\n      add\n      dup3\n      dup1\n      sload\n      tag_99\n      swap1\n      tag_98\n      jump\t// in\n    tag_99:\n      dup1\n      iszero\n      tag_100\n      jumpi\n      dup1\n      0x1f\n      lt\n      tag_101\n      jumpi\n      0x0100\n      dup1\n      dup4\n      sload\n      div\n      mul\n      dup4\n      mstore\n      swap2\n      0x20\n      add\n      swap2\n      jump(tag_100)\n    tag_101:\n      dup3\n      add\n      swap2\n      swap1\n      0x00\n      mstore\n      keccak256(0x00, 0x20)\n      swap1\n    tag_102:\n      dup2\n      sload\n      dup2\n      mstore\n      swap1\n      0x01\n      add\n      swap1\n      0x20\n      add\n      dup1\n      dup4\n      gt\n      tag_102\n      jumpi\n      dup3\n      swap1\n      sub\n      0x1f\n      and\n      dup3\n      add\n      swap2\n    tag_100:\n      pop\n      pop\n      pop\n      pop\n      pop\n      dup2\n      jump\t// out\n        /* \"backend/contracts/CarbonCreditToken.sol\":3354:3557  function approve(address spender, uint256 amount) external returns (bool) {... */\n    tag_30:\n        /* \"backend/contracts/CarbonCreditToken.sol\":3422:3426  bool */\n      0x00\n        /* \"backend/contracts/CarbonCreditToken.sol\":3471:3477  amount */\n      dup2\n        /* \"backend/contracts/CarbonCreditToken.sol\":3438:3447  allowance */\n      0x04\n        /* \"backend/contracts/CarbonCreditToken.sol\":3438:3459  allowance[msg.sender] */\n      0x00\n        /* \"backend/contracts/CarbonCreditToken.sol\":3448:3458  msg.sender */\n      caller\n        /* \"backend/contracts/CarbonCreditToken.sol\":3438:3459  allowance[msg.sender] */\n      0xffffffffffffffffffffffffffffffffffffffff\n      and\n      0xffffffffffffffffffffffffffffffffffffffff\n      and\n      dup2\n      mstore\n      0x20\n      add\n      swap1\n      dup2\n      mstore\n      0x20\n      add\n      0x00\n      keccak256\n        /* \"backend/contracts/CarbonCreditToken.sol\":3438:3468  allowance[msg.sender][spender] */\n      0x00\n        /* \"backend/contracts/CarbonCreditToken.sol\":3460:3467  spender */\n      dup6\n        /* \"backend/contracts/CarbonCreditToken.sol\":3438:3468  allowance[msg.sender][spender] */\n      0xffffffffffffffffffffffffffffffffffffffff\n      and\n      0xffffffffffffffffffffffffffffffffffffffff\n      and\n      dup2\n      mstore\n      0x20\n      add\n      swap1\n      dup2\n      mstore\n      0x20\n      add\n      0x00\n      keccak256\n        /* \"backend/contracts/CarbonCreditToken.sol\":3438:3477  allowance[msg.sender][spender] = amount */\n      dup2\n      swap1\n      sstore\n      pop\n        /* \"backend/contracts/CarbonCreditToken.sol\":3513:3520  spender */\n      dup3\n        /* \"backend/contracts/CarbonCreditToken.sol\":3492:3529  Approval(msg.sender, spender, amount) */\n      0xffffffffffffffffffffffffffffffffffffffff\n      and\n        /* \"backend/contracts/CarbonCreditToken.sol\":3501:3511  msg.sender */\n      caller\n        /* \"backend/contracts/CarbonCreditToken.sol\":3492:3529  Approval(msg.sender, spender, amount) */\n      0xffffffffffffffffffffffffffffffffffffffff\n      and\n      0x8c5be1e5ebec7d5bd14f71427d1e84f3dd0314c0f7b2291e5b200ac8c7c3b925\n        /* \"backend/contracts/CarbonCreditToken.sol\":3522:3528  amount */\n      dup5\n        /* \"backend/contracts/CarbonCreditToken.sol\":3492:3529  Approval(msg.sender, spender, amount) */\n      mload(0x40)\n      tag_104\n      swap2\n      swap1\n      tag_41\n      jump\t// in\n    tag_104:\n      mload(0x40)\n      dup1\n      swap2\n      sub\n      swap1\n      log3\n        /* \"backend/contracts/CarbonCreditToken.sol\":3546:3550  true */\n      0x01\n        /* \"backend/contracts/CarbonCreditToken.sol\":3539:3550  return true */\n      swap1\n      pop\n        /* \"backend/contracts/CarbonCreditToken.sol\":3354:3557  function approve(address spender, uint256 amount) external returns (bool) {... */\n      swap3\n      swap2\n      pop\n      pop\n      jump\t// out\n        /* \"backend/contracts/CarbonCreditToken.sol\":1738:1796  mapping(address => EmissionBatch[]) public emissionHistory */\n    tag_35:\n      mstore(0x20, 0x07)\n      dup2\n      0x00\n      mstore\n      keccak256(0x00, 0x40)\n      dup2\n      dup2\n      sload\n      dup2\n      lt\n      tag_105\n      jumpi\n      0x00\n      dup1\n      revert\n    tag_105:\n      swap1\n      0x00\n      mstore\n      keccak256(0x00, 0x20)\n      swap1\n      0x09\n      mul\n      add\n      0x00\n      swap2\n      pop\n      swap2\n      pop\n      pop\n      dup1\n      0x00\n      add\n      sload\n      swap1\n      dup1\n      0x01\n      add\n      sload\n      swap1\n      dup1\n      0x02\n      add\n      sload\n      swap1\n      dup1\n      0x03\n      add\n      sload\n      swap1\n      dup1\n      0x04\n      add\n      sload\n      swap1\n      dup1\n      0x05\n      add\n      sload\n      swap1\n      dup1\n      0x06\n      add\n      sload\n      swap1\n      dup1\n      0x07\n      add\n      sload\n      swap1\n      dup1\n      0x08\n      add\n      sload\n      swap1\n      pop\n      dup10\n      jump\t// out\n        /* \"backend/contracts/CarbonCreditToken.sol\":632:658  uint256 public totalSupply */\n    tag_39:\n      sload(0x02)\n      dup2\n      jump\t// out\n        /* \"backend/contracts/CarbonCreditToken.sol\":3563:3942  function transferFrom(address from, address to, uint256 amount) external returns (bool) {... */\n    tag_45:\n        /* \"backend/contracts/CarbonCreditToken.sol\":3645:3649  bool */\n      0x00\n        /* \"backend/contracts/CarbonCreditToken.sol\":3661:3676  uint256 allowed */\n      0x00\n        /* \"backend/contracts/CarbonCreditToken.sol\":3679:3688  allowance */\n      0x04\n        /* \"backend/contracts/CarbonCreditToken.sol\":3679:3694  allowance[from] */\n      0x00\n        /* \"backend/contracts/CarbonCreditToken.sol\":3689:3693  from */\n      dup7\n        /* \"backend/contracts/CarbonCreditToken.sol\":3679:3694  allowance[from] */\n      0xffffffffffffffffffffffffffffffffffffffff\n      and\n      0xffffffffffffffffffffffffffffffffffffffff\n      and\n      dup2\n      mstore\n      0x20\n      add\n      swap1\n      dup2\n      mstore\n      0x20\n      add\n      0x00\n      keccak256\n        /* \"backend/contracts/CarbonCreditToken.sol\":3679:3706  allowance[from][msg.sender] */\n      0x00\n        /* \"backend/contracts/CarbonCreditToken.sol\":3695:3705  msg.sender */\n      caller\n        /* \"backend/contracts/CarbonCreditToken.sol\":3679:3706  allowance[from][msg.sender] */\n      0xffffffffffffffffffffffffffffffffffffffff\n      and\n      0xffffffffffffffffffffffffffffffffffffffff\n      and\n      dup2\n      mstore\n      0x20\n      add\n      swap1\n      dup2\n      mstore\n      0x20\n      add\n      0x00\n      keccak256\n      sload\n        /* \"backend/contracts/CarbonCreditToken.sol\":3661:3706  uint256 allowed = allowance[from][msg.sender] */\n      swap1\n      pop\n        /* \"backend/contracts/CarbonCreditToken.sol\":3735:3741  amount */\n      dup3\n        /* \"backend/contracts/CarbonCreditToken.sol\":3724:3731  allowed */\n      dup2\n        /* \"backend/contracts/CarbonCreditToken.sol\":3724:3741  allowed >= amount */\n      lt\n      iszero\n        /* \"backend/contracts/CarbonCreditToken.sol\":3716:3763  require(allowed >= amount, \"Allowance too low\") */\n      tag_108\n      jumpi\n      mload(0x40)\n      0x08c379a000000000000000000000000000000000000000000000000000000000\n      dup2\n      mstore\n      0x04\n      add\n      tag_109\n      swap1\n      tag_110\n      jump\t// in\n    tag_109:\n      mload(0x40)\n      dup1\n      swap2\n      sub\n      swap1\n      revert\n    tag_108:\n        /* \"backend/contracts/CarbonCreditToken.sol\":3788:3805  type(uint256).max */\n      0xffffffffffffffffffffffffffffffffffffffffffffffffffffffffffffffff\n        /* \"backend/contracts/CarbonCreditToken.sol\":3777:3784  allowed */\n      dup2\n        /* \"backend/contracts/CarbonCreditToken.sol\":3777:3805  allowed != type(uint256).max */\n      eq\n        /* \"backend/contracts/CarbonCreditToken.sol\":3773:3878  if (allowed != type(uint256).max) {... */\n      tag_111\n      jumpi\n        /* \"backend/contracts/CarbonCreditToken.sol\":3861:3867  amount */\n      dup3\n        /* \"backend/contracts/CarbonCreditToken.sol\":3851:3858  allowed */\n      dup2\n        /* \"backend/contracts/CarbonCreditToken.sol\":3851:3867  allowed - amount */\n      tag_112\n      swap2\n      swap1\n      tag_113\n      jump\t// in\n    tag_112:\n        /* \"backend/contracts/CarbonCreditToken.sol\":3821:3830  allowance */\n      0x04\n        /* \"backend/contracts/CarbonCreditToken.sol\":3821:3836  allowance[from] */\n      0x00\n        /* \"backend/contracts/CarbonCreditToken.sol\":3831:3835  from */\n      dup8\n        /* \"backend/contracts/CarbonCreditToken.sol\":3821:3836  allowance[from] */\n      0xffffffffffffffffffffffffffffffffffffffff\n      and\n      0xffffffffffffffffffffffffffffffffffffffff\n      and\n      dup2\n      mstore\n      0x20\n      add\n      swap1\n      dup2\n      mstore\n      0x20\n      add\n      0x00\n      keccak256\n        /* \"backend/contracts/CarbonCreditToken.sol\":3821:3848  allowance[from][msg.sender] */\n      0x00\n        /* \"backend/contracts/CarbonCreditToken.sol\":3837:3847  msg.sender */\n      caller\n        /* \"backend/contracts/CarbonCreditToken.sol\":3821:3848  allowance[from][msg.sender] */\n      0xffffffffffffffffffffffffffffffffffffffff\n      and\n      0xffffffffffffffffffffffffffffffffffffffff\n      and\n      dup2\n      mstore\n      0x20\n      add\n      swap1\n      dup2\n      mstore\n      0x20\n      add\n      0x00\n      keccak256\n        /* \"backend/contracts/CarbonCreditToken.sol\":3821:3867  allowance[from][msg.sender] = allowed - amount */\n      dup2\n      swap1\n      sstore\n      pop\n        /* \"backend/contracts/CarbonCreditToken.sol\":3773:3878  if (allowed != type(uint256).max) {... */\n    tag_111:\n        /* \"backend/contracts/CarbonCreditToken.sol\":3887:3914  _transfer(from, to, amount) */\n      tag_114\n        /* \"backend/contracts/CarbonCreditToken.sol\":3897:3901  from */\n      dup6\n        /* \"backend/contracts/CarbonCreditToken.sol\":3903:3905  to */\n      dup6\n        /* \"backend/contracts/CarbonCreditToken.sol\":3907:3913  amount */\n      dup6\n        /* \"backend/contracts/CarbonCreditToken.sol\":3887:3896  _transfer */\n      tag_115\n        /* \"backend/contracts/CarbonCreditToken.sol\":3887:3914  _transfer(from, to, amount) */\n      jump\t// in\n    tag_114:\n        /* \"backend/contracts/CarbonCreditToken.sol\":3931:3935  true */\n      0x01\n        /* \"backend/contracts/CarbonCreditToken.sol\":3924:3935  return true */\n      swap2\n      pop\n      pop\n        /* \"backend/contracts/CarbonCreditToken.sol\":3563:3942  function transferFrom(address from, address to, uint256 amount) external returns (bool) {... */\n      swap4\n      swap3\n      pop\n      pop\n      pop\n      jump\t// out\n        /* \"backend/contracts/CarbonCreditToken.sol\":591:625  uint8 public constant decimals = 0 */\n    tag_48:\n        /* \"backend/contracts/CarbonCreditToken.sol\":624:625  0 */\n      0x00\n        /* \"backend/contracts/CarbonCreditToken.sol\":591:625  uint8 public constant decimals = 0 */\n      dup2\n      jump\t// out\n        /* \"backend/contracts/CarbonCreditToken.sol\":664:708  mapping(address => uint256) public balanceOf */\n    tag_54:\n      mstore(0x20, 0x03)\n      dup1\n      0x00\n      mstore\n      keccak256(0x00, 0x40)\n      0x00\n      swap2\n      pop\n      swap1\n      pop\n      sload\n      dup2\n      jump\t// out\n        /* \"backend/contracts/CarbonCreditToken.sol\":1216:1258  ICompanyRegistry public immutable registry */\n    tag_57:\n      immutable(\"0xcdbc23227c72e0a3f4683bdbccfcbed38047ca1a70d48b78c210dc5393029019\")\n      dup2\n      jump\t// out\n        /* \"backend/contracts/CarbonCreditToken.sol\":4882:7149  function submitBatch(... */\n    tag_63:\n        /* \"backend/contracts/CarbonCreditToken.sol\":1140:1145  owner */\n      0x05\n      0x00\n      swap1\n      sload\n      swap1\n      0x0100\n      exp\n      swap1\n      div\n      0xffffffffffffffffffffffffffffffffffffffff\n      and\n        /* \"backend/contracts/CarbonCreditToken.sol\":1126:1145  msg.sender == owner */\n      0xffffffffffffffffffffffffffffffffffffffff\n      and\n        /* \"backend/contracts/CarbonCreditToken.sol\":1126:1136  msg.sender */\n      caller\n        /* \"backend/contracts/CarbonCreditToken.sol\":1126:1145  msg.sender == owner */\n      0xffffffffffffffffffffffffffffffffffffffff\n      and\n      eq\n        /* \"backend/contracts/CarbonCreditToken.sol\":1118:1159  require(msg.sender == owner, \"Not owner\") */\n      tag_117\n      jumpi\n      mload(0x40)\n      0x08c379a000000000000000000000000000000000000000000000000000000000\n      dup2\n      mstore\n      0x04\n      add\n      tag_118\n      swap1\n      tag_119\n      jump\t// in\n    tag_118:\n      mload(0x40)\n      dup1\n      swap2\n      sub\n      swap1\n      revert\n    tag_117:\n        /* \"backend/contracts/CarbonCreditToken.sol\":5114:5130  processedBatches */\n      0x06\n        /* \"backend/contracts/CarbonCreditToken.sol\":5114:5139  processedBatches[batchId] */\n      0x00\n        /* \"backend/contracts/CarbonCreditToken.sol\":5131:5138  batchId */\n      dup3\n        /* \"backend/contracts/CarbonCreditToken.sol\":5114:5139  processedBatches[batchId] */\n      dup2\n      mstore\n      0x20\n      add\n      swap1\n      dup2\n      mstore\n      0x20\n      add\n      0x00\n      keccak256\n      0x00\n      swap1\n      sload\n      swap1\n      0x0100\n      exp\n      swap1\n      div\n      0xff\n      and\n        /* \"backend/contracts/CarbonCreditToken.sol\":5113:5139  !processedBatches[batchId] */\n      iszero\n        /* \"backend/contracts/CarbonCreditToken.sol\":5105:5167  require(!processedBatches[batchId], \"Batch already processed\") */\n      tag_121\n      jumpi\n      mload(0x40)\n      0x08c379a000000000000000000000000000000000000000000000000000000000\n      dup2\n      mstore\n      0x04\n      add\n      tag_122\n      swap1\n      tag_123\n      jump\t// in\n    tag_122:\n      mload(0x40)\n      dup1\n      swap2\n      sub\n      swap1\n      revert\n    tag_121:\n        /* \"backend/contracts/CarbonCreditToken.sol\":5205:5209  true */\n      0x01\n        /* \"backend/contracts/CarbonCreditToken.sol\":5177:5193  processedBatches */\n      0x06\n        /* \"backend/contracts/CarbonCreditToken.sol\":5177:5202  processedBatches[batchId] */\n      0x00\n        /* \"backend/contracts/CarbonCreditToken.sol\":5194:5201  batchId */\n      dup4\n        /* \"backend/contracts/CarbonCreditToken.sol\":5177:5202  processedBatches[batchId] */\n      dup2\n      mstore\n      0x20\n      add\n      swap1\n      dup2\n      mstore\n      0x20\n      add\n      0x00\n      keccak256\n      0x00\n        /* \"backend/contracts/CarbonCreditToken.sol\":5177:5209  processedBatches[batchId] = true */\n      0x0100\n      exp\n      dup2\n      sload\n      dup2\n      0xff\n      mul\n      not\n      and\n      swap1\n      dup4\n      iszero\n      iszero\n      mul\n      or\n      swap1\n      sstore\n      pop\n        /* \"backend/contracts/CarbonCreditToken.sol\":5220:5233  uint256 capKg */\n      0x00\n        /* \"backend/contracts/CarbonCreditToken.sol\":5236:5244  registry */\n      immutable(\"0xcdbc23227c72e0a3f4683bdbccfcbed38047ca1a70d48b78c210dc5393029019\")\n        /* \"backend/contracts/CarbonCreditToken.sol\":5236:5261  registry.getCapKgByWallet */\n      0xffffffffffffffffffffffffffffffffffffffff\n      and\n      0x0c3dea29\n        /* \"backend/contracts/CarbonCreditToken.sol\":5262:5269  company */\n      dup9\n        /* \"backend/contracts/CarbonCreditToken.sol\":5236:5270  registry.getCapKgByWallet(company) */\n      mload(0x40)\n      dup3\n      0xffffffff\n      and\n      0xe0\n      shl\n      dup2\n      mstore\n      0x04\n      add\n      tag_124\n      swap2\n      swap1\n      tag_72\n      jump\t// in\n    tag_124:\n      0x20\n      mload(0x40)\n      dup1\n      dup4\n      sub\n      dup2\n      dup7\n      gas\n      staticcall\n      iszero\n      dup1\n      iszero\n      tag_126\n      jumpi\n      returndatacopy(0x00, 0x00, returndatasize)\n      revert(0x00, returndatasize)\n    tag_126:\n      pop\n      pop\n      pop\n      pop\n      mload(0x40)\n      returndatasize\n      not(0x1f)\n      0x1f\n      dup3\n      add\n      and\n      dup3\n      add\n      dup1\n      0x40\n      mstore\n      pop\n      dup2\n      add\n      swap1\n      tag_127\n      swap2\n      swap1\n      tag_128\n      jump\t// in\n    tag_127:\n        /* \"backend/contracts/CarbonCreditToken.sol\":5220:5270  uint256 capKg = registry.getCapKgByWallet(company) */\n      swap1\n      pop\n        /* \"backend/contracts/CarbonCreditToken.sol\":5296:5297  0 */\n      0x00\n        /* \"backend/contracts/CarbonCreditToken.sol\":5288:5293  capKg */\n      dup2\n        /* \"backend/contracts/CarbonCreditToken.sol\":5288:5297  capKg > 0 */\n      gt\n        /* \"backend/contracts/CarbonCreditToken.sol\":5280:5313  require(capKg > 0, \"cap missing\") */\n      tag_129\n      jumpi\n      mload(0x40)\n      0x08c379a000000000000000000000000000000000000000000000000000000000\n      dup2\n      mstore\n      0x04\n      add\n      tag_130\n      swap1\n      tag_131\n      jump\t// in\n    tag_130:\n      mload(0x40)\n      dup1\n      swap2\n      sub\n      swap1\n      revert\n    tag_129:\n        /* \"backend/contracts/CarbonCreditToken.sol\":5323:5341  int256 tokenChange */\n      0x00\n        /* \"backend/contracts/CarbonCreditToken.sol\":5344:5345  0 */\n      0x00\n        /* \"backend/contracts/CarbonCreditToken.sol\":5323:5345  int256 tokenChange = 0 */\n      swap1\n      pop\n        /* \"backend/contracts/CarbonCreditToken.sol\":5355:5375  uint256 mintedTokens */\n      0x00\n        /* \"backend/contracts/CarbonCreditToken.sol\":5378:5379  0 */\n      0x00\n        /* \"backend/contracts/CarbonCreditToken.sol\":5355:5379  uint256 mintedTokens = 0 */\n      swap1\n      pop\n        /* \"backend/contracts/CarbonCreditToken.sol\":5389:5409  uint256 burnedTokens */\n      0x00\n        /* \"backend/contracts/CarbonCreditToken.sol\":5412:5413  0 */\n      0x00\n        /* \"backend/contracts/CarbonCreditToken.sol\":5389:5413  uint256 burnedTokens = 0 */\n      swap1\n      pop\n        /* \"backend/contracts/CarbonCreditToken.sol\":5441:5446  capKg */\n      dup4\n        /* \"backend/contracts/CarbonCreditToken.sol\":5428:5438  emissionKg */\n      dup10\n        /* \"backend/contracts/CarbonCreditToken.sol\":5428:5446  emissionKg < capKg */\n      lt\n        /* \"backend/contracts/CarbonCreditToken.sol\":5424:6395  if (emissionKg < capKg) {... */\n      iszero\n      tag_132\n      jumpi\n        /* \"backend/contracts/CarbonCreditToken.sol\":5462:5476  uint256 diffKg */\n      0x00\n        /* \"backend/contracts/CarbonCreditToken.sol\":5487:5497  emissionKg */\n      dup10\n        /* \"backend/contracts/CarbonCreditToken.sol\":5479:5484  capKg */\n      dup6\n        /* \"backend/contracts/CarbonCreditToken.sol\":5479:5497  capKg - emissionKg */\n      tag_133\n      swap2\n      swap1\n      tag_113\n      jump\t// in\n    tag_133:\n        /* \"backend/contracts/CarbonCreditToken.sol\":5462:5497  uint256 diffKg = capKg - emissionKg */\n      swap1\n      pop\n        /* \"backend/contracts/CarbonCreditToken.sol\":5511:5529  uint256 mintTokens */\n      0x00\n        /* \"backend/contracts/CarbonCreditToken.sol\":5541:5545  1000 */\n      0x03e8\n        /* \"backend/contracts/CarbonCreditToken.sol\":5532:5538  diffKg */\n      dup3\n        /* \"backend/contracts/CarbonCreditToken.sol\":5532:5545  diffKg / 1000 */\n      tag_134\n      swap2\n      swap1\n      tag_135\n      jump\t// in\n    tag_134:\n        /* \"backend/contracts/CarbonCreditToken.sol\":5511:5545  uint256 mintTokens = diffKg / 1000 */\n      swap1\n      pop\n        /* \"backend/contracts/CarbonCreditToken.sol\":5597:5598  0 */\n      0x00\n        /* \"backend/contracts/CarbonCreditToken.sol\":5584:5594  mintTokens */\n      dup2\n        /* \"backend/contracts/CarbonCreditToken.sol\":5584:5598  mintTokens > 0 */\n      gt\n        /* \"backend/contracts/CarbonCreditToken.sol\":5580:5809  if (mintTokens > 0) {... */\n      iszero\n      tag_136\n      jumpi\n        /* \"backend/contracts/CarbonCreditToken.sol\":5618:5644  _mint(company, mintTokens) */\n      tag_137\n        /* \"backend/contracts/CarbonCreditToken.sol\":5624:5631  company */\n      dup13\n        /* \"backend/contracts/CarbonCreditToken.sol\":5633:5643  mintTokens */\n      dup3\n        /* \"backend/contracts/CarbonCreditToken.sol\":5618:5623  _mint */\n      tag_138\n        /* \"backend/contracts/CarbonCreditToken.sol\":5618:5644  _mint(company, mintTokens) */\n      jump\t// in\n    tag_137:\n        /* \"backend/contracts/CarbonCreditToken.sol\":5681:5688  company */\n      dup12\n        /* \"backend/contracts/CarbonCreditToken.sol\":5667:5701  CreditsIssued(company, mintTokens) */\n      0xffffffffffffffffffffffffffffffffffffffff\n      and\n      0xba27001eed39081e9d6f521103bc201676a9b4eb7fe868e5e596da78b135126b\n        /* \"backend/contracts/CarbonCreditToken.sol\":5690:5700  mintTokens */\n      dup3\n        /* \"backend/contracts/CarbonCreditToken.sol\":5667:5701  CreditsIssued(company, mintTokens) */\n      mload(0x40)\n      tag_139\n      swap2\n      swap1\n      tag_41\n      jump\t// in\n    tag_139:\n      mload(0x40)\n      dup1\n      swap2\n      sub\n      swap1\n      log2\n        /* \"backend/contracts/CarbonCreditToken.sol\":5740:5750  mintTokens */\n      dup1\n        /* \"backend/contracts/CarbonCreditToken.sol\":5719:5751  tokenChange = int256(mintTokens) */\n      swap5\n      pop\n        /* \"backend/contracts/CarbonCreditToken.sol\":5784:5794  mintTokens */\n      dup1\n        /* \"backend/contracts/CarbonCreditToken.sol\":5769:5794  mintedTokens = mintTokens */\n      swap4\n      pop\n        /* \"backend/contracts/CarbonCreditToken.sol\":5580:5809  if (mintTokens > 0) {... */\n    tag_136:\n        /* \"backend/contracts/CarbonCreditToken.sol\":5448:5819  {... */\n      pop\n      pop\n        /* \"backend/contracts/CarbonCreditToken.sol\":5424:6395  if (emissionKg < capKg) {... */\n      jump(tag_140)\n    tag_132:\n        /* \"backend/contracts/CarbonCreditToken.sol\":5842:5847  capKg */\n      dup4\n        /* \"backend/contracts/CarbonCreditToken.sol\":5829:5839  emissionKg */\n      dup10\n        /* \"backend/contracts/CarbonCreditToken.sol\":5829:5847  emissionKg > capKg */\n      gt\n        /* \"backend/contracts/CarbonCreditToken.sol\":5825:6395  if (emissionKg > capKg) {... */\n      iszero\n      tag_141\n      jumpi\n        /* \"backend/contracts/CarbonCreditToken.sol\":5863:5879  uint256 exceedKg */\n      0x00\n        /* \"backend/contracts/CarbonCreditToken.sol\":5895:5900  capKg */\n      dup5\n        /* \"backend/contracts/CarbonCreditToken.sol\":5882:5892  emissionKg */\n      dup11\n        /* \"backend/contracts/CarbonCreditToken.sol\":5882:5900  emissionKg - capKg */\n      tag_142\n      swap2\n      swap1\n      tag_113\n      jump\t// in\n    tag_142:\n        /* \"backend/contracts/CarbonCreditToken.sol\":5863:5900  uint256 exceedKg = emissionKg - capKg */\n      swap1\n      pop\n        /* \"backend/contracts/CarbonCreditToken.sol\":5914:5932  uint256 burnTokens */\n      0x00\n        /* \"backend/contracts/CarbonCreditToken.sol\":5946:5950  1000 */\n      0x03e8\n        /* \"backend/contracts/CarbonCreditToken.sol\":5935:5943  exceedKg */\n      dup3\n        /* \"backend/contracts/CarbonCreditToken.sol\":5935:5950  exceedKg / 1000 */\n      tag_143\n      swap2\n      swap1\n      tag_135\n      jump\t// in\n    tag_143:\n        /* \"backend/contracts/CarbonCreditToken.sol\":5914:5950  uint256 burnTokens = exceedKg / 1000 */\n      swap1\n      pop\n        /* \"backend/contracts/CarbonCreditToken.sol\":5981:5982  0 */\n      0x00\n        /* \"backend/contracts/CarbonCreditToken.sol\":5968:5978  burnTokens */\n      dup2\n        /* \"backend/contracts/CarbonCreditToken.sol\":5968:5982  burnTokens > 0 */\n      gt\n        /* \"backend/contracts/CarbonCreditToken.sol\":5964:6385  if (burnTokens > 0) {... */\n      iszero\n      tag_144\n      jumpi\n        /* \"backend/contracts/CarbonCreditToken.sol\":6002:6019  uint256 available */\n      0x00\n        /* \"backend/contracts/CarbonCreditToken.sol\":6022:6031  balanceOf */\n      0x03\n        /* \"backend/contracts/CarbonCreditToken.sol\":6022:6040  balanceOf[company] */\n      0x00\n        /* \"backend/contracts/CarbonCreditToken.sol\":6032:6039  company */\n      dup15\n        /* \"backend/contracts/CarbonCreditToken.sol\":6022:6040  balanceOf[company] */\n      0xffffffffffffffffffffffffffffffffffffffff\n      and\n      0xffffffffffffffffffffffffffffffffffffffff\n      and\n      dup2\n      mstore\n      0x20\n      add\n      swap1\n      dup2\n      mstore\n      0x20\n      add\n      0x00\n      keccak256\n      sload\n        /* \"backend/contracts/CarbonCreditToken.sol\":6002:6040  uint256 available = balanceOf[company] */\n      swap1\n      pop\n        /* \"backend/contracts/CarbonCreditToken.sol\":6058:6072  uint256 toBurn */\n      0x00\n        /* \"backend/contracts/CarbonCreditToken.sol\":6088:6097  available */\n      dup2\n        /* \"backend/contracts/CarbonCreditToken.sol\":6075:6085  burnTokens */\n      dup4\n        /* \"backend/contracts/CarbonCreditToken.sol\":6075:6097  burnTokens > available */\n      gt\n        /* \"backend/contracts/CarbonCreditToken.sol\":6075:6122  burnTokens > available ? available : burnTokens */\n      tag_145\n      jumpi\n        /* \"backend/contracts/CarbonCreditToken.sol\":6112:6122  burnTokens */\n      dup3\n        /* \"backend/contracts/CarbonCreditToken.sol\":6075:6122  burnTokens > available ? available : burnTokens */\n      jump(tag_146)\n    tag_145:\n        /* \"backend/contracts/CarbonCreditToken.sol\":6100:6109  available */\n      dup2\n        /* \"backend/contracts/CarbonCreditToken.sol\":6075:6122  burnTokens > available ? available : burnTokens */\n    tag_146:\n        /* \"backend/contracts/CarbonCreditToken.sol\":6058:6122  uint256 toBurn = burnTokens > available ? available : burnTokens */\n      swap1\n      pop\n        /* \"backend/contracts/CarbonCreditToken.sol\":6153:6154  0 */\n      0x00\n        /* \"backend/contracts/CarbonCreditToken.sol\":6144:6150  toBurn */\n      dup2\n        /* \"backend/contracts/CarbonCreditToken.sol\":6144:6154  toBurn > 0 */\n      gt\n        /* \"backend/contracts/CarbonCreditToken.sol\":6140:6371  if (toBurn > 0) {... */\n      iszero\n      tag_147\n      jumpi\n        /* \"backend/contracts/CarbonCreditToken.sol\":6178:6200  _burn(company, toBurn) */\n      tag_148\n        /* \"backend/contracts/CarbonCreditToken.sol\":6184:6191  company */\n      dup15\n        /* \"backend/contracts/CarbonCreditToken.sol\":6193:6199  toBurn */\n      dup3\n        /* \"backend/contracts/CarbonCreditToken.sol\":6178:6183  _burn */\n      tag_149\n        /* \"backend/contracts/CarbonCreditToken.sol\":6178:6200  _burn(company, toBurn) */\n      jump\t// in\n    tag_148:\n        /* \"backend/contracts/CarbonCreditToken.sol\":6242:6249  company */\n      dup14\n        /* \"backend/contracts/CarbonCreditToken.sol\":6227:6258  PenaltyApplied(company, toBurn) */\n      0xffffffffffffffffffffffffffffffffffffffff\n      and\n      0x4b28c7dc138644f27518388387393ecbd08ef8d180a4a6799c954be166a37ab3\n        /* \"backend/contracts/CarbonCreditToken.sol\":6251:6257  toBurn */\n      dup3\n        /* \"backend/contracts/CarbonCreditToken.sol\":6227:6258  PenaltyApplied(company, toBurn) */\n      mload(0x40)\n      tag_150\n      swap2\n      swap1\n      tag_41\n      jump\t// in\n    tag_150:\n      mload(0x40)\n      dup1\n      swap2\n      sub\n      swap1\n      log2\n        /* \"backend/contracts/CarbonCreditToken.sol\":6302:6308  toBurn */\n      dup1\n        /* \"backend/contracts/CarbonCreditToken.sol\":6294:6309  -int256(toBurn) */\n      tag_151\n      swap1\n      tag_152\n      jump\t// in\n    tag_151:\n        /* \"backend/contracts/CarbonCreditToken.sol\":6280:6309  tokenChange = -int256(toBurn) */\n      swap7\n      pop\n        /* \"backend/contracts/CarbonCreditToken.sol\":6346:6352  toBurn */\n      dup1\n        /* \"backend/contracts/CarbonCreditToken.sol\":6331:6352  burnedTokens = toBurn */\n      swap5\n      pop\n        /* \"backend/contracts/CarbonCreditToken.sol\":6140:6371  if (toBurn > 0) {... */\n    tag_147:\n        /* \"backend/contracts/CarbonCreditToken.sol\":5984:6385  {... */\n      pop\n      pop\n        /* \"backend/contracts/CarbonCreditToken.sol\":5964:6385  if (burnTokens > 0) {... */\n    tag_144:\n        /* \"backend/contracts/CarbonCreditToken.sol\":5849:6395  {... */\n      pop\n      pop\n        /* \"backend/contracts/CarbonCreditToken.sol\":5825:6395  if (emissionKg > capKg) {... */\n    tag_141:\n        /* \"backend/contracts/CarbonCreditToken.sol\":5424:6395  if (emissionKg < capKg) {... */\n    tag_140:\n        /* \"backend/contracts/CarbonCreditToken.sol\":6429:6444  emissionHistory */\n      0x07\n        /* \"backend/contracts/CarbonCreditToken.sol\":6429:6453  emissionHistory[company] */\n      0x00\n        /* \"backend/contracts/CarbonCreditToken.sol\":6445:6452  company */\n      dup12\n        /* \"backend/contracts/CarbonCreditToken.sol\":6429:6453  emissionHistory[company] */\n      0xffffffffffffffffffffffffffffffffffffffff\n      and\n      0xffffffffffffffffffffffffffffffffffffffff\n      and\n      dup2\n      mstore\n      0x20\n      add\n      swap1\n      dup2\n      mstore\n      0x20\n      add\n      0x00\n      keccak256\n        /* \"backend/contracts/CarbonCreditToken.sol\":6472:6854  EmissionBatch({... */\n      mload(0x40)\n      dup1\n      0x0120\n      add\n      0x40\n      mstore\n      dup1\n        /* \"backend/contracts/CarbonCreditToken.sol\":6515:6529  batchStartTime */\n      dup11\n        /* \"backend/contracts/CarbonCreditToken.sol\":6472:6854  EmissionBatch({... */\n      dup2\n      mstore\n      0x20\n      add\n        /* \"backend/contracts/CarbonCreditToken.sol\":6556:6568  batchEndTime */\n      dup10\n        /* \"backend/contracts/CarbonCreditToken.sol\":6472:6854  EmissionBatch({... */\n      dup2\n      mstore\n      0x20\n      add\n        /* \"backend/contracts/CarbonCreditToken.sol\":6598:6608  emissionKg */\n      dup12\n        /* \"backend/contracts/CarbonCreditToken.sol\":6472:6854  EmissionBatch({... */\n      dup2\n      mstore\n      0x20\n      add\n        /* \"backend/contracts/CarbonCreditToken.sol\":6633:6638  capKg */\n      dup7\n        /* \"backend/contracts/CarbonCreditToken.sol\":6472:6854  EmissionBatch({... */\n      dup2\n      mstore\n      0x20\n      add\n        /* \"backend/contracts/CarbonCreditToken.sol\":6666:6675  batchHash */\n      dup9\n        /* \"backend/contracts/CarbonCreditToken.sol\":6472:6854  EmissionBatch({... */\n      dup2\n      mstore\n      0x20\n      add\n        /* \"backend/contracts/CarbonCreditToken.sol\":6706:6717  tokenChange */\n      dup6\n        /* \"backend/contracts/CarbonCreditToken.sol\":6472:6854  EmissionBatch({... */\n      dup2\n      mstore\n      0x20\n      add\n        /* \"backend/contracts/CarbonCreditToken.sol\":6749:6761  mintedTokens */\n      dup5\n        /* \"backend/contracts/CarbonCreditToken.sol\":6472:6854  EmissionBatch({... */\n      dup2\n      mstore\n      0x20\n      add\n        /* \"backend/contracts/CarbonCreditToken.sol\":6793:6805  burnedTokens */\n      dup4\n        /* \"backend/contracts/CarbonCreditToken.sol\":6472:6854  EmissionBatch({... */\n      dup2\n      mstore\n      0x20\n      add\n        /* \"backend/contracts/CarbonCreditToken.sol\":6832:6839  batchId */\n      dup8\n        /* \"backend/contracts/CarbonCreditToken.sol\":6472:6854  EmissionBatch({... */\n      dup2\n      mstore\n      pop\n        /* \"backend/contracts/CarbonCreditToken.sol\":6429:6864  emissionHistory[company].push(... */\n      swap1\n      dup1\n      0x01\n      dup2\n      sload\n      add\n      dup1\n      dup3\n      sstore\n      dup1\n      swap2\n      pop\n      pop\n      0x01\n      swap1\n      sub\n      swap1\n      0x00\n      mstore\n      keccak256(0x00, 0x20)\n      swap1\n      0x09\n      mul\n      add\n      0x00\n      swap1\n      swap2\n      swap1\n      swap2\n      swap1\n      swap2\n      pop\n      0x00\n      dup3\n      add\n      mload\n      dup2\n      0x00\n      add\n      sstore\n      0x20\n      dup3\n      add\n      mload\n      dup2\n      0x01\n      add\n      sstore\n      0x40\n      dup3\n      add\n      mload\n      dup2\n      0x02\n      add\n      sstore\n      0x60\n      dup3\n      add\n      mload\n      dup2\n      0x03\n      add\n      sstore\n      0x80\n      dup3\n      add\n      mload\n      dup2\n      0x04\n      add\n      sstore\n      0xa0\n      dup3\n      add\n      mload\n      dup2\n      0x05\n      add\n      sstore\n      0xc0\n      dup3\n      add\n      mload\n      dup2\n      0x06\n      add\n      sstore\n      0xe0\n      dup3\n      add\n      mload\n      dup2\n      0x07\n      add\n      sstore\n      0x0100\n      dup3\n      add\n      mload\n      dup2\n      0x08\n      add\n      sstore\n      pop\n      pop\n        /* \"backend/contracts/CarbonCreditToken.sol\":6907:6914  company */\n      dup10\n        /* \"backend/contracts/CarbonCreditToken.sol\":6880:7142  BatchRecorded(... */\n      0xffffffffffffffffffffffffffffffffffffffff\n      and\n      0xccc62654ecd4111e8b4bedba3b24e6ea465563d9ac5b90500e2ba4c7a927479e\n        /* \"backend/contracts/CarbonCreditToken.sol\":6928:6937  batchHash */\n      dup8\n        /* \"backend/contracts/CarbonCreditToken.sol\":6951:6958  batchId */\n      dup8\n        /* \"backend/contracts/CarbonCreditToken.sol\":6972:6986  batchStartTime */\n      dup12\n        /* \"backend/contracts/CarbonCreditToken.sol\":7000:7012  batchEndTime */\n      dup12\n        /* \"backend/contracts/CarbonCreditToken.sol\":7026:7036  emissionKg */\n      dup15\n        /* \"backend/contracts/CarbonCreditToken.sol\":7050:7055  capKg */\n      dup11\n        /* \"backend/contracts/CarbonCreditToken.sol\":7069:7081  mintedTokens */\n      dup10\n        /* \"backend/contracts/CarbonCreditToken.sol\":7095:7107  burnedTokens */\n      dup10\n        /* \"backend/contracts/CarbonCreditToken.sol\":7121:7132  tokenChange */\n      dup13\n        /* \"backend/contracts/CarbonCreditToken.sol\":6880:7142  BatchRecorded(... */\n      mload(0x40)\n      tag_154\n      swap10\n      swap9\n      swap8\n      swap7\n      swap6\n      swap5\n      swap4\n      swap3\n      swap2\n      swap1\n      tag_155\n      jump\t// in\n    tag_154:\n      mload(0x40)\n      dup1\n      swap2\n      sub\n      swap1\n      log2\n        /* \"backend/contracts/CarbonCreditToken.sol\":5095:7149  {... */\n      pop\n      pop\n      pop\n      pop\n        /* \"backend/contracts/CarbonCreditToken.sol\":4882:7149  function submitBatch(... */\n      pop\n      pop\n      pop\n      pop\n      pop\n      pop\n      jump\t// out\n        /* \"backend/contracts/CarbonCreditToken.sol\":1304:1352  mapping(bytes32 => bool) public processedBatches */\n    tag_67:\n      mstore(0x20, 0x06)\n      dup1\n      0x00\n      mstore\n      keccak256(0x00, 0x40)\n      0x00\n      swap2\n      pop\n      sload\n      swap1\n      0x0100\n      exp\n      swap1\n      div\n      0xff\n      and\n      dup2\n      jump\t// out\n        /* \"backend/contracts/CarbonCreditToken.sol\":971:991  address public owner */\n    tag_70:\n      0x05\n      0x00\n      swap1\n      sload\n      swap1\n      0x0100\n      exp\n      swap1\n      div\n      0xffffffffffffffffffffffffffffffffffffffff\n      and\n      dup2\n      jump\t// out\n        /* \"backend/contracts/CarbonCreditToken.sol\":557:585  string public symbol = \"CCT\" */\n    tag_74:\n      0x01\n      dup1\n      sload\n      tag_156\n      swap1\n      tag_98\n      jump\t// in\n    tag_156:\n      dup1\n      0x1f\n      add\n      0x20\n      dup1\n      swap2\n      div\n      mul\n      0x20\n      add\n      mload(0x40)\n      swap1\n      dup2\n      add\n      0x40\n      mstore\n      dup1\n      swap3\n      swap2\n      swap1\n      dup2\n      dup2\n      mstore\n      0x20\n      add\n      dup3\n      dup1\n      sload\n      tag_157\n      swap1\n      tag_98\n      jump\t// in\n    tag_157:\n      dup1\n      iszero\n      tag_158\n      jumpi\n      dup1\n      0x1f\n      lt\n      tag_159\n      jumpi\n      0x0100\n      dup1\n      dup4\n      sload\n      div\n      mul\n      dup4\n      mstore\n      swap2\n      0x20\n      add\n      swap2\n      jump(tag_158)\n    tag_159:\n      dup3\n      add\n      swap2\n      swap1\n      0x00\n      mstore\n      keccak256(0x00, 0x20)\n      swap1\n    tag_160:\n      dup2\n      sload\n      dup2\n      mstore\n      swap1\n      0x01\n      add\n      swap1\n      0x20\n      add\n      dup1\n      dup4\n      gt\n      tag_160\n      jumpi\n      dup3\n      swap1\n      sub\n      0x1f\n      and\n      dup3\n      add\n      swap2\n    tag_158:\n      pop\n      pop\n      pop\n      pop\n      pop\n      dup2\n      jump\t// out\n        /* \"backend/contracts/CarbonCreditToken.sol\":3207:3348  function transfer(address to, uint256 amount) external returns (bool) {... */\n    tag_78:\n        /* \"backend/contracts/CarbonCreditToken.sol\":3271:3275  bool */\n      0x00\n        /* \"backend/contracts/CarbonCreditToken.sol\":3287:3320  _transfer(msg.sender, to, amount) */\n      tag_162\n        /* \"backend/contracts/CarbonCreditToken.sol\":3297:3307  msg.sender */\n      caller\n        /* \"backend/contracts/CarbonCreditToken.sol\":3309:3311  to */\n      dup5\n        /* \"backend/contracts/CarbonCreditToken.sol\":3313:3319  amount */\n      dup5\n        /* \"backend/contracts/CarbonCreditToken.sol\":3287:3296  _transfer */\n      tag_115\n        /* \"backend/contracts/CarbonCreditToken.sol\":3287:3320  _transfer(msg.sender, to, amount) */\n      jump\t// in\n    tag_162:\n        /* \"backend/contracts/CarbonCreditToken.sol\":3337:3341  true */\n      0x01\n        /* \"backend/contracts/CarbonCreditToken.sol\":3330:3341  return true */\n      swap1\n      pop\n        /* \"backend/contracts/CarbonCreditToken.sol\":3207:3348  function transfer(address to, uint256 amount) external returns (bool) {... */\n      swap3\n      swap2\n      pop\n      pop\n      jump\t// out\n        /* \"backend/contracts/CarbonCreditToken.sol\":714:778  mapping(address => mapping(address => uint256)) public allowance */\n    tag_83:\n      mstore(0x20, 0x04)\n      dup2\n      0x00\n      mstore\n      mstore(0x20, keccak256(0x00, 0x40))\n      dup1\n      0x00\n      mstore\n      keccak256(0x00, 0x40)\n      0x00\n      swap2\n      pop\n      swap2\n      pop\n      pop\n      sload\n      dup2\n      jump\t// out\n        /* \"backend/contracts/CarbonCreditToken.sol\":7183:7318  function emissionHistoryLength(address company) external view returns (uint256) {... */\n    tag_87:\n        /* \"backend/contracts/CarbonCreditToken.sol\":7254:7261  uint256 */\n      0x00\n        /* \"backend/contracts/CarbonCreditToken.sol\":7280:7295  emissionHistory */\n      0x07\n        /* \"backend/contracts/CarbonCreditToken.sol\":7280:7304  emissionHistory[company] */\n      0x00\n        /* \"backend/contracts/CarbonCreditToken.sol\":7296:7303  company */\n      dup4\n        /* \"backend/contracts/CarbonCreditToken.sol\":7280:7304  emissionHistory[company] */\n      0xffffffffffffffffffffffffffffffffffffffff\n      and\n      0xffffffffffffffffffffffffffffffffffffffff\n      and\n      dup2\n      mstore\n      0x20\n      add\n      swap1\n      dup2\n      mstore\n      0x20\n      add\n      0x00\n      keccak256\n        /* \"backend/contracts/CarbonCreditToken.sol\":7280:7311  emissionHistory[company].length */\n      dup1\n      sload\n      swap1\n      pop\n        /* \"backend/contracts/CarbonCreditToken.sol\":7273:7311  return emissionHistory[company].length */\n      swap1\n      pop\n        /* \"backend/contracts/CarbonCreditToken.sol\":7183:7318  function emissionHistoryLength(address company) external view returns (uint256) {... */\n      swap2\n      swap1\n      pop\n      jump\t// out\n        /* \"backend/contracts/CarbonCreditToken.sol\":7324:7563  function getEmissionBatch(address company, uint256 index) external view returns (EmissionBatch memory) {... */\n    tag_91:\n        /* \"backend/contracts/CarbonCreditToken.sol\":7405:7425  EmissionBatch memory */\n      tag_164\n      tag_165\n      jump\t// in\n    tag_164:\n        /* \"backend/contracts/CarbonCreditToken.sol\":7453:7468  emissionHistory */\n      0x07\n        /* \"backend/contracts/CarbonCreditToken.sol\":7453:7477  emissionHistory[company] */\n      0x00\n        /* \"backend/contracts/CarbonCreditToken.sol\":7469:7476  company */\n      dup5\n        /* \"backend/contracts/CarbonCreditToken.sol\":7453:7477  emissionHistory[company] */\n      0xffffffffffffffffffffffffffffffffffffffff\n      and\n      0xffffffffffffffffffffffffffffffffffffffff\n      and\n      dup2\n      mstore\n      0x20\n      add\n      swap1\n      dup2\n      mstore\n      0x20\n      add\n      0x00\n      keccak256\n        /* \"backend/contracts/CarbonCreditToken.sol\":7453:7484  emissionHistory[company].length */\n      dup1\n      sload\n      swap1\n      pop\n        /* \"backend/contracts/CarbonCreditToken.sol\":7445:7450  index */\n      dup3\n        /* \"backend/contracts/CarbonCreditToken.sol\":7445:7484  index < emissionHistory[company].length */\n      lt\n        /* \"backend/contracts/CarbonCreditToken.sol\":7437:7508  require(index < emissionHistory[company].length, \"index out of bounds\") */\n      tag_167\n      jumpi\n      mload(0x40)\n      0x08c379a000000000000000000000000000000000000000000000000000000000\n      dup2\n      mstore\n      0x04\n      add\n      tag_168\n      swap1\n      tag_169\n      jump\t// in\n    tag_168:\n      mload(0x40)\n      dup1\n      swap2\n      sub\n      swap1\n      revert\n    tag_167:\n        /* \"backend/contracts/CarbonCreditToken.sol\":7525:7540  emissionHistory */\n      0x07\n        /* \"backend/contracts/CarbonCreditToken.sol\":7525:7549  emissionHistory[company] */\n      0x00\n        /* \"backend/contracts/CarbonCreditToken.sol\":7541:7548  company */\n      dup5\n        /* \"backend/contracts/CarbonCreditToken.sol\":7525:7549  emissionHistory[company] */\n      0xffffffffffffffffffffffffffffffffffffffff\n      and\n      0xffffffffffffffffffffffffffffffffffffffff\n      and\n      dup2\n      mstore\n      0x20\n      add\n      swap1\n      dup2\n      mstore\n      0x20\n      add\n      0x00\n      keccak256\n        /* \"backend/contracts/CarbonCreditToken.sol\":7550:7555  index */\n      dup3\n        /* \"backend/contracts/CarbonCreditToken.sol\":7525:7556  emissionHistory[company][index] */\n      dup2\n      sload\n      dup2\n      lt\n      tag_170\n      jumpi\n      tag_171\n      tag_172\n      jump\t// in\n    tag_171:\n    tag_170:\n      swap1\n      0x00\n      mstore\n      keccak256(0x00, 0x20)\n      swap1\n      0x09\n      mul\n      add\n        /* \"backend/contracts/CarbonCreditToken.sol\":7518:7556  return emissionHistory[company][index] */\n      mload(0x40)\n      dup1\n      0x0120\n      add\n      0x40\n      mstore\n      swap1\n      dup2\n      0x00\n      dup3\n      add\n      sload\n      dup2\n      mstore\n      0x20\n      add\n      0x01\n      dup3\n      add\n      sload\n      dup2\n      mstore\n      0x20\n      add\n      0x02\n      dup3\n      add\n      sload\n      dup2\n      mstore\n      0x20\n      add\n      0x03\n      dup3\n      add\n      sload\n      dup2\n      mstore\n      0x20\n      add\n      0x04\n      dup3\n      add\n      sload\n      dup2\n      mstore\n      0x20\n      add\n      0x05\n      dup3\n      add\n      sload\n      dup2\n      mstore\n      0x20\n      add\n      0x06\n      dup3\n      add\n      sload\n      dup2\n      mstore\n      0x20\n      add\n      0x07\n      dup3\n      add\n      sload\n      dup2\n      mstore\n      0x20\n      add\n      0x08\n      dup3\n      add\n      sload\n      dup2\n      mstore\n      pop\n      pop\n      swap1\n      pop\n        /* \"backend/contracts/CarbonCreditToken.sol\":7324:7563  function getEmissionBatch(address company, uint256 index) external view returns (EmissionBatch memory) {... */\n      swap3\n      swap2\n      pop\n      pop\n      jump\t// out\n        /* \"backend/contracts/CarbonCreditToken.sol\":2587:2791  function transferOwnership(address newOwner) external onlyOwner {... */\n    tag_96:\n        /* \"backend/contracts/CarbonCreditToken.sol\":1140:1145  owner */\n      0x05\n      0x00\n      swap1\n      sload\n      swap1\n      0x0100\n      exp\n      swap1\n      div\n      0xffffffffffffffffffffffffffffffffffffffff\n      and\n        /* \"backend/contracts/CarbonCreditToken.sol\":1126:1145  msg.sender == owner */\n      0xffffffffffffffffffffffffffffffffffffffff\n      and\n        /* \"backend/contracts/CarbonCreditToken.sol\":1126:1136  msg.sender */\n      caller\n        /* \"backend/contracts/CarbonCreditToken.sol\":1126:1145  msg.sender == owner */\n      0xffffffffffffffffffffffffffffffffffffffff\n      and\n      eq\n        /* \"backend/contracts/CarbonCreditToken.sol\":1118:1159  require(msg.sender == owner, \"Not owner\") */\n      tag_175\n      jumpi\n      mload(0x40)\n      0x08c379a000000000000000000000000000000000000000000000000000000000\n      dup2\n      mstore\n      0x04\n      add\n      tag_176\n      swap1\n      tag_119\n      jump\t// in\n    tag_176:\n      mload(0x40)\n      dup1\n      swap2\n      sub\n      swap1\n      revert\n    tag_175:\n        /* \"backend/contracts/CarbonCreditToken.sol\":2689:2690  0 */\n      0x00\n        /* \"backend/contracts/CarbonCreditToken.sol\":2669:2691  newOwner != address(0) */\n      0xffffffffffffffffffffffffffffffffffffffff\n      and\n        /* \"backend/contracts/CarbonCreditToken.sol\":2669:2677  newOwner */\n      dup2\n        /* \"backend/contracts/CarbonCreditToken.sol\":2669:2691  newOwner != address(0) */\n      0xffffffffffffffffffffffffffffffffffffffff\n      and\n      sub\n        /* \"backend/contracts/CarbonCreditToken.sol\":2661:2706  require(newOwner != address(0), \"Zero owner\") */\n      tag_178\n      jumpi\n      mload(0x40)\n      0x08c379a000000000000000000000000000000000000000000000000000000000\n      dup2\n      mstore\n      0x04\n      add\n      tag_179\n      swap1\n      tag_180\n      jump\t// in\n    tag_179:\n      mload(0x40)\n      dup1\n      swap2\n      sub\n      swap1\n      revert\n    tag_178:\n        /* \"backend/contracts/CarbonCreditToken.sol\":2749:2757  newOwner */\n      dup1\n        /* \"backend/contracts/CarbonCreditToken.sol\":2721:2758  OwnershipTransferred(owner, newOwner) */\n      0xffffffffffffffffffffffffffffffffffffffff\n      and\n        /* \"backend/contracts/CarbonCreditToken.sol\":2742:2747  owner */\n      0x05\n      0x00\n      swap1\n      sload\n      swap1\n      0x0100\n      exp\n      swap1\n      div\n      0xffffffffffffffffffffffffffffffffffffffff\n      and\n        /* \"backend/contracts/CarbonCreditToken.sol\":2721:2758  OwnershipTransferred(owner, newOwner) */\n      0xffffffffffffffffffffffffffffffffffffffff\n      and\n      0x8be0079c531659141344cd1fd0a4f28419497f9722a3daafe3b4186f6b6457e0\n      mload(0x40)\n      mload(0x40)\n      dup1\n      swap2\n      sub\n      swap1\n      log3\n        /* \"backend/contracts/CarbonCreditToken.sol\":2776:2784  newOwner */\n      dup1\n        /* \"backend/contracts/CarbonCreditToken.sol\":2768:2773  owner */\n      0x05\n      0x00\n        /* \"backend/contracts/CarbonCreditToken.sol\":2768:2784  owner = newOwner */\n      0x0100\n      exp\n      dup2\n      sload\n      dup2\n      0xffffffffffffffffffffffffffffffffffffffff\n      mul\n      not\n      and\n      swap1\n      dup4\n      0xffffffffffffffffffffffffffffffffffffffff\n      and\n      mul\n      or\n      swap1\n      sstore\n      pop\n        /* \"backend/contracts/CarbonCreditToken.sol\":2587:2791  function transferOwnership(address newOwner) external onlyOwner {... */\n      pop\n      jump\t// out\n        /* \"backend/contracts/CarbonCreditToken.sol\":2828:3201  function _transfer(address from, address to, uint256 amount) internal {... */\n    tag_115:\n        /* \"backend/contracts/CarbonCreditToken.sol\":2930:2931  0 */\n      0x00\n        /* \"backend/contracts/CarbonCreditToken.sol\":2916:2932  to != address(0) */\n      0xffffffffffffffffffffffffffffffffffffffff\n      and\n        /* \"backend/contracts/CarbonCreditToken.sol\":2916:2918  to */\n      dup3\n        /* \"backend/contracts/CarbonCreditToken.sol\":2916:2932  to != address(0) */\n      0xffffffffffffffffffffffffffffffffffffffff\n      and\n      sub\n        /* \"backend/contracts/CarbonCreditToken.sol\":2908:2944  require(to != address(0), \"Zero to\") */\n      tag_182\n      jumpi\n      mload(0x40)\n      0x08c379a000000000000000000000000000000000000000000000000000000000\n      dup2\n      mstore\n      0x04\n      add\n      tag_183\n      swap1\n      tag_184\n      jump\t// in\n    tag_183:\n      mload(0x40)\n      dup1\n      swap2\n      sub\n      swap1\n      revert\n    tag_182:\n        /* \"backend/contracts/CarbonCreditToken.sol\":2954:2969  uint256 fromBal */\n      0x00\n        /* \"backend/contracts/CarbonCreditToken.sol\":2972:2981  balanceOf */\n      0x03\n        /* \"backend/contracts/CarbonCreditToken.sol\":2972:2987  balanceOf[from] */\n      0x00\n        /* \"backend/contracts/CarbonCreditToken.sol\":2982:2986  from */\n      dup6\n        /* \"backend/contracts/CarbonCreditToken.sol\":2972:2987  balanceOf[from] */\n      0xffffffffffffffffffffffffffffffffffffffff\n      and\n      0xffffffffffffffffffffffffffffffffffffffff\n      and\n      dup2\n      mstore\n      0x20\n      add\n      swap1\n      dup2\n      mstore\n      0x20\n      add\n      0x00\n      keccak256\n      sload\n        /* \"backend/contracts/CarbonCreditToken.sol\":2954:2987  uint256 fromBal = balanceOf[from] */\n      swap1\n      pop\n        /* \"backend/contracts/CarbonCreditToken.sol\":3016:3022  amount */\n      dup2\n        /* \"backend/contracts/CarbonCreditToken.sol\":3005:3012  fromBal */\n      dup2\n        /* \"backend/contracts/CarbonCreditToken.sol\":3005:3022  fromBal >= amount */\n      lt\n      iszero\n        /* \"backend/contracts/CarbonCreditToken.sol\":2997:3042  require(fromBal >= amount, \"Balance too low\") */\n      tag_185\n      jumpi\n      mload(0x40)\n      0x08c379a000000000000000000000000000000000000000000000000000000000\n      dup2\n      mstore\n      0x04\n      add\n      tag_186\n      swap1\n      tag_187\n      jump\t// in\n    tag_186:\n      mload(0x40)\n      dup1\n      swap2\n      sub\n      swap1\n      revert\n    tag_185:\n        /* \"backend/contracts/CarbonCreditToken.sol\":3104:3110  amount */\n      dup2\n        /* \"backend/contracts/CarbonCreditToken.sol\":3094:3101  fromBal */\n      dup2\n        /* \"backend/contracts/CarbonCreditToken.sol\":3094:3110  fromBal - amount */\n      sub\n        /* \"backend/contracts/CarbonCreditToken.sol\":3076:3085  balanceOf */\n      0x03\n        /* \"backend/contracts/CarbonCreditToken.sol\":3076:3091  balanceOf[from] */\n      0x00\n        /* \"backend/contracts/CarbonCreditToken.sol\":3086:3090  from */\n      dup7\n        /* \"backend/contracts/CarbonCreditToken.sol\":3076:3091  balanceOf[from] */\n      0xffffffffffffffffffffffffffffffffffffffff\n      and\n      0xffffffffffffffffffffffffffffffffffffffff\n      and\n      dup2\n      mstore\n      0x20\n      add\n      swap1\n      dup2\n      mstore\n      0x20\n      add\n      0x00\n      keccak256\n        /* \"backend/contracts/CarbonCreditToken.sol\":3076:3110  balanceOf[from] = fromBal - amount */\n      dup2\n      swap1\n      sstore\n      pop\n        /* \"backend/contracts/CarbonCreditToken.sol\":3147:3153  amount */\n      dup2\n        /* \"backend/contracts/CarbonCreditToken.sol\":3130:3139  balanceOf */\n      0x03\n        /* \"backend/contracts/CarbonCreditToken.sol\":3130:3143  balanceOf[to] */\n      0x00\n        /* \"backend/contracts/CarbonCreditToken.sol\":3140:3142  to */\n      dup6\n        /* \"backend/contracts/CarbonCreditToken.sol\":3130:3143  balanceOf[to] */\n      0xffffffffffffffffffffffffffffffffffffffff\n      and\n      0xffffffffffffffffffffffffffffffffffffffff\n      and\n      dup2\n      mstore\n      0x20\n      add\n      swap1\n      dup2\n      mstore\n      0x20\n      add\n      0x00\n      keccak256\n      0x00\n        /* \"backend/contracts/CarbonCreditToken.sol\":3130:3153  balanceOf[to] += amount */\n      dup3\n      dup3\n      sload\n      tag_188\n      swap2\n      swap1\n      tag_189\n      jump\t// in\n    tag_188:\n      swap3\n      pop\n      pop\n      dup2\n      swap1\n      sstore\n      pop\n        /* \"backend/contracts/CarbonCreditToken.sol\":3183:3185  to */\n      dup3\n        /* \"backend/contracts/CarbonCreditToken.sol\":3168:3194  Transfer(from, to, amount) */\n      0xffffffffffffffffffffffffffffffffffffffff\n      and\n        /* \"backend/contracts/CarbonCreditToken.sol\":3177:3181  from */\n      dup5\n        /* \"backend/contracts/CarbonCreditToken.sol\":3168:3194  Transfer(from, to, amount) */\n      0xffffffffffffffffffffffffffffffffffffffff\n      and\n      0xddf252ad1be2c89b69c2b068fc378daa952ba7f163c4a11628f55a4df523b3ef\n        /* \"backend/contracts/CarbonCreditToken.sol\":3187:3193  amount */\n      dup5\n        /* \"backend/contracts/CarbonCreditToken.sol\":3168:3194  Transfer(from, to, amount) */\n      mload(0x40)\n      tag_190\n      swap2\n      swap1\n      tag_41\n      jump\t// in\n    tag_190:\n      mload(0x40)\n      dup1\n      swap2\n      sub\n      swap1\n      log3\n        /* \"backend/contracts/CarbonCreditToken.sol\":2898:3201  {... */\n      pop\n        /* \"backend/contracts/CarbonCreditToken.sol\":2828:3201  function _transfer(address from, address to, uint256 amount) internal {... */\n      pop\n      pop\n      pop\n      jump\t// out\n        /* \"backend/contracts/CarbonCreditToken.sol\":3948:4164  function _mint(address to, uint256 amount) internal {... */\n    tag_138:\n        /* \"backend/contracts/CarbonCreditToken.sol\":4032:4033  0 */\n      0x00\n        /* \"backend/contracts/CarbonCreditToken.sol\":4018:4034  to != address(0) */\n      0xffffffffffffffffffffffffffffffffffffffff\n      and\n        /* \"backend/contracts/CarbonCreditToken.sol\":4018:4020  to */\n      dup3\n        /* \"backend/contracts/CarbonCreditToken.sol\":4018:4034  to != address(0) */\n      0xffffffffffffffffffffffffffffffffffffffff\n      and\n      sub\n        /* \"backend/contracts/CarbonCreditToken.sol\":4010:4046  require(to != address(0), \"Zero to\") */\n      tag_192\n      jumpi\n      mload(0x40)\n      0x08c379a000000000000000000000000000000000000000000000000000000000\n      dup2\n      mstore\n      0x04\n      add\n      tag_193\n      swap1\n      tag_184\n      jump\t// in\n    tag_193:\n      mload(0x40)\n      dup1\n      swap2\n      sub\n      swap1\n      revert\n    tag_192:\n        /* \"backend/contracts/CarbonCreditToken.sol\":4071:4077  amount */\n      dup1\n        /* \"backend/contracts/CarbonCreditToken.sol\":4056:4067  totalSupply */\n      0x02\n      0x00\n        /* \"backend/contracts/CarbonCreditToken.sol\":4056:4077  totalSupply += amount */\n      dup3\n      dup3\n      sload\n      tag_194\n      swap2\n      swap1\n      tag_189\n      jump\t// in\n    tag_194:\n      swap3\n      pop\n      pop\n      dup2\n      swap1\n      sstore\n      pop\n        /* \"backend/contracts/CarbonCreditToken.sol\":4104:4110  amount */\n      dup1\n        /* \"backend/contracts/CarbonCreditToken.sol\":4087:4096  balanceOf */\n      0x03\n        /* \"backend/contracts/CarbonCreditToken.sol\":4087:4100  balanceOf[to] */\n      0x00\n        /* \"backend/contracts/CarbonCreditToken.sol\":4097:4099  to */\n      dup5\n        /* \"backend/contracts/CarbonCreditToken.sol\":4087:4100  balanceOf[to] */\n      0xffffffffffffffffffffffffffffffffffffffff\n      and\n      0xffffffffffffffffffffffffffffffffffffffff\n      and\n      dup2\n      mstore\n      0x20\n      add\n      swap1\n      dup2\n      mstore\n      0x20\n      add\n      0x00\n      keccak256\n      0x00\n        /* \"backend/contracts/CarbonCreditToken.sol\":4087:4110  balanceOf[to] += amount */\n      dup3\n      dup3\n      sload\n      tag_195\n      swap2\n      swap1\n      tag_189\n      jump\t// in\n    tag_195:\n      swap3\n      pop\n      pop\n      dup2\n      swap1\n      sstore\n      pop\n        /* \"backend/contracts/CarbonCreditToken.sol\":4146:4148  to */\n      dup2\n        /* \"backend/contracts/CarbonCreditToken.sol\":4125:4157  Transfer(address(0), to, amount) */\n      0xffffffffffffffffffffffffffffffffffffffff\n      and\n        /* \"backend/contracts/CarbonCreditToken.sol\":4142:4143  0 */\n      0x00\n        /* \"backend/contracts/CarbonCreditToken.sol\":4125:4157  Transfer(address(0), to, amount) */\n      0xffffffffffffffffffffffffffffffffffffffff\n      and\n      0xddf252ad1be2c89b69c2b068fc378daa952ba7f163c4a11628f55a4df523b3ef\n        /* \"backend/contracts/CarbonCreditToken.sol\":4150:4156  amount */\n      dup4\n        /* \"backend/contracts/CarbonCreditToken.sol\":4125:4157  Transfer(address(0), to, amount) */\n      mload(0x40)\n      tag_196\n      swap2\n      swap1\n      tag_41\n      jump\t// in\n    tag_196:\n      mload(0x40)\n      dup1\n      swap2\n      sub\n      swap1\n      log3\n        /* \"backend/contracts/CarbonCreditToken.sol\":3948:4164  function _mint(address to, uint256 amount) internal {... */\n      pop\n      pop\n      jump\t// out\n        /* \"backend/contracts/CarbonCreditToken.sol\":4170:4484  function _burn(address from, uint256 amount) internal {... */\n    tag_149:\n        /* \"backend/contracts/CarbonCreditToken.sol\":4234:4245  uint256 bal */\n      0x00\n        /* \"backend/contracts/CarbonCreditToken.sol\":4248:4257  balanceOf */\n      0x03\n        /* \"backend/contracts/CarbonCreditToken.sol\":4248:4263  balanceOf[from] */\n      0x00\n        /* \"backend/contracts/CarbonCreditToken.sol\":4258:4262  from */\n      dup5\n        /* \"backend/contracts/CarbonCreditToken.sol\":4248:4263  balanceOf[from] */\n      0xffffffffffffffffffffffffffffffffffffffff\n      and\n      0xffffffffffffffffffffffffffffffffffffffff\n      and\n      dup2\n      mstore\n      0x20\n      add\n      swap1\n      dup2\n      mstore\n      0x20\n      add\n      0x00\n      keccak256\n      sload\n        /* \"backend/contracts/CarbonCreditToken.sol\":4234:4263  uint256 bal = balanceOf[from] */\n      swap1\n      pop\n        /* \"backend/contracts/CarbonCreditToken.sol\":4288:4294  amount */\n      dup2\n        /* \"backend/contracts/CarbonCreditToken.sol\":4281:4284  bal */\n      dup2\n        /* \"backend/contracts/CarbonCreditToken.sol\":4281:4294  bal >= amount */\n      lt\n      iszero\n        /* \"backend/contracts/CarbonCreditToken.sol\":4273:4319  require(bal >= amount, \"Burn exceeds balance\") */\n      tag_198\n      jumpi\n      mload(0x40)\n      0x08c379a000000000000000000000000000000000000000000000000000000000\n      dup2\n      mstore\n      0x04\n      add\n      tag_199\n      swap1\n      tag_200\n      jump\t// in\n    tag_199:\n      mload(0x40)\n      dup1\n      swap2\n      sub\n      swap1\n      revert\n    tag_198:\n        /* \"backend/contracts/CarbonCreditToken.sol\":4377:4383  amount */\n      dup2\n        /* \"backend/contracts/CarbonCreditToken.sol\":4371:4374  bal */\n      dup2\n        /* \"backend/contracts/CarbonCreditToken.sol\":4371:4383  bal - amount */\n      sub\n        /* \"backend/contracts/CarbonCreditToken.sol\":4353:4362  balanceOf */\n      0x03\n        /* \"backend/contracts/CarbonCreditToken.sol\":4353:4368  balanceOf[from] */\n      0x00\n        /* \"backend/contracts/CarbonCreditToken.sol\":4363:4367  from */\n      dup6\n        /* \"backend/contracts/CarbonCreditToken.sol\":4353:4368  balanceOf[from] */\n      0xffffffffffffffffffffffffffffffffffffffff\n      and\n      0xffffffffffffffffffffffffffffffffffffffff\n      and\n      dup2\n      mstore\n      0x20\n      add\n      swap1\n      dup2\n      mstore\n      0x20\n      add\n      0x00\n      keccak256\n        /* \"backend/contracts/CarbonCreditToken.sol\":4353:4383  balanceOf[from] = bal - amount */\n      dup2\n      swap1\n      sstore\n      pop\n        /* \"backend/contracts/CarbonCreditToken.sol\":4412:4418  amount */\n      dup2\n        /* \"backend/contracts/CarbonCreditToken.sol\":4397:4408  totalSupply */\n      0x02\n      0x00\n        /* \"backend/contracts/CarbonCreditToken.sol\":4397:4418  totalSupply -= amount */\n      dup3\n      dup3\n      sload\n      sub\n      swap3\n      pop\n      pop\n      dup2\n      swap1\n      sstore\n      pop\n        /* \"backend/contracts/CarbonCreditToken.sol\":4466:4467  0 */\n      0x00\n        /* \"backend/contracts/CarbonCreditToken.sol\":4443:4477  Transfer(from, address(0), amount) */\n      0xffffffffffffffffffffffffffffffffffffffff\n      and\n        /* \"backend/contracts/CarbonCreditToken.sol\":4452:4456  from */\n      dup4\n        /* \"backend/contracts/CarbonCreditToken.sol\":4443:4477  Transfer(from, address(0), amount) */\n      0xffffffffffffffffffffffffffffffffffffffff\n      and\n      0xddf252ad1be2c89b69c2b068fc378daa952ba7f163c4a11628f55a4df523b3ef\n        /* \"backend/contracts/CarbonCreditToken.sol\":4470:4476  amount */\n      dup5\n        /* \"backend/contracts/CarbonCreditToken.sol\":4443:4477  Transfer(from, address(0), amount) */\n      mload(0x40)\n      tag_201\n      swap2\n      swap1\n      tag_41\n      jump\t// in\n    tag_201:\n      mload(0x40)\n      dup1\n      swap2\n      sub\n      swap1\n      log3\n        /* \"backend/contracts/CarbonCreditToken.sol\":4224:4484  {... */\n      pop\n        /* \"backend/contracts/CarbonCreditToken.sol\":4170:4484  function _burn(address from, uint256 amount) internal {... */\n      pop\n      pop\n      jump\t// out\n    tag_165:\n      mload(0x40)\n      dup1\n      0x0120\n      add\n      0x40\n      mstore\n      dup1\n      0x00\n      dup2\n      mstore\n      0x20\n      add\n      0x00\n      dup2\n      mstore\n      0x20\n      add\n      0x00\n      dup2\n      mstore\n      0x20\n      add\n      0x00\n      dup2\n      mstore\n      0x20\n      add\n      0x00\n      dup2\n      mstore\n      0x20\n      add\n      0x00\n      dup2\n      mstore\n      0x20\n      add\n      0x00\n      dup2\n      mstore\n      0x20\n      add\n      0x00\n      dup2\n      mstore\n      0x20\n      add\n      0x00\n      dup2\n      mstore\n      pop\n      swap1\n      jump\t// out\n        /* \"#utility.yul\":7:106   */\n    tag_202:\n        /* \"#utility.yul\":59:65   */\n      0x00\n        /* \"#utility.yul\":93:98   */\n      dup2\n        /* \"#utility.yul\":87:99   */\n      mload\n        /* \"#utility.yul\":77:99   */\n      swap1\n      pop\n        /* \"#utility.yul\":7:106   */\n      swap2\n      swap1\n      pop\n      jump\t// out\n        /* \"#utility.yul\":112:281   */\n    tag_203:\n        /* \"#utility.yul\":196:207   */\n      0x00\n        /* \"#utility.yul\":230:236   */\n      dup3\n        /* \"#utility.yul\":225:228   */\n      dup3\n        /* \"#utility.yul\":218:237   */\n      mstore\n        /* \"#utility.yul\":270:274   */\n      0x20\n        /* \"#utility.yul\":265:268   */\n      dup3\n        /* \"#utility.yul\":261:275   */\n      add\n        /* \"#utility.yul\":246:275   */\n      swap1\n      pop\n        /* \"#utility.yul\":112:281   */\n      swap3\n      swap2\n      pop\n      pop\n      jump\t// out\n        /* \"#utility.yul\":287:426   */\n    tag_204:\n        /* \"#utility.yul\":376:382   */\n      dup3\n        /* \"#utility.yul\":371:374   */\n      dup2\n        /* \"#utility.yul\":366:369   */\n      dup4\n        /* \"#utility.yul\":360:383   */\n      mcopy\n        /* \"#utility.yul\":417:418   */\n      0x00\n        /* \"#utility.yul\":408:414   */\n      dup4\n        /* \"#utility.yul\":403:406   */\n      dup4\n        /* \"#utility.yul\":399:415   */\n      add\n        /* \"#utility.yul\":392:419   */\n      mstore\n        /* \"#utility.yul\":287:426   */\n      pop\n      pop\n      pop\n      jump\t// out\n        /* \"#utility.yul\":432:534   */\n    tag_205:\n        /* \"#utility.yul\":473:479   */\n      0x00\n        /* \"#utility.yul\":524:526   */\n      0x1f\n        /* \"#utility.yul\":520:527   */\n      not\n        /* \"#utility.yul\":515:517   */\n      0x1f\n        /* \"#utility.yul\":508:513   */\n      dup4\n        /* \"#utility.yul\":504:518   */\n      add\n        /* \"#utility.yul\":500:528   */\n      and\n        /* \"#utility.yul\":490:528   */\n      swap1\n      pop\n        /* \"#utility.yul\":432:534   */\n      swap2\n      swap1\n      pop\n      jump\t// out\n        /* \"#utility.yul\":540:917   */\n    tag_206:\n        /* \"#utility.yul\":628:631   */\n      0x00\n        /* \"#utility.yul\":656:695   */\n      tag_266\n        /* \"#utility.yul\":689:694   */\n      dup3\n        /* \"#utility.yul\":656:695   */\n      tag_202\n      jump\t// in\n    tag_266:\n        /* \"#utility.yul\":711:782   */\n      tag_267\n        /* \"#utility.yul\":775:781   */\n      dup2\n        /* \"#utility.yul\":770:773   */\n      dup6\n        /* \"#utility.yul\":711:782   */\n      tag_203\n      jump\t// in\n    tag_267:\n        /* \"#utility.yul\":704:782   */\n      swap4\n      pop\n        /* \"#utility.yul\":791:856   */\n      tag_268\n        /* \"#utility.yul\":849:855   */\n      dup2\n        /* \"#utility.yul\":844:847   */\n      dup6\n        /* \"#utility.yul\":837:841   */\n      0x20\n        /* \"#utility.yul\":830:835   */\n      dup7\n        /* \"#utility.yul\":826:842   */\n      add\n        /* \"#utility.yul\":791:856   */\n      tag_204\n      jump\t// in\n    tag_268:\n        /* \"#utility.yul\":881:910   */\n      tag_269\n        /* \"#utility.yul\":903:909   */\n      dup2\n        /* \"#utility.yul\":881:910   */\n      tag_205\n      jump\t// in\n    tag_269:\n        /* \"#utility.yul\":876:879   */\n      dup5\n        /* \"#utility.yul\":872:911   */\n      add\n        /* \"#utility.yul\":865:911   */\n      swap2\n      pop\n        /* \"#utility.yul\":632:917   */\n      pop\n        /* \"#utility.yul\":540:917   */\n      swap3\n      swap2\n      pop\n      pop\n      jump\t// out\n        /* \"#utility.yul\":923:1236   */\n    tag_26:\n        /* \"#utility.yul\":1036:1040   */\n      0x00\n        /* \"#utility.yul\":1074:1076   */\n      0x20\n        /* \"#utility.yul\":1063:1072   */\n      dup3\n        /* \"#utility.yul\":1059:1077   */\n      add\n        /* \"#utility.yul\":1051:1077   */\n      swap1\n      pop\n        /* \"#utility.yul\":1123:1132   */\n      dup2\n        /* \"#utility.yul\":1117:1121   */\n      dup2\n        /* \"#utility.yul\":1113:1133   */\n      sub\n        /* \"#utility.yul\":1109:1110   */\n      0x00\n        /* \"#utility.yul\":1098:1107   */\n      dup4\n        /* \"#utility.yul\":1094:1111   */\n      add\n        /* \"#utility.yul\":1087:1134   */\n      mstore\n        /* \"#utility.yul\":1151:1229   */\n      tag_271\n        /* \"#utility.yul\":1224:1228   */\n      dup2\n        /* \"#utility.yul\":1215:1221   */\n      dup5\n        /* \"#utility.yul\":1151:1229   */\n      tag_206\n      jump\t// in\n    tag_271:\n        /* \"#utility.yul\":1143:1229   */\n      swap1\n      pop\n        /* \"#utility.yul\":923:1236   */\n      swap3\n      swap2\n      pop\n      pop\n      jump\t// out\n        /* \"#utility.yul\":1323:1440   */\n    tag_208:\n        /* \"#utility.yul\":1432:1433   */\n      0x00\n        /* \"#utility.yul\":1429:1430   */\n      0x00\n        /* \"#utility.yul\":1422:1434   */\n      revert\n        /* \"#utility.yul\":1569:1695   */\n    tag_210:\n        /* \"#utility.yul\":1606:1613   */\n      0x00\n        /* \"#utility.yul\":1646:1688   */\n      0xffffffffffffffffffffffffffffffffffffffff\n        /* \"#utility.yul\":1639:1644   */\n      dup3\n        /* \"#utility.yul\":1635:1689   */\n      and\n        /* \"#utility.yul\":1624:1689   */\n      swap1\n      pop\n        /* \"#utility.yul\":1569:1695   */\n      swap2\n      swap1\n      pop\n      jump\t// out\n        /* \"#utility.yul\":1701:1797   */\n    tag_211:\n        /* \"#utility.yul\":1738:1745   */\n      0x00\n        /* \"#utility.yul\":1767:1791   */\n      tag_277\n        /* \"#utility.yul\":1785:1790   */\n      dup3\n        /* \"#utility.yul\":1767:1791   */\n      tag_210\n      jump\t// in\n    tag_277:\n        /* \"#utility.yul\":1756:1791   */\n      swap1\n      pop\n        /* \"#utility.yul\":1701:1797   */\n      swap2\n      swap1\n      pop\n      jump\t// out\n        /* \"#utility.yul\":1803:1925   */\n    tag_212:\n        /* \"#utility.yul\":1876:1900   */\n      tag_279\n        /* \"#utility.yul\":1894:1899   */\n      dup2\n        /* \"#utility.yul\":1876:1900   */\n      tag_211\n      jump\t// in\n    tag_279:\n        /* \"#utility.yul\":1869:1874   */\n      dup2\n        /* \"#utility.yul\":1866:1901   */\n      eq\n        /* \"#utility.yul\":1856:1919   */\n      tag_280\n      jumpi\n        /* \"#utility.yul\":1915:1916   */\n      0x00\n        /* \"#utility.yul\":1912:1913   */\n      0x00\n        /* \"#utility.yul\":1905:1917   */\n      revert\n        /* \"#utility.yul\":1856:1919   */\n    tag_280:\n        /* \"#utility.yul\":1803:1925   */\n      pop\n      jump\t// out\n        /* \"#utility.yul\":1931:2070   */\n    tag_213:\n        /* \"#utility.yul\":1977:1982   */\n      0x00\n        /* \"#utility.yul\":2015:2021   */\n      dup2\n        /* \"#utility.yul\":2002:2022   */\n      calldataload\n        /* \"#utility.yul\":1993:2022   */\n      swap1\n      pop\n        /* \"#utility.yul\":2031:2064   */\n      tag_282\n        /* \"#utility.yul\":2058:2063   */\n      dup2\n        /* \"#utility.yul\":2031:2064   */\n      tag_212\n      jump\t// in\n    tag_282:\n        /* \"#utility.yul\":1931:2070   */\n      swap3\n      swap2\n      pop\n      pop\n      jump\t// out\n        /* \"#utility.yul\":2076:2153   */\n    tag_214:\n        /* \"#utility.yul\":2113:2120   */\n      0x00\n        /* \"#utility.yul\":2142:2147   */\n      dup2\n        /* \"#utility.yul\":2131:2147   */\n      swap1\n      pop\n        /* \"#utility.yul\":2076:2153   */\n      swap2\n      swap1\n      pop\n      jump\t// out\n        /* \"#utility.yul\":2159:2281   */\n    tag_215:\n        /* \"#utility.yul\":2232:2256   */\n      tag_285\n        /* \"#utility.yul\":2250:2255   */\n      dup2\n        /* \"#utility.yul\":2232:2256   */\n      tag_214\n      jump\t// in\n    tag_285:\n        /* \"#utility.yul\":2225:2230   */\n      dup2\n        /* \"#utility.yul\":2222:2257   */\n      eq\n        /* \"#utility.yul\":2212:2275   */\n      tag_286\n      jumpi\n        /* \"#utility.yul\":2271:2272   */\n      0x00\n        /* \"#utility.yul\":2268:2269   */\n      0x00\n        /* \"#utility.yul\":2261:2273   */\n      revert\n        /* \"#utility.yul\":2212:2275   */\n    tag_286:\n        /* \"#utility.yul\":2159:2281   */\n      pop\n      jump\t// out\n        /* \"#utility.yul\":2287:2426   */\n    tag_216:\n        /* \"#utility.yul\":2333:2338   */\n      0x00\n        /* \"#utility.yul\":2371:2377   */\n      dup2\n        /* \"#utility.yul\":2358:2378   */\n      calldataload\n        /* \"#utility.yul\":2349:2378   */\n      swap1\n      pop\n        /* \"#utility.yul\":2387:2420   */\n      tag_288\n        /* \"#utility.yul\":2414:2419   */\n      dup2\n        /* \"#utility.yul\":2387:2420   */\n      tag_215\n      jump\t// in\n    tag_288:\n        /* \"#utility.yul\":2287:2426   */\n      swap3\n      swap2\n      pop\n      pop\n      jump\t// out\n        /* \"#utility.yul\":2432:2906   */\n    tag_29:\n        /* \"#utility.yul\":2500:2506   */\n      0x00\n        /* \"#utility.yul\":2508:2514   */\n      0x00\n        /* \"#utility.yul\":2557:2559   */\n      0x40\n        /* \"#utility.yul\":2545:2554   */\n      dup4\n        /* \"#utility.yul\":2536:2543   */\n      dup6\n        /* \"#utility.yul\":2532:2555   */\n      sub\n        /* \"#utility.yul\":2528:2560   */\n      slt\n        /* \"#utility.yul\":2525:2644   */\n      iszero\n      tag_290\n      jumpi\n        /* \"#utility.yul\":2563:2642   */\n      tag_291\n      tag_208\n      jump\t// in\n    tag_291:\n        /* \"#utility.yul\":2525:2644   */\n    tag_290:\n        /* \"#utility.yul\":2683:2684   */\n      0x00\n        /* \"#utility.yul\":2708:2761   */\n      tag_292\n        /* \"#utility.yul\":2753:2760   */\n      dup6\n        /* \"#utility.yul\":2744:2750   */\n      dup3\n        /* \"#utility.yul\":2733:2742   */\n      dup7\n        /* \"#utility.yul\":2729:2751   */\n      add\n        /* \"#utility.yul\":2708:2761   */\n      tag_213\n      jump\t// in\n    tag_292:\n        /* \"#utility.yul\":2698:2761   */\n      swap3\n      pop\n        /* \"#utility.yul\":2654:2771   */\n      pop\n        /* \"#utility.yul\":2810:2812   */\n      0x20\n        /* \"#utility.yul\":2836:2889   */\n      tag_293\n        /* \"#utility.yul\":2881:2888   */\n      dup6\n        /* \"#utility.yul\":2872:2878   */\n      dup3\n        /* \"#utility.yul\":2861:2870   */\n      dup7\n        /* \"#utility.yul\":2857:2879   */\n      add\n        /* \"#utility.yul\":2836:2889   */\n      tag_216\n      jump\t// in\n    tag_293:\n        /* \"#utility.yul\":2826:2889   */\n      swap2\n      pop\n        /* \"#utility.yul\":2781:2899   */\n      pop\n        /* \"#utility.yul\":2432:2906   */\n      swap3\n      pop\n      swap3\n      swap1\n      pop\n      jump\t// out\n        /* \"#utility.yul\":2912:3002   */\n    tag_217:\n        /* \"#utility.yul\":2946:2953   */\n      0x00\n        /* \"#utility.yul\":2989:2994   */\n      dup2\n        /* \"#utility.yul\":2982:2995   */\n      iszero\n        /* \"#utility.yul\":2975:2996   */\n      iszero\n        /* \"#utility.yul\":2964:2996   */\n      swap1\n      pop\n        /* \"#utility.yul\":2912:3002   */\n      swap2\n      swap1\n      pop\n      jump\t// out\n        /* \"#utility.yul\":3008:3117   */\n    tag_218:\n        /* \"#utility.yul\":3089:3110   */\n      tag_296\n        /* \"#utility.yul\":3104:3109   */\n      dup2\n        /* \"#utility.yul\":3089:3110   */\n      tag_217\n      jump\t// in\n    tag_296:\n        /* \"#utility.yul\":3084:3087   */\n      dup3\n        /* \"#utility.yul\":3077:3111   */\n      mstore\n        /* \"#utility.yul\":3008:3117   */\n      pop\n      pop\n      jump\t// out\n        /* \"#utility.yul\":3123:3333   */\n    tag_32:\n        /* \"#utility.yul\":3210:3214   */\n      0x00\n        /* \"#utility.yul\":3248:3250   */\n      0x20\n        /* \"#utility.yul\":3237:3246   */\n      dup3\n        /* \"#utility.yul\":3233:3251   */\n      add\n        /* \"#utility.yul\":3225:3251   */\n      swap1\n      pop\n        /* \"#utility.yul\":3261:3326   */\n      tag_298\n        /* \"#utility.yul\":3323:3324   */\n      0x00\n        /* \"#utility.yul\":3312:3321   */\n      dup4\n        /* \"#utility.yul\":3308:3325   */\n      add\n        /* \"#utility.yul\":3299:3305   */\n      dup5\n        /* \"#utility.yul\":3261:3326   */\n      tag_218\n      jump\t// in\n    tag_298:\n        /* \"#utility.yul\":3123:3333   */\n      swap3\n      swap2\n      pop\n      pop\n      jump\t// out\n        /* \"#utility.yul\":3339:3457   */\n    tag_219:\n        /* \"#utility.yul\":3426:3450   */\n      tag_300\n        /* \"#utility.yul\":3444:3449   */\n      dup2\n        /* \"#utility.yul\":3426:3450   */\n      tag_214\n      jump\t// in\n    tag_300:\n        /* \"#utility.yul\":3421:3424   */\n      dup3\n        /* \"#utility.yul\":3414:3451   */\n      mstore\n        /* \"#utility.yul\":3339:3457   */\n      pop\n      pop\n      jump\t// out\n        /* \"#utility.yul\":3463:3540   */\n    tag_220:\n        /* \"#utility.yul\":3500:3507   */\n      0x00\n        /* \"#utility.yul\":3529:3534   */\n      dup2\n        /* \"#utility.yul\":3518:3534   */\n      swap1\n      pop\n        /* \"#utility.yul\":3463:3540   */\n      swap2\n      swap1\n      pop\n      jump\t// out\n        /* \"#utility.yul\":3546:3664   */\n    tag_221:\n        /* \"#utility.yul\":3633:3657   */\n      tag_303\n        /* \"#utility.yul\":3651:3656   */\n      dup2\n        /* \"#utility.yul\":3633:3657   */\n      tag_220\n      jump\t// in\n    tag_303:\n        /* \"#utility.yul\":3628:3631   */\n      dup3\n        /* \"#utility.yul\":3621:3658   */\n      mstore\n        /* \"#utility.yul\":3546:3664   */\n      pop\n      pop\n      jump\t// out\n        /* \"#utility.yul\":3670:3746   */\n    tag_222:\n        /* \"#utility.yul\":3706:3713   */\n      0x00\n        /* \"#utility.yul\":3735:3740   */\n      dup2\n        /* \"#utility.yul\":3724:3740   */\n      swap1\n      pop\n        /* \"#utility.yul\":3670:3746   */\n      swap2\n      swap1\n      pop\n      jump\t// out\n        /* \"#utility.yul\":3752:3867   */\n    tag_223:\n        /* \"#utility.yul\":3837:3860   */\n      tag_306\n        /* \"#utility.yul\":3854:3859   */\n      dup2\n        /* \"#utility.yul\":3837:3860   */\n      tag_222\n      jump\t// in\n    tag_306:\n        /* \"#utility.yul\":3832:3835   */\n      dup3\n        /* \"#utility.yul\":3825:3861   */\n      mstore\n        /* \"#utility.yul\":3752:3867   */\n      pop\n      pop\n      jump\t// out\n        /* \"#utility.yul\":3873:4977   */\n    tag_37:\n        /* \"#utility.yul\":4188:4192   */\n      0x00\n        /* \"#utility.yul\":4226:4229   */\n      0x0120\n        /* \"#utility.yul\":4215:4224   */\n      dup3\n        /* \"#utility.yul\":4211:4230   */\n      add\n        /* \"#utility.yul\":4203:4230   */\n      swap1\n      pop\n        /* \"#utility.yul\":4240:4311   */\n      tag_308\n        /* \"#utility.yul\":4308:4309   */\n      0x00\n        /* \"#utility.yul\":4297:4306   */\n      dup4\n        /* \"#utility.yul\":4293:4310   */\n      add\n        /* \"#utility.yul\":4284:4290   */\n      dup13\n        /* \"#utility.yul\":4240:4311   */\n      tag_219\n      jump\t// in\n    tag_308:\n        /* \"#utility.yul\":4321:4393   */\n      tag_309\n        /* \"#utility.yul\":4389:4391   */\n      0x20\n        /* \"#utility.yul\":4378:4387   */\n      dup4\n        /* \"#utility.yul\":4374:4392   */\n      add\n        /* \"#utility.yul\":4365:4371   */\n      dup12\n        /* \"#utility.yul\":4321:4393   */\n      tag_219\n      jump\t// in\n    tag_309:\n        /* \"#utility.yul\":4403:4475   */\n      tag_310\n        /* \"#utility.yul\":4471:4473   */\n      0x40\n        /* \"#utility.yul\":4460:4469   */\n      dup4\n        /* \"#utility.yul\":4456:4474   */\n      add\n        /* \"#utility.yul\":4447:4453   */\n      dup11\n        /* \"#utility.yul\":4403:4475   */\n      tag_219\n      jump\t// in\n    tag_310:\n        /* \"#utility.yul\":4485:4557   */\n      tag_311\n        /* \"#utility.yul\":4553:4555   */\n      0x60\n        /* \"#utility.yul\":4542:4551   */\n      dup4\n        /* \"#utility.yul\":4538:4556   */\n      add\n        /* \"#utility.yul\":4529:4535   */\n      dup10\n        /* \"#utility.yul\":4485:4557   */\n      tag_219\n      jump\t// in\n    tag_311:\n        /* \"#utility.yul\":4567:4640   */\n      tag_312\n        /* \"#utility.yul\":4635:4638   */\n      0x80\n        /* \"#utility.yul\":4624:4633   */\n      dup4\n        /* \"#utility.yul\":4620:4639   */\n      add\n        /* \"#utility.yul\":4611:4617   */\n      dup9\n        /* \"#utility.yul\":4567:4640   */\n      tag_221\n      jump\t// in\n    tag_312:\n        /* \"#utility.yul\":4650:4721   */\n      tag_313\n        /* \"#utility.yul\":4716:4719   */\n      0xa0\n        /* \"#utility.yul\":4705:4714   */\n      dup4\n        /* \"#utility.yul\":4701:4720   */\n      add\n        /* \"#utility.yul\":4692:4698   */\n      dup8\n        /* \"#utility.yul\":4650:4721   */\n      tag_223\n      jump\t// in\n    tag_313:\n        /* \"#utility.yul\":4731:4804   */\n      tag_314\n        /* \"#utility.yul\":4799:4802   */\n      0xc0\n        /* \"#utility.yul\":4788:4797   */\n      dup4\n        /* \"#utility.yul\":4784:4803   */\n      add\n        /* \"#utility.yul\":4775:4781   */\n      dup7\n        /* \"#utility.yul\":4731:4804   */\n      tag_219\n      jump\t// in\n    tag_314:\n        /* \"#utility.yul\":4814:4887   */\n      tag_315\n        /* \"#utility.yul\":4882:4885   */\n      0xe0\n        /* \"#utility.yul\":4871:4880   */\n      dup4\n        /* \"#utility.yul\":4867:4886   */\n      add\n        /* \"#utility.yul\":4858:4864   */\n      dup6\n        /* \"#utility.yul\":4814:4887   */\n      tag_219\n      jump\t// in\n    tag_315:\n        /* \"#utility.yul\":4897:4970   */\n      tag_316\n        /* \"#utility.yul\":4965:4968   */\n      0x0100\n        /* \"#utility.yul\":4954:4963   */\n      dup4\n        /* \"#utility.yul\":4950:4969   */\n      add\n        /* \"#utility.yul\":4941:4947   */\n      dup5\n        /* \"#utility.yul\":4897:4970   */\n      tag_221\n      jump\t// in\n    tag_316:\n        /* \"#utility.yul\":3873:4977   */\n      swap11\n      swap10\n      pop\n      pop\n      pop\n      pop\n      pop\n      pop\n      pop\n      pop\n      pop\n      pop\n      jump\t// out\n        /* \"#utility.yul\":4983:5205   */\n    tag_41:\n        /* \"#utility.yul\":5076:5080   */\n      0x00\n        /* \"#utility.yul\":5114:5116   */\n      0x20\n        /* \"#utility.yul\":5103:5112   */\n      dup3\n        /* \"#utility.yul\":5099:5117   */\n      add\n        /* \"#utility.yul\":5091:5117   */\n      swap1\n      pop\n        /* \"#utility.yul\":5127:5198   */\n      tag_318\n        /* \"#utility.yul\":5195:5196   */\n      0x00\n        /* \"#utility.yul\":5184:5193   */\n      dup4\n        /* \"#utility.yul\":5180:5197   */\n      add\n        /* \"#utility.yul\":5171:5177   */\n      dup5\n        /* \"#utility.yul\":5127:5198   */\n      tag_219\n      jump\t// in\n    tag_318:\n        /* \"#utility.yul\":4983:5205   */\n      swap3\n      swap2\n      pop\n      pop\n      jump\t// out\n        /* \"#utility.yul\":5211:5830   */\n    tag_44:\n        /* \"#utility.yul\":5288:5294   */\n      0x00\n        /* \"#utility.yul\":5296:5302   */\n      0x00\n        /* \"#utility.yul\":5304:5310   */\n      0x00\n        /* \"#utility.yul\":5353:5355   */\n      0x60\n        /* \"#utility.yul\":5341:5350   */\n      dup5\n        /* \"#utility.yul\":5332:5339   */\n      dup7\n        /* \"#utility.yul\":5328:5351   */\n      sub\n        /* \"#utility.yul\":5324:5356   */\n      slt\n        /* \"#utility.yul\":5321:5440   */\n      iszero\n      tag_320\n      jumpi\n        /* \"#utility.yul\":5359:5438   */\n      tag_321\n      tag_208\n      jump\t// in\n    tag_321:\n        /* \"#utility.yul\":5321:5440   */\n    tag_320:\n        /* \"#utility.yul\":5479:5480   */\n      0x00\n        /* \"#utility.yul\":5504:5557   */\n      tag_322\n        /* \"#utility.yul\":5549:5556   */\n      dup7\n        /* \"#utility.yul\":5540:5546   */\n      dup3\n        /* \"#utility.yul\":5529:5538   */\n      dup8\n        /* \"#utility.yul\":5525:5547   */\n      add\n        /* \"#utility.yul\":5504:5557   */\n      tag_213\n      jump\t// in\n    tag_322:\n        /* \"#utility.yul\":5494:5557   */\n      swap4\n      pop\n        /* \"#utility.yul\":5450:5567   */\n      pop\n        /* \"#utility.yul\":5606:5608   */\n      0x20\n        /* \"#utility.yul\":5632:5685   */\n      tag_323\n        /* \"#utility.yul\":5677:5684   */\n      dup7\n        /* \"#utility.yul\":5668:5674   */\n      dup3\n        /* \"#utility.yul\":5657:5666   */\n      dup8\n        /* \"#utility.yul\":5653:5675   */\n      add\n        /* \"#utility.yul\":5632:5685   */\n      tag_213\n      jump\t// in\n    tag_323:\n        /* \"#utility.yul\":5622:5685   */\n      swap3\n      pop\n        /* \"#utility.yul\":5577:5695   */\n      pop\n        /* \"#utility.yul\":5734:5736   */\n      0x40\n        /* \"#utility.yul\":5760:5813   */\n      tag_324\n        /* \"#utility.yul\":5805:5812   */\n      dup7\n        /* \"#utility.yul\":5796:5802   */\n      dup3\n        /* \"#utility.yul\":5785:5794   */\n      dup8\n        /* \"#utility.yul\":5781:5803   */\n      add\n        /* \"#utility.yul\":5760:5813   */\n      tag_216\n      jump\t// in\n    tag_324:\n        /* \"#utility.yul\":5750:5813   */\n      swap2\n      pop\n        /* \"#utility.yul\":5705:5823   */\n      pop\n        /* \"#utility.yul\":5211:5830   */\n      swap3\n      pop\n      swap3\n      pop\n      swap3\n      jump\t// out\n        /* \"#utility.yul\":5836:5922   */\n    tag_224:\n        /* \"#utility.yul\":5871:5878   */\n      0x00\n        /* \"#utility.yul\":5911:5915   */\n      0xff\n        /* \"#utility.yul\":5904:5909   */\n      dup3\n        /* \"#utility.yul\":5900:5916   */\n      and\n        /* \"#utility.yul\":5889:5916   */\n      swap1\n      pop\n        /* \"#utility.yul\":5836:5922   */\n      swap2\n      swap1\n      pop\n      jump\t// out\n        /* \"#utility.yul\":5928:6040   */\n    tag_225:\n        /* \"#utility.yul\":6011:6033   */\n      tag_327\n        /* \"#utility.yul\":6027:6032   */\n      dup2\n        /* \"#utility.yul\":6011:6033   */\n      tag_224\n      jump\t// in\n    tag_327:\n        /* \"#utility.yul\":6006:6009   */\n      dup3\n        /* \"#utility.yul\":5999:6034   */\n      mstore\n        /* \"#utility.yul\":5928:6040   */\n      pop\n      pop\n      jump\t// out\n        /* \"#utility.yul\":6046:6260   */\n    tag_50:\n        /* \"#utility.yul\":6135:6139   */\n      0x00\n        /* \"#utility.yul\":6173:6175   */\n      0x20\n        /* \"#utility.yul\":6162:6171   */\n      dup3\n        /* \"#utility.yul\":6158:6176   */\n      add\n        /* \"#utility.yul\":6150:6176   */\n      swap1\n      pop\n        /* \"#utility.yul\":6186:6253   */\n      tag_329\n        /* \"#utility.yul\":6250:6251   */\n      0x00\n        /* \"#utility.yul\":6239:6248   */\n      dup4\n        /* \"#utility.yul\":6235:6252   */\n      add\n        /* \"#utility.yul\":6226:6232   */\n      dup5\n        /* \"#utility.yul\":6186:6253   */\n      tag_225\n      jump\t// in\n    tag_329:\n        /* \"#utility.yul\":6046:6260   */\n      swap3\n      swap2\n      pop\n      pop\n      jump\t// out\n        /* \"#utility.yul\":6266:6595   */\n    tag_53:\n        /* \"#utility.yul\":6325:6331   */\n      0x00\n        /* \"#utility.yul\":6374:6376   */\n      0x20\n        /* \"#utility.yul\":6362:6371   */\n      dup3\n        /* \"#utility.yul\":6353:6360   */\n      dup5\n        /* \"#utility.yul\":6349:6372   */\n      sub\n        /* \"#utility.yul\":6345:6377   */\n      slt\n        /* \"#utility.yul\":6342:6461   */\n      iszero\n      tag_331\n      jumpi\n        /* \"#utility.yul\":6380:6459   */\n      tag_332\n      tag_208\n      jump\t// in\n    tag_332:\n        /* \"#utility.yul\":6342:6461   */\n    tag_331:\n        /* \"#utility.yul\":6500:6501   */\n      0x00\n        /* \"#utility.yul\":6525:6578   */\n      tag_333\n        /* \"#utility.yul\":6570:6577   */\n      dup5\n        /* \"#utility.yul\":6561:6567   */\n      dup3\n        /* \"#utility.yul\":6550:6559   */\n      dup6\n        /* \"#utility.yul\":6546:6568   */\n      add\n        /* \"#utility.yul\":6525:6578   */\n      tag_213\n      jump\t// in\n    tag_333:\n        /* \"#utility.yul\":6515:6578   */\n      swap2\n      pop\n        /* \"#utility.yul\":6471:6588   */\n      pop\n        /* \"#utility.yul\":6266:6595   */\n      swap3\n      swap2\n      pop\n      pop\n      jump\t// out\n        /* \"#utility.yul\":6601:6661   */\n    tag_226:\n        /* \"#utility.yul\":6629:6632   */\n      0x00\n        /* \"#utility.yul\":6650:6655   */\n      dup2\n        /* \"#utility.yul\":6643:6655   */\n      swap1\n      pop\n        /* \"#utility.yul\":6601:6661   */\n      swap2\n      swap1\n      pop\n      jump\t// out\n        /* \"#utility.yul\":6667:6809   */\n    tag_227:\n        /* \"#utility.yul\":6717:6726   */\n      0x00\n        /* \"#utility.yul\":6750:6803   */\n      tag_336\n        /* \"#utility.yul\":6768:6802   */\n      tag_337\n        /* \"#utility.yul\":6777:6801   */\n      tag_338\n        /* \"#utility.yul\":6795:6800   */\n      dup5\n        /* \"#utility.yul\":6777:6801   */\n      tag_210\n      jump\t// in\n    tag_338:\n        /* \"#utility.yul\":6768:6802   */\n      tag_226\n      jump\t// in\n    tag_337:\n        /* \"#utility.yul\":6750:6803   */\n      tag_210\n      jump\t// in\n    tag_336:\n        /* \"#utility.yul\":6737:6803   */\n      swap1\n      pop\n        /* \"#utility.yul\":6667:6809   */\n      swap2\n      swap1\n      pop\n      jump\t// out\n        /* \"#utility.yul\":6815:6941   */\n    tag_228:\n        /* \"#utility.yul\":6865:6874   */\n      0x00\n        /* \"#utility.yul\":6898:6935   */\n      tag_340\n        /* \"#utility.yul\":6929:6934   */\n      dup3\n        /* \"#utility.yul\":6898:6935   */\n      tag_227\n      jump\t// in\n    tag_340:\n        /* \"#utility.yul\":6885:6935   */\n      swap1\n      pop\n        /* \"#utility.yul\":6815:6941   */\n      swap2\n      swap1\n      pop\n      jump\t// out\n        /* \"#utility.yul\":6947:7095   */\n    tag_229:\n        /* \"#utility.yul\":7019:7028   */\n      0x00\n        /* \"#utility.yul\":7052:7089   */\n      tag_342\n        /* \"#utility.yul\":7083:7088   */\n      dup3\n        /* \"#utility.yul\":7052:7089   */\n      tag_228\n      jump\t// in\n    tag_342:\n        /* \"#utility.yul\":7039:7089   */\n      swap1\n      pop\n        /* \"#utility.yul\":6947:7095   */\n      swap2\n      swap1\n      pop\n      jump\t// out\n        /* \"#utility.yul\":7101:7276   */\n    tag_230:\n        /* \"#utility.yul\":7210:7269   */\n      tag_344\n        /* \"#utility.yul\":7263:7268   */\n      dup2\n        /* \"#utility.yul\":7210:7269   */\n      tag_229\n      jump\t// in\n    tag_344:\n        /* \"#utility.yul\":7205:7208   */\n      dup3\n        /* \"#utility.yul\":7198:7270   */\n      mstore\n        /* \"#utility.yul\":7101:7276   */\n      pop\n      pop\n      jump\t// out\n        /* \"#utility.yul\":7282:7548   */\n    tag_59:\n        /* \"#utility.yul\":7397:7401   */\n      0x00\n        /* \"#utility.yul\":7435:7437   */\n      0x20\n        /* \"#utility.yul\":7424:7433   */\n      dup3\n        /* \"#utility.yul\":7420:7438   */\n      add\n        /* \"#utility.yul\":7412:7438   */\n      swap1\n      pop\n        /* \"#utility.yul\":7448:7541   */\n      tag_346\n        /* \"#utility.yul\":7538:7539   */\n      0x00\n        /* \"#utility.yul\":7527:7536   */\n      dup4\n        /* \"#utility.yul\":7523:7540   */\n      add\n        /* \"#utility.yul\":7514:7520   */\n      dup5\n        /* \"#utility.yul\":7448:7541   */\n      tag_230\n      jump\t// in\n    tag_346:\n        /* \"#utility.yul\":7282:7548   */\n      swap3\n      swap2\n      pop\n      pop\n      jump\t// out\n        /* \"#utility.yul\":7554:7676   */\n    tag_231:\n        /* \"#utility.yul\":7627:7651   */\n      tag_348\n        /* \"#utility.yul\":7645:7650   */\n      dup2\n        /* \"#utility.yul\":7627:7651   */\n      tag_220\n      jump\t// in\n    tag_348:\n        /* \"#utility.yul\":7620:7625   */\n      dup2\n        /* \"#utility.yul\":7617:7652   */\n      eq\n        /* \"#utility.yul\":7607:7670   */\n      tag_349\n      jumpi\n        /* \"#utility.yul\":7666:7667   */\n      0x00\n        /* \"#utility.yul\":7663:7664   */\n      0x00\n        /* \"#utility.yul\":7656:7668   */\n      revert\n        /* \"#utility.yul\":7607:7670   */\n    tag_349:\n        /* \"#utility.yul\":7554:7676   */\n      pop\n      jump\t// out\n        /* \"#utility.yul\":7682:7821   */\n    tag_232:\n        /* \"#utility.yul\":7728:7733   */\n      0x00\n        /* \"#utility.yul\":7766:7772   */\n      dup2\n        /* \"#utility.yul\":7753:7773   */\n      calldataload\n        /* \"#utility.yul\":7744:7773   */\n      swap1\n      pop\n        /* \"#utility.yul\":7782:7815   */\n      tag_351\n        /* \"#utility.yul\":7809:7814   */\n      dup2\n        /* \"#utility.yul\":7782:7815   */\n      tag_231\n      jump\t// in\n    tag_351:\n        /* \"#utility.yul\":7682:7821   */\n      swap3\n      swap2\n      pop\n      pop\n      jump\t// out\n        /* \"#utility.yul\":7827:8884   */\n    tag_62:\n        /* \"#utility.yul\":7931:7937   */\n      0x00\n        /* \"#utility.yul\":7939:7945   */\n      0x00\n        /* \"#utility.yul\":7947:7953   */\n      0x00\n        /* \"#utility.yul\":7955:7961   */\n      0x00\n        /* \"#utility.yul\":7963:7969   */\n      0x00\n        /* \"#utility.yul\":7971:7977   */\n      0x00\n        /* \"#utility.yul\":8020:8023   */\n      0xc0\n        /* \"#utility.yul\":8008:8017   */\n      dup8\n        /* \"#utility.yul\":7999:8006   */\n      dup10\n        /* \"#utility.yul\":7995:8018   */\n      sub\n        /* \"#utility.yul\":7991:8024   */\n      slt\n        /* \"#utility.yul\":7988:8108   */\n      iszero\n      tag_353\n      jumpi\n        /* \"#utility.yul\":8027:8106   */\n      tag_354\n      tag_208\n      jump\t// in\n    tag_354:\n        /* \"#utility.yul\":7988:8108   */\n    tag_353:\n        /* \"#utility.yul\":8147:8148   */\n      0x00\n        /* \"#utility.yul\":8172:8225   */\n      tag_355\n        /* \"#utility.yul\":8217:8224   */\n      dup10\n        /* \"#utility.yul\":8208:8214   */\n      dup3\n        /* \"#utility.yul\":8197:8206   */\n      dup11\n        /* \"#utility.yul\":8193:8215   */\n      add\n        /* \"#utility.yul\":8172:8225   */\n      tag_213\n      jump\t// in\n    tag_355:\n        /* \"#utility.yul\":8162:8225   */\n      swap7\n      pop\n        /* \"#utility.yul\":8118:8235   */\n      pop\n        /* \"#utility.yul\":8274:8276   */\n      0x20\n        /* \"#utility.yul\":8300:8353   */\n      tag_356\n        /* \"#utility.yul\":8345:8352   */\n      dup10\n        /* \"#utility.yul\":8336:8342   */\n      dup3\n        /* \"#utility.yul\":8325:8334   */\n      dup11\n        /* \"#utility.yul\":8321:8343   */\n      add\n        /* \"#utility.yul\":8300:8353   */\n      tag_216\n      jump\t// in\n    tag_356:\n        /* \"#utility.yul\":8290:8353   */\n      swap6\n      pop\n        /* \"#utility.yul\":8245:8363   */\n      pop\n        /* \"#utility.yul\":8402:8404   */\n      0x40\n        /* \"#utility.yul\":8428:8481   */\n      tag_357\n        /* \"#utility.yul\":8473:8480   */\n      dup10\n        /* \"#utility.yul\":8464:8470   */\n      dup3\n        /* \"#utility.yul\":8453:8462   */\n      dup11\n        /* \"#utility.yul\":8449:8471   */\n      add\n        /* \"#utility.yul\":8428:8481   */\n      tag_216\n      jump\t// in\n    tag_357:\n        /* \"#utility.yul\":8418:8481   */\n      swap5\n      pop\n        /* \"#utility.yul\":8373:8491   */\n      pop\n        /* \"#utility.yul\":8530:8532   */\n      0x60\n        /* \"#utility.yul\":8556:8609   */\n      tag_358\n        /* \"#utility.yul\":8601:8608   */\n      dup10\n        /* \"#utility.yul\":8592:8598   */\n      dup3\n        /* \"#utility.yul\":8581:8590   */\n      dup11\n        /* \"#utility.yul\":8577:8599   */\n      add\n        /* \"#utility.yul\":8556:8609   */\n      tag_216\n      jump\t// in\n    tag_358:\n        /* \"#utility.yul\":8546:8609   */\n      swap4\n      pop\n        /* \"#utility.yul\":8501:8619   */\n      pop\n        /* \"#utility.yul\":8658:8661   */\n      0x80\n        /* \"#utility.yul\":8685:8738   */\n      tag_359\n        /* \"#utility.yul\":8730:8737   */\n      dup10\n        /* \"#utility.yul\":8721:8727   */\n      dup3\n        /* \"#utility.yul\":8710:8719   */\n      dup11\n        /* \"#utility.yul\":8706:8728   */\n      add\n        /* \"#utility.yul\":8685:8738   */\n      tag_232\n      jump\t// in\n    tag_359:\n        /* \"#utility.yul\":8675:8738   */\n      swap3\n      pop\n        /* \"#utility.yul\":8629:8748   */\n      pop\n        /* \"#utility.yul\":8787:8790   */\n      0xa0\n        /* \"#utility.yul\":8814:8867   */\n      tag_360\n        /* \"#utility.yul\":8859:8866   */\n      dup10\n        /* \"#utility.yul\":8850:8856   */\n      dup3\n        /* \"#utility.yul\":8839:8848   */\n      dup11\n        /* \"#utility.yul\":8835:8857   */\n      add\n        /* \"#utility.yul\":8814:8867   */\n      tag_232\n      jump\t// in\n    tag_360:\n        /* \"#utility.yul\":8804:8867   */\n      swap2\n      pop\n        /* \"#utility.yul\":8758:8877   */\n      pop\n        /* \"#utility.yul\":7827:8884   */\n      swap3\n      swap6\n      pop\n      swap3\n      swap6\n      pop\n      swap3\n      swap6\n      jump\t// out\n        /* \"#utility.yul\":8890:9219   */\n    tag_66:\n        /* \"#utility.yul\":8949:8955   */\n      0x00\n        /* \"#utility.yul\":8998:9000   */\n      0x20\n        /* \"#utility.yul\":8986:8995   */\n      dup3\n        /* \"#utility.yul\":8977:8984   */\n      dup5\n        /* \"#utility.yul\":8973:8996   */\n      sub\n        /* \"#utility.yul\":8969:9001   */\n      slt\n        /* \"#utility.yul\":8966:9085   */\n      iszero\n      tag_362\n      jumpi\n        /* \"#utility.yul\":9004:9083   */\n      tag_363\n      tag_208\n      jump\t// in\n    tag_363:\n        /* \"#utility.yul\":8966:9085   */\n    tag_362:\n        /* \"#utility.yul\":9124:9125   */\n      0x00\n        /* \"#utility.yul\":9149:9202   */\n      tag_364\n        /* \"#utility.yul\":9194:9201   */\n      dup5\n        /* \"#utility.yul\":9185:9191   */\n      dup3\n        /* \"#utility.yul\":9174:9183   */\n      dup6\n        /* \"#utility.yul\":9170:9192   */\n      add\n        /* \"#utility.yul\":9149:9202   */\n      tag_232\n      jump\t// in\n    tag_364:\n        /* \"#utility.yul\":9139:9202   */\n      swap2\n      pop\n        /* \"#utility.yul\":9095:9212   */\n      pop\n        /* \"#utility.yul\":8890:9219   */\n      swap3\n      swap2\n      pop\n      pop\n      jump\t// out\n        /* \"#utility.yul\":9225:9343   */\n    tag_233:\n        /* \"#utility.yul\":9312:9336   */\n      tag_366\n        /* \"#utility.yul\":9330:9335   */\n      dup2\n        /* \"#utility.yul\":9312:9336   */\n      tag_211\n      jump\t// in\n    tag_366:\n        /* \"#utility.yul\":9307:9310   */\n      dup3\n        /* \"#utility.yul\":9300:9337   */\n      mstore\n        /* \"#utility.yul\":9225:9343   */\n      pop\n      pop\n      jump\t// out\n        /* \"#utility.yul\":9349:9571   */\n    tag_72:\n        /* \"#utility.yul\":9442:9446   */\n      0x00\n        /* \"#utility.yul\":9480:9482   */\n      0x20\n        /* \"#utility.yul\":9469:9478   */\n      dup3\n        /* \"#utility.yul\":9465:9483   */\n      add\n        /* \"#utility.yul\":9457:9483   */\n      swap1\n      pop\n        /* \"#utility.yul\":9493:9564   */\n      tag_368\n        /* \"#utility.yul\":9561:9562   */\n      0x00\n        /* \"#utility.yul\":9550:9559   */\n      dup4\n        /* \"#utility.yul\":9546:9563   */\n      add\n        /* \"#utility.yul\":9537:9543   */\n      dup5\n        /* \"#utility.yul\":9493:9564   */\n      tag_233\n      jump\t// in\n    tag_368:\n        /* \"#utility.yul\":9349:9571   */\n      swap3\n      swap2\n      pop\n      pop\n      jump\t// out\n        /* \"#utility.yul\":9577:10051   */\n    tag_82:\n        /* \"#utility.yul\":9645:9651   */\n      0x00\n        /* \"#utility.yul\":9653:9659   */\n      0x00\n        /* \"#utility.yul\":9702:9704   */\n      0x40\n        /* \"#utility.yul\":9690:9699   */\n      dup4\n        /* \"#utility.yul\":9681:9688   */\n      dup6\n        /* \"#utility.yul\":9677:9700   */\n      sub\n        /* \"#utility.yul\":9673:9705   */\n      slt\n        /* \"#utility.yul\":9670:9789   */\n      iszero\n      tag_370\n      jumpi\n        /* \"#utility.yul\":9708:9787   */\n      tag_371\n      tag_208\n      jump\t// in\n    tag_371:\n        /* \"#utility.yul\":9670:9789   */\n    tag_370:\n        /* \"#utility.yul\":9828:9829   */\n      0x00\n        /* \"#utility.yul\":9853:9906   */\n      tag_372\n        /* \"#utility.yul\":9898:9905   */\n      dup6\n        /* \"#utility.yul\":9889:9895   */\n      dup3\n        /* \"#utility.yul\":9878:9887   */\n      dup7\n        /* \"#utility.yul\":9874:9896   */\n      add\n        /* \"#utility.yul\":9853:9906   */\n      tag_213\n      jump\t// in\n    tag_372:\n        /* \"#utility.yul\":9843:9906   */\n      swap3\n      pop\n        /* \"#utility.yul\":9799:9916   */\n      pop\n        /* \"#utility.yul\":9955:9957   */\n      0x20\n        /* \"#utility.yul\":9981:10034   */\n      tag_373\n        /* \"#utility.yul\":10026:10033   */\n      dup6\n        /* \"#utility.yul\":10017:10023   */\n      dup3\n        /* \"#utility.yul\":10006:10015   */\n      dup7\n        /* \"#utility.yul\":10002:10024   */\n      add\n        /* \"#utility.yul\":9981:10034   */\n      tag_213\n      jump\t// in\n    tag_373:\n        /* \"#utility.yul\":9971:10034   */\n      swap2\n      pop\n        /* \"#utility.yul\":9926:10044   */\n      pop\n        /* \"#utility.yul\":9577:10051   */\n      swap3\n      pop\n      swap3\n      swap1\n      pop\n      jump\t// out\n        /* \"#utility.yul\":10057:10165   */\n    tag_234:\n        /* \"#utility.yul\":10134:10158   */\n      tag_375\n        /* \"#utility.yul\":10152:10157   */\n      dup2\n        /* \"#utility.yul\":10134:10158   */\n      tag_214\n      jump\t// in\n    tag_375:\n        /* \"#utility.yul\":10129:10132   */\n      dup3\n        /* \"#utility.yul\":10122:10159   */\n      mstore\n        /* \"#utility.yul\":10057:10165   */\n      pop\n      pop\n      jump\t// out\n        /* \"#utility.yul\":10171:10279   */\n    tag_235:\n        /* \"#utility.yul\":10248:10272   */\n      tag_377\n        /* \"#utility.yul\":10266:10271   */\n      dup2\n        /* \"#utility.yul\":10248:10272   */\n      tag_220\n      jump\t// in\n    tag_377:\n        /* \"#utility.yul\":10243:10246   */\n      dup3\n        /* \"#utility.yul\":10236:10273   */\n      mstore\n        /* \"#utility.yul\":10171:10279   */\n      pop\n      pop\n      jump\t// out\n        /* \"#utility.yul\":10285:10390   */\n    tag_236:\n        /* \"#utility.yul\":10360:10383   */\n      tag_379\n        /* \"#utility.yul\":10377:10382   */\n      dup2\n        /* \"#utility.yul\":10360:10383   */\n      tag_222\n      jump\t// in\n    tag_379:\n        /* \"#utility.yul\":10355:10358   */\n      dup3\n        /* \"#utility.yul\":10348:10384   */\n      mstore\n        /* \"#utility.yul\":10285:10390   */\n      pop\n      pop\n      jump\t// out\n        /* \"#utility.yul\":10484:12266   */\n    tag_237:\n        /* \"#utility.yul\":10639:10645   */\n      0x0120\n        /* \"#utility.yul\":10634:10637   */\n      dup3\n        /* \"#utility.yul\":10630:10646   */\n      add\n        /* \"#utility.yul\":10733:10737   */\n      0x00\n        /* \"#utility.yul\":10726:10731   */\n      dup3\n        /* \"#utility.yul\":10722:10738   */\n      add\n        /* \"#utility.yul\":10716:10739   */\n      mload\n        /* \"#utility.yul\":10752:10815   */\n      tag_381\n        /* \"#utility.yul\":10809:10813   */\n      0x00\n        /* \"#utility.yul\":10804:10807   */\n      dup6\n        /* \"#utility.yul\":10800:10814   */\n      add\n        /* \"#utility.yul\":10786:10798   */\n      dup3\n        /* \"#utility.yul\":10752:10815   */\n      tag_234\n      jump\t// in\n    tag_381:\n        /* \"#utility.yul\":10656:10825   */\n      pop\n        /* \"#utility.yul\":10910:10914   */\n      0x20\n        /* \"#utility.yul\":10903:10908   */\n      dup3\n        /* \"#utility.yul\":10899:10915   */\n      add\n        /* \"#utility.yul\":10893:10916   */\n      mload\n        /* \"#utility.yul\":10929:10992   */\n      tag_382\n        /* \"#utility.yul\":10986:10990   */\n      0x20\n        /* \"#utility.yul\":10981:10984   */\n      dup6\n        /* \"#utility.yul\":10977:10991   */\n      add\n        /* \"#utility.yul\":10963:10975   */\n      dup3\n        /* \"#utility.yul\":10929:10992   */\n      tag_234\n      jump\t// in\n    tag_382:\n        /* \"#utility.yul\":10835:11002   */\n      pop\n        /* \"#utility.yul\":11090:11094   */\n      0x40\n        /* \"#utility.yul\":11083:11088   */\n      dup3\n        /* \"#utility.yul\":11079:11095   */\n      add\n        /* \"#utility.yul\":11073:11096   */\n      mload\n        /* \"#utility.yul\":11109:11172   */\n      tag_383\n        /* \"#utility.yul\":11166:11170   */\n      0x40\n        /* \"#utility.yul\":11161:11164   */\n      dup6\n        /* \"#utility.yul\":11157:11171   */\n      add\n        /* \"#utility.yul\":11143:11155   */\n      dup3\n        /* \"#utility.yul\":11109:11172   */\n      tag_234\n      jump\t// in\n    tag_383:\n        /* \"#utility.yul\":11012:11182   */\n      pop\n        /* \"#utility.yul\":11265:11269   */\n      0x60\n        /* \"#utility.yul\":11258:11263   */\n      dup3\n        /* \"#utility.yul\":11254:11270   */\n      add\n        /* \"#utility.yul\":11248:11271   */\n      mload\n        /* \"#utility.yul\":11284:11347   */\n      tag_384\n        /* \"#utility.yul\":11341:11345   */\n      0x60\n        /* \"#utility.yul\":11336:11339   */\n      dup6\n        /* \"#utility.yul\":11332:11346   */\n      add\n        /* \"#utility.yul\":11318:11330   */\n      dup3\n        /* \"#utility.yul\":11284:11347   */\n      tag_234\n      jump\t// in\n    tag_384:\n        /* \"#utility.yul\":11192:11357   */\n      pop\n        /* \"#utility.yul\":11443:11447   */\n      0x80\n        /* \"#utility.yul\":11436:11441   */\n      dup3\n        /* \"#utility.yul\":11432:11448   */\n      add\n        /* \"#utility.yul\":11426:11449   */\n      mload\n        /* \"#utility.yul\":11462:11525   */\n      tag_385\n        /* \"#utility.yul\":11519:11523   */\n      0x80\n        /* \"#utility.yul\":11514:11517   */\n      dup6\n        /* \"#utility.yul\":11510:11524   */\n      add\n        /* \"#utility.yul\":11496:11508   */\n      dup3\n        /* \"#utility.yul\":11462:11525   */\n      tag_235\n      jump\t// in\n    tag_385:\n        /* \"#utility.yul\":11367:11535   */\n      pop\n        /* \"#utility.yul\":11624:11628   */\n      0xa0\n        /* \"#utility.yul\":11617:11622   */\n      dup3\n        /* \"#utility.yul\":11613:11629   */\n      add\n        /* \"#utility.yul\":11607:11630   */\n      mload\n        /* \"#utility.yul\":11643:11704   */\n      tag_386\n        /* \"#utility.yul\":11698:11702   */\n      0xa0\n        /* \"#utility.yul\":11693:11696   */\n      dup6\n        /* \"#utility.yul\":11689:11703   */\n      add\n        /* \"#utility.yul\":11675:11687   */\n      dup3\n        /* \"#utility.yul\":11643:11704   */\n      tag_236\n      jump\t// in\n    tag_386:\n        /* \"#utility.yul\":11545:11714   */\n      pop\n        /* \"#utility.yul\":11804:11808   */\n      0xc0\n        /* \"#utility.yul\":11797:11802   */\n      dup3\n        /* \"#utility.yul\":11793:11809   */\n      add\n        /* \"#utility.yul\":11787:11810   */\n      mload\n        /* \"#utility.yul\":11823:11886   */\n      tag_387\n        /* \"#utility.yul\":11880:11884   */\n      0xc0\n        /* \"#utility.yul\":11875:11878   */\n      dup6\n        /* \"#utility.yul\":11871:11885   */\n      add\n        /* \"#utility.yul\":11857:11869   */\n      dup3\n        /* \"#utility.yul\":11823:11886   */\n      tag_234\n      jump\t// in\n    tag_387:\n        /* \"#utility.yul\":11724:11896   */\n      pop\n        /* \"#utility.yul\":11986:11990   */\n      0xe0\n        /* \"#utility.yul\":11979:11984   */\n      dup3\n        /* \"#utility.yul\":11975:11991   */\n      add\n        /* \"#utility.yul\":11969:11992   */\n      mload\n        /* \"#utility.yul\":12005:12068   */\n      tag_388\n        /* \"#utility.yul\":12062:12066   */\n      0xe0\n        /* \"#utility.yul\":12057:12060   */\n      dup6\n        /* \"#utility.yul\":12053:12067   */\n      add\n        /* \"#utility.yul\":12039:12051   */\n      dup3\n        /* \"#utility.yul\":12005:12068   */\n      tag_234\n      jump\t// in\n    tag_388:\n        /* \"#utility.yul\":11906:12078   */\n      pop\n        /* \"#utility.yul\":12163:12169   */\n      0x0100\n        /* \"#utility.yul\":12156:12161   */\n      dup3\n        /* \"#utility.yul\":12152:12170   */\n      add\n        /* \"#utility.yul\":12146:12171   */\n      mload\n        /* \"#utility.yul\":12184:12249   */\n      tag_389\n        /* \"#utility.yul\":12241:12247   */\n      0x0100\n        /* \"#utility.yul\":12236:12239   */\n      dup6\n        /* \"#utility.yul\":12232:12248   */\n      add\n        /* \"#utility.yul\":12218:12230   */\n      dup3\n        /* \"#utility.yul\":12184:12249   */\n      tag_235\n      jump\t// in\n    tag_389:\n        /* \"#utility.yul\":12088:12259   */\n      pop\n        /* \"#utility.yul\":10608:12266   */\n      pop\n        /* \"#utility.yul\":10484:12266   */\n      pop\n      pop\n      jump\t// out\n        /* \"#utility.yul\":12272:12611   */\n    tag_93:\n        /* \"#utility.yul\":12423:12427   */\n      0x00\n        /* \"#utility.yul\":12461:12464   */\n      0x0120\n        /* \"#utility.yul\":12450:12459   */\n      dup3\n        /* \"#utility.yul\":12446:12465   */\n      add\n        /* \"#utility.yul\":12438:12465   */\n      swap1\n      pop\n        /* \"#utility.yul\":12475:12604   */\n      tag_391\n        /* \"#utility.yul\":12601:12602   */\n      0x00\n        /* \"#utility.yul\":12590:12599   */\n      dup4\n        /* \"#utility.yul\":12586:12603   */\n      add\n        /* \"#utility.yul\":12577:12583   */\n      dup5\n        /* \"#utility.yul\":12475:12604   */\n      tag_237\n      jump\t// in\n    tag_391:\n        /* \"#utility.yul\":12272:12611   */\n      swap3\n      swap2\n      pop\n      pop\n      jump\t// out\n        /* \"#utility.yul\":12617:12797   */\n    tag_238:\n        /* \"#utility.yul\":12665:12742   */\n      0x4e487b7100000000000000000000000000000000000000000000000000000000\n        /* \"#utility.yul\":12662:12663   */\n      0x00\n        /* \"#utility.yul\":12655:12743   */\n      mstore\n        /* \"#utility.yul\":12762:12766   */\n      0x22\n        /* \"#utility.yul\":12759:12760   */\n      0x04\n        /* \"#utility.yul\":12752:12767   */\n      mstore\n        /* \"#utility.yul\":12786:12790   */\n      0x24\n        /* \"#utility.yul\":12783:12784   */\n      0x00\n        /* \"#utility.yul\":12776:12791   */\n      revert\n        /* \"#utility.yul\":12803:13123   */\n    tag_98:\n        /* \"#utility.yul\":12847:12853   */\n      0x00\n        /* \"#utility.yul\":12884:12885   */\n      0x02\n        /* \"#utility.yul\":12878:12882   */\n      dup3\n        /* \"#utility.yul\":12874:12886   */\n      div\n        /* \"#utility.yul\":12864:12886   */\n      swap1\n      pop\n        /* \"#utility.yul\":12931:12932   */\n      0x01\n        /* \"#utility.yul\":12925:12929   */\n      dup3\n        /* \"#utility.yul\":12921:12933   */\n      and\n        /* \"#utility.yul\":12952:12970   */\n      dup1\n        /* \"#utility.yul\":12942:13023   */\n      tag_394\n      jumpi\n        /* \"#utility.yul\":13008:13012   */\n      0x7f\n        /* \"#utility.yul\":13000:13006   */\n      dup3\n        /* \"#utility.yul\":12996:13013   */\n      and\n        /* \"#utility.yul\":12986:13013   */\n      swap2\n      pop\n        /* \"#utility.yul\":12942:13023   */\n    tag_394:\n        /* \"#utility.yul\":13070:13072   */\n      0x20\n        /* \"#utility.yul\":13062:13068   */\n      dup3\n        /* \"#utility.yul\":13059:13073   */\n      lt\n        /* \"#utility.yul\":13039:13057   */\n      dup2\n        /* \"#utility.yul\":13036:13074   */\n      sub\n        /* \"#utility.yul\":13033:13117   */\n      tag_395\n      jumpi\n        /* \"#utility.yul\":13089:13107   */\n      tag_396\n      tag_238\n      jump\t// in\n    tag_396:\n        /* \"#utility.yul\":13033:13117   */\n    tag_395:\n        /* \"#utility.yul\":12854:13123   */\n      pop\n        /* \"#utility.yul\":12803:13123   */\n      swap2\n      swap1\n      pop\n      jump\t// out\n        /* \"#utility.yul\":13129:13296   */\n    tag_239:\n        /* \"#utility.yul\":13269:13288   */\n      0x416c6c6f77616e636520746f6f206c6f77000000000000000000000000000000\n        /* \"#utility.yul\":13265:13266   */\n      0x00\n        /* \"#utility.yul\":13257:13263   */\n      dup3\n        /* \"#utility.yul\":13253:13267   */\n      add\n        /* \"#utility.yul\":13246:13289   */\n      mstore\n        /* \"#utility.yul\":13129:13296   */\n      pop\n      jump\t// out\n        /* \"#utility.yul\":13302:13668   */\n    tag_240:\n        /* \"#utility.yul\":13444:13447   */\n      0x00\n        /* \"#utility.yul\":13465:13532   */\n      tag_399\n        /* \"#utility.yul\":13529:13531   */\n      0x11\n        /* \"#utility.yul\":13524:13527   */\n      dup4\n        /* \"#utility.yul\":13465:13532   */\n      tag_203\n      jump\t// in\n    tag_399:\n        /* \"#utility.yul\":13458:13532   */\n      swap2\n      pop\n        /* \"#utility.yul\":13541:13634   */\n      tag_400\n        /* \"#utility.yul\":13630:13633   */\n      dup3\n        /* \"#utility.yul\":13541:13634   */\n      tag_239\n      jump\t// in\n    tag_400:\n        /* \"#utility.yul\":13659:13661   */\n      0x20\n        /* \"#utility.yul\":13654:13657   */\n      dup3\n        /* \"#utility.yul\":13650:13662   */\n      add\n        /* \"#utility.yul\":13643:13662   */\n      swap1\n      pop\n        /* \"#utility.yul\":13302:13668   */\n      swap2\n      swap1\n      pop\n      jump\t// out\n        /* \"#utility.yul\":13674:14093   */\n    tag_110:\n        /* \"#utility.yul\":13840:13844   */\n      0x00\n        /* \"#utility.yul\":13878:13880   */\n      0x20\n        /* \"#utility.yul\":13867:13876   */\n      dup3\n        /* \"#utility.yul\":13863:13881   */\n      add\n        /* \"#utility.yul\":13855:13881   */\n      swap1\n      pop\n        /* \"#utility.yul\":13927:13936   */\n      dup2\n        /* \"#utility.yul\":13921:13925   */\n      dup2\n        /* \"#utility.yul\":13917:13937   */\n      sub\n        /* \"#utility.yul\":13913:13914   */\n      0x00\n        /* \"#utility.yul\":13902:13911   */\n      dup4\n        /* \"#utility.yul\":13898:13915   */\n      add\n        /* \"#utility.yul\":13891:13938   */\n      mstore\n        /* \"#utility.yul\":13955:14086   */\n      tag_402\n        /* \"#utility.yul\":14081:14085   */\n      dup2\n        /* \"#utility.yul\":13955:14086   */\n      tag_240\n      jump\t// in\n    tag_402:\n        /* \"#utility.yul\":13947:14086   */\n      swap1\n      pop\n        /* \"#utility.yul\":13674:14093   */\n      swap2\n      swap1\n      pop\n      jump\t// out\n        /* \"#utility.yul\":14099:14279   */\n    tag_241:\n        /* \"#utility.yul\":14147:14224   */\n      0x4e487b7100000000000000000000000000000000000000000000000000000000\n        /* \"#utility.yul\":14144:14145   */\n      0x00\n        /* \"#utility.yul\":14137:14225   */\n      mstore\n        /* \"#utility.yul\":14244:14248   */\n      0x11\n        /* \"#utility.yul\":14241:14242   */\n      0x04\n        /* \"#utility.yul\":14234:14249   */\n      mstore\n        /* \"#utility.yul\":14268:14272   */\n      0x24\n        /* \"#utility.yul\":14265:14266   */\n      0x00\n        /* \"#utility.yul\":14258:14273   */\n      revert\n        /* \"#utility.yul\":14285:14479   */\n    tag_113:\n        /* \"#utility.yul\":14325:14329   */\n      0x00\n        /* \"#utility.yul\":14345:14365   */\n      tag_405\n        /* \"#utility.yul\":14363:14364   */\n      dup3\n        /* \"#utility.yul\":14345:14365   */\n      tag_214\n      jump\t// in\n    tag_405:\n        /* \"#utility.yul\":14340:14365   */\n      swap2\n      pop\n        /* \"#utility.yul\":14379:14399   */\n      tag_406\n        /* \"#utility.yul\":14397:14398   */\n      dup4\n        /* \"#utility.yul\":14379:14399   */\n      tag_214\n      jump\t// in\n    tag_406:\n        /* \"#utility.yul\":14374:14399   */\n      swap3\n      pop\n        /* \"#utility.yul\":14423:14424   */\n      dup3\n        /* \"#utility.yul\":14420:14421   */\n      dup3\n        /* \"#utility.yul\":14416:14425   */\n      sub\n        /* \"#utility.yul\":14408:14425   */\n      swap1\n      pop\n        /* \"#utility.yul\":14447:14448   */\n      dup2\n        /* \"#utility.yul\":14441:14445   */\n      dup2\n        /* \"#utility.yul\":14438:14449   */\n      gt\n        /* \"#utility.yul\":14435:14472   */\n      iszero\n      tag_407\n      jumpi\n        /* \"#utility.yul\":14452:14470   */\n      tag_408\n      tag_241\n      jump\t// in\n    tag_408:\n        /* \"#utility.yul\":14435:14472   */\n    tag_407:\n        /* \"#utility.yul\":14285:14479   */\n      swap3\n      swap2\n      pop\n      pop\n      jump\t// out\n        /* \"#utility.yul\":14485:14644   */\n    tag_242:\n        /* \"#utility.yul\":14625:14636   */\n      0x4e6f74206f776e65720000000000000000000000000000000000000000000000\n        /* \"#utility.yul\":14621:14622   */\n      0x00\n        /* \"#utility.yul\":14613:14619   */\n      dup3\n        /* \"#utility.yul\":14609:14623   */\n      add\n        /* \"#utility.yul\":14602:14637   */\n      mstore\n        /* \"#utility.yul\":14485:14644   */\n      pop\n      jump\t// out\n        /* \"#utility.yul\":14650:15015   */\n    tag_243:\n        /* \"#utility.yul\":14792:14795   */\n      0x00\n        /* \"#utility.yul\":14813:14879   */\n      tag_411\n        /* \"#utility.yul\":14877:14878   */\n      0x09\n        /* \"#utility.yul\":14872:14875   */\n      dup4\n        /* \"#utility.yul\":14813:14879   */\n      tag_203\n      jump\t// in\n    tag_411:\n        /* \"#utility.yul\":14806:14879   */\n      swap2\n      pop\n        /* \"#utility.yul\":14888:14981   */\n      tag_412\n        /* \"#utility.yul\":14977:14980   */\n      dup3\n        /* \"#utility.yul\":14888:14981   */\n      tag_242\n      jump\t// in\n    tag_412:\n        /* \"#utility.yul\":15006:15008   */\n      0x20\n        /* \"#utility.yul\":15001:15004   */\n      dup3\n        /* \"#utility.yul\":14997:15009   */\n      add\n        /* \"#utility.yul\":14990:15009   */\n      swap1\n      pop\n        /* \"#utility.yul\":14650:15015   */\n      swap2\n      swap1\n      pop\n      jump\t// out\n        /* \"#utility.yul\":15021:15440   */\n    tag_119:\n        /* \"#utility.yul\":15187:15191   */\n      0x00\n        /* \"#utility.yul\":15225:15227   */\n      0x20\n        /* \"#utility.yul\":15214:15223   */\n      dup3\n        /* \"#utility.yul\":15210:15228   */\n      add\n        /* \"#utility.yul\":15202:15228   */\n      swap1\n      pop\n        /* \"#utility.yul\":15274:15283   */\n      dup2\n        /* \"#utility.yul\":15268:15272   */\n      dup2\n        /* \"#utility.yul\":15264:15284   */\n      sub\n        /* \"#utility.yul\":15260:15261   */\n      0x00\n        /* \"#utility.yul\":15249:15258   */\n      dup4\n        /* \"#utility.yul\":15245:15262   */\n      add\n        /* \"#utility.yul\":15238:15285   */\n      mstore\n        /* \"#utility.yul\":15302:15433   */\n      tag_414\n        /* \"#utility.yul\":15428:15432   */\n      dup2\n        /* \"#utility.yul\":15302:15433   */\n      tag_243\n      jump\t// in\n    tag_414:\n        /* \"#utility.yul\":15294:15433   */\n      swap1\n      pop\n        /* \"#utility.yul\":15021:15440   */\n      swap2\n      swap1\n      pop\n      jump\t// out\n        /* \"#utility.yul\":15446:15619   */\n    tag_244:\n        /* \"#utility.yul\":15586:15611   */\n      0x426174636820616c72656164792070726f636573736564000000000000000000\n        /* \"#utility.yul\":15582:15583   */\n      0x00\n        /* \"#utility.yul\":15574:15580   */\n      dup3\n        /* \"#utility.yul\":15570:15584   */\n      add\n        /* \"#utility.yul\":15563:15612   */\n      mstore\n        /* \"#utility.yul\":15446:15619   */\n      pop\n      jump\t// out\n        /* \"#utility.yul\":15625:15991   */\n    tag_245:\n        /* \"#utility.yul\":15767:15770   */\n      0x00\n        /* \"#utility.yul\":15788:15855   */\n      tag_417\n        /* \"#utility.yul\":15852:15854   */\n      0x17\n        /* \"#utility.yul\":15847:15850   */\n      dup4\n        /* \"#utility.yul\":15788:15855   */\n      tag_203\n      jump\t// in\n    tag_417:\n        /* \"#utility.yul\":15781:15855   */\n      swap2\n      pop\n        /* \"#utility.yul\":15864:15957   */\n      tag_418\n        /* \"#utility.yul\":15953:15956   */\n      dup3\n        /* \"#utility.yul\":15864:15957   */\n      tag_244\n      jump\t// in\n    tag_418:\n        /* \"#utility.yul\":15982:15984   */\n      0x20\n        /* \"#utility.yul\":15977:15980   */\n      dup3\n        /* \"#utility.yul\":15973:15985   */\n      add\n        /* \"#utility.yul\":15966:15985   */\n      swap1\n      pop\n        /* \"#utility.yul\":15625:15991   */\n      swap2\n      swap1\n      pop\n      jump\t// out\n        /* \"#utility.yul\":15997:16416   */\n    tag_123:\n        /* \"#utility.yul\":16163:16167   */\n      0x00\n        /* \"#utility.yul\":16201:16203   */\n      0x20\n        /* \"#utility.yul\":16190:16199   */\n      dup3\n        /* \"#utility.yul\":16186:16204   */\n      add\n        /* \"#utility.yul\":16178:16204   */\n      swap1\n      pop\n        /* \"#utility.yul\":16250:16259   */\n      dup2\n        /* \"#utility.yul\":16244:16248   */\n      dup2\n        /* \"#utility.yul\":16240:16260   */\n      sub\n        /* \"#utility.yul\":16236:16237   */\n      0x00\n        /* \"#utility.yul\":16225:16234   */\n      dup4\n        /* \"#utility.yul\":16221:16238   */\n      add\n        /* \"#utility.yul\":16214:16261   */\n      mstore\n        /* \"#utility.yul\":16278:16409   */\n      tag_420\n        /* \"#utility.yul\":16404:16408   */\n      dup2\n        /* \"#utility.yul\":16278:16409   */\n      tag_245\n      jump\t// in\n    tag_420:\n        /* \"#utility.yul\":16270:16409   */\n      swap1\n      pop\n        /* \"#utility.yul\":15997:16416   */\n      swap2\n      swap1\n      pop\n      jump\t// out\n        /* \"#utility.yul\":16422:16565   */\n    tag_246:\n        /* \"#utility.yul\":16479:16484   */\n      0x00\n        /* \"#utility.yul\":16510:16516   */\n      dup2\n        /* \"#utility.yul\":16504:16517   */\n      mload\n        /* \"#utility.yul\":16495:16517   */\n      swap1\n      pop\n        /* \"#utility.yul\":16526:16559   */\n      tag_422\n        /* \"#utility.yul\":16553:16558   */\n      dup2\n        /* \"#utility.yul\":16526:16559   */\n      tag_215\n      jump\t// in\n    tag_422:\n        /* \"#utility.yul\":16422:16565   */\n      swap3\n      swap2\n      pop\n      pop\n      jump\t// out\n        /* \"#utility.yul\":16571:16922   */\n    tag_128:\n        /* \"#utility.yul\":16641:16647   */\n      0x00\n        /* \"#utility.yul\":16690:16692   */\n      0x20\n        /* \"#utility.yul\":16678:16687   */\n      dup3\n        /* \"#utility.yul\":16669:16676   */\n      dup5\n        /* \"#utility.yul\":16665:16688   */\n      sub\n        /* \"#utility.yul\":16661:16693   */\n      slt\n        /* \"#utility.yul\":16658:16777   */\n      iszero\n      tag_424\n      jumpi\n        /* \"#utility.yul\":16696:16775   */\n      tag_425\n      tag_208\n      jump\t// in\n    tag_425:\n        /* \"#utility.yul\":16658:16777   */\n    tag_424:\n        /* \"#utility.yul\":16816:16817   */\n      0x00\n        /* \"#utility.yul\":16841:16905   */\n      tag_426\n        /* \"#utility.yul\":16897:16904   */\n      dup5\n        /* \"#utility.yul\":16888:16894   */\n      dup3\n        /* \"#utility.yul\":16877:16886   */\n      dup6\n        /* \"#utility.yul\":16873:16895   */\n      add\n        /* \"#utility.yul\":16841:16905   */\n      tag_246\n      jump\t// in\n    tag_426:\n        /* \"#utility.yul\":16831:16905   */\n      swap2\n      pop\n        /* \"#utility.yul\":16787:16915   */\n      pop\n        /* \"#utility.yul\":16571:16922   */\n      swap3\n      swap2\n      pop\n      pop\n      jump\t// out\n        /* \"#utility.yul\":16928:17089   */\n    tag_247:\n        /* \"#utility.yul\":17068:17081   */\n      0x636170206d697373696e67000000000000000000000000000000000000000000\n        /* \"#utility.yul\":17064:17065   */\n      0x00\n        /* \"#utility.yul\":17056:17062   */\n      dup3\n        /* \"#utility.yul\":17052:17066   */\n      add\n        /* \"#utility.yul\":17045:17082   */\n      mstore\n        /* \"#utility.yul\":16928:17089   */\n      pop\n      jump\t// out\n        /* \"#utility.yul\":17095:17461   */\n    tag_248:\n        /* \"#utility.yul\":17237:17240   */\n      0x00\n        /* \"#utility.yul\":17258:17325   */\n      tag_429\n        /* \"#utility.yul\":17322:17324   */\n      0x0b\n        /* \"#utility.yul\":17317:17320   */\n      dup4\n        /* \"#utility.yul\":17258:17325   */\n      tag_203\n      jump\t// in\n    tag_429:\n        /* \"#utility.yul\":17251:17325   */\n      swap2\n      pop\n        /* \"#utility.yul\":17334:17427   */\n      tag_430\n        /* \"#utility.yul\":17423:17426   */\n      dup3\n        /* \"#utility.yul\":17334:17427   */\n      tag_247\n      jump\t// in\n    tag_430:\n        /* \"#utility.yul\":17452:17454   */\n      0x20\n        /* \"#utility.yul\":17447:17450   */\n      dup3\n        /* \"#utility.yul\":17443:17455   */\n      add\n        /* \"#utility.yul\":17436:17455   */\n      swap1\n      pop\n        /* \"#utility.yul\":17095:17461   */\n      swap2\n      swap1\n      pop\n      jump\t// out\n        /* \"#utility.yul\":17467:17886   */\n    tag_131:\n        /* \"#utility.yul\":17633:17637   */\n      0x00\n        /* \"#utility.yul\":17671:17673   */\n      0x20\n        /* \"#utility.yul\":17660:17669   */\n      dup3\n        /* \"#utility.yul\":17656:17674   */\n      add\n        /* \"#utility.yul\":17648:17674   */\n      swap1\n      pop\n        /* \"#utility.yul\":17720:17729   */\n      dup2\n        /* \"#utility.yul\":17714:17718   */\n      dup2\n        /* \"#utility.yul\":17710:17730   */\n      sub\n        /* \"#utility.yul\":17706:17707   */\n      0x00\n        /* \"#utility.yul\":17695:17704   */\n      dup4\n        /* \"#utility.yul\":17691:17708   */\n      add\n        /* \"#utility.yul\":17684:17731   */\n      mstore\n        /* \"#utility.yul\":17748:17879   */\n      tag_432\n        /* \"#utility.yul\":17874:17878   */\n      dup2\n        /* \"#utility.yul\":17748:17879   */\n      tag_248\n      jump\t// in\n    tag_432:\n        /* \"#utility.yul\":17740:17879   */\n      swap1\n      pop\n        /* \"#utility.yul\":17467:17886   */\n      swap2\n      swap1\n      pop\n      jump\t// out\n        /* \"#utility.yul\":17892:18072   */\n    tag_249:\n        /* \"#utility.yul\":17940:18017   */\n      0x4e487b7100000000000000000000000000000000000000000000000000000000\n        /* \"#utility.yul\":17937:17938   */\n      0x00\n        /* \"#utility.yul\":17930:18018   */\n      mstore\n        /* \"#utility.yul\":18037:18041   */\n      0x12\n        /* \"#utility.yul\":18034:18035   */\n      0x04\n        /* \"#utility.yul\":18027:18042   */\n      mstore\n        /* \"#utility.yul\":18061:18065   */\n      0x24\n        /* \"#utility.yul\":18058:18059   */\n      0x00\n        /* \"#utility.yul\":18051:18066   */\n      revert\n        /* \"#utility.yul\":18078:18263   */\n    tag_135:\n        /* \"#utility.yul\":18118:18119   */\n      0x00\n        /* \"#utility.yul\":18135:18155   */\n      tag_435\n        /* \"#utility.yul\":18153:18154   */\n      dup3\n        /* \"#utility.yul\":18135:18155   */\n      tag_214\n      jump\t// in\n    tag_435:\n        /* \"#utility.yul\":18130:18155   */\n      swap2\n      pop\n        /* \"#utility.yul\":18169:18189   */\n      tag_436\n        /* \"#utility.yul\":18187:18188   */\n      dup4\n        /* \"#utility.yul\":18169:18189   */\n      tag_214\n      jump\t// in\n    tag_436:\n        /* \"#utility.yul\":18164:18189   */\n      swap3\n      pop\n        /* \"#utility.yul\":18208:18209   */\n      dup3\n        /* \"#utility.yul\":18198:18233   */\n      tag_437\n      jumpi\n        /* \"#utility.yul\":18213:18231   */\n      tag_438\n      tag_249\n      jump\t// in\n    tag_438:\n        /* \"#utility.yul\":18198:18233   */\n    tag_437:\n        /* \"#utility.yul\":18255:18256   */\n      dup3\n        /* \"#utility.yul\":18252:18253   */\n      dup3\n        /* \"#utility.yul\":18248:18257   */\n      div\n        /* \"#utility.yul\":18243:18257   */\n      swap1\n      pop\n        /* \"#utility.yul\":18078:18263   */\n      swap3\n      swap2\n      pop\n      pop\n      jump\t// out\n        /* \"#utility.yul\":18269:18497   */\n    tag_152:\n        /* \"#utility.yul\":18304:18307   */\n      0x00\n        /* \"#utility.yul\":18327:18350   */\n      tag_440\n        /* \"#utility.yul\":18344:18349   */\n      dup3\n        /* \"#utility.yul\":18327:18350   */\n      tag_222\n      jump\t// in\n    tag_440:\n        /* \"#utility.yul\":18318:18350   */\n      swap2\n      pop\n        /* \"#utility.yul\":18372:18438   */\n      0x8000000000000000000000000000000000000000000000000000000000000000\n        /* \"#utility.yul\":18365:18370   */\n      dup3\n        /* \"#utility.yul\":18362:18439   */\n      sub\n        /* \"#utility.yul\":18359:18462   */\n      tag_441\n      jumpi\n        /* \"#utility.yul\":18442:18460   */\n      tag_442\n      tag_241\n      jump\t// in\n    tag_442:\n        /* \"#utility.yul\":18359:18462   */\n    tag_441:\n        /* \"#utility.yul\":18485:18490   */\n      dup2\n        /* \"#utility.yul\":18482:18483   */\n      0x00\n        /* \"#utility.yul\":18478:18491   */\n      sub\n        /* \"#utility.yul\":18471:18491   */\n      swap1\n      pop\n        /* \"#utility.yul\":18269:18497   */\n      swap2\n      swap1\n      pop\n      jump\t// out\n        /* \"#utility.yul\":18503:19607   */\n    tag_155:\n        /* \"#utility.yul\":18818:18822   */\n      0x00\n        /* \"#utility.yul\":18856:18859   */\n      0x0120\n        /* \"#utility.yul\":18845:18854   */\n      dup3\n        /* \"#utility.yul\":18841:18860   */\n      add\n        /* \"#utility.yul\":18833:18860   */\n      swap1\n      pop\n        /* \"#utility.yul\":18870:18941   */\n      tag_444\n        /* \"#utility.yul\":18938:18939   */\n      0x00\n        /* \"#utility.yul\":18927:18936   */\n      dup4\n        /* \"#utility.yul\":18923:18940   */\n      add\n        /* \"#utility.yul\":18914:18920   */\n      dup13\n        /* \"#utility.yul\":18870:18941   */\n      tag_221\n      jump\t// in\n    tag_444:\n        /* \"#utility.yul\":18951:19023   */\n      tag_445\n        /* \"#utility.yul\":19019:19021   */\n      0x20\n        /* \"#utility.yul\":19008:19017   */\n      dup4\n        /* \"#utility.yul\":19004:19022   */\n      add\n        /* \"#utility.yul\":18995:19001   */\n      dup12\n        /* \"#utility.yul\":18951:19023   */\n      tag_221\n      jump\t// in\n    tag_445:\n        /* \"#utility.yul\":19033:19105   */\n      tag_446\n        /* \"#utility.yul\":19101:19103   */\n      0x40\n        /* \"#utility.yul\":19090:19099   */\n      dup4\n        /* \"#utility.yul\":19086:19104   */\n      add\n        /* \"#utility.yul\":19077:19083   */\n      dup11\n        /* \"#utility.yul\":19033:19105   */\n      tag_219\n      jump\t// in\n    tag_446:\n        /* \"#utility.yul\":19115:19187   */\n      tag_447\n        /* \"#utility.yul\":19183:19185   */\n      0x60\n        /* \"#utility.yul\":19172:19181   */\n      dup4\n        /* \"#utility.yul\":19168:19186   */\n      add\n        /* \"#utility.yul\":19159:19165   */\n      dup10\n        /* \"#utility.yul\":19115:19187   */\n      tag_219\n      jump\t// in\n    tag_447:\n        /* \"#utility.yul\":19197:19270   */\n      tag_448\n        /* \"#utility.yul\":19265:19268   */\n      0x80\n        /* \"#utility.yul\":19254:19263   */\n      dup4\n        /* \"#utility.yul\":19250:19269   */\n      add\n        /* \"#utility.yul\":19241:19247   */\n      dup9\n        /* \"#utility.yul\":19197:19270   */\n      tag_219\n      jump\t// in\n    tag_448:\n        /* \"#utility.yul\":19280:19353   */\n      tag_449\n        /* \"#utility.yul\":19348:19351   */\n      0xa0\n        /* \"#utility.yul\":19337:19346   */\n      dup4\n        /* \"#utility.yul\":19333:19352   */\n      add\n        /* \"#utility.yul\":19324:19330   */\n      dup8\n        /* \"#utility.yul\":19280:19353   */\n      tag_219\n      jump\t// in\n    tag_449:\n        /* \"#utility.yul\":19363:19436   */\n      tag_450\n        /* \"#utility.yul\":19431:19434   */\n      0xc0\n        /* \"#utility.yul\":19420:19429   */\n      dup4\n        /* \"#utility.yul\":19416:19435   */\n      add\n        /* \"#utility.yul\":19407:19413   */\n      dup7\n        /* \"#utility.yul\":19363:19436   */\n      tag_219\n      jump\t// in\n    tag_450:\n        /* \"#utility.yul\":19446:19519   */\n      tag_451\n        /* \"#utility.yul\":19514:19517   */\n      0xe0\n        /* \"#utility.yul\":19503:19512   */\n      dup4\n        /* \"#utility.yul\":19499:19518   */\n      add\n        /* \"#utility.yul\":19490:19496   */\n      dup6\n        /* \"#utility.yul\":19446:19519   */\n      tag_219\n      jump\t// in\n    tag_451:\n        /* \"#utility.yul\":19529:19600   */\n      tag_452\n        /* \"#utility.yul\":19595:19598   */\n      0x0100\n        /* \"#utility.yul\":19584:19593   */\n      dup4\n        /* \"#utility.yul\":19580:19599   */\n      add\n        /* \"#utility.yul\":19571:19577   */\n      dup5\n        /* \"#utility.yul\":19529:19600   */\n      tag_223\n      jump\t// in\n    tag_452:\n        /* \"#utility.yul\":18503:19607   */\n      swap11\n      swap10\n      pop\n      pop\n      pop\n      pop\n      pop\n      pop\n      pop\n      pop\n      pop\n      pop\n      jump\t// out\n        /* \"#utility.yul\":19613:19782   */\n    tag_250:\n        /* \"#utility.yul\":19753:19774   */\n      0x696e646578206f7574206f6620626f756e647300000000000000000000000000\n        /* \"#utility.yul\":19749:19750   */\n      0x00\n        /* \"#utility.yul\":19741:19747   */\n      dup3\n        /* \"#utility.yul\":19737:19751   */\n      add\n        /* \"#utility.yul\":19730:19775   */\n      mstore\n        /* \"#utility.yul\":19613:19782   */\n      pop\n      jump\t// out\n        /* \"#utility.yul\":19788:20154   */\n    tag_251:\n        /* \"#utility.yul\":19930:19933   */\n      0x00\n        /* \"#utility.yul\":19951:20018   */\n      tag_455\n        /* \"#utility.yul\":20015:20017   */\n      0x13\n        /* \"#utility.yul\":20010:20013   */\n      dup4\n        /* \"#utility.yul\":19951:20018   */\n      tag_203\n      jump\t// in\n    tag_455:\n        /* \"#utility.yul\":19944:20018   */\n      swap2\n      pop\n        /* \"#utility.yul\":20027:20120   */\n      tag_456\n        /* \"#utility.yul\":20116:20119   */\n      dup3\n        /* \"#utility.yul\":20027:20120   */\n      tag_250\n      jump\t// in\n    tag_456:\n        /* \"#utility.yul\":20145:20147   */\n      0x20\n        /* \"#utility.yul\":20140:20143   */\n      dup3\n        /* \"#utility.yul\":20136:20148   */\n      add\n        /* \"#utility.yul\":20129:20148   */\n      swap1\n      pop\n        /* \"#utility.yul\":19788:20154   */\n      swap2\n      swap1\n      pop\n      jump\t// out\n        /* \"#utility.yul\":20160:20579   */\n    tag_169:\n        /* \"#utility.yul\":20326:20330   */\n      0x00\n        /* \"#utility.yul\":20364:20366   */\n      0x20\n        /* \"#utility.yul\":20353:20362   */\n      dup3\n        /* \"#utility.yul\":20349:20367   */\n      add\n        /* \"#utility.yul\":20341:20367   */\n      swap1\n      pop\n        /* \"#utility.yul\":20413:20422   */\n      dup2\n        /* \"#utility.yul\":20407:20411   */\n      dup2\n        /* \"#utility.yul\":20403:20423   */\n      sub\n        /* \"#utility.yul\":20399:20400   */\n      0x00\n        /* \"#utility.yul\":20388:20397   */\n      dup4\n        /* \"#utility.yul\":20384:20401   */\n      add\n        /* \"#utility.yul\":20377:20424   */\n      mstore\n        /* \"#utility.yul\":20441:20572   */\n      tag_458\n        /* \"#utility.yul\":20567:20571   */\n      dup2\n        /* \"#utility.yul\":20441:20572   */\n      tag_251\n      jump\t// in\n    tag_458:\n        /* \"#utility.yul\":20433:20572   */\n      swap1\n      pop\n        /* \"#utility.yul\":20160:20579   */\n      swap2\n      swap1\n      pop\n      jump\t// out\n        /* \"#utility.yul\":20585:20765   */\n    tag_172:\n        /* \"#utility.yul\":20633:20710   */\n      0x4e487b7100000000000000000000000000000000000000000000000000000000\n        /* \"#utility.yul\":20630:20631   */\n      0x00\n        /* \"#utility.yul\":20623:20711   */\n      mstore\n        /* \"#utility.yul\":20730:20734   */\n      0x32\n        /* \"#utility.yul\":20727:20728   */\n      0x04\n        /* \"#utility.yul\":20720:20735   */\n      mstore\n        /* \"#utility.yul\":20754:20758   */\n      0x24\n        /* \"#utility.yul\":20751:20752   */\n      0x00\n        /* \"#utility.yul\":20744:20759   */\n      revert\n        /* \"#utility.yul\":20771:20931   */\n    tag_252:\n        /* \"#utility.yul\":20911:20923   */\n      0x5a65726f206f776e657200000000000000000000000000000000000000000000\n        /* \"#utility.yul\":20907:20908   */\n      0x00\n        /* \"#utility.yul\":20899:20905   */\n      dup3\n        /* \"#utility.yul\":20895:20909   */\n      add\n        /* \"#utility.yul\":20888:20924   */\n      mstore\n        /* \"#utility.yul\":20771:20931   */\n      pop\n      jump\t// out\n        /* \"#utility.yul\":20937:21303   */\n    tag_253:\n        /* \"#utility.yul\":21079:21082   */\n      0x00\n        /* \"#utility.yul\":21100:21167   */\n      tag_462\n        /* \"#utility.yul\":21164:21166   */\n      0x0a\n        /* \"#utility.yul\":21159:21162   */\n      dup4\n        /* \"#utility.yul\":21100:21167   */\n      tag_203\n      jump\t// in\n    tag_462:\n        /* \"#utility.yul\":21093:21167   */\n      swap2\n      pop\n        /* \"#utility.yul\":21176:21269   */\n      tag_463\n        /* \"#utility.yul\":21265:21268   */\n      dup3\n        /* \"#utility.yul\":21176:21269   */\n      tag_252\n      jump\t// in\n    tag_463:\n        /* \"#utility.yul\":21294:21296   */\n      0x20\n        /* \"#utility.yul\":21289:21292   */\n      dup3\n        /* \"#utility.yul\":21285:21297   */\n      add\n        /* \"#utility.yul\":21278:21297   */\n      swap1\n      pop\n        /* \"#utility.yul\":20937:21303   */\n      swap2\n      swap1\n      pop\n      jump\t// out\n        /* \"#utility.yul\":21309:21728   */\n    tag_180:\n        /* \"#utility.yul\":21475:21479   */\n      0x00\n        /* \"#utility.yul\":21513:21515   */\n      0x20\n        /* \"#utility.yul\":21502:21511   */\n      dup3\n        /* \"#utility.yul\":21498:21516   */\n      add\n        /* \"#utility.yul\":21490:21516   */\n      swap1\n      pop\n        /* \"#utility.yul\":21562:21571   */\n      dup2\n        /* \"#utility.yul\":21556:21560   */\n      dup2\n        /* \"#utility.yul\":21552:21572   */\n      sub\n        /* \"#utility.yul\":21548:21549   */\n      0x00\n        /* \"#utility.yul\":21537:21546   */\n      dup4\n        /* \"#utility.yul\":21533:21550   */\n      add\n        /* \"#utility.yul\":21526:21573   */\n      mstore\n        /* \"#utility.yul\":21590:21721   */\n      tag_465\n        /* \"#utility.yul\":21716:21720   */\n      dup2\n        /* \"#utility.yul\":21590:21721   */\n      tag_253\n      jump\t// in\n    tag_465:\n        /* \"#utility.yul\":21582:21721   */\n      swap1\n      pop\n        /* \"#utility.yul\":21309:21728   */\n      swap2\n      swap1\n      pop\n      jump\t// out\n        /* \"#utility.yul\":21734:21891   */\n    tag_254:\n        /* \"#utility.yul\":21874:21883   */\n      0x5a65726f20746f00000000000000000000000000000000000000000000000000\n        /* \"#utility.yul\":21870:21871   */\n      0x00\n        /* \"#utility.yul\":21862:21868   */\n      dup3\n        /* \"#utility.yul\":21858:21872   */\n      add\n        /* \"#utility.yul\":21851:21884   */\n      mstore\n        /* \"#utility.yul\":21734:21891   */\n      pop\n      jump\t// out\n        /* \"#utility.yul\":21897:22262   */\n    tag_255:\n        /* \"#utility.yul\":22039:22042   */\n      0x00\n        /* \"#utility.yul\":22060:22126   */\n      tag_468\n        /* \"#utility.yul\":22124:22125   */\n      0x07\n        /* \"#utility.yul\":22119:22122   */\n      dup4\n        /* \"#utility.yul\":22060:22126   */\n      tag_203\n      jump\t// in\n    tag_468:\n        /* \"#utility.yul\":22053:22126   */\n      swap2\n      pop\n        /* \"#utility.yul\":22135:22228   */\n      tag_469\n        /* \"#utility.yul\":22224:22227   */\n      dup3\n        /* \"#utility.yul\":22135:22228   */\n      tag_254\n      jump\t// in\n    tag_469:\n        /* \"#utility.yul\":22253:22255   */\n      0x20\n        /* \"#utility.yul\":22248:22251   */\n      dup3\n        /* \"#utility.yul\":22244:22256   */\n      add\n        /* \"#utility.yul\":22237:22256   */\n      swap1\n      pop\n        /* \"#utility.yul\":21897:22262   */\n      swap2\n      swap1\n      pop\n      jump\t// out\n        /* \"#utility.yul\":22268:22687   */\n    tag_184:\n        /* \"#utility.yul\":22434:22438   */\n      0x00\n        /* \"#utility.yul\":22472:22474   */\n      0x20\n        /* \"#utility.yul\":22461:22470   */\n      dup3\n        /* \"#utility.yul\":22457:22475   */\n      add\n        /* \"#utility.yul\":22449:22475   */\n      swap1\n      pop\n        /* \"#utility.yul\":22521:22530   */\n      dup2\n        /* \"#utility.yul\":22515:22519   */\n      dup2\n        /* \"#utility.yul\":22511:22531   */\n      sub\n        /* \"#utility.yul\":22507:22508   */\n      0x00\n        /* \"#utility.yul\":22496:22505   */\n      dup4\n        /* \"#utility.yul\":22492:22509   */\n      add\n        /* \"#utility.yul\":22485:22532   */\n      mstore\n        /* \"#utility.yul\":22549:22680   */\n      tag_471\n        /* \"#utility.yul\":22675:22679   */\n      dup2\n        /* \"#utility.yul\":22549:22680   */\n      tag_255\n      jump\t// in\n    tag_471:\n        /* \"#utility.yul\":22541:22680   */\n      swap1\n      pop\n        /* \"#utility.yul\":22268:22687   */\n      swap2\n      swap1\n      pop\n      jump\t// out\n        /* \"#utility.yul\":22693:22858   */\n    tag_256:\n        /* \"#utility.yul\":22833:22850   */\n      0x42616c616e636520746f6f206c6f770000000000000000000000000000000000\n        /* \"#utility.yul\":22829:22830   */\n      0x00\n        /* \"#utility.yul\":22821:22827   */\n      dup3\n        /* \"#utility.yul\":22817:22831   */\n      add\n        /* \"#utility.yul\":22810:22851   */\n      mstore\n        /* \"#utility.yul\":22693:22858   */\n      pop\n      jump\t// out\n        /* \"#utility.yul\":22864:23230   */\n    tag_257:\n        /* \"#utility.yul\":23006:23009   */\n      0x00\n        /* \"#utility.yul\":23027:23094   */\n      tag_474\n        /* \"#utility.yul\":23091:23093   */\n      0x0f\n        /* \"#utility.yul\":23086:23089   */\n      dup4\n        /* \"#utility.yul\":23027:23094   */\n      tag_203\n      jump\t// in\n    tag_474:\n        /* \"#utility.yul\":23020:23094   */\n      swap2\n      pop\n        /* \"#utility.yul\":23103:23196   */\n      tag_475\n        /* \"#utility.yul\":23192:23195   */\n      dup3\n        /* \"#utility.yul\":23103:23196   */\n      tag_256\n      jump\t// in\n    tag_475:\n        /* \"#utility.yul\":23221:23223   */\n      0x20\n        /* \"#utility.yul\":23216:23219   */\n      dup3\n        /* \"#utility.yul\":23212:23224   */\n      add\n        /* \"#utility.yul\":23205:23224   */\n      swap1\n      pop\n        /* \"#utility.yul\":22864:23230   */\n      swap2\n      swap1\n      pop\n      jump\t// out\n        /* \"#utility.yul\":23236:23655   */\n    tag_187:\n        /* \"#utility.yul\":23402:23406   */\n      0x00\n        /* \"#utility.yul\":23440:23442   */\n      0x20\n        /* \"#utility.yul\":23429:23438   */\n      dup3\n        /* \"#utility.yul\":23425:23443   */\n      add\n        /* \"#utility.yul\":23417:23443   */\n      swap1\n      pop\n        /* \"#utility.yul\":23489:23498   */\n      dup2\n        /* \"#utility.yul\":23483:23487   */\n      dup2\n        /* \"#utility.yul\":23479:23499   */\n      sub\n        /* \"#utility.yul\":23475:23476   */\n      0x00\n        /* \"#utility.yul\":23464:23473   */\n      dup4\n        /* \"#utility.yul\":23460:23477   */\n      add\n        /* \"#utility.yul\":23453:23500   */\n      mstore\n        /* \"#utility.yul\":23517:23648   */\n      tag_477\n        /* \"#utility.yul\":23643:23647   */\n      dup2\n        /* \"#utility.yul\":23517:23648   */\n      tag_257\n      jump\t// in\n    tag_477:\n        /* \"#utility.yul\":23509:23648   */\n      swap1\n      pop\n        /* \"#utility.yul\":23236:23655   */\n      swap2\n      swap1\n      pop\n      jump\t// out\n        /* \"#utility.yul\":23661:23852   */\n    tag_189:\n        /* \"#utility.yul\":23701:23704   */\n      0x00\n        /* \"#utility.yul\":23720:23740   */\n      tag_479\n        /* \"#utility.yul\":23738:23739   */\n      dup3\n        /* \"#utility.yul\":23720:23740   */\n      tag_214\n      jump\t// in\n    tag_479:\n        /* \"#utility.yul\":23715:23740   */\n      swap2\n      pop\n        /* \"#utility.yul\":23754:23774   */\n      tag_480\n        /* \"#utility.yul\":23772:23773   */\n      dup4\n        /* \"#utility.yul\":23754:23774   */\n      tag_214\n      jump\t// in\n    tag_480:\n        /* \"#utility.yul\":23749:23774   */\n      swap3\n      pop\n        /* \"#utility.yul\":23797:23798   */\n      dup3\n        /* \"#utility.yul\":23794:23795   */\n      dup3\n        /* \"#utility.yul\":23790:23799   */\n      add\n        /* \"#utility.yul\":23783:23799   */\n      swap1\n      pop\n        /* \"#utility.yul\":23818:23821   */\n      dup1\n        /* \"#utility.yul\":23815:23816   */\n      dup3\n        /* \"#utility.yul\":23812:23822   */\n      gt\n        /* \"#utility.yul\":23809:23845   */\n      iszero\n      tag_481\n      jumpi\n        /* \"#utility.yul\":23825:23843   */\n      tag_482\n      tag_241\n      jump\t// in\n    tag_482:\n        /* \"#utility.yul\":23809:23845   */\n    tag_481:\n        /* \"#utility.yul\":23661:23852   */\n      swap3\n      swap2\n      pop\n      pop\n      jump\t// out\n        /* \"#utility.yul\":23858:24028   */\n    tag_258:\n        /* \"#utility.yul\":23998:24020   */\n      0x4275726e20657863656564732062616c616e6365000000000000000000000000\n        /* \"#utility.yul\":23994:23995   */\n      0x00\n        /* \"#utility.yul\":23986:23992   */\n      dup3\n        /* \"#utility.yul\":23982:23996   */\n      add\n        /* \"#utility.yul\":23975:24021   */\n      mstore\n        /* \"#utility.yul\":23858:24028   */\n      pop\n      jump\t// out\n        /* \"#utility.yul\":24034:24400   */\n    tag_259:\n        /* \"#utility.yul\":24176:24179   */\n      0x00\n        /* \"#utility.yul\":24197:24264   */\n      tag_485\n        /* \"#utility.yul\":24261:24263   */\n      0x14\n        /* \"#utility.yul\":24256:24259   */\n      dup4\n        /* \"#utility.yul\":24197:24264   */\n      tag_203\n      jump\t// in\n    tag_485:\n        /* \"#utility.yul\":24190:24264   */\n      swap2\n      pop\n        /* \"#utility.yul\":24273:24366   */\n      tag_486\n        /* \"#utility.yul\":24362:24365   */\n      dup3\n        /* \"#utility.yul\":24273:24366   */\n      tag_258\n      jump\t// in\n    tag_486:\n        /* \"#utility.yul\":24391:24393   */\n      0x20\n        /* \"#utility.yul\":24386:24389   */\n      dup3\n        /* \"#utility.yul\":24382:24394   */\n      add\n        /* \"#utility.yul\":24375:24394   */\n      swap1\n      pop\n        /* \"#utility.yul\":24034:24400   */\n      swap2\n      swap1\n      pop\n      jump\t// out\n        /* \"#utility.yul\":24406:24825   */\n    tag_200:\n        /* \"#utility.yul\":24572:24576   */\n      0x00\n        /* \"#utility.yul\":24610:24612   */\n      0x20\n        /* \"#utility.yul\":24599:24608   */\n      dup3\n        /* \"#utility.yul\":24595:24613   */\n      add\n        /* \"#utility.yul\":24587:24613   */\n      swap1\n      pop\n        /* \"#utility.yul\":24659:24668   */\n      dup2\n        /* \"#utility.yul\":24653:24657   */\n      dup2\n        /* \"#utility.yul\":24649:24669   */\n      sub\n        /* \"#utility.yul\":24645:24646   */\n      0x00\n        /* \"#utility.yul\":24634:24643   */\n      dup4\n        /* \"#utility.yul\":24630:24647   */\n      add\n        /* \"#utility.yul\":24623:24670   */\n      mstore\n        /* \"#utility.yul\":24687:24818   */\n      tag_488\n        /* \"#utility.yul\":24813:24817   */\n      dup2\n        /* \"#utility.yul\":24687:24818   */\n      tag_259\n      jump\t// in\n    tag_488:\n        /* \"#utility.yul\":24679:24818   */\n      swap1\n      pop\n        /* \"#utility.yul\":24406:24825   */\n      swap2\n      swap1\n      pop\n      jump\t// out\n\n    auxdata: 0xa26469706673582212206ca854a231efce2aff2dfefb41c9f0a877ca6d2e4070161800357f31c411063364736f6c634300081e0033\n}\n",
				"bytecode": {
					"linkReferences": {},
					"object": "60a06040526040518060400160405280601181526020017f436172626f6e437265646974546f6b656e0000000000000000000000000000008152505f90816100479190610439565b506040518060400160405280600381526020017f43435400000000000000000000000000000000000000000000000000000000008152506001908161008c9190610439565b50348015610098575f5ffd5b506040516127ca3803806127ca83398181016040528101906100ba9190610566565b5f73ffffffffffffffffffffffffffffffffffffffff168173ffffffffffffffffffffffffffffffffffffffff1603610128576040517f08c379a000000000000000000000000000000000000000000000000000000000815260040161011f906105eb565b60405180910390fd5b8073ffffffffffffffffffffffffffffffffffffffff1660808173ffffffffffffffffffffffffffffffffffffffff16815250503360055f6101000a81548173ffffffffffffffffffffffffffffffffffffffff021916908373ffffffffffffffffffffffffffffffffffffffff1602179055503373ffffffffffffffffffffffffffffffffffffffff165f73ffffffffffffffffffffffffffffffffffffffff167f8be0079c531659141344cd1fd0a4f28419497f9722a3daafe3b4186f6b6457e060405160405180910390a350610609565b5f81519050919050565b7f4e487b71000000000000000000000000000000000000000000000000000000005f52604160045260245ffd5b7f4e487b71000000000000000000000000000000000000000000000000000000005f52602260045260245ffd5b5f600282049050600182168061027757607f821691505b60208210810361028a57610289610233565b5b50919050565b5f819050815f5260205f209050919050565b5f6020601f8301049050919050565b5f82821b905092915050565b5f600883026102ec7fffffffffffffffffffffffffffffffffffffffffffffffffffffffffffffffff826102b1565b6102f686836102b1565b95508019841693508086168417925050509392505050565b5f819050919050565b5f819050919050565b5f61033a6103356103308461030e565b610317565b61030e565b9050919050565b5f819050919050565b61035383610320565b61036761035f82610341565b8484546102bd565b825550505050565b5f5f905090565b61037e61036f565b61038981848461034a565b505050565b5b818110156103ac576103a15f82610376565b60018101905061038f565b5050565b601f8211156103f1576103c281610290565b6103cb846102a2565b810160208510156103da578190505b6103ee6103e6856102a2565b83018261038e565b50505b505050565b5f82821c905092915050565b5f6104115f19846008026103f6565b1980831691505092915050565b5f6104298383610402565b9150826002028217905092915050565b610442826101fc565b67ffffffffffffffff81111561045b5761045a610206565b5b6104658254610260565b6104708282856103b0565b5f60209050601f8311600181146104a1575f841561048f578287015190505b610499858261041e565b865550610500565b601f1984166104af86610290565b5f5b828110156104d6578489015182556001820191506020850194506020810190506104b1565b868310156104f357848901516104ef601f891682610402565b8355505b6001600288020188555050505b505050505050565b5f5ffd5b5f73ffffffffffffffffffffffffffffffffffffffff82169050919050565b5f6105358261050c565b9050919050565b6105458161052b565b811461054f575f5ffd5b50565b5f815190506105608161053c565b92915050565b5f6020828403121561057b5761057a610508565b5b5f61058884828501610552565b91505092915050565b5f82825260208201905092915050565b7f72656769737472792072657175697265640000000000000000000000000000005f82015250565b5f6105d5601183610591565b91506105e0826105a1565b602082019050919050565b5f6020820190508181035f830152610602816105c9565b9050919050565b6080516121a26106285f395f8181610735015261087001526121a25ff3fe608060405234801561000f575f5ffd5b5060043610610109575f3560e01c8063812da1e2116100a0578063a9059cbb1161006f578063a9059cbb146102d5578063dd62ed3e14610305578063e8accb5b14610335578063eb6f0c9314610365578063f2fde38b1461039557610109565b8063812da1e21461024d57806388fcda39146102695780638da5cb5b1461029957806395d89b41146102b757610109565b806323b872dd116100dc57806323b872dd146101b1578063313ce567146101e157806370a08231146101ff5780637b1039991461022f57610109565b806306fdde031461010d578063095ea7b31461012b5780631344f9b41461015b57806318160ddd14610193575b5f5ffd5b6101156103b1565b60405161012291906115d2565b60405180910390f35b61014560048036038101906101409190611683565b61043c565b60405161015291906116db565b60405180910390f35b61017560048036038101906101709190611683565b610529565b60405161018a99989796959493929190611733565b60405180910390f35b61019b61058d565b6040516101a891906117be565b60405180910390f35b6101cb60048036038101906101c691906117d7565b610593565b6040516101d891906116db565b60405180910390f35b6101e961071a565b6040516101f69190611842565b60405180910390f35b6102196004803603810190610214919061185b565b61071e565b60405161022691906117be565b60405180910390f35b610237610733565b60405161024491906118e1565b60405180910390f35b61026760048036038101906102629190611924565b610757565b005b610283600480360381019061027e91906119ad565b610c4e565b60405161029091906116db565b60405180910390f35b6102a1610c6b565b6040516102ae91906119e7565b60405180910390f35b6102bf610c90565b6040516102cc91906115d2565b60405180910390f35b6102ef60048036038101906102ea9190611683565b610d1c565b6040516102fc91906116db565b60405180910390f35b61031f600480360381019061031a9190611a00565b610d32565b60405161032c91906117be565b60405180910390f35b61034f600480360381019061034a919061185b565b610d52565b60405161035c91906117be565b60405180910390f35b61037f600480360381019061037a9190611683565b610d9b565b60405161038c9190611b20565b60405180910390f35b6103af60048036038101906103aa919061185b565b610eed565b005b5f80546103bd90611b67565b80601f01602080910402602001604051908101604052809291908181526020018280546103e990611b67565b80156104345780601f1061040b57610100808354040283529160200191610434565b820191905f5260205f20905b81548152906001019060200180831161041757829003601f168201915b505050505081565b5f8160045f3373ffffffffffffffffffffffffffffffffffffffff1673ffffffffffffffffffffffffffffffffffffffff1681526020019081526020015f205f8573ffffffffffffffffffffffffffffffffffffffff1673ffffffffffffffffffffffffffffffffffffffff1681526020019081526020015f20819055508273ffffffffffffffffffffffffffffffffffffffff163373ffffffffffffffffffffffffffffffffffffffff167f8c5be1e5ebec7d5bd14f71427d1e84f3dd0314c0f7b2291e5b200ac8c7c3b9258460405161051791906117be565b60405180910390a36001905092915050565b6007602052815f5260405f208181548110610542575f80fd5b905f5260205f2090600902015f9150915050805f0154908060010154908060020154908060030154908060040154908060050154908060060154908060070154908060080154905089565b60025481565b5f5f60045f8673ffffffffffffffffffffffffffffffffffffffff1673ffffffffffffffffffffffffffffffffffffffff1681526020019081526020015f205f3373ffffffffffffffffffffffffffffffffffffffff1673ffffffffffffffffffffffffffffffffffffffff1681526020019081526020015f2054905082811015610653576040517f08c379a000000000000000000000000000000000000000000000000000000000815260040161064a90611be1565b60405180910390fd5b7fffffffffffffffffffffffffffffffffffffffffffffffffffffffffffffffff81146107035782816106869190611c2c565b60045f8773ffffffffffffffffffffffffffffffffffffffff1673ffffffffffffffffffffffffffffffffffffffff1681526020019081526020015f205f3373ffffffffffffffffffffffffffffffffffffffff1673ffffffffffffffffffffffffffffffffffffffff1681526020019081526020015f20819055505b61070e8585856110a8565b60019150509392505050565b5f81565b6003602052805f5260405f205f915090505481565b7f000000000000000000000000000000000000000000000000000000000000000081565b60055f9054906101000a900473ffffffffffffffffffffffffffffffffffffffff1673ffffffffffffffffffffffffffffffffffffffff163373ffffffffffffffffffffffffffffffffffffffff16146107e6576040517f08c379a00000000000000000000000000000000000000000000000000000000081526004016107dd90611ca9565b60405180910390fd5b60065f8281526020019081526020015f205f9054906101000a900460ff1615610844576040517f08c379a000000000000000000000000000000000000000000000000000000000815260040161083b90611d11565b60405180910390fd5b600160065f8381526020019081526020015f205f6101000a81548160ff0219169083151502179055505f7f000000000000000000000000000000000000000000000000000000000000000073ffffffffffffffffffffffffffffffffffffffff16630c3dea29886040518263ffffffff1660e01b81526004016108c791906119e7565b602060405180830381865afa1580156108e2573d5f5f3e3d5ffd5b505050506040513d601f19601f820116820180604052508101906109069190611d43565b90505f811161094a576040517f08c379a000000000000000000000000000000000000000000000000000000000815260040161094190611db8565b60405180910390fd5b5f5f90505f5f90505f5f9050838910156109ec575f898561096b9190611c2c565b90505f6103e88261097c9190611e03565b90505f8111156109e5576109908c8261129c565b8b73ffffffffffffffffffffffffffffffffffffffff167fba27001eed39081e9d6f521103bc201676a9b4eb7fe868e5e596da78b135126b826040516109d691906117be565b60405180910390a28094508093505b5050610ae6565b83891115610ae5575f848a610a019190611c2c565b90505f6103e882610a129190611e03565b90505f811115610ae2575f60035f8e73ffffffffffffffffffffffffffffffffffffffff1673ffffffffffffffffffffffffffffffffffffffff1681526020019081526020015f205490505f818311610a6b5782610a6d565b815b90505f811115610adf57610a818e826113de565b8d73ffffffffffffffffffffffffffffffffffffffff167f4b28c7dc138644f27518388387393ecbd08ef8d180a4a6799c954be166a37ab382604051610ac791906117be565b60405180910390a280610ad990611e33565b96508094505b50505b50505b5b60075f8b73ffffffffffffffffffffffffffffffffffffffff1673ffffffffffffffffffffffffffffffffffffffff1681526020019081526020015f206040518061012001604052808a81526020018981526020018b815260200186815260200188815260200185815260200184815260200183815260200187815250908060018154018082558091505060019003905f5260205f2090600902015f909190919091505f820151815f01556020820151816001015560408201518160020155606082015181600301556080820151816004015560a0820151816005015560c0820151816006015560e08201518160070155610100820151816008015550508973ffffffffffffffffffffffffffffffffffffffff167fccc62654ecd4111e8b4bedba3b24e6ea465563d9ac5b90500e2ba4c7a927479e87878b8b8e8a89898c604051610c3a99989796959493929190611e79565b60405180910390a250505050505050505050565b6006602052805f5260405f205f915054906101000a900460ff1681565b60055f9054906101000a900473ffffffffffffffffffffffffffffffffffffffff1681565b60018054610c9d90611b67565b80601f0160208091040260200160405190810160405280929190818152602001828054610cc990611b67565b8015610d145780601f10610ceb57610100808354040283529160200191610d14565b820191905f5260205f20905b815481529060010190602001808311610cf757829003601f168201915b505050505081565b5f610d283384846110a8565b6001905092915050565b6004602052815f5260405f20602052805f5260405f205f91509150505481565b5f60075f8373ffffffffffffffffffffffffffffffffffffffff1673ffffffffffffffffffffffffffffffffffffffff1681526020019081526020015f20805490509050919050565b610da361151f565b60075f8473ffffffffffffffffffffffffffffffffffffffff1673ffffffffffffffffffffffffffffffffffffffff1681526020019081526020015f20805490508210610e25576040517f08c379a0000000000000000000000000000000000000000000000000000000008152600401610e1c90611f4e565b60405180910390fd5b60075f8473ffffffffffffffffffffffffffffffffffffffff1673ffffffffffffffffffffffffffffffffffffffff1681526020019081526020015f208281548110610e7457610e73611f6c565b5b905f5260205f209060090201604051806101200160405290815f820154815260200160018201548152602001600282015481526020016003820154815260200160048201548152602001600582015481526020016006820154815260200160078201548152602001600882015481525050905092915050565b60055f9054906101000a900473ffffffffffffffffffffffffffffffffffffffff1673ffffffffffffffffffffffffffffffffffffffff163373ffffffffffffffffffffffffffffffffffffffff1614610f7c576040517f08c379a0000000000000000000000000000000000000000000000000000000008152600401610f7390611ca9565b60405180910390fd5b5f73ffffffffffffffffffffffffffffffffffffffff168173ffffffffffffffffffffffffffffffffffffffff1603610fea576040517f08c379a0000000000000000000000000000000000000000000000000000000008152600401610fe190611fe3565b60405180910390fd5b8073ffffffffffffffffffffffffffffffffffffffff1660055f9054906101000a900473ffffffffffffffffffffffffffffffffffffffff1673ffffffffffffffffffffffffffffffffffffffff167f8be0079c531659141344cd1fd0a4f28419497f9722a3daafe3b4186f6b6457e060405160405180910390a38060055f6101000a81548173ffffffffffffffffffffffffffffffffffffffff021916908373ffffffffffffffffffffffffffffffffffffffff16021790555050565b5f73ffffffffffffffffffffffffffffffffffffffff168273ffffffffffffffffffffffffffffffffffffffff1603611116576040517f08c379a000000000000000000000000000000000000000000000000000000000815260040161110d9061204b565b60405180910390fd5b5f60035f8573ffffffffffffffffffffffffffffffffffffffff1673ffffffffffffffffffffffffffffffffffffffff1681526020019081526020015f205490508181101561119a576040517f08c379a0000000000000000000000000000000000000000000000000000000008152600401611191906120b3565b60405180910390fd5b81810360035f8673ffffffffffffffffffffffffffffffffffffffff1673ffffffffffffffffffffffffffffffffffffffff1681526020019081526020015f20819055508160035f8573ffffffffffffffffffffffffffffffffffffffff1673ffffffffffffffffffffffffffffffffffffffff1681526020019081526020015f205f82825461122a91906120d1565b925050819055508273ffffffffffffffffffffffffffffffffffffffff168473ffffffffffffffffffffffffffffffffffffffff167fddf252ad1be2c89b69c2b068fc378daa952ba7f163c4a11628f55a4df523b3ef8460405161128e91906117be565b60405180910390a350505050565b5f73ffffffffffffffffffffffffffffffffffffffff168273ffffffffffffffffffffffffffffffffffffffff160361130a576040517f08c379a00000000000000000000000000000000000000000000000000000000081526004016113019061204b565b60405180910390fd5b8060025f82825461131b91906120d1565b925050819055508060035f8473ffffffffffffffffffffffffffffffffffffffff1673ffffffffffffffffffffffffffffffffffffffff1681526020019081526020015f205f82825461136e91906120d1565b925050819055508173ffffffffffffffffffffffffffffffffffffffff165f73ffffffffffffffffffffffffffffffffffffffff167fddf252ad1be2c89b69c2b068fc378daa952ba7f163c4a11628f55a4df523b3ef836040516113d291906117be565b60405180910390a35050565b5f60035f8473ffffffffffffffffffffffffffffffffffffffff1673ffffffffffffffffffffffffffffffffffffffff1681526020019081526020015f2054905081811015611462576040517f08c379a00000000000000000000000000000000000000000000000000000000081526004016114599061214e565b60405180910390fd5b81810360035f8573ffffffffffffffffffffffffffffffffffffffff1673ffffffffffffffffffffffffffffffffffffffff1681526020019081526020015f20819055508160025f82825403925050819055505f73ffffffffffffffffffffffffffffffffffffffff168373ffffffffffffffffffffffffffffffffffffffff167fddf252ad1be2c89b69c2b068fc378daa952ba7f163c4a11628f55a4df523b3ef8460405161151291906117be565b60405180910390a3505050565b6040518061012001604052805f81526020015f81526020015f81526020015f81526020015f81526020015f81526020015f81526020015f81526020015f81525090565b5f81519050919050565b5f82825260208201905092915050565b8281835e5f83830152505050565b5f601f19601f8301169050919050565b5f6115a482611562565b6115ae818561156c565b93506115be81856020860161157c565b6115c78161158a565b840191505092915050565b5f6020820190508181035f8301526115ea818461159a565b905092915050565b5f5ffd5b5f73ffffffffffffffffffffffffffffffffffffffff82169050919050565b5f61161f826115f6565b9050919050565b61162f81611615565b8114611639575f5ffd5b50565b5f8135905061164a81611626565b92915050565b5f819050919050565b61166281611650565b811461166c575f5ffd5b50565b5f8135905061167d81611659565b92915050565b5f5f60408385031215611699576116986115f2565b5b5f6116a68582860161163c565b92505060206116b78582860161166f565b9150509250929050565b5f8115159050919050565b6116d5816116c1565b82525050565b5f6020820190506116ee5f8301846116cc565b92915050565b6116fd81611650565b82525050565b5f819050919050565b61171581611703565b82525050565b5f819050919050565b61172d8161171b565b82525050565b5f610120820190506117475f83018c6116f4565b611754602083018b6116f4565b611761604083018a6116f4565b61176e60608301896116f4565b61177b608083018861170c565b61178860a0830187611724565b61179560c08301866116f4565b6117a260e08301856116f4565b6117b061010083018461170c565b9a9950505050505050505050565b5f6020820190506117d15f8301846116f4565b92915050565b5f5f5f606084860312156117ee576117ed6115f2565b5b5f6117fb8682870161163c565b935050602061180c8682870161163c565b925050604061181d8682870161166f565b9150509250925092565b5f60ff82169050919050565b61183c81611827565b82525050565b5f6020820190506118555f830184611833565b92915050565b5f602082840312156118705761186f6115f2565b5b5f61187d8482850161163c565b91505092915050565b5f819050919050565b5f6118a96118a461189f846115f6565b611886565b6115f6565b9050919050565b5f6118ba8261188f565b9050919050565b5f6118cb826118b0565b9050919050565b6118db816118c1565b82525050565b5f6020820190506118f45f8301846118d2565b92915050565b61190381611703565b811461190d575f5ffd5b50565b5f8135905061191e816118fa565b92915050565b5f5f5f5f5f5f60c0878903121561193e5761193d6115f2565b5b5f61194b89828a0161163c565b965050602061195c89828a0161166f565b955050604061196d89828a0161166f565b945050606061197e89828a0161166f565b935050608061198f89828a01611910565b92505060a06119a089828a01611910565b9150509295509295509295565b5f602082840312156119c2576119c16115f2565b5b5f6119cf84828501611910565b91505092915050565b6119e181611615565b82525050565b5f6020820190506119fa5f8301846119d8565b92915050565b5f5f60408385031215611a1657611a156115f2565b5b5f611a238582860161163c565b9250506020611a348582860161163c565b9150509250929050565b611a4781611650565b82525050565b611a5681611703565b82525050565b611a658161171b565b82525050565b61012082015f820151611a805f850182611a3e565b506020820151611a936020850182611a3e565b506040820151611aa66040850182611a3e565b506060820151611ab96060850182611a3e565b506080820151611acc6080850182611a4d565b5060a0820151611adf60a0850182611a5c565b5060c0820151611af260c0850182611a3e565b5060e0820151611b0560e0850182611a3e565b50610100820151611b1a610100850182611a4d565b50505050565b5f61012082019050611b345f830184611a6b565b92915050565b7f4e487b71000000000000000000000000000000000000000000000000000000005f52602260045260245ffd5b5f6002820490506001821680611b7e57607f821691505b602082108103611b9157611b90611b3a565b5b50919050565b7f416c6c6f77616e636520746f6f206c6f770000000000000000000000000000005f82015250565b5f611bcb60118361156c565b9150611bd682611b97565b602082019050919050565b5f6020820190508181035f830152611bf881611bbf565b9050919050565b7f4e487b71000000000000000000000000000000000000000000000000000000005f52601160045260245ffd5b5f611c3682611650565b9150611c4183611650565b9250828203905081811115611c5957611c58611bff565b5b92915050565b7f4e6f74206f776e657200000000000000000000000000000000000000000000005f82015250565b5f611c9360098361156c565b9150611c9e82611c5f565b602082019050919050565b5f6020820190508181035f830152611cc081611c87565b9050919050565b7f426174636820616c72656164792070726f6365737365640000000000000000005f82015250565b5f611cfb60178361156c565b9150611d0682611cc7565b602082019050919050565b5f6020820190508181035f830152611d2881611cef565b9050919050565b5f81519050611d3d81611659565b92915050565b5f60208284031215611d5857611d576115f2565b5b5f611d6584828501611d2f565b91505092915050565b7f636170206d697373696e670000000000000000000000000000000000000000005f82015250565b5f611da2600b8361156c565b9150611dad82611d6e565b602082019050919050565b5f6020820190508181035f830152611dcf81611d96565b9050919050565b7f4e487b71000000000000000000000000000000000000000000000000000000005f52601260045260245ffd5b5f611e0d82611650565b9150611e1883611650565b925082611e2857611e27611dd6565b5b828204905092915050565b5f611e3d8261171b565b91507f80000000000000000000000000000000000000000000000000000000000000008203611e6f57611e6e611bff565b5b815f039050919050565b5f61012082019050611e8d5f83018c61170c565b611e9a602083018b61170c565b611ea7604083018a6116f4565b611eb460608301896116f4565b611ec160808301886116f4565b611ece60a08301876116f4565b611edb60c08301866116f4565b611ee860e08301856116f4565b611ef6610100830184611724565b9a9950505050505050505050565b7f696e646578206f7574206f6620626f756e6473000000000000000000000000005f82015250565b5f611f3860138361156c565b9150611f4382611f04565b602082019050919050565b5f6020820190508181035f830152611f6581611f2c565b9050919050565b7f4e487b71000000000000000000000000000000000000000000000000000000005f52603260045260245ffd5b7f5a65726f206f776e6572000000000000000000000000000000000000000000005f82015250565b5f611fcd600a8361156c565b9150611fd882611f99565b602082019050919050565b5f6020820190508181035f830152611ffa81611fc1565b9050919050565b7f5a65726f20746f000000000000000000000000000000000000000000000000005f82015250565b5f61203560078361156c565b915061204082612001565b602082019050919050565b5f6020820190508181035f83015261206281612029565b9050919050565b7f42616c616e636520746f6f206c6f7700000000000000000000000000000000005f82015250565b5f61209d600f8361156c565b91506120a882612069565b602082019050919050565b5f6020820190508181035f8301526120ca81612091565b9050919050565b5f6120db82611650565b91506120e683611650565b92508282019050808211156120fe576120fd611bff565b5b92915050565b7f4275726e20657863656564732062616c616e63650000000000000000000000005f82015250565b5f61213860148361156c565b915061214382612104565b602082019050919050565b5f6020820190508181035f8301526121658161212c565b905091905056fea26469706673582212206ca854a231efce2aff2dfefb41c9f0a877ca6d2e4070161800357f31c411063364736f6c634300081e0033",
					"opcodes": "PUSH1 0xA0 PUSH1 0x40 MSTORE PUSH1 0x40 MLOAD DUP1 PUSH1 0x40 ADD PUSH1 0x40 MSTORE DUP1 PUSH1 0x11 DUP2 MSTORE PUSH1 0x20 ADD PUSH32 0x436172626F6E437265646974546F6B656E000000000000000000000000000000 DUP2 MSTORE POP PUSH0 SWAP1 DUP2 PUSH2 0x47 SWAP2 SWAP1 PUSH2 0x439 JUMP JUMPDEST POP PUSH1 0x40 MLOAD DUP1 PUSH1 0x40 ADD PUSH1 0x40 MSTORE DUP1 PUSH1 0x3 DUP2 MSTORE PUSH1 0x20 ADD PUSH32 0x4343540000000000000000000000000000000000000000000000000000000000 DUP2 MSTORE POP PUSH1 0x1 SWAP1 DUP2 PUSH2 0x8C SWAP2 SWAP1 PUSH2 0x439 JUMP JUMPDEST POP CALLVALUE DUP1 ISZERO PUSH2 0x98 JUMPI PUSH0 PUSH0 REVERT JUMPDEST POP PUSH1 0x40 MLOAD PUSH2 0x27CA CODESIZE SUB DUP1 PUSH2 0x27CA DUP4 CODECOPY DUP2 DUP2 ADD PUSH1 0x40 MSTORE DUP2 ADD SWAP1 PUSH2 0xBA SWAP2 SWAP1 PUSH2 0x566 JUMP JUMPDEST PUSH0 PUSH20 0xFFFFFFFFFFFFFFFFFFFFFFFFFFFFFFFFFFFFFFFF AND DUP2 PUSH20 0xFFFFFFFFFFFFFFFFFFFFFFFFFFFFFFFFFFFFFFFF AND SUB PUSH2 0x128 JUMPI PUSH1 0x40 MLOAD PUSH32 0x8C379A000000000000000000000000000000000000000000000000000000000 DUP2 MSTORE PUSH1 0x4 ADD PUSH2 0x11F SWAP1 PUSH2 0x5EB JUMP JUMPDEST PUSH1 0x40 MLOAD DUP1 SWAP2 SUB SWAP1 REVERT JUMPDEST DUP1 PUSH20 0xFFFFFFFFFFFFFFFFFFFFFFFFFFFFFFFFFFFFFFFF AND PUSH1 0x80 DUP2 PUSH20 0xFFFFFFFFFFFFFFFFFFFFFFFFFFFFFFFFFFFFFFFF AND DUP2 MSTORE POP POP CALLER PUSH1 0x5 PUSH0 PUSH2 0x100 EXP DUP2 SLOAD DUP2 PUSH20 0xFFFFFFFFFFFFFFFFFFFFFFFFFFFFFFFFFFFFFFFF MUL NOT AND SWAP1 DUP4 PUSH20 0xFFFFFFFFFFFFFFFFFFFFFFFFFFFFFFFFFFFFFFFF AND MUL OR SWAP1 SSTORE POP CALLER PUSH20 0xFFFFFFFFFFFFFFFFFFFFFFFFFFFFFFFFFFFFFFFF AND PUSH0 PUSH20 0xFFFFFFFFFFFFFFFFFFFFFFFFFFFFFFFFFFFFFFFF AND PUSH32 0x8BE0079C531659141344CD1FD0A4F28419497F9722A3DAAFE3B4186F6B6457E0 PUSH1 0x40 MLOAD PUSH1 0x40 MLOAD DUP1 SWAP2 SUB SWAP1 LOG3 POP PUSH2 0x609 JUMP JUMPDEST PUSH0 DUP2 MLOAD SWAP1 POP SWAP2 SWAP1 POP JUMP JUMPDEST PUSH32 0x4E487B7100000000000000000000000000000000000000000000000000000000 PUSH0 MSTORE PUSH1 0x41 PUSH1 0x4 MSTORE PUSH1 0x24 PUSH0 REVERT JUMPDEST PUSH32 0x4E487B7100000000000000000000000000000000000000000000000000000000 PUSH0 MSTORE PUSH1 0x22 PUSH1 0x4 MSTORE PUSH1 0x24 PUSH0 REVERT JUMPDEST PUSH0 PUSH1 0x2 DUP3 DIV SWAP1 POP PUSH1 0x1 DUP3 AND DUP1 PUSH2 0x277 JUMPI PUSH1 0x7F DUP3 AND SWAP2 POP JUMPDEST PUSH1 0x20 DUP3 LT DUP2 SUB PUSH2 0x28A JUMPI PUSH2 0x289 PUSH2 0x233 JUMP JUMPDEST JUMPDEST POP SWAP2 SWAP1 POP JUMP JUMPDEST PUSH0 DUP2 SWAP1 POP DUP2 PUSH0 MSTORE PUSH1 0x20 PUSH0 KECCAK256 SWAP1 POP SWAP2 SWAP1 POP JUMP JUMPDEST PUSH0 PUSH1 0x20 PUSH1 0x1F DUP4 ADD DIV SWAP1 POP SWAP2 SWAP1 POP JUMP JUMPDEST PUSH0 DUP3 DUP3 SHL SWAP1 POP SWAP3 SWAP2 POP POP JUMP JUMPDEST PUSH0 PUSH1 0x8 DUP4 MUL PUSH2 0x2EC PUSH32 0xFFFFFFFFFFFFFFFFFFFFFFFFFFFFFFFFFFFFFFFFFFFFFFFFFFFFFFFFFFFFFFFF DUP3 PUSH2 0x2B1 JUMP JUMPDEST PUSH2 0x2F6 DUP7 DUP4 PUSH2 0x2B1 JUMP JUMPDEST SWAP6 POP DUP1 NOT DUP5 AND SWAP4 POP DUP1 DUP7 AND DUP5 OR SWAP3 POP POP POP SWAP4 SWAP3 POP POP POP JUMP JUMPDEST PUSH0 DUP2 SWAP1 POP SWAP2 SWAP1 POP JUMP JUMPDEST PUSH0 DUP2 SWAP1 POP SWAP2 SWAP1 POP JUMP JUMPDEST PUSH0 PUSH2 0x33A PUSH2 0x335 PUSH2 0x330 DUP5 PUSH2 0x30E JUMP JUMPDEST PUSH2 0x317 JUMP JUMPDEST PUSH2 0x30E JUMP JUMPDEST SWAP1 POP SWAP2 SWAP1 POP JUMP JUMPDEST PUSH0 DUP2 SWAP1 POP SWAP2 SWAP1 POP JUMP JUMPDEST PUSH2 0x353 DUP4 PUSH2 0x320 JUMP JUMPDEST PUSH2 0x367 PUSH2 0x35F DUP3 PUSH2 0x341 JUMP JUMPDEST DUP5 DUP5 SLOAD PUSH2 0x2BD JUMP JUMPDEST DUP3 SSTORE POP POP POP POP JUMP JUMPDEST PUSH0 PUSH0 SWAP1 POP SWAP1 JUMP JUMPDEST PUSH2 0x37E PUSH2 0x36F JUMP JUMPDEST PUSH2 0x389 DUP2 DUP5 DUP5 PUSH2 0x34A JUMP JUMPDEST POP POP POP JUMP JUMPDEST JUMPDEST DUP2 DUP2 LT ISZERO PUSH2 0x3AC JUMPI PUSH2 0x3A1 PUSH0 DUP3 PUSH2 0x376 JUMP JUMPDEST PUSH1 0x1 DUP2 ADD SWAP1 POP PUSH2 0x38F JUMP JUMPDEST POP POP JUMP JUMPDEST PUSH1 0x1F DUP3 GT ISZERO PUSH2 0x3F1 JUMPI PUSH2 0x3C2 DUP2 PUSH2 0x290 JUMP JUMPDEST PUSH2 0x3CB DUP5 PUSH2 0x2A2 JUMP JUMPDEST DUP2 ADD PUSH1 0x20 DUP6 LT ISZERO PUSH2 0x3DA JUMPI DUP2 SWAP1 POP JUMPDEST PUSH2 0x3EE PUSH2 0x3E6 DUP6 PUSH2 0x2A2 JUMP JUMPDEST DUP4 ADD DUP3 PUSH2 0x38E JUMP JUMPDEST POP POP JUMPDEST POP POP POP JUMP JUMPDEST PUSH0 DUP3 DUP3 SHR SWAP1 POP SWAP3 SWAP2 POP POP JUMP JUMPDEST PUSH0 PUSH2 0x411 PUSH0 NOT DUP5 PUSH1 0x8 MUL PUSH2 0x3F6 JUMP JUMPDEST NOT DUP1 DUP4 AND SWAP2 POP POP SWAP3 SWAP2 POP POP JUMP JUMPDEST PUSH0 PUSH2 0x429 DUP4 DUP4 PUSH2 0x402 JUMP JUMPDEST SWAP2 POP DUP3 PUSH1 0x2 MUL DUP3 OR SWAP1 POP SWAP3 SWAP2 POP POP JUMP JUMPDEST PUSH2 0x442 DUP3 PUSH2 0x1FC JUMP JUMPDEST PUSH8 0xFFFFFFFFFFFFFFFF DUP2 GT ISZERO PUSH2 0x45B JUMPI PUSH2 0x45A PUSH2 0x206 JUMP JUMPDEST JUMPDEST PUSH2 0x465 DUP3 SLOAD PUSH2 0x260 JUMP JUMPDEST PUSH2 0x470 DUP3 DUP3 DUP6 PUSH2 0x3B0 JUMP JUMPDEST PUSH0 PUSH1 0x20 SWAP1 POP PUSH1 0x1F DUP4 GT PUSH1 0x1 DUP2 EQ PUSH2 0x4A1 JUMPI PUSH0 DUP5 ISZERO PUSH2 0x48F JUMPI DUP3 DUP8 ADD MLOAD SWAP1 POP JUMPDEST PUSH2 0x499 DUP6 DUP3 PUSH2 0x41E JUMP JUMPDEST DUP7 SSTORE POP PUSH2 0x500 JUMP JUMPDEST PUSH1 0x1F NOT DUP5 AND PUSH2 0x4AF DUP7 PUSH2 0x290 JUMP JUMPDEST PUSH0 JUMPDEST DUP3 DUP2 LT ISZERO PUSH2 0x4D6 JUMPI DUP5 DUP10 ADD MLOAD DUP3 SSTORE PUSH1 0x1 DUP3 ADD SWAP2 POP PUSH1 0x20 DUP6 ADD SWAP5 POP PUSH1 0x20 DUP2 ADD SWAP1 POP PUSH2 0x4B1 JUMP JUMPDEST DUP7 DUP4 LT ISZERO PUSH2 0x4F3 JUMPI DUP5 DUP10 ADD MLOAD PUSH2 0x4EF PUSH1 0x1F DUP10 AND DUP3 PUSH2 0x402 JUMP JUMPDEST DUP4 SSTORE POP JUMPDEST PUSH1 0x1 PUSH1 0x2 DUP9 MUL ADD DUP9 SSTORE POP POP POP JUMPDEST POP POP POP POP POP POP JUMP JUMPDEST PUSH0 PUSH0 REVERT JUMPDEST PUSH0 PUSH20 0xFFFFFFFFFFFFFFFFFFFFFFFFFFFFFFFFFFFFFFFF DUP3 AND SWAP1 POP SWAP2 SWAP1 POP JUMP JUMPDEST PUSH0 PUSH2 0x535 DUP3 PUSH2 0x50C JUMP JUMPDEST SWAP1 POP SWAP2 SWAP1 POP JUMP JUMPDEST PUSH2 0x545 DUP2 PUSH2 0x52B JUMP JUMPDEST DUP2 EQ PUSH2 0x54F JUMPI PUSH0 PUSH0 REVERT JUMPDEST POP JUMP JUMPDEST PUSH0 DUP2 MLOAD SWAP1 POP PUSH2 0x560 DUP2 PUSH2 0x53C JUMP JUMPDEST SWAP3 SWAP2 POP POP JUMP JUMPDEST PUSH0 PUSH1 0x20 DUP3 DUP5 SUB SLT ISZERO PUSH2 0x57B JUMPI PUSH2 0x57A PUSH2 0x508 JUMP JUMPDEST JUMPDEST PUSH0 PUSH2 0x588 DUP5 DUP3 DUP6 ADD PUSH2 0x552 JUMP JUMPDEST SWAP2 POP POP SWAP3 SWAP2 POP POP JUMP JUMPDEST PUSH0 DUP3 DUP3 MSTORE PUSH1 0x20 DUP3 ADD SWAP1 POP SWAP3 SWAP2 POP POP JUMP JUMPDEST PUSH32 0x7265676973747279207265717569726564000000000000000000000000000000 PUSH0 DUP3 ADD MSTORE POP JUMP JUMPDEST PUSH0 PUSH2 0x5D5 PUSH1 0x11 DUP4 PUSH2 0x591 JUMP JUMPDEST SWAP2 POP PUSH2 0x5E0 DUP3 PUSH2 0x5A1 JUMP JUMPDEST PUSH1 0x20 DUP3 ADD SWAP1 POP SWAP2 SWAP1 POP JUMP JUMPDEST PUSH0 PUSH1 0x20 DUP3 ADD SWAP1 POP DUP2 DUP2 SUB PUSH0 DUP4 ADD MSTORE PUSH2 0x602 DUP2 PUSH2 0x5C9 JUMP JUMPDEST SWAP1 POP SWAP2 SWAP1 POP JUMP JUMPDEST PUSH1 0x80 MLOAD PUSH2 0x21A2 PUSH2 0x628 PUSH0 CODECOPY PUSH0 DUP2 DUP2 PUSH2 0x735 ADD MSTORE PUSH2 0x870 ADD MSTORE PUSH2 0x21A2 PUSH0 RETURN INVALID PUSH1 0x80 PUSH1 0x40 MSTORE CALLVALUE DUP1 ISZERO PUSH2 0xF JUMPI PUSH0 PUSH0 REVERT JUMPDEST POP PUSH1 0x4 CALLDATASIZE LT PUSH2 0x109 JUMPI PUSH0 CALLDATALOAD PUSH1 0xE0 SHR DUP1 PUSH4 0x812DA1E2 GT PUSH2 0xA0 JUMPI DUP1 PUSH4 0xA9059CBB GT PUSH2 0x6F JUMPI DUP1 PUSH4 0xA9059CBB EQ PUSH2 0x2D5 JUMPI DUP1 PUSH4 0xDD62ED3E EQ PUSH2 0x305 JUMPI DUP1 PUSH4 0xE8ACCB5B EQ PUSH2 0x335 JUMPI DUP1 PUSH4 0xEB6F0C93 EQ PUSH2 0x365 JUMPI DUP1 PUSH4 0xF2FDE38B EQ PUSH2 0x395 JUMPI PUSH2 0x109 JUMP JUMPDEST DUP1 PUSH4 0x812DA1E2 EQ PUSH2 0x24D JUMPI DUP1 PUSH4 0x88FCDA39 EQ PUSH2 0x269 JUMPI DUP1 PUSH4 0x8DA5CB5B EQ PUSH2 0x299 JUMPI DUP1 PUSH4 0x95D89B41 EQ PUSH2 0x2B7 JUMPI PUSH2 0x109 JUMP JUMPDEST DUP1 PUSH4 0x23B872DD GT PUSH2 0xDC JUMPI DUP1 PUSH4 0x23B872DD EQ PUSH2 0x1B1 JUMPI DUP1 PUSH4 0x313CE567 EQ PUSH2 0x1E1 JUMPI DUP1 PUSH4 0x70A08231 EQ PUSH2 0x1FF JUMPI DUP1 PUSH4 0x7B103999 EQ PUSH2 0x22F JUMPI PUSH2 0x109 JUMP JUMPDEST DUP1 PUSH4 0x6FDDE03 EQ PUSH2 0x10D JUMPI DUP1 PUSH4 0x95EA7B3 EQ PUSH2 0x12B JUMPI DUP1 PUSH4 0x1344F9B4 EQ PUSH2 0x15B JUMPI DUP1 PUSH4 0x18160DDD EQ PUSH2 0x193 JUMPI JUMPDEST PUSH0 PUSH0 REVERT JUMPDEST PUSH2 0x115 PUSH2 0x3B1 JUMP JUMPDEST PUSH1 0x40 MLOAD PUSH2 0x122 SWAP2 SWAP1 PUSH2 0x15D2 JUMP JUMPDEST PUSH1 0x40 MLOAD DUP1 SWAP2 SUB SWAP1 RETURN JUMPDEST PUSH2 0x145 PUSH1 0x4 DUP1 CALLDATASIZE SUB DUP2 ADD SWAP1 PUSH2 0x140 SWAP2 SWAP1 PUSH2 0x1683 JUMP JUMPDEST PUSH2 0x43C JUMP JUMPDEST PUSH1 0x40 MLOAD PUSH2 0x152 SWAP2 SWAP1 PUSH2 0x16DB JUMP JUMPDEST PUSH1 0x40 MLOAD DUP1 SWAP2 SUB SWAP1 RETURN JUMPDEST PUSH2 0x175 PUSH1 0x4 DUP1 CALLDATASIZE SUB DUP2 ADD SWAP1 PUSH2 0x170 SWAP2 SWAP1 PUSH2 0x1683 JUMP JUMPDEST PUSH2 0x529 JUMP JUMPDEST PUSH1 0x40 MLOAD PUSH2 0x18A SWAP10 SWAP9 SWAP8 SWAP7 SWAP6 SWAP5 SWAP4 SWAP3 SWAP2 SWAP1 PUSH2 0x1733 JUMP JUMPDEST PUSH1 0x40 MLOAD DUP1 SWAP2 SUB SWAP1 RETURN JUMPDEST PUSH2 0x19B PUSH2 0x58D JUMP JUMPDEST PUSH1 0x40 MLOAD PUSH2 0x1A8 SWAP2 SWAP1 PUSH2 0x17BE JUMP JUMPDEST PUSH1 0x40 MLOAD DUP1 SWAP2 SUB SWAP1 RETURN JUMPDEST PUSH2 0x1CB PUSH1 0x4 DUP1 CALLDATASIZE SUB DUP2 ADD SWAP1 PUSH2 0x1C6 SWAP2 SWAP1 PUSH2 0x17D7 JUMP JUMPDEST PUSH2 0x593 JUMP JUMPDEST PUSH1 0x40 MLOAD PUSH2 0x1D8 SWAP2 SWAP1 PUSH2 0x16DB JUMP JUMPDEST PUSH1 0x40 MLOAD DUP1 SWAP2 SUB SWAP1 RETURN JUMPDEST PUSH2 0x1E9 PUSH2 0x71A JUMP JUMPDEST PUSH1 0x40 MLOAD PUSH2 0x1F6 SWAP2 SWAP1 PUSH2 0x1842 JUMP JUMPDEST PUSH1 0x40 MLOAD DUP1 SWAP2 SUB SWAP1 RETURN JUMPDEST PUSH2 0x219 PUSH1 0x4 DUP1 CALLDATASIZE SUB DUP2 ADD SWAP1 PUSH2 0x214 SWAP2 SWAP1 PUSH2 0x185B JUMP JUMPDEST PUSH2 0x71E JUMP JUMPDEST PUSH1 0x40 MLOAD PUSH2 0x226 SWAP2 SWAP1 PUSH2 0x17BE JUMP JUMPDEST PUSH1 0x40 MLOAD DUP1 SWAP2 SUB SWAP1 RETURN JUMPDEST PUSH2 0x237 PUSH2 0x733 JUMP JUMPDEST PUSH1 0x40 MLOAD PUSH2 0x244 SWAP2 SWAP1 PUSH2 0x18E1 JUMP JUMPDEST PUSH1 0x40 MLOAD DUP1 SWAP2 SUB SWAP1 RETURN JUMPDEST PUSH2 0x267 PUSH1 0x4 DUP1 CALLDATASIZE SUB DUP2 ADD SWAP1 PUSH2 0x262 SWAP2 SWAP1 PUSH2 0x1924 JUMP JUMPDEST PUSH2 0x757 JUMP JUMPDEST STOP JUMPDEST PUSH2 0x283 PUSH1 0x4 DUP1 CALLDATASIZE SUB DUP2 ADD SWAP1 PUSH2 0x27E SWAP2 SWAP1 PUSH2 0x19AD JUMP JUMPDEST PUSH2 0xC4E JUMP JUMPDEST PUSH1 0x40 MLOAD PUSH2 0x290 SWAP2 SWAP1 PUSH2 0x16DB JUMP JUMPDEST PUSH1 0x40 MLOAD DUP1 SWAP2 SUB SWAP1 RETURN JUMPDEST PUSH2 0x2A1 PUSH2 0xC6B JUMP JUMPDEST PUSH1 0x40 MLOAD PUSH2 0x2AE SWAP2 SWAP1 PUSH2 0x19E7 JUMP JUMPDEST PUSH1 0x40 MLOAD DUP1 SWAP2 SUB SWAP1 RETURN JUMPDEST PUSH2 0x2BF PUSH2 0xC90 JUMP JUMPDEST PUSH1 0x40 MLOAD PUSH2 0x2CC SWAP2 SWAP1 PUSH2 0x15D2 JUMP JUMPDEST PUSH1 0x40 MLOAD DUP1 SWAP2 SUB SWAP1 RETURN JUMPDEST PUSH2 0x2EF PUSH1 0x4 DUP1 CALLDATASIZE SUB DUP2 ADD SWAP1 PUSH2 0x2EA SWAP2 SWAP1 PUSH2 0x1683 JUMP JUMPDEST PUSH2 0xD1C JUMP JUMPDEST PUSH1 0x40 MLOAD PUSH2 0x2FC SWAP2 SWAP1 PUSH2 0x16DB JUMP JUMPDEST PUSH1 0x40 MLOAD DUP1 SWAP2 SUB SWAP1 RETURN JUMPDEST PUSH2 0x31F PUSH1 0x4 DUP1 CALLDATASIZE SUB DUP2 ADD SWAP1 PUSH2 0x31A SWAP2 SWAP1 PUSH2 0x1A00 JUMP JUMPDEST PUSH2 0xD32 JUMP JUMPDEST PUSH1 0x40 MLOAD PUSH2 0x32C SWAP2 SWAP1 PUSH2 0x17BE JUMP JUMPDEST PUSH1 0x40 MLOAD DUP1 SWAP2 SUB SWAP1 RETURN JUMPDEST PUSH2 0x34F PUSH1 0x4 DUP1 CALLDATASIZE SUB DUP2 ADD SWAP1 PUSH2 0x34A SWAP2 SWAP1 PUSH2 0x185B JUMP JUMPDEST PUSH2 0xD52 JUMP JUMPDEST PUSH1 0x40 MLOAD PUSH2 0x35C SWAP2 SWAP1 PUSH2 0x17BE JUMP JUMPDEST PUSH1 0x40 MLOAD DUP1 SWAP2 SUB SWAP1 RETURN JUMPDEST PUSH2 0x37F PUSH1 0x4 DUP1 CALLDATASIZE SUB DUP2 ADD SWAP1 PUSH2 0x37A SWAP2 SWAP1 PUSH2 0x1683 JUMP JUMPDEST PUSH2 0xD9B JUMP JUMPDEST PUSH1 0x40 MLOAD PUSH2 0x38C SWAP2 SWAP1 PUSH2 0x1B20 JUMP JUMPDEST PUSH1 0x40 MLOAD DUP1 SWAP2 SUB SWAP1 RETURN JUMPDEST PUSH2 0x3AF PUSH1 0x4 DUP1 CALLDATASIZE SUB DUP2 ADD SWAP1 PUSH2 0x3AA SWAP2 SWAP1 PUSH2 0x185B JUMP JUMPDEST PUSH2 0xEED JUMP JUMPDEST STOP JUMPDEST PUSH0 DUP1 SLOAD PUSH2 0x3BD SWAP1 PUSH2 0x1B67 JUMP JUMPDEST DUP1 PUSH1 0x1F ADD PUSH1 0x20 DUP1 SWAP2 DIV MUL PUSH1 0x20 ADD PUSH1 0x40 MLOAD SWAP1 DUP2 ADD PUSH1 0x40 MSTORE DUP1 SWAP3 SWAP2 SWAP1 DUP2 DUP2 MSTORE PUSH1 0x20 ADD DUP3 DUP1 SLOAD PUSH2 0x3E9 SWAP1 PUSH2 0x1B67 JUMP JUMPDEST DUP1 ISZERO PUSH2 0x434 JUMPI DUP1 PUSH1 0x1F LT PUSH2 0x40B JUMPI PUSH2 0x100 DUP1 DUP4 SLOAD DIV MUL DUP4 MSTORE SWAP2 PUSH1 0x20 ADD SWAP2 PUSH2 0x434 JUMP JUMPDEST DUP3 ADD SWAP2 SWAP1 PUSH0 MSTORE PUSH1 0x20 PUSH0 KECCAK256 SWAP1 JUMPDEST DUP2 SLOAD DUP2 MSTORE SWAP1 PUSH1 0x1 ADD SWAP1 PUSH1 0x20 ADD DUP1 DUP4 GT PUSH2 0x417 JUMPI DUP3 SWAP1 SUB PUSH1 0x1F AND DUP3 ADD SWAP2 JUMPDEST POP POP POP POP POP DUP2 JUMP JUMPDEST PUSH0 DUP2 PUSH1 0x4 PUSH0 CALLER PUSH20 0xFFFFFFFFFFFFFFFFFFFFFFFFFFFFFFFFFFFFFFFF AND PUSH20 0xFFFFFFFFFFFFFFFFFFFFFFFFFFFFFFFFFFFFFFFF AND DUP2 MSTORE PUSH1 0x20 ADD SWAP1 DUP2 MSTORE PUSH1 0x20 ADD PUSH0 KECCAK256 PUSH0 DUP6 PUSH20 0xFFFFFFFFFFFFFFFFFFFFFFFFFFFFFFFFFFFFFFFF AND PUSH20 0xFFFFFFFFFFFFFFFFFFFFFFFFFFFFFFFFFFFFFFFF AND DUP2 MSTORE PUSH1 0x20 ADD SWAP1 DUP2 MSTORE PUSH1 0x20 ADD PUSH0 KECCAK256 DUP2 SWAP1 SSTORE POP DUP3 PUSH20 0xFFFFFFFFFFFFFFFFFFFFFFFFFFFFFFFFFFFFFFFF AND CALLER PUSH20 0xFFFFFFFFFFFFFFFFFFFFFFFFFFFFFFFFFFFFFFFF AND PUSH32 0x8C5BE1E5EBEC7D5BD14F71427D1E84F3DD0314C0F7B2291E5B200AC8C7C3B925 DUP5 PUSH1 0x40 MLOAD PUSH2 0x517 SWAP2 SWAP1 PUSH2 0x17BE JUMP JUMPDEST PUSH1 0x40 MLOAD DUP1 SWAP2 SUB SWAP1 LOG3 PUSH1 0x1 SWAP1 POP SWAP3 SWAP2 POP POP JUMP JUMPDEST PUSH1 0x7 PUSH1 0x20 MSTORE DUP2 PUSH0 MSTORE PUSH1 0x40 PUSH0 KECCAK256 DUP2 DUP2 SLOAD DUP2 LT PUSH2 0x542 JUMPI PUSH0 DUP1 REVERT JUMPDEST SWAP1 PUSH0 MSTORE PUSH1 0x20 PUSH0 KECCAK256 SWAP1 PUSH1 0x9 MUL ADD PUSH0 SWAP2 POP SWAP2 POP POP DUP1 PUSH0 ADD SLOAD SWAP1 DUP1 PUSH1 0x1 ADD SLOAD SWAP1 DUP1 PUSH1 0x2 ADD SLOAD SWAP1 DUP1 PUSH1 0x3 ADD SLOAD SWAP1 DUP1 PUSH1 0x4 ADD SLOAD SWAP1 DUP1 PUSH1 0x5 ADD SLOAD SWAP1 DUP1 PUSH1 0x6 ADD SLOAD SWAP1 DUP1 PUSH1 0x7 ADD SLOAD SWAP1 DUP1 PUSH1 0x8 ADD SLOAD SWAP1 POP DUP10 JUMP JUMPDEST PUSH1 0x2 SLOAD DUP2 JUMP JUMPDEST PUSH0 PUSH0 PUSH1 0x4 PUSH0 DUP7 PUSH20 0xFFFFFFFFFFFFFFFFFFFFFFFFFFFFFFFFFFFFFFFF AND PUSH20 0xFFFFFFFFFFFFFFFFFFFFFFFFFFFFFFFFFFFFFFFF AND DUP2 MSTORE PUSH1 0x20 ADD SWAP1 DUP2 MSTORE PUSH1 0x20 ADD PUSH0 KECCAK256 PUSH0 CALLER PUSH20 0xFFFFFFFFFFFFFFFFFFFFFFFFFFFFFFFFFFFFFFFF AND PUSH20 0xFFFFFFFFFFFFFFFFFFFFFFFFFFFFFFFFFFFFFFFF AND DUP2 MSTORE PUSH1 0x20 ADD SWAP1 DUP2 MSTORE PUSH1 0x20 ADD PUSH0 KECCAK256 SLOAD SWAP1 POP DUP3 DUP2 LT ISZERO PUSH2 0x653 JUMPI PUSH1 0x40 MLOAD PUSH32 0x8C379A000000000000000000000000000000000000000000000000000000000 DUP2 MSTORE PUSH1 0x4 ADD PUSH2 0x64A SWAP1 PUSH2 0x1BE1 JUMP JUMPDEST PUSH1 0x40 MLOAD DUP1 SWAP2 SUB SWAP1 REVERT JUMPDEST PUSH32 0xFFFFFFFFFFFFFFFFFFFFFFFFFFFFFFFFFFFFFFFFFFFFFFFFFFFFFFFFFFFFFFFF DUP2 EQ PUSH2 0x703 JUMPI DUP3 DUP2 PUSH2 0x686 SWAP2 SWAP1 PUSH2 0x1C2C JUMP JUMPDEST PUSH1 0x4 PUSH0 DUP8 PUSH20 0xFFFFFFFFFFFFFFFFFFFFFFFFFFFFFFFFFFFFFFFF AND PUSH20 0xFFFFFFFFFFFFFFFFFFFFFFFFFFFFFFFFFFFFFFFF AND DUP2 MSTORE PUSH1 0x20 ADD SWAP1 DUP2 MSTORE PUSH1 0x20 ADD PUSH0 KECCAK256 PUSH0 CALLER PUSH20 0xFFFFFFFFFFFFFFFFFFFFFFFFFFFFFFFFFFFFFFFF AND PUSH20 0xFFFFFFFFFFFFFFFFFFFFFFFFFFFFFFFFFFFFFFFF AND DUP2 MSTORE PUSH1 0x20 ADD SWAP1 DUP2 MSTORE PUSH1 0x20 ADD PUSH0 KECCAK256 DUP2 SWAP1 SSTORE POP JUMPDEST PUSH2 0x70E DUP6 DUP6 DUP6 PUSH2 0x10A8 JUMP JUMPDEST PUSH1 0x1 SWAP2 POP POP SWAP4 SWAP3 POP POP POP JUMP JUMPDEST PUSH0 DUP2 JUMP JUMPDEST PUSH1 0x3 PUSH1 0x20 MSTORE DUP1 PUSH0 MSTORE PUSH1 0x40 PUSH0 KECCAK256 PUSH0 SWAP2 POP SWAP1 POP SLOAD DUP2 JUMP JUMPDEST PUSH32 0x0 DUP2 JUMP JUMPDEST PUSH1 0x5 PUSH0 SWAP1 SLOAD SWAP1 PUSH2 0x100 EXP SWAP1 DIV PUSH20 0xFFFFFFFFFFFFFFFFFFFFFFFFFFFFFFFFFFFFFFFF AND PUSH20 0xFFFFFFFFFFFFFFFFFFFFFFFFFFFFFFFFFFFFFFFF AND CALLER PUSH20 0xFFFFFFFFFFFFFFFFFFFFFFFFFFFFFFFFFFFFFFFF AND EQ PUSH2 0x7E6 JUMPI PUSH1 0x40 MLOAD PUSH32 0x8C379A000000000000000000000000000000000000000000000000000000000 DUP2 MSTORE PUSH1 0x4 ADD PUSH2 0x7DD SWAP1 PUSH2 0x1CA9 JUMP JUMPDEST PUSH1 0x40 MLOAD DUP1 SWAP2 SUB SWAP1 REVERT JUMPDEST PUSH1 0x6 PUSH0 DUP3 DUP2 MSTORE PUSH1 0x20 ADD SWAP1 DUP2 MSTORE PUSH1 0x20 ADD PUSH0 KECCAK256 PUSH0 SWAP1 SLOAD SWAP1 PUSH2 0x100 EXP SWAP1 DIV PUSH1 0xFF AND ISZERO PUSH2 0x844 JUMPI PUSH1 0x40 MLOAD PUSH32 0x8C379A000000000000000000000000000000000000000000000000000000000 DUP2 MSTORE PUSH1 0x4 ADD PUSH2 0x83B SWAP1 PUSH2 0x1D11 JUMP JUMPDEST PUSH1 0x40 MLOAD DUP1 SWAP2 SUB SWAP1 REVERT JUMPDEST PUSH1 0x1 PUSH1 0x6 PUSH0 DUP4 DUP2 MSTORE PUSH1 0x20 ADD SWAP1 DUP2 MSTORE PUSH1 0x20 ADD PUSH0 KECCAK256 PUSH0 PUSH2 0x100 EXP DUP2 SLOAD DUP2 PUSH1 0xFF MUL NOT AND SWAP1 DUP4 ISZERO ISZERO MUL OR SWAP1 SSTORE POP PUSH0 PUSH32 0x0 PUSH20 0xFFFFFFFFFFFFFFFFFFFFFFFFFFFFFFFFFFFFFFFF AND PUSH4 0xC3DEA29 DUP9 PUSH1 0x40 MLOAD DUP3 PUSH4 0xFFFFFFFF AND PUSH1 0xE0 SHL DUP2 MSTORE PUSH1 0x4 ADD PUSH2 0x8C7 SWAP2 SWAP1 PUSH2 0x19E7 JUMP JUMPDEST PUSH1 0x20 PUSH1 0x40 MLOAD DUP1 DUP4 SUB DUP2 DUP7 GAS STATICCALL ISZERO DUP1 ISZERO PUSH2 0x8E2 JUMPI RETURNDATASIZE PUSH0 PUSH0 RETURNDATACOPY RETURNDATASIZE PUSH0 REVERT JUMPDEST POP POP POP POP PUSH1 0x40 MLOAD RETURNDATASIZE PUSH1 0x1F NOT PUSH1 0x1F DUP3 ADD AND DUP3 ADD DUP1 PUSH1 0x40 MSTORE POP DUP2 ADD SWAP1 PUSH2 0x906 SWAP2 SWAP1 PUSH2 0x1D43 JUMP JUMPDEST SWAP1 POP PUSH0 DUP2 GT PUSH2 0x94A JUMPI PUSH1 0x40 MLOAD PUSH32 0x8C379A000000000000000000000000000000000000000000000000000000000 DUP2 MSTORE PUSH1 0x4 ADD PUSH2 0x941 SWAP1 PUSH2 0x1DB8 JUMP JUMPDEST PUSH1 0x40 MLOAD DUP1 SWAP2 SUB SWAP1 REVERT JUMPDEST PUSH0 PUSH0 SWAP1 POP PUSH0 PUSH0 SWAP1 POP PUSH0 PUSH0 SWAP1 POP DUP4 DUP10 LT ISZERO PUSH2 0x9EC JUMPI PUSH0 DUP10 DUP6 PUSH2 0x96B SWAP2 SWAP1 PUSH2 0x1C2C JUMP JUMPDEST SWAP1 POP PUSH0 PUSH2 0x3E8 DUP3 PUSH2 0x97C SWAP2 SWAP1 PUSH2 0x1E03 JUMP JUMPDEST SWAP1 POP PUSH0 DUP2 GT ISZERO PUSH2 0x9E5 JUMPI PUSH2 0x990 DUP13 DUP3 PUSH2 0x129C JUMP JUMPDEST DUP12 PUSH20 0xFFFFFFFFFFFFFFFFFFFFFFFFFFFFFFFFFFFFFFFF AND PUSH32 0xBA27001EED39081E9D6F521103BC201676A9B4EB7FE868E5E596DA78B135126B DUP3 PUSH1 0x40 MLOAD PUSH2 0x9D6 SWAP2 SWAP1 PUSH2 0x17BE JUMP JUMPDEST PUSH1 0x40 MLOAD DUP1 SWAP2 SUB SWAP1 LOG2 DUP1 SWAP5 POP DUP1 SWAP4 POP JUMPDEST POP POP PUSH2 0xAE6 JUMP JUMPDEST DUP4 DUP10 GT ISZERO PUSH2 0xAE5 JUMPI PUSH0 DUP5 DUP11 PUSH2 0xA01 SWAP2 SWAP1 PUSH2 0x1C2C JUMP JUMPDEST SWAP1 POP PUSH0 PUSH2 0x3E8 DUP3 PUSH2 0xA12 SWAP2 SWAP1 PUSH2 0x1E03 JUMP JUMPDEST SWAP1 POP PUSH0 DUP2 GT ISZERO PUSH2 0xAE2 JUMPI PUSH0 PUSH1 0x3 PUSH0 DUP15 PUSH20 0xFFFFFFFFFFFFFFFFFFFFFFFFFFFFFFFFFFFFFFFF AND PUSH20 0xFFFFFFFFFFFFFFFFFFFFFFFFFFFFFFFFFFFFFFFF AND DUP2 MSTORE PUSH1 0x20 ADD SWAP1 DUP2 MSTORE PUSH1 0x20 ADD PUSH0 KECCAK256 SLOAD SWAP1 POP PUSH0 DUP2 DUP4 GT PUSH2 0xA6B JUMPI DUP3 PUSH2 0xA6D JUMP JUMPDEST DUP2 JUMPDEST SWAP1 POP PUSH0 DUP2 GT ISZERO PUSH2 0xADF JUMPI PUSH2 0xA81 DUP15 DUP3 PUSH2 0x13DE JUMP JUMPDEST DUP14 PUSH20 0xFFFFFFFFFFFFFFFFFFFFFFFFFFFFFFFFFFFFFFFF AND PUSH32 0x4B28C7DC138644F27518388387393ECBD08EF8D180A4A6799C954BE166A37AB3 DUP3 PUSH1 0x40 MLOAD PUSH2 0xAC7 SWAP2 SWAP1 PUSH2 0x17BE JUMP JUMPDEST PUSH1 0x40 MLOAD DUP1 SWAP2 SUB SWAP1 LOG2 DUP1 PUSH2 0xAD9 SWAP1 PUSH2 0x1E33 JUMP JUMPDEST SWAP7 POP DUP1 SWAP5 POP JUMPDEST POP POP JUMPDEST POP POP JUMPDEST JUMPDEST PUSH1 0x7 PUSH0 DUP12 PUSH20 0xFFFFFFFFFFFFFFFFFFFFFFFFFFFFFFFFFFFFFFFF AND PUSH20 0xFFFFFFFFFFFFFFFFFFFFFFFFFFFFFFFFFFFFFFFF AND DUP2 MSTORE PUSH1 0x20 ADD SWAP1 DUP2 MSTORE PUSH1 0x20 ADD PUSH0 KECCAK256 PUSH1 0x40 MLOAD DUP1 PUSH2 0x120 ADD PUSH1 0x40 MSTORE DUP1 DUP11 DUP2 MSTORE PUSH1 0x20 ADD DUP10 DUP2 MSTORE PUSH1 0x20 ADD DUP12 DUP2 MSTORE PUSH1 0x20 ADD DUP7 DUP2 MSTORE PUSH1 0x20 ADD DUP9 DUP2 MSTORE PUSH1 0x20 ADD DUP6 DUP2 MSTORE PUSH1 0x20 ADD DUP5 DUP2 MSTORE PUSH1 0x20 ADD DUP4 DUP2 MSTORE PUSH1 0x20 ADD DUP8 DUP2 MSTORE POP SWAP1 DUP1 PUSH1 0x1 DUP2 SLOAD ADD DUP1 DUP3 SSTORE DUP1 SWAP2 POP POP PUSH1 0x1 SWAP1 SUB SWAP1 PUSH0 MSTORE PUSH1 0x20 PUSH0 KECCAK256 SWAP1 PUSH1 0x9 MUL ADD PUSH0 SWAP1 SWAP2 SWAP1 SWAP2 SWAP1 SWAP2 POP PUSH0 DUP3 ADD MLOAD DUP2 PUSH0 ADD SSTORE PUSH1 0x20 DUP3 ADD MLOAD DUP2 PUSH1 0x1 ADD SSTORE PUSH1 0x40 DUP3 ADD MLOAD DUP2 PUSH1 0x2 ADD SSTORE PUSH1 0x60 DUP3 ADD MLOAD DUP2 PUSH1 0x3 ADD SSTORE PUSH1 0x80 DUP3 ADD MLOAD DUP2 PUSH1 0x4 ADD SSTORE PUSH1 0xA0 DUP3 ADD MLOAD DUP2 PUSH1 0x5 ADD SSTORE PUSH1 0xC0 DUP3 ADD MLOAD DUP2 PUSH1 0x6 ADD SSTORE PUSH1 0xE0 DUP3 ADD MLOAD DUP2 PUSH1 0x7 ADD SSTORE PUSH2 0x100 DUP3 ADD MLOAD DUP2 PUSH1 0x8 ADD SSTORE POP POP DUP10 PUSH20 0xFFFFFFFFFFFFFFFFFFFFFFFFFFFFFFFFFFFFFFFF AND PUSH32 0xCCC62654ECD4111E8B4BEDBA3B24E6EA465563D9AC5B90500E2BA4C7A927479E DUP8 DUP8 DUP12 DUP12 DUP15 DUP11 DUP10 DUP10 DUP13 PUSH1 0x40 MLOAD PUSH2 0xC3A SWAP10 SWAP9 SWAP8 SWAP7 SWAP6 SWAP5 SWAP4 SWAP3 SWAP2 SWAP1 PUSH2 0x1E79 JUMP JUMPDEST PUSH1 0x40 MLOAD DUP1 SWAP2 SUB SWAP1 LOG2 POP POP POP POP POP POP POP POP POP POP JUMP JUMPDEST PUSH1 0x6 PUSH1 0x20 MSTORE DUP1 PUSH0 MSTORE PUSH1 0x40 PUSH0 KECCAK256 PUSH0 SWAP2 POP SLOAD SWAP1 PUSH2 0x100 EXP SWAP1 DIV PUSH1 0xFF AND DUP2 JUMP JUMPDEST PUSH1 0x5 PUSH0 SWAP1 SLOAD SWAP1 PUSH2 0x100 EXP SWAP1 DIV PUSH20 0xFFFFFFFFFFFFFFFFFFFFFFFFFFFFFFFFFFFFFFFF AND DUP2 JUMP JUMPDEST PUSH1 0x1 DUP1 SLOAD PUSH2 0xC9D SWAP1 PUSH2 0x1B67 JUMP JUMPDEST DUP1 PUSH1 0x1F ADD PUSH1 0x20 DUP1 SWAP2 DIV MUL PUSH1 0x20 ADD PUSH1 0x40 MLOAD SWAP1 DUP2 ADD PUSH1 0x40 MSTORE DUP1 SWAP3 SWAP2 SWAP1 DUP2 DUP2 MSTORE PUSH1 0x20 ADD DUP3 DUP1 SLOAD PUSH2 0xCC9 SWAP1 PUSH2 0x1B67 JUMP JUMPDEST DUP1 ISZERO PUSH2 0xD14 JUMPI DUP1 PUSH1 0x1F LT PUSH2 0xCEB JUMPI PUSH2 0x100 DUP1 DUP4 SLOAD DIV MUL DUP4 MSTORE SWAP2 PUSH1 0x20 ADD SWAP2 PUSH2 0xD14 JUMP JUMPDEST DUP3 ADD SWAP2 SWAP1 PUSH0 MSTORE PUSH1 0x20 PUSH0 KECCAK256 SWAP1 JUMPDEST DUP2 SLOAD DUP2 MSTORE SWAP1 PUSH1 0x1 ADD SWAP1 PUSH1 0x20 ADD DUP1 DUP4 GT PUSH2 0xCF7 JUMPI DUP3 SWAP1 SUB PUSH1 0x1F AND DUP3 ADD SWAP2 JUMPDEST POP POP POP POP POP DUP2 JUMP JUMPDEST PUSH0 PUSH2 0xD28 CALLER DUP5 DUP5 PUSH2 0x10A8 JUMP JUMPDEST PUSH1 0x1 SWAP1 POP SWAP3 SWAP2 POP POP JUMP JUMPDEST PUSH1 0x4 PUSH1 0x20 MSTORE DUP2 PUSH0 MSTORE PUSH1 0x40 PUSH0 KECCAK256 PUSH1 0x20 MSTORE DUP1 PUSH0 MSTORE PUSH1 0x40 PUSH0 KECCAK256 PUSH0 SWAP2 POP SWAP2 POP POP SLOAD DUP2 JUMP JUMPDEST PUSH0 PUSH1 0x7 PUSH0 DUP4 PUSH20 0xFFFFFFFFFFFFFFFFFFFFFFFFFFFFFFFFFFFFFFFF AND PUSH20 0xFFFFFFFFFFFFFFFFFFFFFFFFFFFFFFFFFFFFFFFF AND DUP2 MSTORE PUSH1 0x20 ADD SWAP1 DUP2 MSTORE PUSH1 0x20 ADD PUSH0 KECCAK256 DUP1 SLOAD SWAP1 POP SWAP1 POP SWAP2 SWAP1 POP JUMP JUMPDEST PUSH2 0xDA3 PUSH2 0x151F JUMP JUMPDEST PUSH1 0x7 PUSH0 DUP5 PUSH20 0xFFFFFFFFFFFFFFFFFFFFFFFFFFFFFFFFFFFFFFFF AND PUSH20 0xFFFFFFFFFFFFFFFFFFFFFFFFFFFFFFFFFFFFFFFF AND DUP2 MSTORE PUSH1 0x20 ADD SWAP1 DUP2 MSTORE PUSH1 0x20 ADD PUSH0 KECCAK256 DUP1 SLOAD SWAP1 POP DUP3 LT PUSH2 0xE25 JUMPI PUSH1 0x40 MLOAD PUSH32 0x8C379A000000000000000000000000000000000000000000000000000000000 DUP2 MSTORE PUSH1 0x4 ADD PUSH2 0xE1C SWAP1 PUSH2 0x1F4E JUMP JUMPDEST PUSH1 0x40 MLOAD DUP1 SWAP2 SUB SWAP1 REVERT JUMPDEST PUSH1 0x7 PUSH0 DUP5 PUSH20 0xFFFFFFFFFFFFFFFFFFFFFFFFFFFFFFFFFFFFFFFF AND PUSH20 0xFFFFFFFFFFFFFFFFFFFFFFFFFFFFFFFFFFFFFFFF AND DUP2 MSTORE PUSH1 0x20 ADD SWAP1 DUP2 MSTORE PUSH1 0x20 ADD PUSH0 KECCAK256 DUP3 DUP2 SLOAD DUP2 LT PUSH2 0xE74 JUMPI PUSH2 0xE73 PUSH2 0x1F6C JUMP JUMPDEST JUMPDEST SWAP1 PUSH0 MSTORE PUSH1 0x20 PUSH0 KECCAK256 SWAP1 PUSH1 0x9 MUL ADD PUSH1 0x40 MLOAD DUP1 PUSH2 0x120 ADD PUSH1 0x40 MSTORE SWAP1 DUP2 PUSH0 DUP3 ADD SLOAD DUP2 MSTORE PUSH1 0x20 ADD PUSH1 0x1 DUP3 ADD SLOAD DUP2 MSTORE PUSH1 0x20 ADD PUSH1 0x2 DUP3 ADD SLOAD DUP2 MSTORE PUSH1 0x20 ADD PUSH1 0x3 DUP3 ADD SLOAD DUP2 MSTORE PUSH1 0x20 ADD PUSH1 0x4 DUP3 ADD SLOAD DUP2 MSTORE PUSH1 0x20 ADD PUSH1 0x5 DUP3 ADD SLOAD DUP2 MSTORE PUSH1 0x20 ADD PUSH1 0x6 DUP3 ADD SLOAD DUP2 MSTORE PUSH1 0x20 ADD PUSH1 0x7 DUP3 ADD SLOAD DUP2 MSTORE PUSH1 0x20 ADD PUSH1 0x8 DUP3 ADD SLOAD DUP2 MSTORE POP POP SWAP1 POP SWAP3 SWAP2 POP POP JUMP JUMPDEST PUSH1 0x5 PUSH0 SWAP1 SLOAD SWAP1 PUSH2 0x100 EXP SWAP1 DIV PUSH20 0xFFFFFFFFFFFFFFFFFFFFFFFFFFFFFFFFFFFFFFFF AND PUSH20 0xFFFFFFFFFFFFFFFFFFFFFFFFFFFFFFFFFFFFFFFF AND CALLER PUSH20 0xFFFFFFFFFFFFFFFFFFFFFFFFFFFFFFFFFFFFFFFF AND EQ PUSH2 0xF7C JUMPI PUSH1 0x40 MLOAD PUSH32 0x8C379A000000000000000000000000000000000000000000000000000000000 DUP2 MSTORE PUSH1 0x4 ADD PUSH2 0xF73 SWAP1 PUSH2 0x1CA9 JUMP JUMPDEST PUSH1 0x40 MLOAD DUP1 SWAP2 SUB SWAP1 REVERT JUMPDEST PUSH0 PUSH20 0xFFFFFFFFFFFFFFFFFFFFFFFFFFFFFFFFFFFFFFFF AND DUP2 PUSH20 0xFFFFFFFFFFFFFFFFFFFFFFFFFFFFFFFFFFFFFFFF AND SUB PUSH2 0xFEA JUMPI PUSH1 0x40 MLOAD PUSH32 0x8C379A000000000000000000000000000000000000000000000000000000000 DUP2 MSTORE PUSH1 0x4 ADD PUSH2 0xFE1 SWAP1 PUSH2 0x1FE3 JUMP JUMPDEST PUSH1 0x40 MLOAD DUP1 SWAP2 SUB SWAP1 REVERT JUMPDEST DUP1 PUSH20 0xFFFFFFFFFFFFFFFFFFFFFFFFFFFFFFFFFFFFFFFF AND PUSH1 0x5 PUSH0 SWAP1 SLOAD SWAP1 PUSH2 0x100 EXP SWAP1 DIV PUSH20 0xFFFFFFFFFFFFFFFFFFFFFFFFFFFFFFFFFFFFFFFF AND PUSH20 0xFFFFFFFFFFFFFFFFFFFFFFFFFFFFFFFFFFFFFFFF AND PUSH32 0x8BE0079C531659141344CD1FD0A4F28419497F9722A3DAAFE3B4186F6B6457E0 PUSH1 0x40 MLOAD PUSH1 0x40 MLOAD DUP1 SWAP2 SUB SWAP1 LOG3 DUP1 PUSH1 0x5 PUSH0 PUSH2 0x100 EXP DUP2 SLOAD DUP2 PUSH20 0xFFFFFFFFFFFFFFFFFFFFFFFFFFFFFFFFFFFFFFFF MUL NOT AND SWAP1 DUP4 PUSH20 0xFFFFFFFFFFFFFFFFFFFFFFFFFFFFFFFFFFFFFFFF AND MUL OR SWAP1 SSTORE POP POP JUMP JUMPDEST PUSH0 PUSH20 0xFFFFFFFFFFFFFFFFFFFFFFFFFFFFFFFFFFFFFFFF AND DUP3 PUSH20 0xFFFFFFFFFFFFFFFFFFFFFFFFFFFFFFFFFFFFFFFF AND SUB PUSH2 0x1116 JUMPI PUSH1 0x40 MLOAD PUSH32 0x8C379A000000000000000000000000000000000000000000000000000000000 DUP2 MSTORE PUSH1 0x4 ADD PUSH2 0x110D SWAP1 PUSH2 0x204B JUMP JUMPDEST PUSH1 0x40 MLOAD DUP1 SWAP2 SUB SWAP1 REVERT JUMPDEST PUSH0 PUSH1 0x3 PUSH0 DUP6 PUSH20 0xFFFFFFFFFFFFFFFFFFFFFFFFFFFFFFFFFFFFFFFF AND PUSH20 0xFFFFFFFFFFFFFFFFFFFFFFFFFFFFFFFFFFFFFFFF AND DUP2 MSTORE PUSH1 0x20 ADD SWAP1 DUP2 MSTORE PUSH1 0x20 ADD PUSH0 KECCAK256 SLOAD SWAP1 POP DUP2 DUP2 LT ISZERO PUSH2 0x119A JUMPI PUSH1 0x40 MLOAD PUSH32 0x8C379A000000000000000000000000000000000000000000000000000000000 DUP2 MSTORE PUSH1 0x4 ADD PUSH2 0x1191 SWAP1 PUSH2 0x20B3 JUMP JUMPDEST PUSH1 0x40 MLOAD DUP1 SWAP2 SUB SWAP1 REVERT JUMPDEST DUP2 DUP2 SUB PUSH1 0x3 PUSH0 DUP7 PUSH20 0xFFFFFFFFFFFFFFFFFFFFFFFFFFFFFFFFFFFFFFFF AND PUSH20 0xFFFFFFFFFFFFFFFFFFFFFFFFFFFFFFFFFFFFFFFF AND DUP2 MSTORE PUSH1 0x20 ADD SWAP1 DUP2 MSTORE PUSH1 0x20 ADD PUSH0 KECCAK256 DUP2 SWAP1 SSTORE POP DUP2 PUSH1 0x3 PUSH0 DUP6 PUSH20 0xFFFFFFFFFFFFFFFFFFFFFFFFFFFFFFFFFFFFFFFF AND PUSH20 0xFFFFFFFFFFFFFFFFFFFFFFFFFFFFFFFFFFFFFFFF AND DUP2 MSTORE PUSH1 0x20 ADD SWAP1 DUP2 MSTORE PUSH1 0x20 ADD PUSH0 KECCAK256 PUSH0 DUP3 DUP3 SLOAD PUSH2 0x122A SWAP2 SWAP1 PUSH2 0x20D1 JUMP JUMPDEST SWAP3 POP POP DUP2 SWAP1 SSTORE POP DUP3 PUSH20 0xFFFFFFFFFFFFFFFFFFFFFFFFFFFFFFFFFFFFFFFF AND DUP5 PUSH20 0xFFFFFFFFFFFFFFFFFFFFFFFFFFFFFFFFFFFFFFFF AND PUSH32 0xDDF252AD1BE2C89B69C2B068FC378DAA952BA7F163C4A11628F55A4DF523B3EF DUP5 PUSH1 0x40 MLOAD PUSH2 0x128E SWAP2 SWAP1 PUSH2 0x17BE JUMP JUMPDEST PUSH1 0x40 MLOAD DUP1 SWAP2 SUB SWAP1 LOG3 POP POP POP POP JUMP JUMPDEST PUSH0 PUSH20 0xFFFFFFFFFFFFFFFFFFFFFFFFFFFFFFFFFFFFFFFF AND DUP3 PUSH20 0xFFFFFFFFFFFFFFFFFFFFFFFFFFFFFFFFFFFFFFFF AND SUB PUSH2 0x130A JUMPI PUSH1 0x40 MLOAD PUSH32 0x8C379A000000000000000000000000000000000000000000000000000000000 DUP2 MSTORE PUSH1 0x4 ADD PUSH2 0x1301 SWAP1 PUSH2 0x204B JUMP JUMPDEST PUSH1 0x40 MLOAD DUP1 SWAP2 SUB SWAP1 REVERT JUMPDEST DUP1 PUSH1 0x2 PUSH0 DUP3 DUP3 SLOAD PUSH2 0x131B SWAP2 SWAP1 PUSH2 0x20D1 JUMP JUMPDEST SWAP3 POP POP DUP2 SWAP1 SSTORE POP DUP1 PUSH1 0x3 PUSH0 DUP5 PUSH20 0xFFFFFFFFFFFFFFFFFFFFFFFFFFFFFFFFFFFFFFFF AND PUSH20 0xFFFFFFFFFFFFFFFFFFFFFFFFFFFFFFFFFFFFFFFF AND DUP2 MSTORE PUSH1 0x20 ADD SWAP1 DUP2 MSTORE PUSH1 0x20 ADD PUSH0 KECCAK256 PUSH0 DUP3 DUP3 SLOAD PUSH2 0x136E SWAP2 SWAP1 PUSH2 0x20D1 JUMP JUMPDEST SWAP3 POP POP DUP2 SWAP1 SSTORE POP DUP2 PUSH20 0xFFFFFFFFFFFFFFFFFFFFFFFFFFFFFFFFFFFFFFFF AND PUSH0 PUSH20 0xFFFFFFFFFFFFFFFFFFFFFFFFFFFFFFFFFFFFFFFF AND PUSH32 0xDDF252AD1BE2C89B69C2B068FC378DAA952BA7F163C4A11628F55A4DF523B3EF DUP4 PUSH1 0x40 MLOAD PUSH2 0x13D2 SWAP2 SWAP1 PUSH2 0x17BE JUMP JUMPDEST PUSH1 0x40 MLOAD DUP1 SWAP2 SUB SWAP1 LOG3 POP POP JUMP JUMPDEST PUSH0 PUSH1 0x3 PUSH0 DUP5 PUSH20 0xFFFFFFFFFFFFFFFFFFFFFFFFFFFFFFFFFFFFFFFF AND PUSH20 0xFFFFFFFFFFFFFFFFFFFFFFFFFFFFFFFFFFFFFFFF AND DUP2 MSTORE PUSH1 0x20 ADD SWAP1 DUP2 MSTORE PUSH1 0x20 ADD PUSH0 KECCAK256 SLOAD SWAP1 POP DUP2 DUP2 LT ISZERO PUSH2 0x1462 JUMPI PUSH1 0x40 MLOAD PUSH32 0x8C379A000000000000000000000000000000000000000000000000000000000 DUP2 MSTORE PUSH1 0x4 ADD PUSH2 0x1459 SWAP1 PUSH2 0x214E JUMP JUMPDEST PUSH1 0x40 MLOAD DUP1 SWAP2 SUB SWAP1 REVERT JUMPDEST DUP2 DUP2 SUB PUSH1 0x3 PUSH0 DUP6 PUSH20 0xFFFFFFFFFFFFFFFFFFFFFFFFFFFFFFFFFFFFFFFF AND PUSH20 0xFFFFFFFFFFFFFFFFFFFFFFFFFFFFFFFFFFFFFFFF AND DUP2 MSTORE PUSH1 0x20 ADD SWAP1 DUP2 MSTORE PUSH1 0x20 ADD PUSH0 KECCAK256 DUP2 SWAP1 SSTORE POP DUP2 PUSH1 0x2 PUSH0 DUP3 DUP3 SLOAD SUB SWAP3 POP POP DUP2 SWAP1 SSTORE POP PUSH0 PUSH20 0xFFFFFFFFFFFFFFFFFFFFFFFFFFFFFFFFFFFFFFFF AND DUP4 PUSH20 0xFFFFFFFFFFFFFFFFFFFFFFFFFFFFFFFFFFFFFFFF AND PUSH32 0xDDF252AD1BE2C89B69C2B068FC378DAA952BA7F163C4A11628F55A4DF523B3EF DUP5 PUSH1 0x40 MLOAD PUSH2 0x1512 SWAP2 SWAP1 PUSH2 0x17BE JUMP JUMPDEST PUSH1 0x40 MLOAD DUP1 SWAP2 SUB SWAP1 LOG3 POP POP POP JUMP JUMPDEST PUSH1 0x40 MLOAD DUP1 PUSH2 0x120 ADD PUSH1 0x40 MSTORE DUP1 PUSH0 DUP2 MSTORE PUSH1 0x20 ADD PUSH0 DUP2 MSTORE PUSH1 0x20 ADD PUSH0 DUP2 MSTORE PUSH1 0x20 ADD PUSH0 DUP2 MSTORE PUSH1 0x20 ADD PUSH0 DUP2 MSTORE PUSH1 0x20 ADD PUSH0 DUP2 MSTORE PUSH1 0x20 ADD PUSH0 DUP2 MSTORE PUSH1 0x20 ADD PUSH0 DUP2 MSTORE PUSH1 0x20 ADD PUSH0 DUP2 MSTORE POP SWAP1 JUMP JUMPDEST PUSH0 DUP2 MLOAD SWAP1 POP SWAP2 SWAP1 POP JUMP JUMPDEST PUSH0 DUP3 DUP3 MSTORE PUSH1 0x20 DUP3 ADD SWAP1 POP SWAP3 SWAP2 POP POP JUMP JUMPDEST DUP3 DUP2 DUP4 MCOPY PUSH0 DUP4 DUP4 ADD MSTORE POP POP POP JUMP JUMPDEST PUSH0 PUSH1 0x1F NOT PUSH1 0x1F DUP4 ADD AND SWAP1 POP SWAP2 SWAP1 POP JUMP JUMPDEST PUSH0 PUSH2 0x15A4 DUP3 PUSH2 0x1562 JUMP JUMPDEST PUSH2 0x15AE DUP2 DUP6 PUSH2 0x156C JUMP JUMPDEST SWAP4 POP PUSH2 0x15BE DUP2 DUP6 PUSH1 0x20 DUP7 ADD PUSH2 0x157C JUMP JUMPDEST PUSH2 0x15C7 DUP2 PUSH2 0x158A JUMP JUMPDEST DUP5 ADD SWAP2 POP POP SWAP3 SWAP2 POP POP JUMP JUMPDEST PUSH0 PUSH1 0x20 DUP3 ADD SWAP1 POP DUP2 DUP2 SUB PUSH0 DUP4 ADD MSTORE PUSH2 0x15EA DUP2 DUP5 PUSH2 0x159A JUMP JUMPDEST SWAP1 POP SWAP3 SWAP2 POP POP JUMP JUMPDEST PUSH0 PUSH0 REVERT JUMPDEST PUSH0 PUSH20 0xFFFFFFFFFFFFFFFFFFFFFFFFFFFFFFFFFFFFFFFF DUP3 AND SWAP1 POP SWAP2 SWAP1 POP JUMP JUMPDEST PUSH0 PUSH2 0x161F DUP3 PUSH2 0x15F6 JUMP JUMPDEST SWAP1 POP SWAP2 SWAP1 POP JUMP JUMPDEST PUSH2 0x162F DUP2 PUSH2 0x1615 JUMP JUMPDEST DUP2 EQ PUSH2 0x1639 JUMPI PUSH0 PUSH0 REVERT JUMPDEST POP JUMP JUMPDEST PUSH0 DUP2 CALLDATALOAD SWAP1 POP PUSH2 0x164A DUP2 PUSH2 0x1626 JUMP JUMPDEST SWAP3 SWAP2 POP POP JUMP JUMPDEST PUSH0 DUP2 SWAP1 POP SWAP2 SWAP1 POP JUMP JUMPDEST PUSH2 0x1662 DUP2 PUSH2 0x1650 JUMP JUMPDEST DUP2 EQ PUSH2 0x166C JUMPI PUSH0 PUSH0 REVERT JUMPDEST POP JUMP JUMPDEST PUSH0 DUP2 CALLDATALOAD SWAP1 POP PUSH2 0x167D DUP2 PUSH2 0x1659 JUMP JUMPDEST SWAP3 SWAP2 POP POP JUMP JUMPDEST PUSH0 PUSH0 PUSH1 0x40 DUP4 DUP6 SUB SLT ISZERO PUSH2 0x1699 JUMPI PUSH2 0x1698 PUSH2 0x15F2 JUMP JUMPDEST JUMPDEST PUSH0 PUSH2 0x16A6 DUP6 DUP3 DUP7 ADD PUSH2 0x163C JUMP JUMPDEST SWAP3 POP POP PUSH1 0x20 PUSH2 0x16B7 DUP6 DUP3 DUP7 ADD PUSH2 0x166F JUMP JUMPDEST SWAP2 POP POP SWAP3 POP SWAP3 SWAP1 POP JUMP JUMPDEST PUSH0 DUP2 ISZERO ISZERO SWAP1 POP SWAP2 SWAP1 POP JUMP JUMPDEST PUSH2 0x16D5 DUP2 PUSH2 0x16C1 JUMP JUMPDEST DUP3 MSTORE POP POP JUMP JUMPDEST PUSH0 PUSH1 0x20 DUP3 ADD SWAP1 POP PUSH2 0x16EE PUSH0 DUP4 ADD DUP5 PUSH2 0x16CC JUMP JUMPDEST SWAP3 SWAP2 POP POP JUMP JUMPDEST PUSH2 0x16FD DUP2 PUSH2 0x1650 JUMP JUMPDEST DUP3 MSTORE POP POP JUMP JUMPDEST PUSH0 DUP2 SWAP1 POP SWAP2 SWAP1 POP JUMP JUMPDEST PUSH2 0x1715 DUP2 PUSH2 0x1703 JUMP JUMPDEST DUP3 MSTORE POP POP JUMP JUMPDEST PUSH0 DUP2 SWAP1 POP SWAP2 SWAP1 POP JUMP JUMPDEST PUSH2 0x172D DUP2 PUSH2 0x171B JUMP JUMPDEST DUP3 MSTORE POP POP JUMP JUMPDEST PUSH0 PUSH2 0x120 DUP3 ADD SWAP1 POP PUSH2 0x1747 PUSH0 DUP4 ADD DUP13 PUSH2 0x16F4 JUMP JUMPDEST PUSH2 0x1754 PUSH1 0x20 DUP4 ADD DUP12 PUSH2 0x16F4 JUMP JUMPDEST PUSH2 0x1761 PUSH1 0x40 DUP4 ADD DUP11 PUSH2 0x16F4 JUMP JUMPDEST PUSH2 0x176E PUSH1 0x60 DUP4 ADD DUP10 PUSH2 0x16F4 JUMP JUMPDEST PUSH2 0x177B PUSH1 0x80 DUP4 ADD DUP9 PUSH2 0x170C JUMP JUMPDEST PUSH2 0x1788 PUSH1 0xA0 DUP4 ADD DUP8 PUSH2 0x1724 JUMP JUMPDEST PUSH2 0x1795 PUSH1 0xC0 DUP4 ADD DUP7 PUSH2 0x16F4 JUMP JUMPDEST PUSH2 0x17A2 PUSH1 0xE0 DUP4 ADD DUP6 PUSH2 0x16F4 JUMP JUMPDEST PUSH2 0x17B0 PUSH2 0x100 DUP4 ADD DUP5 PUSH2 0x170C JUMP JUMPDEST SWAP11 SWAP10 POP POP POP POP POP POP POP POP POP POP JUMP JUMPDEST PUSH0 PUSH1 0x20 DUP3 ADD SWAP1 POP PUSH2 0x17D1 PUSH0 DUP4 ADD DUP5 PUSH2 0x16F4 JUMP JUMPDEST SWAP3 SWAP2 POP POP JUMP JUMPDEST PUSH0 PUSH0 PUSH0 PUSH1 0x60 DUP5 DUP7 SUB SLT ISZERO PUSH2 0x17EE JUMPI PUSH2 0x17ED PUSH2 0x15F2 JUMP JUMPDEST JUMPDEST PUSH0 PUSH2 0x17FB DUP7 DUP3 DUP8 ADD PUSH2 0x163C JUMP JUMPDEST SWAP4 POP POP PUSH1 0x20 PUSH2 0x180C DUP7 DUP3 DUP8 ADD PUSH2 0x163C JUMP JUMPDEST SWAP3 POP POP PUSH1 0x40 PUSH2 0x181D DUP7 DUP3 DUP8 ADD PUSH2 0x166F JUMP JUMPDEST SWAP2 POP POP SWAP3 POP SWAP3 POP SWAP3 JUMP JUMPDEST PUSH0 PUSH1 0xFF DUP3 AND SWAP1 POP SWAP2 SWAP1 POP JUMP JUMPDEST PUSH2 0x183C DUP2 PUSH2 0x1827 JUMP JUMPDEST DUP3 MSTORE POP POP JUMP JUMPDEST PUSH0 PUSH1 0x20 DUP3 ADD SWAP1 POP PUSH2 0x1855 PUSH0 DUP4 ADD DUP5 PUSH2 0x1833 JUMP JUMPDEST SWAP3 SWAP2 POP POP JUMP JUMPDEST PUSH0 PUSH1 0x20 DUP3 DUP5 SUB SLT ISZERO PUSH2 0x1870 JUMPI PUSH2 0x186F PUSH2 0x15F2 JUMP JUMPDEST JUMPDEST PUSH0 PUSH2 0x187D DUP5 DUP3 DUP6 ADD PUSH2 0x163C JUMP JUMPDEST SWAP2 POP POP SWAP3 SWAP2 POP POP JUMP JUMPDEST PUSH0 DUP2 SWAP1 POP SWAP2 SWAP1 POP JUMP JUMPDEST PUSH0 PUSH2 0x18A9 PUSH2 0x18A4 PUSH2 0x189F DUP5 PUSH2 0x15F6 JUMP JUMPDEST PUSH2 0x1886 JUMP JUMPDEST PUSH2 0x15F6 JUMP JUMPDEST SWAP1 POP SWAP2 SWAP1 POP JUMP JUMPDEST PUSH0 PUSH2 0x18BA DUP3 PUSH2 0x188F JUMP JUMPDEST SWAP1 POP SWAP2 SWAP1 POP JUMP JUMPDEST PUSH0 PUSH2 0x18CB DUP3 PUSH2 0x18B0 JUMP JUMPDEST SWAP1 POP SWAP2 SWAP1 POP JUMP JUMPDEST PUSH2 0x18DB DUP2 PUSH2 0x18C1 JUMP JUMPDEST DUP3 MSTORE POP POP JUMP JUMPDEST PUSH0 PUSH1 0x20 DUP3 ADD SWAP1 POP PUSH2 0x18F4 PUSH0 DUP4 ADD DUP5 PUSH2 0x18D2 JUMP JUMPDEST SWAP3 SWAP2 POP POP JUMP JUMPDEST PUSH2 0x1903 DUP2 PUSH2 0x1703 JUMP JUMPDEST DUP2 EQ PUSH2 0x190D JUMPI PUSH0 PUSH0 REVERT JUMPDEST POP JUMP JUMPDEST PUSH0 DUP2 CALLDATALOAD SWAP1 POP PUSH2 0x191E DUP2 PUSH2 0x18FA JUMP JUMPDEST SWAP3 SWAP2 POP POP JUMP JUMPDEST PUSH0 PUSH0 PUSH0 PUSH0 PUSH0 PUSH0 PUSH1 0xC0 DUP8 DUP10 SUB SLT ISZERO PUSH2 0x193E JUMPI PUSH2 0x193D PUSH2 0x15F2 JUMP JUMPDEST JUMPDEST PUSH0 PUSH2 0x194B DUP10 DUP3 DUP11 ADD PUSH2 0x163C JUMP JUMPDEST SWAP7 POP POP PUSH1 0x20 PUSH2 0x195C DUP10 DUP3 DUP11 ADD PUSH2 0x166F JUMP JUMPDEST SWAP6 POP POP PUSH1 0x40 PUSH2 0x196D DUP10 DUP3 DUP11 ADD PUSH2 0x166F JUMP JUMPDEST SWAP5 POP POP PUSH1 0x60 PUSH2 0x197E DUP10 DUP3 DUP11 ADD PUSH2 0x166F JUMP JUMPDEST SWAP4 POP POP PUSH1 0x80 PUSH2 0x198F DUP10 DUP3 DUP11 ADD PUSH2 0x1910 JUMP JUMPDEST SWAP3 POP POP PUSH1 0xA0 PUSH2 0x19A0 DUP10 DUP3 DUP11 ADD PUSH2 0x1910 JUMP JUMPDEST SWAP2 POP POP SWAP3 SWAP6 POP SWAP3 SWAP6 POP SWAP3 SWAP6 JUMP JUMPDEST PUSH0 PUSH1 0x20 DUP3 DUP5 SUB SLT ISZERO PUSH2 0x19C2 JUMPI PUSH2 0x19C1 PUSH2 0x15F2 JUMP JUMPDEST JUMPDEST PUSH0 PUSH2 0x19CF DUP5 DUP3 DUP6 ADD PUSH2 0x1910 JUMP JUMPDEST SWAP2 POP POP SWAP3 SWAP2 POP POP JUMP JUMPDEST PUSH2 0x19E1 DUP2 PUSH2 0x1615 JUMP JUMPDEST DUP3 MSTORE POP POP JUMP JUMPDEST PUSH0 PUSH1 0x20 DUP3 ADD SWAP1 POP PUSH2 0x19FA PUSH0 DUP4 ADD DUP5 PUSH2 0x19D8 JUMP JUMPDEST SWAP3 SWAP2 POP POP JUMP JUMPDEST PUSH0 PUSH0 PUSH1 0x40 DUP4 DUP6 SUB SLT ISZERO PUSH2 0x1A16 JUMPI PUSH2 0x1A15 PUSH2 0x15F2 JUMP JUMPDEST JUMPDEST PUSH0 PUSH2 0x1A23 DUP6 DUP3 DUP7 ADD PUSH2 0x163C JUMP JUMPDEST SWAP3 POP POP PUSH1 0x20 PUSH2 0x1A34 DUP6 DUP3 DUP7 ADD PUSH2 0x163C JUMP JUMPDEST SWAP2 POP POP SWAP3 POP SWAP3 SWAP1 POP JUMP JUMPDEST PUSH2 0x1A47 DUP2 PUSH2 0x1650 JUMP JUMPDEST DUP3 MSTORE POP POP JUMP JUMPDEST PUSH2 0x1A56 DUP2 PUSH2 0x1703 JUMP JUMPDEST DUP3 MSTORE POP POP JUMP JUMPDEST PUSH2 0x1A65 DUP2 PUSH2 0x171B JUMP JUMPDEST DUP3 MSTORE POP POP JUMP JUMPDEST PUSH2 0x120 DUP3 ADD PUSH0 DUP3 ADD MLOAD PUSH2 0x1A80 PUSH0 DUP6 ADD DUP3 PUSH2 0x1A3E JUMP JUMPDEST POP PUSH1 0x20 DUP3 ADD MLOAD PUSH2 0x1A93 PUSH1 0x20 DUP6 ADD DUP3 PUSH2 0x1A3E JUMP JUMPDEST POP PUSH1 0x40 DUP3 ADD MLOAD PUSH2 0x1AA6 PUSH1 0x40 DUP6 ADD DUP3 PUSH2 0x1A3E JUMP JUMPDEST POP PUSH1 0x60 DUP3 ADD MLOAD PUSH2 0x1AB9 PUSH1 0x60 DUP6 ADD DUP3 PUSH2 0x1A3E JUMP JUMPDEST POP PUSH1 0x80 DUP3 ADD MLOAD PUSH2 0x1ACC PUSH1 0x80 DUP6 ADD DUP3 PUSH2 0x1A4D JUMP JUMPDEST POP PUSH1 0xA0 DUP3 ADD MLOAD PUSH2 0x1ADF PUSH1 0xA0 DUP6 ADD DUP3 PUSH2 0x1A5C JUMP JUMPDEST POP PUSH1 0xC0 DUP3 ADD MLOAD PUSH2 0x1AF2 PUSH1 0xC0 DUP6 ADD DUP3 PUSH2 0x1A3E JUMP JUMPDEST POP PUSH1 0xE0 DUP3 ADD MLOAD PUSH2 0x1B05 PUSH1 0xE0 DUP6 ADD DUP3 PUSH2 0x1A3E JUMP JUMPDEST POP PUSH2 0x100 DUP3 ADD MLOAD PUSH2 0x1B1A PUSH2 0x100 DUP6 ADD DUP3 PUSH2 0x1A4D JUMP JUMPDEST POP POP POP POP JUMP JUMPDEST PUSH0 PUSH2 0x120 DUP3 ADD SWAP1 POP PUSH2 0x1B34 PUSH0 DUP4 ADD DUP5 PUSH2 0x1A6B JUMP JUMPDEST SWAP3 SWAP2 POP POP JUMP JUMPDEST PUSH32 0x4E487B7100000000000000000000000000000000000000000000000000000000 PUSH0 MSTORE PUSH1 0x22 PUSH1 0x4 MSTORE PUSH1 0x24 PUSH0 REVERT JUMPDEST PUSH0 PUSH1 0x2 DUP3 DIV SWAP1 POP PUSH1 0x1 DUP3 AND DUP1 PUSH2 0x1B7E JUMPI PUSH1 0x7F DUP3 AND SWAP2 POP JUMPDEST PUSH1 0x20 DUP3 LT DUP2 SUB PUSH2 0x1B91 JUMPI PUSH2 0x1B90 PUSH2 0x1B3A JUMP JUMPDEST JUMPDEST POP SWAP2 SWAP1 POP JUMP JUMPDEST PUSH32 0x416C6C6F77616E636520746F6F206C6F77000000000000000000000000000000 PUSH0 DUP3 ADD MSTORE POP JUMP JUMPDEST PUSH0 PUSH2 0x1BCB PUSH1 0x11 DUP4 PUSH2 0x156C JUMP JUMPDEST SWAP2 POP PUSH2 0x1BD6 DUP3 PUSH2 0x1B97 JUMP JUMPDEST PUSH1 0x20 DUP3 ADD SWAP1 POP SWAP2 SWAP1 POP JUMP JUMPDEST PUSH0 PUSH1 0x20 DUP3 ADD SWAP1 POP DUP2 DUP2 SUB PUSH0 DUP4 ADD MSTORE PUSH2 0x1BF8 DUP2 PUSH2 0x1BBF JUMP JUMPDEST SWAP1 POP SWAP2 SWAP1 POP JUMP JUMPDEST PUSH32 0x4E487B7100000000000000000000000000000000000000000000000000000000 PUSH0 MSTORE PUSH1 0x11 PUSH1 0x4 MSTORE PUSH1 0x24 PUSH0 REVERT JUMPDEST PUSH0 PUSH2 0x1C36 DUP3 PUSH2 0x1650 JUMP JUMPDEST SWAP2 POP PUSH2 0x1C41 DUP4 PUSH2 0x1650 JUMP JUMPDEST SWAP3 POP DUP3 DUP3 SUB SWAP1 POP DUP2 DUP2 GT ISZERO PUSH2 0x1C59 JUMPI PUSH2 0x1C58 PUSH2 0x1BFF JUMP JUMPDEST JUMPDEST SWAP3 SWAP2 POP POP JUMP JUMPDEST PUSH32 0x4E6F74206F776E65720000000000000000000000000000000000000000000000 PUSH0 DUP3 ADD MSTORE POP JUMP JUMPDEST PUSH0 PUSH2 0x1C93 PUSH1 0x9 DUP4 PUSH2 0x156C JUMP JUMPDEST SWAP2 POP PUSH2 0x1C9E DUP3 PUSH2 0x1C5F JUMP JUMPDEST PUSH1 0x20 DUP3 ADD SWAP1 POP SWAP2 SWAP1 POP JUMP JUMPDEST PUSH0 PUSH1 0x20 DUP3 ADD SWAP1 POP DUP2 DUP2 SUB PUSH0 DUP4 ADD MSTORE PUSH2 0x1CC0 DUP2 PUSH2 0x1C87 JUMP JUMPDEST SWAP1 POP SWAP2 SWAP1 POP JUMP JUMPDEST PUSH32 0x426174636820616C72656164792070726F636573736564000000000000000000 PUSH0 DUP3 ADD MSTORE POP JUMP JUMPDEST PUSH0 PUSH2 0x1CFB PUSH1 0x17 DUP4 PUSH2 0x156C JUMP JUMPDEST SWAP2 POP PUSH2 0x1D06 DUP3 PUSH2 0x1CC7 JUMP JUMPDEST PUSH1 0x20 DUP3 ADD SWAP1 POP SWAP2 SWAP1 POP JUMP JUMPDEST PUSH0 PUSH1 0x20 DUP3 ADD SWAP1 POP DUP2 DUP2 SUB PUSH0 DUP4 ADD MSTORE PUSH2 0x1D28 DUP2 PUSH2 0x1CEF JUMP JUMPDEST SWAP1 POP SWAP2 SWAP1 POP JUMP JUMPDEST PUSH0 DUP2 MLOAD SWAP1 POP PUSH2 0x1D3D DUP2 PUSH2 0x1659 JUMP JUMPDEST SWAP3 SWAP2 POP POP JUMP JUMPDEST PUSH0 PUSH1 0x20 DUP3 DUP5 SUB SLT ISZERO PUSH2 0x1D58 JUMPI PUSH2 0x1D57 PUSH2 0x15F2 JUMP JUMPDEST JUMPDEST PUSH0 PUSH2 0x1D65 DUP5 DUP3 DUP6 ADD PUSH2 0x1D2F JUMP JUMPDEST SWAP2 POP POP SWAP3 SWAP2 POP POP JUMP JUMPDEST PUSH32 0x636170206D697373696E67000000000000000000000000000000000000000000 PUSH0 DUP3 ADD MSTORE POP JUMP JUMPDEST PUSH0 PUSH2 0x1DA2 PUSH1 0xB DUP4 PUSH2 0x156C JUMP JUMPDEST SWAP2 POP PUSH2 0x1DAD DUP3 PUSH2 0x1D6E JUMP JUMPDEST PUSH1 0x20 DUP3 ADD SWAP1 POP SWAP2 SWAP1 POP JUMP JUMPDEST PUSH0 PUSH1 0x20 DUP3 ADD SWAP1 POP DUP2 DUP2 SUB PUSH0 DUP4 ADD MSTORE PUSH2 0x1DCF DUP2 PUSH2 0x1D96 JUMP JUMPDEST SWAP1 POP SWAP2 SWAP1 POP JUMP JUMPDEST PUSH32 0x4E487B7100000000000000000000000000000000000000000000000000000000 PUSH0 MSTORE PUSH1 0x12 PUSH1 0x4 MSTORE PUSH1 0x24 PUSH0 REVERT JUMPDEST PUSH0 PUSH2 0x1E0D DUP3 PUSH2 0x1650 JUMP JUMPDEST SWAP2 POP PUSH2 0x1E18 DUP4 PUSH2 0x1650 JUMP JUMPDEST SWAP3 POP DUP3 PUSH2 0x1E28 JUMPI PUSH2 0x1E27 PUSH2 0x1DD6 JUMP JUMPDEST JUMPDEST DUP3 DUP3 DIV SWAP1 POP SWAP3 SWAP2 POP POP JUMP JUMPDEST PUSH0 PUSH2 0x1E3D DUP3 PUSH2 0x171B JUMP JUMPDEST SWAP2 POP PUSH32 0x8000000000000000000000000000000000000000000000000000000000000000 DUP3 SUB PUSH2 0x1E6F JUMPI PUSH2 0x1E6E PUSH2 0x1BFF JUMP JUMPDEST JUMPDEST DUP2 PUSH0 SUB SWAP1 POP SWAP2 SWAP1 POP JUMP JUMPDEST PUSH0 PUSH2 0x120 DUP3 ADD SWAP1 POP PUSH2 0x1E8D PUSH0 DUP4 ADD DUP13 PUSH2 0x170C JUMP JUMPDEST PUSH2 0x1E9A PUSH1 0x20 DUP4 ADD DUP12 PUSH2 0x170C JUMP JUMPDEST PUSH2 0x1EA7 PUSH1 0x40 DUP4 ADD DUP11 PUSH2 0x16F4 JUMP JUMPDEST PUSH2 0x1EB4 PUSH1 0x60 DUP4 ADD DUP10 PUSH2 0x16F4 JUMP JUMPDEST PUSH2 0x1EC1 PUSH1 0x80 DUP4 ADD DUP9 PUSH2 0x16F4 JUMP JUMPDEST PUSH2 0x1ECE PUSH1 0xA0 DUP4 ADD DUP8 PUSH2 0x16F4 JUMP JUMPDEST PUSH2 0x1EDB PUSH1 0xC0 DUP4 ADD DUP7 PUSH2 0x16F4 JUMP JUMPDEST PUSH2 0x1EE8 PUSH1 0xE0 DUP4 ADD DUP6 PUSH2 0x16F4 JUMP JUMPDEST PUSH2 0x1EF6 PUSH2 0x100 DUP4 ADD DUP5 PUSH2 0x1724 JUMP JUMPDEST SWAP11 SWAP10 POP POP POP POP POP POP POP POP POP POP JUMP JUMPDEST PUSH32 0x696E646578206F7574206F6620626F756E647300000000000000000000000000 PUSH0 DUP3 ADD MSTORE POP JUMP JUMPDEST PUSH0 PUSH2 0x1F38 PUSH1 0x13 DUP4 PUSH2 0x156C JUMP JUMPDEST SWAP2 POP PUSH2 0x1F43 DUP3 PUSH2 0x1F04 JUMP JUMPDEST PUSH1 0x20 DUP3 ADD SWAP1 POP SWAP2 SWAP1 POP JUMP JUMPDEST PUSH0 PUSH1 0x20 DUP3 ADD SWAP1 POP DUP2 DUP2 SUB PUSH0 DUP4 ADD MSTORE PUSH2 0x1F65 DUP2 PUSH2 0x1F2C JUMP JUMPDEST SWAP1 POP SWAP2 SWAP1 POP JUMP JUMPDEST PUSH32 0x4E487B7100000000000000000000000000000000000000000000000000000000 PUSH0 MSTORE PUSH1 0x32 PUSH1 0x4 MSTORE PUSH1 0x24 PUSH0 REVERT JUMPDEST PUSH32 0x5A65726F206F776E657200000000000000000000000000000000000000000000 PUSH0 DUP3 ADD MSTORE POP JUMP JUMPDEST PUSH0 PUSH2 0x1FCD PUSH1 0xA DUP4 PUSH2 0x156C JUMP JUMPDEST SWAP2 POP PUSH2 0x1FD8 DUP3 PUSH2 0x1F99 JUMP JUMPDEST PUSH1 0x20 DUP3 ADD SWAP1 POP SWAP2 SWAP1 POP JUMP JUMPDEST PUSH0 PUSH1 0x20 DUP3 ADD SWAP1 POP DUP2 DUP2 SUB PUSH0 DUP4 ADD MSTORE PUSH2 0x1FFA DUP2 PUSH2 0x1FC1 JUMP JUMPDEST SWAP1 POP SWAP2 SWAP1 POP JUMP JUMPDEST PUSH32 0x5A65726F20746F00000000000000000000000000000000000000000000000000 PUSH0 DUP3 ADD MSTORE POP JUMP JUMPDEST PUSH0 PUSH2 0x2035 PUSH1 0x7 DUP4 PUSH2 0x156C JUMP JUMPDEST SWAP2 POP PUSH2 0x2040 DUP3 PUSH2 0x2001 JUMP JUMPDEST PUSH1 0x20 DUP3 ADD SWAP1 POP SWAP2 SWAP1 POP JUMP JUMPDEST PUSH0 PUSH1 0x20 DUP3 ADD SWAP1 POP DUP2 DUP2 SUB PUSH0 DUP4 ADD MSTORE PUSH2 0x2062 DUP2 PUSH2 0x2029 JUMP JUMPDEST SWAP1 POP SWAP2 SWAP1 POP JUMP JUMPDEST PUSH32 0x42616C616E636520746F6F206C6F770000000000000000000000000000000000 PUSH0 DUP3 ADD MSTORE POP JUMP JUMPDEST PUSH0 PUSH2 0x209D PUSH1 0xF DUP4 PUSH2 0x156C JUMP JUMPDEST SWAP2 POP PUSH2 0x20A8 DUP3 PUSH2 0x2069 JUMP JUMPDEST PUSH1 0x20 DUP3 ADD SWAP1 POP SWAP2 SWAP1 POP JUMP JUMPDEST PUSH0 PUSH1 0x20 DUP3 ADD SWAP1 POP DUP2 DUP2 SUB PUSH0 DUP4 ADD MSTORE PUSH2 0x20CA DUP2 PUSH2 0x2091 JUMP JUMPDEST SWAP1 POP SWAP2 SWAP1 POP JUMP JUMPDEST PUSH0 PUSH2 0x20DB DUP3 PUSH2 0x1650 JUMP JUMPDEST SWAP2 POP PUSH2 0x20E6 DUP4 PUSH2 0x1650 JUMP JUMPDEST SWAP3 POP DUP3 DUP3 ADD SWAP1 POP DUP1 DUP3 GT ISZERO PUSH2 0x20FE JUMPI PUSH2 0x20FD PUSH2 0x1BFF JUMP JUMPDEST JUMPDEST SWAP3 SWAP2 POP POP JUMP JUMPDEST PUSH32 0x4275726E20657863656564732062616C616E6365000000000000000000000000 PUSH0 DUP3 ADD MSTORE POP JUMP JUMPDEST PUSH0 PUSH2 0x2138 PUSH1 0x14 DUP4 PUSH2 0x156C JUMP JUMPDEST SWAP2 POP PUSH2 0x2143 DUP3 PUSH2 0x2104 JUMP JUMPDEST PUSH1 0x20 DUP3 ADD SWAP1 POP SWAP2 SWAP1 POP JUMP JUMPDEST PUSH0 PUSH1 0x20 DUP3 ADD SWAP1 POP DUP2 DUP2 SUB PUSH0 DUP4 ADD MSTORE PUSH2 0x2165 DUP2 PUSH2 0x212C JUMP JUMPDEST SWAP1 POP SWAP2 SWAP1 POP JUMP INVALID LOG2 PUSH5 0x6970667358 0x22 SLT KECCAK256 PUSH13 0xA854A231EFCE2AFF2DFEFB41C9 CREATE 0xA8 PUSH24 0xCA6D2E4070161800357F31C411063364736F6C634300081E STOP CALLER "
				},
				"gasEstimates": {
					"creation": {
						"codeDepositCost": "1722000",
						"executionCost": "infinite",
						"totalCost": "infinite"
					},
					"external": {
						"allowance(address,address)": "infinite",
						"approve(address,uint256)": "infinite",
						"balanceOf(address)": "2869",
						"decimals()": "375",
						"emissionHistory(address,uint256)": "infinite",
						"emissionHistoryLength(address)": "2903",
						"getEmissionBatch(address,uint256)": "infinite",
						"name()": "infinite",
						"owner()": "2575",
						"processedBatches(bytes32)": "2830",
						"registry()": "infinite",
						"submitBatch(address,uint256,uint256,uint256,bytes32,bytes32)": "infinite",
						"symbol()": "infinite",
						"totalSupply()": "2515",
						"transfer(address,uint256)": "infinite",
						"transferFrom(address,address,uint256)": "infinite",
						"transferOwnership(address)": "30708"
					},
					"internal": {
						"_burn(address,uint256)": "infinite",
						"_mint(address,uint256)": "infinite",
						"_transfer(address,address,uint256)": "infinite"
					}
				},
				"methodIdentifiers": {
					"allowance(address,address)": "dd62ed3e",
					"approve(address,uint256)": "095ea7b3",
					"balanceOf(address)": "70a08231",
					"decimals()": "313ce567",
					"emissionHistory(address,uint256)": "1344f9b4",
					"emissionHistoryLength(address)": "e8accb5b",
					"getEmissionBatch(address,uint256)": "eb6f0c93",
					"name()": "06fdde03",
					"owner()": "8da5cb5b",
					"processedBatches(bytes32)": "88fcda39",
					"registry()": "7b103999",
					"submitBatch(address,uint256,uint256,uint256,bytes32,bytes32)": "812da1e2",
					"symbol()": "95d89b41",
					"totalSupply()": "18160ddd",
					"transfer(address,uint256)": "a9059cbb",
					"transferFrom(address,address,uint256)": "23b872dd",
					"transferOwnership(address)": "f2fde38b"
				}
			},
			"storageLayout": {
				"storage": [
					{
						"astId": 13,
						"contract": "backend/contracts/CarbonCreditToken.sol:CarbonCreditToken",
						"label": "name",
						"offset": 0,
						"slot": "0",
						"type": "t_string_storage"
					},
					{
						"astId": 16,
						"contract": "backend/contracts/CarbonCreditToken.sol:CarbonCreditToken",
						"label": "symbol",
						"offset": 0,
						"slot": "1",
						"type": "t_string_storage"
					},
					{
						"astId": 21,
						"contract": "backend/contracts/CarbonCreditToken.sol:CarbonCreditToken",
						"label": "totalSupply",
						"offset": 0,
						"slot": "2",
						"type": "t_uint256"
					},
					{
						"astId": 25,
						"contract": "backend/contracts/CarbonCreditToken.sol:CarbonCreditToken",
						"label": "balanceOf",
						"offset": 0,
						"slot": "3",
						"type": "t_mapping(t_address,t_uint256)"
					},
					{
						"astId": 31,
						"contract": "backend/contracts/CarbonCreditToken.sol:CarbonCreditToken",
						"label": "allowance",
						"offset": 0,
						"slot": "4",
						"type": "t_mapping(t_address,t_mapping(t_address,t_uint256))"
					},
					{
						"astId": 49,
						"contract": "backend/contracts/CarbonCreditToken.sol:CarbonCreditToken",
						"label": "owner",
						"offset": 0,
						"slot": "5",
						"type": "t_address"
					},
					{
						"astId": 75,
						"contract": "backend/contracts/CarbonCreditToken.sol:CarbonCreditToken",
						"label": "processedBatches",
						"offset": 0,
						"slot": "6",
						"type": "t_mapping(t_bytes32,t_bool)"
					},
					{
						"astId": 101,
						"contract": "backend/contracts/CarbonCreditToken.sol:CarbonCreditToken",
						"label": "emissionHistory",
						"offset": 0,
						"slot": "7",
						"type": "t_mapping(t_address,t_array(t_struct(EmissionBatch)94_storage)dyn_storage)"
					}
				],
				"types": {
					"t_address": {
						"encoding": "inplace",
						"label": "address",
						"numberOfBytes": "20"
					},
					"t_array(t_struct(EmissionBatch)94_storage)dyn_storage": {
						"base": "t_struct(EmissionBatch)94_storage",
						"encoding": "dynamic_array",
						"label": "struct CarbonCreditToken.EmissionBatch[]",
						"numberOfBytes": "32"
					},
					"t_bool": {
						"encoding": "inplace",
						"label": "bool",
						"numberOfBytes": "1"
					},
					"t_bytes32": {
						"encoding": "inplace",
						"label": "bytes32",
						"numberOfBytes": "32"
					},
					"t_int256": {
						"encoding": "inplace",
						"label": "int256",
						"numberOfBytes": "32"
					},
					"t_mapping(t_address,t_array(t_struct(EmissionBatch)94_storage)dyn_storage)": {
						"encoding": "mapping",
						"key": "t_address",
						"label": "mapping(address => struct CarbonCreditToken.EmissionBatch[])",
						"numberOfBytes": "32",
						"value": "t_array(t_struct(EmissionBatch)94_storage)dyn_storage"
					},
					"t_mapping(t_address,t_mapping(t_address,t_uint256))": {
						"encoding": "mapping",
						"key": "t_address",
						"label": "mapping(address => mapping(address => uint256))",
						"numberOfBytes": "32",
						"value": "t_mapping(t_address,t_uint256)"
					},
					"t_mapping(t_address,t_uint256)": {
						"encoding": "mapping",
						"key": "t_address",
						"label": "mapping(address => uint256)",
						"numberOfBytes": "32",
						"value": "t_uint256"
					},
					"t_mapping(t_bytes32,t_bool)": {
						"encoding": "mapping",
						"key": "t_bytes32",
						"label": "mapping(bytes32 => bool)",
						"numberOfBytes": "32",
						"value": "t_bool"
					},
					"t_string_storage": {
						"encoding": "bytes",
						"label": "string",
						"numberOfBytes": "32"
					},
					"t_struct(EmissionBatch)94_storage": {
						"encoding": "inplace",
						"label": "struct CarbonCreditToken.EmissionBatch",
						"members": [
							{
								"astId": 77,
								"contract": "backend/contracts/CarbonCreditToken.sol:CarbonCreditToken",
								"label": "startTime",
								"offset": 0,
								"slot": "0",
								"type": "t_uint256"
							},
							{
								"astId": 79,
								"contract": "backend/contracts/CarbonCreditToken.sol:CarbonCreditToken",
								"label": "endTime",
								"offset": 0,
								"slot": "1",
								"type": "t_uint256"
							},
							{
								"astId": 81,
								"contract": "backend/contracts/CarbonCreditToken.sol:CarbonCreditToken",
								"label": "emissionKg",
								"offset": 0,
								"slot": "2",
								"type": "t_uint256"
							},
							{
								"astId": 83,
								"contract": "backend/contracts/CarbonCreditToken.sol:CarbonCreditToken",
								"label": "capKg",
								"offset": 0,
								"slot": "3",
								"type": "t_uint256"
							},
							{
								"astId": 85,
								"contract": "backend/contracts/CarbonCreditToken.sol:CarbonCreditToken",
								"label": "dataHash",
								"offset": 0,
								"slot": "4",
								"type": "t_bytes32"
							},
							{
								"astId": 87,
								"contract": "backend/contracts/CarbonCreditToken.sol:CarbonCreditToken",
								"label": "tokenChange",
								"offset": 0,
								"slot": "5",
								"type": "t_int256"
							},
							{
								"astId": 89,
								"contract": "backend/contracts/CarbonCreditToken.sol:CarbonCreditToken",
								"label": "mintedTokens",
								"offset": 0,
								"slot": "6",
								"type": "t_uint256"
							},
							{
								"astId": 91,
								"contract": "backend/contracts/CarbonCreditToken.sol:CarbonCreditToken",
								"label": "burnedTokens",
								"offset": 0,
								"slot": "7",
								"type": "t_uint256"
							},
							{
								"astId": 93,
								"contract": "backend/contracts/CarbonCreditToken.sol:CarbonCreditToken",
								"label": "batchId",
								"offset": 0,
								"slot": "8",
								"type": "t_bytes32"
							}
						],
						"numberOfBytes": "288"
					},
					"t_uint256": {
						"encoding": "inplace",
						"label": "uint256",
						"numberOfBytes": "32"
					}
				}
			},
			"userdoc": {
				"kind": "user",
				"methods": {},
				"notice": "Owner submits 10-minute emission batches. Caps sourced from CompanyRegistry.         Under-cap → mint credits; over-cap → burn credits (if held).",
				"version": 1
			}
		}
	}
}