{
	"backend/contracts/CarbonCreditMarketplace.sol": {
		"CarbonCreditMarketplace": {
			"abi": [
				{
					"inputs": [
						{
							"internalType": "address",
							"name": "cctAddress",
							"type": "address"
						}
					],
					"stateMutability": "nonpayable",
					"type": "constructor"
				},
				{
					"inputs": [],
					"name": "AlreadySettled",
					"type": "error"
				},
				{
					"inputs": [],
					"name": "AuctionEnded",
					"type": "error"
				},
				{
					"inputs": [],
					"name": "AuctionStillRunning",
					"type": "error"
				},
				{
					"inputs": [],
					"name": "BidTooLow",
					"type": "error"
				},
				{
					"inputs": [],
					"name": "InvalidAmount",
					"type": "error"
				},
				{
					"inputs": [],
					"name": "NotActive",
					"type": "error"
				},
				{
					"inputs": [],
					"name": "NotSeller",
					"type": "error"
				},
				{
					"anonymous": false,
					"inputs": [
						{
							"indexed": true,
							"internalType": "uint256",
							"name": "id",
							"type": "uint256"
						},
						{
							"indexed": true,
							"internalType": "address",
							"name": "bidder",
							"type": "address"
						},
						{
							"indexed": false,
							"internalType": "uint256",
							"name": "amount",
							"type": "uint256"
						}
					],
					"name": "AuctionBid",
					"type": "event"
				},
				{
					"anonymous": false,
					"inputs": [
						{
							"indexed": true,
							"internalType": "uint256",
							"name": "id",
							"type": "uint256"
						}
					],
					"name": "AuctionCancelled",
					"type": "event"
				},
				{
					"anonymous": false,
					"inputs": [
						{
							"indexed": true,
							"internalType": "uint256",
							"name": "id",
							"type": "uint256"
						},
						{
							"indexed": true,
							"internalType": "address",
							"name": "seller",
							"type": "address"
						},
						{
							"indexed": false,
							"internalType": "uint256",
							"name": "amount",
							"type": "uint256"
						},
						{
							"indexed": false,
							"internalType": "uint256",
							"name": "minPriceWei",
							"type": "uint256"
						},
						{
							"indexed": false,
							"internalType": "uint64",
							"name": "endTime",
							"type": "uint64"
						}
					],
					"name": "AuctionCreated",
					"type": "event"
				},
				{
					"anonymous": false,
					"inputs": [
						{
							"indexed": true,
							"internalType": "uint256",
							"name": "id",
							"type": "uint256"
						},
						{
							"indexed": true,
							"internalType": "address",
							"name": "winner",
							"type": "address"
						},
						{
							"indexed": false,
							"internalType": "uint256",
							"name": "bidAmount",
							"type": "uint256"
						}
					],
					"name": "AuctionSettled",
					"type": "event"
				},
				{
					"anonymous": false,
					"inputs": [
						{
							"indexed": true,
							"internalType": "uint256",
							"name": "id",
							"type": "uint256"
						}
					],
					"name": "ListingCancelled",
					"type": "event"
				},
				{
					"anonymous": false,
					"inputs": [
						{
							"indexed": true,
							"internalType": "uint256",
							"name": "id",
							"type": "uint256"
						},
						{
							"indexed": true,
							"internalType": "address",
							"name": "seller",
							"type": "address"
						},
						{
							"indexed": false,
							"internalType": "uint256",
							"name": "amount",
							"type": "uint256"
						},
						{
							"indexed": false,
							"internalType": "uint256",
							"name": "pricePerTokenWei",
							"type": "uint256"
						}
					],
					"name": "ListingCreated",
					"type": "event"
				},
				{
					"anonymous": false,
					"inputs": [
						{
							"indexed": true,
							"internalType": "uint256",
							"name": "id",
							"type": "uint256"
						},
						{
							"indexed": true,
							"internalType": "address",
							"name": "buyer",
							"type": "address"
						},
						{
							"indexed": false,
							"internalType": "uint256",
							"name": "amount",
							"type": "uint256"
						},
						{
							"indexed": false,
							"internalType": "uint256",
							"name": "totalPaid",
							"type": "uint256"
						}
					],
					"name": "ListingPurchased",
					"type": "event"
				},
				{
					"inputs": [],
					"name": "auctionCount",
					"outputs": [
						{
							"internalType": "uint256",
							"name": "",
							"type": "uint256"
						}
					],
					"stateMutability": "view",
					"type": "function"
				},
				{
					"inputs": [
						{
							"internalType": "uint256",
							"name": "",
							"type": "uint256"
						}
					],
					"name": "auctions",
					"outputs": [
						{
							"internalType": "address",
							"name": "seller",
							"type": "address"
						},
						{
							"internalType": "uint256",
							"name": "amount",
							"type": "uint256"
						},
						{
							"internalType": "uint256",
							"name": "minPriceWei",
							"type": "uint256"
						},
						{
							"internalType": "uint64",
							"name": "endTime",
							"type": "uint64"
						},
						{
							"internalType": "address",
							"name": "highestBidder",
							"type": "address"
						},
						{
							"internalType": "uint256",
							"name": "highestBid",
							"type": "uint256"
						},
						{
							"internalType": "bool",
							"name": "settled",
							"type": "bool"
						}
					],
					"stateMutability": "view",
					"type": "function"
				},
				{
					"inputs": [
						{
							"internalType": "uint256",
							"name": "id",
							"type": "uint256"
						}
					],
					"name": "bid",
					"outputs": [],
					"stateMutability": "payable",
					"type": "function"
				},
				{
					"inputs": [
						{
							"internalType": "uint256",
							"name": "id",
							"type": "uint256"
						},
						{
							"internalType": "uint256",
							"name": "amount",
							"type": "uint256"
						}
					],
					"name": "buyListing",
					"outputs": [],
					"stateMutability": "payable",
					"type": "function"
				},
				{
					"inputs": [
						{
							"internalType": "uint256",
							"name": "id",
							"type": "uint256"
						}
					],
					"name": "cancelAuction",
					"outputs": [],
					"stateMutability": "nonpayable",
					"type": "function"
				},
				{
					"inputs": [
						{
							"internalType": "uint256",
							"name": "id",
							"type": "uint256"
						}
					],
					"name": "cancelListing",
					"outputs": [],
					"stateMutability": "nonpayable",
					"type": "function"
				},
				{
					"inputs": [],
					"name": "cct",
					"outputs": [
						{
							"internalType": "contract IERC20Like",
							"name": "",
							"type": "address"
						}
					],
					"stateMutability": "view",
					"type": "function"
				},
				{
					"inputs": [
						{
							"internalType": "uint256",
							"name": "amount",
							"type": "uint256"
						},
						{
							"internalType": "uint256",
							"name": "minPriceWei",
							"type": "uint256"
						}
					],
					"name": "createAuction",
					"outputs": [
						{
							"internalType": "uint256",
							"name": "id",
							"type": "uint256"
						}
					],
					"stateMutability": "nonpayable",
					"type": "function"
				},
				{
					"inputs": [
						{
							"internalType": "uint256",
							"name": "amount",
							"type": "uint256"
						},
						{
							"internalType": "uint256",
							"name": "pricePerTokenWei",
							"type": "uint256"
						}
					],
					"name": "createListing",
					"outputs": [
						{
							"internalType": "uint256",
							"name": "id",
							"type": "uint256"
						}
					],
					"stateMutability": "nonpayable",
					"type": "function"
				},
				{
					"inputs": [],
					"name": "defaultAuctionDuration",
					"outputs": [
						{
							"internalType": "uint256",
							"name": "",
							"type": "uint256"
						}
					],
					"stateMutability": "view",
					"type": "function"
				},
				{
					"inputs": [
						{
							"internalType": "uint256",
							"name": "id",
							"type": "uint256"
						}
					],
					"name": "finalizeAuction",
					"outputs": [],
					"stateMutability": "nonpayable",
					"type": "function"
				},
				{
					"inputs": [
						{
							"internalType": "uint256",
							"name": "id",
							"type": "uint256"
						}
					],
					"name": "getAuction",
					"outputs": [
						{
							"components": [
								{
									"internalType": "address",
									"name": "seller",
									"type": "address"
								},
								{
									"internalType": "uint256",
									"name": "amount",
									"type": "uint256"
								},
								{
									"internalType": "uint256",
									"name": "minPriceWei",
									"type": "uint256"
								},
								{
									"internalType": "uint64",
									"name": "endTime",
									"type": "uint64"
								},
								{
									"internalType": "address",
									"name": "highestBidder",
									"type": "address"
								},
								{
									"internalType": "uint256",
									"name": "highestBid",
									"type": "uint256"
								},
								{
									"internalType": "bool",
									"name": "settled",
									"type": "bool"
								}
							],
							"internalType": "struct CarbonCreditMarketplace.Auction",
							"name": "",
							"type": "tuple"
						}
					],
					"stateMutability": "view",
					"type": "function"
				},
				{
					"inputs": [
						{
							"internalType": "uint256",
							"name": "id",
							"type": "uint256"
						}
					],
					"name": "getListing",
					"outputs": [
						{
							"components": [
								{
									"internalType": "address",
									"name": "seller",
									"type": "address"
								},
								{
									"internalType": "uint256",
									"name": "amount",
									"type": "uint256"
								},
								{
									"internalType": "uint256",
									"name": "pricePerTokenWei",
									"type": "uint256"
								},
								{
									"internalType": "bool",
									"name": "active",
									"type": "bool"
								}
							],
							"internalType": "struct CarbonCreditMarketplace.Listing",
							"name": "",
							"type": "tuple"
						}
					],
					"stateMutability": "view",
					"type": "function"
				},
				{
					"inputs": [],
					"name": "listingCount",
					"outputs": [
						{
							"internalType": "uint256",
							"name": "",
							"type": "uint256"
						}
					],
					"stateMutability": "view",
					"type": "function"
				},
				{
					"inputs": [
						{
							"internalType": "uint256",
							"name": "",
							"type": "uint256"
						}
					],
					"name": "listings",
					"outputs": [
						{
							"internalType": "address",
							"name": "seller",
							"type": "address"
						},
						{
							"internalType": "uint256",
							"name": "amount",
							"type": "uint256"
						},
						{
							"internalType": "uint256",
							"name": "pricePerTokenWei",
							"type": "uint256"
						},
						{
							"internalType": "bool",
							"name": "active",
							"type": "bool"
						}
					],
					"stateMutability": "view",
					"type": "function"
				},
				{
					"stateMutability": "payable",
					"type": "receive"
				}
			],
			"devdoc": {
				"kind": "dev",
				"methods": {},
				"title": "Carbon Credit Marketplace for CCT",
				"version": 1
			},
			"evm": {
				"assembly": "    /* \"backend/contracts/CarbonCreditMarketplace.sol\":538:7510  contract CarbonCreditMarketplace {... */\n  mstore(0x40, 0xc0)\n    /* \"backend/contracts/CarbonCreditMarketplace.sol\":664:673  6 minutes */\n  0x0168\n    /* \"backend/contracts/CarbonCreditMarketplace.sol\":614:673  uint256 public immutable defaultAuctionDuration = 6 minutes */\n  0xa0\n  mstore\n    /* \"backend/contracts/CarbonCreditMarketplace.sol\":712:713  1 */\n  0x01\n    /* \"backend/contracts/CarbonCreditMarketplace.sol\":680:713  uint256 private nextListingId = 1 */\n  0x00\n  dup2\n  swap1\n  sstore\n    /* \"backend/contracts/CarbonCreditMarketplace.sol\":719:752  uint256 private nextAuctionId = 1 */\n  dup1\n  sstore\n    /* \"backend/contracts/CarbonCreditMarketplace.sol\":2022:2158  constructor(address cctAddress) {... */\n  callvalue\n  dup1\n  iszero\n  tag_1\n  jumpi\n  0x00\n  dup1\n  revert\ntag_1:\n  pop\n  mload(0x40)\n  sub(codesize, bytecodeSize)\n  dup1\n  bytecodeSize\n  dup4\n  codecopy\n  dup2\n  add\n  0x40\n  dup2\n  swap1\n  mstore\n  tag_2\n  swap2\n  tag_3\n  jump\t// in\ntag_2:\n  sub(shl(0xa0, 0x01), 0x01)\n    /* \"backend/contracts/CarbonCreditMarketplace.sol\":2072:2096  cctAddress != address(0) */\n  dup2\n  and\n    /* \"backend/contracts/CarbonCreditMarketplace.sol\":2064:2113  require(cctAddress != address(0), \"cct required\") */\n  tag_6\n  jumpi\n  mload(0x40)\n  shl(0xe5, 0x461bcd)\n  dup2\n  mstore\n    /* \"#utility.yul\":511:513   */\n  0x20\n    /* \"backend/contracts/CarbonCreditMarketplace.sol\":2064:2113  require(cctAddress != address(0), \"cct required\") */\n  0x04\n  dup3\n  add\n    /* \"#utility.yul\":493:514   */\n  mstore\n    /* \"#utility.yul\":550:552   */\n  0x0c\n    /* \"#utility.yul\":530:548   */\n  0x24\n  dup3\n  add\n    /* \"#utility.yul\":523:553   */\n  mstore\n  shl(0xa2, 0x18d8dd081c995c5d5a5c9959)\n    /* \"#utility.yul\":569:587   */\n  0x44\n  dup3\n  add\n    /* \"#utility.yul\":562:604   */\n  mstore\n    /* \"#utility.yul\":621:639   */\n  0x64\n  add\n    /* \"backend/contracts/CarbonCreditMarketplace.sol\":2064:2113  require(cctAddress != address(0), \"cct required\") */\n  mload(0x40)\n  dup1\n  swap2\n  sub\n  swap1\n  revert\ntag_6:\n  sub(shl(0xa0, 0x01), 0x01)\n    /* \"backend/contracts/CarbonCreditMarketplace.sol\":2123:2151  cct = IERC20Like(cctAddress) */\n  and\n  0x80\n  mstore\n    /* \"backend/contracts/CarbonCreditMarketplace.sol\":538:7510  contract CarbonCreditMarketplace {... */\n  jump(tag_10)\n    /* \"#utility.yul\":14:304   */\ntag_3:\n    /* \"#utility.yul\":84:90   */\n  0x00\n    /* \"#utility.yul\":137:139   */\n  0x20\n    /* \"#utility.yul\":125:134   */\n  dup3\n    /* \"#utility.yul\":116:123   */\n  dup5\n    /* \"#utility.yul\":112:135   */\n  sub\n    /* \"#utility.yul\":108:140   */\n  slt\n    /* \"#utility.yul\":105:157   */\n  iszero\n  tag_12\n  jumpi\n    /* \"#utility.yul\":153:154   */\n  0x00\n    /* \"#utility.yul\":150:151   */\n  dup1\n    /* \"#utility.yul\":143:155   */\n  revert\n    /* \"#utility.yul\":105:157   */\ntag_12:\n    /* \"#utility.yul\":179:195   */\n  dup2\n  mload\n  sub(shl(0xa0, 0x01), 0x01)\n    /* \"#utility.yul\":224:255   */\n  dup2\n  and\n    /* \"#utility.yul\":214:256   */\n  dup2\n  eq\n    /* \"#utility.yul\":204:274   */\n  tag_13\n  jumpi\n    /* \"#utility.yul\":270:271   */\n  0x00\n    /* \"#utility.yul\":267:268   */\n  dup1\n    /* \"#utility.yul\":260:272   */\n  revert\n    /* \"#utility.yul\":204:274   */\ntag_13:\n    /* \"#utility.yul\":293:298   */\n  swap4\n    /* \"#utility.yul\":14:304   */\n  swap3\n  pop\n  pop\n  pop\n  jump\t// out\n    /* \"#utility.yul\":309:645   */\ntag_10:\n    /* \"backend/contracts/CarbonCreditMarketplace.sol\":538:7510  contract CarbonCreditMarketplace {... */\n  mload(0x80)\n  mload(0xa0)\n  codecopy(0x00, dataOffset(sub_0), dataSize(sub_0))\n  0x00\n  assignImmutable(\"0xcc1431a2586c1e11fb75c87e5ee58e4204126a9fdde07075c91770f50276cbb0\")\n  0x00\n  assignImmutable(\"0xccb1f717aa77602faf03a594761a36956b1c4cf44c6b336d1db57da799b331b8\")\n  return(0x00, dataSize(sub_0))\nstop\n\nsub_0: assembly {\n        /* \"backend/contracts/CarbonCreditMarketplace.sol\":538:7510  contract CarbonCreditMarketplace {... */\n      mstore(0x40, 0x80)\n      jumpi(tag_1, lt(calldatasize, 0x04))\n      shr(0xe0, calldataload(0x00))\n      dup1\n      0x5a05ee58\n      gt\n      tag_18\n      jumpi\n      dup1\n      0xa79123a9\n      gt\n      tag_19\n      jumpi\n      dup1\n      0xa79123a9\n      eq\n      tag_14\n      jumpi\n      dup1\n      0xa9b07c26\n      eq\n      tag_15\n      jumpi\n      dup1\n      0xde74e57b\n      eq\n      tag_16\n      jumpi\n      dup1\n      0xe8083863\n      eq\n      tag_17\n      jumpi\n      0x00\n      dup1\n      revert\n    tag_19:\n      dup1\n      0x5a05ee58\n      eq\n      tag_10\n      jumpi\n      dup1\n      0x6d0ba1d3\n      eq\n      tag_11\n      jumpi\n      dup1\n      0x78bd7935\n      eq\n      tag_12\n      jumpi\n      dup1\n      0x96b5a755\n      eq\n      tag_13\n      jumpi\n      0x00\n      dup1\n      revert\n    tag_18:\n      dup1\n      0x305a67a8\n      gt\n      tag_20\n      jumpi\n      dup1\n      0x305a67a8\n      eq\n      tag_6\n      jumpi\n      dup1\n      0x454a2ab3\n      eq\n      tag_7\n      jumpi\n      dup1\n      0x510219cd\n      eq\n      tag_8\n      jumpi\n      dup1\n      0x571a26a0\n      eq\n      tag_9\n      jumpi\n      0x00\n      dup1\n      revert\n    tag_20:\n      dup1\n      0x0121683f\n      eq\n      tag_3\n      jumpi\n      dup1\n      0x107a274a\n      eq\n      tag_4\n      jumpi\n      dup1\n      0x2ad71573\n      eq\n      tag_5\n      jumpi\n      0x00\n      dup1\n      revert\n    tag_1:\n      jumpi(tag_2, calldatasize)\n      stop\n    tag_2:\n      0x00\n      dup1\n      revert\n        /* \"backend/contracts/CarbonCreditMarketplace.sol\":3797:4476  function createAuction(uint256 amount, uint256 minPriceWei) external returns (uint256 id) {... */\n    tag_3:\n      callvalue\n      dup1\n      iszero\n      tag_23\n      jumpi\n      0x00\n      dup1\n      revert\n    tag_23:\n      pop\n      tag_24\n      tag_25\n      calldatasize\n      0x04\n      tag_26\n      jump\t// in\n    tag_25:\n      tag_27\n      jump\t// in\n    tag_24:\n      mload(0x40)\n        /* \"#utility.yul\":413:438   */\n      swap1\n      dup2\n      mstore\n        /* \"#utility.yul\":401:403   */\n      0x20\n        /* \"#utility.yul\":386:404   */\n      add\n        /* \"backend/contracts/CarbonCreditMarketplace.sol\":3797:4476  function createAuction(uint256 amount, uint256 minPriceWei) external returns (uint256 id) {... */\n    tag_28:\n      mload(0x40)\n      dup1\n      swap2\n      sub\n      swap1\n      return\n        /* \"backend/contracts/CarbonCreditMarketplace.sol\":6857:6964  function getListing(uint256 id) external view returns (Listing memory) {... */\n    tag_4:\n      callvalue\n      dup1\n      iszero\n      tag_30\n      jumpi\n      0x00\n      dup1\n      revert\n    tag_30:\n      pop\n      tag_31\n      tag_32\n      calldatasize\n      0x04\n      tag_33\n      jump\t// in\n    tag_32:\n      0x40\n      dup1\n      mload\n      0x80\n      dup2\n      add\n      dup3\n      mstore\n      0x00\n      dup1\n      dup3\n      mstore\n      0x20\n      dup3\n      add\n      dup2\n      swap1\n      mstore\n      swap2\n      dup2\n      add\n      dup3\n      swap1\n      mstore\n      0x60\n      dup2\n      add\n      swap2\n      swap1\n      swap2\n      mstore\n      pop\n        /* \"backend/contracts/CarbonCreditMarketplace.sol\":6945:6957  listings[id] */\n      0x00\n      swap1\n      dup2\n      mstore\n        /* \"backend/contracts/CarbonCreditMarketplace.sol\":6945:6953  listings */\n      0x02\n        /* \"backend/contracts/CarbonCreditMarketplace.sol\":6945:6957  listings[id] */\n      0x20\n      dup2\n      dup2\n      mstore\n      0x40\n      swap3\n      dup4\n      swap1\n      keccak256\n        /* \"backend/contracts/CarbonCreditMarketplace.sol\":6938:6957  return listings[id] */\n      dup4\n      mload\n      0x80\n      dup2\n      add\n      dup6\n      mstore\n      dup2\n      sload\n      sub(shl(0xa0, 0x01), 0x01)\n      and\n      dup2\n      mstore\n      0x01\n      dup3\n      add\n      sload\n      swap3\n      dup2\n      add\n      swap3\n      swap1\n      swap3\n      mstore\n      swap2\n      dup3\n      add\n      sload\n      swap3\n      dup2\n      add\n      swap3\n      swap1\n      swap3\n      mstore\n      0x03\n      add\n      sload\n      0xff\n      and\n      iszero\n      iszero\n      0x60\n      dup3\n      add\n      mstore\n      swap1\n        /* \"backend/contracts/CarbonCreditMarketplace.sol\":6857:6964  function getListing(uint256 id) external view returns (Listing memory) {... */\n      jump\n    tag_31:\n      mload(0x40)\n      tag_28\n      swap2\n      swap1\n        /* \"#utility.yul\":849:862   */\n      dup2\n      mload\n      sub(shl(0xa0, 0x01), 0x01)\n        /* \"#utility.yul\":845:884   */\n      and\n        /* \"#utility.yul\":827:885   */\n      dup2\n      mstore\n        /* \"#utility.yul\":941:945   */\n      0x20\n        /* \"#utility.yul\":929:946   */\n      dup1\n      dup4\n      add\n        /* \"#utility.yul\":923:947   */\n      mload\n        /* \"#utility.yul\":901:921   */\n      swap1\n      dup3\n      add\n        /* \"#utility.yul\":894:948   */\n      mstore\n        /* \"#utility.yul\":1004:1008   */\n      0x40\n        /* \"#utility.yul\":992:1009   */\n      dup1\n      dup4\n      add\n        /* \"#utility.yul\":986:1010   */\n      mload\n        /* \"#utility.yul\":964:984   */\n      swap1\n      dup3\n      add\n        /* \"#utility.yul\":957:1011   */\n      mstore\n        /* \"#utility.yul\":1081:1085   */\n      0x60\n        /* \"#utility.yul\":1069:1086   */\n      swap2\n      dup3\n      add\n        /* \"#utility.yul\":1063:1087   */\n      mload\n        /* \"#utility.yul\":1056:1088   */\n      iszero\n        /* \"#utility.yul\":1049:1089   */\n      iszero\n        /* \"#utility.yul\":1027:1047   */\n      swap2\n      dup2\n      add\n        /* \"#utility.yul\":1020:1090   */\n      swap2\n      swap1\n      swap2\n      mstore\n        /* \"#utility.yul\":814:817   */\n      0x80\n        /* \"#utility.yul\":799:818   */\n      add\n      swap1\n        /* \"#utility.yul\":634:1096   */\n      jump\n        /* \"backend/contracts/CarbonCreditMarketplace.sol\":7299:7473  function auctionCount() external view returns (uint256) {... */\n    tag_5:\n      callvalue\n      dup1\n      iszero\n      tag_37\n      jumpi\n      0x00\n      dup1\n      revert\n    tag_37:\n      pop\n      tag_24\n      tag_39\n      jump\t// in\n        /* \"backend/contracts/CarbonCreditMarketplace.sol\":2744:3041  function cancelListing(uint256 id) external {... */\n    tag_6:\n      callvalue\n      dup1\n      iszero\n      tag_41\n      jumpi\n      0x00\n      dup1\n      revert\n    tag_41:\n      pop\n      tag_42\n      tag_43\n      calldatasize\n      0x04\n      tag_33\n      jump\t// in\n    tag_43:\n      tag_44\n      jump\t// in\n    tag_42:\n      stop\n        /* \"backend/contracts/CarbonCreditMarketplace.sol\":4482:5112  function bid(uint256 id) external payable {... */\n    tag_7:\n      tag_42\n      tag_46\n      calldatasize\n      0x04\n      tag_33\n      jump\t// in\n    tag_46:\n      tag_47\n      jump\t// in\n        /* \"backend/contracts/CarbonCreditMarketplace.sol\":614:673  uint256 public immutable defaultAuctionDuration = 6 minutes */\n    tag_8:\n      callvalue\n      dup1\n      iszero\n      tag_48\n      jumpi\n      0x00\n      dup1\n      revert\n    tag_48:\n      pop\n      tag_24\n      immutable(\"0xcc1431a2586c1e11fb75c87e5ee58e4204126a9fdde07075c91770f50276cbb0\")\n      dup2\n      jump\n        /* \"backend/contracts/CarbonCreditMarketplace.sol\":1149:1192  mapping(uint256 => Auction) public auctions */\n    tag_9:\n      callvalue\n      dup1\n      iszero\n      tag_52\n      jumpi\n      0x00\n      dup1\n      revert\n    tag_52:\n      pop\n      tag_53\n      tag_54\n      calldatasize\n      0x04\n      tag_33\n      jump\t// in\n    tag_54:\n      0x03\n      0x20\n      dup2\n      swap1\n      mstore\n      0x00\n      swap2\n      dup3\n      mstore\n      0x40\n      swap1\n      swap2\n      keccak256\n      dup1\n      sload\n      0x01\n      dup3\n      add\n      sload\n      0x02\n      dup4\n      add\n      sload\n      swap4\n      dup4\n      add\n      sload\n      0x04\n      dup5\n      add\n      sload\n      0x05\n      swap1\n      swap5\n      add\n      sload\n      sub(shl(0xa0, 0x01), 0x01)\n      swap4\n      dup5\n      and\n      swap6\n      swap3\n      swap5\n      swap3\n      swap4\n      0xffffffffffffffff\n      dup4\n      and\n      swap4\n      shl(0x40, 0x01)\n      swap1\n      swap4\n      div\n      and\n      swap2\n      swap1\n      0xff\n      and\n      dup8\n      jump\n    tag_53:\n      0x40\n      dup1\n      mload\n      sub(shl(0xa0, 0x01), 0x01)\n        /* \"#utility.yul\":1464:1479   */\n      swap9\n      dup10\n      and\n        /* \"#utility.yul\":1446:1480   */\n      dup2\n      mstore\n        /* \"#utility.yul\":1511:1513   */\n      0x20\n        /* \"#utility.yul\":1496:1514   */\n      dup2\n      add\n        /* \"#utility.yul\":1489:1523   */\n      swap8\n      swap1\n      swap8\n      mstore\n        /* \"#utility.yul\":1539:1557   */\n      dup7\n      add\n        /* \"#utility.yul\":1532:1566   */\n      swap5\n      swap1\n      swap5\n      mstore\n        /* \"#utility.yul\":1614:1632   */\n      0xffffffffffffffff\n        /* \"#utility.yul\":1602:1633   */\n      swap1\n      swap3\n      and\n        /* \"#utility.yul\":1597:1599   */\n      0x60\n        /* \"#utility.yul\":1582:1600   */\n      dup6\n      add\n        /* \"#utility.yul\":1575:1634   */\n      mstore\n        /* \"#utility.yul\":1671:1686   */\n      swap4\n      swap1\n      swap4\n      and\n        /* \"#utility.yul\":1665:1668   */\n      0x80\n        /* \"#utility.yul\":1650:1669   */\n      dup4\n      add\n        /* \"#utility.yul\":1643:1687   */\n      mstore\n        /* \"#utility.yul\":1426:1429   */\n      0xa0\n        /* \"#utility.yul\":1703:1722   */\n      dup3\n      add\n        /* \"#utility.yul\":1696:1731   */\n      swap3\n      swap1\n      swap3\n      mstore\n        /* \"#utility.yul\":1775:1789   */\n      swap1\n      iszero\n        /* \"#utility.yul\":1768:1790   */\n      iszero\n        /* \"#utility.yul\":1762:1765   */\n      0xc0\n        /* \"#utility.yul\":1747:1766   */\n      dup3\n      add\n        /* \"#utility.yul\":1740:1791   */\n      mstore\n        /* \"#utility.yul\":1395:1398   */\n      0xe0\n        /* \"#utility.yul\":1380:1399   */\n      add\n        /* \"backend/contracts/CarbonCreditMarketplace.sol\":1149:1192  mapping(uint256 => Auction) public auctions */\n      tag_28\n        /* \"#utility.yul\":1101:1797   */\n      jump\n        /* \"backend/contracts/CarbonCreditMarketplace.sol\":577:608  IERC20Like public immutable cct */\n    tag_10:\n      callvalue\n      dup1\n      iszero\n      tag_58\n      jumpi\n      0x00\n      dup1\n      revert\n    tag_58:\n      pop\n      tag_59\n      immutable(\"0xccb1f717aa77602faf03a594761a36956b1c4cf44c6b336d1db57da799b331b8\")\n      dup2\n      jump\n    tag_59:\n      mload(0x40)\n      sub(shl(0xa0, 0x01), 0x01)\n        /* \"#utility.yul\":1983:2015   */\n      swap1\n      swap2\n      and\n        /* \"#utility.yul\":1965:2016   */\n      dup2\n      mstore\n        /* \"#utility.yul\":1953:1955   */\n      0x20\n        /* \"#utility.yul\":1938:1956   */\n      add\n        /* \"backend/contracts/CarbonCreditMarketplace.sol\":577:608  IERC20Like public immutable cct */\n      tag_28\n        /* \"#utility.yul\":1802:2022   */\n      jump\n        /* \"backend/contracts/CarbonCreditMarketplace.sol\":3047:3767  function buyListing(uint256 id, uint256 amount) external payable {... */\n    tag_11:\n      tag_42\n      tag_64\n      calldatasize\n      0x04\n      tag_26\n      jump\t// in\n    tag_64:\n      tag_65\n      jump\t// in\n        /* \"backend/contracts/CarbonCreditMarketplace.sol\":6970:7077  function getAuction(uint256 id) external view returns (Auction memory) {... */\n    tag_12:\n      callvalue\n      dup1\n      iszero\n      tag_66\n      jumpi\n      0x00\n      dup1\n      revert\n    tag_66:\n      pop\n      tag_67\n      tag_68\n      calldatasize\n      0x04\n      tag_33\n      jump\t// in\n    tag_68:\n      0x40\n      dup1\n      mload\n      0xe0\n      dup2\n      add\n      dup3\n      mstore\n      0x00\n      dup1\n      dup3\n      mstore\n      0x20\n      dup3\n      add\n      dup2\n      swap1\n      mstore\n      swap2\n      dup2\n      add\n      dup3\n      swap1\n      mstore\n      0x60\n      dup2\n      add\n      dup3\n      swap1\n      mstore\n      0x80\n      dup2\n      add\n      dup3\n      swap1\n      mstore\n      0xa0\n      dup2\n      add\n      dup3\n      swap1\n      mstore\n      0xc0\n      dup2\n      add\n      swap2\n      swap1\n      swap2\n      mstore\n      pop\n        /* \"backend/contracts/CarbonCreditMarketplace.sol\":7058:7070  auctions[id] */\n      0x00\n      swap1\n      dup2\n      mstore\n        /* \"backend/contracts/CarbonCreditMarketplace.sol\":7058:7066  auctions */\n      0x03\n        /* \"backend/contracts/CarbonCreditMarketplace.sol\":7058:7070  auctions[id] */\n      0x20\n      dup2\n      dup2\n      mstore\n      0x40\n      swap3\n      dup4\n      swap1\n      keccak256\n        /* \"backend/contracts/CarbonCreditMarketplace.sol\":7051:7070  return auctions[id] */\n      dup4\n      mload\n      0xe0\n      dup2\n      add\n      dup6\n      mstore\n      dup2\n      sload\n      sub(shl(0xa0, 0x01), 0x01)\n      swap1\n      dup2\n      and\n      dup3\n      mstore\n      0x01\n      dup4\n      add\n      sload\n      swap4\n      dup3\n      add\n      swap4\n      swap1\n      swap4\n      mstore\n      0x02\n      dup3\n      add\n      sload\n      swap5\n      dup2\n      add\n      swap5\n      swap1\n      swap5\n      mstore\n      swap2\n      dup3\n      add\n      sload\n      0xffffffffffffffff\n      dup2\n      and\n      0x60\n      dup6\n      add\n      mstore\n      shl(0x40, 0x01)\n      swap1\n      div\n      and\n      0x80\n      dup4\n      add\n      mstore\n      0x04\n      dup2\n      add\n      sload\n      0xa0\n      dup4\n      add\n      mstore\n      0x05\n      add\n      sload\n      0xff\n      and\n      iszero\n      iszero\n      0xc0\n      dup3\n      add\n      mstore\n      swap1\n        /* \"backend/contracts/CarbonCreditMarketplace.sol\":6970:7077  function getAuction(uint256 id) external view returns (Auction memory) {... */\n      jump\n    tag_67:\n      mload(0x40)\n      tag_28\n      swap2\n      swap1\n        /* \"#utility.yul\":2280:2293   */\n      dup2\n      mload\n      sub(shl(0xa0, 0x01), 0x01)\n        /* \"#utility.yul\":2276:2298   */\n      swap1\n      dup2\n      and\n        /* \"#utility.yul\":2258:2299   */\n      dup3\n      mstore\n        /* \"#utility.yul\":2355:2359   */\n      0x20\n        /* \"#utility.yul\":2343:2360   */\n      dup1\n      dup5\n      add\n        /* \"#utility.yul\":2337:2361   */\n      mload\n        /* \"#utility.yul\":2315:2335   */\n      swap1\n      dup4\n      add\n        /* \"#utility.yul\":2308:2362   */\n      mstore\n        /* \"#utility.yul\":2418:2422   */\n      0x40\n        /* \"#utility.yul\":2406:2423   */\n      dup1\n      dup5\n      add\n        /* \"#utility.yul\":2400:2424   */\n      mload\n        /* \"#utility.yul\":2378:2398   */\n      swap1\n      dup4\n      add\n        /* \"#utility.yul\":2371:2425   */\n      mstore\n        /* \"#utility.yul\":2485:2489   */\n      0x60\n        /* \"#utility.yul\":2473:2490   */\n      dup1\n      dup5\n      add\n        /* \"#utility.yul\":2467:2491   */\n      mload\n        /* \"#utility.yul\":2493:2511   */\n      0xffffffffffffffff\n        /* \"#utility.yul\":2463:2512   */\n      and\n        /* \"#utility.yul\":2441:2461   */\n      swap1\n      dup4\n      add\n        /* \"#utility.yul\":2434:2513   */\n      mstore\n        /* \"#utility.yul\":2573:2577   */\n      0x80\n        /* \"#utility.yul\":2561:2578   */\n      dup1\n      dup5\n      add\n        /* \"#utility.yul\":2555:2579   */\n      mload\n        /* \"#utility.yul\":2551:2584   */\n      swap1\n      swap2\n      and\n        /* \"#utility.yul\":2529:2549   */\n      swap1\n      dup3\n      add\n        /* \"#utility.yul\":2522:2585   */\n      mstore\n        /* \"#utility.yul\":2238:2241   */\n      0xa0\n        /* \"#utility.yul\":2629:2646   */\n      dup3\n      dup2\n      add\n        /* \"#utility.yul\":2623:2647   */\n      mload\n        /* \"#utility.yul\":2601:2621   */\n      swap1\n      dup3\n      add\n        /* \"#utility.yul\":2594:2648   */\n      mstore\n        /* \"#utility.yul\":2718:2722   */\n      0xc0\n        /* \"#utility.yul\":2706:2723   */\n      swap2\n      dup3\n      add\n        /* \"#utility.yul\":2700:2724   */\n      mload\n        /* \"#utility.yul\":2693:2725   */\n      iszero\n        /* \"#utility.yul\":2686:2726   */\n      iszero\n        /* \"#utility.yul\":2664:2684   */\n      swap2\n      dup2\n      add\n        /* \"#utility.yul\":2657:2727   */\n      swap2\n      swap1\n      swap2\n      mstore\n        /* \"#utility.yul\":2207:2210   */\n      0xe0\n        /* \"#utility.yul\":2192:2211   */\n      add\n      swap1\n        /* \"#utility.yul\":2027:2733   */\n      jump\n        /* \"backend/contracts/CarbonCreditMarketplace.sol\":5765:6226  function cancelAuction(uint256 id) external {... */\n    tag_13:\n      callvalue\n      dup1\n      iszero\n      tag_72\n      jumpi\n      0x00\n      dup1\n      revert\n    tag_72:\n      pop\n      tag_42\n      tag_74\n      calldatasize\n      0x04\n      tag_33\n      jump\t// in\n    tag_74:\n      tag_75\n      jump\t// in\n        /* \"backend/contracts/CarbonCreditMarketplace.sol\":2191:2738  function createListing(uint256 amount, uint256 pricePerTokenWei) external returns (uint256 id) {... */\n    tag_14:\n      callvalue\n      dup1\n      iszero\n      tag_76\n      jumpi\n      0x00\n      dup1\n      revert\n    tag_76:\n      pop\n      tag_24\n      tag_78\n      calldatasize\n      0x04\n      tag_26\n      jump\t// in\n    tag_78:\n      tag_79\n      jump\t// in\n        /* \"backend/contracts/CarbonCreditMarketplace.sol\":7119:7293  function listingCount() external view returns (uint256) {... */\n    tag_15:\n      callvalue\n      dup1\n      iszero\n      tag_81\n      jumpi\n      0x00\n      dup1\n      revert\n    tag_81:\n      pop\n      tag_24\n      tag_83\n      jump\t// in\n        /* \"backend/contracts/CarbonCreditMarketplace.sol\":1100:1143  mapping(uint256 => Listing) public listings */\n    tag_16:\n      callvalue\n      dup1\n      iszero\n      tag_85\n      jumpi\n      0x00\n      dup1\n      revert\n    tag_85:\n      pop\n      tag_86\n      tag_87\n      calldatasize\n      0x04\n      tag_33\n      jump\t// in\n    tag_87:\n      0x02\n      0x20\n      dup2\n      swap1\n      mstore\n      0x00\n      swap2\n      dup3\n      mstore\n      0x40\n      swap1\n      swap2\n      keccak256\n      dup1\n      sload\n      0x01\n      dup3\n      add\n      sload\n      swap3\n      dup3\n      add\n      sload\n      0x03\n      swap1\n      swap3\n      add\n      sload\n      sub(shl(0xa0, 0x01), 0x01)\n      swap1\n      swap2\n      and\n      swap3\n      swap2\n      swap1\n      0xff\n      and\n      dup5\n      jump\n    tag_86:\n      0x40\n      dup1\n      mload\n      sub(shl(0xa0, 0x01), 0x01)\n        /* \"#utility.yul\":2981:3013   */\n      swap1\n      swap6\n      and\n        /* \"#utility.yul\":2963:3014   */\n      dup6\n      mstore\n        /* \"#utility.yul\":3045:3047   */\n      0x20\n        /* \"#utility.yul\":3030:3048   */\n      dup6\n      add\n        /* \"#utility.yul\":3023:3057   */\n      swap4\n      swap1\n      swap4\n      mstore\n        /* \"#utility.yul\":3073:3091   */\n      swap2\n      dup4\n      add\n        /* \"#utility.yul\":3066:3100   */\n      mstore\n        /* \"#utility.yul\":3143:3157   */\n      iszero\n        /* \"#utility.yul\":3136:3158   */\n      iszero\n        /* \"#utility.yul\":3131:3133   */\n      0x60\n        /* \"#utility.yul\":3116:3134   */\n      dup3\n      add\n        /* \"#utility.yul\":3109:3159   */\n      mstore\n        /* \"#utility.yul\":2950:2953   */\n      0x80\n        /* \"#utility.yul\":2935:2954   */\n      add\n        /* \"backend/contracts/CarbonCreditMarketplace.sol\":1100:1143  mapping(uint256 => Listing) public listings */\n      tag_28\n        /* \"#utility.yul\":2738:3165   */\n      jump\n        /* \"backend/contracts/CarbonCreditMarketplace.sol\":5118:5759  function finalizeAuction(uint256 id) external {... */\n    tag_17:\n      callvalue\n      dup1\n      iszero\n      tag_91\n      jumpi\n      0x00\n      dup1\n      revert\n    tag_91:\n      pop\n      tag_42\n      tag_93\n      calldatasize\n      0x04\n      tag_33\n      jump\t// in\n    tag_93:\n      tag_94\n      jump\t// in\n        /* \"backend/contracts/CarbonCreditMarketplace.sol\":3797:4476  function createAuction(uint256 amount, uint256 minPriceWei) external returns (uint256 id) {... */\n    tag_27:\n        /* \"backend/contracts/CarbonCreditMarketplace.sol\":3875:3885  uint256 id */\n      0x00\n        /* \"backend/contracts/CarbonCreditMarketplace.sol\":3914:3915  0 */\n      dup1\n        /* \"backend/contracts/CarbonCreditMarketplace.sol\":3905:3911  amount */\n      dup4\n        /* \"backend/contracts/CarbonCreditMarketplace.sol\":3905:3915  amount > 0 */\n      gt\n        /* \"backend/contracts/CarbonCreditMarketplace.sol\":3897:3926  require(amount > 0, \"amount\") */\n      tag_96\n      jumpi\n      mload(0x40)\n      shl(0xe5, 0x461bcd)\n      dup2\n      mstore\n        /* \"#utility.yul\":3372:3374   */\n      0x20\n        /* \"backend/contracts/CarbonCreditMarketplace.sol\":3897:3926  require(amount > 0, \"amount\") */\n      0x04\n      dup3\n      add\n        /* \"#utility.yul\":3354:3375   */\n      mstore\n        /* \"#utility.yul\":3411:3412   */\n      0x06\n        /* \"#utility.yul\":3391:3409   */\n      0x24\n      dup3\n      add\n        /* \"#utility.yul\":3384:3413   */\n      mstore\n      shl(0xd2, 0x185b5bdd5b9d)\n        /* \"#utility.yul\":3429:3447   */\n      0x44\n      dup3\n      add\n        /* \"#utility.yul\":3422:3458   */\n      mstore\n        /* \"#utility.yul\":3475:3493   */\n      0x64\n      add\n        /* \"backend/contracts/CarbonCreditMarketplace.sol\":3897:3926  require(amount > 0, \"amount\") */\n    tag_97:\n      mload(0x40)\n      dup1\n      swap2\n      sub\n      swap1\n      revert\n    tag_96:\n        /* \"backend/contracts/CarbonCreditMarketplace.sol\":3958:3959  0 */\n      0x00\n        /* \"backend/contracts/CarbonCreditMarketplace.sol\":3944:3955  minPriceWei */\n      dup3\n        /* \"backend/contracts/CarbonCreditMarketplace.sol\":3944:3959  minPriceWei > 0 */\n      gt\n        /* \"backend/contracts/CarbonCreditMarketplace.sol\":3936:3972  require(minPriceWei > 0, \"minPrice\") */\n      tag_99\n      jumpi\n      mload(0x40)\n      shl(0xe5, 0x461bcd)\n      dup2\n      mstore\n        /* \"#utility.yul\":3706:3708   */\n      0x20\n        /* \"backend/contracts/CarbonCreditMarketplace.sol\":3936:3972  require(minPriceWei > 0, \"minPrice\") */\n      0x04\n      dup3\n      add\n        /* \"#utility.yul\":3688:3709   */\n      mstore\n        /* \"#utility.yul\":3745:3746   */\n      0x08\n        /* \"#utility.yul\":3725:3743   */\n      0x24\n      dup3\n      add\n        /* \"#utility.yul\":3718:3747   */\n      mstore\n      shl(0xc0, 0x6d696e5072696365)\n        /* \"#utility.yul\":3763:3781   */\n      0x44\n      dup3\n      add\n        /* \"#utility.yul\":3756:3794   */\n      mstore\n        /* \"#utility.yul\":3811:3829   */\n      0x64\n      add\n        /* \"backend/contracts/CarbonCreditMarketplace.sol\":3936:3972  require(minPriceWei > 0, \"minPrice\") */\n      tag_97\n        /* \"#utility.yul\":3504:3835   */\n      jump\n        /* \"backend/contracts/CarbonCreditMarketplace.sol\":3936:3972  require(minPriceWei > 0, \"minPrice\") */\n    tag_99:\n        /* \"backend/contracts/CarbonCreditMarketplace.sol\":3983:4014  _pullTokens(msg.sender, amount) */\n      tag_102\n        /* \"backend/contracts/CarbonCreditMarketplace.sol\":3995:4005  msg.sender */\n      caller\n        /* \"backend/contracts/CarbonCreditMarketplace.sol\":4007:4013  amount */\n      dup5\n        /* \"backend/contracts/CarbonCreditMarketplace.sol\":3983:3994  _pullTokens */\n      tag_103\n        /* \"backend/contracts/CarbonCreditMarketplace.sol\":3983:4014  _pullTokens(msg.sender, amount) */\n      jump\t// in\n    tag_102:\n        /* \"backend/contracts/CarbonCreditMarketplace.sol\":4030:4043  nextAuctionId */\n      0x01\n        /* \"backend/contracts/CarbonCreditMarketplace.sol\":4030:4045  nextAuctionId++ */\n      dup1\n      sload\n      swap1\n        /* \"backend/contracts/CarbonCreditMarketplace.sol\":4030:4043  nextAuctionId */\n      0x00\n        /* \"backend/contracts/CarbonCreditMarketplace.sol\":4030:4045  nextAuctionId++ */\n      tag_104\n      dup4\n      tag_105\n      jump\t// in\n    tag_104:\n      swap2\n      swap1\n      pop\n      sstore\n        /* \"backend/contracts/CarbonCreditMarketplace.sol\":4025:4045  id = nextAuctionId++ */\n      swap1\n      pop\n        /* \"backend/contracts/CarbonCreditMarketplace.sol\":4070:4352  Auction({... */\n      mload(0x40)\n      dup1\n      0xe0\n      add\n      0x40\n      mstore\n      dup1\n        /* \"backend/contracts/CarbonCreditMarketplace.sol\":4100:4110  msg.sender */\n      caller\n      sub(shl(0xa0, 0x01), 0x01)\n        /* \"backend/contracts/CarbonCreditMarketplace.sol\":4070:4352  Auction({... */\n      and\n      dup2\n      mstore\n      0x20\n      add\n        /* \"backend/contracts/CarbonCreditMarketplace.sol\":4132:4138  amount */\n      dup5\n        /* \"backend/contracts/CarbonCreditMarketplace.sol\":4070:4352  Auction({... */\n      dup2\n      mstore\n      0x20\n      add\n        /* \"backend/contracts/CarbonCreditMarketplace.sol\":4165:4176  minPriceWei */\n      dup4\n        /* \"backend/contracts/CarbonCreditMarketplace.sol\":4070:4352  Auction({... */\n      dup2\n      mstore\n      0x20\n      add\n        /* \"backend/contracts/CarbonCreditMarketplace.sol\":4224:4246  defaultAuctionDuration */\n      immutable(\"0xcc1431a2586c1e11fb75c87e5ee58e4204126a9fdde07075c91770f50276cbb0\")\n        /* \"backend/contracts/CarbonCreditMarketplace.sol\":4206:4221  block.timestamp */\n      timestamp\n        /* \"backend/contracts/CarbonCreditMarketplace.sol\":4206:4246  block.timestamp + defaultAuctionDuration */\n      tag_106\n      swap2\n      swap1\n      tag_107\n      jump\t// in\n    tag_106:\n        /* \"backend/contracts/CarbonCreditMarketplace.sol\":4070:4352  Auction({... */\n      0xffffffffffffffff\n      swap1\n      dup2\n      and\n      dup3\n      mstore\n        /* \"backend/contracts/CarbonCreditMarketplace.sol\":4284:4285  0 */\n      0x00\n        /* \"backend/contracts/CarbonCreditMarketplace.sol\":4070:4352  Auction({... */\n      0x20\n      dup1\n      dup5\n      add\n      dup3\n      swap1\n      mstore\n      0x40\n      dup1\n      dup6\n      add\n      dup4\n      swap1\n      mstore\n      0x60\n      swap5\n      dup6\n      add\n      dup4\n      swap1\n      mstore\n        /* \"backend/contracts/CarbonCreditMarketplace.sol\":4055:4067  auctions[id] */\n      dup7\n      dup4\n      mstore\n        /* \"backend/contracts/CarbonCreditMarketplace.sol\":4055:4063  auctions */\n      0x03\n        /* \"backend/contracts/CarbonCreditMarketplace.sol\":4055:4067  auctions[id] */\n      dup1\n      dup4\n      mstore\n      swap3\n      dup2\n      swap1\n      keccak256\n        /* \"backend/contracts/CarbonCreditMarketplace.sol\":4055:4352  auctions[id] = Auction({... */\n      dup7\n      mload\n      dup2\n      sload\n      sub(shl(0xa0, 0x01), 0x01)\n      swap2\n      dup3\n      and\n      not(sub(shl(0xa0, 0x01), 0x01))\n      swap1\n      swap2\n      and\n      or\n      dup3\n      sstore\n      swap3\n      dup8\n      add\n      mload\n        /* \"backend/contracts/CarbonCreditMarketplace.sol\":4070:4352  Auction({... */\n      0x01\n        /* \"backend/contracts/CarbonCreditMarketplace.sol\":4055:4352  auctions[id] = Auction({... */\n      dup3\n      add\n      sstore\n      swap1\n      dup7\n      add\n      mload\n      0x02\n      dup3\n      add\n      sstore\n      swap4\n      dup6\n      add\n      mload\n      swap2\n      dup5\n      add\n      dup1\n      sload\n      0x80\n      dup8\n      add\n      mload\n      swap1\n      swap3\n      and\n      shl(0x40, 0x01)\n      mul\n      not(sub(shl(0xe0, 0x01), 0x01))\n      swap1\n      swap3\n      and\n      swap3\n      swap1\n      swap4\n      and\n      swap2\n      swap1\n      swap2\n      or\n      or\n      swap1\n      sstore\n      0xa0\n      dup3\n      add\n      mload\n      0x04\n      dup3\n      add\n      sstore\n      0xc0\n      swap1\n      swap2\n      add\n      mload\n      0x05\n      swap1\n      swap2\n      add\n      dup1\n      sload\n      swap2\n      iszero\n      iszero\n      not(0xff)\n      swap1\n      swap3\n      and\n      swap2\n      swap1\n      swap2\n      or\n      swap1\n      sstore\n        /* \"backend/contracts/CarbonCreditMarketplace.sol\":4387:4397  msg.sender */\n      caller\n        /* \"backend/contracts/CarbonCreditMarketplace.sol\":4064:4066  id */\n      dup2\n        /* \"backend/contracts/CarbonCreditMarketplace.sol\":4368:4469  AuctionCreated(id, msg.sender, amount, minPriceWei, uint64(block.timestamp + defaultAuctionDuration)) */\n      0x7c83fa578702f727c7f27daad1ed3ef74a9da44fa49f915f5ac2fc924c0b39cf\n        /* \"backend/contracts/CarbonCreditMarketplace.sol\":4399:4405  amount */\n      dup6\n        /* \"backend/contracts/CarbonCreditMarketplace.sol\":4407:4418  minPriceWei */\n      dup6\n        /* \"backend/contracts/CarbonCreditMarketplace.sol\":4427:4467  block.timestamp + defaultAuctionDuration */\n      tag_108\n        /* \"backend/contracts/CarbonCreditMarketplace.sol\":4445:4467  defaultAuctionDuration */\n      immutable(\"0xcc1431a2586c1e11fb75c87e5ee58e4204126a9fdde07075c91770f50276cbb0\")\n        /* \"backend/contracts/CarbonCreditMarketplace.sol\":4427:4442  block.timestamp */\n      timestamp\n        /* \"backend/contracts/CarbonCreditMarketplace.sol\":4427:4467  block.timestamp + defaultAuctionDuration */\n      tag_107\n      jump\t// in\n    tag_108:\n        /* \"backend/contracts/CarbonCreditMarketplace.sol\":4368:4469  AuctionCreated(id, msg.sender, amount, minPriceWei, uint64(block.timestamp + defaultAuctionDuration)) */\n      0x40\n      dup1\n      mload\n        /* \"#utility.yul\":4442:4467   */\n      swap4\n      dup5\n      mstore\n        /* \"#utility.yul\":4498:4500   */\n      0x20\n        /* \"#utility.yul\":4483:4501   */\n      dup5\n      add\n        /* \"#utility.yul\":4476:4510   */\n      swap3\n      swap1\n      swap3\n      mstore\n        /* \"#utility.yul\":4558:4576   */\n      0xffffffffffffffff\n        /* \"#utility.yul\":4546:4577   */\n      and\n        /* \"#utility.yul\":4526:4544   */\n      swap1\n      dup3\n      add\n        /* \"#utility.yul\":4519:4578   */\n      mstore\n        /* \"#utility.yul\":4430:4432   */\n      0x60\n        /* \"#utility.yul\":4415:4433   */\n      add\n        /* \"backend/contracts/CarbonCreditMarketplace.sol\":4368:4469  AuctionCreated(id, msg.sender, amount, minPriceWei, uint64(block.timestamp + defaultAuctionDuration)) */\n    tag_109:\n      mload(0x40)\n      dup1\n      swap2\n      sub\n      swap1\n      log3\n        /* \"backend/contracts/CarbonCreditMarketplace.sol\":3797:4476  function createAuction(uint256 amount, uint256 minPriceWei) external returns (uint256 id) {... */\n      swap3\n      swap2\n      pop\n      pop\n      jump\t// out\n        /* \"backend/contracts/CarbonCreditMarketplace.sol\":7299:7473  function auctionCount() external view returns (uint256) {... */\n    tag_39:\n        /* \"backend/contracts/CarbonCreditMarketplace.sol\":7346:7353  uint256 */\n      0x00\n        /* \"backend/contracts/CarbonCreditMarketplace.sol\":7465:7466  1 */\n      0x01\n        /* \"backend/contracts/CarbonCreditMarketplace.sol\":7449:7462  nextAuctionId */\n      dup1\n      sload\n        /* \"backend/contracts/CarbonCreditMarketplace.sol\":7449:7466  nextAuctionId - 1 */\n      tag_115\n      swap2\n      swap1\n      tag_116\n      jump\t// in\n    tag_115:\n        /* \"backend/contracts/CarbonCreditMarketplace.sol\":7442:7466  return nextAuctionId - 1 */\n      swap1\n      pop\n        /* \"backend/contracts/CarbonCreditMarketplace.sol\":7299:7473  function auctionCount() external view returns (uint256) {... */\n      swap1\n      jump\t// out\n        /* \"backend/contracts/CarbonCreditMarketplace.sol\":2744:3041  function cancelListing(uint256 id) external {... */\n    tag_44:\n        /* \"backend/contracts/CarbonCreditMarketplace.sol\":2798:2815  Listing storage l */\n      0x00\n        /* \"backend/contracts/CarbonCreditMarketplace.sol\":2818:2830  listings[id] */\n      dup2\n      dup2\n      mstore\n        /* \"backend/contracts/CarbonCreditMarketplace.sol\":2818:2826  listings */\n      0x02\n        /* \"backend/contracts/CarbonCreditMarketplace.sol\":2818:2830  listings[id] */\n      0x20\n      mstore\n      0x40\n      swap1\n      keccak256\n        /* \"backend/contracts/CarbonCreditMarketplace.sol\":2845:2853  l.active */\n      0x03\n      dup2\n      add\n      sload\n      0xff\n      and\n        /* \"backend/contracts/CarbonCreditMarketplace.sol\":2840:2873  if (!l.active) revert NotActive() */\n      tag_118\n      jumpi\n        /* \"backend/contracts/CarbonCreditMarketplace.sol\":2862:2873  NotActive() */\n      mload(0x40)\n      shl(0xe1, 0x4065aaf1)\n      dup2\n      mstore\n      0x04\n      add\n      mload(0x40)\n      dup1\n      swap2\n      sub\n      swap1\n      revert\n        /* \"backend/contracts/CarbonCreditMarketplace.sol\":2840:2873  if (!l.active) revert NotActive() */\n    tag_118:\n        /* \"backend/contracts/CarbonCreditMarketplace.sol\":2887:2895  l.seller */\n      dup1\n      sload\n      sub(shl(0xa0, 0x01), 0x01)\n      and\n        /* \"backend/contracts/CarbonCreditMarketplace.sol\":2899:2909  msg.sender */\n      caller\n        /* \"backend/contracts/CarbonCreditMarketplace.sol\":2887:2909  l.seller != msg.sender */\n      eq\n        /* \"backend/contracts/CarbonCreditMarketplace.sol\":2883:2929  if (l.seller != msg.sender) revert NotSeller() */\n      tag_119\n      jumpi\n        /* \"backend/contracts/CarbonCreditMarketplace.sol\":2918:2929  NotSeller() */\n      mload(0x40)\n      shl(0xe0, 0x5ec82351)\n      dup2\n      mstore\n      0x04\n      add\n      mload(0x40)\n      dup1\n      swap2\n      sub\n      swap1\n      revert\n        /* \"backend/contracts/CarbonCreditMarketplace.sol\":2883:2929  if (l.seller != msg.sender) revert NotSeller() */\n    tag_119:\n        /* \"backend/contracts/CarbonCreditMarketplace.sol\":2940:2948  l.active */\n      0x03\n      dup2\n      add\n        /* \"backend/contracts/CarbonCreditMarketplace.sol\":2940:2956  l.active = false */\n      dup1\n      sload\n      not(0xff)\n      and\n      swap1\n      sstore\n      0x01\n        /* \"backend/contracts/CarbonCreditMarketplace.sol\":2990:2998  l.amount */\n      dup2\n      add\n      sload\n        /* \"backend/contracts/CarbonCreditMarketplace.sol\":2966:2999  _pushTokens(msg.sender, l.amount) */\n      tag_120\n      swap1\n        /* \"backend/contracts/CarbonCreditMarketplace.sol\":2978:2988  msg.sender */\n      caller\n      swap1\n        /* \"backend/contracts/CarbonCreditMarketplace.sol\":2966:2977  _pushTokens */\n      tag_121\n        /* \"backend/contracts/CarbonCreditMarketplace.sol\":2966:2999  _pushTokens(msg.sender, l.amount) */\n      jump\t// in\n    tag_120:\n        /* \"backend/contracts/CarbonCreditMarketplace.sol\":3014:3034  ListingCancelled(id) */\n      mload(0x40)\n        /* \"backend/contracts/CarbonCreditMarketplace.sol\":3031:3033  id */\n      dup3\n      swap1\n        /* \"backend/contracts/CarbonCreditMarketplace.sol\":3014:3034  ListingCancelled(id) */\n      0x411aee90354c51b1b04cd563fcab2617142a9d50da19232d888547c8a1b7fd8a\n      swap1\n      0x00\n      swap1\n      log2\n        /* \"backend/contracts/CarbonCreditMarketplace.sol\":2788:3041  {... */\n      pop\n        /* \"backend/contracts/CarbonCreditMarketplace.sol\":2744:3041  function cancelListing(uint256 id) external {... */\n      pop\n      jump\t// out\n        /* \"backend/contracts/CarbonCreditMarketplace.sol\":4482:5112  function bid(uint256 id) external payable {... */\n    tag_47:\n        /* \"backend/contracts/CarbonCreditMarketplace.sol\":4534:4551  Auction storage a */\n      0x00\n        /* \"backend/contracts/CarbonCreditMarketplace.sol\":4554:4566  auctions[id] */\n      dup2\n      dup2\n      mstore\n        /* \"backend/contracts/CarbonCreditMarketplace.sol\":4554:4562  auctions */\n      0x03\n        /* \"backend/contracts/CarbonCreditMarketplace.sol\":4554:4566  auctions[id] */\n      0x20\n      mstore\n      0x40\n      swap1\n      keccak256\n        /* \"backend/contracts/CarbonCreditMarketplace.sol\":4580:4589  a.settled */\n      0x05\n      dup2\n      add\n      sload\n      0xff\n      and\n        /* \"backend/contracts/CarbonCreditMarketplace.sol\":4576:4614  if (a.settled) revert AlreadySettled() */\n      iszero\n      tag_123\n      jumpi\n        /* \"backend/contracts/CarbonCreditMarketplace.sol\":4598:4614  AlreadySettled() */\n      mload(0x40)\n      shl(0xe8, 0x560ff9)\n      dup2\n      mstore\n      0x04\n      add\n      mload(0x40)\n      dup1\n      swap2\n      sub\n      swap1\n      revert\n        /* \"backend/contracts/CarbonCreditMarketplace.sol\":4576:4614  if (a.settled) revert AlreadySettled() */\n    tag_123:\n        /* \"backend/contracts/CarbonCreditMarketplace.sol\":4647:4656  a.endTime */\n      0x03\n      dup2\n      add\n      sload\n      0xffffffffffffffff\n      and\n        /* \"backend/contracts/CarbonCreditMarketplace.sol\":4628:4643  block.timestamp */\n      timestamp\n        /* \"backend/contracts/CarbonCreditMarketplace.sol\":4628:4656  block.timestamp >= a.endTime */\n      lt\n        /* \"backend/contracts/CarbonCreditMarketplace.sol\":4624:4679  if (block.timestamp >= a.endTime) revert AuctionEnded() */\n      tag_124\n      jumpi\n        /* \"backend/contracts/CarbonCreditMarketplace.sol\":4665:4679  AuctionEnded() */\n      mload(0x40)\n      shl(0xe2, 0x283a4a61)\n      dup2\n      mstore\n      0x04\n      add\n      mload(0x40)\n      dup1\n      swap2\n      sub\n      swap1\n      revert\n        /* \"backend/contracts/CarbonCreditMarketplace.sol\":4624:4679  if (block.timestamp >= a.endTime) revert AuctionEnded() */\n    tag_124:\n        /* \"backend/contracts/CarbonCreditMarketplace.sol\":4689:4703  uint256 minBid */\n      0x00\n        /* \"backend/contracts/CarbonCreditMarketplace.sol\":4706:4707  a */\n      dup2\n        /* \"backend/contracts/CarbonCreditMarketplace.sol\":4706:4718  a.highestBid */\n      0x04\n      add\n      sload\n        /* \"backend/contracts/CarbonCreditMarketplace.sol\":4722:4723  0 */\n      0x00\n        /* \"backend/contracts/CarbonCreditMarketplace.sol\":4706:4723  a.highestBid == 0 */\n      eq\n        /* \"backend/contracts/CarbonCreditMarketplace.sol\":4706:4758  a.highestBid == 0 ? a.minPriceWei : a.highestBid + 1 */\n      tag_125\n      jumpi\n        /* \"backend/contracts/CarbonCreditMarketplace.sol\":4742:4754  a.highestBid */\n      0x04\n      dup3\n      add\n      sload\n        /* \"backend/contracts/CarbonCreditMarketplace.sol\":4742:4758  a.highestBid + 1 */\n      tag_126\n      swap1\n        /* \"backend/contracts/CarbonCreditMarketplace.sol\":4757:4758  1 */\n      0x01\n        /* \"backend/contracts/CarbonCreditMarketplace.sol\":4742:4758  a.highestBid + 1 */\n      tag_107\n      jump\t// in\n    tag_126:\n        /* \"backend/contracts/CarbonCreditMarketplace.sol\":4706:4758  a.highestBid == 0 ? a.minPriceWei : a.highestBid + 1 */\n      jump(tag_127)\n    tag_125:\n        /* \"backend/contracts/CarbonCreditMarketplace.sol\":4726:4727  a */\n      dup2\n        /* \"backend/contracts/CarbonCreditMarketplace.sol\":4726:4739  a.minPriceWei */\n      0x02\n      add\n      sload\n        /* \"backend/contracts/CarbonCreditMarketplace.sol\":4706:4758  a.highestBid == 0 ? a.minPriceWei : a.highestBid + 1 */\n    tag_127:\n        /* \"backend/contracts/CarbonCreditMarketplace.sol\":4689:4758  uint256 minBid = a.highestBid == 0 ? a.minPriceWei : a.highestBid + 1 */\n      swap1\n      pop\n        /* \"backend/contracts/CarbonCreditMarketplace.sol\":4811:4817  minBid */\n      dup1\n        /* \"backend/contracts/CarbonCreditMarketplace.sol\":4799:4808  msg.value */\n      callvalue\n        /* \"backend/contracts/CarbonCreditMarketplace.sol\":4799:4817  msg.value < minBid */\n      lt\n        /* \"backend/contracts/CarbonCreditMarketplace.sol\":4795:4837  if (msg.value < minBid) revert BidTooLow() */\n      iszero\n      tag_128\n      jumpi\n        /* \"backend/contracts/CarbonCreditMarketplace.sol\":4826:4837  BidTooLow() */\n      mload(0x40)\n      shl(0xe1, 0x5069375b)\n      dup2\n      mstore\n      0x04\n      add\n      mload(0x40)\n      dup1\n      swap2\n      sub\n      swap1\n      revert\n        /* \"backend/contracts/CarbonCreditMarketplace.sol\":4795:4837  if (msg.value < minBid) revert BidTooLow() */\n    tag_128:\n        /* \"backend/contracts/CarbonCreditMarketplace.sol\":4886:4901  a.highestBidder */\n      0x03\n      dup3\n      add\n      sload\n      shl(0x40, 0x01)\n      swap1\n      div\n      sub(shl(0xa0, 0x01), 0x01)\n      and\n        /* \"backend/contracts/CarbonCreditMarketplace.sol\":4886:4915  a.highestBidder != address(0) */\n      iszero\n        /* \"backend/contracts/CarbonCreditMarketplace.sol\":4882:4980  if (a.highestBidder != address(0)) {... */\n      tag_130\n      jumpi\n        /* \"backend/contracts/CarbonCreditMarketplace.sol\":4939:4954  a.highestBidder */\n      0x03\n      dup3\n      add\n      sload\n        /* \"backend/contracts/CarbonCreditMarketplace.sol\":4956:4968  a.highestBid */\n      0x04\n      dup4\n      add\n      sload\n        /* \"backend/contracts/CarbonCreditMarketplace.sol\":4931:4969  _payout(a.highestBidder, a.highestBid) */\n      tag_130\n      swap2\n      shl(0x40, 0x01)\n        /* \"backend/contracts/CarbonCreditMarketplace.sol\":4939:4954  a.highestBidder */\n      swap1\n      div\n      sub(shl(0xa0, 0x01), 0x01)\n      and\n      swap1\n        /* \"backend/contracts/CarbonCreditMarketplace.sol\":4931:4938  _payout */\n      tag_131\n        /* \"backend/contracts/CarbonCreditMarketplace.sol\":4931:4969  _payout(a.highestBidder, a.highestBid) */\n      jump\t// in\n    tag_130:\n        /* \"backend/contracts/CarbonCreditMarketplace.sol\":4990:5005  a.highestBidder */\n      0x03\n      dup3\n      add\n        /* \"backend/contracts/CarbonCreditMarketplace.sol\":4990:5018  a.highestBidder = msg.sender */\n      dup1\n      sload\n      not(sub(shl(0xe0, 0x01), 0x010000000000000000))\n      and\n        /* \"backend/contracts/CarbonCreditMarketplace.sol\":5008:5018  msg.sender */\n      caller\n      shl(0x40, 0x01)\n        /* \"backend/contracts/CarbonCreditMarketplace.sol\":4990:5018  a.highestBidder = msg.sender */\n      dup2\n      mul\n      swap2\n      swap1\n      swap2\n      or\n      swap1\n      swap2\n      sstore\n        /* \"backend/contracts/CarbonCreditMarketplace.sol\":5043:5052  msg.value */\n      callvalue\n        /* \"backend/contracts/CarbonCreditMarketplace.sol\":5028:5040  a.highestBid */\n      0x04\n      dup5\n      add\n        /* \"backend/contracts/CarbonCreditMarketplace.sol\":5028:5052  a.highestBid = msg.value */\n      dup2\n      swap1\n      sstore\n        /* \"backend/contracts/CarbonCreditMarketplace.sol\":5068:5105  AuctionBid(id, msg.sender, msg.value) */\n      mload(0x40)\n        /* \"#utility.yul\":413:438   */\n      swap1\n      dup2\n      mstore\n        /* \"backend/contracts/CarbonCreditMarketplace.sol\":5079:5081  id */\n      dup5\n      swap1\n        /* \"backend/contracts/CarbonCreditMarketplace.sol\":5068:5105  AuctionBid(id, msg.sender, msg.value) */\n      0xb8d756f2d1da4663767eb4d559780ace84f2f65a421a60ddcb47e8b2e5d2fd26\n      swap1\n        /* \"#utility.yul\":401:403   */\n      0x20\n        /* \"#utility.yul\":386:404   */\n      add\n        /* \"backend/contracts/CarbonCreditMarketplace.sol\":5068:5105  AuctionBid(id, msg.sender, msg.value) */\n      mload(0x40)\n      dup1\n      swap2\n      sub\n      swap1\n      log3\n        /* \"backend/contracts/CarbonCreditMarketplace.sol\":4524:5112  {... */\n      pop\n      pop\n        /* \"backend/contracts/CarbonCreditMarketplace.sol\":4482:5112  function bid(uint256 id) external payable {... */\n      pop\n      jump\t// out\n        /* \"backend/contracts/CarbonCreditMarketplace.sol\":3047:3767  function buyListing(uint256 id, uint256 amount) external payable {... */\n    tag_65:\n        /* \"backend/contracts/CarbonCreditMarketplace.sol\":3122:3139  Listing storage l */\n      0x00\n        /* \"backend/contracts/CarbonCreditMarketplace.sol\":3142:3154  listings[id] */\n      dup3\n      dup2\n      mstore\n        /* \"backend/contracts/CarbonCreditMarketplace.sol\":3142:3150  listings */\n      0x02\n        /* \"backend/contracts/CarbonCreditMarketplace.sol\":3142:3154  listings[id] */\n      0x20\n      mstore\n      0x40\n      swap1\n      keccak256\n        /* \"backend/contracts/CarbonCreditMarketplace.sol\":3169:3177  l.active */\n      0x03\n      dup2\n      add\n      sload\n      0xff\n      and\n        /* \"backend/contracts/CarbonCreditMarketplace.sol\":3164:3197  if (!l.active) revert NotActive() */\n      tag_134\n      jumpi\n        /* \"backend/contracts/CarbonCreditMarketplace.sol\":3186:3197  NotActive() */\n      mload(0x40)\n      shl(0xe1, 0x4065aaf1)\n      dup2\n      mstore\n      0x04\n      add\n      mload(0x40)\n      dup1\n      swap2\n      sub\n      swap1\n      revert\n        /* \"backend/contracts/CarbonCreditMarketplace.sol\":3164:3197  if (!l.active) revert NotActive() */\n    tag_134:\n        /* \"backend/contracts/CarbonCreditMarketplace.sol\":3211:3222  amount == 0 */\n      dup2\n      iszero\n      dup1\n        /* \"backend/contracts/CarbonCreditMarketplace.sol\":3211:3243  amount == 0 || amount > l.amount */\n      tag_135\n      jumpi\n      pop\n        /* \"backend/contracts/CarbonCreditMarketplace.sol\":3235:3236  l */\n      dup1\n        /* \"backend/contracts/CarbonCreditMarketplace.sol\":3235:3243  l.amount */\n      0x01\n      add\n      sload\n        /* \"backend/contracts/CarbonCreditMarketplace.sol\":3226:3232  amount */\n      dup3\n        /* \"backend/contracts/CarbonCreditMarketplace.sol\":3226:3243  amount > l.amount */\n      gt\n        /* \"backend/contracts/CarbonCreditMarketplace.sol\":3211:3243  amount == 0 || amount > l.amount */\n    tag_135:\n        /* \"backend/contracts/CarbonCreditMarketplace.sol\":3207:3267  if (amount == 0 || amount > l.amount) revert InvalidAmount() */\n      iszero\n      tag_136\n      jumpi\n        /* \"backend/contracts/CarbonCreditMarketplace.sol\":3252:3267  InvalidAmount() */\n      mload(0x40)\n      shl(0xe1, 0x162908e3)\n      dup2\n      mstore\n      0x04\n      add\n      mload(0x40)\n      dup1\n      swap2\n      sub\n      swap1\n      revert\n        /* \"backend/contracts/CarbonCreditMarketplace.sol\":3207:3267  if (amount == 0 || amount > l.amount) revert InvalidAmount() */\n    tag_136:\n        /* \"backend/contracts/CarbonCreditMarketplace.sol\":3278:3295  uint256 totalCost */\n      0x00\n        /* \"backend/contracts/CarbonCreditMarketplace.sol\":3319:3325  amount */\n      dup3\n        /* \"backend/contracts/CarbonCreditMarketplace.sol\":3298:3299  l */\n      dup3\n        /* \"backend/contracts/CarbonCreditMarketplace.sol\":3298:3316  l.pricePerTokenWei */\n      0x02\n      add\n      sload\n        /* \"backend/contracts/CarbonCreditMarketplace.sol\":3298:3325  l.pricePerTokenWei * amount */\n      tag_137\n      swap2\n      swap1\n      tag_138\n      jump\t// in\n    tag_137:\n        /* \"backend/contracts/CarbonCreditMarketplace.sol\":3278:3325  uint256 totalCost = l.pricePerTokenWei * amount */\n      swap1\n      pop\n        /* \"backend/contracts/CarbonCreditMarketplace.sol\":3356:3365  totalCost */\n      dup1\n        /* \"backend/contracts/CarbonCreditMarketplace.sol\":3343:3352  msg.value */\n      callvalue\n        /* \"backend/contracts/CarbonCreditMarketplace.sol\":3343:3365  msg.value >= totalCost */\n      lt\n      iszero\n        /* \"backend/contracts/CarbonCreditMarketplace.sol\":3335:3386  require(msg.value >= totalCost, \"insufficient ETH\") */\n      tag_139\n      jumpi\n      mload(0x40)\n      shl(0xe5, 0x461bcd)\n      dup2\n      mstore\n        /* \"#utility.yul\":5097:5099   */\n      0x20\n        /* \"backend/contracts/CarbonCreditMarketplace.sol\":3335:3386  require(msg.value >= totalCost, \"insufficient ETH\") */\n      0x04\n      dup3\n      add\n        /* \"#utility.yul\":5079:5100   */\n      mstore\n        /* \"#utility.yul\":5136:5138   */\n      0x10\n        /* \"#utility.yul\":5116:5134   */\n      0x24\n      dup3\n      add\n        /* \"#utility.yul\":5109:5139   */\n      mstore\n      shl(0x83, 0x0d2dce6eaccccd2c6d2cadce8408aa89)\n        /* \"#utility.yul\":5155:5173   */\n      0x44\n      dup3\n      add\n        /* \"#utility.yul\":5148:5194   */\n      mstore\n        /* \"#utility.yul\":5211:5229   */\n      0x64\n      add\n        /* \"backend/contracts/CarbonCreditMarketplace.sol\":3335:3386  require(msg.value >= totalCost, \"insufficient ETH\") */\n      tag_97\n        /* \"#utility.yul\":4895:5235   */\n      jump\n        /* \"backend/contracts/CarbonCreditMarketplace.sol\":3335:3386  require(msg.value >= totalCost, \"insufficient ETH\") */\n    tag_139:\n        /* \"backend/contracts/CarbonCreditMarketplace.sol\":3409:3415  amount */\n      dup3\n        /* \"backend/contracts/CarbonCreditMarketplace.sol\":3397:3398  l */\n      dup3\n        /* \"backend/contracts/CarbonCreditMarketplace.sol\":3397:3405  l.amount */\n      0x01\n      add\n      0x00\n        /* \"backend/contracts/CarbonCreditMarketplace.sol\":3397:3415  l.amount -= amount */\n      dup3\n      dup3\n      sload\n      tag_142\n      swap2\n      swap1\n      tag_116\n      jump\t// in\n    tag_142:\n      swap1\n      swap2\n      sstore\n      pop\n      pop\n        /* \"backend/contracts/CarbonCreditMarketplace.sol\":3429:3437  l.amount */\n      0x01\n      dup3\n      add\n      sload\n        /* \"backend/contracts/CarbonCreditMarketplace.sol\":3441:3442  0 */\n      0x00\n        /* \"backend/contracts/CarbonCreditMarketplace.sol\":3429:3442  l.amount == 0 */\n      sub\n        /* \"backend/contracts/CarbonCreditMarketplace.sol\":3425:3485  if (l.amount == 0) {... */\n      tag_143\n      jumpi\n        /* \"backend/contracts/CarbonCreditMarketplace.sol\":3458:3466  l.active */\n      0x03\n      dup3\n      add\n        /* \"backend/contracts/CarbonCreditMarketplace.sol\":3458:3474  l.active = false */\n      dup1\n      sload\n      not(0xff)\n      and\n      swap1\n      sstore\n        /* \"backend/contracts/CarbonCreditMarketplace.sol\":3425:3485  if (l.amount == 0) {... */\n    tag_143:\n        /* \"backend/contracts/CarbonCreditMarketplace.sol\":3495:3526  _pushTokens(msg.sender, amount) */\n      tag_144\n        /* \"backend/contracts/CarbonCreditMarketplace.sol\":3507:3517  msg.sender */\n      caller\n        /* \"backend/contracts/CarbonCreditMarketplace.sol\":3519:3525  amount */\n      dup5\n        /* \"backend/contracts/CarbonCreditMarketplace.sol\":3495:3506  _pushTokens */\n      tag_121\n        /* \"backend/contracts/CarbonCreditMarketplace.sol\":3495:3526  _pushTokens(msg.sender, amount) */\n      jump\t// in\n    tag_144:\n        /* \"backend/contracts/CarbonCreditMarketplace.sol\":3544:3552  l.seller */\n      dup2\n      sload\n        /* \"backend/contracts/CarbonCreditMarketplace.sol\":3536:3564  _payout(l.seller, totalCost) */\n      tag_145\n      swap1\n      sub(shl(0xa0, 0x01), 0x01)\n        /* \"backend/contracts/CarbonCreditMarketplace.sol\":3544:3552  l.seller */\n      and\n        /* \"backend/contracts/CarbonCreditMarketplace.sol\":3554:3563  totalCost */\n      dup3\n        /* \"backend/contracts/CarbonCreditMarketplace.sol\":3536:3543  _payout */\n      tag_131\n        /* \"backend/contracts/CarbonCreditMarketplace.sol\":3536:3564  _payout(l.seller, totalCost) */\n      jump\t// in\n    tag_145:\n        /* \"backend/contracts/CarbonCreditMarketplace.sol\":3616:3625  totalCost */\n      dup1\n        /* \"backend/contracts/CarbonCreditMarketplace.sol\":3604:3613  msg.value */\n      callvalue\n        /* \"backend/contracts/CarbonCreditMarketplace.sol\":3604:3625  msg.value > totalCost */\n      gt\n        /* \"backend/contracts/CarbonCreditMarketplace.sol\":3600:3694  if (msg.value > totalCost) {... */\n      iszero\n      tag_147\n      jumpi\n        /* \"backend/contracts/CarbonCreditMarketplace.sol\":3641:3683  _payout(msg.sender, msg.value - totalCost) */\n      tag_147\n        /* \"backend/contracts/CarbonCreditMarketplace.sol\":3649:3659  msg.sender */\n      caller\n        /* \"backend/contracts/CarbonCreditMarketplace.sol\":3661:3682  msg.value - totalCost */\n      tag_148\n        /* \"backend/contracts/CarbonCreditMarketplace.sol\":3673:3682  totalCost */\n      dup4\n        /* \"backend/contracts/CarbonCreditMarketplace.sol\":3661:3670  msg.value */\n      callvalue\n        /* \"backend/contracts/CarbonCreditMarketplace.sol\":3661:3682  msg.value - totalCost */\n      tag_116\n      jump\t// in\n    tag_148:\n        /* \"backend/contracts/CarbonCreditMarketplace.sol\":3641:3648  _payout */\n      tag_131\n        /* \"backend/contracts/CarbonCreditMarketplace.sol\":3641:3683  _payout(msg.sender, msg.value - totalCost) */\n      jump\t// in\n    tag_147:\n        /* \"backend/contracts/CarbonCreditMarketplace.sol\":3709:3760  ListingPurchased(id, msg.sender, amount, totalCost) */\n      0x40\n      dup1\n      mload\n        /* \"#utility.yul\":5414:5439   */\n      dup5\n      dup2\n      mstore\n        /* \"#utility.yul\":5470:5472   */\n      0x20\n        /* \"#utility.yul\":5455:5473   */\n      dup2\n      add\n        /* \"#utility.yul\":5448:5482   */\n      dup4\n      swap1\n      mstore\n        /* \"backend/contracts/CarbonCreditMarketplace.sol\":3730:3740  msg.sender */\n      caller\n      swap2\n        /* \"backend/contracts/CarbonCreditMarketplace.sol\":3726:3728  id */\n      dup7\n      swap2\n        /* \"backend/contracts/CarbonCreditMarketplace.sol\":3709:3760  ListingPurchased(id, msg.sender, amount, totalCost) */\n      0x0db6cd6881fc0453b2d01f52eb5a16417707659f245732abc10f847426e3525d\n      swap2\n        /* \"#utility.yul\":5387:5405   */\n      add\n        /* \"backend/contracts/CarbonCreditMarketplace.sol\":3709:3760  ListingPurchased(id, msg.sender, amount, totalCost) */\n      mload(0x40)\n      dup1\n      swap2\n      sub\n      swap1\n      log3\n        /* \"backend/contracts/CarbonCreditMarketplace.sol\":3112:3767  {... */\n      pop\n      pop\n        /* \"backend/contracts/CarbonCreditMarketplace.sol\":3047:3767  function buyListing(uint256 id, uint256 amount) external payable {... */\n      pop\n      pop\n      jump\t// out\n        /* \"backend/contracts/CarbonCreditMarketplace.sol\":5765:6226  function cancelAuction(uint256 id) external {... */\n    tag_75:\n        /* \"backend/contracts/CarbonCreditMarketplace.sol\":5819:5836  Auction storage a */\n      0x00\n        /* \"backend/contracts/CarbonCreditMarketplace.sol\":5839:5851  auctions[id] */\n      dup2\n      dup2\n      mstore\n        /* \"backend/contracts/CarbonCreditMarketplace.sol\":5839:5847  auctions */\n      0x03\n        /* \"backend/contracts/CarbonCreditMarketplace.sol\":5839:5851  auctions[id] */\n      0x20\n      mstore\n      0x40\n      swap1\n      keccak256\n        /* \"backend/contracts/CarbonCreditMarketplace.sol\":5865:5874  a.settled */\n      0x05\n      dup2\n      add\n      sload\n      0xff\n      and\n        /* \"backend/contracts/CarbonCreditMarketplace.sol\":5861:5899  if (a.settled) revert AlreadySettled() */\n      iszero\n      tag_155\n      jumpi\n        /* \"backend/contracts/CarbonCreditMarketplace.sol\":5883:5899  AlreadySettled() */\n      mload(0x40)\n      shl(0xe8, 0x560ff9)\n      dup2\n      mstore\n      0x04\n      add\n      mload(0x40)\n      dup1\n      swap2\n      sub\n      swap1\n      revert\n        /* \"backend/contracts/CarbonCreditMarketplace.sol\":5861:5899  if (a.settled) revert AlreadySettled() */\n    tag_155:\n        /* \"backend/contracts/CarbonCreditMarketplace.sol\":5913:5921  a.seller */\n      dup1\n      sload\n      sub(shl(0xa0, 0x01), 0x01)\n      and\n        /* \"backend/contracts/CarbonCreditMarketplace.sol\":5925:5935  msg.sender */\n      caller\n        /* \"backend/contracts/CarbonCreditMarketplace.sol\":5913:5935  a.seller != msg.sender */\n      eq\n        /* \"backend/contracts/CarbonCreditMarketplace.sol\":5909:5955  if (a.seller != msg.sender) revert NotSeller() */\n      tag_156\n      jumpi\n        /* \"backend/contracts/CarbonCreditMarketplace.sol\":5944:5955  NotSeller() */\n      mload(0x40)\n      shl(0xe0, 0x5ec82351)\n      dup2\n      mstore\n      0x04\n      add\n      mload(0x40)\n      dup1\n      swap2\n      sub\n      swap1\n      revert\n        /* \"backend/contracts/CarbonCreditMarketplace.sol\":5909:5955  if (a.seller != msg.sender) revert NotSeller() */\n    tag_156:\n        /* \"backend/contracts/CarbonCreditMarketplace.sol\":5988:5997  a.endTime */\n      0x03\n      dup2\n      add\n      sload\n      0xffffffffffffffff\n      and\n        /* \"backend/contracts/CarbonCreditMarketplace.sol\":5969:5984  block.timestamp */\n      timestamp\n        /* \"backend/contracts/CarbonCreditMarketplace.sol\":5969:5997  block.timestamp >= a.endTime */\n      lt\n        /* \"backend/contracts/CarbonCreditMarketplace.sol\":5965:6020  if (block.timestamp >= a.endTime) revert AuctionEnded() */\n      tag_157\n      jumpi\n        /* \"backend/contracts/CarbonCreditMarketplace.sol\":6006:6020  AuctionEnded() */\n      mload(0x40)\n      shl(0xe2, 0x283a4a61)\n      dup2\n      mstore\n      0x04\n      add\n      mload(0x40)\n      dup1\n      swap2\n      sub\n      swap1\n      revert\n        /* \"backend/contracts/CarbonCreditMarketplace.sol\":5965:6020  if (block.timestamp >= a.endTime) revert AuctionEnded() */\n    tag_157:\n        /* \"backend/contracts/CarbonCreditMarketplace.sol\":6034:6049  a.highestBidder */\n      0x03\n      dup2\n      add\n      sload\n      shl(0x40, 0x01)\n      swap1\n      div\n      sub(shl(0xa0, 0x01), 0x01)\n      and\n        /* \"backend/contracts/CarbonCreditMarketplace.sol\":6034:6063  a.highestBidder != address(0) */\n      iszero\n        /* \"backend/contracts/CarbonCreditMarketplace.sol\":6030:6083  if (a.highestBidder != address(0)) revert NotSeller() */\n      tag_158\n      jumpi\n        /* \"backend/contracts/CarbonCreditMarketplace.sol\":6072:6083  NotSeller() */\n      mload(0x40)\n      shl(0xe0, 0x5ec82351)\n      dup2\n      mstore\n      0x04\n      add\n      mload(0x40)\n      dup1\n      swap2\n      sub\n      swap1\n      revert\n        /* \"backend/contracts/CarbonCreditMarketplace.sol\":6030:6083  if (a.highestBidder != address(0)) revert NotSeller() */\n    tag_158:\n        /* \"backend/contracts/CarbonCreditMarketplace.sol\":6127:6136  a.settled */\n      0x05\n      dup2\n      add\n        /* \"backend/contracts/CarbonCreditMarketplace.sol\":6127:6143  a.settled = true */\n      dup1\n      sload\n      not(0xff)\n      and\n        /* \"backend/contracts/CarbonCreditMarketplace.sol\":6139:6143  true */\n      0x01\n        /* \"backend/contracts/CarbonCreditMarketplace.sol\":6127:6143  a.settled = true */\n      swap1\n      dup2\n      or\n      swap1\n      swap2\n      sstore\n        /* \"backend/contracts/CarbonCreditMarketplace.sol\":6165:6173  a.seller */\n      dup2\n      sload\n        /* \"backend/contracts/CarbonCreditMarketplace.sol\":6175:6183  a.amount */\n      swap1\n      dup3\n      add\n      sload\n        /* \"backend/contracts/CarbonCreditMarketplace.sol\":6153:6184  _pushTokens(a.seller, a.amount) */\n      tag_159\n      swap2\n      sub(shl(0xa0, 0x01), 0x01)\n        /* \"backend/contracts/CarbonCreditMarketplace.sol\":6165:6173  a.seller */\n      and\n      swap1\n        /* \"backend/contracts/CarbonCreditMarketplace.sol\":6153:6164  _pushTokens */\n      tag_121\n        /* \"backend/contracts/CarbonCreditMarketplace.sol\":6153:6184  _pushTokens(a.seller, a.amount) */\n      jump\t// in\n    tag_159:\n        /* \"backend/contracts/CarbonCreditMarketplace.sol\":6199:6219  AuctionCancelled(id) */\n      mload(0x40)\n        /* \"backend/contracts/CarbonCreditMarketplace.sol\":6216:6218  id */\n      dup3\n      swap1\n        /* \"backend/contracts/CarbonCreditMarketplace.sol\":6199:6219  AuctionCancelled(id) */\n      0x2809c7e17bf978fbc7194c0a694b638c4215e9140cacc6c38ca36010b45697df\n      swap1\n      0x00\n      swap1\n      log2\n        /* \"backend/contracts/CarbonCreditMarketplace.sol\":5809:6226  {... */\n      pop\n        /* \"backend/contracts/CarbonCreditMarketplace.sol\":5765:6226  function cancelAuction(uint256 id) external {... */\n      pop\n      jump\t// out\n        /* \"backend/contracts/CarbonCreditMarketplace.sol\":2191:2738  function createListing(uint256 amount, uint256 pricePerTokenWei) external returns (uint256 id) {... */\n    tag_79:\n        /* \"backend/contracts/CarbonCreditMarketplace.sol\":2274:2284  uint256 id */\n      0x00\n        /* \"backend/contracts/CarbonCreditMarketplace.sol\":2313:2314  0 */\n      dup1\n        /* \"backend/contracts/CarbonCreditMarketplace.sol\":2304:2310  amount */\n      dup4\n        /* \"backend/contracts/CarbonCreditMarketplace.sol\":2304:2314  amount > 0 */\n      gt\n        /* \"backend/contracts/CarbonCreditMarketplace.sol\":2296:2325  require(amount > 0, \"amount\") */\n      tag_161\n      jumpi\n      mload(0x40)\n      shl(0xe5, 0x461bcd)\n      dup2\n      mstore\n        /* \"#utility.yul\":3372:3374   */\n      0x20\n        /* \"backend/contracts/CarbonCreditMarketplace.sol\":2296:2325  require(amount > 0, \"amount\") */\n      0x04\n      dup3\n      add\n        /* \"#utility.yul\":3354:3375   */\n      mstore\n        /* \"#utility.yul\":3411:3412   */\n      0x06\n        /* \"#utility.yul\":3391:3409   */\n      0x24\n      dup3\n      add\n        /* \"#utility.yul\":3384:3413   */\n      mstore\n      shl(0xd2, 0x185b5bdd5b9d)\n        /* \"#utility.yul\":3429:3447   */\n      0x44\n      dup3\n      add\n        /* \"#utility.yul\":3422:3458   */\n      mstore\n        /* \"#utility.yul\":3475:3493   */\n      0x64\n      add\n        /* \"backend/contracts/CarbonCreditMarketplace.sol\":2296:2325  require(amount > 0, \"amount\") */\n      tag_97\n        /* \"#utility.yul\":3170:3499   */\n      jump\n        /* \"backend/contracts/CarbonCreditMarketplace.sol\":2296:2325  require(amount > 0, \"amount\") */\n    tag_161:\n        /* \"backend/contracts/CarbonCreditMarketplace.sol\":2362:2363  0 */\n      0x00\n        /* \"backend/contracts/CarbonCreditMarketplace.sol\":2343:2359  pricePerTokenWei */\n      dup3\n        /* \"backend/contracts/CarbonCreditMarketplace.sol\":2343:2363  pricePerTokenWei > 0 */\n      gt\n        /* \"backend/contracts/CarbonCreditMarketplace.sol\":2335:2373  require(pricePerTokenWei > 0, \"price\") */\n      tag_163\n      jumpi\n      mload(0x40)\n      shl(0xe5, 0x461bcd)\n      dup2\n      mstore\n        /* \"#utility.yul\":5695:5697   */\n      0x20\n        /* \"backend/contracts/CarbonCreditMarketplace.sol\":2335:2373  require(pricePerTokenWei > 0, \"price\") */\n      0x04\n      dup3\n      add\n        /* \"#utility.yul\":5677:5698   */\n      mstore\n        /* \"#utility.yul\":5734:5735   */\n      0x05\n        /* \"#utility.yul\":5714:5732   */\n      0x24\n      dup3\n      add\n        /* \"#utility.yul\":5707:5736   */\n      mstore\n      shl(0xd8, 0x7072696365)\n        /* \"#utility.yul\":5752:5770   */\n      0x44\n      dup3\n      add\n        /* \"#utility.yul\":5745:5780   */\n      mstore\n        /* \"#utility.yul\":5797:5815   */\n      0x64\n      add\n        /* \"backend/contracts/CarbonCreditMarketplace.sol\":2335:2373  require(pricePerTokenWei > 0, \"price\") */\n      tag_97\n        /* \"#utility.yul\":5493:5821   */\n      jump\n        /* \"backend/contracts/CarbonCreditMarketplace.sol\":2335:2373  require(pricePerTokenWei > 0, \"price\") */\n    tag_163:\n        /* \"backend/contracts/CarbonCreditMarketplace.sol\":2419:2450  _pullTokens(msg.sender, amount) */\n      tag_166\n        /* \"backend/contracts/CarbonCreditMarketplace.sol\":2431:2441  msg.sender */\n      caller\n        /* \"backend/contracts/CarbonCreditMarketplace.sol\":2443:2449  amount */\n      dup5\n        /* \"backend/contracts/CarbonCreditMarketplace.sol\":2419:2430  _pullTokens */\n      tag_103\n        /* \"backend/contracts/CarbonCreditMarketplace.sol\":2419:2450  _pullTokens(msg.sender, amount) */\n      jump\t// in\n    tag_166:\n        /* \"backend/contracts/CarbonCreditMarketplace.sol\":2466:2479  nextListingId */\n      0x00\n        /* \"backend/contracts/CarbonCreditMarketplace.sol\":2466:2481  nextListingId++ */\n      dup1\n      sload\n      swap1\n        /* \"backend/contracts/CarbonCreditMarketplace.sol\":2466:2479  nextListingId */\n      dup1\n        /* \"backend/contracts/CarbonCreditMarketplace.sol\":2466:2481  nextListingId++ */\n      tag_167\n      dup4\n      tag_105\n      jump\t// in\n    tag_167:\n      swap1\n      swap2\n      sstore\n      pop\n        /* \"backend/contracts/CarbonCreditMarketplace.sol\":2506:2659  Listing({... */\n      0x40\n      dup1\n      mload\n      0x80\n      dup2\n      add\n      dup3\n      mstore\n        /* \"backend/contracts/CarbonCreditMarketplace.sol\":2536:2546  msg.sender */\n      caller\n        /* \"backend/contracts/CarbonCreditMarketplace.sol\":2506:2659  Listing({... */\n      dup1\n      dup3\n      mstore\n      0x20\n      dup1\n      dup4\n      add\n      dup9\n      dup2\n      mstore\n      dup4\n      dup6\n      add\n      dup9\n      dup2\n      mstore\n        /* \"backend/contracts/CarbonCreditMarketplace.sol\":2644:2648  true */\n      0x01\n        /* \"backend/contracts/CarbonCreditMarketplace.sol\":2506:2659  Listing({... */\n      0x60\n      dup7\n      add\n      dup2\n      dup2\n      mstore\n      0x00\n        /* \"backend/contracts/CarbonCreditMarketplace.sol\":2491:2503  listings[id] */\n      dup10\n      dup2\n      mstore\n        /* \"backend/contracts/CarbonCreditMarketplace.sol\":2491:2499  listings */\n      0x02\n        /* \"backend/contracts/CarbonCreditMarketplace.sol\":2491:2503  listings[id] */\n      dup1\n      dup8\n      mstore\n      swap1\n      dup10\n      swap1\n      keccak256\n        /* \"backend/contracts/CarbonCreditMarketplace.sol\":2491:2659  listings[id] = Listing({... */\n      swap8\n      mload\n      dup9\n      sload\n      not(sub(shl(0xa0, 0x01), 0x01))\n      and\n      sub(shl(0xa0, 0x01), 0x01)\n      swap1\n      swap2\n      and\n      or\n      dup9\n      sstore\n      swap4\n      mload\n      swap2\n      dup8\n      add\n      swap2\n      swap1\n      swap2\n      sstore\n      swap1\n      mload\n      swap2\n      dup6\n      add\n      swap2\n      swap1\n      swap2\n      sstore\n      mload\n      0x03\n      swap1\n      swap4\n      add\n      dup1\n      sload\n      not(0xff)\n      and\n      swap4\n      iszero\n      iszero\n      swap4\n      swap1\n      swap4\n      or\n      swap1\n      swap3\n      sstore\n        /* \"backend/contracts/CarbonCreditMarketplace.sol\":2675:2731  ListingCreated(id, msg.sender, amount, pricePerTokenWei) */\n      dup3\n      mload\n        /* \"#utility.yul\":5414:5439   */\n      dup8\n      dup2\n      mstore\n        /* \"#utility.yul\":5455:5473   */\n      swap2\n      dup3\n      add\n        /* \"#utility.yul\":5448:5482   */\n      dup7\n      swap1\n      mstore\n        /* \"backend/contracts/CarbonCreditMarketplace.sol\":2491:2503  listings[id] */\n      swap3\n      swap4\n      pop\n      dup4\n      swap2\n        /* \"backend/contracts/CarbonCreditMarketplace.sol\":2675:2731  ListingCreated(id, msg.sender, amount, pricePerTokenWei) */\n      0x12dc294b81a709d694b1337a350a12a00076c19a77a25aab67a5f0c07e0f164d\n      swap2\n        /* \"#utility.yul\":5387:5405   */\n      add\n        /* \"backend/contracts/CarbonCreditMarketplace.sol\":2675:2731  ListingCreated(id, msg.sender, amount, pricePerTokenWei) */\n      tag_109\n        /* \"#utility.yul\":5240:5488   */\n      jump\n        /* \"backend/contracts/CarbonCreditMarketplace.sol\":7119:7293  function listingCount() external view returns (uint256) {... */\n    tag_83:\n        /* \"backend/contracts/CarbonCreditMarketplace.sol\":7166:7173  uint256 */\n      0x00\n        /* \"backend/contracts/CarbonCreditMarketplace.sol\":7285:7286  1 */\n      0x01\n        /* \"backend/contracts/CarbonCreditMarketplace.sol\":7269:7282  nextListingId */\n      sload(0x00)\n        /* \"backend/contracts/CarbonCreditMarketplace.sol\":7269:7286  nextListingId - 1 */\n      tag_115\n      swap2\n      swap1\n      tag_116\n      jump\t// in\n        /* \"backend/contracts/CarbonCreditMarketplace.sol\":5118:5759  function finalizeAuction(uint256 id) external {... */\n    tag_94:\n        /* \"backend/contracts/CarbonCreditMarketplace.sol\":5174:5191  Auction storage a */\n      0x00\n        /* \"backend/contracts/CarbonCreditMarketplace.sol\":5194:5206  auctions[id] */\n      dup2\n      dup2\n      mstore\n        /* \"backend/contracts/CarbonCreditMarketplace.sol\":5194:5202  auctions */\n      0x03\n        /* \"backend/contracts/CarbonCreditMarketplace.sol\":5194:5206  auctions[id] */\n      0x20\n      mstore\n      0x40\n      swap1\n      keccak256\n        /* \"backend/contracts/CarbonCreditMarketplace.sol\":5220:5229  a.settled */\n      0x05\n      dup2\n      add\n      sload\n      0xff\n      and\n        /* \"backend/contracts/CarbonCreditMarketplace.sol\":5216:5254  if (a.settled) revert AlreadySettled() */\n      iszero\n      tag_172\n      jumpi\n        /* \"backend/contracts/CarbonCreditMarketplace.sol\":5238:5254  AlreadySettled() */\n      mload(0x40)\n      shl(0xe8, 0x560ff9)\n      dup2\n      mstore\n      0x04\n      add\n      mload(0x40)\n      dup1\n      swap2\n      sub\n      swap1\n      revert\n        /* \"backend/contracts/CarbonCreditMarketplace.sol\":5216:5254  if (a.settled) revert AlreadySettled() */\n    tag_172:\n        /* \"backend/contracts/CarbonCreditMarketplace.sol\":5286:5295  a.endTime */\n      0x03\n      dup2\n      add\n      sload\n      0xffffffffffffffff\n      and\n        /* \"backend/contracts/CarbonCreditMarketplace.sol\":5268:5283  block.timestamp */\n      timestamp\n        /* \"backend/contracts/CarbonCreditMarketplace.sol\":5268:5295  block.timestamp < a.endTime */\n      lt\n        /* \"backend/contracts/CarbonCreditMarketplace.sol\":5264:5325  if (block.timestamp < a.endTime) revert AuctionStillRunning() */\n      iszero\n      tag_173\n      jumpi\n        /* \"backend/contracts/CarbonCreditMarketplace.sol\":5304:5325  AuctionStillRunning() */\n      mload(0x40)\n      shl(0xe8, 0x03de71)\n      dup2\n      mstore\n      0x04\n      add\n      mload(0x40)\n      dup1\n      swap2\n      sub\n      swap1\n      revert\n        /* \"backend/contracts/CarbonCreditMarketplace.sol\":5264:5325  if (block.timestamp < a.endTime) revert AuctionStillRunning() */\n    tag_173:\n        /* \"backend/contracts/CarbonCreditMarketplace.sol\":5336:5345  a.settled */\n      0x05\n      dup2\n      add\n        /* \"backend/contracts/CarbonCreditMarketplace.sol\":5336:5352  a.settled = true */\n      dup1\n      sload\n      not(0xff)\n      and\n        /* \"backend/contracts/CarbonCreditMarketplace.sol\":5348:5352  true */\n      0x01\n        /* \"backend/contracts/CarbonCreditMarketplace.sol\":5336:5352  a.settled = true */\n      or\n      swap1\n      sstore\n        /* \"backend/contracts/CarbonCreditMarketplace.sol\":5367:5382  a.highestBidder */\n      0x03\n      dup2\n      add\n      sload\n      shl(0x40, 0x01)\n      swap1\n      div\n      sub(shl(0xa0, 0x01), 0x01)\n      and\n        /* \"backend/contracts/CarbonCreditMarketplace.sol\":5363:5551  if (a.highestBidder == address(0)) {... */\n      tag_174\n      jumpi\n        /* \"backend/contracts/CarbonCreditMarketplace.sol\":5462:5470  a.seller */\n      dup1\n      sload\n      0x01\n        /* \"backend/contracts/CarbonCreditMarketplace.sol\":5472:5480  a.amount */\n      dup3\n      add\n      sload\n        /* \"backend/contracts/CarbonCreditMarketplace.sol\":5450:5481  _pushTokens(a.seller, a.amount) */\n      tag_159\n      swap2\n      sub(shl(0xa0, 0x01), 0x01)\n        /* \"backend/contracts/CarbonCreditMarketplace.sol\":5462:5470  a.seller */\n      and\n      swap1\n        /* \"backend/contracts/CarbonCreditMarketplace.sol\":5450:5461  _pushTokens */\n      tag_121\n        /* \"backend/contracts/CarbonCreditMarketplace.sol\":5450:5481  _pushTokens(a.seller, a.amount) */\n      jump\t// in\n        /* \"backend/contracts/CarbonCreditMarketplace.sol\":5363:5551  if (a.highestBidder == address(0)) {... */\n    tag_174:\n        /* \"backend/contracts/CarbonCreditMarketplace.sol\":5621:5636  a.highestBidder */\n      0x03\n      dup2\n      add\n      sload\n        /* \"backend/contracts/CarbonCreditMarketplace.sol\":5638:5646  a.amount */\n      0x01\n      dup3\n      add\n      sload\n        /* \"backend/contracts/CarbonCreditMarketplace.sol\":5609:5647  _pushTokens(a.highestBidder, a.amount) */\n      tag_176\n      swap2\n      shl(0x40, 0x01)\n        /* \"backend/contracts/CarbonCreditMarketplace.sol\":5621:5636  a.highestBidder */\n      swap1\n      div\n      sub(shl(0xa0, 0x01), 0x01)\n      and\n      swap1\n        /* \"backend/contracts/CarbonCreditMarketplace.sol\":5609:5620  _pushTokens */\n      tag_121\n        /* \"backend/contracts/CarbonCreditMarketplace.sol\":5609:5647  _pushTokens(a.highestBidder, a.amount) */\n      jump\t// in\n    tag_176:\n        /* \"backend/contracts/CarbonCreditMarketplace.sol\":5665:5673  a.seller */\n      dup1\n      sload\n        /* \"backend/contracts/CarbonCreditMarketplace.sol\":5675:5687  a.highestBid */\n      0x04\n      dup3\n      add\n      sload\n        /* \"backend/contracts/CarbonCreditMarketplace.sol\":5657:5688  _payout(a.seller, a.highestBid) */\n      tag_177\n      swap2\n      sub(shl(0xa0, 0x01), 0x01)\n        /* \"backend/contracts/CarbonCreditMarketplace.sol\":5665:5673  a.seller */\n      and\n      swap1\n        /* \"backend/contracts/CarbonCreditMarketplace.sol\":5657:5664  _payout */\n      tag_131\n        /* \"backend/contracts/CarbonCreditMarketplace.sol\":5657:5688  _payout(a.seller, a.highestBid) */\n      jump\t// in\n    tag_177:\n        /* \"backend/contracts/CarbonCreditMarketplace.sol\":5722:5723  a */\n      dup1\n        /* \"backend/contracts/CarbonCreditMarketplace.sol\":5722:5737  a.highestBidder */\n      0x03\n      add\n      0x08\n      swap1\n      sload\n      swap1\n      0x0100\n      exp\n      swap1\n      div\n      sub(shl(0xa0, 0x01), 0x01)\n      and\n      sub(shl(0xa0, 0x01), 0x01)\n        /* \"backend/contracts/CarbonCreditMarketplace.sol\":5703:5752  AuctionSettled(id, a.highestBidder, a.highestBid) */\n      and\n        /* \"backend/contracts/CarbonCreditMarketplace.sol\":5718:5720  id */\n      dup3\n        /* \"backend/contracts/CarbonCreditMarketplace.sol\":5703:5752  AuctionSettled(id, a.highestBidder, a.highestBid) */\n      0xc9f72b276a388619c6d185d146697036241880c36654b1a3ffdad07c24038d99\n        /* \"backend/contracts/CarbonCreditMarketplace.sol\":5739:5740  a */\n      dup4\n        /* \"backend/contracts/CarbonCreditMarketplace.sol\":5739:5751  a.highestBid */\n      0x04\n      add\n      sload\n        /* \"backend/contracts/CarbonCreditMarketplace.sol\":5703:5752  AuctionSettled(id, a.highestBidder, a.highestBid) */\n      mload(0x40)\n      tag_178\n      swap2\n        /* \"#utility.yul\":413:438   */\n      dup2\n      mstore\n        /* \"#utility.yul\":401:403   */\n      0x20\n        /* \"#utility.yul\":386:404   */\n      add\n      swap1\n        /* \"#utility.yul\":267:444   */\n      jump\n        /* \"backend/contracts/CarbonCreditMarketplace.sol\":5703:5752  AuctionSettled(id, a.highestBidder, a.highestBid) */\n    tag_178:\n      mload(0x40)\n      dup1\n      swap2\n      sub\n      swap1\n      log3\n        /* \"backend/contracts/CarbonCreditMarketplace.sol\":5164:5759  {... */\n      pop\n        /* \"backend/contracts/CarbonCreditMarketplace.sol\":5118:5759  function finalizeAuction(uint256 id) external {... */\n      pop\n      jump\t// out\n        /* \"backend/contracts/CarbonCreditMarketplace.sol\":6264:6516  function _pullTokens(address from, uint256 amount) internal {... */\n    tag_103:\n        /* \"backend/contracts/CarbonCreditMarketplace.sol\":6342:6376  cct.allowance(from, address(this)) */\n      mload(0x40)\n      shl(0xe1, 0x6eb1769f)\n      dup2\n      mstore\n      sub(shl(0xa0, 0x01), 0x01)\n        /* \"#utility.yul\":6056:6071   */\n      dup4\n      dup2\n      and\n        /* \"backend/contracts/CarbonCreditMarketplace.sol\":6342:6376  cct.allowance(from, address(this)) */\n      0x04\n      dup4\n      add\n        /* \"#utility.yul\":6038:6072   */\n      mstore\n        /* \"backend/contracts/CarbonCreditMarketplace.sol\":6370:6374  this */\n      address\n        /* \"#utility.yul\":6088:6106   */\n      0x24\n      dup4\n      add\n        /* \"#utility.yul\":6081:6124   */\n      mstore\n        /* \"backend/contracts/CarbonCreditMarketplace.sol\":6380:6386  amount */\n      dup3\n      swap2\n        /* \"backend/contracts/CarbonCreditMarketplace.sol\":6342:6345  cct */\n      immutable(\"0xccb1f717aa77602faf03a594761a36956b1c4cf44c6b336d1db57da799b331b8\")\n        /* \"backend/contracts/CarbonCreditMarketplace.sol\":6342:6355  cct.allowance */\n      swap1\n      swap2\n      and\n      swap1\n      0xdd62ed3e\n      swap1\n        /* \"#utility.yul\":5973:5991   */\n      0x44\n      add\n        /* \"backend/contracts/CarbonCreditMarketplace.sol\":6342:6376  cct.allowance(from, address(this)) */\n      0x20\n      mload(0x40)\n      dup1\n      dup4\n      sub\n      dup2\n      dup7\n      gas\n      staticcall\n      iszero\n      dup1\n      iszero\n      tag_183\n      jumpi\n      returndatasize\n      0x00\n      dup1\n      returndatacopy\n      revert(0x00, returndatasize)\n    tag_183:\n      pop\n      pop\n      pop\n      pop\n      mload(0x40)\n      returndatasize\n      not(0x1f)\n      0x1f\n      dup3\n      add\n      and\n      dup3\n      add\n      dup1\n      0x40\n      mstore\n      pop\n      dup2\n      add\n      swap1\n      tag_184\n      swap2\n      swap1\n      tag_185\n      jump\t// in\n    tag_184:\n        /* \"backend/contracts/CarbonCreditMarketplace.sol\":6342:6386  cct.allowance(from, address(this)) >= amount */\n      lt\n      iszero\n        /* \"backend/contracts/CarbonCreditMarketplace.sol\":6334:6400  require(cct.allowance(from, address(this)) >= amount, \"allowance\") */\n      tag_186\n      jumpi\n      mload(0x40)\n      shl(0xe5, 0x461bcd)\n      dup2\n      mstore\n        /* \"#utility.yul\":6526:6528   */\n      0x20\n        /* \"backend/contracts/CarbonCreditMarketplace.sol\":6334:6400  require(cct.allowance(from, address(this)) >= amount, \"allowance\") */\n      0x04\n      dup3\n      add\n        /* \"#utility.yul\":6508:6529   */\n      mstore\n        /* \"#utility.yul\":6565:6566   */\n      0x09\n        /* \"#utility.yul\":6545:6563   */\n      0x24\n      dup3\n      add\n        /* \"#utility.yul\":6538:6567   */\n      mstore\n      shl(0xb8, 0x616c6c6f77616e6365)\n        /* \"#utility.yul\":6583:6601   */\n      0x44\n      dup3\n      add\n        /* \"#utility.yul\":6576:6615   */\n      mstore\n        /* \"#utility.yul\":6632:6650   */\n      0x64\n      add\n        /* \"backend/contracts/CarbonCreditMarketplace.sol\":6334:6400  require(cct.allowance(from, address(this)) >= amount, \"allowance\") */\n      tag_97\n        /* \"#utility.yul\":6324:6656   */\n      jump\n        /* \"backend/contracts/CarbonCreditMarketplace.sol\":6334:6400  require(cct.allowance(from, address(this)) >= amount, \"allowance\") */\n    tag_186:\n        /* \"backend/contracts/CarbonCreditMarketplace.sol\":6420:6465  cct.transferFrom(from, address(this), amount) */\n      mload(0x40)\n      shl(0xe0, 0x23b872dd)\n      dup2\n      mstore\n      sub(shl(0xa0, 0x01), 0x01)\n        /* \"#utility.yul\":6919:6934   */\n      dup4\n      dup2\n      and\n        /* \"backend/contracts/CarbonCreditMarketplace.sol\":6420:6465  cct.transferFrom(from, address(this), amount) */\n      0x04\n      dup4\n      add\n        /* \"#utility.yul\":6901:6935   */\n      mstore\n        /* \"backend/contracts/CarbonCreditMarketplace.sol\":6451:6455  this */\n      address\n        /* \"#utility.yul\":6951:6969   */\n      0x24\n      dup4\n      add\n        /* \"#utility.yul\":6944:6987   */\n      mstore\n        /* \"#utility.yul\":7003:7021   */\n      0x44\n      dup3\n      add\n        /* \"#utility.yul\":6996:7030   */\n      dup4\n      swap1\n      mstore\n        /* \"backend/contracts/CarbonCreditMarketplace.sol\":6410:6417  bool ok */\n      0x00\n      swap2\n        /* \"backend/contracts/CarbonCreditMarketplace.sol\":6420:6423  cct */\n      immutable(\"0xccb1f717aa77602faf03a594761a36956b1c4cf44c6b336d1db57da799b331b8\")\n        /* \"backend/contracts/CarbonCreditMarketplace.sol\":6420:6436  cct.transferFrom */\n      swap1\n      swap2\n      and\n      swap1\n      0x23b872dd\n      swap1\n        /* \"#utility.yul\":6836:6854   */\n      0x64\n      add\n        /* \"backend/contracts/CarbonCreditMarketplace.sol\":6420:6465  cct.transferFrom(from, address(this), amount) */\n      0x20\n      mload(0x40)\n      dup1\n      dup4\n      sub\n      dup2\n      0x00\n      dup8\n      gas\n      call\n      iszero\n      dup1\n      iszero\n      tag_192\n      jumpi\n      returndatasize\n      0x00\n      dup1\n      returndatacopy\n      revert(0x00, returndatasize)\n    tag_192:\n      pop\n      pop\n      pop\n      pop\n      mload(0x40)\n      returndatasize\n      not(0x1f)\n      0x1f\n      dup3\n      add\n      and\n      dup3\n      add\n      dup1\n      0x40\n      mstore\n      pop\n      dup2\n      add\n      swap1\n      tag_193\n      swap2\n      swap1\n      tag_194\n      jump\t// in\n    tag_193:\n        /* \"backend/contracts/CarbonCreditMarketplace.sol\":6410:6465  bool ok = cct.transferFrom(from, address(this), amount) */\n      swap1\n      pop\n        /* \"backend/contracts/CarbonCreditMarketplace.sol\":6483:6485  ok */\n      dup1\n        /* \"backend/contracts/CarbonCreditMarketplace.sol\":6475:6509  require(ok, \"transferFrom failed\") */\n      tag_195\n      jumpi\n      mload(0x40)\n      shl(0xe5, 0x461bcd)\n      dup2\n      mstore\n        /* \"#utility.yul\":7525:7527   */\n      0x20\n        /* \"backend/contracts/CarbonCreditMarketplace.sol\":6475:6509  require(ok, \"transferFrom failed\") */\n      0x04\n      dup3\n      add\n        /* \"#utility.yul\":7507:7528   */\n      mstore\n        /* \"#utility.yul\":7564:7566   */\n      0x13\n        /* \"#utility.yul\":7544:7562   */\n      0x24\n      dup3\n      add\n        /* \"#utility.yul\":7537:7567   */\n      mstore\n      shl(0x6a, 0x1d1c985b9cd9995c919c9bdb4819985a5b1959)\n        /* \"#utility.yul\":7583:7601   */\n      0x44\n      dup3\n      add\n        /* \"#utility.yul\":7576:7625   */\n      mstore\n        /* \"#utility.yul\":7642:7660   */\n      0x64\n      add\n        /* \"backend/contracts/CarbonCreditMarketplace.sol\":6475:6509  require(ok, \"transferFrom failed\") */\n      tag_97\n        /* \"#utility.yul\":7323:7666   */\n      jump\n        /* \"backend/contracts/CarbonCreditMarketplace.sol\":6475:6509  require(ok, \"transferFrom failed\") */\n    tag_195:\n        /* \"backend/contracts/CarbonCreditMarketplace.sol\":6324:6516  {... */\n      pop\n        /* \"backend/contracts/CarbonCreditMarketplace.sol\":6264:6516  function _pullTokens(address from, uint256 amount) internal {... */\n      pop\n      pop\n      jump\t// out\n        /* \"backend/contracts/CarbonCreditMarketplace.sol\":6522:6671  function _pushTokens(address to, uint256 amount) internal {... */\n    tag_121:\n        /* \"backend/contracts/CarbonCreditMarketplace.sol\":6600:6624  cct.transfer(to, amount) */\n      mload(0x40)\n      shl(0xe0, 0xa9059cbb)\n      dup2\n      mstore\n      sub(shl(0xa0, 0x01), 0x01)\n        /* \"#utility.yul\":7863:7895   */\n      dup4\n      dup2\n      and\n        /* \"backend/contracts/CarbonCreditMarketplace.sol\":6600:6624  cct.transfer(to, amount) */\n      0x04\n      dup4\n      add\n        /* \"#utility.yul\":7845:7896   */\n      mstore\n        /* \"#utility.yul\":7912:7930   */\n      0x24\n      dup3\n      add\n        /* \"#utility.yul\":7905:7939   */\n      dup4\n      swap1\n      mstore\n        /* \"backend/contracts/CarbonCreditMarketplace.sol\":6590:6597  bool ok */\n      0x00\n      swap2\n        /* \"backend/contracts/CarbonCreditMarketplace.sol\":6600:6603  cct */\n      immutable(\"0xccb1f717aa77602faf03a594761a36956b1c4cf44c6b336d1db57da799b331b8\")\n        /* \"backend/contracts/CarbonCreditMarketplace.sol\":6600:6612  cct.transfer */\n      swap1\n      swap2\n      and\n      swap1\n      0xa9059cbb\n      swap1\n        /* \"#utility.yul\":7818:7836   */\n      0x44\n      add\n        /* \"backend/contracts/CarbonCreditMarketplace.sol\":6600:6624  cct.transfer(to, amount) */\n      0x20\n      mload(0x40)\n      dup1\n      dup4\n      sub\n      dup2\n      0x00\n      dup8\n      gas\n      call\n      iszero\n      dup1\n      iszero\n      tag_202\n      jumpi\n      returndatasize\n      0x00\n      dup1\n      returndatacopy\n      revert(0x00, returndatasize)\n    tag_202:\n      pop\n      pop\n      pop\n      pop\n      mload(0x40)\n      returndatasize\n      not(0x1f)\n      0x1f\n      dup3\n      add\n      and\n      dup3\n      add\n      dup1\n      0x40\n      mstore\n      pop\n      dup2\n      add\n      swap1\n      tag_203\n      swap2\n      swap1\n      tag_194\n      jump\t// in\n    tag_203:\n        /* \"backend/contracts/CarbonCreditMarketplace.sol\":6590:6624  bool ok = cct.transfer(to, amount) */\n      swap1\n      pop\n        /* \"backend/contracts/CarbonCreditMarketplace.sol\":6642:6644  ok */\n      dup1\n        /* \"backend/contracts/CarbonCreditMarketplace.sol\":6634:6664  require(ok, \"transfer failed\") */\n      tag_195\n      jumpi\n      mload(0x40)\n      shl(0xe5, 0x461bcd)\n      dup2\n      mstore\n        /* \"#utility.yul\":8152:8154   */\n      0x20\n        /* \"backend/contracts/CarbonCreditMarketplace.sol\":6634:6664  require(ok, \"transfer failed\") */\n      0x04\n      dup3\n      add\n        /* \"#utility.yul\":8134:8155   */\n      mstore\n        /* \"#utility.yul\":8191:8193   */\n      0x0f\n        /* \"#utility.yul\":8171:8189   */\n      0x24\n      dup3\n      add\n        /* \"#utility.yul\":8164:8194   */\n      mstore\n      shl(0x8a, 0x1d1c985b9cd9995c8819985a5b1959)\n        /* \"#utility.yul\":8210:8228   */\n      0x44\n      dup3\n      add\n        /* \"#utility.yul\":8203:8248   */\n      mstore\n        /* \"#utility.yul\":8265:8283   */\n      0x64\n      add\n        /* \"backend/contracts/CarbonCreditMarketplace.sol\":6634:6664  require(ok, \"transfer failed\") */\n      tag_97\n        /* \"#utility.yul\":7950:8289   */\n      jump\n        /* \"backend/contracts/CarbonCreditMarketplace.sol\":6677:6830  function _payout(address to, uint256 amount) internal {... */\n    tag_131:\n        /* \"backend/contracts/CarbonCreditMarketplace.sol\":6742:6748  bool s */\n      0x00\n        /* \"backend/contracts/CarbonCreditMarketplace.sol\":6754:6756  to */\n      dup3\n      sub(shl(0xa0, 0x01), 0x01)\n        /* \"backend/contracts/CarbonCreditMarketplace.sol\":6754:6761  to.call */\n      and\n        /* \"backend/contracts/CarbonCreditMarketplace.sol\":6769:6775  amount */\n      dup3\n        /* \"backend/contracts/CarbonCreditMarketplace.sol\":6754:6780  to.call{value: amount}(\"\") */\n      mload(0x40)\n      0x00\n      mload(0x40)\n      dup1\n      dup4\n      sub\n      dup2\n      dup6\n      dup8\n      gas\n      call\n      swap3\n      pop\n      pop\n      pop\n      returndatasize\n      dup1\n      0x00\n      dup2\n      eq\n      tag_212\n      jumpi\n      mload(0x40)\n      swap2\n      pop\n      and(add(returndatasize, 0x3f), not(0x1f))\n      dup3\n      add\n      0x40\n      mstore\n      returndatasize\n      dup3\n      mstore\n      returndatasize\n      0x00\n      0x20\n      dup5\n      add\n      returndatacopy\n      jump(tag_211)\n    tag_212:\n      0x60\n      swap2\n      pop\n    tag_211:\n      pop\n        /* \"backend/contracts/CarbonCreditMarketplace.sol\":6741:6780  (bool s, ) = to.call{value: amount}(\"\") */\n      pop\n      swap1\n      pop\n        /* \"backend/contracts/CarbonCreditMarketplace.sol\":6798:6799  s */\n      dup1\n        /* \"backend/contracts/CarbonCreditMarketplace.sol\":6790:6823  require(s, \"eth transfer failed\") */\n      tag_195\n      jumpi\n      mload(0x40)\n      shl(0xe5, 0x461bcd)\n      dup2\n      mstore\n        /* \"#utility.yul\":8706:8708   */\n      0x20\n        /* \"backend/contracts/CarbonCreditMarketplace.sol\":6790:6823  require(s, \"eth transfer failed\") */\n      0x04\n      dup3\n      add\n        /* \"#utility.yul\":8688:8709   */\n      mstore\n        /* \"#utility.yul\":8745:8747   */\n      0x13\n        /* \"#utility.yul\":8725:8743   */\n      0x24\n      dup3\n      add\n        /* \"#utility.yul\":8718:8748   */\n      mstore\n      shl(0x6a, 0x195d1a081d1c985b9cd9995c8819985a5b1959)\n        /* \"#utility.yul\":8764:8782   */\n      0x44\n      dup3\n      add\n        /* \"#utility.yul\":8757:8806   */\n      mstore\n        /* \"#utility.yul\":8823:8841   */\n      0x64\n      add\n        /* \"backend/contracts/CarbonCreditMarketplace.sol\":6790:6823  require(s, \"eth transfer failed\") */\n      tag_97\n        /* \"#utility.yul\":8504:8847   */\n      jump\n        /* \"#utility.yul\":14:262   */\n    tag_26:\n        /* \"#utility.yul\":82:88   */\n      0x00\n        /* \"#utility.yul\":90:96   */\n      dup1\n        /* \"#utility.yul\":143:145   */\n      0x40\n        /* \"#utility.yul\":131:140   */\n      dup4\n        /* \"#utility.yul\":122:129   */\n      dup6\n        /* \"#utility.yul\":118:141   */\n      sub\n        /* \"#utility.yul\":114:146   */\n      slt\n        /* \"#utility.yul\":111:163   */\n      iszero\n      tag_219\n      jumpi\n        /* \"#utility.yul\":159:160   */\n      0x00\n        /* \"#utility.yul\":156:157   */\n      dup1\n        /* \"#utility.yul\":149:161   */\n      revert\n        /* \"#utility.yul\":111:163   */\n    tag_219:\n      pop\n      pop\n        /* \"#utility.yul\":182:205   */\n      dup1\n      calldataload\n      swap3\n        /* \"#utility.yul\":252:254   */\n      0x20\n        /* \"#utility.yul\":237:255   */\n      swap1\n      swap2\n      add\n        /* \"#utility.yul\":224:256   */\n      calldataload\n      swap2\n      pop\n        /* \"#utility.yul\":14:262   */\n      jump\t// out\n        /* \"#utility.yul\":449:629   */\n    tag_33:\n        /* \"#utility.yul\":508:514   */\n      0x00\n        /* \"#utility.yul\":561:563   */\n      0x20\n        /* \"#utility.yul\":549:558   */\n      dup3\n        /* \"#utility.yul\":540:547   */\n      dup5\n        /* \"#utility.yul\":536:559   */\n      sub\n        /* \"#utility.yul\":532:564   */\n      slt\n        /* \"#utility.yul\":529:581   */\n      iszero\n      tag_222\n      jumpi\n        /* \"#utility.yul\":577:578   */\n      0x00\n        /* \"#utility.yul\":574:575   */\n      dup1\n        /* \"#utility.yul\":567:579   */\n      revert\n        /* \"#utility.yul\":529:581   */\n    tag_222:\n      pop\n        /* \"#utility.yul\":600:623   */\n      calldataload\n      swap2\n        /* \"#utility.yul\":449:629   */\n      swap1\n      pop\n      jump\t// out\n        /* \"#utility.yul\":3840:3967   */\n    tag_216:\n        /* \"#utility.yul\":3901:3911   */\n      0x4e487b71\n        /* \"#utility.yul\":3896:3899   */\n      0xe0\n        /* \"#utility.yul\":3892:3912   */\n      shl\n        /* \"#utility.yul\":3889:3890   */\n      0x00\n        /* \"#utility.yul\":3882:3913   */\n      mstore\n        /* \"#utility.yul\":3932:3936   */\n      0x11\n        /* \"#utility.yul\":3929:3930   */\n      0x04\n        /* \"#utility.yul\":3922:3937   */\n      mstore\n        /* \"#utility.yul\":3956:3960   */\n      0x24\n        /* \"#utility.yul\":3953:3954   */\n      0x00\n        /* \"#utility.yul\":3946:3961   */\n      revert\n        /* \"#utility.yul\":3972:4107   */\n    tag_105:\n        /* \"#utility.yul\":4011:4014   */\n      0x00\n        /* \"#utility.yul\":4032:4049   */\n      0x01\n      dup3\n      add\n        /* \"#utility.yul\":4029:4072   */\n      tag_233\n      jumpi\n        /* \"#utility.yul\":4052:4070   */\n      tag_233\n      tag_216\n      jump\t// in\n    tag_233:\n      pop\n        /* \"#utility.yul\":4099:4100   */\n      0x01\n        /* \"#utility.yul\":4088:4101   */\n      add\n      swap1\n        /* \"#utility.yul\":3972:4107   */\n      jump\t// out\n        /* \"#utility.yul\":4112:4237   */\n    tag_107:\n        /* \"#utility.yul\":4177:4186   */\n      dup1\n      dup3\n      add\n        /* \"#utility.yul\":4198:4208   */\n      dup1\n      dup3\n      gt\n        /* \"#utility.yul\":4195:4231   */\n      iszero\n      tag_236\n      jumpi\n        /* \"#utility.yul\":4211:4229   */\n      tag_236\n      tag_216\n      jump\t// in\n    tag_236:\n        /* \"#utility.yul\":4112:4237   */\n      swap3\n      swap2\n      pop\n      pop\n      jump\t// out\n        /* \"#utility.yul\":4589:4717   */\n    tag_116:\n        /* \"#utility.yul\":4656:4665   */\n      dup2\n      dup2\n      sub\n        /* \"#utility.yul\":4677:4688   */\n      dup2\n      dup2\n      gt\n        /* \"#utility.yul\":4674:4711   */\n      iszero\n      tag_236\n      jumpi\n        /* \"#utility.yul\":4691:4709   */\n      tag_236\n      tag_216\n      jump\t// in\n        /* \"#utility.yul\":4722:4890   */\n    tag_138:\n        /* \"#utility.yul\":4795:4804   */\n      dup1\n      dup3\n      mul\n        /* \"#utility.yul\":4826:4835   */\n      dup2\n      iszero\n        /* \"#utility.yul\":4843:4858   */\n      dup3\n      dup3\n      div\n        /* \"#utility.yul\":4837:4859   */\n      dup5\n      eq\n        /* \"#utility.yul\":4823:4860   */\n      or\n        /* \"#utility.yul\":4813:4884   */\n      tag_236\n      jumpi\n        /* \"#utility.yul\":4864:4882   */\n      tag_236\n      tag_216\n      jump\t// in\n        /* \"#utility.yul\":6135:6319   */\n    tag_185:\n        /* \"#utility.yul\":6205:6211   */\n      0x00\n        /* \"#utility.yul\":6258:6260   */\n      0x20\n        /* \"#utility.yul\":6246:6255   */\n      dup3\n        /* \"#utility.yul\":6237:6244   */\n      dup5\n        /* \"#utility.yul\":6233:6256   */\n      sub\n        /* \"#utility.yul\":6229:6261   */\n      slt\n        /* \"#utility.yul\":6226:6278   */\n      iszero\n      tag_249\n      jumpi\n        /* \"#utility.yul\":6274:6275   */\n      0x00\n        /* \"#utility.yul\":6271:6272   */\n      dup1\n        /* \"#utility.yul\":6264:6276   */\n      revert\n        /* \"#utility.yul\":6226:6278   */\n    tag_249:\n      pop\n        /* \"#utility.yul\":6297:6313   */\n      mload\n      swap2\n        /* \"#utility.yul\":6135:6319   */\n      swap1\n      pop\n      jump\t// out\n        /* \"#utility.yul\":7041:7318   */\n    tag_194:\n        /* \"#utility.yul\":7108:7114   */\n      0x00\n        /* \"#utility.yul\":7161:7163   */\n      0x20\n        /* \"#utility.yul\":7149:7158   */\n      dup3\n        /* \"#utility.yul\":7140:7147   */\n      dup5\n        /* \"#utility.yul\":7136:7159   */\n      sub\n        /* \"#utility.yul\":7132:7164   */\n      slt\n        /* \"#utility.yul\":7129:7181   */\n      iszero\n      tag_253\n      jumpi\n        /* \"#utility.yul\":7177:7178   */\n      0x00\n        /* \"#utility.yul\":7174:7175   */\n      dup1\n        /* \"#utility.yul\":7167:7179   */\n      revert\n        /* \"#utility.yul\":7129:7181   */\n    tag_253:\n        /* \"#utility.yul\":7209:7218   */\n      dup2\n        /* \"#utility.yul\":7203:7219   */\n      mload\n        /* \"#utility.yul\":7262:7267   */\n      dup1\n        /* \"#utility.yul\":7255:7268   */\n      iszero\n        /* \"#utility.yul\":7248:7269   */\n      iszero\n        /* \"#utility.yul\":7241:7246   */\n      dup2\n        /* \"#utility.yul\":7238:7270   */\n      eq\n        /* \"#utility.yul\":7228:7288   */\n      tag_254\n      jumpi\n        /* \"#utility.yul\":7284:7285   */\n      0x00\n        /* \"#utility.yul\":7281:7282   */\n      dup1\n        /* \"#utility.yul\":7274:7286   */\n      revert\n        /* \"#utility.yul\":7228:7288   */\n    tag_254:\n        /* \"#utility.yul\":7307:7312   */\n      swap4\n        /* \"#utility.yul\":7041:7318   */\n      swap3\n      pop\n      pop\n      pop\n      jump\t// out\n\n    auxdata: 0xa2646970667358221220b1bb2bfd359d0426848678fe8e8e49fab198718550fced65fe4d5dcf12dc7df864736f6c63430008140033\n}\n",
				"bytecode": {
					"linkReferences": {},
					"object": "60c060405261016860a05260015f819055805534801561001d575f80fd5b5060405161141838038061141883398101604081905261003c91610096565b6001600160a01b0381166100855760405162461bcd60e51b815260206004820152600c60248201526b18d8dd081c995c5d5a5c995960a21b604482015260640160405180910390fd5b6001600160a01b03166080526100c3565b5f602082840312156100a6575f80fd5b81516001600160a01b03811681146100bc575f80fd5b9392505050565b60805160a0516113116101075f395f81816102470152818161066f015261077a01525f818161033d01528181610f0501528181610fd801526110b601526113115ff3fe6080604052600436106100e7575f3560e01c80635a05ee5811610087578063a79123a911610057578063a79123a9146104e3578063a9b07c2614610502578063de74e57b14610516578063e808386314610591575f80fd5b80635a05ee581461032c5780636d0ba1d31461037757806378bd79351461038a57806396b5a755146104c4575f80fd5b8063305a67a8116100c2578063305a67a814610202578063454a2ab314610223578063510219cd14610236578063571a26a014610269575f80fd5b80630121683f146100f2578063107a274a146101245780632ad71573146101ee575f80fd5b366100ee57005b5f80fd5b3480156100fd575f80fd5b5061011161010c3660046111f8565b6105b0565b6040519081526020015b60405180910390f35b34801561012f575f80fd5b506101b061013e366004611218565b604080516080810182525f808252602082018190529181018290526060810191909152505f90815260026020818152604092839020835160808101855281546001600160a01b0316815260018201549281019290925291820154928101929092526003015460ff161515606082015290565b60405161011b919081516001600160a01b03168152602080830151908201526040808301519082015260609182015115159181019190915260800190565b3480156101f9575f80fd5b506101116107ce565b34801561020d575f80fd5b5061022161021c366004611218565b6107e2565b005b610221610231366004611218565b610888565b348015610241575f80fd5b506101117f000000000000000000000000000000000000000000000000000000000000000081565b348015610274575f80fd5b506102db610283366004611218565b600360208190525f91825260409091208054600182015460028301549383015460048401546005909401546001600160a01b03938416959294929367ffffffffffffffff831693600160401b90930416919060ff1687565b604080516001600160a01b039889168152602081019790975286019490945267ffffffffffffffff909216606085015293909316608083015260a082019290925290151560c082015260e00161011b565b348015610337575f80fd5b5061035f7f000000000000000000000000000000000000000000000000000000000000000081565b6040516001600160a01b03909116815260200161011b565b6102216103853660046111f8565b6109d9565b348015610395575f80fd5b506104596103a4366004611218565b6040805160e0810182525f80825260208201819052918101829052606081018290526080810182905260a0810182905260c0810191909152505f90815260036020818152604092839020835160e08101855281546001600160a01b0390811682526001830154938201939093526002820154948101949094529182015467ffffffffffffffff81166060850152600160401b9004166080830152600481015460a08301526005015460ff16151560c082015290565b60405161011b919081516001600160a01b039081168252602080840151908301526040808401519083015260608084015167ffffffffffffffff16908301526080808401519091169082015260a0828101519082015260c09182015115159181019190915260e00190565b3480156104cf575f80fd5b506102216104de366004611218565b610b3c565b3480156104ee575f80fd5b506101116104fd3660046111f8565b610c52565b34801561050d575f80fd5b50610111610d8c565b348015610521575f80fd5b50610565610530366004611218565b600260208190525f918252604090912080546001820154928201546003909201546001600160a01b0390911692919060ff1684565b604080516001600160a01b0390951685526020850193909352918301521515606082015260800161011b565b34801561059c575f80fd5b506102216105ab366004611218565b610d9b565b5f8083116105ee5760405162461bcd60e51b8152602060048201526006602482015265185b5bdd5b9d60d21b60448201526064015b60405180910390fd5b5f82116106285760405162461bcd60e51b81526020600482015260086024820152676d696e507269636560c01b60448201526064016105e5565b6106323384610ede565b60018054905f61064183611243565b9190505590506040518060e00160405280336001600160a01b031681526020018481526020018381526020017f000000000000000000000000000000000000000000000000000000000000000042610699919061125b565b67ffffffffffffffff90811682525f602080840182905260408085018390526060948501839052868352600380835292819020865181546001600160a01b039182166001600160a01b03199091161782559287015160018201559086015160028201559385015191840180546080870151909216600160401b026001600160e01b0319909216929093169190911717905560a0820151600482015560c0909101516005909101805491151560ff1990921691909117905533817f7c83fa578702f727c7f27daad1ed3ef74a9da44fa49f915f5ac2fc924c0b39cf858561079f7f00000000000000000000000000000000000000000000000000000000000000004261125b565b60408051938452602084019290925267ffffffffffffffff16908201526060015b60405180910390a392915050565b5f600180546107dd9190611274565b905090565b5f818152600260205260409020600381015460ff1661081457604051634065aaf160e11b815260040160405180910390fd5b80546001600160a01b0316331461083e57604051635ec8235160e01b815260040160405180910390fd5b60038101805460ff19169055600181015461085a90339061108e565b60405182907f411aee90354c51b1b04cd563fcab2617142a9d50da19232d888547c8a1b7fd8a905f90a25050565b5f818152600360205260409020600581015460ff16156108ba5760405162560ff960e81b815260040160405180910390fd5b600381015467ffffffffffffffff1642106108e85760405163283a4a6160e21b815260040160405180910390fd5b5f81600401545f1461090957600482015461090490600161125b565b61090f565b81600201545b90508034101561093257604051635069375b60e11b815260040160405180910390fd5b6003820154600160401b90046001600160a01b031615610970576003820154600483015461097091600160401b90046001600160a01b031690611163565b60038201805468010000000000000000600160e01b03191633600160401b810291909117909155346004840181905560405190815284907fb8d756f2d1da4663767eb4d559780ace84f2f65a421a60ddcb47e8b2e5d2fd269060200160405180910390a3505050565b5f828152600260205260409020600381015460ff16610a0b57604051634065aaf160e11b815260040160405180910390fd5b811580610a1b5750806001015482115b15610a395760405163162908e360e11b815260040160405180910390fd5b5f828260020154610a4a9190611287565b905080341015610a8f5760405162461bcd60e51b815260206004820152601060248201526f0d2dce6eaccccd2c6d2cadce8408aa8960831b60448201526064016105e5565b82826001015f828254610aa29190611274565b909155505060018201545f03610abf5760038201805460ff191690555b610ac9338461108e565b8154610ade906001600160a01b031682611163565b80341115610af957610af933610af48334611274565b611163565b6040805184815260208101839052339186917f0db6cd6881fc0453b2d01f52eb5a16417707659f245732abc10f847426e3525d910160405180910390a350505050565b5f818152600360205260409020600581015460ff1615610b6e5760405162560ff960e81b815260040160405180910390fd5b80546001600160a01b03163314610b9857604051635ec8235160e01b815260040160405180910390fd5b600381015467ffffffffffffffff164210610bc65760405163283a4a6160e21b815260040160405180910390fd5b6003810154600160401b90046001600160a01b031615610bf957604051635ec8235160e01b815260040160405180910390fd5b60058101805460ff19166001908117909155815490820154610c24916001600160a01b03169061108e565b60405182907f2809c7e17bf978fbc7194c0a694b638c4215e9140cacc6c38ca36010b45697df905f90a25050565b5f808311610c8b5760405162461bcd60e51b8152602060048201526006602482015265185b5bdd5b9d60d21b60448201526064016105e5565b5f8211610cc25760405162461bcd60e51b8152602060048201526005602482015264707269636560d81b60448201526064016105e5565b610ccc3384610ede565b5f80549080610cda83611243565b90915550604080516080810182523380825260208083018881528385018881526001606086018181525f898152600280875290899020975188546001600160a01b0319166001600160a01b03909116178855935191870191909155905191850191909155516003909301805460ff191693151593909317909255825187815291820186905292935083917f12dc294b81a709d694b1337a350a12a00076c19a77a25aab67a5f0c07e0f164d91016107c0565b5f60015f546107dd9190611274565b5f818152600360205260409020600581015460ff1615610dcd5760405162560ff960e81b815260040160405180910390fd5b600381015467ffffffffffffffff16421015610dfb576040516203de7160e81b815260040160405180910390fd5b60058101805460ff191660011790556003810154600160401b90046001600160a01b0316610e3d5780546001820154610c24916001600160a01b03169061108e565b60038101546001820154610e6191600160401b90046001600160a01b03169061108e565b80546004820154610e7b916001600160a01b031690611163565b8060030160089054906101000a90046001600160a01b03166001600160a01b0316827fc9f72b276a388619c6d185d146697036241880c36654b1a3ffdad07c24038d998360040154604051610ed291815260200190565b60405180910390a35050565b604051636eb1769f60e11b81526001600160a01b03838116600483015230602483015282917f00000000000000000000000000000000000000000000000000000000000000009091169063dd62ed3e90604401602060405180830381865afa158015610f4c573d5f803e3d5ffd5b505050506040513d601f19601f82011682018060405250810190610f70919061129e565b1015610faa5760405162461bcd60e51b8152602060048201526009602482015268616c6c6f77616e636560b81b60448201526064016105e5565b6040516323b872dd60e01b81526001600160a01b038381166004830152306024830152604482018390525f917f0000000000000000000000000000000000000000000000000000000000000000909116906323b872dd906064016020604051808303815f875af1158015611020573d5f803e3d5ffd5b505050506040513d601f19601f8201168201806040525081019061104491906112b5565b9050806110895760405162461bcd60e51b81526020600482015260136024820152721d1c985b9cd9995c919c9bdb4819985a5b1959606a1b60448201526064016105e5565b505050565b60405163a9059cbb60e01b81526001600160a01b038381166004830152602482018390525f917f00000000000000000000000000000000000000000000000000000000000000009091169063a9059cbb906044016020604051808303815f875af11580156110fe573d5f803e3d5ffd5b505050506040513d601f19601f8201168201806040525081019061112291906112b5565b9050806110895760405162461bcd60e51b815260206004820152600f60248201526e1d1c985b9cd9995c8819985a5b1959608a1b60448201526064016105e5565b5f826001600160a01b0316826040515f6040518083038185875af1925050503d805f81146111ac576040519150601f19603f3d011682016040523d82523d5f602084013e6111b1565b606091505b50509050806110895760405162461bcd60e51b8152602060048201526013602482015272195d1a081d1c985b9cd9995c8819985a5b1959606a1b60448201526064016105e5565b5f8060408385031215611209575f80fd5b50508035926020909101359150565b5f60208284031215611228575f80fd5b5035919050565b634e487b7160e01b5f52601160045260245ffd5b5f600182016112545761125461122f565b5060010190565b8082018082111561126e5761126e61122f565b92915050565b8181038181111561126e5761126e61122f565b808202811582820484141761126e5761126e61122f565b5f602082840312156112ae575f80fd5b5051919050565b5f602082840312156112c5575f80fd5b815180151581146112d4575f80fd5b939250505056fea2646970667358221220b1bb2bfd359d0426848678fe8e8e49fab198718550fced65fe4d5dcf12dc7df864736f6c63430008140033",
					"opcodes": "PUSH1 0xC0 PUSH1 0x40 MSTORE PUSH2 0x168 PUSH1 0xA0 MSTORE PUSH1 0x1 PUSH0 DUP2 SWAP1 SSTORE DUP1 SSTORE CALLVALUE DUP1 ISZERO PUSH2 0x1D JUMPI PUSH0 DUP1 REVERT JUMPDEST POP PUSH1 0x40 MLOAD PUSH2 0x1418 CODESIZE SUB DUP1 PUSH2 0x1418 DUP4 CODECOPY DUP2 ADD PUSH1 0x40 DUP2 SWAP1 MSTORE PUSH2 0x3C SWAP2 PUSH2 0x96 JUMP JUMPDEST PUSH1 0x1 PUSH1 0x1 PUSH1 0xA0 SHL SUB DUP2 AND PUSH2 0x85 JUMPI PUSH1 0x40 MLOAD PUSH3 0x461BCD PUSH1 0xE5 SHL DUP2 MSTORE PUSH1 0x20 PUSH1 0x4 DUP3 ADD MSTORE PUSH1 0xC PUSH1 0x24 DUP3 ADD MSTORE PUSH12 0x18D8DD081C995C5D5A5C9959 PUSH1 0xA2 SHL PUSH1 0x44 DUP3 ADD MSTORE PUSH1 0x64 ADD PUSH1 0x40 MLOAD DUP1 SWAP2 SUB SWAP1 REVERT JUMPDEST PUSH1 0x1 PUSH1 0x1 PUSH1 0xA0 SHL SUB AND PUSH1 0x80 MSTORE PUSH2 0xC3 JUMP JUMPDEST PUSH0 PUSH1 0x20 DUP3 DUP5 SUB SLT ISZERO PUSH2 0xA6 JUMPI PUSH0 DUP1 REVERT JUMPDEST DUP2 MLOAD PUSH1 0x1 PUSH1 0x1 PUSH1 0xA0 SHL SUB DUP2 AND DUP2 EQ PUSH2 0xBC JUMPI PUSH0 DUP1 REVERT JUMPDEST SWAP4 SWAP3 POP POP POP JUMP JUMPDEST PUSH1 0x80 MLOAD PUSH1 0xA0 MLOAD PUSH2 0x1311 PUSH2 0x107 PUSH0 CODECOPY PUSH0 DUP2 DUP2 PUSH2 0x247 ADD MSTORE DUP2 DUP2 PUSH2 0x66F ADD MSTORE PUSH2 0x77A ADD MSTORE PUSH0 DUP2 DUP2 PUSH2 0x33D ADD MSTORE DUP2 DUP2 PUSH2 0xF05 ADD MSTORE DUP2 DUP2 PUSH2 0xFD8 ADD MSTORE PUSH2 0x10B6 ADD MSTORE PUSH2 0x1311 PUSH0 RETURN INVALID PUSH1 0x80 PUSH1 0x40 MSTORE PUSH1 0x4 CALLDATASIZE LT PUSH2 0xE7 JUMPI PUSH0 CALLDATALOAD PUSH1 0xE0 SHR DUP1 PUSH4 0x5A05EE58 GT PUSH2 0x87 JUMPI DUP1 PUSH4 0xA79123A9 GT PUSH2 0x57 JUMPI DUP1 PUSH4 0xA79123A9 EQ PUSH2 0x4E3 JUMPI DUP1 PUSH4 0xA9B07C26 EQ PUSH2 0x502 JUMPI DUP1 PUSH4 0xDE74E57B EQ PUSH2 0x516 JUMPI DUP1 PUSH4 0xE8083863 EQ PUSH2 0x591 JUMPI PUSH0 DUP1 REVERT JUMPDEST DUP1 PUSH4 0x5A05EE58 EQ PUSH2 0x32C JUMPI DUP1 PUSH4 0x6D0BA1D3 EQ PUSH2 0x377 JUMPI DUP1 PUSH4 0x78BD7935 EQ PUSH2 0x38A JUMPI DUP1 PUSH4 0x96B5A755 EQ PUSH2 0x4C4 JUMPI PUSH0 DUP1 REVERT JUMPDEST DUP1 PUSH4 0x305A67A8 GT PUSH2 0xC2 JUMPI DUP1 PUSH4 0x305A67A8 EQ PUSH2 0x202 JUMPI DUP1 PUSH4 0x454A2AB3 EQ PUSH2 0x223 JUMPI DUP1 PUSH4 0x510219CD EQ PUSH2 0x236 JUMPI DUP1 PUSH4 0x571A26A0 EQ PUSH2 0x269 JUMPI PUSH0 DUP1 REVERT JUMPDEST DUP1 PUSH4 0x121683F EQ PUSH2 0xF2 JUMPI DUP1 PUSH4 0x107A274A EQ PUSH2 0x124 JUMPI DUP1 PUSH4 0x2AD71573 EQ PUSH2 0x1EE JUMPI PUSH0 DUP1 REVERT JUMPDEST CALLDATASIZE PUSH2 0xEE JUMPI STOP JUMPDEST PUSH0 DUP1 REVERT JUMPDEST CALLVALUE DUP1 ISZERO PUSH2 0xFD JUMPI PUSH0 DUP1 REVERT JUMPDEST POP PUSH2 0x111 PUSH2 0x10C CALLDATASIZE PUSH1 0x4 PUSH2 0x11F8 JUMP JUMPDEST PUSH2 0x5B0 JUMP JUMPDEST PUSH1 0x40 MLOAD SWAP1 DUP2 MSTORE PUSH1 0x20 ADD JUMPDEST PUSH1 0x40 MLOAD DUP1 SWAP2 SUB SWAP1 RETURN JUMPDEST CALLVALUE DUP1 ISZERO PUSH2 0x12F JUMPI PUSH0 DUP1 REVERT JUMPDEST POP PUSH2 0x1B0 PUSH2 0x13E CALLDATASIZE PUSH1 0x4 PUSH2 0x1218 JUMP JUMPDEST PUSH1 0x40 DUP1 MLOAD PUSH1 0x80 DUP2 ADD DUP3 MSTORE PUSH0 DUP1 DUP3 MSTORE PUSH1 0x20 DUP3 ADD DUP2 SWAP1 MSTORE SWAP2 DUP2 ADD DUP3 SWAP1 MSTORE PUSH1 0x60 DUP2 ADD SWAP2 SWAP1 SWAP2 MSTORE POP PUSH0 SWAP1 DUP2 MSTORE PUSH1 0x2 PUSH1 0x20 DUP2 DUP2 MSTORE PUSH1 0x40 SWAP3 DUP4 SWAP1 KECCAK256 DUP4 MLOAD PUSH1 0x80 DUP2 ADD DUP6 MSTORE DUP2 SLOAD PUSH1 0x1 PUSH1 0x1 PUSH1 0xA0 SHL SUB AND DUP2 MSTORE PUSH1 0x1 DUP3 ADD SLOAD SWAP3 DUP2 ADD SWAP3 SWAP1 SWAP3 MSTORE SWAP2 DUP3 ADD SLOAD SWAP3 DUP2 ADD SWAP3 SWAP1 SWAP3 MSTORE PUSH1 0x3 ADD SLOAD PUSH1 0xFF AND ISZERO ISZERO PUSH1 0x60 DUP3 ADD MSTORE SWAP1 JUMP JUMPDEST PUSH1 0x40 MLOAD PUSH2 0x11B SWAP2 SWAP1 DUP2 MLOAD PUSH1 0x1 PUSH1 0x1 PUSH1 0xA0 SHL SUB AND DUP2 MSTORE PUSH1 0x20 DUP1 DUP4 ADD MLOAD SWAP1 DUP3 ADD MSTORE PUSH1 0x40 DUP1 DUP4 ADD MLOAD SWAP1 DUP3 ADD MSTORE PUSH1 0x60 SWAP2 DUP3 ADD MLOAD ISZERO ISZERO SWAP2 DUP2 ADD SWAP2 SWAP1 SWAP2 MSTORE PUSH1 0x80 ADD SWAP1 JUMP JUMPDEST CALLVALUE DUP1 ISZERO PUSH2 0x1F9 JUMPI PUSH0 DUP1 REVERT JUMPDEST POP PUSH2 0x111 PUSH2 0x7CE JUMP JUMPDEST CALLVALUE DUP1 ISZERO PUSH2 0x20D JUMPI PUSH0 DUP1 REVERT JUMPDEST POP PUSH2 0x221 PUSH2 0x21C CALLDATASIZE PUSH1 0x4 PUSH2 0x1218 JUMP JUMPDEST PUSH2 0x7E2 JUMP JUMPDEST STOP JUMPDEST PUSH2 0x221 PUSH2 0x231 CALLDATASIZE PUSH1 0x4 PUSH2 0x1218 JUMP JUMPDEST PUSH2 0x888 JUMP JUMPDEST CALLVALUE DUP1 ISZERO PUSH2 0x241 JUMPI PUSH0 DUP1 REVERT JUMPDEST POP PUSH2 0x111 PUSH32 0x0 DUP2 JUMP JUMPDEST CALLVALUE DUP1 ISZERO PUSH2 0x274 JUMPI PUSH0 DUP1 REVERT JUMPDEST POP PUSH2 0x2DB PUSH2 0x283 CALLDATASIZE PUSH1 0x4 PUSH2 0x1218 JUMP JUMPDEST PUSH1 0x3 PUSH1 0x20 DUP2 SWAP1 MSTORE PUSH0 SWAP2 DUP3 MSTORE PUSH1 0x40 SWAP1 SWAP2 KECCAK256 DUP1 SLOAD PUSH1 0x1 DUP3 ADD SLOAD PUSH1 0x2 DUP4 ADD SLOAD SWAP4 DUP4 ADD SLOAD PUSH1 0x4 DUP5 ADD SLOAD PUSH1 0x5 SWAP1 SWAP5 ADD SLOAD PUSH1 0x1 PUSH1 0x1 PUSH1 0xA0 SHL SUB SWAP4 DUP5 AND SWAP6 SWAP3 SWAP5 SWAP3 SWAP4 PUSH8 0xFFFFFFFFFFFFFFFF DUP4 AND SWAP4 PUSH1 0x1 PUSH1 0x40 SHL SWAP1 SWAP4 DIV AND SWAP2 SWAP1 PUSH1 0xFF AND DUP8 JUMP JUMPDEST PUSH1 0x40 DUP1 MLOAD PUSH1 0x1 PUSH1 0x1 PUSH1 0xA0 SHL SUB SWAP9 DUP10 AND DUP2 MSTORE PUSH1 0x20 DUP2 ADD SWAP8 SWAP1 SWAP8 MSTORE DUP7 ADD SWAP5 SWAP1 SWAP5 MSTORE PUSH8 0xFFFFFFFFFFFFFFFF SWAP1 SWAP3 AND PUSH1 0x60 DUP6 ADD MSTORE SWAP4 SWAP1 SWAP4 AND PUSH1 0x80 DUP4 ADD MSTORE PUSH1 0xA0 DUP3 ADD SWAP3 SWAP1 SWAP3 MSTORE SWAP1 ISZERO ISZERO PUSH1 0xC0 DUP3 ADD MSTORE PUSH1 0xE0 ADD PUSH2 0x11B JUMP JUMPDEST CALLVALUE DUP1 ISZERO PUSH2 0x337 JUMPI PUSH0 DUP1 REVERT JUMPDEST POP PUSH2 0x35F PUSH32 0x0 DUP2 JUMP JUMPDEST PUSH1 0x40 MLOAD PUSH1 0x1 PUSH1 0x1 PUSH1 0xA0 SHL SUB SWAP1 SWAP2 AND DUP2 MSTORE PUSH1 0x20 ADD PUSH2 0x11B JUMP JUMPDEST PUSH2 0x221 PUSH2 0x385 CALLDATASIZE PUSH1 0x4 PUSH2 0x11F8 JUMP JUMPDEST PUSH2 0x9D9 JUMP JUMPDEST CALLVALUE DUP1 ISZERO PUSH2 0x395 JUMPI PUSH0 DUP1 REVERT JUMPDEST POP PUSH2 0x459 PUSH2 0x3A4 CALLDATASIZE PUSH1 0x4 PUSH2 0x1218 JUMP JUMPDEST PUSH1 0x40 DUP1 MLOAD PUSH1 0xE0 DUP2 ADD DUP3 MSTORE PUSH0 DUP1 DUP3 MSTORE PUSH1 0x20 DUP3 ADD DUP2 SWAP1 MSTORE SWAP2 DUP2 ADD DUP3 SWAP1 MSTORE PUSH1 0x60 DUP2 ADD DUP3 SWAP1 MSTORE PUSH1 0x80 DUP2 ADD DUP3 SWAP1 MSTORE PUSH1 0xA0 DUP2 ADD DUP3 SWAP1 MSTORE PUSH1 0xC0 DUP2 ADD SWAP2 SWAP1 SWAP2 MSTORE POP PUSH0 SWAP1 DUP2 MSTORE PUSH1 0x3 PUSH1 0x20 DUP2 DUP2 MSTORE PUSH1 0x40 SWAP3 DUP4 SWAP1 KECCAK256 DUP4 MLOAD PUSH1 0xE0 DUP2 ADD DUP6 MSTORE DUP2 SLOAD PUSH1 0x1 PUSH1 0x1 PUSH1 0xA0 SHL SUB SWAP1 DUP2 AND DUP3 MSTORE PUSH1 0x1 DUP4 ADD SLOAD SWAP4 DUP3 ADD SWAP4 SWAP1 SWAP4 MSTORE PUSH1 0x2 DUP3 ADD SLOAD SWAP5 DUP2 ADD SWAP5 SWAP1 SWAP5 MSTORE SWAP2 DUP3 ADD SLOAD PUSH8 0xFFFFFFFFFFFFFFFF DUP2 AND PUSH1 0x60 DUP6 ADD MSTORE PUSH1 0x1 PUSH1 0x40 SHL SWAP1 DIV AND PUSH1 0x80 DUP4 ADD MSTORE PUSH1 0x4 DUP2 ADD SLOAD PUSH1 0xA0 DUP4 ADD MSTORE PUSH1 0x5 ADD SLOAD PUSH1 0xFF AND ISZERO ISZERO PUSH1 0xC0 DUP3 ADD MSTORE SWAP1 JUMP JUMPDEST PUSH1 0x40 MLOAD PUSH2 0x11B SWAP2 SWAP1 DUP2 MLOAD PUSH1 0x1 PUSH1 0x1 PUSH1 0xA0 SHL SUB SWAP1 DUP2 AND DUP3 MSTORE PUSH1 0x20 DUP1 DUP5 ADD MLOAD SWAP1 DUP4 ADD MSTORE PUSH1 0x40 DUP1 DUP5 ADD MLOAD SWAP1 DUP4 ADD MSTORE PUSH1 0x60 DUP1 DUP5 ADD MLOAD PUSH8 0xFFFFFFFFFFFFFFFF AND SWAP1 DUP4 ADD MSTORE PUSH1 0x80 DUP1 DUP5 ADD MLOAD SWAP1 SWAP2 AND SWAP1 DUP3 ADD MSTORE PUSH1 0xA0 DUP3 DUP2 ADD MLOAD SWAP1 DUP3 ADD MSTORE PUSH1 0xC0 SWAP2 DUP3 ADD MLOAD ISZERO ISZERO SWAP2 DUP2 ADD SWAP2 SWAP1 SWAP2 MSTORE PUSH1 0xE0 ADD SWAP1 JUMP JUMPDEST CALLVALUE DUP1 ISZERO PUSH2 0x4CF JUMPI PUSH0 DUP1 REVERT JUMPDEST POP PUSH2 0x221 PUSH2 0x4DE CALLDATASIZE PUSH1 0x4 PUSH2 0x1218 JUMP JUMPDEST PUSH2 0xB3C JUMP JUMPDEST CALLVALUE DUP1 ISZERO PUSH2 0x4EE JUMPI PUSH0 DUP1 REVERT JUMPDEST POP PUSH2 0x111 PUSH2 0x4FD CALLDATASIZE PUSH1 0x4 PUSH2 0x11F8 JUMP JUMPDEST PUSH2 0xC52 JUMP JUMPDEST CALLVALUE DUP1 ISZERO PUSH2 0x50D JUMPI PUSH0 DUP1 REVERT JUMPDEST POP PUSH2 0x111 PUSH2 0xD8C JUMP JUMPDEST CALLVALUE DUP1 ISZERO PUSH2 0x521 JUMPI PUSH0 DUP1 REVERT JUMPDEST POP PUSH2 0x565 PUSH2 0x530 CALLDATASIZE PUSH1 0x4 PUSH2 0x1218 JUMP JUMPDEST PUSH1 0x2 PUSH1 0x20 DUP2 SWAP1 MSTORE PUSH0 SWAP2 DUP3 MSTORE PUSH1 0x40 SWAP1 SWAP2 KECCAK256 DUP1 SLOAD PUSH1 0x1 DUP3 ADD SLOAD SWAP3 DUP3 ADD SLOAD PUSH1 0x3 SWAP1 SWAP3 ADD SLOAD PUSH1 0x1 PUSH1 0x1 PUSH1 0xA0 SHL SUB SWAP1 SWAP2 AND SWAP3 SWAP2 SWAP1 PUSH1 0xFF AND DUP5 JUMP JUMPDEST PUSH1 0x40 DUP1 MLOAD PUSH1 0x1 PUSH1 0x1 PUSH1 0xA0 SHL SUB SWAP1 SWAP6 AND DUP6 MSTORE PUSH1 0x20 DUP6 ADD SWAP4 SWAP1 SWAP4 MSTORE SWAP2 DUP4 ADD MSTORE ISZERO ISZERO PUSH1 0x60 DUP3 ADD MSTORE PUSH1 0x80 ADD PUSH2 0x11B JUMP JUMPDEST CALLVALUE DUP1 ISZERO PUSH2 0x59C JUMPI PUSH0 DUP1 REVERT JUMPDEST POP PUSH2 0x221 PUSH2 0x5AB CALLDATASIZE PUSH1 0x4 PUSH2 0x1218 JUMP JUMPDEST PUSH2 0xD9B JUMP JUMPDEST PUSH0 DUP1 DUP4 GT PUSH2 0x5EE JUMPI PUSH1 0x40 MLOAD PUSH3 0x461BCD PUSH1 0xE5 SHL DUP2 MSTORE PUSH1 0x20 PUSH1 0x4 DUP3 ADD MSTORE PUSH1 0x6 PUSH1 0x24 DUP3 ADD MSTORE PUSH6 0x185B5BDD5B9D PUSH1 0xD2 SHL PUSH1 0x44 DUP3 ADD MSTORE PUSH1 0x64 ADD JUMPDEST PUSH1 0x40 MLOAD DUP1 SWAP2 SUB SWAP1 REVERT JUMPDEST PUSH0 DUP3 GT PUSH2 0x628 JUMPI PUSH1 0x40 MLOAD PUSH3 0x461BCD PUSH1 0xE5 SHL DUP2 MSTORE PUSH1 0x20 PUSH1 0x4 DUP3 ADD MSTORE PUSH1 0x8 PUSH1 0x24 DUP3 ADD MSTORE PUSH8 0x6D696E5072696365 PUSH1 0xC0 SHL PUSH1 0x44 DUP3 ADD MSTORE PUSH1 0x64 ADD PUSH2 0x5E5 JUMP JUMPDEST PUSH2 0x632 CALLER DUP5 PUSH2 0xEDE JUMP JUMPDEST PUSH1 0x1 DUP1 SLOAD SWAP1 PUSH0 PUSH2 0x641 DUP4 PUSH2 0x1243 JUMP JUMPDEST SWAP2 SWAP1 POP SSTORE SWAP1 POP PUSH1 0x40 MLOAD DUP1 PUSH1 0xE0 ADD PUSH1 0x40 MSTORE DUP1 CALLER PUSH1 0x1 PUSH1 0x1 PUSH1 0xA0 SHL SUB AND DUP2 MSTORE PUSH1 0x20 ADD DUP5 DUP2 MSTORE PUSH1 0x20 ADD DUP4 DUP2 MSTORE PUSH1 0x20 ADD PUSH32 0x0 TIMESTAMP PUSH2 0x699 SWAP2 SWAP1 PUSH2 0x125B JUMP JUMPDEST PUSH8 0xFFFFFFFFFFFFFFFF SWAP1 DUP2 AND DUP3 MSTORE PUSH0 PUSH1 0x20 DUP1 DUP5 ADD DUP3 SWAP1 MSTORE PUSH1 0x40 DUP1 DUP6 ADD DUP4 SWAP1 MSTORE PUSH1 0x60 SWAP5 DUP6 ADD DUP4 SWAP1 MSTORE DUP7 DUP4 MSTORE PUSH1 0x3 DUP1 DUP4 MSTORE SWAP3 DUP2 SWAP1 KECCAK256 DUP7 MLOAD DUP2 SLOAD PUSH1 0x1 PUSH1 0x1 PUSH1 0xA0 SHL SUB SWAP2 DUP3 AND PUSH1 0x1 PUSH1 0x1 PUSH1 0xA0 SHL SUB NOT SWAP1 SWAP2 AND OR DUP3 SSTORE SWAP3 DUP8 ADD MLOAD PUSH1 0x1 DUP3 ADD SSTORE SWAP1 DUP7 ADD MLOAD PUSH1 0x2 DUP3 ADD SSTORE SWAP4 DUP6 ADD MLOAD SWAP2 DUP5 ADD DUP1 SLOAD PUSH1 0x80 DUP8 ADD MLOAD SWAP1 SWAP3 AND PUSH1 0x1 PUSH1 0x40 SHL MUL PUSH1 0x1 PUSH1 0x1 PUSH1 0xE0 SHL SUB NOT SWAP1 SWAP3 AND SWAP3 SWAP1 SWAP4 AND SWAP2 SWAP1 SWAP2 OR OR SWAP1 SSTORE PUSH1 0xA0 DUP3 ADD MLOAD PUSH1 0x4 DUP3 ADD SSTORE PUSH1 0xC0 SWAP1 SWAP2 ADD MLOAD PUSH1 0x5 SWAP1 SWAP2 ADD DUP1 SLOAD SWAP2 ISZERO ISZERO PUSH1 0xFF NOT SWAP1 SWAP3 AND SWAP2 SWAP1 SWAP2 OR SWAP1 SSTORE CALLER DUP2 PUSH32 0x7C83FA578702F727C7F27DAAD1ED3EF74A9DA44FA49F915F5AC2FC924C0B39CF DUP6 DUP6 PUSH2 0x79F PUSH32 0x0 TIMESTAMP PUSH2 0x125B JUMP JUMPDEST PUSH1 0x40 DUP1 MLOAD SWAP4 DUP5 MSTORE PUSH1 0x20 DUP5 ADD SWAP3 SWAP1 SWAP3 MSTORE PUSH8 0xFFFFFFFFFFFFFFFF AND SWAP1 DUP3 ADD MSTORE PUSH1 0x60 ADD JUMPDEST PUSH1 0x40 MLOAD DUP1 SWAP2 SUB SWAP1 LOG3 SWAP3 SWAP2 POP POP JUMP JUMPDEST PUSH0 PUSH1 0x1 DUP1 SLOAD PUSH2 0x7DD SWAP2 SWAP1 PUSH2 0x1274 JUMP JUMPDEST SWAP1 POP SWAP1 JUMP JUMPDEST PUSH0 DUP2 DUP2 MSTORE PUSH1 0x2 PUSH1 0x20 MSTORE PUSH1 0x40 SWAP1 KECCAK256 PUSH1 0x3 DUP2 ADD SLOAD PUSH1 0xFF AND PUSH2 0x814 JUMPI PUSH1 0x40 MLOAD PUSH4 0x4065AAF1 PUSH1 0xE1 SHL DUP2 MSTORE PUSH1 0x4 ADD PUSH1 0x40 MLOAD DUP1 SWAP2 SUB SWAP1 REVERT JUMPDEST DUP1 SLOAD PUSH1 0x1 PUSH1 0x1 PUSH1 0xA0 SHL SUB AND CALLER EQ PUSH2 0x83E JUMPI PUSH1 0x40 MLOAD PUSH4 0x5EC82351 PUSH1 0xE0 SHL DUP2 MSTORE PUSH1 0x4 ADD PUSH1 0x40 MLOAD DUP1 SWAP2 SUB SWAP1 REVERT JUMPDEST PUSH1 0x3 DUP2 ADD DUP1 SLOAD PUSH1 0xFF NOT AND SWAP1 SSTORE PUSH1 0x1 DUP2 ADD SLOAD PUSH2 0x85A SWAP1 CALLER SWAP1 PUSH2 0x108E JUMP JUMPDEST PUSH1 0x40 MLOAD DUP3 SWAP1 PUSH32 0x411AEE90354C51B1B04CD563FCAB2617142A9D50DA19232D888547C8A1B7FD8A SWAP1 PUSH0 SWAP1 LOG2 POP POP JUMP JUMPDEST PUSH0 DUP2 DUP2 MSTORE PUSH1 0x3 PUSH1 0x20 MSTORE PUSH1 0x40 SWAP1 KECCAK256 PUSH1 0x5 DUP2 ADD SLOAD PUSH1 0xFF AND ISZERO PUSH2 0x8BA JUMPI PUSH1 0x40 MLOAD PUSH3 0x560FF9 PUSH1 0xE8 SHL DUP2 MSTORE PUSH1 0x4 ADD PUSH1 0x40 MLOAD DUP1 SWAP2 SUB SWAP1 REVERT JUMPDEST PUSH1 0x3 DUP2 ADD SLOAD PUSH8 0xFFFFFFFFFFFFFFFF AND TIMESTAMP LT PUSH2 0x8E8 JUMPI PUSH1 0x40 MLOAD PUSH4 0x283A4A61 PUSH1 0xE2 SHL DUP2 MSTORE PUSH1 0x4 ADD PUSH1 0x40 MLOAD DUP1 SWAP2 SUB SWAP1 REVERT JUMPDEST PUSH0 DUP2 PUSH1 0x4 ADD SLOAD PUSH0 EQ PUSH2 0x909 JUMPI PUSH1 0x4 DUP3 ADD SLOAD PUSH2 0x904 SWAP1 PUSH1 0x1 PUSH2 0x125B JUMP JUMPDEST PUSH2 0x90F JUMP JUMPDEST DUP2 PUSH1 0x2 ADD SLOAD JUMPDEST SWAP1 POP DUP1 CALLVALUE LT ISZERO PUSH2 0x932 JUMPI PUSH1 0x40 MLOAD PUSH4 0x5069375B PUSH1 0xE1 SHL DUP2 MSTORE PUSH1 0x4 ADD PUSH1 0x40 MLOAD DUP1 SWAP2 SUB SWAP1 REVERT JUMPDEST PUSH1 0x3 DUP3 ADD SLOAD PUSH1 0x1 PUSH1 0x40 SHL SWAP1 DIV PUSH1 0x1 PUSH1 0x1 PUSH1 0xA0 SHL SUB AND ISZERO PUSH2 0x970 JUMPI PUSH1 0x3 DUP3 ADD SLOAD PUSH1 0x4 DUP4 ADD SLOAD PUSH2 0x970 SWAP2 PUSH1 0x1 PUSH1 0x40 SHL SWAP1 DIV PUSH1 0x1 PUSH1 0x1 PUSH1 0xA0 SHL SUB AND SWAP1 PUSH2 0x1163 JUMP JUMPDEST PUSH1 0x3 DUP3 ADD DUP1 SLOAD PUSH9 0x10000000000000000 PUSH1 0x1 PUSH1 0xE0 SHL SUB NOT AND CALLER PUSH1 0x1 PUSH1 0x40 SHL DUP2 MUL SWAP2 SWAP1 SWAP2 OR SWAP1 SWAP2 SSTORE CALLVALUE PUSH1 0x4 DUP5 ADD DUP2 SWAP1 SSTORE PUSH1 0x40 MLOAD SWAP1 DUP2 MSTORE DUP5 SWAP1 PUSH32 0xB8D756F2D1DA4663767EB4D559780ACE84F2F65A421A60DDCB47E8B2E5D2FD26 SWAP1 PUSH1 0x20 ADD PUSH1 0x40 MLOAD DUP1 SWAP2 SUB SWAP1 LOG3 POP POP POP JUMP JUMPDEST PUSH0 DUP3 DUP2 MSTORE PUSH1 0x2 PUSH1 0x20 MSTORE PUSH1 0x40 SWAP1 KECCAK256 PUSH1 0x3 DUP2 ADD SLOAD PUSH1 0xFF AND PUSH2 0xA0B JUMPI PUSH1 0x40 MLOAD PUSH4 0x4065AAF1 PUSH1 0xE1 SHL DUP2 MSTORE PUSH1 0x4 ADD PUSH1 0x40 MLOAD DUP1 SWAP2 SUB SWAP1 REVERT JUMPDEST DUP2 ISZERO DUP1 PUSH2 0xA1B JUMPI POP DUP1 PUSH1 0x1 ADD SLOAD DUP3 GT JUMPDEST ISZERO PUSH2 0xA39 JUMPI PUSH1 0x40 MLOAD PUSH4 0x162908E3 PUSH1 0xE1 SHL DUP2 MSTORE PUSH1 0x4 ADD PUSH1 0x40 MLOAD DUP1 SWAP2 SUB SWAP1 REVERT JUMPDEST PUSH0 DUP3 DUP3 PUSH1 0x2 ADD SLOAD PUSH2 0xA4A SWAP2 SWAP1 PUSH2 0x1287 JUMP JUMPDEST SWAP1 POP DUP1 CALLVALUE LT ISZERO PUSH2 0xA8F JUMPI PUSH1 0x40 MLOAD PUSH3 0x461BCD PUSH1 0xE5 SHL DUP2 MSTORE PUSH1 0x20 PUSH1 0x4 DUP3 ADD MSTORE PUSH1 0x10 PUSH1 0x24 DUP3 ADD MSTORE PUSH16 0xD2DCE6EACCCCD2C6D2CADCE8408AA89 PUSH1 0x83 SHL PUSH1 0x44 DUP3 ADD MSTORE PUSH1 0x64 ADD PUSH2 0x5E5 JUMP JUMPDEST DUP3 DUP3 PUSH1 0x1 ADD PUSH0 DUP3 DUP3 SLOAD PUSH2 0xAA2 SWAP2 SWAP1 PUSH2 0x1274 JUMP JUMPDEST SWAP1 SWAP2 SSTORE POP POP PUSH1 0x1 DUP3 ADD SLOAD PUSH0 SUB PUSH2 0xABF JUMPI PUSH1 0x3 DUP3 ADD DUP1 SLOAD PUSH1 0xFF NOT AND SWAP1 SSTORE JUMPDEST PUSH2 0xAC9 CALLER DUP5 PUSH2 0x108E JUMP JUMPDEST DUP2 SLOAD PUSH2 0xADE SWAP1 PUSH1 0x1 PUSH1 0x1 PUSH1 0xA0 SHL SUB AND DUP3 PUSH2 0x1163 JUMP JUMPDEST DUP1 CALLVALUE GT ISZERO PUSH2 0xAF9 JUMPI PUSH2 0xAF9 CALLER PUSH2 0xAF4 DUP4 CALLVALUE PUSH2 0x1274 JUMP JUMPDEST PUSH2 0x1163 JUMP JUMPDEST PUSH1 0x40 DUP1 MLOAD DUP5 DUP2 MSTORE PUSH1 0x20 DUP2 ADD DUP4 SWAP1 MSTORE CALLER SWAP2 DUP7 SWAP2 PUSH32 0xDB6CD6881FC0453B2D01F52EB5A16417707659F245732ABC10F847426E3525D SWAP2 ADD PUSH1 0x40 MLOAD DUP1 SWAP2 SUB SWAP1 LOG3 POP POP POP POP JUMP JUMPDEST PUSH0 DUP2 DUP2 MSTORE PUSH1 0x3 PUSH1 0x20 MSTORE PUSH1 0x40 SWAP1 KECCAK256 PUSH1 0x5 DUP2 ADD SLOAD PUSH1 0xFF AND ISZERO PUSH2 0xB6E JUMPI PUSH1 0x40 MLOAD PUSH3 0x560FF9 PUSH1 0xE8 SHL DUP2 MSTORE PUSH1 0x4 ADD PUSH1 0x40 MLOAD DUP1 SWAP2 SUB SWAP1 REVERT JUMPDEST DUP1 SLOAD PUSH1 0x1 PUSH1 0x1 PUSH1 0xA0 SHL SUB AND CALLER EQ PUSH2 0xB98 JUMPI PUSH1 0x40 MLOAD PUSH4 0x5EC82351 PUSH1 0xE0 SHL DUP2 MSTORE PUSH1 0x4 ADD PUSH1 0x40 MLOAD DUP1 SWAP2 SUB SWAP1 REVERT JUMPDEST PUSH1 0x3 DUP2 ADD SLOAD PUSH8 0xFFFFFFFFFFFFFFFF AND TIMESTAMP LT PUSH2 0xBC6 JUMPI PUSH1 0x40 MLOAD PUSH4 0x283A4A61 PUSH1 0xE2 SHL DUP2 MSTORE PUSH1 0x4 ADD PUSH1 0x40 MLOAD DUP1 SWAP2 SUB SWAP1 REVERT JUMPDEST PUSH1 0x3 DUP2 ADD SLOAD PUSH1 0x1 PUSH1 0x40 SHL SWAP1 DIV PUSH1 0x1 PUSH1 0x1 PUSH1 0xA0 SHL SUB AND ISZERO PUSH2 0xBF9 JUMPI PUSH1 0x40 MLOAD PUSH4 0x5EC82351 PUSH1 0xE0 SHL DUP2 MSTORE PUSH1 0x4 ADD PUSH1 0x40 MLOAD DUP1 SWAP2 SUB SWAP1 REVERT JUMPDEST PUSH1 0x5 DUP2 ADD DUP1 SLOAD PUSH1 0xFF NOT AND PUSH1 0x1 SWAP1 DUP2 OR SWAP1 SWAP2 SSTORE DUP2 SLOAD SWAP1 DUP3 ADD SLOAD PUSH2 0xC24 SWAP2 PUSH1 0x1 PUSH1 0x1 PUSH1 0xA0 SHL SUB AND SWAP1 PUSH2 0x108E JUMP JUMPDEST PUSH1 0x40 MLOAD DUP3 SWAP1 PUSH32 0x2809C7E17BF978FBC7194C0A694B638C4215E9140CACC6C38CA36010B45697DF SWAP1 PUSH0 SWAP1 LOG2 POP POP JUMP JUMPDEST PUSH0 DUP1 DUP4 GT PUSH2 0xC8B JUMPI PUSH1 0x40 MLOAD PUSH3 0x461BCD PUSH1 0xE5 SHL DUP2 MSTORE PUSH1 0x20 PUSH1 0x4 DUP3 ADD MSTORE PUSH1 0x6 PUSH1 0x24 DUP3 ADD MSTORE PUSH6 0x185B5BDD5B9D PUSH1 0xD2 SHL PUSH1 0x44 DUP3 ADD MSTORE PUSH1 0x64 ADD PUSH2 0x5E5 JUMP JUMPDEST PUSH0 DUP3 GT PUSH2 0xCC2 JUMPI PUSH1 0x40 MLOAD PUSH3 0x461BCD PUSH1 0xE5 SHL DUP2 MSTORE PUSH1 0x20 PUSH1 0x4 DUP3 ADD MSTORE PUSH1 0x5 PUSH1 0x24 DUP3 ADD MSTORE PUSH5 0x7072696365 PUSH1 0xD8 SHL PUSH1 0x44 DUP3 ADD MSTORE PUSH1 0x64 ADD PUSH2 0x5E5 JUMP JUMPDEST PUSH2 0xCCC CALLER DUP5 PUSH2 0xEDE JUMP JUMPDEST PUSH0 DUP1 SLOAD SWAP1 DUP1 PUSH2 0xCDA DUP4 PUSH2 0x1243 JUMP JUMPDEST SWAP1 SWAP2 SSTORE POP PUSH1 0x40 DUP1 MLOAD PUSH1 0x80 DUP2 ADD DUP3 MSTORE CALLER DUP1 DUP3 MSTORE PUSH1 0x20 DUP1 DUP4 ADD DUP9 DUP2 MSTORE DUP4 DUP6 ADD DUP9 DUP2 MSTORE PUSH1 0x1 PUSH1 0x60 DUP7 ADD DUP2 DUP2 MSTORE PUSH0 DUP10 DUP2 MSTORE PUSH1 0x2 DUP1 DUP8 MSTORE SWAP1 DUP10 SWAP1 KECCAK256 SWAP8 MLOAD DUP9 SLOAD PUSH1 0x1 PUSH1 0x1 PUSH1 0xA0 SHL SUB NOT AND PUSH1 0x1 PUSH1 0x1 PUSH1 0xA0 SHL SUB SWAP1 SWAP2 AND OR DUP9 SSTORE SWAP4 MLOAD SWAP2 DUP8 ADD SWAP2 SWAP1 SWAP2 SSTORE SWAP1 MLOAD SWAP2 DUP6 ADD SWAP2 SWAP1 SWAP2 SSTORE MLOAD PUSH1 0x3 SWAP1 SWAP4 ADD DUP1 SLOAD PUSH1 0xFF NOT AND SWAP4 ISZERO ISZERO SWAP4 SWAP1 SWAP4 OR SWAP1 SWAP3 SSTORE DUP3 MLOAD DUP8 DUP2 MSTORE SWAP2 DUP3 ADD DUP7 SWAP1 MSTORE SWAP3 SWAP4 POP DUP4 SWAP2 PUSH32 0x12DC294B81A709D694B1337A350A12A00076C19A77A25AAB67A5F0C07E0F164D SWAP2 ADD PUSH2 0x7C0 JUMP JUMPDEST PUSH0 PUSH1 0x1 PUSH0 SLOAD PUSH2 0x7DD SWAP2 SWAP1 PUSH2 0x1274 JUMP JUMPDEST PUSH0 DUP2 DUP2 MSTORE PUSH1 0x3 PUSH1 0x20 MSTORE PUSH1 0x40 SWAP1 KECCAK256 PUSH1 0x5 DUP2 ADD SLOAD PUSH1 0xFF AND ISZERO PUSH2 0xDCD JUMPI PUSH1 0x40 MLOAD PUSH3 0x560FF9 PUSH1 0xE8 SHL DUP2 MSTORE PUSH1 0x4 ADD PUSH1 0x40 MLOAD DUP1 SWAP2 SUB SWAP1 REVERT JUMPDEST PUSH1 0x3 DUP2 ADD SLOAD PUSH8 0xFFFFFFFFFFFFFFFF AND TIMESTAMP LT ISZERO PUSH2 0xDFB JUMPI PUSH1 0x40 MLOAD PUSH3 0x3DE71 PUSH1 0xE8 SHL DUP2 MSTORE PUSH1 0x4 ADD PUSH1 0x40 MLOAD DUP1 SWAP2 SUB SWAP1 REVERT JUMPDEST PUSH1 0x5 DUP2 ADD DUP1 SLOAD PUSH1 0xFF NOT AND PUSH1 0x1 OR SWAP1 SSTORE PUSH1 0x3 DUP2 ADD SLOAD PUSH1 0x1 PUSH1 0x40 SHL SWAP1 DIV PUSH1 0x1 PUSH1 0x1 PUSH1 0xA0 SHL SUB AND PUSH2 0xE3D JUMPI DUP1 SLOAD PUSH1 0x1 DUP3 ADD SLOAD PUSH2 0xC24 SWAP2 PUSH1 0x1 PUSH1 0x1 PUSH1 0xA0 SHL SUB AND SWAP1 PUSH2 0x108E JUMP JUMPDEST PUSH1 0x3 DUP2 ADD SLOAD PUSH1 0x1 DUP3 ADD SLOAD PUSH2 0xE61 SWAP2 PUSH1 0x1 PUSH1 0x40 SHL SWAP1 DIV PUSH1 0x1 PUSH1 0x1 PUSH1 0xA0 SHL SUB AND SWAP1 PUSH2 0x108E JUMP JUMPDEST DUP1 SLOAD PUSH1 0x4 DUP3 ADD SLOAD PUSH2 0xE7B SWAP2 PUSH1 0x1 PUSH1 0x1 PUSH1 0xA0 SHL SUB AND SWAP1 PUSH2 0x1163 JUMP JUMPDEST DUP1 PUSH1 0x3 ADD PUSH1 0x8 SWAP1 SLOAD SWAP1 PUSH2 0x100 EXP SWAP1 DIV PUSH1 0x1 PUSH1 0x1 PUSH1 0xA0 SHL SUB AND PUSH1 0x1 PUSH1 0x1 PUSH1 0xA0 SHL SUB AND DUP3 PUSH32 0xC9F72B276A388619C6D185D146697036241880C36654B1A3FFDAD07C24038D99 DUP4 PUSH1 0x4 ADD SLOAD PUSH1 0x40 MLOAD PUSH2 0xED2 SWAP2 DUP2 MSTORE PUSH1 0x20 ADD SWAP1 JUMP JUMPDEST PUSH1 0x40 MLOAD DUP1 SWAP2 SUB SWAP1 LOG3 POP POP JUMP JUMPDEST PUSH1 0x40 MLOAD PUSH4 0x6EB1769F PUSH1 0xE1 SHL DUP2 MSTORE PUSH1 0x1 PUSH1 0x1 PUSH1 0xA0 SHL SUB DUP4 DUP2 AND PUSH1 0x4 DUP4 ADD MSTORE ADDRESS PUSH1 0x24 DUP4 ADD MSTORE DUP3 SWAP2 PUSH32 0x0 SWAP1 SWAP2 AND SWAP1 PUSH4 0xDD62ED3E SWAP1 PUSH1 0x44 ADD PUSH1 0x20 PUSH1 0x40 MLOAD DUP1 DUP4 SUB DUP2 DUP7 GAS STATICCALL ISZERO DUP1 ISZERO PUSH2 0xF4C JUMPI RETURNDATASIZE PUSH0 DUP1 RETURNDATACOPY RETURNDATASIZE PUSH0 REVERT JUMPDEST POP POP POP POP PUSH1 0x40 MLOAD RETURNDATASIZE PUSH1 0x1F NOT PUSH1 0x1F DUP3 ADD AND DUP3 ADD DUP1 PUSH1 0x40 MSTORE POP DUP2 ADD SWAP1 PUSH2 0xF70 SWAP2 SWAP1 PUSH2 0x129E JUMP JUMPDEST LT ISZERO PUSH2 0xFAA JUMPI PUSH1 0x40 MLOAD PUSH3 0x461BCD PUSH1 0xE5 SHL DUP2 MSTORE PUSH1 0x20 PUSH1 0x4 DUP3 ADD MSTORE PUSH1 0x9 PUSH1 0x24 DUP3 ADD MSTORE PUSH9 0x616C6C6F77616E6365 PUSH1 0xB8 SHL PUSH1 0x44 DUP3 ADD MSTORE PUSH1 0x64 ADD PUSH2 0x5E5 JUMP JUMPDEST PUSH1 0x40 MLOAD PUSH4 0x23B872DD PUSH1 0xE0 SHL DUP2 MSTORE PUSH1 0x1 PUSH1 0x1 PUSH1 0xA0 SHL SUB DUP4 DUP2 AND PUSH1 0x4 DUP4 ADD MSTORE ADDRESS PUSH1 0x24 DUP4 ADD MSTORE PUSH1 0x44 DUP3 ADD DUP4 SWAP1 MSTORE PUSH0 SWAP2 PUSH32 0x0 SWAP1 SWAP2 AND SWAP1 PUSH4 0x23B872DD SWAP1 PUSH1 0x64 ADD PUSH1 0x20 PUSH1 0x40 MLOAD DUP1 DUP4 SUB DUP2 PUSH0 DUP8 GAS CALL ISZERO DUP1 ISZERO PUSH2 0x1020 JUMPI RETURNDATASIZE PUSH0 DUP1 RETURNDATACOPY RETURNDATASIZE PUSH0 REVERT JUMPDEST POP POP POP POP PUSH1 0x40 MLOAD RETURNDATASIZE PUSH1 0x1F NOT PUSH1 0x1F DUP3 ADD AND DUP3 ADD DUP1 PUSH1 0x40 MSTORE POP DUP2 ADD SWAP1 PUSH2 0x1044 SWAP2 SWAP1 PUSH2 0x12B5 JUMP JUMPDEST SWAP1 POP DUP1 PUSH2 0x1089 JUMPI PUSH1 0x40 MLOAD PUSH3 0x461BCD PUSH1 0xE5 SHL DUP2 MSTORE PUSH1 0x20 PUSH1 0x4 DUP3 ADD MSTORE PUSH1 0x13 PUSH1 0x24 DUP3 ADD MSTORE PUSH19 0x1D1C985B9CD9995C919C9BDB4819985A5B1959 PUSH1 0x6A SHL PUSH1 0x44 DUP3 ADD MSTORE PUSH1 0x64 ADD PUSH2 0x5E5 JUMP JUMPDEST POP POP POP JUMP JUMPDEST PUSH1 0x40 MLOAD PUSH4 0xA9059CBB PUSH1 0xE0 SHL DUP2 MSTORE PUSH1 0x1 PUSH1 0x1 PUSH1 0xA0 SHL SUB DUP4 DUP2 AND PUSH1 0x4 DUP4 ADD MSTORE PUSH1 0x24 DUP3 ADD DUP4 SWAP1 MSTORE PUSH0 SWAP2 PUSH32 0x0 SWAP1 SWAP2 AND SWAP1 PUSH4 0xA9059CBB SWAP1 PUSH1 0x44 ADD PUSH1 0x20 PUSH1 0x40 MLOAD DUP1 DUP4 SUB DUP2 PUSH0 DUP8 GAS CALL ISZERO DUP1 ISZERO PUSH2 0x10FE JUMPI RETURNDATASIZE PUSH0 DUP1 RETURNDATACOPY RETURNDATASIZE PUSH0 REVERT JUMPDEST POP POP POP POP PUSH1 0x40 MLOAD RETURNDATASIZE PUSH1 0x1F NOT PUSH1 0x1F DUP3 ADD AND DUP3 ADD DUP1 PUSH1 0x40 MSTORE POP DUP2 ADD SWAP1 PUSH2 0x1122 SWAP2 SWAP1 PUSH2 0x12B5 JUMP JUMPDEST SWAP1 POP DUP1 PUSH2 0x1089 JUMPI PUSH1 0x40 MLOAD PUSH3 0x461BCD PUSH1 0xE5 SHL DUP2 MSTORE PUSH1 0x20 PUSH1 0x4 DUP3 ADD MSTORE PUSH1 0xF PUSH1 0x24 DUP3 ADD MSTORE PUSH15 0x1D1C985B9CD9995C8819985A5B1959 PUSH1 0x8A SHL PUSH1 0x44 DUP3 ADD MSTORE PUSH1 0x64 ADD PUSH2 0x5E5 JUMP JUMPDEST PUSH0 DUP3 PUSH1 0x1 PUSH1 0x1 PUSH1 0xA0 SHL SUB AND DUP3 PUSH1 0x40 MLOAD PUSH0 PUSH1 0x40 MLOAD DUP1 DUP4 SUB DUP2 DUP6 DUP8 GAS CALL SWAP3 POP POP POP RETURNDATASIZE DUP1 PUSH0 DUP2 EQ PUSH2 0x11AC JUMPI PUSH1 0x40 MLOAD SWAP2 POP PUSH1 0x1F NOT PUSH1 0x3F RETURNDATASIZE ADD AND DUP3 ADD PUSH1 0x40 MSTORE RETURNDATASIZE DUP3 MSTORE RETURNDATASIZE PUSH0 PUSH1 0x20 DUP5 ADD RETURNDATACOPY PUSH2 0x11B1 JUMP JUMPDEST PUSH1 0x60 SWAP2 POP JUMPDEST POP POP SWAP1 POP DUP1 PUSH2 0x1089 JUMPI PUSH1 0x40 MLOAD PUSH3 0x461BCD PUSH1 0xE5 SHL DUP2 MSTORE PUSH1 0x20 PUSH1 0x4 DUP3 ADD MSTORE PUSH1 0x13 PUSH1 0x24 DUP3 ADD MSTORE PUSH19 0x195D1A081D1C985B9CD9995C8819985A5B1959 PUSH1 0x6A SHL PUSH1 0x44 DUP3 ADD MSTORE PUSH1 0x64 ADD PUSH2 0x5E5 JUMP JUMPDEST PUSH0 DUP1 PUSH1 0x40 DUP4 DUP6 SUB SLT ISZERO PUSH2 0x1209 JUMPI PUSH0 DUP1 REVERT JUMPDEST POP POP DUP1 CALLDATALOAD SWAP3 PUSH1 0x20 SWAP1 SWAP2 ADD CALLDATALOAD SWAP2 POP JUMP JUMPDEST PUSH0 PUSH1 0x20 DUP3 DUP5 SUB SLT ISZERO PUSH2 0x1228 JUMPI PUSH0 DUP1 REVERT JUMPDEST POP CALLDATALOAD SWAP2 SWAP1 POP JUMP JUMPDEST PUSH4 0x4E487B71 PUSH1 0xE0 SHL PUSH0 MSTORE PUSH1 0x11 PUSH1 0x4 MSTORE PUSH1 0x24 PUSH0 REVERT JUMPDEST PUSH0 PUSH1 0x1 DUP3 ADD PUSH2 0x1254 JUMPI PUSH2 0x1254 PUSH2 0x122F JUMP JUMPDEST POP PUSH1 0x1 ADD SWAP1 JUMP JUMPDEST DUP1 DUP3 ADD DUP1 DUP3 GT ISZERO PUSH2 0x126E JUMPI PUSH2 0x126E PUSH2 0x122F JUMP JUMPDEST SWAP3 SWAP2 POP POP JUMP JUMPDEST DUP2 DUP2 SUB DUP2 DUP2 GT ISZERO PUSH2 0x126E JUMPI PUSH2 0x126E PUSH2 0x122F JUMP JUMPDEST DUP1 DUP3 MUL DUP2 ISZERO DUP3 DUP3 DIV DUP5 EQ OR PUSH2 0x126E JUMPI PUSH2 0x126E PUSH2 0x122F JUMP JUMPDEST PUSH0 PUSH1 0x20 DUP3 DUP5 SUB SLT ISZERO PUSH2 0x12AE JUMPI PUSH0 DUP1 REVERT JUMPDEST POP MLOAD SWAP2 SWAP1 POP JUMP JUMPDEST PUSH0 PUSH1 0x20 DUP3 DUP5 SUB SLT ISZERO PUSH2 0x12C5 JUMPI PUSH0 DUP1 REVERT JUMPDEST DUP2 MLOAD DUP1 ISZERO ISZERO DUP2 EQ PUSH2 0x12D4 JUMPI PUSH0 DUP1 REVERT JUMPDEST SWAP4 SWAP3 POP POP POP JUMP INVALID LOG2 PUSH5 0x6970667358 0x22 SLT KECCAK256 0xB1 0xBB 0x2B REVERT CALLDATALOAD SWAP14 DIV 0x26 DUP5 DUP7 PUSH25 0xFE8E8E49FAB198718550FCED65FE4D5DCF12DC7DF864736F6C PUSH4 0x43000814 STOP CALLER "
				},
				"gasEstimates": {
					"creation": {
						"codeDepositCost": "976200",
						"executionCost": "infinite",
						"totalCost": "infinite"
					},
					"external": {
						"auctionCount()": "2448",
						"auctions(uint256)": "13341",
						"bid(uint256)": "infinite",
						"buyListing(uint256,uint256)": "infinite",
						"cancelAuction(uint256)": "infinite",
						"cancelListing(uint256)": "infinite",
						"cct()": "infinite",
						"createAuction(uint256,uint256)": "infinite",
						"createListing(uint256,uint256)": "infinite",
						"defaultAuctionDuration()": "infinite",
						"finalizeAuction(uint256)": "infinite",
						"getAuction(uint256)": "13678",
						"getListing(uint256)": "9184",
						"listingCount()": "2423",
						"listings(uint256)": "8966"
					},
					"internal": {
						"_payout(address,uint256)": "infinite",
						"_pullTokens(address,uint256)": "infinite",
						"_pushTokens(address,uint256)": "infinite"
					}
				},
				"methodIdentifiers": {
					"auctionCount()": "2ad71573",
					"auctions(uint256)": "571a26a0",
					"bid(uint256)": "454a2ab3",
					"buyListing(uint256,uint256)": "6d0ba1d3",
					"cancelAuction(uint256)": "96b5a755",
					"cancelListing(uint256)": "305a67a8",
					"cct()": "5a05ee58",
					"createAuction(uint256,uint256)": "0121683f",
					"createListing(uint256,uint256)": "a79123a9",
					"defaultAuctionDuration()": "510219cd",
					"finalizeAuction(uint256)": "e8083863",
					"getAuction(uint256)": "78bd7935",
					"getListing(uint256)": "107a274a",
					"listingCount()": "a9b07c26",
					"listings(uint256)": "de74e57b"
				}
			},
			"storageLayout": {
				"storage": [
					{
						"astId": 48,
						"contract": "backend/contracts/CarbonCreditMarketplace.sol:CarbonCreditMarketplace",
						"label": "nextListingId",
						"offset": 0,
						"slot": "0",
						"type": "t_uint256"
					},
					{
						"astId": 51,
						"contract": "backend/contracts/CarbonCreditMarketplace.sol:CarbonCreditMarketplace",
						"label": "nextAuctionId",
						"offset": 0,
						"slot": "1",
						"type": "t_uint256"
					},
					{
						"astId": 80,
						"contract": "backend/contracts/CarbonCreditMarketplace.sol:CarbonCreditMarketplace",
						"label": "listings",
						"offset": 0,
						"slot": "2",
						"type": "t_mapping(t_uint256,t_struct(Listing)60_storage)"
					},
					{
						"astId": 85,
						"contract": "backend/contracts/CarbonCreditMarketplace.sol:CarbonCreditMarketplace",
						"label": "auctions",
						"offset": 0,
						"slot": "3",
						"type": "t_mapping(t_uint256,t_struct(Auction)75_storage)"
					}
				],
				"types": {
					"t_address": {
						"encoding": "inplace",
						"label": "address",
						"numberOfBytes": "20"
					},
					"t_bool": {
						"encoding": "inplace",
						"label": "bool",
						"numberOfBytes": "1"
					},
					"t_mapping(t_uint256,t_struct(Auction)75_storage)": {
						"encoding": "mapping",
						"key": "t_uint256",
						"label": "mapping(uint256 => struct CarbonCreditMarketplace.Auction)",
						"numberOfBytes": "32",
						"value": "t_struct(Auction)75_storage"
					},
					"t_mapping(t_uint256,t_struct(Listing)60_storage)": {
						"encoding": "mapping",
						"key": "t_uint256",
						"label": "mapping(uint256 => struct CarbonCreditMarketplace.Listing)",
						"numberOfBytes": "32",
						"value": "t_struct(Listing)60_storage"
					},
					"t_struct(Auction)75_storage": {
						"encoding": "inplace",
						"label": "struct CarbonCreditMarketplace.Auction",
						"members": [
							{
								"astId": 62,
								"contract": "backend/contracts/CarbonCreditMarketplace.sol:CarbonCreditMarketplace",
								"label": "seller",
								"offset": 0,
								"slot": "0",
								"type": "t_address"
							},
							{
								"astId": 64,
								"contract": "backend/contracts/CarbonCreditMarketplace.sol:CarbonCreditMarketplace",
								"label": "amount",
								"offset": 0,
								"slot": "1",
								"type": "t_uint256"
							},
							{
								"astId": 66,
								"contract": "backend/contracts/CarbonCreditMarketplace.sol:CarbonCreditMarketplace",
								"label": "minPriceWei",
								"offset": 0,
								"slot": "2",
								"type": "t_uint256"
							},
							{
								"astId": 68,
								"contract": "backend/contracts/CarbonCreditMarketplace.sol:CarbonCreditMarketplace",
								"label": "endTime",
								"offset": 0,
								"slot": "3",
								"type": "t_uint64"
							},
							{
								"astId": 70,
								"contract": "backend/contracts/CarbonCreditMarketplace.sol:CarbonCreditMarketplace",
								"label": "highestBidder",
								"offset": 8,
								"slot": "3",
								"type": "t_address"
							},
							{
								"astId": 72,
								"contract": "backend/contracts/CarbonCreditMarketplace.sol:CarbonCreditMarketplace",
								"label": "highestBid",
								"offset": 0,
								"slot": "4",
								"type": "t_uint256"
							},
							{
								"astId": 74,
								"contract": "backend/contracts/CarbonCreditMarketplace.sol:CarbonCreditMarketplace",
								"label": "settled",
								"offset": 0,
								"slot": "5",
								"type": "t_bool"
							}
						],
						"numberOfBytes": "192"
					},
					"t_struct(Listing)60_storage": {
						"encoding": "inplace",
						"label": "struct CarbonCreditMarketplace.Listing",
						"members": [
							{
								"astId": 53,
								"contract": "backend/contracts/CarbonCreditMarketplace.sol:CarbonCreditMarketplace",
								"label": "seller",
								"offset": 0,
								"slot": "0",
								"type": "t_address"
							},
							{
								"astId": 55,
								"contract": "backend/contracts/CarbonCreditMarketplace.sol:CarbonCreditMarketplace",
								"label": "amount",
								"offset": 0,
								"slot": "1",
								"type": "t_uint256"
							},
							{
								"astId": 57,
								"contract": "backend/contracts/CarbonCreditMarketplace.sol:CarbonCreditMarketplace",
								"label": "pricePerTokenWei",
								"offset": 0,
								"slot": "2",
								"type": "t_uint256"
							},
							{
								"astId": 59,
								"contract": "backend/contracts/CarbonCreditMarketplace.sol:CarbonCreditMarketplace",
								"label": "active",
								"offset": 0,
								"slot": "3",
								"type": "t_bool"
							}
						],
						"numberOfBytes": "128"
					},
					"t_uint256": {
						"encoding": "inplace",
						"label": "uint256",
						"numberOfBytes": "32"
					},
					"t_uint64": {
						"encoding": "inplace",
						"label": "uint64",
						"numberOfBytes": "8"
					}
				}
			},
			"userdoc": {
				"kind": "user",
				"methods": {},
				"notice": "Supports fixed-price listings and timed auctions (default 6 minutes).",
				"version": 1
			}
		}
	}
}